{
  "contractName": "DaoAccount",
  "abi": [
    {
      "inputs": [
        {
          "internalType": "string",
          "name": "name",
          "type": "string"
        },
        {
          "internalType": "string",
          "name": "description",
          "type": "string"
        },
        {
          "internalType": "uint8",
          "name": "quorum",
          "type": "uint8"
        },
        {
          "internalType": "uint8",
          "name": "participationRate",
          "type": "uint8"
        },
        {
          "internalType": "uint256",
          "name": "votingDelay",
          "type": "uint256"
        },
        {
          "internalType": "uint256",
          "name": "votingPeriod",
          "type": "uint256"
        }
      ],
      "stateMutability": "nonpayable",
      "type": "constructor"
    },
    {
      "inputs": [
        {
          "internalType": "address",
          "name": "daoAddress",
          "type": "address"
        }
      ],
      "name": "_getAddressDaoPermission",
      "outputs": [
        {
          "internalType": "bytes",
          "name": "addressPermssions",
          "type": "bytes"
        }
      ],
      "stateMutability": "view",
      "type": "function"
    },
    {
      "inputs": [
        {
          "internalType": "bytes10",
          "name": "proposalSignature",
          "type": "bytes10"
        },
        {
          "internalType": "bytes20",
          "name": "proposalAttributeKey",
          "type": "bytes20"
        }
      ],
      "name": "_getAttributeValue",
      "outputs": [
        {
          "internalType": "bytes",
          "name": "value",
          "type": "bytes"
        }
      ],
      "stateMutability": "view",
      "type": "function"
    },
    {
      "inputs": [
        {
          "internalType": "uint256",
          "name": "index",
          "type": "uint256"
        }
      ],
      "name": "_getDaoAddressByIndex",
      "outputs": [
        {
          "internalType": "bytes",
          "name": "daoAddress",
          "type": "bytes"
        }
      ],
      "stateMutability": "view",
      "type": "function"
    },
    {
      "inputs": [],
      "name": "_getDaoAddressesArrayLength",
      "outputs": [
        {
          "internalType": "uint256",
          "name": "length",
          "type": "uint256"
        }
      ],
      "stateMutability": "view",
      "type": "function"
    },
    {
      "inputs": [],
      "name": "_getDaoDescription",
      "outputs": [
        {
          "internalType": "string",
          "name": "description",
          "type": "string"
        }
      ],
      "stateMutability": "view",
      "type": "function"
    },
    {
      "inputs": [],
      "name": "_getDaoName",
      "outputs": [
        {
          "internalType": "string",
          "name": "name",
          "type": "string"
        }
      ],
      "stateMutability": "view",
      "type": "function"
    },
    {
      "inputs": [],
      "name": "_getDaoParticipationRate",
      "outputs": [
        {
          "internalType": "uint8",
          "name": "participationRate",
          "type": "uint8"
        }
      ],
      "stateMutability": "view",
      "type": "function"
    },
    {
      "inputs": [],
      "name": "_getDaoQuorum",
      "outputs": [
        {
          "internalType": "uint8",
          "name": "quorum",
          "type": "uint8"
        }
      ],
      "stateMutability": "view",
      "type": "function"
    },
    {
      "inputs": [],
      "name": "_getDaoVotingDelay",
      "outputs": [
        {
          "internalType": "uint256",
          "name": "votingDelay",
          "type": "uint256"
        }
      ],
      "stateMutability": "view",
      "type": "function"
    },
    {
      "inputs": [],
      "name": "_getDaoVotingPeriod",
      "outputs": [
        {
          "internalType": "uint256",
          "name": "votingPeriod",
          "type": "uint256"
        }
      ],
      "stateMutability": "view",
      "type": "function"
    },
    {
      "inputs": [
        {
          "internalType": "address",
          "name": "delegator",
          "type": "address"
        }
      ],
      "name": "_getDelegateeOfTheDelegator",
      "outputs": [
        {
          "internalType": "address",
          "name": "delegatee",
          "type": "address"
        }
      ],
      "stateMutability": "view",
      "type": "function"
    },
    {
      "inputs": [
        {
          "internalType": "address",
          "name": "delegatee",
          "type": "address"
        },
        {
          "internalType": "uint256",
          "name": "index",
          "type": "uint256"
        }
      ],
      "name": "_getDelegatorByIndex",
      "outputs": [
        {
          "internalType": "address",
          "name": "delegator",
          "type": "address"
        }
      ],
      "stateMutability": "view",
      "type": "function"
    },
    {
      "inputs": [
        {
          "internalType": "address",
          "name": "delegatee",
          "type": "address"
        }
      ],
      "name": "_getDelegatorsArrayLength",
      "outputs": [
        {
          "internalType": "uint256",
          "name": "length",
          "type": "uint256"
        }
      ],
      "stateMutability": "view",
      "type": "function"
    },
    {
      "inputs": [
        {
          "internalType": "uint8",
          "name": "index",
          "type": "uint8"
        }
      ],
      "name": "_getPermissionsByIndex",
      "outputs": [
        {
          "internalType": "bytes32",
          "name": "permission",
          "type": "bytes32"
        }
      ],
      "stateMutability": "view",
      "type": "function"
    },
    {
      "inputs": [
        {
          "internalType": "uint256",
          "name": "creationTimestamp",
          "type": "uint256"
        },
        {
          "internalType": "string",
          "name": "proposalName",
          "type": "string"
        }
      ],
      "name": "_getProposalSignature",
      "outputs": [
        {
          "internalType": "bytes10",
          "name": "proposalSignature",
          "type": "bytes10"
        }
      ],
      "stateMutability": "pure",
      "type": "function"
    },
    {
      "inputs": [
        {
          "internalType": "uint256",
          "name": "index",
          "type": "uint256"
        }
      ],
      "name": "_getProposalSignatureByIndex",
      "outputs": [
        {
          "internalType": "bytes",
          "name": "proposalSignature",
          "type": "bytes"
        }
      ],
      "stateMutability": "view",
      "type": "function"
    },
    {
      "inputs": [
        {
          "internalType": "bytes10",
          "name": "proposalSignature",
          "type": "bytes10"
        }
      ],
      "name": "_getProposalVotes",
      "outputs": [
        {
          "internalType": "uint256",
          "name": "againstVotes",
          "type": "uint256"
        },
        {
          "internalType": "uint256",
          "name": "proVotes",
          "type": "uint256"
        },
        {
          "internalType": "uint256",
          "name": "abstainVotes",
          "type": "uint256"
        }
      ],
      "stateMutability": "view",
      "type": "function"
    },
    {
      "inputs": [],
      "name": "_getProposalsArrayLength",
      "outputs": [
        {
          "internalType": "uint256",
          "name": "length",
          "type": "uint256"
        }
      ],
      "stateMutability": "view",
      "type": "function"
    },
    {
      "inputs": [
        {
          "internalType": "bytes10",
          "name": "proposalSignature",
          "type": "bytes10"
        }
      ],
      "name": "_getTargetsAndDatas",
      "outputs": [
        {
          "internalType": "address[]",
          "name": "targets",
          "type": "address[]"
        },
        {
          "internalType": "bytes[]",
          "name": "datas",
          "type": "bytes[]"
        }
      ],
      "stateMutability": "view",
      "type": "function"
    },
    {
      "inputs": [
        {
          "internalType": "address",
          "name": "universalProfileAddress",
          "type": "address"
        },
        {
          "internalType": "bytes10",
          "name": "proposalSignature",
          "type": "bytes10"
        }
      ],
      "name": "_getVotedStatus",
      "outputs": [
        {
          "internalType": "bool",
          "name": "result",
          "type": "bool"
        }
      ],
      "stateMutability": "view",
      "type": "function"
    },
    {
      "inputs": [
        {
          "internalType": "bytes10",
          "name": "proposalSignature",
          "type": "bytes10"
        }
      ],
      "name": "_strategyOneResult",
      "outputs": [
        {
          "internalType": "bool",
          "name": "result",
          "type": "bool"
        }
      ],
      "stateMutability": "view",
      "type": "function"
    },
    {
      "inputs": [
        {
          "internalType": "bytes4",
          "name": "interfaceId",
          "type": "bytes4"
        }
      ],
      "name": "supportsInterface",
      "outputs": [
        {
          "internalType": "bool",
          "name": "",
          "type": "bool"
        }
      ],
      "stateMutability": "pure",
      "type": "function"
    },
    {
      "inputs": [
        {
          "internalType": "address",
          "name": "universalProfileAddress",
          "type": "address"
        },
        {
          "internalType": "uint8",
          "name": "index",
          "type": "uint8"
        }
      ],
      "name": "addPermission",
      "outputs": [],
      "stateMutability": "nonpayable",
      "type": "function"
    },
    {
      "inputs": [
        {
          "internalType": "address",
          "name": "universalProfileAddress",
          "type": "address"
        },
        {
          "internalType": "uint8",
          "name": "index",
          "type": "uint8"
        }
      ],
      "name": "removePermission",
      "outputs": [],
      "stateMutability": "nonpayable",
      "type": "function"
    },
    {
      "inputs": [
        {
          "internalType": "address",
          "name": "delegatee",
          "type": "address"
        }
      ],
      "name": "delegate",
      "outputs": [],
      "stateMutability": "nonpayable",
      "type": "function"
    },
    {
      "inputs": [
        {
          "internalType": "string",
          "name": "title",
          "type": "string"
        },
        {
          "internalType": "string",
          "name": "description",
          "type": "string"
        },
        {
          "internalType": "address[]",
          "name": "targets",
          "type": "address[]"
        },
        {
          "internalType": "bytes[]",
          "name": "datas",
          "type": "bytes[]"
        }
      ],
      "name": "createProposal",
      "outputs": [
        {
          "internalType": "bytes10",
          "name": "proposalSignature",
          "type": "bytes10"
        }
      ],
      "stateMutability": "nonpayable",
      "type": "function"
    },
    {
      "inputs": [
        {
          "internalType": "bytes10",
          "name": "proposalSignature",
          "type": "bytes10"
        }
      ],
      "name": "putProposalToVote",
      "outputs": [],
      "stateMutability": "nonpayable",
      "type": "function"
    },
    {
      "inputs": [
        {
          "internalType": "bytes10",
          "name": "proposalSignature",
          "type": "bytes10"
        }
      ],
      "name": "endProposal",
      "outputs": [],
      "stateMutability": "nonpayable",
      "type": "function"
    },
    {
      "inputs": [
        {
          "internalType": "bytes10",
          "name": "proposalSignature",
          "type": "bytes10"
        },
        {
          "internalType": "uint8",
          "name": "voteIndex",
          "type": "uint8"
        }
      ],
      "name": "vote",
      "outputs": [],
      "stateMutability": "nonpayable",
      "type": "function"
    }
  ],
  "bytecode": "0x60806040527f55e49609591f684ecf6f2909c9e20c2439b990887b9c3fe108b154c9077d85cf60001b6001557f95e794640ff3efd16bfe738f1a9bf2886d166af549121f57d6e14af6b513f45d60001b6002557f1c990d1606629a2681dbc22754450a119d5896cd739732a966bd0a2e0864735960001b6003557ff89f507ecd9cb7646ce1514ec6ab90d695dac9314c3771f451fd90148a3335a960001b6004557f5bd05fa174be6a4aa4a8222f8837a27a381de14e7797cf7945df58b0626e6c3d60001b6005557fd08ca3a83d59467dd8ba57e940549874ea8310a1ebfb4396959235b00035d77760001b6006556040518060a00160405280600160001b8152602001600260001b8152602001600460001b8152602001600860001b8152602001601060001b81525060099060056200013b92919062000dd7565b507f72ba3778f5d93e8643176651d8174361d2ba28345f5eaa8b6a10f65dbfcf7c91600e557f868640b1c1ae76f98d5a65e35f03a012e5169c298cb4db2d7b71b05e26410c736012556040518061012001604052807f3f82a2b5852cbedcda3d9062384397479ac9a00dae9991874d842bec7aab98ce6bffffffffffffffffffffffff19166bffffffffffffffffffffffff191681526020017f95e794640ff3efd16bfe738f1a9bf2886d166af549121f57d6e14af6b513f45d6bffffffffffffffffffffffff19166bffffffffffffffffffffffff191681526020017fbd3132afbfa232f7d171a873f7e52e32c666b06d8af76d2c9a4ec8149c6b4f986bffffffffffffffffffffffff19166bffffffffffffffffffffffff191681526020017f29eed6590124f64f9236a23d588dbe9a7731e8e7d994f19cbb599c2c9372e7f46bffffffffffffffffffffffff19166bffffffffffffffffffffffff191681526020017fe9079e01bc10f74c7548106059c64f0d04857893cee4fbc8810c4b405700c0976bffffffffffffffffffffffff19166bffffffffffffffffffffffff191681526020017f7ef9322621ca886af10c2bf8f67b9ce1dbafe8f40c0ac7f7e0e8dab81a7feff86bffffffffffffffffffffffff19166bffffffffffffffffffffffff191681526020017fc589c7f4e5976c631f54442ad87fcec402da02df9989767145e519abcbd2b1d96bffffffffffffffffffffffff19166bffffffffffffffffffffffff191681526020017f214afa26c5f6a535e82ca315d5ffc739048132e744c73f66d711468ed63faac96bffffffffffffffffffffffff19166bffffffffffffffffffffffff191681526020017feaeb11cb7786797587689f7f6303acfee9b7b7570354137133562456569337596bffffffffffffffffffffffff19166bffffffffffffffffffffffff191681525060139060096200040492919062000e1c565b5030604051620004149062000e8b565b62000420919062000f2a565b604051809103906000f0801580156200043d573d6000803e3d6000fd5b50602260006101000a81548173ffffffffffffffffffffffffffffffffffffffff021916908373ffffffffffffffffffffffffffffffffffffffff1602179055506040516200048c9062000e99565b604051809103906000f080158015620004a9573d6000803e3d6000fd5b50602360006101000a81548173ffffffffffffffffffffffffffffffffffffffff021916908373ffffffffffffffffffffffffffffffffffffffff160217905550348015620004f757600080fd5b506040516200ae5f3803806200ae5f83398181016040528101906200051d91906200115d565b602260009054906101000a900473ffffffffffffffffffffffffffffffffffffffff16602360009054906101000a900473ffffffffffffffffffffffffffffffffffffffff16602260009054906101000a900473ffffffffffffffffffffffffffffffffffffffff1630602260009054906101000a900473ffffffffffffffffffffffffffffffffffffffff16602360009054906101000a900473ffffffffffffffffffffffffffffffffffffffff1630602260009054906101000a900473ffffffffffffffffffffffffffffffffffffffff16602360009054906101000a900473ffffffffffffffffffffffffffffffffffffffff16602260009054906101000a900473ffffffffffffffffffffffffffffffffffffffff16806000806101000a81548173ffffffffffffffffffffffffffffffffffffffff021916908373ffffffffffffffffffffffffffffffffffffffff1602179055505081600760006101000a81548173ffffffffffffffffffffffffffffffffffffffff021916908373ffffffffffffffffffffffffffffffffffffffff16021790555080600860006101000a81548173ffffffffffffffffffffffffffffffffffffffff021916908373ffffffffffffffffffffffffffffffffffffffff160217905550505082600f60006101000a81548173ffffffffffffffffffffffffffffffffffffffff021916908373ffffffffffffffffffffffffffffffffffffffff16021790555081601060006101000a81548173ffffffffffffffffffffffffffffffffffffffff021916908373ffffffffffffffffffffffffffffffffffffffff16021790555080601160006101000a81548173ffffffffffffffffffffffffffffffffffffffff021916908373ffffffffffffffffffffffffffffffffffffffff16021790555050505080601d60006101000a81548173ffffffffffffffffffffffffffffffffffffffff021916908373ffffffffffffffffffffffffffffffffffffffff16021790555080601e60006101000a81548173ffffffffffffffffffffffffffffffffffffffff021916908373ffffffffffffffffffffffffffffffffffffffff16021790555081601c60006101000a81548173ffffffffffffffffffffffffffffffffffffffff021916908373ffffffffffffffffffffffffffffffffffffffff160217905550505081601f60006101000a81548173ffffffffffffffffffffffffffffffffffffffff021916908373ffffffffffffffffffffffffffffffffffffffff16021790555080602060006101000a81548173ffffffffffffffffffffffffffffffffffffffff021916908373ffffffffffffffffffffffffffffffffffffffff160217905550505060008460ff161015801562000924575060648460ff1611155b6200092e57600080fd5b60008360ff161015801562000947575060648360ff1611155b6200095157600080fd5b6200096286620009c360201b60201c565b620009738562000a5960201b60201c565b620009848462000aef60201b60201c565b620009958362000ba960201b60201c565b620009a68262000c6360201b60201c565b620009b78162000d1d60201b60201c565b50505050505062001393565b60008054906101000a900473ffffffffffffffffffffffffffffffffffffffff1673ffffffffffffffffffffffffffffffffffffffff16637f23690c600154836040518363ffffffff1660e01b815260040162000a22929190620012af565b600060405180830381600087803b15801562000a3d57600080fd5b505af115801562000a52573d6000803e3d6000fd5b5050505050565b60008054906101000a900473ffffffffffffffffffffffffffffffffffffffff1673ffffffffffffffffffffffffffffffffffffffff16637f23690c600254836040518363ffffffff1660e01b815260040162000ab8929190620012af565b600060405180830381600087803b15801562000ad357600080fd5b505af115801562000ae8573d6000803e3d6000fd5b5050505050565b60008054906101000a900473ffffffffffffffffffffffffffffffffffffffff1673ffffffffffffffffffffffffffffffffffffffff16637f23690c6003548360f81b60405160200162000b44919062001334565b6040516020818303038152906040526040518363ffffffff1660e01b815260040162000b72929190620012af565b600060405180830381600087803b15801562000b8d57600080fd5b505af115801562000ba2573d6000803e3d6000fd5b5050505050565b60008054906101000a900473ffffffffffffffffffffffffffffffffffffffff1673ffffffffffffffffffffffffffffffffffffffff16637f23690c6004548360f81b60405160200162000bfe919062001334565b6040516020818303038152906040526040518363ffffffff1660e01b815260040162000c2c929190620012af565b600060405180830381600087803b15801562000c4757600080fd5b505af115801562000c5c573d6000803e3d6000fd5b5050505050565b60008054906101000a900473ffffffffffffffffffffffffffffffffffffffff1673ffffffffffffffffffffffffffffffffffffffff16637f23690c6005548360001b60405160200162000cb8919062001376565b6040516020818303038152906040526040518363ffffffff1660e01b815260040162000ce6929190620012af565b600060405180830381600087803b15801562000d0157600080fd5b505af115801562000d16573d6000803e3d6000fd5b5050505050565b60008054906101000a900473ffffffffffffffffffffffffffffffffffffffff1673ffffffffffffffffffffffffffffffffffffffff16637f23690c6006548360001b60405160200162000d72919062001376565b6040516020818303038152906040526040518363ffffffff1660e01b815260040162000da0929190620012af565b600060405180830381600087803b15801562000dbb57600080fd5b505af115801562000dd0573d6000803e3d6000fd5b5050505050565b826005810192821562000e09579160200282015b8281111562000e0857825182559160200191906001019062000deb565b5b50905062000e18919062000ea7565b5090565b826009810192821562000e78579160200282015b8281111562000e775782518260006101000a81548173ffffffffffffffffffffffffffffffffffffffff021916908360601c02179055509160200191906001019062000e30565b5b50905062000e87919062000ec6565b5090565b613ef08062006ccf83390190565b6102a0806200abbf83390190565b5b8082111562000ec257600081600090555060010162000ea8565b5090565b5b8082111562000ee157600081600090555060010162000ec7565b5090565b600073ffffffffffffffffffffffffffffffffffffffff82169050919050565b600062000f128262000ee5565b9050919050565b62000f248162000f05565b82525050565b600060208201905062000f41600083018462000f19565b92915050565b6000604051905090565b600080fd5b600080fd5b600080fd5b600080fd5b6000601f19601f8301169050919050565b7f4e487b7100000000000000000000000000000000000000000000000000000000600052604160045260246000fd5b62000fb08262000f65565b810181811067ffffffffffffffff8211171562000fd25762000fd162000f76565b5b80604052505050565b600062000fe762000f47565b905062000ff5828262000fa5565b919050565b600067ffffffffffffffff82111562001018576200101762000f76565b5b620010238262000f65565b9050602081019050919050565b60005b838110156200105057808201518184015260208101905062001033565b8381111562001060576000848401525b50505050565b60006200107d620010778462000ffa565b62000fdb565b9050828152602081018484840111156200109c576200109b62000f60565b5b620010a984828562001030565b509392505050565b600082601f830112620010c957620010c862000f5b565b5b8151620010db84826020860162001066565b91505092915050565b600060ff82169050919050565b620010fc81620010e4565b81146200110857600080fd5b50565b6000815190506200111c81620010f1565b92915050565b6000819050919050565b620011378162001122565b81146200114357600080fd5b50565b60008151905062001157816200112c565b92915050565b60008060008060008060c087890312156200117d576200117c62000f51565b5b600087015167ffffffffffffffff8111156200119e576200119d62000f56565b5b620011ac89828a01620010b1565b965050602087015167ffffffffffffffff811115620011d057620011cf62000f56565b5b620011de89828a01620010b1565b9550506040620011f189828a016200110b565b94505060606200120489828a016200110b565b93505060806200121789828a0162001146565b92505060a06200122a89828a0162001146565b9150509295509295509295565b6000819050919050565b6200124c8162001237565b82525050565b600081519050919050565b600082825260208201905092915050565b60006200127b8262001252565b6200128781856200125d565b93506200129981856020860162001030565b620012a48162000f65565b840191505092915050565b6000604082019050620012c6600083018562001241565b8181036020830152620012da81846200126e565b90509392505050565b60007fff0000000000000000000000000000000000000000000000000000000000000082169050919050565b6000819050919050565b6200132e6200132882620012e3565b6200130f565b82525050565b600062001342828462001319565b60018201915081905092915050565b6000819050919050565b620013706200136a8262001237565b62001351565b82525050565b60006200138482846200135b565b60208201915081905092915050565b61592c80620013a36000396000f3fe608060405234801561001057600080fd5b50600436106101cf5760003560e01c80636405184e11610104578063bae744a5116100a2578063dd59665511610071578063dd596655146105b6578063ef64d317146105e7578063f0deb28d14610605578063fdcf8b0e14610623576101cf565b8063bae744a51461051c578063bc0e09251461054c578063d6d09cfb14610568578063d7a96f2b14610598576101cf565b80637b300866116100de5780637b3008661461045c57806398f351741461048c578063994d43c3146104bc578063a56c89b1146104ec576101cf565b80636405184e146104025780636df584df14610420578063754b15281461043e576101cf565b806346b5a72411610171578063525ae7f11161014b578063525ae7f11461037c5780635b11b407146103ac5780635c19a95c146103c85780636291ebfa146103e4576101cf565b806346b5a7241461031457806346ccaefa146103305780634ada739a14610360576101cf565b80631b311a4b116101ad5780631b311a4b146102665780631da0d49f146102965780633ceb2b5d146102c6578063444f81d4146102f6576101cf565b806301ffc9a7146101d4578063123e469d1461020457806314fb4d4614610236575b600080fd5b6101ee60048036038101906101e99190613d88565b61063f565b6040516101fb9190613dd0565b60405180910390f35b61021e60048036038101906102199190613e43565b6106a9565b60405161022d93929190613e89565b60405180910390f35b610250600480360381019061024b91906142ae565b610926565b60405161025d9190614394565b60405180910390f35b610280600480360381019061027b91906143af565b610aa8565b60405161028d91906143eb565b60405180910390f35b6102b060048036038101906102ab91906143af565b610bb6565b6040516102bd919061448e565b60405180910390f35b6102e060048036038101906102db9190613e43565b610cdb565b6040516102ed9190613dd0565b60405180910390f35b6102fe610eab565b60405161030b9190614505565b60405180910390f35b61032e60048036038101906103299190614560565b610f53565b005b61034a600480360381019061034591906145cc565b611044565b6040516103579190614394565b60405180910390f35b61037a60048036038101906103759190614560565b6110a6565b005b61039660048036038101906103919190614628565b6111cf565b6040516103a39190613dd0565b60405180910390f35b6103c660048036038101906103c19190613e43565b6112d1565b005b6103e260048036038101906103dd91906143af565b611499565b005b6103ec6115ad565b6040516103f99190614505565b60405180910390f35b61040a611655565b6040516104179190614668565b60405180910390f35b61042861170b565b6040516104359190614692565b60405180910390f35b6104466117c0565b6040516104539190614692565b60405180910390f35b610476600480360381019061047191906146ad565b611875565b604051610483919061448e565b60405180910390f35b6104a660048036038101906104a191906143af565b611a0c565b6040516104b39190614668565b60405180910390f35b6104d660048036038101906104d191906146ad565b611b37565b6040516104e3919061448e565b60405180910390f35b61050660048036038101906105019190614732565b611cce565b604051610513919061448e565b60405180910390f35b61053660048036038101906105319190614772565b611d88565b60405161054391906143eb565b60405180910390f35b61056660048036038101906105619190613e43565b611f98565b005b610582600480360381019061057d91906147b2565b612281565b60405161058f91906147f8565b60405180910390f35b6105a06122a3565b6040516105ad9190614668565b60405180910390f35b6105d060048036038101906105cb9190613e43565b612359565b6040516105de9291906149dd565b60405180910390f35b6105ef61286a565b6040516105fc9190614668565b60405180910390f35b61060d61291f565b60405161061a9190614668565b60405180910390f35b61063d60048036038101906106389190614a14565b6129d4565b005b60007f14008a84ed94b87b3f6275b32a0ea4fdf15093f71c6544e981397a1caad0a0207bffffffffffffffffffffffffffffffffffffffffffffffffffffffff1916827bffffffffffffffffffffffffffffffffffffffffffffffffffffffff1916149050919050565b6000806000601d60009054906101000a900473ffffffffffffffffffffffffffffffffffffffff1673ffffffffffffffffffffffffffffffffffffffff1663a56c89b1857f214afa26c5f6a535e82ca315d5ffc739048132e744c73f66d711468ed63faac96040518363ffffffff1660e01b815260040161072b929190614a63565b600060405180830381865afa158015610748573d6000803e3d6000fd5b505050506040513d6000823e3d601f19601f820116820180604052508101906107719190614afc565b61077a90614b77565b60001c9250601d60009054906101000a900473ffffffffffffffffffffffffffffffffffffffff1673ffffffffffffffffffffffffffffffffffffffff1663a56c89b1857feaeb11cb7786797587689f7f6303acfee9b7b7570354137133562456569337596040518363ffffffff1660e01b81526004016107fc929190614a63565b600060405180830381865afa158015610819573d6000803e3d6000fd5b505050506040513d6000823e3d601f19601f820116820180604052508101906108429190614afc565b61084b90614b77565b60001c9150601c60009054906101000a900473ffffffffffffffffffffffffffffffffffffffff1673ffffffffffffffffffffffffffffffffffffffff166354f6127f7f72ba3778f5d93e8643176651d8174361d2ba28345f5eaa8b6a10f65dbfcf7c916040518263ffffffff1660e01b81526004016108cb91906147f8565b600060405180830381865afa1580156108e8573d6000803e3d6000fd5b505050506040513d6000823e3d601f19601f820116820180604052508101906109119190614afc565b61091a90614b77565b60001c90509193909250565b6000336109336001612281565b600061093e83610bb6565b90508160001c8260001c8261095290614b77565b60001c1614610996576040517f08c379a000000000000000000000000000000000000000000000000000000000815260040161098d90614c50565b60405180910390fd5b84518651146109da576040517f08c379a00000000000000000000000000000000000000000000000000000000081526004016109d190614ce2565b60405180910390fd5b6109e44289611044565b9350610a148460136000600981106109ff576109fe614d02565b5b0160009054906101000a900460601b8a612de7565b610a42846013600160098110610a2d57610a2c614d02565b5b0160009054906101000a900460601b89612de7565b610a92846013600260098110610a5b57610a5a614d02565b5b0160009054906101000a900460601b4260001b604051602001610a7e9190614d52565b604051602081830303815290604052612de7565b610a9d848787612e8a565b505050949350505050565b6000807fe9506e3d2587fc04e328470c13bf1130def14def5c14cb5b71970ff8144e4299600060f01b8460601b604051602001610ae793929190614dfc565b604051602081830303815290604052610aff90614b77565b9050601f60009054906101000a900473ffffffffffffffffffffffffffffffffffffffff1673ffffffffffffffffffffffffffffffffffffffff166354f6127f826040518263ffffffff1660e01b8152600401610b5c91906147f8565b600060405180830381865afa158015610b79573d6000803e3d6000fd5b505050506040513d6000823e3d601f19601f82011682018060405250810190610ba29190614afc565b610bab90614e4e565b60601c915050919050565b606060007f6f1212b29e0d5f509b2e732e5f6a14acceb10e7f27ee7136e73989d3b14d592c7fd553aa042a90e2c5d42813162a48e47473d9969955759122f7bf8ec00217f413600060f01b8560601b604051602001610c189493929190614f23565b604051602081830303815290604052610c3090614b77565b9050600760009054906101000a900473ffffffffffffffffffffffffffffffffffffffff1673ffffffffffffffffffffffffffffffffffffffff166354f6127f826040518263ffffffff1660e01b8152600401610c8d91906147f8565b600060405180830381865afa158015610caa573d6000803e3d6000fd5b505050506040513d6000823e3d601f19601f82011682018060405250810190610cd39190614afc565b915050919050565b600080600080610cea856106a9565b9250925092508183610cfc9190614fa0565b81610d079190614ff6565b905060008284610d179190614fa0565b905060008282610d279190614fa0565b905081601e60009054906101000a900473ffffffffffffffffffffffffffffffffffffffff1673ffffffffffffffffffffffffffffffffffffffff16636df584df6040518163ffffffff1660e01b8152600401602060405180830381865afa158015610d97573d6000803e3d6000fd5b505050506040513d601f19601f82011682018060405250810190610dbb919061503f565b60ff16610dc8919061509b565b8285610dd4919061509b565b118015610e89575080601e60009054906101000a900473ffffffffffffffffffffffffffffffffffffffff1673ffffffffffffffffffffffffffffffffffffffff1663754b15286040518163ffffffff1660e01b8152600401602060405180830381865afa158015610e4a573d6000803e3d6000fd5b505050506040513d601f19601f82011682018060405250810190610e6e919061503f565b60ff16610e7b919061509b565b8183610e87919061509b565b115b15610e9c57600195505050505050610ea6565b6000955050505050505b919050565b606060008054906101000a900473ffffffffffffffffffffffffffffffffffffffff1673ffffffffffffffffffffffffffffffffffffffff166354f6127f6002546040518263ffffffff1660e01b8152600401610f0891906147f8565b600060405180830381865afa158015610f25573d6000803e3d6000fd5b505050506040513d6000823e3d601f19601f82011682018060405250810190610f4e9190614afc565b905090565b81610f5e6004612281565b6000610f6983610bb6565b90508160001c8260001c82610f7d90614b77565b60001c1614610fc1576040517f08c379a0000000000000000000000000000000000000000000000000000000008152600401610fb890614c50565b60405180910390fd5b84610fcb85612281565b6000610fd683610bb6565b90508160001c8260001c82610fea90614b77565b60001c161461102e576040517f08c379a000000000000000000000000000000000000000000000000000000000815260040161102590614c50565b60405180910390fd5b61103a88886000613281565b5050505050505050565b6000826040516020016110579190614668565b6040516020818303038152906040528051906020012082805190602001206040516020016110869291906150cc565b60405160208183030381529060405261109e9061510d565b905092915050565b336110b16004612281565b60006110bc83610bb6565b90508160001c8260001c826110d090614b77565b60001c1614611114576040517f08c379a000000000000000000000000000000000000000000000000000000000815260040161110b90614c50565b60405180910390fd5b8461111e85612281565b600061112983610bb6565b905060008260001c8261113b90614b77565b60001c161461117f576040517f08c379a0000000000000000000000000000000000000000000000000000000008152600401611176906151c0565b60405180910390fd5b6111888861358d565b6111b9576000611196611655565b90506111a2818a61361d565b6111b76001826111b29190614fa0565b6137c5565b505b6111c588886001613281565b5050505050505050565b60008082600060f01b8560601b6040516020016111ee93929190614dfc565b60405160208183030381529060405261120690614b77565b90506001600f60009054906101000a900473ffffffffffffffffffffffffffffffffffffffff1673ffffffffffffffffffffffffffffffffffffffff166354f6127f836040518263ffffffff1660e01b815260040161126591906147f8565b600060405180830381865afa158015611282573d6000803e3d6000fd5b505050506040513d6000823e3d601f19601f820116820180604052508101906112ab9190614afc565b6112b490614b77565b60001c036112c557600191506112ca565b600091505b5092915050565b80426113008260136002600981106112ec576112eb614d02565b5b0160009054906101000a900460601b611cce565b61130990614b77565b60001c601160009054906101000a900473ffffffffffffffffffffffffffffffffffffffff1673ffffffffffffffffffffffffffffffffffffffff1663f0deb28d6040518163ffffffff1660e01b8152600401602060405180830381865afa158015611379573d6000803e3d6000fd5b505050506040513d601f19601f8201168201806040525081019061139d91906151f5565b6113a79190614fa0565b106113e7576040517f08c379a00000000000000000000000000000000000000000000000000000000081526004016113de90615294565b60405180910390fd5b3360006113f382610bb6565b90506000801b8161140390614b77565b03611443576040517f08c379a000000000000000000000000000000000000000000000000000000000815260040161143a90615326565b60405180910390fd5b61149384601360036009811061145c5761145b614d02565b5b0160009054906101000a900460601b4260001b60405160200161147f9190614d52565b604051602081830303815290604052612de7565b50505050565b336114a46002612281565b60006114af83610bb6565b90508160001c8260001c826114c390614b77565b60001c1614611507576040517f08c379a00000000000000000000000000000000000000000000000000000000081526004016114fe90614c50565b60405180910390fd5b836115126003612281565b600061151d83610bb6565b90508160001c8260001c8261153190614b77565b60001c1614611575576040517f08c379a000000000000000000000000000000000000000000000000000000000815260040161156c90614c50565b60405180910390fd5b61157f3388613881565b611592338861158d8a611a0c565b613995565b6115a461159e88611a0c565b88613bab565b50505050505050565b606060008054906101000a900473ffffffffffffffffffffffffffffffffffffffff1673ffffffffffffffffffffffffffffffffffffffff166354f6127f6001546040518263ffffffff1660e01b815260040161160a91906147f8565b600060405180830381865afa158015611627573d6000803e3d6000fd5b505050506040513d6000823e3d601f19601f820116820180604052508101906116509190614afc565b905090565b6000600760009054906101000a900473ffffffffffffffffffffffffffffffffffffffff1673ffffffffffffffffffffffffffffffffffffffff166354f6127f600e546040518263ffffffff1660e01b81526004016116b491906147f8565b600060405180830381865afa1580156116d1573d6000803e3d6000fd5b505050506040513d6000823e3d601f19601f820116820180604052508101906116fa9190614afc565b61170390614b77565b60001c905090565b60008060009054906101000a900473ffffffffffffffffffffffffffffffffffffffff1673ffffffffffffffffffffffffffffffffffffffff166354f6127f6003546040518263ffffffff1660e01b815260040161176991906147f8565b600060405180830381865afa158015611786573d6000803e3d6000fd5b505050506040513d6000823e3d601f19601f820116820180604052508101906117af9190614afc565b6117b890615387565b60f81c905090565b60008060009054906101000a900473ffffffffffffffffffffffffffffffffffffffff1673ffffffffffffffffffffffffffffffffffffffff166354f6127f6004546040518263ffffffff1660e01b815260040161181e91906147f8565b600060405180830381865afa15801561183b573d6000803e3d6000fd5b505050506040513d6000823e3d601f19601f820116820180604052508101906118649190614afc565b61186d90615387565b60f81c905090565b60606000600860009054906101000a900473ffffffffffffffffffffffffffffffffffffffff1673ffffffffffffffffffffffffffffffffffffffff16634bb5ec32600e546040518263ffffffff1660e01b81526004016118d691906147f8565b6040805180830381865afa1580156118f2573d6000803e3d6000fd5b505050506040513d601f19601f8201168201806040525081019061191691906154f7565b905060008160006002811061192e5761192d614d02565b5b60200201518460801b604051602001611948929190615545565b60405160208183030381529060405261196090614b77565b9050600760009054906101000a900473ffffffffffffffffffffffffffffffffffffffff1673ffffffffffffffffffffffffffffffffffffffff166354f6127f826040518263ffffffff1660e01b81526004016119bd91906147f8565b600060405180830381865afa1580156119da573d6000803e3d6000fd5b505050506040513d6000823e3d601f19601f82011682018060405250810190611a039190614afc565b92505050919050565b6000601f60009054906101000a900473ffffffffffffffffffffffffffffffffffffffff1673ffffffffffffffffffffffffffffffffffffffff166354f6127f7f321d588394b2b1ae9eb09d447e72908c29c47484b007463fbbc62f1f467e32ab7fe9506e3d2587fc04e328470c13bf1130def14def5c14cb5b71970ff8144e4299600060f01b8660601b604051602001611aaa9493929190614f23565b604051602081830303815290604052611ac290614b77565b6040518263ffffffff1660e01b8152600401611ade91906147f8565b600060405180830381865afa158015611afb573d6000803e3d6000fd5b505050506040513d6000823e3d601f19601f82011682018060405250810190611b249190614afc565b611b2d90614b77565b60001c9050919050565b60606000601060009054906101000a900473ffffffffffffffffffffffffffffffffffffffff1673ffffffffffffffffffffffffffffffffffffffff16634bb5ec326012546040518263ffffffff1660e01b8152600401611b9891906147f8565b6040805180830381865afa158015611bb4573d6000803e3d6000fd5b505050506040513d601f19601f82011682018060405250810190611bd891906154f7565b9050600081600060028110611bf057611bef614d02565b5b60200201518460801b604051602001611c0a929190615545565b604051602081830303815290604052611c2290614b77565b9050600f60009054906101000a900473ffffffffffffffffffffffffffffffffffffffff1673ffffffffffffffffffffffffffffffffffffffff166354f6127f826040518263ffffffff1660e01b8152600401611c7f91906147f8565b600060405180830381865afa158015611c9c573d6000803e3d6000fd5b505050506040513d6000823e3d601f19601f82011682018060405250810190611cc59190614afc565b92505050919050565b60606000611cdc8484613ce1565b9050600f60009054906101000a900473ffffffffffffffffffffffffffffffffffffffff1673ffffffffffffffffffffffffffffffffffffffff166354f6127f826040518263ffffffff1660e01b8152600401611d3991906147f8565b600060405180830381865afa158015611d56573d6000803e3d6000fd5b505050506040513d6000823e3d601f19601f82011682018060405250810190611d7f9190614afc565b91505092915050565b600080602060009054906101000a900473ffffffffffffffffffffffffffffffffffffffff1673ffffffffffffffffffffffffffffffffffffffff16634bb5ec327f321d588394b2b1ae9eb09d447e72908c29c47484b007463fbbc62f1f467e32ab7fe9506e3d2587fc04e328470c13bf1130def14def5c14cb5b71970ff8144e4299600060f01b8860601b604051602001611e279493929190614f23565b604051602081830303815290604052611e3f90614b77565b6040518263ffffffff1660e01b8152600401611e5b91906147f8565b6040805180830381865afa158015611e77573d6000803e3d6000fd5b505050506040513d601f19601f82011682018060405250810190611e9b91906154f7565b600060028110611eae57611ead614d02565b5b60200201518360801b604051602001611ec8929190615545565b604051602081830303815290604052611ee090614b77565b9050601f60009054906101000a900473ffffffffffffffffffffffffffffffffffffffff1673ffffffffffffffffffffffffffffffffffffffff166354f6127f826040518263ffffffff1660e01b8152600401611f3d91906147f8565b600060405180830381865afa158015611f5a573d6000803e3d6000fd5b505050506040513d6000823e3d601f19601f82011682018060405250810190611f839190614afc565b611f8c90614e4e565b60601c91505092915050565b8042611fc7826013600360098110611fb357611fb2614d02565b5b0160009054906101000a900460601b611cce565b611fd090614b77565b60001c601160009054906101000a900473ffffffffffffffffffffffffffffffffffffffff1673ffffffffffffffffffffffffffffffffffffffff1663ef64d3176040518163ffffffff1660e01b8152600401602060405180830381865afa158015612040573d6000803e3d6000fd5b505050506040513d601f19601f8201168201806040525081019061206491906151f5565b61206e9190614fa0565b106120ae576040517f08c379a00000000000000000000000000000000000000000000000000000000081526004016120a5906155e3565b60405180910390fd5b3360006120ba82610bb6565b90506000801b816120ca90614b77565b0361210a576040517f08c379a000000000000000000000000000000000000000000000000000000000815260040161210190615326565b60405180910390fd5b61215a84601360046009811061212357612122614d02565b5b0160009054906101000a900460601b4260001b6040516020016121469190614d52565b604051602081830303815290604052612de7565b60008061216686612359565b9150915061217386610cdb565b156122795760005b825181101561227757602260009054906101000a900473ffffffffffffffffffffffffffffffffffffffff1673ffffffffffffffffffffffffffffffffffffffff166344c028fe60008584815181106121d7576121d6614d02565b5b602002602001015160008686815181106121f4576121f3614d02565b5b60200260200101516040518563ffffffff1660e01b815260040161221b9493929190615648565b6000604051808303816000875af115801561223a573d6000803e3d6000fd5b505050506040513d6000823e3d601f19601f820116820180604052508101906122639190614afc565b50808061226f90615694565b91505061217b565b505b505050505050565b600060098260ff166005811061229a57612299614d02565b5b01549050919050565b6000600f60009054906101000a900473ffffffffffffffffffffffffffffffffffffffff1673ffffffffffffffffffffffffffffffffffffffff166354f6127f6012546040518263ffffffff1660e01b815260040161230291906147f8565b600060405180830381865afa15801561231f573d6000803e3d6000fd5b505050506040513d6000823e3d601f19601f820116820180604052508101906123489190614afc565b61235190614b77565b60001c905090565b606080600061238b84601360056009811061237757612376614d02565b5b0160009054906101000a900460601b613ce1565b905060006123bc8560136006600981106123a8576123a7614d02565b5b0160009054906101000a900460601b613ce1565b905060006123ed8660136005600981106123d9576123d8614d02565b5b0160009054906101000a900460601b611cce565b6123f690614b77565b60001c90508067ffffffffffffffff81111561241557612414613edb565b5b6040519080825280602002602001820160405280156124435781602001602082028036833780820191505090505b5094508067ffffffffffffffff8111156124605761245f613edb565b5b60405190808252806020026020018201604052801561249357816020015b606081526020019060019003908161247e5790505b50935060005b81816fffffffffffffffffffffffffffffffff16101561286157600f60009054906101000a900473ffffffffffffffffffffffffffffffffffffffff1673ffffffffffffffffffffffffffffffffffffffff166354f6127f601060009054906101000a900473ffffffffffffffffffffffffffffffffffffffff1673ffffffffffffffffffffffffffffffffffffffff16634bb5ec32876040518263ffffffff1660e01b815260040161254c91906147f8565b6040805180830381865afa158015612568573d6000803e3d6000fd5b505050506040513d601f19601f8201168201806040525081019061258c91906154f7565b60006002811061259f5761259e614d02565b5b60200201518360801b6040516020016125b9929190615545565b6040516020818303038152906040526125d190614b77565b6040518263ffffffff1660e01b81526004016125ed91906147f8565b600060405180830381865afa15801561260a573d6000803e3d6000fd5b505050506040513d6000823e3d601f19601f820116820180604052508101906126339190614afc565b61263c90614e4e565b60601c86826fffffffffffffffffffffffffffffffff168151811061266457612663614d02565b5b602002602001019073ffffffffffffffffffffffffffffffffffffffff16908173ffffffffffffffffffffffffffffffffffffffff1681525050600f60009054906101000a900473ffffffffffffffffffffffffffffffffffffffff1673ffffffffffffffffffffffffffffffffffffffff166354f6127f601060009054906101000a900473ffffffffffffffffffffffffffffffffffffffff1673ffffffffffffffffffffffffffffffffffffffff16634bb5ec32866040518263ffffffff1660e01b815260040161273791906147f8565b6040805180830381865afa158015612753573d6000803e3d6000fd5b505050506040513d601f19601f8201168201806040525081019061277791906154f7565b60006002811061278a57612789614d02565b5b60200201518360801b6040516020016127a4929190615545565b6040516020818303038152906040526127bc90614b77565b6040518263ffffffff1660e01b81526004016127d891906147f8565b600060405180830381865afa1580156127f5573d6000803e3d6000fd5b505050506040513d6000823e3d601f19601f8201168201806040525081019061281e9190614afc565b85826fffffffffffffffffffffffffffffffff168151811061284357612842614d02565b5b60200260200101819052508080612859906156f8565b915050612499565b50505050915091565b60008060009054906101000a900473ffffffffffffffffffffffffffffffffffffffff1673ffffffffffffffffffffffffffffffffffffffff166354f6127f6006546040518263ffffffff1660e01b81526004016128c891906147f8565b600060405180830381865afa1580156128e5573d6000803e3d6000fd5b505050506040513d6000823e3d601f19601f8201168201806040525081019061290e9190614afc565b61291790614b77565b60001c905090565b60008060009054906101000a900473ffffffffffffffffffffffffffffffffffffffff1673ffffffffffffffffffffffffffffffffffffffff166354f6127f6005546040518263ffffffff1660e01b815260040161297d91906147f8565b600060405180830381865afa15801561299a573d6000803e3d6000fd5b505050506040513d6000823e3d601f19601f820116820180604052508101906129c39190614afc565b6129cc90614b77565b60001c905090565b336129df6000612281565b60006129ea83610bb6565b90508160001c8260001c826129fe90614b77565b60001c1614612a42576040517f08c379a0000000000000000000000000000000000000000000000000000000008152600401612a3990614c50565b60405180910390fd5b336000612a4e82610aa8565b90508073ffffffffffffffffffffffffffffffffffffffff168273ffffffffffffffffffffffffffffffffffffffff161480612aae5750600060601b6bffffffffffffffffffffffff19168260601b6bffffffffffffffffffffffff1916145b612aed576040517f08c379a0000000000000000000000000000000000000000000000000000000008152600401612ae49061577c565b60405180910390fd5b3387612af982826111cf565b15612b39576040517f08c379a0000000000000000000000000000000000000000000000000000000008152600401612b30906157e8565b60405180910390fd5b8842612b68826013600360098110612b5457612b53614d02565b5b0160009054906101000a900460601b611cce565b612b7190614b77565b60001c601160009054906101000a900473ffffffffffffffffffffffffffffffffffffffff1673ffffffffffffffffffffffffffffffffffffffff1663ef64d3176040518163ffffffff1660e01b8152600401602060405180830381865afa158015612be1573d6000803e3d6000fd5b505050506040513d601f19601f82011682018060405250810190612c0591906151f5565b612c0f9190614fa0565b11612c4f576040517f08c379a0000000000000000000000000000000000000000000000000000000008152600401612c4690615854565b60405180910390fd5b60006008612c5c33610bb6565b612c6590614b77565b60001c1614612d2a57612d258a60138b6007612c819190615874565b60ff1660098110612c9557612c94614d02565b5b0160009054906101000a900460601b612cad33611a0c565b612ce88e60138f6007612cc09190615874565b60ff1660098110612cd457612cd3614d02565b5b0160009054906101000a900460601b611cce565b612cf190614b77565b60001c612cfe9190614fa0565b60001b604051602001612d119190614d52565b604051602081830303815290604052612de7565b612ddb565b612dda8a60138b6007612d3d9190615874565b60ff1660098110612d5157612d50614d02565b5b0160009054906101000a900460601b6001612d9d8e60138f6007612d759190615874565b60ff1660098110612d8957612d88614d02565b5b0160009054906101000a900460601b611cce565b612da690614b77565b60001c612db39190614fa0565b60001b604051602001612dc69190614d52565b604051602081830303815290604052612de7565b5b50505050505050505050565b6000612df38484613ce1565b9050600f60009054906101000a900473ffffffffffffffffffffffffffffffffffffffff1673ffffffffffffffffffffffffffffffffffffffff16637f23690c82846040518363ffffffff1660e01b8152600401612e529291906158ab565b600060405180830381600087803b158015612e6c57600080fd5b505af1158015612e80573d6000803e3d6000fd5b5050505050505050565b6000612eb9846013600560098110612ea557612ea4614d02565b5b0160009054906101000a900460601b613ce1565b90506000612eea856013600660098110612ed657612ed5614d02565b5b0160009054906101000a900460601b613ce1565b905060008451905060005b81816fffffffffffffffffffffffffffffffff16101561327857600f60009054906101000a900473ffffffffffffffffffffffffffffffffffffffff1673ffffffffffffffffffffffffffffffffffffffff16637f23690c601060009054906101000a900473ffffffffffffffffffffffffffffffffffffffff1673ffffffffffffffffffffffffffffffffffffffff16634bb5ec32876040518263ffffffff1660e01b8152600401612fa891906147f8565b6040805180830381865afa158015612fc4573d6000803e3d6000fd5b505050506040513d601f19601f82011682018060405250810190612fe891906154f7565b600060028110612ffb57612ffa614d02565b5b60200201518360801b604051602001613015929190615545565b60405160208183030381529060405261302d90614b77565b88846fffffffffffffffffffffffffffffffff168151811061305257613051614d02565b5b602002602001015160601b60405160200161306d91906158db565b6040516020818303038152906040526040518363ffffffff1660e01b81526004016130999291906158ab565b600060405180830381600087803b1580156130b357600080fd5b505af11580156130c7573d6000803e3d6000fd5b50505050600f60009054906101000a900473ffffffffffffffffffffffffffffffffffffffff1673ffffffffffffffffffffffffffffffffffffffff16637f23690c601060009054906101000a900473ffffffffffffffffffffffffffffffffffffffff1673ffffffffffffffffffffffffffffffffffffffff16634bb5ec32866040518263ffffffff1660e01b815260040161316491906147f8565b6040805180830381865afa158015613180573d6000803e3d6000fd5b505050506040513d601f19601f820116820180604052508101906131a491906154f7565b6000600281106131b7576131b6614d02565b5b60200201518360801b6040516020016131d1929190615545565b6040516020818303038152906040526131e990614b77565b87846fffffffffffffffffffffffffffffffff168151811061320e5761320d614d02565b5b60200260200101516040518363ffffffff1660e01b81526004016132339291906158ab565b600060405180830381600087803b15801561324d57600080fd5b505af1158015613261573d6000803e3d6000fd5b505050508080613270906156f8565b915050612ef5565b50505050505050565b60007f6f1212b29e0d5f509b2e732e5f6a14acceb10e7f27ee7136e73989d3b14d592c7fd553aa042a90e2c5d42813162a48e47473d9969955759122f7bf8ec00217f413600060f01b8660601b6040516020016132e19493929190614f23565b6040516020818303038152906040526132f990614b77565b9050606082156133ff5760098460ff166005811061331a57613319614d02565b5b015460001c600760009054906101000a900473ffffffffffffffffffffffffffffffffffffffff1673ffffffffffffffffffffffffffffffffffffffff166354f6127f846040518263ffffffff1660e01b815260040161337a91906147f8565b600060405180830381865afa158015613397573d6000803e3d6000fd5b505050506040513d6000823e3d601f19601f820116820180604052508101906133c09190614afc565b6133c990614b77565b60001c6133d69190614fa0565b60001b6040516020016133e99190614d52565b60405160208183030381529060405290506134f7565b60098460ff166005811061341657613415614d02565b5b015460001c600760009054906101000a900473ffffffffffffffffffffffffffffffffffffffff1673ffffffffffffffffffffffffffffffffffffffff166354f6127f846040518263ffffffff1660e01b815260040161347691906147f8565b600060405180830381865afa158015613493573d6000803e3d6000fd5b505050506040513d6000823e3d601f19601f820116820180604052508101906134bc9190614afc565b6134c590614b77565b60001c6134d29190614ff6565b60001b6040516020016134e59190614d52565b60405160208183030381529060405290505b600760009054906101000a900473ffffffffffffffffffffffffffffffffffffffff1673ffffffffffffffffffffffffffffffffffffffff16637f23690c83836040518363ffffffff1660e01b81526004016135549291906158ab565b600060405180830381600087803b15801561356e57600080fd5b505af1158015613582573d6000803e3d6000fd5b505050505050505050565b600080613598611655565b905060005b818110156136115760006135b082611875565b90508473ffffffffffffffffffffffffffffffffffffffff16816135d390614e4e565b60601c73ffffffffffffffffffffffffffffffffffffffff16036135fd5760019350505050613618565b50808061360990615694565b91505061359d565b5060009150505b919050565b6000600860009054906101000a900473ffffffffffffffffffffffffffffffffffffffff1673ffffffffffffffffffffffffffffffffffffffff16634bb5ec32600e546040518263ffffffff1660e01b815260040161367c91906147f8565b6040805180830381865afa158015613698573d6000803e3d6000fd5b505050506040513d601f19601f820116820180604052508101906136bc91906154f7565b90506000816000600281106136d4576136d3614d02565b5b60200201518460801b6040516020016136ee929190615545565b60405160208183030381529060405261370690614b77565b905060008360601b60405160200161371e91906158db565b6040516020818303038152906040529050600760009054906101000a900473ffffffffffffffffffffffffffffffffffffffff1673ffffffffffffffffffffffffffffffffffffffff16637f23690c83836040518363ffffffff1660e01b815260040161378c9291906158ab565b600060405180830381600087803b1580156137a657600080fd5b505af11580156137ba573d6000803e3d6000fd5b505050505050505050565b60008160001b6040516020016137db9190614d52565b6040516020818303038152906040529050600760009054906101000a900473ffffffffffffffffffffffffffffffffffffffff1673ffffffffffffffffffffffffffffffffffffffff16637f23690c600e54836040518363ffffffff1660e01b815260040161384b9291906158ab565b600060405180830381600087803b15801561386557600080fd5b505af1158015613879573d6000803e3d6000fd5b505050505050565b60007fe9506e3d2587fc04e328470c13bf1130def14def5c14cb5b71970ff8144e4299600060f01b8460601b6040516020016138bf93929190614dfc565b6040516020818303038152906040526138d790614b77565b905060008260601b6040516020016138ef91906158db565b6040516020818303038152906040529050601f60009054906101000a900473ffffffffffffffffffffffffffffffffffffffff1673ffffffffffffffffffffffffffffffffffffffff16637f23690c83836040518363ffffffff1660e01b815260040161395d9291906158ab565b600060405180830381600087803b15801561397757600080fd5b505af115801561398b573d6000803e3d6000fd5b5050505050505050565b6000602060009054906101000a900473ffffffffffffffffffffffffffffffffffffffff1673ffffffffffffffffffffffffffffffffffffffff16634bb5ec327f321d588394b2b1ae9eb09d447e72908c29c47484b007463fbbc62f1f467e32ab7fe9506e3d2587fc04e328470c13bf1130def14def5c14cb5b71970ff8144e4299600060f01b8760601b604051602001613a339493929190614f23565b604051602081830303815290604052613a4b90614b77565b6040518263ffffffff1660e01b8152600401613a6791906147f8565b6040805180830381865afa158015613a83573d6000803e3d6000fd5b505050506040513d601f19601f82011682018060405250810190613aa791906154f7565b600060028110613aba57613ab9614d02565b5b60200201518260801b604051602001613ad4929190615545565b604051602081830303815290604052613aec90614b77565b905060008460601b604051602001613b0491906158db565b6040516020818303038152906040529050601f60009054906101000a900473ffffffffffffffffffffffffffffffffffffffff1673ffffffffffffffffffffffffffffffffffffffff16637f23690c83836040518363ffffffff1660e01b8152600401613b729291906158ab565b600060405180830381600087803b158015613b8c57600080fd5b505af1158015613ba0573d6000803e3d6000fd5b505050505050505050565b60007f321d588394b2b1ae9eb09d447e72908c29c47484b007463fbbc62f1f467e32ab7fe9506e3d2587fc04e328470c13bf1130def14def5c14cb5b71970ff8144e4299600060f01b8460601b604051602001613c0b9493929190614f23565b604051602081830303815290604052613c2390614b77565b905060008360001b604051602001613c3b9190614d52565b6040516020818303038152906040529050601f60009054906101000a900473ffffffffffffffffffffffffffffffffffffffff1673ffffffffffffffffffffffffffffffffffffffff16637f23690c83836040518363ffffffff1660e01b8152600401613ca99291906158ab565b600060405180830381600087803b158015613cc357600080fd5b505af1158015613cd7573d6000803e3d6000fd5b5050505050505050565b600082600060f01b83604051602001613cfc93929190614dfc565b604051602081830303815290604052613d1490614b77565b905092915050565b6000604051905090565b600080fd5b600080fd5b60007fffffffff0000000000000000000000000000000000000000000000000000000082169050919050565b613d6581613d30565b8114613d7057600080fd5b50565b600081359050613d8281613d5c565b92915050565b600060208284031215613d9e57613d9d613d26565b5b6000613dac84828501613d73565b91505092915050565b60008115159050919050565b613dca81613db5565b82525050565b6000602082019050613de56000830184613dc1565b92915050565b60007fffffffffffffffffffff0000000000000000000000000000000000000000000082169050919050565b613e2081613deb565b8114613e2b57600080fd5b50565b600081359050613e3d81613e17565b92915050565b600060208284031215613e5957613e58613d26565b5b6000613e6784828501613e2e565b91505092915050565b6000819050919050565b613e8381613e70565b82525050565b6000606082019050613e9e6000830186613e7a565b613eab6020830185613e7a565b613eb86040830184613e7a565b949350505050565b600080fd5b600080fd5b6000601f19601f8301169050919050565b7f4e487b7100000000000000000000000000000000000000000000000000000000600052604160045260246000fd5b613f1382613eca565b810181811067ffffffffffffffff82111715613f3257613f31613edb565b5b80604052505050565b6000613f45613d1c565b9050613f518282613f0a565b919050565b600067ffffffffffffffff821115613f7157613f70613edb565b5b613f7a82613eca565b9050602081019050919050565b82818337600083830152505050565b6000613fa9613fa484613f56565b613f3b565b905082815260208101848484011115613fc557613fc4613ec5565b5b613fd0848285613f87565b509392505050565b600082601f830112613fed57613fec613ec0565b5b8135613ffd848260208601613f96565b91505092915050565b600067ffffffffffffffff82111561402157614020613edb565b5b602082029050602081019050919050565b600080fd5b600073ffffffffffffffffffffffffffffffffffffffff82169050919050565b600061406282614037565b9050919050565b61407281614057565b811461407d57600080fd5b50565b60008135905061408f81614069565b92915050565b60006140a86140a384614006565b613f3b565b905080838252602082019050602084028301858111156140cb576140ca614032565b5b835b818110156140f457806140e08882614080565b8452602084019350506020810190506140cd565b5050509392505050565b600082601f83011261411357614112613ec0565b5b8135614123848260208601614095565b91505092915050565b600067ffffffffffffffff82111561414757614146613edb565b5b602082029050602081019050919050565b600067ffffffffffffffff82111561417357614172613edb565b5b61417c82613eca565b9050602081019050919050565b600061419c61419784614158565b613f3b565b9050828152602081018484840111156141b8576141b7613ec5565b5b6141c3848285613f87565b509392505050565b600082601f8301126141e0576141df613ec0565b5b81356141f0848260208601614189565b91505092915050565b600061420c6142078461412c565b613f3b565b9050808382526020820190506020840283018581111561422f5761422e614032565b5b835b8181101561427657803567ffffffffffffffff81111561425457614253613ec0565b5b80860161426189826141cb565b85526020850194505050602081019050614231565b5050509392505050565b600082601f83011261429557614294613ec0565b5b81356142a58482602086016141f9565b91505092915050565b600080600080608085870312156142c8576142c7613d26565b5b600085013567ffffffffffffffff8111156142e6576142e5613d2b565b5b6142f287828801613fd8565b945050602085013567ffffffffffffffff81111561431357614312613d2b565b5b61431f87828801613fd8565b935050604085013567ffffffffffffffff8111156143405761433f613d2b565b5b61434c878288016140fe565b925050606085013567ffffffffffffffff81111561436d5761436c613d2b565b5b61437987828801614280565b91505092959194509250565b61438e81613deb565b82525050565b60006020820190506143a96000830184614385565b92915050565b6000602082840312156143c5576143c4613d26565b5b60006143d384828501614080565b91505092915050565b6143e581614057565b82525050565b600060208201905061440060008301846143dc565b92915050565b600081519050919050565b600082825260208201905092915050565b60005b83811015614440578082015181840152602081019050614425565b8381111561444f576000848401525b50505050565b600061446082614406565b61446a8185614411565b935061447a818560208601614422565b61448381613eca565b840191505092915050565b600060208201905081810360008301526144a88184614455565b905092915050565b600081519050919050565b600082825260208201905092915050565b60006144d7826144b0565b6144e181856144bb565b93506144f1818560208601614422565b6144fa81613eca565b840191505092915050565b6000602082019050818103600083015261451f81846144cc565b905092915050565b600060ff82169050919050565b61453d81614527565b811461454857600080fd5b50565b60008135905061455a81614534565b92915050565b6000806040838503121561457757614576613d26565b5b600061458585828601614080565b92505060206145968582860161454b565b9150509250929050565b6145a981613e70565b81146145b457600080fd5b50565b6000813590506145c6816145a0565b92915050565b600080604083850312156145e3576145e2613d26565b5b60006145f1858286016145b7565b925050602083013567ffffffffffffffff81111561461257614611613d2b565b5b61461e85828601613fd8565b9150509250929050565b6000806040838503121561463f5761463e613d26565b5b600061464d85828601614080565b925050602061465e85828601613e2e565b9150509250929050565b600060208201905061467d6000830184613e7a565b92915050565b61468c81614527565b82525050565b60006020820190506146a76000830184614683565b92915050565b6000602082840312156146c3576146c2613d26565b5b60006146d1848285016145b7565b91505092915050565b60007fffffffffffffffffffffffffffffffffffffffff00000000000000000000000082169050919050565b61470f816146da565b811461471a57600080fd5b50565b60008135905061472c81614706565b92915050565b6000806040838503121561474957614748613d26565b5b600061475785828601613e2e565b92505060206147688582860161471d565b9150509250929050565b6000806040838503121561478957614788613d26565b5b600061479785828601614080565b92505060206147a8858286016145b7565b9150509250929050565b6000602082840312156147c8576147c7613d26565b5b60006147d68482850161454b565b91505092915050565b6000819050919050565b6147f2816147df565b82525050565b600060208201905061480d60008301846147e9565b92915050565b600081519050919050565b600082825260208201905092915050565b6000819050602082019050919050565b61484881614057565b82525050565b600061485a838361483f565b60208301905092915050565b6000602082019050919050565b600061487e82614813565b614888818561481e565b93506148938361482f565b8060005b838110156148c45781516148ab888261484e565b97506148b683614866565b925050600181019050614897565b5085935050505092915050565b600081519050919050565b600082825260208201905092915050565b6000819050602082019050919050565b600082825260208201905092915050565b600061491982614406565b61492381856148fd565b9350614933818560208601614422565b61493c81613eca565b840191505092915050565b6000614953838361490e565b905092915050565b6000602082019050919050565b6000614973826148d1565b61497d81856148dc565b93508360208202850161498f856148ed565b8060005b858110156149cb57848403895281516149ac8582614947565b94506149b78361495b565b925060208a01995050600181019050614993565b50829750879550505050505092915050565b600060408201905081810360008301526149f78185614873565b90508181036020830152614a0b8184614968565b90509392505050565b60008060408385031215614a2b57614a2a613d26565b5b6000614a3985828601613e2e565b9250506020614a4a8582860161454b565b9150509250929050565b614a5d816146da565b82525050565b6000604082019050614a786000830185614385565b614a856020830184614a54565b9392505050565b6000614a9f614a9a84614158565b613f3b565b905082815260208101848484011115614abb57614aba613ec5565b5b614ac6848285614422565b509392505050565b600082601f830112614ae357614ae2613ec0565b5b8151614af3848260208601614a8c565b91505092915050565b600060208284031215614b1257614b11613d26565b5b600082015167ffffffffffffffff811115614b3057614b2f613d2b565b5b614b3c84828501614ace565b91505092915050565b6000819050602082019050919050565b6000614b6182516147df565b80915050919050565b600082821b905092915050565b6000614b8282614406565b82614b8c84614b45565b9050614b9781614b55565b92506020821015614bd757614bd27fffffffffffffffffffffffffffffffffffffffffffffffffffffffffffffffff83602003600802614b6a565b831692505b5050919050565b7f5573657220646f6573656e2774206861766520746865207065726d697373696f60008201527f6e2e000000000000000000000000000000000000000000000000000000000000602082015250565b6000614c3a6022836144bb565b9150614c4582614bde565b604082019050919050565b60006020820190508181036000830152614c6981614c2d565b9050919050565b7f50726f7669646564207461726765747320616e6420646174617320686176652060008201527f646966666572656e74206c656e677468732e0000000000000000000000000000602082015250565b6000614ccc6032836144bb565b9150614cd782614c70565b604082019050919050565b60006020820190508181036000830152614cfb81614cbf565b9050919050565b7f4e487b7100000000000000000000000000000000000000000000000000000000600052603260045260246000fd5b6000819050919050565b614d4c614d47826147df565b614d31565b82525050565b6000614d5e8284614d3b565b60208201915081905092915050565b6000819050919050565b614d88614d8382613deb565b614d6d565b82525050565b60007fffff00000000000000000000000000000000000000000000000000000000000082169050919050565b6000819050919050565b614dd5614dd082614d8e565b614dba565b82525050565b6000819050919050565b614df6614df1826146da565b614ddb565b82525050565b6000614e088286614d77565b600a82019150614e188285614dc4565b600282019150614e288284614de5565b601482019150819050949350505050565b6000614e4582516146da565b80915050919050565b6000614e5982614406565b82614e6384614b45565b9050614e6e81614e39565b92506014821015614eae57614ea97fffffffffffffffffffffffffffffffffffffffff00000000000000000000000083601403600802614b6a565b831692505b5050919050565b60007fffffffffffff000000000000000000000000000000000000000000000000000082169050919050565b6000819050919050565b614efc614ef782614eb5565b614ee1565b82525050565b6000819050919050565b614f1d614f1882613d30565b614f02565b82525050565b6000614f2f8287614eeb565b600682019150614f3f8286614f0c565b600482019150614f4f8285614dc4565b600282019150614f5f8284614de5565b60148201915081905095945050505050565b7f4e487b7100000000000000000000000000000000000000000000000000000000600052601160045260246000fd5b6000614fab82613e70565b9150614fb683613e70565b9250827fffffffffffffffffffffffffffffffffffffffffffffffffffffffffffffffff03821115614feb57614fea614f71565b5b828201905092915050565b600061500182613e70565b915061500c83613e70565b92508282101561501f5761501e614f71565b5b828203905092915050565b60008151905061503981614534565b92915050565b60006020828403121561505557615054613d26565b5b60006150638482850161502a565b91505092915050565b7f4e487b7100000000000000000000000000000000000000000000000000000000600052601260045260246000fd5b60006150a682613e70565b91506150b183613e70565b9250826150c1576150c061506c565b5b828204905092915050565b60006150d88285614eeb565b6006820191506150e88284614f0c565b6004820191508190509392505050565b60006151048251613deb565b80915050919050565b600061511882614406565b8261512284614b45565b905061512d816150f8565b9250600a82101561516d576151687fffffffffffffffffffff0000000000000000000000000000000000000000000083600a03600802614b6a565b831692505b5050919050565b7f5573657220616c72656164792068617320746865207065726d697373696f6e2e600082015250565b60006151aa6020836144bb565b91506151b582615174565b602082019050919050565b600060208201905081810360008301526151d98161519d565b9050919050565b6000815190506151ef816145a0565b92915050565b60006020828403121561520b5761520a613d26565b5b6000615219848285016151e0565b91505092915050565b7f54686520766f74696e672064656c6179206973206e6f742079656174206f766560008201527f722e000000000000000000000000000000000000000000000000000000000000602082015250565b600061527e6022836144bb565b915061528982615222565b604082019050919050565b600060208201905081810360008301526152ad81615271565b9050919050565b7f5468697320556e6976657273616c2050726f66696c65206973206e6f7420612060008201527f7061727469636970616e74206f66207468652044414f2e000000000000000000602082015250565b60006153106037836144bb565b915061531b826152b4565b604082019050919050565b6000602082019050818103600083015261533f81615303565b9050919050565b60007fff0000000000000000000000000000000000000000000000000000000000000082169050919050565b600061537e8251615346565b80915050919050565b600061539282614406565b8261539c84614b45565b90506153a781615372565b925060018210156153e7576153e27fff0000000000000000000000000000000000000000000000000000000000000083600103600802614b6a565b831692505b5050919050565b600067ffffffffffffffff82111561540957615408613edb565b5b602082029050919050565b60007fffffffffffffffffffffffffffffffff0000000000000000000000000000000082169050919050565b61544981615414565b811461545457600080fd5b50565b60008151905061546681615440565b92915050565b600061547f61547a846153ee565b613f3b565b9050806020840283018581111561549957615498614032565b5b835b818110156154c257806154ae8882615457565b84526020840193505060208101905061549b565b5050509392505050565b600082601f8301126154e1576154e0613ec0565b5b60026154ee84828561546c565b91505092915050565b60006040828403121561550d5761550c613d26565b5b600061551b848285016154cc565b91505092915050565b6000819050919050565b61553f61553a82615414565b615524565b82525050565b6000615551828561552e565b601082019150615561828461552e565b6010820191508190509392505050565b7f54686520766f74696e672064656c6179206973206e6f7420796574206f76657260008201527f2e00000000000000000000000000000000000000000000000000000000000000602082015250565b60006155cd6021836144bb565b91506155d882615571565b604082019050919050565b600060208201905081810360008301526155fc816155c0565b9050919050565b6000819050919050565b6000819050919050565b600061563261562d61562884615603565b61560d565b613e70565b9050919050565b61564281615617565b82525050565b600060808201905061565d6000830187615639565b61566a60208301866143dc565b6156776040830185615639565b81810360608301526156898184614455565b905095945050505050565b600061569f82613e70565b91507fffffffffffffffffffffffffffffffffffffffffffffffffffffffffffffffff82036156d1576156d0614f71565b5b600182019050919050565b60006fffffffffffffffffffffffffffffffff82169050919050565b6000615703826156dc565b91506fffffffffffffffffffffffffffffffff820361572557615724614f71565b5b600182019050919050565b7f557365722064656c6567617465642068697320766f7465732e00000000000000600082015250565b60006157666019836144bb565b915061577182615730565b602082019050919050565b6000602082019050818103600083015261579581615759565b9050919050565b7f557365722064696420616c726561647920766f74652e00000000000000000000600082015250565b60006157d26016836144bb565b91506157dd8261579c565b602082019050919050565b60006020820190508181036000830152615801816157c5565b9050919050565b7f566f74696e6720706572696f6420697320616c7265616479206f7665722e0000600082015250565b600061583e601e836144bb565b915061584982615808565b602082019050919050565b6000602082019050818103600083015261586d81615831565b9050919050565b600061587f82614527565b915061588a83614527565b92508260ff038211156158a05761589f614f71565b5b828201905092915050565b60006040820190506158c060008301856147e9565b81810360208301526158d28184614455565b90509392505050565b60006158e78284614de5565b6014820191508190509291505056fea264697066735822122022e1889db2ea0a19a4518da03e87aeea670de535b019c7866a44a913f559b82b64736f6c634300080f003360806040523480156200001157600080fd5b5060405162003ef038038062003ef08339818101604052810190620000379190620001ef565b6200004d816200005460201b6200132d1760201c565b5062000221565b620000646200015c60201b60201c565b73ffffffffffffffffffffffffffffffffffffffff168173ffffffffffffffffffffffffffffffffffffffff1614620001595760008060009054906101000a900473ffffffffffffffffffffffffffffffffffffffff169050816000806101000a81548173ffffffffffffffffffffffffffffffffffffffff021916908373ffffffffffffffffffffffffffffffffffffffff1602179055508173ffffffffffffffffffffffffffffffffffffffff168173ffffffffffffffffffffffffffffffffffffffff167f8be0079c531659141344cd1fd0a4f28419497f9722a3daafe3b4186f6b6457e060405160405180910390a3505b50565b60008060009054906101000a900473ffffffffffffffffffffffffffffffffffffffff16905090565b600080fd5b600073ffffffffffffffffffffffffffffffffffffffff82169050919050565b6000620001b7826200018a565b9050919050565b620001c981620001aa565b8114620001d557600080fd5b50565b600081519050620001e981620001be565b92915050565b60006020828403121562000208576200020762000185565b5b60006200021884828501620001d8565b91505092915050565b613cbf80620002316000396000f3fe6080604052600436106100c65760003560e01c806354f6127f1161007f5780637f23690c116100595780637f23690c146102c25780638da5cb5b146102eb578063e30c397814610316578063f2fde38b14610341576100c7565b806354f6127f1461023e5780636bb56a141461027b578063715018a6146102ab576100c7565b806301ffc9a71461011757806314a6e293146101545780631626ba7e1461017d57806344c028fe146101ba5780634e3e6e9c146101ea5780634e71e0c814610227576100c7565b5b600034111561011557343373ffffffffffffffffffffffffffffffffffffffff167f7e71433ddf847725166244795048ecf3e3f9f35628254ecbf73605666423349360405160405180910390a35b005b34801561012357600080fd5b5061013e60048036038101906101399190612133565b61036a565b60405161014b919061217b565b60405180910390f35b34801561016057600080fd5b5061017b600480360381019061017691906124bb565b6104b8565b005b34801561018957600080fd5b506101a4600480360381019061019f9190612533565b6105d0565b6040516101b1919061259e565b60405180910390f35b6101d460048036038101906101cf91906126a8565b6106ff565b6040516101e191906127b8565b60405180910390f35b3480156101f657600080fd5b50610211600480360381019061020c91906127da565b610e31565b60405161021e919061292f565b60405180910390f35b34801561023357600080fd5b5061023c610ee7565b005b34801561024a57600080fd5b5061026560048036038101906102609190612951565b610fe6565b60405161027291906127b8565b60405180910390f35b6102956004803603810190610290919061297e565b610ff8565b6040516102a291906127b8565b60405180910390f35b3480156102b757600080fd5b506102c0611159565b005b3480156102ce57600080fd5b506102e960048036038101906102e49190612533565b6111da565b005b3480156102f757600080fd5b5061030061125d565b60405161030d91906129ed565b60405180910390f35b34801561032257600080fd5b5061032b611286565b60405161033891906129ed565b60405180910390f35b34801561034d57600080fd5b5061036860048036038101906103639190612a08565b6112ac565b005b6000631626ba7e60e01b7bffffffffffffffffffffffffffffffffffffffffffffffffffffffff1916827bffffffffffffffffffffffffffffffffffffffffffffffffffffffff191614806104035750639a3bfe8860e01b7bffffffffffffffffffffffffffffffffffffffffffffffffffffffff1916827bffffffffffffffffffffffffffffffffffffffffffffffffffffffff1916145b806104525750636bb56a1460e01b7bffffffffffffffffffffffffffffffffffffffffffffffffffffffff1916827bffffffffffffffffffffffffffffffffffffffffffffffffffffffff1916145b806104a1575063ad7dd9b060e01b7bffffffffffffffffffffffffffffffffffffffffffffffffffffffff1916827bffffffffffffffffffffffffffffffffffffffffffffffffffffffff1916145b806104b157506104b08261142c565b5b9050919050565b3373ffffffffffffffffffffffffffffffffffffffff166104d761125d565b73ffffffffffffffffffffffffffffffffffffffff161461052d576040517f08c379a000000000000000000000000000000000000000000000000000000000815260040161052490612a92565b60405180910390fd5b8051825114610571576040517f08c379a000000000000000000000000000000000000000000000000000000000815260040161056890612b24565b60405180910390fd5b60005b82518110156105cb576105bb83828151811061059357610592612b44565b5b60200260200101518383815181106105ae576105ad612b44565b5b602002602001015161148d565b6105c4816114df565b9050610574565b505050565b6000806105db61125d565b905060008173ffffffffffffffffffffffffffffffffffffffff163b146106a35761060d81631626ba7e60e01b6114ec565b61061e5763ffffffff60e01b61069b565b8073ffffffffffffffffffffffffffffffffffffffff16631626ba7e85856040518363ffffffff1660e01b8152600401610659929190612b82565b602060405180830381865afa158015610676573d6000803e3d6000fd5b505050506040513d601f19601f8201168201806040525081019061069a9190612bc7565b5b9150506106f9565b6106ad8484611617565b73ffffffffffffffffffffffffffffffffffffffff168173ffffffffffffffffffffffffffffffffffffffff16146106ec5763ffffffff60e01b6106f5565b631626ba7e60e01b5b9150505b92915050565b60603373ffffffffffffffffffffffffffffffffffffffff1661072061125d565b73ffffffffffffffffffffffffffffffffffffffff1614610776576040517f08c379a000000000000000000000000000000000000000000000000000000000815260040161076d90612a92565b60405180910390fd5b60005a90506000870361087957844710156107c6576040517f08c379a00000000000000000000000000000000000000000000000000000000081526004016107bd90612c66565b60405180910390fd5b610816868686868080601f016020809104026020016040519081016040528093929190818152602001838380828437600081840152601f19601f820116905080830192505050505050508461163e565b9150848673ffffffffffffffffffffffffffffffffffffffff16887f4810874456b8e6487bd861375cf6abd8e1c8bb5858c8ce36a86a04dabfac199e87879061085f9190612c9e565b60405161086c919061259e565b60405180910390a4610e27565b6003870361097657600085146108c4576040517f08c379a00000000000000000000000000000000000000000000000000000000081526004016108bb90612d6f565b60405180910390fd5b6109138685858080601f016020809104026020016040519081016040528093929190818152602001838380828437600081840152601f19601f82011690508083019250505050505050836116cf565b9150848673ffffffffffffffffffffffffffffffffffffffff16887f4810874456b8e6487bd861375cf6abd8e1c8bb5858c8ce36a86a04dabfac199e87879061095c9190612c9e565b604051610969919061259e565b60405180910390a4610e26565b60048703610a7357600085146109c1576040517f08c379a00000000000000000000000000000000000000000000000000000000081526004016109b890612e01565b60405180910390fd5b610a108685858080601f016020809104026020016040519081016040528093929190818152602001838380828437600081840152601f19601f820116905080830192505050505050508361175c565b9150848673ffffffffffffffffffffffffffffffffffffffff16887f4810874456b8e6487bd861375cf6abd8e1c8bb5858c8ce36a86a04dabfac199e878790610a599190612c9e565b604051610a66919061259e565b60405180910390a4610e25565b60018703610bec57600073ffffffffffffffffffffffffffffffffffffffff168673ffffffffffffffffffffffffffffffffffffffff1614610aea576040517f08c379a0000000000000000000000000000000000000000000000000000000008152600401610ae190612eb9565b60405180910390fd5b84471015610b2d576040517f08c379a0000000000000000000000000000000000000000000000000000000008152600401610b2490612c66565b60405180910390fd5b6000610b7d8686868080601f016020809104026020016040519081016040528093929190818152602001838380828437600081840152601f19601f820116905080830192505050505050506117e9565b905080604051602001610b909190612f21565b6040516020818303038152906040529250858173ffffffffffffffffffffffffffffffffffffffff16897f01c42bd7e97a66166063b02fce6924e6656b6c2c61966630165095c4fb0b7b2f60405160405180910390a450610e24565b60028703610de857600073ffffffffffffffffffffffffffffffffffffffff168673ffffffffffffffffffffffffffffffffffffffff1614610c63576040517f08c379a0000000000000000000000000000000000000000000000000000000008152600401610c5a90612eb9565b60405180910390fd5b84471015610ca6576040517f08c379a0000000000000000000000000000000000000000000000000000000008152600401610c9d90612c66565b60405180910390fd5b6000610d0585858080601f016020809104026020016040519081016040528093929190818152602001838380828437600081840152601f19601f82011690508083019250505050505050602087879050610d009190612f6b565b6118ad565b90506000610d6886868080601f016020809104026020016040519081016040528093929190818152602001838380828437600081840152601f19601f820116905080830192505050505050506000602089899050610d639190612f6b565b611914565b90506000610d77888484611a32565b905080604051602001610d8a9190612f21565b6040516020818303038152906040529450878173ffffffffffffffffffffffffffffffffffffffff168b7f01c42bd7e97a66166063b02fce6924e6656b6c2c61966630165095c4fb0b7b2f60405160405180910390a4505050610e23565b6040517f08c379a0000000000000000000000000000000000000000000000000000000008152600401610e1a90612feb565b60405180910390fd5b5b5b5b5b5095945050505050565b6060815167ffffffffffffffff811115610e4e57610e4d6121ac565b5b604051908082528060200260200182016040528015610e8157816020015b6060815260200190600190039081610e6c5790505b50905060005b8251811015610ee157610eb3838281518110610ea657610ea5612b44565b5b6020026020010151611b41565b828281518110610ec657610ec5612b44565b5b6020026020010181905250610eda816114df565b9050610e87565b50919050565b600260009054906101000a900473ffffffffffffffffffffffffffffffffffffffff1673ffffffffffffffffffffffffffffffffffffffff163373ffffffffffffffffffffffffffffffffffffffff1614610f77576040517f08c379a0000000000000000000000000000000000000000000000000000000008152600401610f6e9061307d565b60405180910390fd5b610fa2600260009054906101000a900473ffffffffffffffffffffffffffffffffffffffff1661132d565b6000600260006101000a81548173ffffffffffffffffffffffffffffffffffffffff021916908373ffffffffffffffffffffffffffffffffffffffff160217905550565b6060610ff182611b41565b9050919050565b606060006110287f0cfc51aec37c55a4d0b1a65c6255c4bf2fbdf6277f3cc0730c45b828b6db8b4760001b611b41565b905060148151106110e85760008161103f906130ee565b60601c90506110558163a245bbda60e01b6114ec565b156110e6578073ffffffffffffffffffffffffffffffffffffffff1663a245bbda33348989896040518663ffffffff1660e01b815260040161109b959493929190613191565b6000604051808303816000875af11580156110ba573d6000803e3d6000fd5b505050506040513d6000823e3d601f19601f820116820180604052508101906110e3919061324f565b92505b505b816040516110f691906132d4565b6040518091039020853373ffffffffffffffffffffffffffffffffffffffff167f9c3ba68eb5742b8e3961aea0afc7371a71bf433c8a67a831803b64c064a178c2348888604051611149939291906132eb565b60405180910390a4509392505050565b3373ffffffffffffffffffffffffffffffffffffffff1661117861125d565b73ffffffffffffffffffffffffffffffffffffffff16146111ce576040517f08c379a00000000000000000000000000000000000000000000000000000000081526004016111c590612a92565b60405180910390fd5b6111d8600061132d565b565b3373ffffffffffffffffffffffffffffffffffffffff166111f961125d565b73ffffffffffffffffffffffffffffffffffffffff161461124f576040517f08c379a000000000000000000000000000000000000000000000000000000000815260040161124690612a92565b60405180910390fd5b611259828261148d565b5050565b60008060009054906101000a900473ffffffffffffffffffffffffffffffffffffffff16905090565b600260009054906101000a900473ffffffffffffffffffffffffffffffffffffffff1681565b3373ffffffffffffffffffffffffffffffffffffffff166112cb61125d565b73ffffffffffffffffffffffffffffffffffffffff1614611321576040517f08c379a000000000000000000000000000000000000000000000000000000000815260040161131890612a92565b60405180910390fd5b61132a81611be6565b50565b61133561125d565b73ffffffffffffffffffffffffffffffffffffffff168173ffffffffffffffffffffffffffffffffffffffff16146114295760008060009054906101000a900473ffffffffffffffffffffffffffffffffffffffff169050816000806101000a81548173ffffffffffffffffffffffffffffffffffffffff021916908373ffffffffffffffffffffffffffffffffffffffff1602179055508173ffffffffffffffffffffffffffffffffffffffff168173ffffffffffffffffffffffffffffffffffffffff167f8be0079c531659141344cd1fd0a4f28419497f9722a3daafe3b4186f6b6457e060405160405180910390a3505b50565b600063714df77c60e01b7bffffffffffffffffffffffffffffffffffffffffffffffffffffffff1916827bffffffffffffffffffffffffffffffffffffffffffffffffffffffff19161480611486575061148582611c2a565b5b9050919050565b806001600084815260200190815260200160002090816114ad919061351c565b50817fcdf4e344c0d23d4cdd0474039d176c55b19d531070dbe17856bfb993a5b5720b60405160405180910390a25050565b6000600182019050919050565b6000806301ffc9a760e01b83604051602401611508919061259e565b604051602081830303815290604052907bffffffffffffffffffffffffffffffffffffffffffffffffffffffff19166020820180517bffffffffffffffffffffffffffffffffffffffffffffffffffffffff838183161783525050505090506000808573ffffffffffffffffffffffffffffffffffffffff166175308460405161159291906132d4565b6000604051808303818686fa925050503d80600081146115ce576040519150601f19603f3d011682016040523d82523d6000602084013e6115d3565b606091505b50915091506020815110156115ee5760009350505050611611565b81801561160b57508080602001905181019061160a919061361a565b5b93505050505b92915050565b60008060006116268585611c8b565b9150915061163381611d0c565b819250505092915050565b60606000808673ffffffffffffffffffffffffffffffffffffffff1684878760405161166a91906132d4565b600060405180830381858888f193505050503d80600081146116a8576040519150601f19603f3d011682016040523d82523d6000602084013e6116ad565b606091505b5091509150816116c2576116c081611ed8565b505b8092505050949350505050565b60606000808573ffffffffffffffffffffffffffffffffffffffff1684866040516116fa91906132d4565b6000604051808303818686fa925050503d8060008114611736576040519150601f19603f3d011682016040523d82523d6000602084013e61173b565b606091505b5091509150816117505761174e81611ed8565b505b80925050509392505050565b60606000808573ffffffffffffffffffffffffffffffffffffffff16848660405161178791906132d4565b6000604051808303818686f4925050503d80600081146117c3576040519150601f19603f3d011682016040523d82523d6000602084013e6117c8565b606091505b5091509150816117dd576117db81611ed8565b505b80925050509392505050565b60008082510361182e576040517f08c379a000000000000000000000000000000000000000000000000000000000815260040161182590613693565b60405180910390fd5b81516020830184f09050600073ffffffffffffffffffffffffffffffffffffffff168173ffffffffffffffffffffffffffffffffffffffff16036118a7576040517f08c379a000000000000000000000000000000000000000000000000000000000815260040161189e906136ff565b60405180910390fd5b92915050565b60006020826118bc919061371f565b835110156118ff576040517f08c379a00000000000000000000000000000000000000000000000000000000081526004016118f6906137c1565b60405180910390fd5b60008260208501015190508091505092915050565b606081601f83611924919061371f565b1015611965576040517f08c379a000000000000000000000000000000000000000000000000000000000815260040161195c9061382d565b60405180910390fd5b8183611971919061371f565b845110156119b4576040517f08c379a00000000000000000000000000000000000000000000000000000000081526004016119ab90613899565b60405180910390fd5b60608215600081146119d55760405191506000825260208201604052611a26565b6040519150601f8416801560200281840101858101878315602002848b0101015b81831015611a1357805183526020830192506020810190506119f6565b50868552601f19601f8301166040525050505b50809150509392505050565b60008084471015611a78576040517f08c379a0000000000000000000000000000000000000000000000000000000008152600401611a6f90613905565b60405180910390fd5b6000835103611abc576040517f08c379a0000000000000000000000000000000000000000000000000000000008152600401611ab390613971565b60405180910390fd5b8383516020850187f59050600073ffffffffffffffffffffffffffffffffffffffff168173ffffffffffffffffffffffffffffffffffffffff1603611b36576040517f08c379a0000000000000000000000000000000000000000000000000000000008152600401611b2d906139dd565b60405180910390fd5b809150509392505050565b6060600160008381526020019081526020016000208054611b619061334c565b80601f0160208091040260200160405190810160405280929190818152602001828054611b8d9061334c565b8015611bda5780601f10611baf57610100808354040283529160200191611bda565b820191906000526020600020905b815481529060010190602001808311611bbd57829003601f168201915b50505050509050919050565b80600260006101000a81548173ffffffffffffffffffffffffffffffffffffffff021916908373ffffffffffffffffffffffffffffffffffffffff16021790555050565b60006344c028fe60e01b7bffffffffffffffffffffffffffffffffffffffffffffffffffffffff1916827bffffffffffffffffffffffffffffffffffffffffffffffffffffffff19161480611c845750611c8382611ef2565b5b9050919050565b6000806041835103611ccc5760008060006020860151925060408601519150606086015160001a9050611cc087828585611f5c565b94509450505050611d05565b6040835103611cfc576000806020850151915060408501519050611cf1868383612068565b935093505050611d05565b60006002915091505b9250929050565b60006004811115611d2057611d1f6139fd565b5b816004811115611d3357611d326139fd565b5b0315611ed55760016004811115611d4d57611d4c6139fd565b5b816004811115611d6057611d5f6139fd565b5b03611da0576040517f08c379a0000000000000000000000000000000000000000000000000000000008152600401611d9790613a78565b60405180910390fd5b60026004811115611db457611db36139fd565b5b816004811115611dc757611dc66139fd565b5b03611e07576040517f08c379a0000000000000000000000000000000000000000000000000000000008152600401611dfe90613ae4565b60405180910390fd5b60036004811115611e1b57611e1a6139fd565b5b816004811115611e2e57611e2d6139fd565b5b03611e6e576040517f08c379a0000000000000000000000000000000000000000000000000000000008152600401611e6590613b76565b60405180910390fd5b600480811115611e8157611e806139fd565b5b816004811115611e9457611e936139fd565b5b03611ed4576040517f08c379a0000000000000000000000000000000000000000000000000000000008152600401611ecb90613c08565b60405180910390fd5b5b50565b6060600082511115611eed5781518083602001fd5b600080fd5b60007f01ffc9a7000000000000000000000000000000000000000000000000000000007bffffffffffffffffffffffffffffffffffffffffffffffffffffffff1916827bffffffffffffffffffffffffffffffffffffffffffffffffffffffff1916149050919050565b6000807f7fffffffffffffffffffffffffffffff5d576e7357a4501ddfe92f46681b20a08360001c1115611f9757600060039150915061205f565b601b8560ff1614158015611faf5750601c8560ff1614155b15611fc157600060049150915061205f565b600060018787878760405160008152602001604052604051611fe69493929190613c44565b6020604051602081039080840390855afa158015612008573d6000803e3d6000fd5b505050602060405103519050600073ffffffffffffffffffffffffffffffffffffffff168173ffffffffffffffffffffffffffffffffffffffff16036120565760006001925092505061205f565b80600092509250505b94509492505050565b60008060007f7fffffffffffffffffffffffffffffffffffffffffffffffffffffffffffffff60001b841690506000601b60ff8660001c901c6120ab919061371f565b90506120b987828885611f5c565b935093505050935093915050565b6000604051905090565b600080fd5b600080fd5b60007fffffffff0000000000000000000000000000000000000000000000000000000082169050919050565b612110816120db565b811461211b57600080fd5b50565b60008135905061212d81612107565b92915050565b600060208284031215612149576121486120d1565b5b60006121578482850161211e565b91505092915050565b60008115159050919050565b61217581612160565b82525050565b6000602082019050612190600083018461216c565b92915050565b600080fd5b6000601f19601f8301169050919050565b7f4e487b7100000000000000000000000000000000000000000000000000000000600052604160045260246000fd5b6121e48261219b565b810181811067ffffffffffffffff82111715612203576122026121ac565b5b80604052505050565b60006122166120c7565b905061222282826121db565b919050565b600067ffffffffffffffff821115612242576122416121ac565b5b602082029050602081019050919050565b600080fd5b6000819050919050565b61226b81612258565b811461227657600080fd5b50565b60008135905061228881612262565b92915050565b60006122a161229c84612227565b61220c565b905080838252602082019050602084028301858111156122c4576122c3612253565b5b835b818110156122ed57806122d98882612279565b8452602084019350506020810190506122c6565b5050509392505050565b600082601f83011261230c5761230b612196565b5b813561231c84826020860161228e565b91505092915050565b600067ffffffffffffffff8211156123405761233f6121ac565b5b602082029050602081019050919050565b600080fd5b600067ffffffffffffffff821115612371576123706121ac565b5b61237a8261219b565b9050602081019050919050565b82818337600083830152505050565b60006123a96123a484612356565b61220c565b9050828152602081018484840111156123c5576123c4612351565b5b6123d0848285612387565b509392505050565b600082601f8301126123ed576123ec612196565b5b81356123fd848260208601612396565b91505092915050565b600061241961241484612325565b61220c565b9050808382526020820190506020840283018581111561243c5761243b612253565b5b835b8181101561248357803567ffffffffffffffff81111561246157612460612196565b5b80860161246e89826123d8565b8552602085019450505060208101905061243e565b5050509392505050565b600082601f8301126124a2576124a1612196565b5b81356124b2848260208601612406565b91505092915050565b600080604083850312156124d2576124d16120d1565b5b600083013567ffffffffffffffff8111156124f0576124ef6120d6565b5b6124fc858286016122f7565b925050602083013567ffffffffffffffff81111561251d5761251c6120d6565b5b6125298582860161248d565b9150509250929050565b6000806040838503121561254a576125496120d1565b5b600061255885828601612279565b925050602083013567ffffffffffffffff811115612579576125786120d6565b5b612585858286016123d8565b9150509250929050565b612598816120db565b82525050565b60006020820190506125b3600083018461258f565b92915050565b6000819050919050565b6125cc816125b9565b81146125d757600080fd5b50565b6000813590506125e9816125c3565b92915050565b600073ffffffffffffffffffffffffffffffffffffffff82169050919050565b600061261a826125ef565b9050919050565b61262a8161260f565b811461263557600080fd5b50565b60008135905061264781612621565b92915050565b600080fd5b60008083601f84011261266857612667612196565b5b8235905067ffffffffffffffff8111156126855761268461264d565b5b6020830191508360018202830111156126a1576126a0612253565b5b9250929050565b6000806000806000608086880312156126c4576126c36120d1565b5b60006126d2888289016125da565b95505060206126e388828901612638565b94505060406126f4888289016125da565b935050606086013567ffffffffffffffff811115612715576127146120d6565b5b61272188828901612652565b92509250509295509295909350565b600081519050919050565b600082825260208201905092915050565b60005b8381101561276a57808201518184015260208101905061274f565b83811115612779576000848401525b50505050565b600061278a82612730565b612794818561273b565b93506127a481856020860161274c565b6127ad8161219b565b840191505092915050565b600060208201905081810360008301526127d2818461277f565b905092915050565b6000602082840312156127f0576127ef6120d1565b5b600082013567ffffffffffffffff81111561280e5761280d6120d6565b5b61281a848285016122f7565b91505092915050565b600081519050919050565b600082825260208201905092915050565b6000819050602082019050919050565b600082825260208201905092915050565b600061286b82612730565b612875818561284f565b935061288581856020860161274c565b61288e8161219b565b840191505092915050565b60006128a58383612860565b905092915050565b6000602082019050919050565b60006128c582612823565b6128cf818561282e565b9350836020820285016128e18561283f565b8060005b8581101561291d57848403895281516128fe8582612899565b9450612909836128ad565b925060208a019950506001810190506128e5565b50829750879550505050505092915050565b6000602082019050818103600083015261294981846128ba565b905092915050565b600060208284031215612967576129666120d1565b5b600061297584828501612279565b91505092915050565b600080600060408486031215612997576129966120d1565b5b60006129a586828701612279565b935050602084013567ffffffffffffffff8111156129c6576129c56120d6565b5b6129d286828701612652565b92509250509250925092565b6129e78161260f565b82525050565b6000602082019050612a0260008301846129de565b92915050565b600060208284031215612a1e57612a1d6120d1565b5b6000612a2c84828501612638565b91505092915050565b600082825260208201905092915050565b7f4f776e61626c653a2063616c6c6572206973206e6f7420746865206f776e6572600082015250565b6000612a7c602083612a35565b9150612a8782612a46565b602082019050919050565b60006020820190508181036000830152612aab81612a6f565b9050919050565b7f4b657973206c656e677468206e6f7420657175616c20746f2076616c7565732060008201527f6c656e6774680000000000000000000000000000000000000000000000000000602082015250565b6000612b0e602683612a35565b9150612b1982612ab2565b604082019050919050565b60006020820190508181036000830152612b3d81612b01565b9050919050565b7f4e487b7100000000000000000000000000000000000000000000000000000000600052603260045260246000fd5b612b7c81612258565b82525050565b6000604082019050612b976000830185612b73565b8181036020830152612ba9818461277f565b90509392505050565b600081519050612bc181612107565b92915050565b600060208284031215612bdd57612bdc6120d1565b5b6000612beb84828501612bb2565b91505092915050565b7f455243373235583a20696e73756666696369656e742062616c616e636520666f60008201527f722063616c6c0000000000000000000000000000000000000000000000000000602082015250565b6000612c50602683612a35565b9150612c5b82612bf4565b604082019050919050565b60006020820190508181036000830152612c7f81612c43565b9050919050565b600082905092915050565b600082821b905092915050565b6000612caa8383612c86565b82612cb581356120db565b92506004821015612cf557612cf07fffffffff0000000000000000000000000000000000000000000000000000000083600403600802612c91565b831692505b505092915050565b7f455243373235583a2063616e6e6f74207472616e736665722076616c7565207760008201527f697468206f7065726174696f6e2053544154494343414c4c0000000000000000602082015250565b6000612d59603883612a35565b9150612d6482612cfd565b604082019050919050565b60006020820190508181036000830152612d8881612d4c565b9050919050565b7f455243373235583a2063616e6e6f74207472616e736665722076616c7565207760008201527f697468206f7065726174696f6e2044454c454741544543414c4c000000000000602082015250565b6000612deb603a83612a35565b9150612df682612d8f565b604082019050919050565b60006020820190508181036000830152612e1a81612dde565b9050919050565b7f455243373235583a20435245415445206f7065726174696f6e7320726571756960008201527f726520746865207265636569766572206164647265737320746f20626520656d60208201527f7074790000000000000000000000000000000000000000000000000000000000604082015250565b6000612ea3604383612a35565b9150612eae82612e21565b606082019050919050565b60006020820190508181036000830152612ed281612e96565b9050919050565b60008160601b9050919050565b6000612ef182612ed9565b9050919050565b6000612f0382612ee6565b9050919050565b612f1b612f168261260f565b612ef8565b82525050565b6000612f2d8284612f0a565b60148201915081905092915050565b7f4e487b7100000000000000000000000000000000000000000000000000000000600052601160045260246000fd5b6000612f76826125b9565b9150612f81836125b9565b925082821015612f9457612f93612f3c565b5b828203905092915050565b7f57726f6e67206f7065726174696f6e2074797065000000000000000000000000600082015250565b6000612fd5601483612a35565b9150612fe082612f9f565b602082019050919050565b6000602082019050818103600083015261300481612fc8565b9050919050565b7f4f776e61626c65436c61696d3a2063616c6c6572206973206e6f74207468652060008201527f70656e64696e674f776e65720000000000000000000000000000000000000000602082015250565b6000613067602c83612a35565b91506130728261300b565b604082019050919050565b600060208201905081810360008301526130968161305a565b9050919050565b6000819050602082019050919050565b60007fffffffffffffffffffffffffffffffffffffffff00000000000000000000000082169050919050565b60006130e582516130ad565b80915050919050565b60006130f982612730565b826131038461309d565b905061310e816130d9565b9250601482101561314e576131497fffffffffffffffffffffffffffffffffffffffff00000000000000000000000083601403600802612c91565b831692505b5050919050565b61315e816125b9565b82525050565b6000613170838561273b565b935061317d838584612387565b6131868361219b565b840190509392505050565b60006080820190506131a660008301886129de565b6131b36020830187613155565b6131c06040830186612b73565b81810360608301526131d3818486613164565b90509695505050505050565b60006131f26131ed84612356565b61220c565b90508281526020810184848401111561320e5761320d612351565b5b61321984828561274c565b509392505050565b600082601f83011261323657613235612196565b5b81516132468482602086016131df565b91505092915050565b600060208284031215613265576132646120d1565b5b600082015167ffffffffffffffff811115613283576132826120d6565b5b61328f84828501613221565b91505092915050565b600081905092915050565b60006132ae82612730565b6132b88185613298565b93506132c881856020860161274c565b80840191505092915050565b60006132e082846132a3565b915081905092915050565b60006040820190506133006000830186613155565b8181036020830152613313818486613164565b9050949350505050565b7f4e487b7100000000000000000000000000000000000000000000000000000000600052602260045260246000fd5b6000600282049050600182168061336457607f821691505b6020821081036133775761337661331d565b5b50919050565b60008190508160005260206000209050919050565b60006020601f8301049050919050565b6000600883026133d27fffffffffffffffffffffffffffffffffffffffffffffffffffffffffffffffff82612c91565b6133dc8683612c91565b95508019841693508086168417925050509392505050565b6000819050919050565b600061341961341461340f846125b9565b6133f4565b6125b9565b9050919050565b6000819050919050565b613433836133fe565b61344761343f82613420565b8484546133a2565b825550505050565b600090565b61345c61344f565b61346781848461342a565b505050565b5b8181101561348b57613480600082613454565b60018101905061346d565b5050565b601f8211156134d0576134a18161337d565b6134aa84613392565b810160208510156134b9578190505b6134cd6134c585613392565b83018261346c565b50505b505050565b600082821c905092915050565b60006134f3600019846008026134d5565b1980831691505092915050565b600061350c83836134e2565b9150826002028217905092915050565b61352582612730565b67ffffffffffffffff81111561353e5761353d6121ac565b5b613548825461334c565b61355382828561348f565b600060209050601f8311600181146135865760008415613574578287015190505b61357e8582613500565b8655506135e6565b601f1984166135948661337d565b60005b828110156135bc57848901518255600182019150602085019450602081019050613597565b868310156135d957848901516135d5601f8916826134e2565b8355505b6001600288020188555050505b505050505050565b6135f781612160565b811461360257600080fd5b50565b600081519050613614816135ee565b92915050565b6000602082840312156136305761362f6120d1565b5b600061363e84828501613605565b91505092915050565b7f6e6f20636f6e74726163742062797465636f64652070726f7669646564000000600082015250565b600061367d601d83612a35565b915061368882613647565b602082019050919050565b600060208201905081810360008301526136ac81613670565b9050919050565b7f436f756c64206e6f74206465706c6f7920636f6e747261637400000000000000600082015250565b60006136e9601983612a35565b91506136f4826136b3565b602082019050919050565b60006020820190508181036000830152613718816136dc565b9050919050565b600061372a826125b9565b9150613735836125b9565b9250827fffffffffffffffffffffffffffffffffffffffffffffffffffffffffffffffff0382111561376a57613769612f3c565b5b828201905092915050565b7f746f427974657333325f6f75744f66426f756e64730000000000000000000000600082015250565b60006137ab601583612a35565b91506137b682613775565b602082019050919050565b600060208201905081810360008301526137da8161379e565b9050919050565b7f736c6963655f6f766572666c6f77000000000000000000000000000000000000600082015250565b6000613817600e83612a35565b9150613822826137e1565b602082019050919050565b600060208201905081810360008301526138468161380a565b9050919050565b7f736c6963655f6f75744f66426f756e6473000000000000000000000000000000600082015250565b6000613883601183612a35565b915061388e8261384d565b602082019050919050565b600060208201905081810360008301526138b281613876565b9050919050565b7f437265617465323a20696e73756666696369656e742062616c616e6365000000600082015250565b60006138ef601d83612a35565b91506138fa826138b9565b602082019050919050565b6000602082019050818103600083015261391e816138e2565b9050919050565b7f437265617465323a2062797465636f6465206c656e677468206973207a65726f600082015250565b600061395b602083612a35565b915061396682613925565b602082019050919050565b6000602082019050818103600083015261398a8161394e565b9050919050565b7f437265617465323a204661696c6564206f6e206465706c6f7900000000000000600082015250565b60006139c7601983612a35565b91506139d282613991565b602082019050919050565b600060208201905081810360008301526139f6816139ba565b9050919050565b7f4e487b7100000000000000000000000000000000000000000000000000000000600052602160045260246000fd5b7f45434453413a20696e76616c6964207369676e61747572650000000000000000600082015250565b6000613a62601883612a35565b9150613a6d82613a2c565b602082019050919050565b60006020820190508181036000830152613a9181613a55565b9050919050565b7f45434453413a20696e76616c6964207369676e6174757265206c656e67746800600082015250565b6000613ace601f83612a35565b9150613ad982613a98565b602082019050919050565b60006020820190508181036000830152613afd81613ac1565b9050919050565b7f45434453413a20696e76616c6964207369676e6174757265202773272076616c60008201527f7565000000000000000000000000000000000000000000000000000000000000602082015250565b6000613b60602283612a35565b9150613b6b82613b04565b604082019050919050565b60006020820190508181036000830152613b8f81613b53565b9050919050565b7f45434453413a20696e76616c6964207369676e6174757265202776272076616c60008201527f7565000000000000000000000000000000000000000000000000000000000000602082015250565b6000613bf2602283612a35565b9150613bfd82613b96565b604082019050919050565b60006020820190508181036000830152613c2181613be5565b9050919050565b600060ff82169050919050565b613c3e81613c28565b82525050565b6000608082019050613c596000830187612b73565b613c666020830186613c35565b613c736040830185612b73565b613c806060830184612b73565b9594505050505056fea2646970667358221220d915471e367d23acd167f6ce8f6067728964d78e88531dd15669e0546f3c582864736f6c634300080f0033608060405234801561001057600080fd5b50610280806100206000396000f3fe608060405234801561001057600080fd5b506004361061002b5760003560e01c80634bb5ec3214610030575b600080fd5b61004a6004803603810190610045919061012b565b610060565b604051610057919061022f565b60405180910390f35b6100686100ce565b6040518060400160405280600060801b6fffffffffffffffffffffffffffffffff19166fffffffffffffffffffffffffffffffff19168152602001600060801b6fffffffffffffffffffffffffffffffff19168152509050818152816010820152919050565b6040518060400160405280600290602082028036833780820191505090505090565b600080fd5b6000819050919050565b610108816100f5565b811461011357600080fd5b50565b600081359050610125816100ff565b92915050565b600060208284031215610141576101406100f0565b5b600061014f84828501610116565b91505092915050565b600060029050919050565b600081905092915050565b6000819050919050565b60007fffffffffffffffffffffffffffffffff0000000000000000000000000000000082169050919050565b6101ad81610178565b82525050565b60006101bf83836101a4565b60208301905092915050565b6000602082019050919050565b6101e181610158565b6101eb8184610163565b92506101f68261016e565b8060005b8381101561022757815161020e87826101b3565b9650610219836101cb565b9250506001810190506101fa565b505050505050565b600060408201905061024460008301846101d8565b9291505056fea264697066735822122020ce904b1aaa13cfb4d7247923a61df99d971fffd63e29279168894772e4330164736f6c634300080f0033",
  "immutableReferences": {},
  "source": "// SPDX-License-Identifier: CC0-1.0\n\npragma solidity ^0.8.0;\n\nimport \"@lukso/lsp-smart-contracts/contracts/LSP0ERC725Account/LSP0ERC725Account.sol\";\nimport \"./DaoAccountMetadata.sol\";\nimport \"./DaoPermissions.sol\";\nimport \"./DaoProposals.sol\";\nimport \"./DaoVotingStrategies.sol\";\nimport \"./DaoDelegates.sol\";\nimport \"./DaoUtils.sol\";\n\n/**\n *\n* @notice This smart contract is responsible for connecting all the necessary tools for\n* a DAO based on Universal Profiles (LSP0ERC725Account)\n *\n * @author B00ste\n * @title DaoAccount\n * @custom:version 0.91\n */\ncontract DaoAccount is DaoAccountMetadata, DaoPermissions, DaoProposals, DaoVotingStrategies, DaoDelegates {\n   \n  /**\n    * @dev See {IERC165-supportsInterface}.\n    */\n  function supportsInterface(bytes4 interfaceId)\n    public\n    pure\n    returns (bool)\n  {\n    return interfaceId == bytes4(keccak256(\"UniversalProfileDaoAccount\"));\n}\n\n  /**\n   * @notice Unique instance of the DAO Universal Profile.\n   */\n  LSP0ERC725Account private DAO = new LSP0ERC725Account(address(this));\n\n  /**\n   * @notice Instance for the utils of a Universal Profile DAO.\n   */\n  DaoUtils private utils = new DaoUtils();\n\n  /**\n   * @notice Initialization of the Universal Profile Account as a DAO Account;\n   * This smart contract will be given all controller permissions.\n   * Here is where all the tools needed for a functioning DAO are initialized.\n   *\n   * @param name Name of the DAO.\n   * @param description Description of the DAO.\n   * @param quorum The percentage of pro votes from the sum of pro and against votes needed for a proposal to pass.\n   * @param participationRate The percentage of pro and against votes compared to abstain votes needed for a proposal to pass.\n   * @param votingDelay Time required to pass before a proposal goes to the voting phase.\n   * @param votingPeriod Time allowed for voting on a proposal.\n   */\n  constructor(\n    string memory name,\n    string memory description,\n    uint8 quorum,\n    uint8 participationRate,\n    uint256 votingDelay,\n    uint256 votingPeriod\n  )\n    DaoAccountMetadata(DAO)\n    DaoPermissions(DAO, utils)\n    DaoProposals(DAO, utils, address(this))\n    DaoVotingStrategies(DAO, address(this))\n    DaoDelegates(DAO, utils)\n  {\n    require(quorum >= 0 && quorum <= 100);\n    require(participationRate >= 0 && participationRate <= 100);\n\n    _setDaoName(name);\n    _setDaoDescription(description);\n    _setDaoQuorum(quorum);\n    _setDaoParticipationRate(participationRate);\n    _setDaoVotingDelay(votingDelay);\n    _setDaoVotingPeriod(votingPeriod);\n  }\n\n  // --- GENERAL METHODS\n  \n  /**\n   * @notice Add permission to an address by index.\n   * Index 0 sets the VOTE permission.\n   * Index 1 sets the PROPOSE permission.\n   * Index 2 sets the SEND_DELEGATE permission.\n   * Index 3 sets the RECIEVE_DELEGATE permission.\n   * Index 4 sets the MASTER permission.\n   *\n   * @param universalProfileAddress The address of a Universal Profile.\n   * @param index A number 0 <= `index` <= 4.\n   */\n  function addPermission(\n    address universalProfileAddress,\n    uint8 index\n  ) \n    public\n    permissionSet(msg.sender, _getPermissionsByIndex(4)) /** @dev User has MASTER permission */\n    permissionUnset(universalProfileAddress, _getPermissionsByIndex(index))\n  {\n    if (!checkUser(universalProfileAddress)) {\n      uint256 addressesArrayLength = _getDaoAddressesArrayLength();\n      _setDaoAddressByIndex(addressesArrayLength, universalProfileAddress);\n      _setDaoAddressesArrayLength(addressesArrayLength + 1);\n    }\n    \n    _setAddressDaoPermission(universalProfileAddress, index, true);\n  }\n\n  /**\n   * @notice Remove the permission of an Unversal Profile by index.\n   * Index 0 unsets the VOTE permission.\n   * Index 1 unsets the PROPOSE permission.\n   * Index 2 unsets the SEND_DELEGATE permission.\n   * Index 3 unsets the RECIEVE_DELEGATE permission.\n   * Index 4 unsets the MASTER permission.\n   *\n   * @param universalProfileAddress The address of a Universal Profile.\n   * @param index A number 0 <= `index` <= 4.\n   */\n\n  function removePermission(\n    address universalProfileAddress,\n    uint8 index\n  ) \n    external\n    permissionSet(universalProfileAddress, _getPermissionsByIndex(4)) /** @dev User has MASTER permission */\n    permissionSet(universalProfileAddress, _getPermissionsByIndex(index))\n  {\n    _setAddressDaoPermission(universalProfileAddress, index, false);\n  }\n\n  /**\n   * @notice Delegate your vote to another participant of the DAO\n   */\n  function delegate(address delegatee)\n    external\n    permissionSet(msg.sender, _getPermissionsByIndex(2))\n    permissionSet(delegatee, _getPermissionsByIndex(3))\n  {\n    _setDelegateeOfTheDelegator(msg.sender, delegatee);\n    _setDelegatorByIndex(\n      msg.sender,\n      delegatee,\n      _getDelegatorsArrayLength(delegatee)\n    );\n    _setDelegatorsArrayLength(\n      _getDelegatorsArrayLength(delegatee),\n      delegatee\n    );\n  }\n\n  /**\n   * @notice Create a proposal.\n   * The proposal signature is encoded to a bytes10 variable.\n   * Which is later used compined with an attribute key for getting the attribute value.\n   *\n   * @param title Title of the proposal.\n   * @param description Description of the proposal.\n   * @param targets The addresses of the smart contracts that might have calldata executed.\n   * @param datas The calldata that will be executed if the proposall passes.\n   */\n  function createProposal(\n    string memory title,\n    string memory description,\n    address[] memory targets,\n    bytes[] memory datas\n  )\n    external\n    permissionSet(msg.sender, _getPermissionsByIndex(1))\n    returns(bytes10 proposalSignature)\n  {\n    require(targets.length == datas.length, \"Provided targets and datas have different lengths.\");\n\n    proposalSignature = _getProposalSignature(block.timestamp, title);\n    _setAttributeValue(proposalSignature, proposalAttributeKeys[0], bytes(title));\n    _setAttributeValue(proposalSignature, proposalAttributeKeys[1], bytes(description));\n    _setAttributeValue(proposalSignature, proposalAttributeKeys[2], bytes.concat(bytes32(block.timestamp)));\n    _setTargetsAndDatas(proposalSignature, targets, datas);\n  }\n\n  /**\n   * @notice Move the proposal to the voting phase. Save the current timestamp.\n   *\n   * @param proposalSignature The bytes10 signature of a proposal.\n   */\n  function putProposalToVote(\n    bytes10 proposalSignature\n  ) \n    external\n    votingDelayPassed(proposalSignature)\n    isParticipantOfDao(msg.sender)\n  {\n    _setAttributeValue(proposalSignature, proposalAttributeKeys[3], bytes.concat(bytes32(block.timestamp)));\n  }\n\n  /**\n   * @notice End proposal and execute the calldata.\n   * Encode the proposal info, timestamps and results and save them to the Universal Profile of the DAO.\n   *\n   * @param proposalSignature The abi.encode bytes32 signature of a proposal.\n   */\n  function endProposal(\n    bytes10 proposalSignature\n  ) \n    external\n    votingPeriodPassed(proposalSignature)\n    isParticipantOfDao(msg.sender)\n  {\n    _setAttributeValue(proposalSignature, proposalAttributeKeys[4], bytes.concat(bytes32(block.timestamp)));\n  \n    (address[] memory targets, bytes[] memory datas) = _getTargetsAndDatas(proposalSignature);\n    if(_strategyOneResult(proposalSignature)) {\n      for (uint i = 0; i < targets.length; i++) {\n        DAO.execute(\n          0,\n          targets[i],\n          0,\n          datas[i]\n        );\n      }\n    }\n  }\n\n  /**\n   * @notice Vote on a proposal.\n   *\n   * @param proposalSignature The abi.encode bytes32 signature of a proposal.\n   * @param voteIndex a number 0 <= `voteIndex` <= 1.\n   * Index 0 are the against votes. \n   * Index 1 are the pro votes. \n   */\n  function vote(\n    bytes10 proposalSignature,\n    uint8 voteIndex\n  )\n    external\n    permissionSet(msg.sender, _getPermissionsByIndex(0))\n    didNotDelegate(msg.sender)\n    didNotVote(msg.sender, proposalSignature)\n    votingPeriodIsOn(proposalSignature)\n  {\n    if(uint256(bytes32(_getAddressDaoPermission(msg.sender))) & (1 << 3) !=0) {\n      _setAttributeValue(\n        proposalSignature,\n        proposalAttributeKeys[7 + voteIndex],\n        bytes.concat(bytes32(\n          uint256(bytes32(_getAttributeValue(proposalSignature, proposalAttributeKeys[7 + voteIndex]))) + _getDelegatorsArrayLength(msg.sender)\n        ))\n      );\n    }\n    else {\n      _setAttributeValue(\n        proposalSignature,\n        proposalAttributeKeys[7 + voteIndex],\n        bytes.concat(bytes32(\n          uint256(bytes32(_getAttributeValue(proposalSignature, proposalAttributeKeys[7 + voteIndex]))) + 1\n        ))\n      );\n    }\n  }\n\n}",
  "sourcePath": "/home/b00ste/Projects/universal-profile-governance/contracts/UPDao/DaoAccount.sol",
  "compiler": {
    "name": "solc",
    "version": "0.8.15+commit.e14f2714.Emscripten.clang"
  },
  "schemaVersion": "3.4.8",
  "updatedAt": "2022-07-21T14:56:52.297Z",
  "devdoc": {
    "author": "B00ste",
    "custom:version": "0.91",
    "kind": "dev",
    "methods": {
      "_getAddressDaoPermission(address)": {
        "params": {
          "daoAddress": "The address of a DAO participant."
        }
      },
      "_getDaoAddressByIndex(uint256)": {
        "params": {
          "index": "The index of the an address."
        }
      },
      "_getDelegateeOfTheDelegator(address)": {
        "params": {
          "delegator": "Address of the delegator.."
        }
      },
      "_getDelegatorByIndex(address,uint256)": {
        "params": {
          "delegatee": "Address of the delegatee.",
          "index": "A number of the array."
        }
      },
      "_getDelegatorsArrayLength(address)": {
        "params": {
          "delegatee": "Address of the delegatee."
        }
      },
      "addPermission(address,uint8)": {
        "params": {
          "index": "A number 0 <= `index` <= 4.",
          "universalProfileAddress": "The address of a Universal Profile."
        }
      },
      "constructor": {
        "params": {
          "description": "Description of the DAO.",
          "name": "Name of the DAO.",
          "participationRate": "The percentage of pro and against votes compared to abstain votes needed for a proposal to pass.",
          "quorum": "The percentage of pro votes from the sum of pro and against votes needed for a proposal to pass.",
          "votingDelay": "Time required to pass before a proposal goes to the voting phase.",
          "votingPeriod": "Time allowed for voting on a proposal."
        }
      },
      "createProposal(string,string,address[],bytes[])": {
        "params": {
          "datas": "The calldata that will be executed if the proposall passes.",
          "description": "Description of the proposal.",
          "targets": "The addresses of the smart contracts that might have calldata executed.",
          "title": "Title of the proposal."
        }
      },
      "endProposal(bytes10)": {
        "params": {
          "proposalSignature": "The abi.encode bytes32 signature of a proposal."
        }
      },
      "putProposalToVote(bytes10)": {
        "params": {
          "proposalSignature": "The bytes10 signature of a proposal."
        }
      },
      "removePermission(address,uint8)": {
        "params": {
          "index": "A number 0 <= `index` <= 4.",
          "universalProfileAddress": "The address of a Universal Profile."
        }
      },
      "supportsInterface(bytes4)": {
        "details": "See {IERC165-supportsInterface}."
      },
      "vote(bytes10,uint8)": {
        "params": {
          "proposalSignature": "The abi.encode bytes32 signature of a proposal.",
          "voteIndex": "a number 0 <= `voteIndex` <= 1. Index 0 are the against votes.  Index 1 are the pro votes. "
        }
      }
    },
    "title": "DaoAccount",
    "version": 1
  },
  "userdoc": {
    "kind": "user",
    "methods": {
      "_getAddressDaoPermission(address)": {
        "notice": "Get addresses DAO permmissions BitArray."
      },
      "_getAttributeValue(bytes10,bytes20)": {
        "notice": "Get attribute value."
      },
      "_getDaoAddressByIndex(uint256)": {
        "notice": "Get an address of a DAO perticipant by index."
      },
      "_getDaoAddressesArrayLength()": {
        "notice": "Get the length of the array of the addresses that are participants of the DAO."
      },
      "_getDaoDescription()": {
        "notice": "Get the description of the DAO."
      },
      "_getDaoName()": {
        "notice": "Get the name of the DAO."
      },
      "_getDaoParticipationRate()": {
        "notice": "Get the participation rate of the DAO."
      },
      "_getDaoQuorum()": {
        "notice": "Get the quorum of the DAO."
      },
      "_getDaoVotingDelay()": {
        "notice": "Get the voting delay of the DAO."
      },
      "_getDaoVotingPeriod()": {
        "notice": "Get the voting period of the DAO."
      },
      "_getDelegateeOfTheDelegator(address)": {
        "notice": "Get the delgatee of the delegator."
      },
      "_getDelegatorByIndex(address,uint256)": {
        "notice": "Get the delegator of the delagtee by index."
      },
      "_getDelegatorsArrayLength(address)": {
        "notice": "Get the length of the array of addresses that delegated the votes to a delegatee."
      },
      "_getPermissionsByIndex(uint8)": {
        "notice": "Get the the bytes32 permission from the permissions array."
      },
      "_getProposalSignature(uint256,string)": {
        "notice": "Get proposal signature."
      },
      "_getProposalSignatureByIndex(uint256)": {
        "notice": "Get Proposal Signature by index."
      },
      "_getProposalsArrayLength()": {
        "notice": "Get the proposals array lenngth."
      },
      "_getTargetsAndDatas(bytes10)": {
        "notice": "Get the targets and datas for execution of a proposal."
      },
      "_getVotedStatus(address,bytes10)": {
        "notice": "Get voted status of a Universal Profile for a proposal."
      },
      "addPermission(address,uint8)": {
        "notice": "Add permission to an address by index. Index 0 sets the VOTE permission. Index 1 sets the PROPOSE permission. Index 2 sets the SEND_DELEGATE permission. Index 3 sets the RECIEVE_DELEGATE permission. Index 4 sets the MASTER permission."
      },
      "constructor": {
        "notice": "Initialization of the Universal Profile Account as a DAO Account; This smart contract will be given all controller permissions. Here is where all the tools needed for a functioning DAO are initialized."
      },
      "createProposal(string,string,address[],bytes[])": {
        "notice": "Create a proposal. The proposal signature is encoded to a bytes10 variable. Which is later used compined with an attribute key for getting the attribute value."
      },
      "delegate(address)": {
        "notice": "Delegate your vote to another participant of the DAO"
      },
      "endProposal(bytes10)": {
        "notice": "End proposal and execute the calldata. Encode the proposal info, timestamps and results and save them to the Universal Profile of the DAO."
      },
      "putProposalToVote(bytes10)": {
        "notice": "Move the proposal to the voting phase. Save the current timestamp."
      },
      "removePermission(address,uint8)": {
        "notice": "Remove the permission of an Unversal Profile by index. Index 0 unsets the VOTE permission. Index 1 unsets the PROPOSE permission. Index 2 unsets the SEND_DELEGATE permission. Index 3 unsets the RECIEVE_DELEGATE permission. Index 4 unsets the MASTER permission."
      },
      "vote(bytes10,uint8)": {
        "notice": "Vote on a proposal."
      }
    },
    "notice": "This smart contract is responsible for connecting all the necessary tools for a DAO based on Universal Profiles (LSP0ERC725Account)",
    "version": 1
  }
}