{
  "contractName": "DaoAccountMetadata",
  "abi": [
    {
      "inputs": [
        {
          "internalType": "contract LSP0ERC725Account",
          "name": "_DAO",
          "type": "address"
        }
      ],
      "stateMutability": "nonpayable",
      "type": "constructor"
    },
    {
      "inputs": [],
      "name": "_getDaoName",
      "outputs": [
        {
          "internalType": "string",
          "name": "name",
          "type": "string"
        }
      ],
      "stateMutability": "view",
      "type": "function"
    },
    {
      "inputs": [],
      "name": "_getDaoDescription",
      "outputs": [
        {
          "internalType": "string",
          "name": "description",
          "type": "string"
        }
      ],
      "stateMutability": "view",
      "type": "function"
    },
    {
      "inputs": [],
      "name": "_getDaoQuorum",
      "outputs": [
        {
          "internalType": "uint8",
          "name": "quorum",
          "type": "uint8"
        }
      ],
      "stateMutability": "view",
      "type": "function"
    },
    {
      "inputs": [],
      "name": "_getDaoParticipationRate",
      "outputs": [
        {
          "internalType": "uint8",
          "name": "participationRate",
          "type": "uint8"
        }
      ],
      "stateMutability": "view",
      "type": "function"
    },
    {
      "inputs": [],
      "name": "_getDaoVotingDelay",
      "outputs": [
        {
          "internalType": "uint256",
          "name": "votingDelay",
          "type": "uint256"
        }
      ],
      "stateMutability": "view",
      "type": "function"
    },
    {
      "inputs": [],
      "name": "_getDaoVotingPeriod",
      "outputs": [
        {
          "internalType": "uint256",
          "name": "votingPeriod",
          "type": "uint256"
        }
      ],
      "stateMutability": "view",
      "type": "function"
    }
  ],
  "bytecode": "0x60806040527f55e49609591f684ecf6f2909c9e20c2439b990887b9c3fe108b154c9077d85cf60001b6001557f95e794640ff3efd16bfe738f1a9bf2886d166af549121f57d6e14af6b513f45d60001b6002557f1c990d1606629a2681dbc22754450a119d5896cd739732a966bd0a2e0864735960001b6003557ff89f507ecd9cb7646ce1514ec6ab90d695dac9314c3771f451fd90148a3335a960001b6004557f5bd05fa174be6a4aa4a8222f8837a27a381de14e7797cf7945df58b0626e6c3d60001b6005557fd08ca3a83d59467dd8ba57e940549874ea8310a1ebfb4396959235b00035d77760001b6006553480156100fa57600080fd5b50604051610bb1380380610bb1833981810160405281019061011c91906101d7565b806000806101000a81548173ffffffffffffffffffffffffffffffffffffffff021916908373ffffffffffffffffffffffffffffffffffffffff16021790555050610204565b600080fd5b600073ffffffffffffffffffffffffffffffffffffffff82169050919050565b600061019282610167565b9050919050565b60006101a482610187565b9050919050565b6101b481610199565b81146101bf57600080fd5b50565b6000815190506101d1816101ab565b92915050565b6000602082840312156101ed576101ec610162565b5b60006101fb848285016101c2565b91505092915050565b61099e806102136000396000f3fe608060405234801561001057600080fd5b50600436106100625760003560e01c8063444f81d4146100675780636291ebfa146100855780636df584df146100a3578063754b1528146100c1578063ef64d317146100df578063f0deb28d146100fd575b600080fd5b61006f61011b565b60405161007c91906105d8565b60405180910390f35b61008d6101c3565b60405161009a91906105d8565b60405180910390f35b6100ab61026b565b6040516100b89190610616565b60405180910390f35b6100c9610320565b6040516100d69190610616565b60405180910390f35b6100e76103d5565b6040516100f4919061064a565b60405180910390f35b61010561048a565b604051610112919061064a565b60405180910390f35b606060008054906101000a900473ffffffffffffffffffffffffffffffffffffffff1673ffffffffffffffffffffffffffffffffffffffff166354f6127f6002546040518263ffffffff1660e01b8152600401610178919061067e565b600060405180830381865afa158015610195573d6000803e3d6000fd5b505050506040513d6000823e3d601f19601f820116820180604052508101906101be91906107d3565b905090565b606060008054906101000a900473ffffffffffffffffffffffffffffffffffffffff1673ffffffffffffffffffffffffffffffffffffffff166354f6127f6001546040518263ffffffff1660e01b8152600401610220919061067e565b600060405180830381865afa15801561023d573d6000803e3d6000fd5b505050506040513d6000823e3d601f19601f8201168201806040525081019061026691906107d3565b905090565b60008060009054906101000a900473ffffffffffffffffffffffffffffffffffffffff1673ffffffffffffffffffffffffffffffffffffffff166354f6127f6003546040518263ffffffff1660e01b81526004016102c9919061067e565b600060405180830381865afa1580156102e6573d6000803e3d6000fd5b505050506040513d6000823e3d601f19601f8201168201806040525081019061030f91906107d3565b61031890610885565b60f81c905090565b60008060009054906101000a900473ffffffffffffffffffffffffffffffffffffffff1673ffffffffffffffffffffffffffffffffffffffff166354f6127f6004546040518263ffffffff1660e01b815260040161037e919061067e565b600060405180830381865afa15801561039b573d6000803e3d6000fd5b505050506040513d6000823e3d601f19601f820116820180604052508101906103c491906107d3565b6103cd90610885565b60f81c905090565b60008060009054906101000a900473ffffffffffffffffffffffffffffffffffffffff1673ffffffffffffffffffffffffffffffffffffffff166354f6127f6006546040518263ffffffff1660e01b8152600401610433919061067e565b600060405180830381865afa158015610450573d6000803e3d6000fd5b505050506040513d6000823e3d601f19601f8201168201806040525081019061047991906107d3565b61048290610901565b60001c905090565b60008060009054906101000a900473ffffffffffffffffffffffffffffffffffffffff1673ffffffffffffffffffffffffffffffffffffffff166354f6127f6005546040518263ffffffff1660e01b81526004016104e8919061067e565b600060405180830381865afa158015610505573d6000803e3d6000fd5b505050506040513d6000823e3d601f19601f8201168201806040525081019061052e91906107d3565b61053790610901565b60001c905090565b600081519050919050565b600082825260208201905092915050565b60005b8381101561057957808201518184015260208101905061055e565b83811115610588576000848401525b50505050565b6000601f19601f8301169050919050565b60006105aa8261053f565b6105b4818561054a565b93506105c481856020860161055b565b6105cd8161058e565b840191505092915050565b600060208201905081810360008301526105f2818461059f565b905092915050565b600060ff82169050919050565b610610816105fa565b82525050565b600060208201905061062b6000830184610607565b92915050565b6000819050919050565b61064481610631565b82525050565b600060208201905061065f600083018461063b565b92915050565b6000819050919050565b61067881610665565b82525050565b6000602082019050610693600083018461066f565b92915050565b6000604051905090565b600080fd5b600080fd5b600080fd5b600080fd5b7f4e487b7100000000000000000000000000000000000000000000000000000000600052604160045260246000fd5b6106ef8261058e565b810181811067ffffffffffffffff8211171561070e5761070d6106b7565b5b80604052505050565b6000610721610699565b905061072d82826106e6565b919050565b600067ffffffffffffffff82111561074d5761074c6106b7565b5b6107568261058e565b9050602081019050919050565b600061077661077184610732565b610717565b905082815260208101848484011115610792576107916106b2565b5b61079d84828561055b565b509392505050565b600082601f8301126107ba576107b96106ad565b5b81516107ca848260208601610763565b91505092915050565b6000602082840312156107e9576107e86106a3565b5b600082015167ffffffffffffffff811115610807576108066106a8565b5b610813848285016107a5565b91505092915050565b600081519050919050565b6000819050602082019050919050565b60007fff0000000000000000000000000000000000000000000000000000000000000082169050919050565b600061086f8251610837565b80915050919050565b600082821b905092915050565b60006108908261081c565b8261089a84610827565b90506108a581610863565b925060018210156108e5576108e07fff0000000000000000000000000000000000000000000000000000000000000083600103600802610878565b831692505b5050919050565b60006108f88251610665565b80915050919050565b600061090c8261081c565b8261091684610827565b9050610921816108ec565b925060208210156109615761095c7fffffffffffffffffffffffffffffffffffffffffffffffffffffffffffffffff83602003600802610878565b831692505b505091905056fea2646970667358221220d1ccfcac1d72af02e9acfa3faca3906318924e84c3860cbb0a8eccfb58cfbf3c64736f6c634300080f0033",
  "immutableReferences": {},
  "source": "// SPDX-License-Identifier: CC0-1.0\n\npragma solidity ^0.8.0;\n\nimport \"@lukso/lsp-smart-contracts/contracts/LSP0ERC725Account/LSP0ERC725Account.sol\";\n\n/**\n *\n* @notice This smart contract is responsible for the metadata of a Universal Profile DAO. \n *\n * @author B00ste\n * @title DaoAccountMetadata\n * @custom:version 0.91\n */\ncontract DaoAccountMetadata {\n\n  /**\n   * @notice Instance of the DAO key manager.\n   */\n  LSP0ERC725Account private DAO;\n\n  constructor(LSP0ERC725Account _DAO) {\n    DAO = _DAO;\n  }\n\n  // --- ATTRIBUTES\n\n  /**\n   * @notice Key for the name of the DAO.\n   */\n  bytes32 nameKey = 0x55e49609591f684ecf6f2909c9e20c2439b990887b9c3fe108b154c9077d85cf;\n\n  /**\n   * @notice Key for the description of the DAO.\n   */\n  bytes32 descriptionKey = 0x95e794640ff3efd16bfe738f1a9bf2886d166af549121f57d6e14af6b513f45d;\n\n  /**\n   * @notice key for the percentage of pro votes needed for a proposal to pass.\n   */\n  bytes32 quorumKey = 0x1c990d1606629a2681dbc22754450a119d5896cd739732a966bd0a2e08647359;\n\n  /**\n   * @notice key for participation rate needed to be reached for a proposal to be valid.\n   */\n  bytes32 participationRateKey = 0xf89f507ecd9cb7646ce1514ec6ab90d695dac9314c3771f451fd90148a3335a9;\n\n  /**\n   * @notice key for the time requiered to pass before ending the queueing period is possible.\n   */\n  bytes32 votingDelayKey = 0x5bd05fa174be6a4aa4a8222f8837a27a381de14e7797cf7945df58b0626e6c3d;\n\n  /**\n   * @notice key for the time requiered to pass before ending the voting period is possible.\n   */\n  bytes32 votingPeriodKey = 0xd08ca3a83d59467dd8ba57e940549874ea8310a1ebfb4396959235b00035d777;\n\n  // --- GETTERS & SETTERS\n\n  /**\n   * @notice Get the name of the DAO.\n   */\n  function _getDaoName() public view returns(string memory name) {\n    name = string(DAO.getData(nameKey));\n  }\n\n  /**\n   * @notice Set the name of the DAO.\n   */\n  function _setDaoName(string memory name) internal {\n    DAO.setData(nameKey, bytes(name));\n  }\n\n  /**\n   * @notice Get the description of the DAO.\n   */\n  function _getDaoDescription() public view returns(string memory description) {\n    description = string(DAO.getData(descriptionKey));\n  }\n\n  /**\n   * @notice Set the description of the DAO.\n   */\n  function _setDaoDescription(string memory description) internal {\n    DAO.setData(descriptionKey, bytes(description));\n  }\n\n  /**\n   * @notice Get the quorum of the DAO.\n   */\n  function _getDaoQuorum() public view returns(uint8 quorum) {\n    quorum = uint8(bytes1(DAO.getData(quorumKey)));\n  }\n\n  /**\n   * @notice Set the quorum of the DAO.\n   */\n  function _setDaoQuorum(uint8 quorum) internal {\n    DAO.setData(quorumKey, bytes.concat(bytes1(quorum)));\n  }\n\n  /**\n   * @notice Get the participation rate of the DAO.\n   */\n  function _getDaoParticipationRate() public view returns(uint8 participationRate) {\n    participationRate = uint8(bytes1(DAO.getData(participationRateKey)));\n  }\n\n  /**\n   * @notice Set the participation rate of the DAO.\n   */\n  function _setDaoParticipationRate(uint8 participationRate) internal {\n    DAO.setData(participationRateKey, bytes.concat(bytes1(participationRate)));\n  }\n\n  /**\n   * @notice Get the voting delay of the DAO.\n   */\n  function _getDaoVotingDelay() public view returns(uint256 votingDelay) {\n    votingDelay = uint256(bytes32(DAO.getData(votingDelayKey)));\n  }\n\n  /**\n   * @notice Set the voting delay of the DAO.\n   */\n  function _setDaoVotingDelay(uint256 votingDelay) internal {\n    DAO.setData(votingDelayKey, bytes.concat(bytes32(votingDelay)));\n  }\n\n  /**\n   * @notice Get the voting period of the DAO.\n   */\n  function _getDaoVotingPeriod() public view returns(uint256 votingPeriod) {\n    votingPeriod = uint256(bytes32(DAO.getData(votingPeriodKey)));\n  }\n\n  /**\n   * @notice Set the voting period of the DAO.\n   */\n  function _setDaoVotingPeriod(uint256 votingPeriod) internal {\n    DAO.setData(votingPeriodKey, bytes.concat(bytes32(votingPeriod)));\n  }\n\n}",
  "sourcePath": "/home/b00ste/Projects/universal-profile-governance/contracts/UPDao/DaoAccountMetadata.sol",
  "compiler": {
    "name": "solc",
    "version": "0.8.15+commit.e14f2714.Emscripten.clang"
  },
  "schemaVersion": "3.4.8",
  "updatedAt": "2022-07-21T08:10:15.096Z",
  "devdoc": {
    "author": "B00ste",
    "custom:version": "0.91",
    "kind": "dev",
    "methods": {},
    "title": "DaoAccountMetadata",
    "version": 1
  },
  "userdoc": {
    "kind": "user",
    "methods": {
      "_getDaoDescription()": {
        "notice": "Get the description of the DAO."
      },
      "_getDaoName()": {
        "notice": "Get the name of the DAO."
      },
      "_getDaoParticipationRate()": {
        "notice": "Get the participation rate of the DAO."
      },
      "_getDaoQuorum()": {
        "notice": "Get the quorum of the DAO."
      },
      "_getDaoVotingDelay()": {
        "notice": "Get the voting delay of the DAO."
      },
      "_getDaoVotingPeriod()": {
        "notice": "Get the voting period of the DAO."
      }
    },
    "notice": "This smart contract is responsible for the metadata of a Universal Profile DAO. ",
    "version": 1
  }
}