{
  "contractName": "DaoAccount",
  "abi": [
    {
      "inputs": [
        {
          "internalType": "contract LSP0ERC725Account",
          "name": "_UNIVERSAL_PROFILE",
          "type": "address"
        },
        {
          "internalType": "contract LSP6KeyManager",
          "name": "_KEY_MANAGER",
          "type": "address"
        },
        {
          "internalType": "contract DaoAccountMetadata",
          "name": "_DAO_METADATA",
          "type": "address"
        },
        {
          "internalType": "contract DaoPermissions",
          "name": "_DAO_PERMISSIONS",
          "type": "address"
        },
        {
          "internalType": "contract DaoProposals",
          "name": "_DAO_PROPOSALS",
          "type": "address"
        },
        {
          "internalType": "contract DaoDelegates",
          "name": "_DAO_DELEGATES",
          "type": "address"
        },
        {
          "internalType": "contract DaoParticipation",
          "name": "_DAO_PARTICIPATION",
          "type": "address"
        },
        {
          "internalType": "contract DaoVotingStrategies",
          "name": "_DAO_VOTING_STRATEGIES",
          "type": "address"
        }
      ],
      "stateMutability": "nonpayable",
      "type": "constructor"
    },
    {
      "inputs": [
        {
          "internalType": "address",
          "name": "universalProfileAddress",
          "type": "address"
        },
        {
          "internalType": "uint8",
          "name": "index",
          "type": "uint8"
        }
      ],
      "name": "addPermission",
      "outputs": [],
      "stateMutability": "nonpayable",
      "type": "function"
    },
    {
      "inputs": [
        {
          "internalType": "address",
          "name": "universalProfileAddress",
          "type": "address"
        },
        {
          "internalType": "uint8",
          "name": "index",
          "type": "uint8"
        }
      ],
      "name": "removePermission",
      "outputs": [],
      "stateMutability": "nonpayable",
      "type": "function"
    },
    {
      "inputs": [
        {
          "internalType": "address",
          "name": "delegatee",
          "type": "address"
        }
      ],
      "name": "delegate",
      "outputs": [],
      "stateMutability": "nonpayable",
      "type": "function"
    },
    {
      "inputs": [
        {
          "internalType": "string",
          "name": "title",
          "type": "string"
        },
        {
          "internalType": "string",
          "name": "description",
          "type": "string"
        },
        {
          "internalType": "address[]",
          "name": "targets",
          "type": "address[]"
        },
        {
          "internalType": "bytes[]",
          "name": "datas",
          "type": "bytes[]"
        }
      ],
      "name": "createProposal",
      "outputs": [
        {
          "internalType": "bytes10",
          "name": "proposalSignature",
          "type": "bytes10"
        }
      ],
      "stateMutability": "nonpayable",
      "type": "function"
    },
    {
      "inputs": [
        {
          "internalType": "bytes10",
          "name": "proposalSignature",
          "type": "bytes10"
        }
      ],
      "name": "endProposal",
      "outputs": [],
      "stateMutability": "nonpayable",
      "type": "function"
    },
    {
      "inputs": [
        {
          "internalType": "bytes10",
          "name": "proposalSignature",
          "type": "bytes10"
        },
        {
          "internalType": "uint8",
          "name": "voteIndex",
          "type": "uint8"
        }
      ],
      "name": "vote",
      "outputs": [],
      "stateMutability": "nonpayable",
      "type": "function"
    }
  ],
  "bytecode": "0x60806040526040516200001290620007ec565b604051809103906000f0801580156200002f573d6000803e3d6000fd5b50600560006101000a81548173ffffffffffffffffffffffffffffffffffffffff021916908373ffffffffffffffffffffffffffffffffffffffff1602179055503480156200007d57600080fd5b5060405162005b7238038062005b728339818101604052810190620000a3919062000a6f565b8585858585846000806101000a81548173ffffffffffffffffffffffffffffffffffffffff021916908373ffffffffffffffffffffffffffffffffffffffff16021790555083600160006101000a81548173ffffffffffffffffffffffffffffffffffffffff021916908373ffffffffffffffffffffffffffffffffffffffff16021790555082600260006101000a81548173ffffffffffffffffffffffffffffffffffffffff021916908373ffffffffffffffffffffffffffffffffffffffff16021790555081600360006101000a81548173ffffffffffffffffffffffffffffffffffffffff021916908373ffffffffffffffffffffffffffffffffffffffff16021790555080600460006101000a81548173ffffffffffffffffffffffffffffffffffffffff021916908373ffffffffffffffffffffffffffffffffffffffff160217905550505050505087600660006101000a81548173ffffffffffffffffffffffffffffffffffffffff021916908373ffffffffffffffffffffffffffffffffffffffff16021790555085600760006101000a81548173ffffffffffffffffffffffffffffffffffffffff021916908373ffffffffffffffffffffffffffffffffffffffff160217905550600760009054906101000a900473ffffffffffffffffffffffffffffffffffffffff1673ffffffffffffffffffffffffffffffffffffffff166306552ff38989600560009054906101000a900473ffffffffffffffffffffffffffffffffffffffff16306040518563ffffffff1660e01b8152600401620002f8949392919062000c12565b600060405180830381600087803b1580156200031357600080fd5b505af115801562000328573d6000803e3d6000fd5b5050505084600860006101000a81548173ffffffffffffffffffffffffffffffffffffffff021916908373ffffffffffffffffffffffffffffffffffffffff160217905550600860009054906101000a900473ffffffffffffffffffffffffffffffffffffffff1673ffffffffffffffffffffffffffffffffffffffff1663184b955989600560009054906101000a900473ffffffffffffffffffffffffffffffffffffffff16306040518463ffffffff1660e01b8152600401620003f09392919062000c5f565b600060405180830381600087803b1580156200040b57600080fd5b505af115801562000420573d6000803e3d6000fd5b5050505083600960006101000a81548173ffffffffffffffffffffffffffffffffffffffff021916908373ffffffffffffffffffffffffffffffffffffffff160217905550600960009054906101000a900473ffffffffffffffffffffffffffffffffffffffff1673ffffffffffffffffffffffffffffffffffffffff1663184b955989600560009054906101000a900473ffffffffffffffffffffffffffffffffffffffff16306040518463ffffffff1660e01b8152600401620004e89392919062000c5f565b600060405180830381600087803b1580156200050357600080fd5b505af115801562000518573d6000803e3d6000fd5b5050505082600a60006101000a81548173ffffffffffffffffffffffffffffffffffffffff021916908373ffffffffffffffffffffffffffffffffffffffff160217905550600a60009054906101000a900473ffffffffffffffffffffffffffffffffffffffff1673ffffffffffffffffffffffffffffffffffffffff1663184b955989600560009054906101000a900473ffffffffffffffffffffffffffffffffffffffff16306040518463ffffffff1660e01b8152600401620005e09392919062000c5f565b600060405180830381600087803b158015620005fb57600080fd5b505af115801562000610573d6000803e3d6000fd5b5050505081600b60006101000a81548173ffffffffffffffffffffffffffffffffffffffff021916908373ffffffffffffffffffffffffffffffffffffffff160217905550600b60009054906101000a900473ffffffffffffffffffffffffffffffffffffffff1673ffffffffffffffffffffffffffffffffffffffff1663f09a4016600560009054906101000a900473ffffffffffffffffffffffffffffffffffffffff16306040518363ffffffff1660e01b8152600401620006d692919062000c9c565b600060405180830381600087803b158015620006f157600080fd5b505af115801562000706573d6000803e3d6000fd5b5050505080600c60006101000a81548173ffffffffffffffffffffffffffffffffffffffff021916908373ffffffffffffffffffffffffffffffffffffffff160217905550600c60009054906101000a900473ffffffffffffffffffffffffffffffffffffffff1673ffffffffffffffffffffffffffffffffffffffff1663f09a401689306040518363ffffffff1660e01b8152600401620007aa92919062000cc9565b600060405180830381600087803b158015620007c557600080fd5b505af1158015620007da573d6000803e3d6000fd5b50505050505050505050505062000cf6565b6102a080620058d283390190565b600080fd5b600073ffffffffffffffffffffffffffffffffffffffff82169050919050565b60006200082c82620007ff565b9050919050565b600062000840826200081f565b9050919050565b620008528162000833565b81146200085e57600080fd5b50565b600081519050620008728162000847565b92915050565b60006200088582620007ff565b9050919050565b6000620008998262000878565b9050919050565b620008ab816200088c565b8114620008b757600080fd5b50565b600081519050620008cb81620008a0565b92915050565b6000620008de8262000878565b9050919050565b620008f081620008d1565b8114620008fc57600080fd5b50565b6000815190506200091081620008e5565b92915050565b6000620009238262000878565b9050919050565b620009358162000916565b81146200094157600080fd5b50565b60008151905062000955816200092a565b92915050565b6000620009688262000878565b9050919050565b6200097a816200095b565b81146200098657600080fd5b50565b6000815190506200099a816200096f565b92915050565b6000620009ad8262000878565b9050919050565b620009bf81620009a0565b8114620009cb57600080fd5b50565b600081519050620009df81620009b4565b92915050565b6000620009f28262000878565b9050919050565b62000a0481620009e5565b811462000a1057600080fd5b50565b60008151905062000a2481620009f9565b92915050565b600062000a378262000878565b9050919050565b62000a498162000a2a565b811462000a5557600080fd5b50565b60008151905062000a698162000a3e565b92915050565b600080600080600080600080610100898b03121562000a935762000a92620007fa565b5b600062000aa38b828c0162000861565b985050602062000ab68b828c01620008ba565b975050604062000ac98b828c01620008ff565b965050606062000adc8b828c0162000944565b955050608062000aef8b828c0162000989565b94505060a062000b028b828c01620009ce565b93505060c062000b158b828c0162000a13565b92505060e062000b288b828c0162000a58565b9150509295985092959890939650565b6000819050919050565b600062000b6362000b5d62000b5784620007ff565b62000b38565b620007ff565b9050919050565b600062000b778262000b42565b9050919050565b600062000b8b8262000b6a565b9050919050565b62000b9d8162000b7e565b82525050565b600062000bb08262000b42565b9050919050565b600062000bc48262000ba3565b9050919050565b62000bd68162000bb7565b82525050565b600062000be98262000ba3565b9050919050565b62000bfb8162000bdc565b82525050565b62000c0c8162000878565b82525050565b600060808201905062000c29600083018762000b92565b62000c38602083018662000bcb565b62000c47604083018562000bf0565b62000c56606083018462000c01565b95945050505050565b600060608201905062000c76600083018662000b92565b62000c85602083018562000bf0565b62000c94604083018462000c01565b949350505050565b600060408201905062000cb3600083018562000bf0565b62000cc2602083018462000c01565b9392505050565b600060408201905062000ce0600083018562000b92565b62000cef602083018462000c01565b9392505050565b614bcc8062000d066000396000f3fe608060405234801561001057600080fd5b50600436106100625760003560e01c806314fb4d461461006757806346b5a724146100975780634ada739a146100b35780635c19a95c146100cf578063bc0e0925146100eb578063fdcf8b0e14610107575b600080fd5b610081600480360381019061007c9190613635565b610123565b60405161008e9190613747565b60405180910390f35b6100b160048036038101906100ac919061379b565b610bbb565b005b6100cd60048036038101906100c8919061379b565b610f88565b005b6100e960048036038101906100e491906137db565b6113ff565b005b61010560048036038101906101009190613834565b611a1f565b005b610121600480360381019061011c9190613861565b6120c5565b005b600033600860009054906101000a900473ffffffffffffffffffffffffffffffffffffffff1673ffffffffffffffffffffffffffffffffffffffff1663d6d09cfb60016040518263ffffffff1660e01b815260040161018291906138e6565b602060405180830381865afa15801561019f573d6000803e3d6000fd5b505050506040513d601f19601f820116820180604052508101906101c39190613937565b6000600260009054906101000a900473ffffffffffffffffffffffffffffffffffffffff1673ffffffffffffffffffffffffffffffffffffffff16631da0d49f846040518263ffffffff1660e01b81526004016102209190613973565b600060405180830381865afa15801561023d573d6000803e3d6000fd5b505050506040513d6000823e3d601f19601f820116820180604052508101906102669190613a31565b90508160001c8260001c8261027a90613ab7565b60001c16146102be576040517f08c379a00000000000000000000000000000000000000000000000000000000081526004016102b590613ba1565b60405180910390fd5b8451865114610302576040517f08c379a00000000000000000000000000000000000000000000000000000000081526004016102f990613c33565b60405180910390fd5b600960009054906101000a900473ffffffffffffffffffffffffffffffffffffffff1673ffffffffffffffffffffffffffffffffffffffff166346ccaefa428a6040518363ffffffff1660e01b815260040161035f929190613cb0565b602060405180830381865afa15801561037c573d6000803e3d6000fd5b505050506040513d601f19601f820116820180604052508101906103a09190613cf5565b9350600960009054906101000a900473ffffffffffffffffffffffffffffffffffffffff1673ffffffffffffffffffffffffffffffffffffffff166391021ae885600960009054906101000a900473ffffffffffffffffffffffffffffffffffffffff1673ffffffffffffffffffffffffffffffffffffffff166338671fd260006040518263ffffffff1660e01b815260040161043d9190613d5d565b602060405180830381865afa15801561045a573d6000803e3d6000fd5b505050506040513d601f19601f8201168201806040525081019061047e9190613dd0565b8b6040518463ffffffff1660e01b815260040161049d93929190613e56565b600060405180830381600087803b1580156104b757600080fd5b505af11580156104cb573d6000803e3d6000fd5b50505050600960009054906101000a900473ffffffffffffffffffffffffffffffffffffffff1673ffffffffffffffffffffffffffffffffffffffff166391021ae885600960009054906101000a900473ffffffffffffffffffffffffffffffffffffffff1673ffffffffffffffffffffffffffffffffffffffff166338671fd260016040518263ffffffff1660e01b815260040161056a91906138e6565b602060405180830381865afa158015610587573d6000803e3d6000fd5b505050506040513d601f19601f820116820180604052508101906105ab9190613dd0565b8a6040518463ffffffff1660e01b81526004016105ca93929190613e56565b600060405180830381600087803b1580156105e457600080fd5b505af11580156105f8573d6000803e3d6000fd5b50505050600960009054906101000a900473ffffffffffffffffffffffffffffffffffffffff1673ffffffffffffffffffffffffffffffffffffffff166391021ae885600960009054906101000a900473ffffffffffffffffffffffffffffffffffffffff1673ffffffffffffffffffffffffffffffffffffffff166338671fd260026040518263ffffffff1660e01b81526004016106979190613ecf565b602060405180830381865afa1580156106b4573d6000803e3d6000fd5b505050506040513d601f19601f820116820180604052508101906106d89190613dd0565b4260001b6040516020016106ec9190613f0b565b6040516020818303038152906040526040518463ffffffff1660e01b815260040161071993929190613e56565b600060405180830381600087803b15801561073357600080fd5b505af1158015610747573d6000803e3d6000fd5b50505050600960009054906101000a900473ffffffffffffffffffffffffffffffffffffffff1673ffffffffffffffffffffffffffffffffffffffff166391021ae885600960009054906101000a900473ffffffffffffffffffffffffffffffffffffffff1673ffffffffffffffffffffffffffffffffffffffff166338671fd260036040518263ffffffff1660e01b81526004016107e69190613f61565b602060405180830381865afa158015610803573d6000803e3d6000fd5b505050506040513d601f19601f820116820180604052508101906108279190613dd0565b600760009054906101000a900473ffffffffffffffffffffffffffffffffffffffff1673ffffffffffffffffffffffffffffffffffffffff1663f0deb28d6040518163ffffffff1660e01b8152600401602060405180830381865afa158015610894573d6000803e3d6000fd5b505050506040513d601f19601f820116820180604052508101906108b89190613fa8565b426108c39190614004565b60001b6040516020016108d69190613f0b565b6040516020818303038152906040526040518463ffffffff1660e01b815260040161090393929190613e56565b600060405180830381600087803b15801561091d57600080fd5b505af1158015610931573d6000803e3d6000fd5b50505050600960009054906101000a900473ffffffffffffffffffffffffffffffffffffffff1673ffffffffffffffffffffffffffffffffffffffff166391021ae885600960009054906101000a900473ffffffffffffffffffffffffffffffffffffffff1673ffffffffffffffffffffffffffffffffffffffff166338671fd260046040518263ffffffff1660e01b81526004016109d09190614095565b602060405180830381865afa1580156109ed573d6000803e3d6000fd5b505050506040513d601f19601f82011682018060405250810190610a119190613dd0565b600760009054906101000a900473ffffffffffffffffffffffffffffffffffffffff1673ffffffffffffffffffffffffffffffffffffffff1663ef64d3176040518163ffffffff1660e01b8152600401602060405180830381865afa158015610a7e573d6000803e3d6000fd5b505050506040513d601f19601f82011682018060405250810190610aa29190613fa8565b42610aad9190614004565b60001b604051602001610ac09190613f0b565b6040516020818303038152906040526040518463ffffffff1660e01b8152600401610aed93929190613e56565b600060405180830381600087803b158015610b0757600080fd5b505af1158015610b1b573d6000803e3d6000fd5b50505050600960009054906101000a900473ffffffffffffffffffffffffffffffffffffffff1673ffffffffffffffffffffffffffffffffffffffff16633fb7718e8588886040518463ffffffff1660e01b8152600401610b7e9392919061427a565b600060405180830381600087803b158015610b9857600080fd5b505af1158015610bac573d6000803e3d6000fd5b50505050505050949350505050565b81600860009054906101000a900473ffffffffffffffffffffffffffffffffffffffff1673ffffffffffffffffffffffffffffffffffffffff1663d6d09cfb60046040518263ffffffff1660e01b8152600401610c189190614095565b602060405180830381865afa158015610c35573d6000803e3d6000fd5b505050506040513d601f19601f82011682018060405250810190610c599190613937565b6000600260009054906101000a900473ffffffffffffffffffffffffffffffffffffffff1673ffffffffffffffffffffffffffffffffffffffff16631da0d49f846040518263ffffffff1660e01b8152600401610cb69190613973565b600060405180830381865afa158015610cd3573d6000803e3d6000fd5b505050506040513d6000823e3d601f19601f82011682018060405250810190610cfc9190613a31565b90508160001c8260001c82610d1090613ab7565b60001c1614610d54576040517f08c379a0000000000000000000000000000000000000000000000000000000008152600401610d4b90613ba1565b60405180910390fd5b84600860009054906101000a900473ffffffffffffffffffffffffffffffffffffffff1673ffffffffffffffffffffffffffffffffffffffff1663d6d09cfb866040518263ffffffff1660e01b8152600401610db091906142ce565b602060405180830381865afa158015610dcd573d6000803e3d6000fd5b505050506040513d601f19601f82011682018060405250810190610df19190613937565b6000600260009054906101000a900473ffffffffffffffffffffffffffffffffffffffff1673ffffffffffffffffffffffffffffffffffffffff16631da0d49f846040518263ffffffff1660e01b8152600401610e4e9190613973565b600060405180830381865afa158015610e6b573d6000803e3d6000fd5b505050506040513d6000823e3d601f19601f82011682018060405250810190610e949190613a31565b90508160001c8260001c82610ea890613ab7565b60001c1614610eec576040517f08c379a0000000000000000000000000000000000000000000000000000000008152600401610ee390613ba1565b60405180910390fd5b600860009054906101000a900473ffffffffffffffffffffffffffffffffffffffff1673ffffffffffffffffffffffffffffffffffffffff166321298b42898960006040518463ffffffff1660e01b8152600401610f4c93929190614304565b600060405180830381600087803b158015610f6657600080fd5b505af1158015610f7a573d6000803e3d6000fd5b505050505050505050505050565b33600860009054906101000a900473ffffffffffffffffffffffffffffffffffffffff1673ffffffffffffffffffffffffffffffffffffffff1663d6d09cfb60046040518263ffffffff1660e01b8152600401610fe59190614095565b602060405180830381865afa158015611002573d6000803e3d6000fd5b505050506040513d601f19601f820116820180604052508101906110269190613937565b6000600260009054906101000a900473ffffffffffffffffffffffffffffffffffffffff1673ffffffffffffffffffffffffffffffffffffffff16631da0d49f846040518263ffffffff1660e01b81526004016110839190613973565b600060405180830381865afa1580156110a0573d6000803e3d6000fd5b505050506040513d6000823e3d601f19601f820116820180604052508101906110c99190613a31565b90508160001c8260001c826110dd90613ab7565b60001c1614611121576040517f08c379a000000000000000000000000000000000000000000000000000000000815260040161111890613ba1565b60405180910390fd5b84600860009054906101000a900473ffffffffffffffffffffffffffffffffffffffff1673ffffffffffffffffffffffffffffffffffffffff1663d6d09cfb866040518263ffffffff1660e01b815260040161117d91906142ce565b602060405180830381865afa15801561119a573d6000803e3d6000fd5b505050506040513d601f19601f820116820180604052508101906111be9190613937565b6000600260009054906101000a900473ffffffffffffffffffffffffffffffffffffffff1673ffffffffffffffffffffffffffffffffffffffff16631da0d49f846040518263ffffffff1660e01b815260040161121b9190613973565b600060405180830381865afa158015611238573d6000803e3d6000fd5b505050506040513d6000823e3d601f19601f820116820180604052508101906112619190613a31565b905060008260001c8261127390613ab7565b60001c16146112b7576040517f08c379a00000000000000000000000000000000000000000000000000000000081526004016112ae90614387565b60405180910390fd5b600b60009054906101000a900473ffffffffffffffffffffffffffffffffffffffff1673ffffffffffffffffffffffffffffffffffffffff1663cb42ba1c89306040518363ffffffff1660e01b81526004016113149291906143a7565b602060405180830381865afa158015611331573d6000803e3d6000fd5b505050506040513d601f19601f8201168201806040525081019061135591906143fc565b6113635761136288612ae0565b5b600860009054906101000a900473ffffffffffffffffffffffffffffffffffffffff1673ffffffffffffffffffffffffffffffffffffffff166321298b42898960016040518463ffffffff1660e01b81526004016113c393929190614304565b600060405180830381600087803b1580156113dd57600080fd5b505af11580156113f1573d6000803e3d6000fd5b505050505050505050505050565b33600860009054906101000a900473ffffffffffffffffffffffffffffffffffffffff1673ffffffffffffffffffffffffffffffffffffffff1663d6d09cfb60026040518263ffffffff1660e01b815260040161145c9190613ecf565b602060405180830381865afa158015611479573d6000803e3d6000fd5b505050506040513d601f19601f8201168201806040525081019061149d9190613937565b6000600260009054906101000a900473ffffffffffffffffffffffffffffffffffffffff1673ffffffffffffffffffffffffffffffffffffffff16631da0d49f846040518263ffffffff1660e01b81526004016114fa9190613973565b600060405180830381865afa158015611517573d6000803e3d6000fd5b505050506040513d6000823e3d601f19601f820116820180604052508101906115409190613a31565b90508160001c8260001c8261155490613ab7565b60001c1614611598576040517f08c379a000000000000000000000000000000000000000000000000000000000815260040161158f90613ba1565b60405180910390fd5b83600860009054906101000a900473ffffffffffffffffffffffffffffffffffffffff1673ffffffffffffffffffffffffffffffffffffffff1663d6d09cfb60036040518263ffffffff1660e01b81526004016115f59190613f61565b602060405180830381865afa158015611612573d6000803e3d6000fd5b505050506040513d601f19601f820116820180604052508101906116369190613937565b6000600260009054906101000a900473ffffffffffffffffffffffffffffffffffffffff1673ffffffffffffffffffffffffffffffffffffffff16631da0d49f846040518263ffffffff1660e01b81526004016116939190613973565b600060405180830381865afa1580156116b0573d6000803e3d6000fd5b505050506040513d6000823e3d601f19601f820116820180604052508101906116d99190613a31565b90508160001c8260001c826116ed90613ab7565b60001c1614611731576040517f08c379a000000000000000000000000000000000000000000000000000000000815260040161172890613ba1565b60405180910390fd5b600a60009054906101000a900473ffffffffffffffffffffffffffffffffffffffff1673ffffffffffffffffffffffffffffffffffffffff1663bece603a33896040518363ffffffff1660e01b815260040161178e9291906143a7565b600060405180830381600087803b1580156117a857600080fd5b505af11580156117bc573d6000803e3d6000fd5b50505050600a60009054906101000a900473ffffffffffffffffffffffffffffffffffffffff1673ffffffffffffffffffffffffffffffffffffffff1663fd3ee5f43389600a60009054906101000a900473ffffffffffffffffffffffffffffffffffffffff1673ffffffffffffffffffffffffffffffffffffffff166398f351748c6040518263ffffffff1660e01b815260040161185b9190613973565b602060405180830381865afa158015611878573d6000803e3d6000fd5b505050506040513d601f19601f8201168201806040525081019061189c9190613fa8565b6040518463ffffffff1660e01b81526004016118ba93929190614429565b600060405180830381600087803b1580156118d457600080fd5b505af11580156118e8573d6000803e3d6000fd5b50505050600a60009054906101000a900473ffffffffffffffffffffffffffffffffffffffff1673ffffffffffffffffffffffffffffffffffffffff166361f49787600a60009054906101000a900473ffffffffffffffffffffffffffffffffffffffff1673ffffffffffffffffffffffffffffffffffffffff166398f351748a6040518263ffffffff1660e01b81526004016119859190613973565b602060405180830381865afa1580156119a2573d6000803e3d6000fd5b505050506040513d601f19601f820116820180604052508101906119c69190613fa8565b896040518363ffffffff1660e01b81526004016119e4929190614460565b600060405180830381600087803b1580156119fe57600080fd5b505af1158015611a12573d6000803e3d6000fd5b5050505050505050505050565b8042600360009054906101000a900473ffffffffffffffffffffffffffffffffffffffff1673ffffffffffffffffffffffffffffffffffffffff1663a56c89b183600360009054906101000a900473ffffffffffffffffffffffffffffffffffffffff1673ffffffffffffffffffffffffffffffffffffffff166338671fd260036040518263ffffffff1660e01b8152600401611abc9190613f61565b602060405180830381865afa158015611ad9573d6000803e3d6000fd5b505050506040513d601f19601f82011682018060405250810190611afd9190613dd0565b6040518363ffffffff1660e01b8152600401611b1a929190614489565b600060405180830381865afa158015611b37573d6000803e3d6000fd5b505050506040513d6000823e3d601f19601f82011682018060405250810190611b609190613a31565b611b6990613ab7565b60001c60008054906101000a900473ffffffffffffffffffffffffffffffffffffffff1673ffffffffffffffffffffffffffffffffffffffff1663ef64d3176040518163ffffffff1660e01b8152600401602060405180830381865afa158015611bd7573d6000803e3d6000fd5b505050506040513d601f19601f82011682018060405250810190611bfb9190613fa8565b611c059190614004565b10611c45576040517f08c379a0000000000000000000000000000000000000000000000000000000008152600401611c3c90614524565b60405180910390fd5b3330600460009054906101000a900473ffffffffffffffffffffffffffffffffffffffff1673ffffffffffffffffffffffffffffffffffffffff1663cb42ba1c83836040518363ffffffff1660e01b8152600401611ca49291906143a7565b602060405180830381865afa158015611cc1573d6000803e3d6000fd5b505050506040513d601f19601f82011682018060405250810190611ce591906143fc565b611d24576040517f08c379a0000000000000000000000000000000000000000000000000000000008152600401611d1b906145b6565b60405180910390fd5b600960009054906101000a900473ffffffffffffffffffffffffffffffffffffffff1673ffffffffffffffffffffffffffffffffffffffff166391021ae885600960009054906101000a900473ffffffffffffffffffffffffffffffffffffffff1673ffffffffffffffffffffffffffffffffffffffff166338671fd260046040518263ffffffff1660e01b8152600401611dbf9190614095565b602060405180830381865afa158015611ddc573d6000803e3d6000fd5b505050506040513d601f19601f82011682018060405250810190611e009190613dd0565b4260001b604051602001611e149190613f0b565b6040516020818303038152906040526040518463ffffffff1660e01b8152600401611e4193929190613e56565b600060405180830381600087803b158015611e5b57600080fd5b505af1158015611e6f573d6000803e3d6000fd5b50505050600080600960009054906101000a900473ffffffffffffffffffffffffffffffffffffffff1673ffffffffffffffffffffffffffffffffffffffff1663dd596655876040518263ffffffff1660e01b8152600401611ed19190613747565b600060405180830381865afa158015611eee573d6000803e3d6000fd5b505050506040513d6000823e3d601f19601f82011682018060405250810190611f179190614737565b91509150600c60009054906101000a900473ffffffffffffffffffffffffffffffffffffffff1673ffffffffffffffffffffffffffffffffffffffff16633ceb2b5d876040518263ffffffff1660e01b8152600401611f769190613747565b602060405180830381865afa158015611f93573d6000803e3d6000fd5b505050506040513d601f19601f82011682018060405250810190611fb791906143fc565b156120bd5760005b82518110156120bb57600660009054906101000a900473ffffffffffffffffffffffffffffffffffffffff1673ffffffffffffffffffffffffffffffffffffffff166344c028fe600085848151811061201b5761201a6147af565b5b60200260200101516000868681518110612038576120376147af565b5b60200260200101516040518563ffffffff1660e01b815260040161205f949392919061480f565b6000604051808303816000875af115801561207e573d6000803e3d6000fd5b505050506040513d6000823e3d601f19601f820116820180604052508101906120a79190613a31565b5080806120b39061485b565b915050611fbf565b505b505050505050565b33600860009054906101000a900473ffffffffffffffffffffffffffffffffffffffff1673ffffffffffffffffffffffffffffffffffffffff1663d6d09cfb60006040518263ffffffff1660e01b81526004016121229190613d5d565b602060405180830381865afa15801561213f573d6000803e3d6000fd5b505050506040513d601f19601f820116820180604052508101906121639190613937565b6000600260009054906101000a900473ffffffffffffffffffffffffffffffffffffffff1673ffffffffffffffffffffffffffffffffffffffff16631da0d49f846040518263ffffffff1660e01b81526004016121c09190613973565b600060405180830381865afa1580156121dd573d6000803e3d6000fd5b505050506040513d6000823e3d601f19601f820116820180604052508101906122069190613a31565b90508160001c8260001c8261221a90613ab7565b60001c161461225e576040517f08c379a000000000000000000000000000000000000000000000000000000000815260040161225590613ba1565b60405180910390fd5b336000600160009054906101000a900473ffffffffffffffffffffffffffffffffffffffff1673ffffffffffffffffffffffffffffffffffffffff16631b311a4b836040518263ffffffff1660e01b81526004016122bc9190613973565b602060405180830381865afa1580156122d9573d6000803e3d6000fd5b505050506040513d601f19601f820116820180604052508101906122fd91906148a3565b90508073ffffffffffffffffffffffffffffffffffffffff168273ffffffffffffffffffffffffffffffffffffffff16148061235d5750600060601b6bffffffffffffffffffffffff19168260601b6bffffffffffffffffffffffff1916145b61239c576040517f08c379a00000000000000000000000000000000000000000000000000000000081526004016123939061491c565b60405180910390fd5b3387600360009054906101000a900473ffffffffffffffffffffffffffffffffffffffff1673ffffffffffffffffffffffffffffffffffffffff1663525ae7f183836040518363ffffffff1660e01b81526004016123fb92919061493c565b602060405180830381865afa158015612418573d6000803e3d6000fd5b505050506040513d601f19601f8201168201806040525081019061243c91906143fc565b1561247c576040517f08c379a0000000000000000000000000000000000000000000000000000000008152600401612473906149b1565b60405180910390fd5b8842600360009054906101000a900473ffffffffffffffffffffffffffffffffffffffff1673ffffffffffffffffffffffffffffffffffffffff1663a56c89b183600360009054906101000a900473ffffffffffffffffffffffffffffffffffffffff1673ffffffffffffffffffffffffffffffffffffffff166338671fd260036040518263ffffffff1660e01b81526004016125199190613f61565b602060405180830381865afa158015612536573d6000803e3d6000fd5b505050506040513d601f19601f8201168201806040525081019061255a9190613dd0565b6040518363ffffffff1660e01b8152600401612577929190614489565b600060405180830381865afa158015612594573d6000803e3d6000fd5b505050506040513d6000823e3d601f19601f820116820180604052508101906125bd9190613a31565b6125c690613ab7565b60001c60008054906101000a900473ffffffffffffffffffffffffffffffffffffffff1673ffffffffffffffffffffffffffffffffffffffff1663ef64d3176040518163ffffffff1660e01b8152600401602060405180830381865afa158015612634573d6000803e3d6000fd5b505050506040513d601f19601f820116820180604052508101906126589190613fa8565b6126629190614004565b116126a2576040517f08c379a000000000000000000000000000000000000000000000000000000000815260040161269990614a1d565b60405180910390fd5b6000600960009054906101000a900473ffffffffffffffffffffffffffffffffffffffff1673ffffffffffffffffffffffffffffffffffffffff166338671fd28b60076126ef9190614a3d565b6040518263ffffffff1660e01b815260040161270b91906142ce565b602060405180830381865afa158015612728573d6000803e3d6000fd5b505050506040513d601f19601f8201168201806040525081019061274c9190613dd0565b905060008060088060009054906101000a900473ffffffffffffffffffffffffffffffffffffffff1673ffffffffffffffffffffffffffffffffffffffff16631da0d49f336040518263ffffffff1660e01b81526004016127ad9190613973565b600060405180830381865afa1580156127ca573d6000803e3d6000fd5b505050506040513d6000823e3d601f19601f820116820180604052508101906127f39190613a31565b6127fc90613ab7565b60001c161461296157600a60009054906101000a900473ffffffffffffffffffffffffffffffffffffffff1673ffffffffffffffffffffffffffffffffffffffff166398f35174336040518263ffffffff1660e01b81526004016128609190613973565b602060405180830381865afa15801561287d573d6000803e3d6000fd5b505050506040513d601f19601f820116820180604052508101906128a19190613fa8565b600960009054906101000a900473ffffffffffffffffffffffffffffffffffffffff1673ffffffffffffffffffffffffffffffffffffffff1663a56c89b18e856040518363ffffffff1660e01b81526004016128fe929190614489565b600060405180830381865afa15801561291b573d6000803e3d6000fd5b505050506040513d6000823e3d601f19601f820116820180604052508101906129449190613a31565b61294d90613ab7565b60001c61295a9190614004565b9050612a1f565b6001600960009054906101000a900473ffffffffffffffffffffffffffffffffffffffff1673ffffffffffffffffffffffffffffffffffffffff1663a56c89b18e856040518363ffffffff1660e01b81526004016129c0929190614489565b600060405180830381865afa1580156129dd573d6000803e3d6000fd5b505050506040513d6000823e3d601f19601f82011682018060405250810190612a069190613a31565b612a0f90613ab7565b60001c612a1c9190614004565b90505b600960009054906101000a900473ffffffffffffffffffffffffffffffffffffffff1673ffffffffffffffffffffffffffffffffffffffff166391021ae88d848460001b604051602001612a739190613f0b565b6040516020818303038152906040526040518463ffffffff1660e01b8152600401612aa093929190613e56565b600060405180830381600087803b158015612aba57600080fd5b505af1158015612ace573d6000803e3d6000fd5b50505050505050505050505050505050565b6000600860009054906101000a900473ffffffffffffffffffffffffffffffffffffffff1673ffffffffffffffffffffffffffffffffffffffff16636405184e6040518163ffffffff1660e01b8152600401602060405180830381865afa158015612b4f573d6000803e3d6000fd5b505050506040513d601f19601f82011682018060405250810190612b739190613fa8565b9050600860009054906101000a900473ffffffffffffffffffffffffffffffffffffffff1673ffffffffffffffffffffffffffffffffffffffff166377a14c3582846040518363ffffffff1660e01b8152600401612bd2929190614460565b600060405180830381600087803b158015612bec57600080fd5b505af1158015612c00573d6000803e3d6000fd5b50505050600860009054906101000a900473ffffffffffffffffffffffffffffffffffffffff1673ffffffffffffffffffffffffffffffffffffffff1663348289c6600183612c4f9190614004565b6040518263ffffffff1660e01b8152600401612c6b9190614a74565b600060405180830381600087803b158015612c8557600080fd5b505af1158015612c99573d6000803e3d6000fd5b50505050600b60009054906101000a900473ffffffffffffffffffffffffffffffffffffffff1673ffffffffffffffffffffffffffffffffffffffff1663b795487a8330600b60009054906101000a900473ffffffffffffffffffffffffffffffffffffffff1673ffffffffffffffffffffffffffffffffffffffff16633afeff90876040518263ffffffff1660e01b8152600401612d389190613973565b602060405180830381865afa158015612d55573d6000803e3d6000fd5b505050506040513d601f19601f82011682018060405250810190612d799190613fa8565b6040518463ffffffff1660e01b8152600401612d9793929190614aba565b600060405180830381600087803b158015612db157600080fd5b505af1158015612dc5573d6000803e3d6000fd5b50505050600b60009054906101000a900473ffffffffffffffffffffffffffffffffffffffff1673ffffffffffffffffffffffffffffffffffffffff16633805496f836001600b60009054906101000a900473ffffffffffffffffffffffffffffffffffffffff1673ffffffffffffffffffffffffffffffffffffffff16633afeff90876040518263ffffffff1660e01b8152600401612e659190613973565b602060405180830381865afa158015612e82573d6000803e3d6000fd5b505050506040513d601f19601f82011682018060405250810190612ea69190613fa8565b612eb09190614004565b6040518363ffffffff1660e01b8152600401612ecd929190614af1565b600060405180830381600087803b158015612ee757600080fd5b505af1158015612efb573d6000803e3d6000fd5b50505050600b60009054906101000a900473ffffffffffffffffffffffffffffffffffffffff1673ffffffffffffffffffffffffffffffffffffffff166313c79650833060006040518463ffffffff1660e01b8152600401612f5f93929190614b1a565b600060405180830381600087803b158015612f7957600080fd5b505af1158015612f8d573d6000803e3d6000fd5b505050508173ffffffffffffffffffffffffffffffffffffffff163373ffffffffffffffffffffffffffffffffffffffff161461322f57600b60009054906101000a900473ffffffffffffffffffffffffffffffffffffffff1673ffffffffffffffffffffffffffffffffffffffff1663fad7fc36833033600b60009054906101000a900473ffffffffffffffffffffffffffffffffffffffff1673ffffffffffffffffffffffffffffffffffffffff1663c8b39ce688306040518363ffffffff1660e01b81526004016130629291906143a7565b602060405180830381865afa15801561307f573d6000803e3d6000fd5b505050506040513d601f19601f820116820180604052508101906130a39190613fa8565b6040518563ffffffff1660e01b81526004016130c29493929190614b51565b600060405180830381600087803b1580156130dc57600080fd5b505af11580156130f0573d6000803e3d6000fd5b50505050600b60009054906101000a900473ffffffffffffffffffffffffffffffffffffffff1673ffffffffffffffffffffffffffffffffffffffff16635f10ab8e83306001600b60009054906101000a900473ffffffffffffffffffffffffffffffffffffffff1673ffffffffffffffffffffffffffffffffffffffff1663c8b39ce688306040518363ffffffff1660e01b81526004016131939291906143a7565b602060405180830381865afa1580156131b0573d6000803e3d6000fd5b505050506040513d601f19601f820116820180604052508101906131d49190613fa8565b6131de9190614004565b6040518463ffffffff1660e01b81526004016131fc93929190614429565b600060405180830381600087803b15801561321657600080fd5b505af115801561322a573d6000803e3d6000fd5b505050505b5050565b6000604051905090565b600080fd5b600080fd5b600080fd5b600080fd5b6000601f19601f8301169050919050565b7f4e487b7100000000000000000000000000000000000000000000000000000000600052604160045260246000fd5b61329a82613251565b810181811067ffffffffffffffff821117156132b9576132b8613262565b5b80604052505050565b60006132cc613233565b90506132d88282613291565b919050565b600067ffffffffffffffff8211156132f8576132f7613262565b5b61330182613251565b9050602081019050919050565b82818337600083830152505050565b600061333061332b846132dd565b6132c2565b90508281526020810184848401111561334c5761334b61324c565b5b61335784828561330e565b509392505050565b600082601f83011261337457613373613247565b5b813561338484826020860161331d565b91505092915050565b600067ffffffffffffffff8211156133a8576133a7613262565b5b602082029050602081019050919050565b600080fd5b600073ffffffffffffffffffffffffffffffffffffffff82169050919050565b60006133e9826133be565b9050919050565b6133f9816133de565b811461340457600080fd5b50565b600081359050613416816133f0565b92915050565b600061342f61342a8461338d565b6132c2565b90508083825260208201905060208402830185811115613452576134516133b9565b5b835b8181101561347b57806134678882613407565b845260208401935050602081019050613454565b5050509392505050565b600082601f83011261349a57613499613247565b5b81356134aa84826020860161341c565b91505092915050565b600067ffffffffffffffff8211156134ce576134cd613262565b5b602082029050602081019050919050565b600067ffffffffffffffff8211156134fa576134f9613262565b5b61350382613251565b9050602081019050919050565b600061352361351e846134df565b6132c2565b90508281526020810184848401111561353f5761353e61324c565b5b61354a84828561330e565b509392505050565b600082601f83011261356757613566613247565b5b8135613577848260208601613510565b91505092915050565b600061359361358e846134b3565b6132c2565b905080838252602082019050602084028301858111156135b6576135b56133b9565b5b835b818110156135fd57803567ffffffffffffffff8111156135db576135da613247565b5b8086016135e88982613552565b855260208501945050506020810190506135b8565b5050509392505050565b600082601f83011261361c5761361b613247565b5b813561362c848260208601613580565b91505092915050565b6000806000806080858703121561364f5761364e61323d565b5b600085013567ffffffffffffffff81111561366d5761366c613242565b5b6136798782880161335f565b945050602085013567ffffffffffffffff81111561369a57613699613242565b5b6136a68782880161335f565b935050604085013567ffffffffffffffff8111156136c7576136c6613242565b5b6136d387828801613485565b925050606085013567ffffffffffffffff8111156136f4576136f3613242565b5b61370087828801613607565b91505092959194509250565b60007fffffffffffffffffffff0000000000000000000000000000000000000000000082169050919050565b6137418161370c565b82525050565b600060208201905061375c6000830184613738565b92915050565b600060ff82169050919050565b61377881613762565b811461378357600080fd5b50565b6000813590506137958161376f565b92915050565b600080604083850312156137b2576137b161323d565b5b60006137c085828601613407565b92505060206137d185828601613786565b9150509250929050565b6000602082840312156137f1576137f061323d565b5b60006137ff84828501613407565b91505092915050565b6138118161370c565b811461381c57600080fd5b50565b60008135905061382e81613808565b92915050565b60006020828403121561384a5761384961323d565b5b60006138588482850161381f565b91505092915050565b600080604083850312156138785761387761323d565b5b60006138868582860161381f565b925050602061389785828601613786565b9150509250929050565b6000819050919050565b6000819050919050565b60006138d06138cb6138c6846138a1565b6138ab565b613762565b9050919050565b6138e0816138b5565b82525050565b60006020820190506138fb60008301846138d7565b92915050565b6000819050919050565b61391481613901565b811461391f57600080fd5b50565b6000815190506139318161390b565b92915050565b60006020828403121561394d5761394c61323d565b5b600061395b84828501613922565b91505092915050565b61396d816133de565b82525050565b60006020820190506139886000830184613964565b92915050565b60005b838110156139ac578082015181840152602081019050613991565b838111156139bb576000848401525b50505050565b60006139d46139cf846134df565b6132c2565b9050828152602081018484840111156139f0576139ef61324c565b5b6139fb84828561398e565b509392505050565b600082601f830112613a1857613a17613247565b5b8151613a288482602086016139c1565b91505092915050565b600060208284031215613a4757613a4661323d565b5b600082015167ffffffffffffffff811115613a6557613a64613242565b5b613a7184828501613a03565b91505092915050565b600081519050919050565b6000819050602082019050919050565b6000613aa18251613901565b80915050919050565b600082821b905092915050565b6000613ac282613a7a565b82613acc84613a85565b9050613ad781613a95565b92506020821015613b1757613b127fffffffffffffffffffffffffffffffffffffffffffffffffffffffffffffffff83602003600802613aaa565b831692505b5050919050565b600082825260208201905092915050565b7f5573657220646f6573656e2774206861766520746865207065726d697373696f60008201527f6e2e000000000000000000000000000000000000000000000000000000000000602082015250565b6000613b8b602283613b1e565b9150613b9682613b2f565b604082019050919050565b60006020820190508181036000830152613bba81613b7e565b9050919050565b7f50726f7669646564207461726765747320616e6420646174617320686176652060008201527f646966666572656e74206c656e677468732e0000000000000000000000000000602082015250565b6000613c1d603283613b1e565b9150613c2882613bc1565b604082019050919050565b60006020820190508181036000830152613c4c81613c10565b9050919050565b6000819050919050565b613c6681613c53565b82525050565b600081519050919050565b6000613c8282613c6c565b613c8c8185613b1e565b9350613c9c81856020860161398e565b613ca581613251565b840191505092915050565b6000604082019050613cc56000830185613c5d565b8181036020830152613cd78184613c77565b90509392505050565b600081519050613cef81613808565b92915050565b600060208284031215613d0b57613d0a61323d565b5b6000613d1984828501613ce0565b91505092915050565b6000819050919050565b6000613d47613d42613d3d84613d22565b6138ab565b613762565b9050919050565b613d5781613d2c565b82525050565b6000602082019050613d726000830184613d4e565b92915050565b60007fffffffffffffffffffffffffffffffffffffffff00000000000000000000000082169050919050565b613dad81613d78565b8114613db857600080fd5b50565b600081519050613dca81613da4565b92915050565b600060208284031215613de657613de561323d565b5b6000613df484828501613dbb565b91505092915050565b613e0681613d78565b82525050565b600082825260208201905092915050565b6000613e2882613a7a565b613e328185613e0c565b9350613e4281856020860161398e565b613e4b81613251565b840191505092915050565b6000606082019050613e6b6000830186613738565b613e786020830185613dfd565b8181036040830152613e8a8184613e1d565b9050949350505050565b6000819050919050565b6000613eb9613eb4613eaf84613e94565b6138ab565b613762565b9050919050565b613ec981613e9e565b82525050565b6000602082019050613ee46000830184613ec0565b92915050565b6000819050919050565b613f05613f0082613901565b613eea565b82525050565b6000613f178284613ef4565b60208201915081905092915050565b6000819050919050565b6000613f4b613f46613f4184613f26565b6138ab565b613762565b9050919050565b613f5b81613f30565b82525050565b6000602082019050613f766000830184613f52565b92915050565b613f8581613c53565b8114613f9057600080fd5b50565b600081519050613fa281613f7c565b92915050565b600060208284031215613fbe57613fbd61323d565b5b6000613fcc84828501613f93565b91505092915050565b7f4e487b7100000000000000000000000000000000000000000000000000000000600052601160045260246000fd5b600061400f82613c53565b915061401a83613c53565b9250827fffffffffffffffffffffffffffffffffffffffffffffffffffffffffffffffff0382111561404f5761404e613fd5565b5b828201905092915050565b6000819050919050565b600061407f61407a6140758461405a565b6138ab565b613762565b9050919050565b61408f81614064565b82525050565b60006020820190506140aa6000830184614086565b92915050565b600081519050919050565b600082825260208201905092915050565b6000819050602082019050919050565b6140e5816133de565b82525050565b60006140f783836140dc565b60208301905092915050565b6000602082019050919050565b600061411b826140b0565b61412581856140bb565b9350614130836140cc565b8060005b8381101561416157815161414888826140eb565b975061415383614103565b925050600181019050614134565b5085935050505092915050565b600081519050919050565b600082825260208201905092915050565b6000819050602082019050919050565b600082825260208201905092915050565b60006141b682613a7a565b6141c0818561419a565b93506141d081856020860161398e565b6141d981613251565b840191505092915050565b60006141f083836141ab565b905092915050565b6000602082019050919050565b60006142108261416e565b61421a8185614179565b93508360208202850161422c8561418a565b8060005b85811015614268578484038952815161424985826141e4565b9450614254836141f8565b925060208a01995050600181019050614230565b50829750879550505050505092915050565b600060608201905061428f6000830186613738565b81810360208301526142a18185614110565b905081810360408301526142b58184614205565b9050949350505050565b6142c881613762565b82525050565b60006020820190506142e360008301846142bf565b92915050565b60008115159050919050565b6142fe816142e9565b82525050565b60006060820190506143196000830186613964565b61432660208301856142bf565b61433360408301846142f5565b949350505050565b7f5573657220616c72656164792068617320746865207065726d697373696f6e2e600082015250565b6000614371602083613b1e565b915061437c8261433b565b602082019050919050565b600060208201905081810360008301526143a081614364565b9050919050565b60006040820190506143bc6000830185613964565b6143c96020830184613964565b9392505050565b6143d9816142e9565b81146143e457600080fd5b50565b6000815190506143f6816143d0565b92915050565b6000602082840312156144125761441161323d565b5b6000614420848285016143e7565b91505092915050565b600060608201905061443e6000830186613964565b61444b6020830185613964565b6144586040830184613c5d565b949350505050565b60006040820190506144756000830185613c5d565b6144826020830184613964565b9392505050565b600060408201905061449e6000830185613738565b6144ab6020830184613dfd565b9392505050565b7f54686520766f74696e672064656c6179206973206e6f7420796574206f76657260008201527f2e00000000000000000000000000000000000000000000000000000000000000602082015250565b600061450e602183613b1e565b9150614519826144b2565b604082019050919050565b6000602082019050818103600083015261453d81614501565b9050919050565b7f556e6976657273616c2050726f66696c65206973206e6f74206120706172746960008201527f636970616e74206f66207468652044414f2e0000000000000000000000000000602082015250565b60006145a0603283613b1e565b91506145ab82614544565b604082019050919050565b600060208201905081810360008301526145cf81614593565b9050919050565b6000815190506145e5816133f0565b92915050565b60006145fe6145f98461338d565b6132c2565b90508083825260208201905060208402830185811115614621576146206133b9565b5b835b8181101561464a578061463688826145d6565b845260208401935050602081019050614623565b5050509392505050565b600082601f83011261466957614668613247565b5b81516146798482602086016145eb565b91505092915050565b6000614695614690846134b3565b6132c2565b905080838252602082019050602084028301858111156146b8576146b76133b9565b5b835b818110156146ff57805167ffffffffffffffff8111156146dd576146dc613247565b5b8086016146ea8982613a03565b855260208501945050506020810190506146ba565b5050509392505050565b600082601f83011261471e5761471d613247565b5b815161472e848260208601614682565b91505092915050565b6000806040838503121561474e5761474d61323d565b5b600083015167ffffffffffffffff81111561476c5761476b613242565b5b61477885828601614654565b925050602083015167ffffffffffffffff81111561479957614798613242565b5b6147a585828601614709565b9150509250929050565b7f4e487b7100000000000000000000000000000000000000000000000000000000600052603260045260246000fd5b60006147f96147f46147ef84613d22565b6138ab565b613c53565b9050919050565b614809816147de565b82525050565b60006080820190506148246000830187614800565b6148316020830186613964565b61483e6040830185614800565b81810360608301526148508184613e1d565b905095945050505050565b600061486682613c53565b91507fffffffffffffffffffffffffffffffffffffffffffffffffffffffffffffffff820361489857614897613fd5565b5b600182019050919050565b6000602082840312156148b9576148b861323d565b5b60006148c7848285016145d6565b91505092915050565b7f557365722064656c6567617465642068697320766f7465732e00000000000000600082015250565b6000614906601983613b1e565b9150614911826148d0565b602082019050919050565b60006020820190508181036000830152614935816148f9565b9050919050565b60006040820190506149516000830185613964565b61495e6020830184613738565b9392505050565b7f557365722064696420616c726561647920766f74652e00000000000000000000600082015250565b600061499b601683613b1e565b91506149a682614965565b602082019050919050565b600060208201905081810360008301526149ca8161498e565b9050919050565b7f566f74696e6720706572696f6420697320616c7265616479206f7665722e0000600082015250565b6000614a07601e83613b1e565b9150614a12826149d1565b602082019050919050565b60006020820190508181036000830152614a36816149fa565b9050919050565b6000614a4882613762565b9150614a5383613762565b92508260ff03821115614a6957614a68613fd5565b5b828201905092915050565b6000602082019050614a896000830184613c5d565b92915050565b60006fffffffffffffffffffffffffffffffff82169050919050565b614ab481614a8f565b82525050565b6000606082019050614acf6000830186613964565b614adc6020830185613964565b614ae96040830184614aab565b949350505050565b6000604082019050614b066000830185613964565b614b136020830184613c5d565b9392505050565b6000606082019050614b2f6000830186613964565b614b3c6020830185613964565b614b4960408301846142f5565b949350505050565b6000608082019050614b666000830187613964565b614b736020830186613964565b614b806040830185613964565b614b8d6060830184614aab565b9594505050505056fea264697066735822122063e1e27f70a494e2f7339961152debd50959f1a3fdb8d5ad55bbe158562b219b64736f6c634300080f0033608060405234801561001057600080fd5b50610280806100206000396000f3fe608060405234801561001057600080fd5b506004361061002b5760003560e01c80634bb5ec3214610030575b600080fd5b61004a6004803603810190610045919061012b565b610060565b604051610057919061022f565b60405180910390f35b6100686100ce565b6040518060400160405280600060801b6fffffffffffffffffffffffffffffffff19166fffffffffffffffffffffffffffffffff19168152602001600060801b6fffffffffffffffffffffffffffffffff19168152509050818152816010820152919050565b6040518060400160405280600290602082028036833780820191505090505090565b600080fd5b6000819050919050565b610108816100f5565b811461011357600080fd5b50565b600081359050610125816100ff565b92915050565b600060208284031215610141576101406100f0565b5b600061014f84828501610116565b91505092915050565b600060029050919050565b600081905092915050565b6000819050919050565b60007fffffffffffffffffffffffffffffffff0000000000000000000000000000000082169050919050565b6101ad81610178565b82525050565b60006101bf83836101a4565b60208301905092915050565b6000602082019050919050565b6101e181610158565b6101eb8184610163565b92506101f68261016e565b8060005b8381101561022757815161020e87826101b3565b9650610219836101cb565b9250506001810190506101fa565b505050505050565b600060408201905061024460008301846101d8565b9291505056fea2646970667358221220ae2f886daf4a2083bdd56bd15be279e9f5d48539319da44aa45e3c90b146207c64736f6c634300080f0033",
  "immutableReferences": {},
  "source": "// SPDX-License-Identifier: CC0-1.0\n\npragma solidity ^0.8.0;\n\nimport {IERC725Y} from \"@erc725/smart-contracts/contracts/interfaces/IERC725Y.sol\";\nimport {LSP0ERC725Account} from \"./LSP0ERC725Account.sol\";\nimport {LSP6KeyManager} from \"./LSP6KeyManager.sol\";\nimport {DaoAccountMetadata} from \"./DaoAccountMetadata.sol\";\nimport {DaoPermissions} from \"./DaoPermissions.sol\";\nimport {DaoProposals} from \"./DaoProposals.sol\";\nimport {DaoDelegates} from \"./DaoDelegates.sol\";\nimport {DaoParticipation} from \"./DaoParticipation.sol\";\nimport {DaoVotingStrategies} from \"./DaoVotingStrategies.sol\";\nimport {DaoModifiers} from \"./Utils/DaoModifiers.sol\";\nimport {DaoUtils} from \"./Utils/DaoUtils.sol\";\n\n/**\n *\n* @notice This smart contract is responsible for connecting all the necessary tools for\n* a DAO based on Universal Profiles (LSP0ERC725Account)\n *\n * @author B00ste\n * @title DaoAccount\n * @custom:version 0.92\n */\ncontract DaoAccount is DaoModifiers {\n\n  /**\n   * @notice Instance for the utils of a Universal Profile DAO.\n   */\n  DaoUtils private utils = new DaoUtils();\n\n  /**\n   * @notice Instance of the DAO Universal Profile.\n   */\n  LSP0ERC725Account private UNIVERSAL_PROFILE;\n\n  /**\n   * @notice Instance for the Dao Metadata smart contract.\n   */\n  DaoAccountMetadata private DAO_METADATA;\n\n  /**\n   * @notice Instance for the Dao Permissions smart contract.\n   */\n  DaoPermissions private DAO_PERMISSIONS;\n\n  /**\n   * @notice Instance for the Dao Proposals smart contract.\n   */\n  DaoProposals private DAO_PROPOSALS;\n\n  /**\n   * @notice Instance for the Dao Delegates smart contract.\n   */\n  DaoDelegates private DAO_DELEGATES;\n\n  /**\n   * @notice Instance for the Dao Metadata smart contract.\n   */\n  DaoParticipation private DAO_PARTICIPATION;\n\n  /**\n   * @notice Instance for the Dao Voting Strategies smart contract.\n   */\n  DaoVotingStrategies private DAO_VOTING_STRATEGIES;\n\n  /**\n   * @notice Initialization of the Universal Profile Account as a DAO Account;\n   * Here is where all the tools needed for a functioning DAO are initialized.\n   */\n  constructor(\n    LSP0ERC725Account _UNIVERSAL_PROFILE,\n    LSP6KeyManager _KEY_MANAGER,\n    DaoAccountMetadata _DAO_METADATA,\n    DaoPermissions _DAO_PERMISSIONS,\n    DaoProposals _DAO_PROPOSALS,\n    DaoDelegates _DAO_DELEGATES,\n    DaoParticipation _DAO_PARTICIPATION,\n    DaoVotingStrategies _DAO_VOTING_STRATEGIES\n  )\n    DaoModifiers(\n      address(_DAO_METADATA),\n      address(_DAO_PERMISSIONS),\n      address(_DAO_PROPOSALS),\n      address(_DAO_DELEGATES),\n      address(_DAO_PARTICIPATION)\n    )\n  {\n    UNIVERSAL_PROFILE = _UNIVERSAL_PROFILE;\n    DAO_METADATA = _DAO_METADATA;\n    DAO_METADATA.init(_UNIVERSAL_PROFILE, _KEY_MANAGER, utils, address(this));\n    DAO_PERMISSIONS = _DAO_PERMISSIONS;\n    DAO_PERMISSIONS.init(_UNIVERSAL_PROFILE, utils, address(this));\n    DAO_PROPOSALS = _DAO_PROPOSALS;\n    DAO_PROPOSALS.init(_UNIVERSAL_PROFILE, utils, address(this));\n    DAO_DELEGATES = _DAO_DELEGATES;\n    DAO_DELEGATES.init(_UNIVERSAL_PROFILE, utils, address(this));\n    DAO_PARTICIPATION = _DAO_PARTICIPATION;\n    DAO_PARTICIPATION.init(utils, address(this));\n    DAO_VOTING_STRATEGIES = _DAO_VOTING_STRATEGIES;\n    DAO_VOTING_STRATEGIES.init(_UNIVERSAL_PROFILE, address(this));\n  }\n\n  // --- GENERAL METHODS\n\n  /**\n   * @notice Register the user for this Dao. \n   * Setup the necessary permissions.\n   * Initializing the necessary arrays.\n   * Sets the `msg.sender` as the dao controller address for the `universalProfileAddress` if `msg.sender` != `universalProfileAddress`\n   */\n  function registerUser(address universalProfileAddress) internal {\n    //IERC725Y UP = IERC725Y(universalProfileAddress);\n    //todo add address(this) to the controller addresses of `universalProfileAddress` and set the 'setData' permission to 1 for address(this). \n    // https://docs.lukso.tech/standards/universal-profile/lsp6-key-manager#allowed-erc725y-keys\n    uint256 addressesArrayLength = DAO_PERMISSIONS._getDaoAddressesArrayLength();\n    DAO_PERMISSIONS._setDaoAddressByIndex(addressesArrayLength, universalProfileAddress);\n    DAO_PERMISSIONS._setDaoAddressesArrayLength(addressesArrayLength + 1);\n\n    DAO_PARTICIPATION._setDaoToArrayByIndex(\n      universalProfileAddress,\n      address(this),\n      uint128(DAO_PARTICIPATION._getArrayOfDaosLength(universalProfileAddress))\n    );\n    DAO_PARTICIPATION._setArrayOfDaosLength(\n      universalProfileAddress,\n      DAO_PARTICIPATION._getArrayOfDaosLength(universalProfileAddress) + 1\n    );\n    DAO_PARTICIPATION._toggleParticipantOfDao(universalProfileAddress, address(this), false);\n\n    if(msg.sender != universalProfileAddress) {\n      DAO_PARTICIPATION._setControllerByIndex(\n        universalProfileAddress,\n        address(this),\n        msg.sender,\n        uint128(DAO_PARTICIPATION._getControllersArrayLength(universalProfileAddress, address(this)))\n      );\n      DAO_PARTICIPATION._setControllersArrayLength(\n        universalProfileAddress,\n        address(this),\n        DAO_PARTICIPATION._getControllersArrayLength(universalProfileAddress, address(this)) + 1\n      );\n    }\n  }\n  \n  /**\n   * @notice Add permission to an address by index.\n   * Index 0 sets the VOTE permission.\n   * Index 1 sets the PROPOSE permission.\n   * Index 2 sets the SEND_DELEGATE permission.\n   * Index 3 sets the RECIEVE_DELEGATE permission.\n   * Index 4 sets the MASTER permission.\n   *\n   * @param universalProfileAddress The address of a Universal Profile.\n   * @param index A number 0 <= `index` <= 4.\n   */\n  function addPermission(\n    address universalProfileAddress,\n    uint8 index\n  ) \n    public\n    permissionSet(msg.sender, DAO_PERMISSIONS._getPermissionsByIndex(4)) /** @dev User has MASTER permission */\n    permissionUnset(universalProfileAddress, DAO_PERMISSIONS._getPermissionsByIndex(index))\n  {\n    if (!DAO_PARTICIPATION._getParticipantOfDao(universalProfileAddress, address(this))) {\n      registerUser(universalProfileAddress);\n    }\n    \n    DAO_PERMISSIONS._setAddressDaoPermission(universalProfileAddress, index, true);\n  }\n\n  /**\n   * @notice Remove the permission of an Unversal Profile by index.\n   * Index 0 unsets the VOTE permission.\n   * Index 1 unsets the PROPOSE permission.\n   * Index 2 unsets the SEND_DELEGATE permission.\n   * Index 3 unsets the RECIEVE_DELEGATE permission.\n   * Index 4 unsets the MASTER permission.\n   *\n   * @param universalProfileAddress The address of a Universal Profile.\n   * @param index A number 0 <= `index` <= 4.\n   */\n\n  function removePermission(\n    address universalProfileAddress,\n    uint8 index\n  ) \n    external\n    permissionSet(universalProfileAddress, DAO_PERMISSIONS._getPermissionsByIndex(4)) /** @dev User has MASTER permission */\n    permissionSet(universalProfileAddress, DAO_PERMISSIONS._getPermissionsByIndex(index))\n  {\n    DAO_PERMISSIONS._setAddressDaoPermission(universalProfileAddress, index, false);\n  }\n\n  /**\n   * @notice Delegate your vote to another participant of the DAO\n   */\n  function delegate(address delegatee)\n    external\n    permissionSet(msg.sender, DAO_PERMISSIONS._getPermissionsByIndex(2))\n    permissionSet(delegatee, DAO_PERMISSIONS._getPermissionsByIndex(3))\n  {\n    DAO_DELEGATES._setDelegateeOfTheDelegator(msg.sender, delegatee);\n    DAO_DELEGATES._setDelegatorByIndex(\n      msg.sender,\n      delegatee,\n      DAO_DELEGATES._getDelegatorsArrayLength(delegatee)\n    );\n    DAO_DELEGATES._setDelegatorsArrayLength(\n      DAO_DELEGATES._getDelegatorsArrayLength(delegatee),\n      delegatee\n    );\n  }\n\n  /**\n   * @notice Create a proposal.\n   * The proposal signature is encoded to a bytes10 variable.\n   * Which is later used compined with an attribute key for getting the attribute value.\n   *\n   * @param title Title of the proposal.\n   * @param description Description of the proposal.\n   * @param targets The addresses of the smart contracts that might have calldata executed.\n   * @param datas The calldata that will be executed if the proposall passes.\n   */\n  function createProposal(\n    string memory title,\n    string memory description,\n    address[] memory targets,\n    bytes[] memory datas\n  )\n    external\n    permissionSet(msg.sender, DAO_PERMISSIONS._getPermissionsByIndex(1))\n    returns(bytes10 proposalSignature)\n  {\n    require(targets.length == datas.length, \"Provided targets and datas have different lengths.\");\n\n    proposalSignature = DAO_PROPOSALS._getProposalSignature(block.timestamp, title);\n\n    DAO_PROPOSALS._setAttributeValue(\n      proposalSignature,\n      DAO_PROPOSALS._getProposalAttributeKeyByIndex(0),\n      bytes(title)\n    );\n    DAO_PROPOSALS._setAttributeValue(\n      proposalSignature,\n      DAO_PROPOSALS._getProposalAttributeKeyByIndex(1),\n      bytes(description)\n    );\n    DAO_PROPOSALS._setAttributeValue(\n      proposalSignature,\n      DAO_PROPOSALS._getProposalAttributeKeyByIndex(2),\n      bytes.concat(bytes32(block.timestamp))\n    );\n    DAO_PROPOSALS._setAttributeValue(\n      proposalSignature,\n      DAO_PROPOSALS._getProposalAttributeKeyByIndex(3),\n      bytes.concat(bytes32(block.timestamp + DAO_METADATA._getDaoVotingDelay()))\n    );\n    DAO_PROPOSALS._setAttributeValue(\n      proposalSignature,\n      DAO_PROPOSALS._getProposalAttributeKeyByIndex(4),\n      bytes.concat(bytes32(block.timestamp + DAO_METADATA._getDaoVotingPeriod()))\n    );\n\n    DAO_PROPOSALS._setTargetsAndDatas(proposalSignature, targets, datas);\n  }\n\n  /**\n   * @notice End proposal and execute the calldata.\n   * Encode the proposal info, timestamps and results and save them to the Universal Profile of the DAO.\n   *\n   * @param proposalSignature The abi.encode bytes32 signature of a proposal.\n   */\n  function endProposal(\n    bytes10 proposalSignature\n  ) \n    external\n    votingPeriodPassed(proposalSignature)\n    isParticipantOfDao(msg.sender, address(this))\n  {\n    DAO_PROPOSALS._setAttributeValue(proposalSignature, DAO_PROPOSALS._getProposalAttributeKeyByIndex(4), bytes.concat(bytes32(block.timestamp)));\n  \n    (address[] memory targets, bytes[] memory datas) = DAO_PROPOSALS._getTargetsAndDatas(proposalSignature);\n    if(DAO_VOTING_STRATEGIES._strategyOneResult(proposalSignature)) {\n      for (uint i = 0; i < targets.length; i++) {\n        UNIVERSAL_PROFILE.execute(\n          0,\n          targets[i],\n          0,\n          datas[i]\n        );\n      }\n    }\n  }\n\n  /**\n   * @notice Vote on a proposal.\n   *\n   * @param proposalSignature The abi.encode bytes32 signature of a proposal.\n   * @param voteIndex a number 0 <= `voteIndex` <= 1.\n   * Index 0 are the against votes. \n   * Index 1 are the pro votes. \n   */\n  function vote(\n    bytes10 proposalSignature,\n    uint8 voteIndex\n  )\n    external\n    permissionSet(msg.sender, DAO_PERMISSIONS._getPermissionsByIndex(0))\n    didNotDelegate(msg.sender)\n    didNotVote(msg.sender, proposalSignature)\n    votingPeriodIsOn(proposalSignature)\n  {\n    bytes20 votesKey = DAO_PROPOSALS._getProposalAttributeKeyByIndex(7 + voteIndex);\n    uint256 votes;\n    if(uint256(bytes32(DAO_PERMISSIONS._getAddressDaoPermission(msg.sender))) & (1 << 3) !=0) {\n      votes = uint256(bytes32(DAO_PROPOSALS._getAttributeValue(proposalSignature, votesKey ))) + DAO_DELEGATES._getDelegatorsArrayLength(msg.sender);\n    }\n    else {\n      votes = uint256(bytes32(DAO_PROPOSALS._getAttributeValue(proposalSignature, votesKey))) + 1;\n    }\n    DAO_PROPOSALS._setAttributeValue(\n      proposalSignature,\n      votesKey,\n      bytes.concat(bytes32(votes))\n    );\n  }\n\n}",
  "sourcePath": "/home/b00ste/Projects/universal-profile-governance/contracts/UPDao/DaoAccount.sol",
  "compiler": {
    "name": "solc",
    "version": "0.8.15+commit.e14f2714.Emscripten.clang"
  },
  "schemaVersion": "3.4.8",
  "updatedAt": "2022-07-22T23:29:03.794Z",
  "devdoc": {
    "author": "B00ste",
    "custom:version": "0.92",
    "kind": "dev",
    "methods": {
      "addPermission(address,uint8)": {
        "params": {
          "index": "A number 0 <= `index` <= 4.",
          "universalProfileAddress": "The address of a Universal Profile."
        }
      },
      "createProposal(string,string,address[],bytes[])": {
        "params": {
          "datas": "The calldata that will be executed if the proposall passes.",
          "description": "Description of the proposal.",
          "targets": "The addresses of the smart contracts that might have calldata executed.",
          "title": "Title of the proposal."
        }
      },
      "endProposal(bytes10)": {
        "params": {
          "proposalSignature": "The abi.encode bytes32 signature of a proposal."
        }
      },
      "removePermission(address,uint8)": {
        "params": {
          "index": "A number 0 <= `index` <= 4.",
          "universalProfileAddress": "The address of a Universal Profile."
        }
      },
      "vote(bytes10,uint8)": {
        "params": {
          "proposalSignature": "The abi.encode bytes32 signature of a proposal.",
          "voteIndex": "a number 0 <= `voteIndex` <= 1. Index 0 are the against votes.  Index 1 are the pro votes. "
        }
      }
    },
    "title": "DaoAccount",
    "version": 1
  },
  "userdoc": {
    "kind": "user",
    "methods": {
      "addPermission(address,uint8)": {
        "notice": "Add permission to an address by index. Index 0 sets the VOTE permission. Index 1 sets the PROPOSE permission. Index 2 sets the SEND_DELEGATE permission. Index 3 sets the RECIEVE_DELEGATE permission. Index 4 sets the MASTER permission."
      },
      "constructor": {
        "notice": "Initialization of the Universal Profile Account as a DAO Account; Here is where all the tools needed for a functioning DAO are initialized."
      },
      "createProposal(string,string,address[],bytes[])": {
        "notice": "Create a proposal. The proposal signature is encoded to a bytes10 variable. Which is later used compined with an attribute key for getting the attribute value."
      },
      "delegate(address)": {
        "notice": "Delegate your vote to another participant of the DAO"
      },
      "endProposal(bytes10)": {
        "notice": "End proposal and execute the calldata. Encode the proposal info, timestamps and results and save them to the Universal Profile of the DAO."
      },
      "removePermission(address,uint8)": {
        "notice": "Remove the permission of an Unversal Profile by index. Index 0 unsets the VOTE permission. Index 1 unsets the PROPOSE permission. Index 2 unsets the SEND_DELEGATE permission. Index 3 unsets the RECIEVE_DELEGATE permission. Index 4 unsets the MASTER permission."
      },
      "vote(bytes10,uint8)": {
        "notice": "Vote on a proposal."
      }
    },
    "notice": "This smart contract is responsible for connecting all the necessary tools for a DAO based on Universal Profiles (LSP0ERC725Account)",
    "version": 1
  }
}