{
  "contractName": "DaoAccountMetadata",
  "abi": [
    {
      "inputs": [
        {
          "internalType": "contract LSP0ERC725Account",
          "name": "_DAO",
          "type": "address"
        },
        {
          "internalType": "contract LSP6KeyManager",
          "name": "_KEY_MANAGER",
          "type": "address"
        },
        {
          "internalType": "contract DaoUtils",
          "name": "_utils",
          "type": "address"
        },
        {
          "internalType": "address",
          "name": "daoAddress",
          "type": "address"
        }
      ],
      "name": "init",
      "outputs": [],
      "stateMutability": "nonpayable",
      "type": "function"
    },
    {
      "inputs": [],
      "name": "_getDaoName",
      "outputs": [
        {
          "internalType": "string",
          "name": "name",
          "type": "string"
        }
      ],
      "stateMutability": "view",
      "type": "function"
    },
    {
      "inputs": [
        {
          "internalType": "string",
          "name": "name",
          "type": "string"
        }
      ],
      "name": "_setDaoName",
      "outputs": [],
      "stateMutability": "nonpayable",
      "type": "function"
    },
    {
      "inputs": [],
      "name": "_getDaoDescription",
      "outputs": [
        {
          "internalType": "string",
          "name": "description",
          "type": "string"
        }
      ],
      "stateMutability": "view",
      "type": "function"
    },
    {
      "inputs": [
        {
          "internalType": "string",
          "name": "description",
          "type": "string"
        }
      ],
      "name": "_setDaoDescription",
      "outputs": [],
      "stateMutability": "nonpayable",
      "type": "function"
    },
    {
      "inputs": [],
      "name": "_getDaoMajority",
      "outputs": [
        {
          "internalType": "uint8",
          "name": "majority",
          "type": "uint8"
        }
      ],
      "stateMutability": "view",
      "type": "function"
    },
    {
      "inputs": [
        {
          "internalType": "uint8",
          "name": "majority",
          "type": "uint8"
        }
      ],
      "name": "_setDaoMajority",
      "outputs": [],
      "stateMutability": "nonpayable",
      "type": "function"
    },
    {
      "inputs": [],
      "name": "_getDaoParticipationRate",
      "outputs": [
        {
          "internalType": "uint8",
          "name": "participationRate",
          "type": "uint8"
        }
      ],
      "stateMutability": "view",
      "type": "function"
    },
    {
      "inputs": [
        {
          "internalType": "uint8",
          "name": "participationRate",
          "type": "uint8"
        }
      ],
      "name": "_setDaoParticipationRate",
      "outputs": [],
      "stateMutability": "nonpayable",
      "type": "function"
    },
    {
      "inputs": [],
      "name": "_getDaoVotingDelay",
      "outputs": [
        {
          "internalType": "uint256",
          "name": "votingDelay",
          "type": "uint256"
        }
      ],
      "stateMutability": "view",
      "type": "function"
    },
    {
      "inputs": [
        {
          "internalType": "uint256",
          "name": "votingDelay",
          "type": "uint256"
        }
      ],
      "name": "_setDaoVotingDelay",
      "outputs": [],
      "stateMutability": "nonpayable",
      "type": "function"
    },
    {
      "inputs": [],
      "name": "_getDaoVotingPeriod",
      "outputs": [
        {
          "internalType": "uint256",
          "name": "votingPeriod",
          "type": "uint256"
        }
      ],
      "stateMutability": "view",
      "type": "function"
    },
    {
      "inputs": [
        {
          "internalType": "uint256",
          "name": "votingPeriod",
          "type": "uint256"
        }
      ],
      "name": "_setDaoVotingPeriod",
      "outputs": [],
      "stateMutability": "nonpayable",
      "type": "function"
    }
  ],
  "bytecode": "0x60806040526000600160146101000a81548160ff0219169083151502179055507f55e49609591f684ecf6f2909c9e20c2439b990887b9c3fe108b154c9077d85cf60001b6004557f95e794640ff3efd16bfe738f1a9bf2886d166af549121f57d6e14af6b513f45d60001b6005557f1c990d1606629a2681dbc22754450a119d5896cd739732a966bd0a2e0864735960001b6006557ff89f507ecd9cb7646ce1514ec6ab90d695dac9314c3771f451fd90148a3335a960001b6007557f5bd05fa174be6a4aa4a8222f8837a27a381de14e7797cf7945df58b0626e6c3d60001b6008557fd08ca3a83d59467dd8ba57e940549874ea8310a1ebfb4396959235b00035d77760001b60095534801561011557600080fd5b50612056806101256000396000f3fe608060405234801561001057600080fd5b50600436106100cf5760003560e01c80636f5e35191161008c578063a31f641a11610066578063a31f641a146101d8578063cfb58f7d146101f4578063ef64d31714610210578063f0deb28d1461022e576100cf565b80636f5e351914610180578063754b15281461019c578063a218a205146101ba576100cf565b80630205c373146100d4578063024ff616146100f057806306552ff31461010c578063444f81d41461012857806357c0cb57146101465780636291ebfa14610162575b600080fd5b6100ee60048036038101906100e9919061161e565b61024c565b005b61010a60048036038101906101059190611681565b610487565b005b610126600480360381019061012191906117d8565b6106c2565b005b61013061080e565b60405161013d91906118d8565b60405180910390f35b610160600480360381019061015b919061161e565b6108b8565b005b61016a610af3565b60405161017791906118d8565b60405180910390f35b61019a60048036038101906101959190611681565b610b9d565b005b6101a4610dd8565b6040516101b19190611909565b60405180910390f35b6101c2610e8e565b6040516101cf9190611909565b60405180910390f35b6101f260048036038101906101ed9190611a59565b610f44565b005b61020e60048036038101906102099190611a59565b61115d565b005b610218611376565b6040516102259190611ab1565b60405180910390f35b61023661142c565b6040516102439190611ab1565b60405180910390f35b33600160009054906101000a900473ffffffffffffffffffffffffffffffffffffffff1673ffffffffffffffffffffffffffffffffffffffff168173ffffffffffffffffffffffffffffffffffffffff16146102dd576040517f08c379a00000000000000000000000000000000000000000000000000000000081526004016102d490611b18565b60405180910390fd5b600160149054906101000a900460ff1661032c576040517f08c379a000000000000000000000000000000000000000000000000000000000815260040161032390611b84565b60405180910390fd5b600360009054906101000a900473ffffffffffffffffffffffffffffffffffffffff1673ffffffffffffffffffffffffffffffffffffffff166309c5eabe6007548460f81b6040516020016103819190611bf1565b6040516020818303038152906040526040516024016103a1929190611c7a565b6040516020818303038152906040527f7f23690c000000000000000000000000000000000000000000000000000000007bffffffffffffffffffffffffffffffffffffffffffffffffffffffff19166020820180517bffffffffffffffffffffffffffffffffffffffffffffffffffffffff83818316178352505050506040518263ffffffff1660e01b815260040161043a9190611caa565b6000604051808303816000875af1158015610459573d6000803e3d6000fd5b505050506040513d6000823e3d601f19601f820116820180604052508101906104829190611d6d565b505050565b33600160009054906101000a900473ffffffffffffffffffffffffffffffffffffffff1673ffffffffffffffffffffffffffffffffffffffff168173ffffffffffffffffffffffffffffffffffffffff1614610518576040517f08c379a000000000000000000000000000000000000000000000000000000000815260040161050f90611b18565b60405180910390fd5b600160149054906101000a900460ff16610567576040517f08c379a000000000000000000000000000000000000000000000000000000000815260040161055e90611b84565b60405180910390fd5b600360009054906101000a900473ffffffffffffffffffffffffffffffffffffffff1673ffffffffffffffffffffffffffffffffffffffff166309c5eabe6008548460001b6040516020016105bc9190611dd7565b6040516020818303038152906040526040516024016105dc929190611c7a565b6040516020818303038152906040527f7f23690c000000000000000000000000000000000000000000000000000000007bffffffffffffffffffffffffffffffffffffffffffffffffffffffff19166020820180517bffffffffffffffffffffffffffffffffffffffffffffffffffffffff83818316178352505050506040518263ffffffff1660e01b81526004016106759190611caa565b6000604051808303816000875af1158015610694573d6000803e3d6000fd5b505050506040513d6000823e3d601f19601f820116820180604052508101906106bd9190611d6d565b505050565b600160149054906101000a900460ff1615610712576040517f08c379a000000000000000000000000000000000000000000000000000000000815260040161070990611e3e565b60405180910390fd5b600160149054906101000a900460ff1615610762576040517f08c379a000000000000000000000000000000000000000000000000000000000815260040161075990611ed0565b60405180910390fd5b83600260006101000a81548173ffffffffffffffffffffffffffffffffffffffff021916908373ffffffffffffffffffffffffffffffffffffffff16021790555082600360006101000a81548173ffffffffffffffffffffffffffffffffffffffff021916908373ffffffffffffffffffffffffffffffffffffffff1602179055506107ee82826114e2565b60018060146101000a81548160ff02191690831515021790555050505050565b6060600260009054906101000a900473ffffffffffffffffffffffffffffffffffffffff1673ffffffffffffffffffffffffffffffffffffffff166354f6127f6005546040518263ffffffff1660e01b815260040161086d9190611ef0565b600060405180830381865afa15801561088a573d6000803e3d6000fd5b505050506040513d6000823e3d601f19601f820116820180604052508101906108b39190611d6d565b905090565b33600160009054906101000a900473ffffffffffffffffffffffffffffffffffffffff1673ffffffffffffffffffffffffffffffffffffffff168173ffffffffffffffffffffffffffffffffffffffff1614610949576040517f08c379a000000000000000000000000000000000000000000000000000000000815260040161094090611b18565b60405180910390fd5b600160149054906101000a900460ff16610998576040517f08c379a000000000000000000000000000000000000000000000000000000000815260040161098f90611b84565b60405180910390fd5b600360009054906101000a900473ffffffffffffffffffffffffffffffffffffffff1673ffffffffffffffffffffffffffffffffffffffff166309c5eabe6006548460f81b6040516020016109ed9190611bf1565b604051602081830303815290604052604051602401610a0d929190611c7a565b6040516020818303038152906040527f7f23690c000000000000000000000000000000000000000000000000000000007bffffffffffffffffffffffffffffffffffffffffffffffffffffffff19166020820180517bffffffffffffffffffffffffffffffffffffffffffffffffffffffff83818316178352505050506040518263ffffffff1660e01b8152600401610aa69190611caa565b6000604051808303816000875af1158015610ac5573d6000803e3d6000fd5b505050506040513d6000823e3d601f19601f82011682018060405250810190610aee9190611d6d565b505050565b6060600260009054906101000a900473ffffffffffffffffffffffffffffffffffffffff1673ffffffffffffffffffffffffffffffffffffffff166354f6127f6004546040518263ffffffff1660e01b8152600401610b529190611ef0565b600060405180830381865afa158015610b6f573d6000803e3d6000fd5b505050506040513d6000823e3d601f19601f82011682018060405250810190610b989190611d6d565b905090565b33600160009054906101000a900473ffffffffffffffffffffffffffffffffffffffff1673ffffffffffffffffffffffffffffffffffffffff168173ffffffffffffffffffffffffffffffffffffffff1614610c2e576040517f08c379a0000000000000000000000000000000000000000000000000000000008152600401610c2590611b18565b60405180910390fd5b600160149054906101000a900460ff16610c7d576040517f08c379a0000000000000000000000000000000000000000000000000000000008152600401610c7490611b84565b60405180910390fd5b600360009054906101000a900473ffffffffffffffffffffffffffffffffffffffff1673ffffffffffffffffffffffffffffffffffffffff166309c5eabe6009548460001b604051602001610cd29190611dd7565b604051602081830303815290604052604051602401610cf2929190611c7a565b6040516020818303038152906040527f7f23690c000000000000000000000000000000000000000000000000000000007bffffffffffffffffffffffffffffffffffffffffffffffffffffffff19166020820180517bffffffffffffffffffffffffffffffffffffffffffffffffffffffff83818316178352505050506040518263ffffffff1660e01b8152600401610d8b9190611caa565b6000604051808303816000875af1158015610daa573d6000803e3d6000fd5b505050506040513d6000823e3d601f19601f82011682018060405250810190610dd39190611d6d565b505050565b6000600260009054906101000a900473ffffffffffffffffffffffffffffffffffffffff1673ffffffffffffffffffffffffffffffffffffffff166354f6127f6007546040518263ffffffff1660e01b8152600401610e379190611ef0565b600060405180830381865afa158015610e54573d6000803e3d6000fd5b505050506040513d6000823e3d601f19601f82011682018060405250810190610e7d9190611d6d565b610e8690611f3d565b60f81c905090565b6000600260009054906101000a900473ffffffffffffffffffffffffffffffffffffffff1673ffffffffffffffffffffffffffffffffffffffff166354f6127f6006546040518263ffffffff1660e01b8152600401610eed9190611ef0565b600060405180830381865afa158015610f0a573d6000803e3d6000fd5b505050506040513d6000823e3d601f19601f82011682018060405250810190610f339190611d6d565b610f3c90611f3d565b60f81c905090565b33600160009054906101000a900473ffffffffffffffffffffffffffffffffffffffff1673ffffffffffffffffffffffffffffffffffffffff168173ffffffffffffffffffffffffffffffffffffffff1614610fd5576040517f08c379a0000000000000000000000000000000000000000000000000000000008152600401610fcc90611b18565b60405180910390fd5b600160149054906101000a900460ff16611024576040517f08c379a000000000000000000000000000000000000000000000000000000000815260040161101b90611b84565b60405180910390fd5b600360009054906101000a900473ffffffffffffffffffffffffffffffffffffffff1673ffffffffffffffffffffffffffffffffffffffff166309c5eabe60045484604051602401611077929190611c7a565b6040516020818303038152906040527f7f23690c000000000000000000000000000000000000000000000000000000007bffffffffffffffffffffffffffffffffffffffffffffffffffffffff19166020820180517bffffffffffffffffffffffffffffffffffffffffffffffffffffffff83818316178352505050506040518263ffffffff1660e01b81526004016111109190611caa565b6000604051808303816000875af115801561112f573d6000803e3d6000fd5b505050506040513d6000823e3d601f19601f820116820180604052508101906111589190611d6d565b505050565b33600160009054906101000a900473ffffffffffffffffffffffffffffffffffffffff1673ffffffffffffffffffffffffffffffffffffffff168173ffffffffffffffffffffffffffffffffffffffff16146111ee576040517f08c379a00000000000000000000000000000000000000000000000000000000081526004016111e590611b18565b60405180910390fd5b600160149054906101000a900460ff1661123d576040517f08c379a000000000000000000000000000000000000000000000000000000000815260040161123490611b84565b60405180910390fd5b600360009054906101000a900473ffffffffffffffffffffffffffffffffffffffff1673ffffffffffffffffffffffffffffffffffffffff166309c5eabe60055484604051602401611290929190611c7a565b6040516020818303038152906040527f7f23690c000000000000000000000000000000000000000000000000000000007bffffffffffffffffffffffffffffffffffffffffffffffffffffffff19166020820180517bffffffffffffffffffffffffffffffffffffffffffffffffffffffff83818316178352505050506040518263ffffffff1660e01b81526004016113299190611caa565b6000604051808303816000875af1158015611348573d6000803e3d6000fd5b505050506040513d6000823e3d601f19601f820116820180604052508101906113719190611d6d565b505050565b6000600260009054906101000a900473ffffffffffffffffffffffffffffffffffffffff1673ffffffffffffffffffffffffffffffffffffffff166354f6127f6009546040518263ffffffff1660e01b81526004016113d59190611ef0565b600060405180830381865afa1580156113f2573d6000803e3d6000fd5b505050506040513d6000823e3d601f19601f8201168201806040525081019061141b9190611d6d565b61142490611fb9565b60001c905090565b6000600260009054906101000a900473ffffffffffffffffffffffffffffffffffffffff1673ffffffffffffffffffffffffffffffffffffffff166354f6127f6008546040518263ffffffff1660e01b815260040161148b9190611ef0565b600060405180830381865afa1580156114a8573d6000803e3d6000fd5b505050506040513d6000823e3d601f19601f820116820180604052508101906114d19190611d6d565b6114da90611fb9565b60001c905090565b600160149054906101000a900460ff1615611532576040517f08c379a000000000000000000000000000000000000000000000000000000000815260040161152990611ed0565b60405180910390fd5b816000806101000a81548173ffffffffffffffffffffffffffffffffffffffff021916908373ffffffffffffffffffffffffffffffffffffffff16021790555080600160006101000a81548173ffffffffffffffffffffffffffffffffffffffff021916908373ffffffffffffffffffffffffffffffffffffffff16021790555060018060146101000a81548160ff0219169083151502179055505050565b6000604051905090565b600080fd5b600080fd5b600060ff82169050919050565b6115fb816115e5565b811461160657600080fd5b50565b600081359050611618816115f2565b92915050565b600060208284031215611634576116336115db565b5b600061164284828501611609565b91505092915050565b6000819050919050565b61165e8161164b565b811461166957600080fd5b50565b60008135905061167b81611655565b92915050565b600060208284031215611697576116966115db565b5b60006116a58482850161166c565b91505092915050565b600073ffffffffffffffffffffffffffffffffffffffff82169050919050565b60006116d9826116ae565b9050919050565b60006116eb826116ce565b9050919050565b6116fb816116e0565b811461170657600080fd5b50565b600081359050611718816116f2565b92915050565b6000611729826116ae565b9050919050565b600061173b8261171e565b9050919050565b61174b81611730565b811461175657600080fd5b50565b60008135905061176881611742565b92915050565b60006117798261171e565b9050919050565b6117898161176e565b811461179457600080fd5b50565b6000813590506117a681611780565b92915050565b6117b58161171e565b81146117c057600080fd5b50565b6000813590506117d2816117ac565b92915050565b600080600080608085870312156117f2576117f16115db565b5b600061180087828801611709565b945050602061181187828801611759565b935050604061182287828801611797565b9250506060611833878288016117c3565b91505092959194509250565b600081519050919050565b600082825260208201905092915050565b60005b8381101561187957808201518184015260208101905061185e565b83811115611888576000848401525b50505050565b6000601f19601f8301169050919050565b60006118aa8261183f565b6118b4818561184a565b93506118c481856020860161185b565b6118cd8161188e565b840191505092915050565b600060208201905081810360008301526118f2818461189f565b905092915050565b611903816115e5565b82525050565b600060208201905061191e60008301846118fa565b92915050565b600080fd5b600080fd5b7f4e487b7100000000000000000000000000000000000000000000000000000000600052604160045260246000fd5b6119668261188e565b810181811067ffffffffffffffff821117156119855761198461192e565b5b80604052505050565b60006119986115d1565b90506119a4828261195d565b919050565b600067ffffffffffffffff8211156119c4576119c361192e565b5b6119cd8261188e565b9050602081019050919050565b82818337600083830152505050565b60006119fc6119f7846119a9565b61198e565b905082815260208101848484011115611a1857611a17611929565b5b611a238482856119da565b509392505050565b600082601f830112611a4057611a3f611924565b5b8135611a508482602086016119e9565b91505092915050565b600060208284031215611a6f57611a6e6115db565b5b600082013567ffffffffffffffff811115611a8d57611a8c6115e0565b5b611a9984828501611a2b565b91505092915050565b611aab8161164b565b82525050565b6000602082019050611ac66000830184611aa2565b92915050565b7f43616c6c6572206973206e6f74207468652044414f2e00000000000000000000600082015250565b6000611b0260168361184a565b9150611b0d82611acc565b602082019050919050565b60006020820190508181036000830152611b3181611af5565b9050919050565b7f436f6e74726163747320617265206e6f7420696e697469616c697a65642e0000600082015250565b6000611b6e601e8361184a565b9150611b7982611b38565b602082019050919050565b60006020820190508181036000830152611b9d81611b61565b9050919050565b60007fff0000000000000000000000000000000000000000000000000000000000000082169050919050565b6000819050919050565b611beb611be682611ba4565b611bd0565b82525050565b6000611bfd8284611bda565b60018201915081905092915050565b6000819050919050565b611c1f81611c0c565b82525050565b600081519050919050565b600082825260208201905092915050565b6000611c4c82611c25565b611c568185611c30565b9350611c6681856020860161185b565b611c6f8161188e565b840191505092915050565b6000604082019050611c8f6000830185611c16565b8181036020830152611ca18184611c41565b90509392505050565b60006020820190508181036000830152611cc48184611c41565b905092915050565b600067ffffffffffffffff821115611ce757611ce661192e565b5b611cf08261188e565b9050602081019050919050565b6000611d10611d0b84611ccc565b61198e565b905082815260208101848484011115611d2c57611d2b611929565b5b611d3784828561185b565b509392505050565b600082601f830112611d5457611d53611924565b5b8151611d64848260208601611cfd565b91505092915050565b600060208284031215611d8357611d826115db565b5b600082015167ffffffffffffffff811115611da157611da06115e0565b5b611dad84828501611d3f565b91505092915050565b6000819050919050565b611dd1611dcc82611c0c565b611db6565b82525050565b6000611de38284611dc0565b60208201915081905092915050565b7f436f6e7472616374732061726520696e697469616c697a65642e000000000000600082015250565b6000611e28601a8361184a565b9150611e3382611df2565b602082019050919050565b60006020820190508181036000830152611e5781611e1b565b9050919050565b7f54686520636f6e747261637420697320616c726561647920696e697469616c6960008201527f7a65642e00000000000000000000000000000000000000000000000000000000602082015250565b6000611eba60248361184a565b9150611ec582611e5e565b604082019050919050565b60006020820190508181036000830152611ee981611ead565b9050919050565b6000602082019050611f056000830184611c16565b92915050565b6000819050602082019050919050565b6000611f278251611ba4565b80915050919050565b600082821b905092915050565b6000611f4882611c25565b82611f5284611f0b565b9050611f5d81611f1b565b92506001821015611f9d57611f987fff0000000000000000000000000000000000000000000000000000000000000083600103600802611f30565b831692505b5050919050565b6000611fb08251611c0c565b80915050919050565b6000611fc482611c25565b82611fce84611f0b565b9050611fd981611fa4565b92506020821015612019576120147fffffffffffffffffffffffffffffffffffffffffffffffffffffffffffffffff83602003600802611f30565b831692505b505091905056fea2646970667358221220596b6cdd7921a8b51fe6848cda690d8e6d97645bffb2f22681d7627845062e5f64736f6c634300080f0033",
  "immutableReferences": {},
  "source": "// SPDX-License-Identifier: CC0-1.0\n\npragma solidity ^0.8.0;\n\nimport \"./LSP0ERC725Account.sol\";\nimport \"./LSP6KeyManager.sol\";\nimport \"./Interfaces/DaoPermissionsInterface.sol\";\nimport \"./Utils/AccessControl.sol\";\nimport \"./Utils/DaoUtils.sol\";\n\n/**\n *\n* @notice This smart contract is responsible for the metadata of a Universal Profile DAO. \n *\n * @author B00ste\n * @title DaoAccountMetadata\n * @custom:version 0.92\n */\ncontract DaoAccountMetadata is AccessControl {\n\n  /**\n   * @notice Instance of the DAO key manager.\n   */\n  LSP0ERC725Account private DAO;\n\n  /**\n   * @notice Initialize the Key Manager of the DAO.\n   */\n  LSP6KeyManager private KEY_MANAGER;\n\n  /**\n   * @notice Initializing the contract.\n   */\n  function init(LSP0ERC725Account _DAO, LSP6KeyManager _KEY_MANAGER, DaoUtils _utils, address daoAddress) external isNotInitialized() {\n    require(!initialized, \"The contract is already initialized.\");\n    DAO = _DAO;\n    KEY_MANAGER = _KEY_MANAGER;\n    initAccessControl(_utils, daoAddress);\n    initialized = true;\n  }\n\n  // --- ATTRIBUTES\n\n  /**\n   * @notice Key for the name of the DAO.\n   */\n  bytes32 private nameKey = 0x55e49609591f684ecf6f2909c9e20c2439b990887b9c3fe108b154c9077d85cf;\n\n  /**\n   * @notice Key for the description of the DAO.\n   */\n  bytes32 private descriptionKey = 0x95e794640ff3efd16bfe738f1a9bf2886d166af549121f57d6e14af6b513f45d;\n\n  /**\n   * @notice key for the percentage of pro votes needed for a proposal to pass.\n   */\n  bytes32 private majorityKey = 0x1c990d1606629a2681dbc22754450a119d5896cd739732a966bd0a2e08647359;\n\n  /**\n   * @notice key for participation rate needed to be reached for a proposal to be valid.\n   */\n  bytes32 private participationRateKey = 0xf89f507ecd9cb7646ce1514ec6ab90d695dac9314c3771f451fd90148a3335a9;\n\n  /**\n   * @notice key for the time requiered to pass before ending the queueing period is possible.\n   */\n  bytes32 private votingDelayKey = 0x5bd05fa174be6a4aa4a8222f8837a27a381de14e7797cf7945df58b0626e6c3d;\n\n  /**\n   * @notice key for the time requiered to pass before ending the voting period is possible.\n   */\n  bytes32 private votingPeriodKey = 0xd08ca3a83d59467dd8ba57e940549874ea8310a1ebfb4396959235b00035d777;\n\n  // --- GETTERS & SETTERS\n\n  /**\n   * @notice Get the name of the DAO.\n   */\n  function _getDaoName() external view returns(string memory name) {\n    name = string(DAO.getData(nameKey));\n  }\n\n  /**\n   * @notice Set the name of the DAO.\n   */\n  function _setDaoName(string memory name) external isDao(msg.sender) isInitialized() {\n    KEY_MANAGER.execute(abi.encodeWithSignature(\"setData(bytes32,bytes)\", nameKey, bytes(name)));\n  }\n\n  /**\n   * @notice Get the description of the DAO.\n   */\n  function _getDaoDescription() external view returns(string memory description) {\n    description = string(DAO.getData(descriptionKey));\n  }\n\n  /**\n   * @notice Set the description of the DAO.\n   */\n  function _setDaoDescription(string memory description) external isDao(msg.sender) isInitialized() {\n    KEY_MANAGER.execute(abi.encodeWithSignature(\"setData(bytes32,bytes)\", descriptionKey, bytes(description)));\n  }\n\n  /**\n   * @notice Get the majority of the DAO.\n   */\n  function _getDaoMajority() external view returns(uint8 majority) {\n    majority = uint8(bytes1(DAO.getData(majorityKey)));\n  }\n\n  /**\n   * @notice Set the majority of the DAO.\n   */\n  function _setDaoMajority(uint8 majority) external isDao(msg.sender) isInitialized() {\n    KEY_MANAGER.execute(abi.encodeWithSignature(\"setData(bytes32,bytes)\", majorityKey, bytes.concat(bytes1(majority))));\n  }\n\n  /**\n   * @notice Get the participation rate of the DAO.\n   */\n  function _getDaoParticipationRate() external view returns(uint8 participationRate) {\n    participationRate = uint8(bytes1(DAO.getData(participationRateKey)));\n  }\n\n  /**\n   * @notice Set the participation rate of the DAO.\n   */\n  function _setDaoParticipationRate(uint8 participationRate) external isDao(msg.sender) isInitialized() {\n    KEY_MANAGER.execute(abi.encodeWithSignature(\"setData(bytes32,bytes)\", participationRateKey, bytes.concat(bytes1(participationRate))));\n  }\n\n  /**\n   * @notice Get the voting delay of the DAO.\n   */\n  function _getDaoVotingDelay() external view returns(uint256 votingDelay) {\n    votingDelay = uint256(bytes32(DAO.getData(votingDelayKey)));\n  }\n\n  /**\n   * @notice Set the voting delay of the DAO.\n   */\n  function _setDaoVotingDelay(uint256 votingDelay) external isDao(msg.sender) isInitialized() {\n    KEY_MANAGER.execute(abi.encodeWithSignature(\"setData(bytes32,bytes)\", votingDelayKey, bytes.concat(bytes32(votingDelay))));\n  }\n\n  /**\n   * @notice Get the voting period of the DAO.\n   */\n  function _getDaoVotingPeriod() external view returns(uint256 votingPeriod) {\n    votingPeriod = uint256(bytes32(DAO.getData(votingPeriodKey)));\n  }\n\n  /**\n   * @notice Set the voting period of the DAO.\n   */\n  function _setDaoVotingPeriod(uint256 votingPeriod) external isDao(msg.sender) isInitialized() {\n    KEY_MANAGER.execute(abi.encodeWithSignature(\"setData(bytes32,bytes)\", votingPeriodKey, bytes.concat(bytes32(votingPeriod))));\n  }\n\n}",
  "sourcePath": "/home/b00ste/Projects/universal-profile-governance/contracts/UPDao/DaoAccountMetadata.sol",
  "compiler": {
    "name": "solc",
    "version": "0.8.15+commit.e14f2714.Emscripten.clang"
  },
  "schemaVersion": "3.4.8",
  "updatedAt": "2022-07-22T23:29:03.920Z",
  "devdoc": {
    "author": "B00ste",
    "custom:version": "0.92",
    "kind": "dev",
    "methods": {},
    "title": "DaoAccountMetadata",
    "version": 1
  },
  "userdoc": {
    "kind": "user",
    "methods": {
      "_getDaoDescription()": {
        "notice": "Get the description of the DAO."
      },
      "_getDaoMajority()": {
        "notice": "Get the majority of the DAO."
      },
      "_getDaoName()": {
        "notice": "Get the name of the DAO."
      },
      "_getDaoParticipationRate()": {
        "notice": "Get the participation rate of the DAO."
      },
      "_getDaoVotingDelay()": {
        "notice": "Get the voting delay of the DAO."
      },
      "_getDaoVotingPeriod()": {
        "notice": "Get the voting period of the DAO."
      },
      "_setDaoDescription(string)": {
        "notice": "Set the description of the DAO."
      },
      "_setDaoMajority(uint8)": {
        "notice": "Set the majority of the DAO."
      },
      "_setDaoName(string)": {
        "notice": "Set the name of the DAO."
      },
      "_setDaoParticipationRate(uint8)": {
        "notice": "Set the participation rate of the DAO."
      },
      "_setDaoVotingDelay(uint256)": {
        "notice": "Set the voting delay of the DAO."
      },
      "_setDaoVotingPeriod(uint256)": {
        "notice": "Set the voting period of the DAO."
      },
      "init(address,address,address,address)": {
        "notice": "Initializing the contract."
      }
    },
    "notice": "This smart contract is responsible for the metadata of a Universal Profile DAO. ",
    "version": 1
  }
}