{
  "contractName": "DaoCreator",
  "abi": [
    {
      "inputs": [
        {
          "internalType": "bytes2",
          "name": "errorNumber",
          "type": "bytes2"
        }
      ],
      "name": "ErrorWithNumber",
      "type": "error"
    },
    {
      "inputs": [],
      "name": "getAddresses",
      "outputs": [
        {
          "internalType": "address[5]",
          "name": "addresses",
          "type": "address[5]"
        }
      ],
      "stateMutability": "view",
      "type": "function"
    },
    {
      "inputs": [],
      "name": "createUniversalProfile",
      "outputs": [],
      "stateMutability": "nonpayable",
      "type": "function"
    },
    {
      "inputs": [],
      "name": "createUniversalProfileKeyManager",
      "outputs": [],
      "stateMutability": "nonpayable",
      "type": "function"
    },
    {
      "inputs": [],
      "name": "createDaoKeyManager",
      "outputs": [],
      "stateMutability": "nonpayable",
      "type": "function"
    },
    {
      "inputs": [],
      "name": "createVaultKeyManager",
      "outputs": [],
      "stateMutability": "nonpayable",
      "type": "function"
    },
    {
      "inputs": [],
      "name": "giveMaxPermissionsToDaoAndVault",
      "outputs": [],
      "stateMutability": "nonpayable",
      "type": "function"
    },
    {
      "inputs": [],
      "name": "transferOwnership",
      "outputs": [],
      "stateMutability": "nonpayable",
      "type": "function"
    }
  ],
  "bytecode": "0x608060405234801561001057600080fd5b50620106c080620000226000396000f3fe60806040523480156200001157600080fd5b5060043610620000885760003560e01c80635a01f4bd11620000635780635a01f4bd14620000b15780636974397314620000bd578063880ad0af14620000c9578063a39fac1214620000d55762000088565b806305ebdeea146200008d578063273c23a1146200009957806342bd382914620000a5575b600080fd5b62000097620000f7565b005b620000a3620002b1565b005b620000af62000557565b005b620000bb62000ef9565b005b620000c762001270565b005b620000d362001584565b005b620000df62001a1b565b604051620000ee919062001e5a565b60405180910390f35b600060016000803373ffffffffffffffffffffffffffffffffffffffff1673ffffffffffffffffffffffffffffffffffffffff16815260200190815260200160002060040160149054906101000a900460f01b60f01c1661ffff1614620001985760016040517ff3a4c8ae0000000000000000000000000000000000000000000000000000000081526004016200018f919062001ef3565b60405180910390fd5b30604051620001a79062001d12565b620001b3919062001f21565b604051809103906000f080158015620001d0573d6000803e3d6000fd5b506000803373ffffffffffffffffffffffffffffffffffffffff1673ffffffffffffffffffffffffffffffffffffffff16815260200190815260200160002060000160006101000a81548173ffffffffffffffffffffffffffffffffffffffff021916908373ffffffffffffffffffffffffffffffffffffffff160217905550600160f01b6000803373ffffffffffffffffffffffffffffffffffffffff1673ffffffffffffffffffffffffffffffffffffffff16815260200190815260200160002060040160146101000a81548161ffff021916908360f01c0217905550565b600060046000803373ffffffffffffffffffffffffffffffffffffffff1673ffffffffffffffffffffffffffffffffffffffff16815260200190815260200160002060040160149054906101000a900460f01b60f01c1661ffff1603620003525760066040517ff3a4c8ae00000000000000000000000000000000000000000000000000000000815260040162000349919062001f81565b60405180910390fd5b600060086000803373ffffffffffffffffffffffffffffffffffffffff1673ffffffffffffffffffffffffffffffffffffffff16815260200190815260200160002060040160149054906101000a900460f01b60f01c1661ffff1614620003f35760076040517ff3a4c8ae000000000000000000000000000000000000000000000000000000008152600401620003ea919062001fe1565b60405180910390fd5b604051620004019062001d20565b604051809103906000f0801580156200041e573d6000803e3d6000fd5b506000803373ffffffffffffffffffffffffffffffffffffffff1673ffffffffffffffffffffffffffffffffffffffff16815260200190815260200160002060030160006101000a81548173ffffffffffffffffffffffffffffffffffffffff021916908373ffffffffffffffffffffffffffffffffffffffff16021790555060016000803373ffffffffffffffffffffffffffffffffffffffff1673ffffffffffffffffffffffffffffffffffffffff16815260200190815260200160002060040160149054906101000a900460f01b60f01c61ffff16901b60f01b6000803373ffffffffffffffffffffffffffffffffffffffff1673ffffffffffffffffffffffffffffffffffffffff16815260200190815260200160002060040160146101000a81548161ffff021916908360f01c0217905550565b600060086000803373ffffffffffffffffffffffffffffffffffffffff1673ffffffffffffffffffffffffffffffffffffffff16815260200190815260200160002060040160149054906101000a900460f01b60f01c1661ffff1603620005f85760086040517ff3a4c8ae000000000000000000000000000000000000000000000000000000008152600401620005ef919062002041565b60405180910390fd5b600060106000803373ffffffffffffffffffffffffffffffffffffffff1673ffffffffffffffffffffffffffffffffffffffff16815260200190815260200160002060040160149054906101000a900460f01b60f01c1661ffff1614620006995760096040517ff3a4c8ae000000000000000000000000000000000000000000000000000000008152600401620006909190620020a1565b60405180910390fd5b6000600767ffffffffffffffff811115620006b957620006b8620020be565b5b604051908082528060200260200182016040528015620006e85781602001602082028036833780820191505090505b5090507fdf30dba06db6a30e65354d9a64c609861f089545ca58c6b4dbe31a5f338cb0e360001b81600081518110620007265762000725620020ed565b5b6020026020010181815250506fdf30dba06db6a30e65354d9a64c6098660801b600060801b6040516020016200075e9291906200216d565b6040516020818303038152906040526200077890620021e6565b816001815181106200078f576200078e620020ed565b5b6020026020010181815250506fdf30dba06db6a30e65354d9a64c6098660801b600160801b604051602001620007c79291906200216d565b604051602081830303815290604052620007e190620021e6565b81600281518110620007f857620007f7620020ed565b5b6020026020010181815250506fdf30dba06db6a30e65354d9a64c6098660801b600260801b604051602001620008309291906200216d565b6040516020818303038152906040526200084a90620021e6565b81600381518110620008615762000860620020ed565b5b6020026020010181815250506b4b80742de2bf82acb363000060a01b6000803373ffffffffffffffffffffffffffffffffffffffff1673ffffffffffffffffffffffffffffffffffffffff16815260200190815260200160002060020160009054906101000a900473ffffffffffffffffffffffffffffffffffffffff1660601b604051602001620008f5929190620022f8565b6040516020818303038152906040526200090f90620021e6565b81600481518110620009265762000925620020ed565b5b6020026020010181815250506b4b80742de2bf82acb363000060a01b6000803373ffffffffffffffffffffffffffffffffffffffff1673ffffffffffffffffffffffffffffffffffffffff16815260200190815260200160002060030160009054906101000a900473ffffffffffffffffffffffffffffffffffffffff1660601b604051602001620009ba929190620022f8565b604051602081830303815290604052620009d490620021e6565b81600581518110620009eb57620009ea620020ed565b5b6020026020010181815250506b4b80742de2bf82acb363000060a01b3060601b60405160200162000a1e929190620022f8565b60405160208183030381529060405262000a3890620021e6565b8160068151811062000a4f5762000a4e620020ed565b5b6020026020010181815250506000600767ffffffffffffffff81111562000a7b5762000a7a620020be565b5b60405190808252806020026020018201604052801562000ab057816020015b606081526020019060019003908162000a9a5790505b509050600260001b60405160200162000aca91906200234d565b6040516020818303038152906040528160008151811062000af05762000aef620020ed565b5b60200260200101819052506000803373ffffffffffffffffffffffffffffffffffffffff1673ffffffffffffffffffffffffffffffffffffffff16815260200190815260200160002060020160009054906101000a900473ffffffffffffffffffffffffffffffffffffffff1660601b60405160200162000b7291906200236a565b6040516020818303038152906040528160018151811062000b985762000b97620020ed565b5b60200260200101819052506000803373ffffffffffffffffffffffffffffffffffffffff1673ffffffffffffffffffffffffffffffffffffffff16815260200190815260200160002060030160009054906101000a900473ffffffffffffffffffffffffffffffffffffffff1660601b60405160200162000c1a91906200236a565b6040516020818303038152906040528160028151811062000c405762000c3f620020ed565b5b60200260200101819052503060601b60405160200162000c6191906200236a565b6040516020818303038152906040528160038151811062000c875762000c86620020ed565b5b6020026020010181905250617fff60001b60405160200162000caa91906200234d565b6040516020818303038152906040528160048151811062000cd05762000ccf620020ed565b5b6020026020010181905250617fff60001b60405160200162000cf391906200234d565b6040516020818303038152906040528160058151811062000d195762000d18620020ed565b5b6020026020010181905250600160001b60405160200162000d3b91906200234d565b6040516020818303038152906040528160068151811062000d615762000d60620020ed565b5b60200260200101819052506000803373ffffffffffffffffffffffffffffffffffffffff1673ffffffffffffffffffffffffffffffffffffffff16815260200190815260200160002060000160009054906101000a900473ffffffffffffffffffffffffffffffffffffffff1673ffffffffffffffffffffffffffffffffffffffff166314a6e29383836040518363ffffffff1660e01b815260040162000e0a929190620025be565b600060405180830381600087803b15801562000e2557600080fd5b505af115801562000e3a573d6000803e3d6000fd5b5050505060016000803373ffffffffffffffffffffffffffffffffffffffff1673ffffffffffffffffffffffffffffffffffffffff16815260200190815260200160002060040160149054906101000a900460f01b60f01c61ffff16901b60f01b6000803373ffffffffffffffffffffffffffffffffffffffff1673ffffffffffffffffffffffffffffffffffffffff16815260200190815260200160002060040160146101000a81548161ffff021916908360f01c02179055505050565b600060026000803373ffffffffffffffffffffffffffffffffffffffff1673ffffffffffffffffffffffffffffffffffffffff16815260200190815260200160002060040160149054906101000a900460f01b60f01c1661ffff160362000f9a5760046040517ff3a4c8ae00000000000000000000000000000000000000000000000000000000815260040162000f9191906200263c565b60405180910390fd5b600060046000803373ffffffffffffffffffffffffffffffffffffffff1673ffffffffffffffffffffffffffffffffffffffff16815260200190815260200160002060040160149054906101000a900460f01b60f01c1661ffff16146200103b5760056040517ff3a4c8ae0000000000000000000000000000000000000000000000000000000081526004016200103291906200269c565b60405180910390fd5b6000803373ffffffffffffffffffffffffffffffffffffffff1673ffffffffffffffffffffffffffffffffffffffff16815260200190815260200160002060000160009054906101000a900473ffffffffffffffffffffffffffffffffffffffff166000803373ffffffffffffffffffffffffffffffffffffffff1673ffffffffffffffffffffffffffffffffffffffff16815260200190815260200160002060010160009054906101000a900473ffffffffffffffffffffffffffffffffffffffff166040516200110d9062001d2d565b6200111a929190620026de565b604051809103906000f08015801562001137573d6000803e3d6000fd5b506000803373ffffffffffffffffffffffffffffffffffffffff1673ffffffffffffffffffffffffffffffffffffffff16815260200190815260200160002060020160006101000a81548173ffffffffffffffffffffffffffffffffffffffff021916908373ffffffffffffffffffffffffffffffffffffffff16021790555060016000803373ffffffffffffffffffffffffffffffffffffffff1673ffffffffffffffffffffffffffffffffffffffff16815260200190815260200160002060040160149054906101000a900460f01b60f01c61ffff16901b60f01b6000803373ffffffffffffffffffffffffffffffffffffffff1673ffffffffffffffffffffffffffffffffffffffff16815260200190815260200160002060040160146101000a81548161ffff021916908360f01c0217905550565b600060016000803373ffffffffffffffffffffffffffffffffffffffff1673ffffffffffffffffffffffffffffffffffffffff16815260200190815260200160002060040160149054906101000a900460f01b60f01c1661ffff1603620013115760026040517ff3a4c8ae0000000000000000000000000000000000000000000000000000000081526004016200130891906200274e565b60405180910390fd5b600060026000803373ffffffffffffffffffffffffffffffffffffffff1673ffffffffffffffffffffffffffffffffffffffff16815260200190815260200160002060040160149054906101000a900460f01b60f01c1661ffff1614620013b25760036040517ff3a4c8ae000000000000000000000000000000000000000000000000000000008152600401620013a99190620027ae565b60405180910390fd5b6000803373ffffffffffffffffffffffffffffffffffffffff1673ffffffffffffffffffffffffffffffffffffffff16815260200190815260200160002060000160009054906101000a900473ffffffffffffffffffffffffffffffffffffffff16604051620014229062001d3b565b6200142e919062002836565b604051809103906000f0801580156200144b573d6000803e3d6000fd5b506000803373ffffffffffffffffffffffffffffffffffffffff1673ffffffffffffffffffffffffffffffffffffffff16815260200190815260200160002060010160006101000a81548173ffffffffffffffffffffffffffffffffffffffff021916908373ffffffffffffffffffffffffffffffffffffffff16021790555060016000803373ffffffffffffffffffffffffffffffffffffffff1673ffffffffffffffffffffffffffffffffffffffff16815260200190815260200160002060040160149054906101000a900460f01b60f01c61ffff16901b60f01b6000803373ffffffffffffffffffffffffffffffffffffffff1673ffffffffffffffffffffffffffffffffffffffff16815260200190815260200160002060040160146101000a81548161ffff021916908360f01c0217905550565b600060106000803373ffffffffffffffffffffffffffffffffffffffff1673ffffffffffffffffffffffffffffffffffffffff16815260200190815260200160002060040160149054906101000a900460f01b60f01c1661ffff16036200162557600a6040517ff3a4c8ae0000000000000000000000000000000000000000000000000000000081526004016200161c919062002896565b60405180910390fd5b600060206000803373ffffffffffffffffffffffffffffffffffffffff1673ffffffffffffffffffffffffffffffffffffffff16815260200190815260200160002060040160149054906101000a900460f01b60f01c1661ffff1614620016c657600b6040517ff3a4c8ae000000000000000000000000000000000000000000000000000000008152600401620016bd9190620028f6565b60405180910390fd5b6000803373ffffffffffffffffffffffffffffffffffffffff1673ffffffffffffffffffffffffffffffffffffffff16815260200190815260200160002060000160009054906101000a900473ffffffffffffffffffffffffffffffffffffffff1673ffffffffffffffffffffffffffffffffffffffff1663f2fde38b6000803373ffffffffffffffffffffffffffffffffffffffff1673ffffffffffffffffffffffffffffffffffffffff16815260200190815260200160002060010160009054906101000a900473ffffffffffffffffffffffffffffffffffffffff166040518263ffffffff1660e01b8152600401620017c3919062001f21565b600060405180830381600087803b158015620017de57600080fd5b505af1158015620017f3573d6000803e3d6000fd5b505050506000803373ffffffffffffffffffffffffffffffffffffffff1673ffffffffffffffffffffffffffffffffffffffff16815260200190815260200160002060010160009054906101000a900473ffffffffffffffffffffffffffffffffffffffff1673ffffffffffffffffffffffffffffffffffffffff166309c5eabe7f4e71e0c8676e3746167a1acf5f45b9c4f9bfd01db4faa49dd539202eb4a76b23604051602401604051602081830303815290604052907bffffffffffffffffffffffffffffffffffffffffffffffffffffffff19166020820180517bffffffffffffffffffffffffffffffffffffffffffffffffffffffff83818316178352505050506040518263ffffffff1660e01b815260040162001916919062002965565b6000604051808303816000875af115801562001936573d6000803e3d6000fd5b505050506040513d6000823e3d601f19601f8201168201806040525081019062001961919062002ab0565b5060016000803373ffffffffffffffffffffffffffffffffffffffff1673ffffffffffffffffffffffffffffffffffffffff16815260200190815260200160002060040160149054906101000a900460f01b60f01c61ffff16901b60f01b6000803373ffffffffffffffffffffffffffffffffffffffff1673ffffffffffffffffffffffffffffffffffffffff16815260200190815260200160002060040160146101000a81548161ffff021916908360f01c0217905550565b62001a2562001d49565b6040518060a001604052806000803373ffffffffffffffffffffffffffffffffffffffff1673ffffffffffffffffffffffffffffffffffffffff16815260200190815260200160002060000160009054906101000a900473ffffffffffffffffffffffffffffffffffffffff1673ffffffffffffffffffffffffffffffffffffffff1673ffffffffffffffffffffffffffffffffffffffff1681526020016000803373ffffffffffffffffffffffffffffffffffffffff1673ffffffffffffffffffffffffffffffffffffffff16815260200190815260200160002060010160009054906101000a900473ffffffffffffffffffffffffffffffffffffffff1673ffffffffffffffffffffffffffffffffffffffff1673ffffffffffffffffffffffffffffffffffffffff1681526020016000803373ffffffffffffffffffffffffffffffffffffffff1673ffffffffffffffffffffffffffffffffffffffff16815260200190815260200160002060020160009054906101000a900473ffffffffffffffffffffffffffffffffffffffff1673ffffffffffffffffffffffffffffffffffffffff1673ffffffffffffffffffffffffffffffffffffffff1681526020016000803373ffffffffffffffffffffffffffffffffffffffff1673ffffffffffffffffffffffffffffffffffffffff16815260200190815260200160002060030160009054906101000a900473ffffffffffffffffffffffffffffffffffffffff1673ffffffffffffffffffffffffffffffffffffffff1673ffffffffffffffffffffffffffffffffffffffff1681526020016000803373ffffffffffffffffffffffffffffffffffffffff1673ffffffffffffffffffffffffffffffffffffffff16815260200190815260200160002060040160009054906101000a900473ffffffffffffffffffffffffffffffffffffffff1673ffffffffffffffffffffffffffffffffffffffff1673ffffffffffffffffffffffffffffffffffffffff16815250905090565b613ef08062002b0283390190565b605c80620069f283390190565b6151298062006a4e83390190565b614b14806200bb7783390190565b6040518060a00160405280600590602082028036833780820191505090505090565b600060059050919050565b600081905092915050565b6000819050919050565b600073ffffffffffffffffffffffffffffffffffffffff82169050919050565b600062001db88262001d8b565b9050919050565b62001dca8162001dab565b82525050565b600062001dde838362001dbf565b60208301905092915050565b6000602082019050919050565b62001e028162001d6b565b62001e0e818462001d76565b925062001e1b8262001d81565b8060005b8381101562001e5257815162001e36878262001dd0565b965062001e438362001dea565b92505060018101905062001e1f565b505050505050565b600060a08201905062001e71600083018462001df7565b92915050565b6000819050919050565b60007fffff00000000000000000000000000000000000000000000000000000000000082169050919050565b60008160f01b9050919050565b600062001edb62001ed562001ecf8462001e77565b62001ead565b62001e81565b9050919050565b62001eed8162001eba565b82525050565b600060208201905062001f0a600083018462001ee2565b92915050565b62001f1b8162001dab565b82525050565b600060208201905062001f38600083018462001f10565b92915050565b6000819050919050565b600062001f6962001f6362001f5d8462001f3e565b62001ead565b62001e81565b9050919050565b62001f7b8162001f48565b82525050565b600060208201905062001f98600083018462001f70565b92915050565b6000819050919050565b600062001fc962001fc362001fbd8462001f9e565b62001ead565b62001e81565b9050919050565b62001fdb8162001fa8565b82525050565b600060208201905062001ff8600083018462001fd0565b92915050565b6000819050919050565b600062002029620020236200201d8462001ffe565b62001ead565b62001e81565b9050919050565b6200203b8162002008565b82525050565b600060208201905062002058600083018462002030565b92915050565b6000819050919050565b600062002089620020836200207d846200205e565b62001ead565b62001e81565b9050919050565b6200209b8162002068565b82525050565b6000602082019050620020b8600083018462002090565b92915050565b7f4e487b7100000000000000000000000000000000000000000000000000000000600052604160045260246000fd5b7f4e487b7100000000000000000000000000000000000000000000000000000000600052603260045260246000fd5b60007fffffffffffffffffffffffffffffffff0000000000000000000000000000000082169050919050565b6000819050919050565b6200216762002161826200211c565b62002148565b82525050565b60006200217b828562002152565b6010820191506200218d828462002152565b6010820191508190509392505050565b600081519050919050565b6000819050602082019050919050565b6000819050919050565b6000620021d08251620021b8565b80915050919050565b600082821b905092915050565b6000620021f3826200219d565b82620021ff84620021a8565b90506200220c81620021c2565b925060208210156200224f576200224a7fffffffffffffffffffffffffffffffffffffffffffffffffffffffffffffffff83602003600802620021d9565b831692505b5050919050565b60007fffffffffffffffffffffffff000000000000000000000000000000000000000082169050919050565b6000819050919050565b620022a16200229b8262002256565b62002282565b82525050565b60007fffffffffffffffffffffffffffffffffffffffff00000000000000000000000082169050919050565b6000819050919050565b620022f2620022ec82620022a7565b620022d3565b82525050565b60006200230682856200228c565b600c82019150620023188284620022dd565b6014820191508190509392505050565b6000819050919050565b620023476200234182620021b8565b62002328565b82525050565b60006200235b828462002332565b60208201915081905092915050565b6000620023788284620022dd565b60148201915081905092915050565b600081519050919050565b600082825260208201905092915050565b6000819050602082019050919050565b620023be81620021b8565b82525050565b6000620023d28383620023b3565b60208301905092915050565b6000602082019050919050565b6000620023f88262002387565b62002404818562002392565b93506200241183620023a3565b8060005b83811015620024485781516200242c8882620023c4565b97506200243983620023de565b92505060018101905062002415565b5085935050505092915050565b600081519050919050565b600082825260208201905092915050565b6000819050602082019050919050565b600082825260208201905092915050565b60005b83811015620024b257808201518184015260208101905062002495565b83811115620024c2576000848401525b50505050565b6000601f19601f8301169050919050565b6000620024e6826200219d565b620024f2818562002481565b93506200250481856020860162002492565b6200250f81620024c8565b840191505092915050565b6000620025288383620024d9565b905092915050565b6000602082019050919050565b60006200254a8262002455565b62002556818562002460565b9350836020820285016200256a8562002471565b8060005b85811015620025ac57848403895281516200258a85826200251a565b9450620025978362002530565b925060208a019950506001810190506200256e565b50829750879550505050505092915050565b60006040820190508181036000830152620025da8185620023eb565b90508181036020830152620025f081846200253d565b90509392505050565b6000819050919050565b6000620026246200261e6200261884620025f9565b62001ead565b62001e81565b9050919050565b620026368162002603565b82525050565b60006020820190506200265360008301846200262b565b92915050565b6000819050919050565b6000620026846200267e620026788462002659565b62001ead565b62001e81565b9050919050565b620026968162002663565b82525050565b6000602082019050620026b360008301846200268b565b92915050565b6000620026c68262001d8b565b9050919050565b620026d881620026b9565b82525050565b6000604082019050620026f56000830185620026cd565b62002704602083018462001f10565b9392505050565b6000819050919050565b600062002736620027306200272a846200270b565b62001ead565b62001e81565b9050919050565b620027488162002715565b82525050565b60006020820190506200276560008301846200273d565b92915050565b6000819050919050565b600062002796620027906200278a846200276b565b62001ead565b62001e81565b9050919050565b620027a88162002775565b82525050565b6000602082019050620027c560008301846200279d565b92915050565b6000819050919050565b6000620027f6620027f0620027ea8462001d8b565b620027cb565b62001d8b565b9050919050565b60006200280a82620027d5565b9050919050565b60006200281e82620027fd565b9050919050565b620028308162002811565b82525050565b60006020820190506200284d600083018462002825565b92915050565b6000819050919050565b60006200287e62002878620028728462002853565b62001ead565b62001e81565b9050919050565b62002890816200285d565b82525050565b6000602082019050620028ad600083018462002885565b92915050565b6000819050919050565b6000620028de620028d8620028d284620028b3565b62001ead565b62001e81565b9050919050565b620028f081620028bd565b82525050565b60006020820190506200290d6000830184620028e5565b92915050565b600082825260208201905092915050565b600062002931826200219d565b6200293d818562002913565b93506200294f81856020860162002492565b6200295a81620024c8565b840191505092915050565b6000602082019050818103600083015262002981818462002924565b905092915050565b6000604051905090565b600080fd5b600080fd5b600080fd5b600080fd5b620029b282620024c8565b810181811067ffffffffffffffff82111715620029d457620029d3620020be565b5b80604052505050565b6000620029e962002989565b9050620029f78282620029a7565b919050565b600067ffffffffffffffff82111562002a1a5762002a19620020be565b5b62002a2582620024c8565b9050602081019050919050565b600062002a4962002a4384620029fc565b620029dd565b90508281526020810184848401111562002a685762002a67620029a2565b5b62002a7584828562002492565b509392505050565b600082601f83011262002a955762002a946200299d565b5b815162002aa784826020860162002a32565b91505092915050565b60006020828403121562002ac95762002ac862002993565b5b600082015167ffffffffffffffff81111562002aea5762002ae962002998565b5b62002af88482850162002a7d565b9150509291505056fe60806040523480156200001157600080fd5b5060405162003ef038038062003ef08339818101604052810190620000379190620001ef565b6200004d816200005460201b6200132d1760201c565b5062000221565b620000646200015c60201b60201c565b73ffffffffffffffffffffffffffffffffffffffff168173ffffffffffffffffffffffffffffffffffffffff1614620001595760008060009054906101000a900473ffffffffffffffffffffffffffffffffffffffff169050816000806101000a81548173ffffffffffffffffffffffffffffffffffffffff021916908373ffffffffffffffffffffffffffffffffffffffff1602179055508173ffffffffffffffffffffffffffffffffffffffff168173ffffffffffffffffffffffffffffffffffffffff167f8be0079c531659141344cd1fd0a4f28419497f9722a3daafe3b4186f6b6457e060405160405180910390a3505b50565b60008060009054906101000a900473ffffffffffffffffffffffffffffffffffffffff16905090565b600080fd5b600073ffffffffffffffffffffffffffffffffffffffff82169050919050565b6000620001b7826200018a565b9050919050565b620001c981620001aa565b8114620001d557600080fd5b50565b600081519050620001e981620001be565b92915050565b60006020828403121562000208576200020762000185565b5b60006200021884828501620001d8565b91505092915050565b613cbf80620002316000396000f3fe6080604052600436106100c65760003560e01c806354f6127f1161007f5780637f23690c116100595780637f23690c146102c25780638da5cb5b146102eb578063e30c397814610316578063f2fde38b14610341576100c7565b806354f6127f1461023e5780636bb56a141461027b578063715018a6146102ab576100c7565b806301ffc9a71461011757806314a6e293146101545780631626ba7e1461017d57806344c028fe146101ba5780634e3e6e9c146101ea5780634e71e0c814610227576100c7565b5b600034111561011557343373ffffffffffffffffffffffffffffffffffffffff167f7e71433ddf847725166244795048ecf3e3f9f35628254ecbf73605666423349360405160405180910390a35b005b34801561012357600080fd5b5061013e60048036038101906101399190612133565b61036a565b60405161014b919061217b565b60405180910390f35b34801561016057600080fd5b5061017b600480360381019061017691906124bb565b6104b8565b005b34801561018957600080fd5b506101a4600480360381019061019f9190612533565b6105d0565b6040516101b1919061259e565b60405180910390f35b6101d460048036038101906101cf91906126a8565b6106ff565b6040516101e191906127b8565b60405180910390f35b3480156101f657600080fd5b50610211600480360381019061020c91906127da565b610e31565b60405161021e919061292f565b60405180910390f35b34801561023357600080fd5b5061023c610ee7565b005b34801561024a57600080fd5b5061026560048036038101906102609190612951565b610fe6565b60405161027291906127b8565b60405180910390f35b6102956004803603810190610290919061297e565b610ff8565b6040516102a291906127b8565b60405180910390f35b3480156102b757600080fd5b506102c0611159565b005b3480156102ce57600080fd5b506102e960048036038101906102e49190612533565b6111da565b005b3480156102f757600080fd5b5061030061125d565b60405161030d91906129ed565b60405180910390f35b34801561032257600080fd5b5061032b611286565b60405161033891906129ed565b60405180910390f35b34801561034d57600080fd5b5061036860048036038101906103639190612a08565b6112ac565b005b6000631626ba7e60e01b7bffffffffffffffffffffffffffffffffffffffffffffffffffffffff1916827bffffffffffffffffffffffffffffffffffffffffffffffffffffffff191614806104035750639a3bfe8860e01b7bffffffffffffffffffffffffffffffffffffffffffffffffffffffff1916827bffffffffffffffffffffffffffffffffffffffffffffffffffffffff1916145b806104525750636bb56a1460e01b7bffffffffffffffffffffffffffffffffffffffffffffffffffffffff1916827bffffffffffffffffffffffffffffffffffffffffffffffffffffffff1916145b806104a1575063ad7dd9b060e01b7bffffffffffffffffffffffffffffffffffffffffffffffffffffffff1916827bffffffffffffffffffffffffffffffffffffffffffffffffffffffff1916145b806104b157506104b08261142c565b5b9050919050565b3373ffffffffffffffffffffffffffffffffffffffff166104d761125d565b73ffffffffffffffffffffffffffffffffffffffff161461052d576040517f08c379a000000000000000000000000000000000000000000000000000000000815260040161052490612a92565b60405180910390fd5b8051825114610571576040517f08c379a000000000000000000000000000000000000000000000000000000000815260040161056890612b24565b60405180910390fd5b60005b82518110156105cb576105bb83828151811061059357610592612b44565b5b60200260200101518383815181106105ae576105ad612b44565b5b602002602001015161148d565b6105c4816114df565b9050610574565b505050565b6000806105db61125d565b905060008173ffffffffffffffffffffffffffffffffffffffff163b146106a35761060d81631626ba7e60e01b6114ec565b61061e5763ffffffff60e01b61069b565b8073ffffffffffffffffffffffffffffffffffffffff16631626ba7e85856040518363ffffffff1660e01b8152600401610659929190612b82565b602060405180830381865afa158015610676573d6000803e3d6000fd5b505050506040513d601f19601f8201168201806040525081019061069a9190612bc7565b5b9150506106f9565b6106ad8484611617565b73ffffffffffffffffffffffffffffffffffffffff168173ffffffffffffffffffffffffffffffffffffffff16146106ec5763ffffffff60e01b6106f5565b631626ba7e60e01b5b9150505b92915050565b60603373ffffffffffffffffffffffffffffffffffffffff1661072061125d565b73ffffffffffffffffffffffffffffffffffffffff1614610776576040517f08c379a000000000000000000000000000000000000000000000000000000000815260040161076d90612a92565b60405180910390fd5b60005a90506000870361087957844710156107c6576040517f08c379a00000000000000000000000000000000000000000000000000000000081526004016107bd90612c66565b60405180910390fd5b610816868686868080601f016020809104026020016040519081016040528093929190818152602001838380828437600081840152601f19601f820116905080830192505050505050508461163e565b9150848673ffffffffffffffffffffffffffffffffffffffff16887f4810874456b8e6487bd861375cf6abd8e1c8bb5858c8ce36a86a04dabfac199e87879061085f9190612c9e565b60405161086c919061259e565b60405180910390a4610e27565b6003870361097657600085146108c4576040517f08c379a00000000000000000000000000000000000000000000000000000000081526004016108bb90612d6f565b60405180910390fd5b6109138685858080601f016020809104026020016040519081016040528093929190818152602001838380828437600081840152601f19601f82011690508083019250505050505050836116cf565b9150848673ffffffffffffffffffffffffffffffffffffffff16887f4810874456b8e6487bd861375cf6abd8e1c8bb5858c8ce36a86a04dabfac199e87879061095c9190612c9e565b604051610969919061259e565b60405180910390a4610e26565b60048703610a7357600085146109c1576040517f08c379a00000000000000000000000000000000000000000000000000000000081526004016109b890612e01565b60405180910390fd5b610a108685858080601f016020809104026020016040519081016040528093929190818152602001838380828437600081840152601f19601f820116905080830192505050505050508361175c565b9150848673ffffffffffffffffffffffffffffffffffffffff16887f4810874456b8e6487bd861375cf6abd8e1c8bb5858c8ce36a86a04dabfac199e878790610a599190612c9e565b604051610a66919061259e565b60405180910390a4610e25565b60018703610bec57600073ffffffffffffffffffffffffffffffffffffffff168673ffffffffffffffffffffffffffffffffffffffff1614610aea576040517f08c379a0000000000000000000000000000000000000000000000000000000008152600401610ae190612eb9565b60405180910390fd5b84471015610b2d576040517f08c379a0000000000000000000000000000000000000000000000000000000008152600401610b2490612c66565b60405180910390fd5b6000610b7d8686868080601f016020809104026020016040519081016040528093929190818152602001838380828437600081840152601f19601f820116905080830192505050505050506117e9565b905080604051602001610b909190612f21565b6040516020818303038152906040529250858173ffffffffffffffffffffffffffffffffffffffff16897f01c42bd7e97a66166063b02fce6924e6656b6c2c61966630165095c4fb0b7b2f60405160405180910390a450610e24565b60028703610de857600073ffffffffffffffffffffffffffffffffffffffff168673ffffffffffffffffffffffffffffffffffffffff1614610c63576040517f08c379a0000000000000000000000000000000000000000000000000000000008152600401610c5a90612eb9565b60405180910390fd5b84471015610ca6576040517f08c379a0000000000000000000000000000000000000000000000000000000008152600401610c9d90612c66565b60405180910390fd5b6000610d0585858080601f016020809104026020016040519081016040528093929190818152602001838380828437600081840152601f19601f82011690508083019250505050505050602087879050610d009190612f6b565b6118ad565b90506000610d6886868080601f016020809104026020016040519081016040528093929190818152602001838380828437600081840152601f19601f820116905080830192505050505050506000602089899050610d639190612f6b565b611914565b90506000610d77888484611a32565b905080604051602001610d8a9190612f21565b6040516020818303038152906040529450878173ffffffffffffffffffffffffffffffffffffffff168b7f01c42bd7e97a66166063b02fce6924e6656b6c2c61966630165095c4fb0b7b2f60405160405180910390a4505050610e23565b6040517f08c379a0000000000000000000000000000000000000000000000000000000008152600401610e1a90612feb565b60405180910390fd5b5b5b5b5b5095945050505050565b6060815167ffffffffffffffff811115610e4e57610e4d6121ac565b5b604051908082528060200260200182016040528015610e8157816020015b6060815260200190600190039081610e6c5790505b50905060005b8251811015610ee157610eb3838281518110610ea657610ea5612b44565b5b6020026020010151611b41565b828281518110610ec657610ec5612b44565b5b6020026020010181905250610eda816114df565b9050610e87565b50919050565b600260009054906101000a900473ffffffffffffffffffffffffffffffffffffffff1673ffffffffffffffffffffffffffffffffffffffff163373ffffffffffffffffffffffffffffffffffffffff1614610f77576040517f08c379a0000000000000000000000000000000000000000000000000000000008152600401610f6e9061307d565b60405180910390fd5b610fa2600260009054906101000a900473ffffffffffffffffffffffffffffffffffffffff1661132d565b6000600260006101000a81548173ffffffffffffffffffffffffffffffffffffffff021916908373ffffffffffffffffffffffffffffffffffffffff160217905550565b6060610ff182611b41565b9050919050565b606060006110287f0cfc51aec37c55a4d0b1a65c6255c4bf2fbdf6277f3cc0730c45b828b6db8b4760001b611b41565b905060148151106110e85760008161103f906130ee565b60601c90506110558163a245bbda60e01b6114ec565b156110e6578073ffffffffffffffffffffffffffffffffffffffff1663a245bbda33348989896040518663ffffffff1660e01b815260040161109b959493929190613191565b6000604051808303816000875af11580156110ba573d6000803e3d6000fd5b505050506040513d6000823e3d601f19601f820116820180604052508101906110e3919061324f565b92505b505b816040516110f691906132d4565b6040518091039020853373ffffffffffffffffffffffffffffffffffffffff167f9c3ba68eb5742b8e3961aea0afc7371a71bf433c8a67a831803b64c064a178c2348888604051611149939291906132eb565b60405180910390a4509392505050565b3373ffffffffffffffffffffffffffffffffffffffff1661117861125d565b73ffffffffffffffffffffffffffffffffffffffff16146111ce576040517f08c379a00000000000000000000000000000000000000000000000000000000081526004016111c590612a92565b60405180910390fd5b6111d8600061132d565b565b3373ffffffffffffffffffffffffffffffffffffffff166111f961125d565b73ffffffffffffffffffffffffffffffffffffffff161461124f576040517f08c379a000000000000000000000000000000000000000000000000000000000815260040161124690612a92565b60405180910390fd5b611259828261148d565b5050565b60008060009054906101000a900473ffffffffffffffffffffffffffffffffffffffff16905090565b600260009054906101000a900473ffffffffffffffffffffffffffffffffffffffff1681565b3373ffffffffffffffffffffffffffffffffffffffff166112cb61125d565b73ffffffffffffffffffffffffffffffffffffffff1614611321576040517f08c379a000000000000000000000000000000000000000000000000000000000815260040161131890612a92565b60405180910390fd5b61132a81611be6565b50565b61133561125d565b73ffffffffffffffffffffffffffffffffffffffff168173ffffffffffffffffffffffffffffffffffffffff16146114295760008060009054906101000a900473ffffffffffffffffffffffffffffffffffffffff169050816000806101000a81548173ffffffffffffffffffffffffffffffffffffffff021916908373ffffffffffffffffffffffffffffffffffffffff1602179055508173ffffffffffffffffffffffffffffffffffffffff168173ffffffffffffffffffffffffffffffffffffffff167f8be0079c531659141344cd1fd0a4f28419497f9722a3daafe3b4186f6b6457e060405160405180910390a3505b50565b600063714df77c60e01b7bffffffffffffffffffffffffffffffffffffffffffffffffffffffff1916827bffffffffffffffffffffffffffffffffffffffffffffffffffffffff19161480611486575061148582611c2a565b5b9050919050565b806001600084815260200190815260200160002090816114ad919061351c565b50817fcdf4e344c0d23d4cdd0474039d176c55b19d531070dbe17856bfb993a5b5720b60405160405180910390a25050565b6000600182019050919050565b6000806301ffc9a760e01b83604051602401611508919061259e565b604051602081830303815290604052907bffffffffffffffffffffffffffffffffffffffffffffffffffffffff19166020820180517bffffffffffffffffffffffffffffffffffffffffffffffffffffffff838183161783525050505090506000808573ffffffffffffffffffffffffffffffffffffffff166175308460405161159291906132d4565b6000604051808303818686fa925050503d80600081146115ce576040519150601f19603f3d011682016040523d82523d6000602084013e6115d3565b606091505b50915091506020815110156115ee5760009350505050611611565b81801561160b57508080602001905181019061160a919061361a565b5b93505050505b92915050565b60008060006116268585611c8b565b9150915061163381611d0c565b819250505092915050565b60606000808673ffffffffffffffffffffffffffffffffffffffff1684878760405161166a91906132d4565b600060405180830381858888f193505050503d80600081146116a8576040519150601f19603f3d011682016040523d82523d6000602084013e6116ad565b606091505b5091509150816116c2576116c081611ed8565b505b8092505050949350505050565b60606000808573ffffffffffffffffffffffffffffffffffffffff1684866040516116fa91906132d4565b6000604051808303818686fa925050503d8060008114611736576040519150601f19603f3d011682016040523d82523d6000602084013e61173b565b606091505b5091509150816117505761174e81611ed8565b505b80925050509392505050565b60606000808573ffffffffffffffffffffffffffffffffffffffff16848660405161178791906132d4565b6000604051808303818686f4925050503d80600081146117c3576040519150601f19603f3d011682016040523d82523d6000602084013e6117c8565b606091505b5091509150816117dd576117db81611ed8565b505b80925050509392505050565b60008082510361182e576040517f08c379a000000000000000000000000000000000000000000000000000000000815260040161182590613693565b60405180910390fd5b81516020830184f09050600073ffffffffffffffffffffffffffffffffffffffff168173ffffffffffffffffffffffffffffffffffffffff16036118a7576040517f08c379a000000000000000000000000000000000000000000000000000000000815260040161189e906136ff565b60405180910390fd5b92915050565b60006020826118bc919061371f565b835110156118ff576040517f08c379a00000000000000000000000000000000000000000000000000000000081526004016118f6906137c1565b60405180910390fd5b60008260208501015190508091505092915050565b606081601f83611924919061371f565b1015611965576040517f08c379a000000000000000000000000000000000000000000000000000000000815260040161195c9061382d565b60405180910390fd5b8183611971919061371f565b845110156119b4576040517f08c379a00000000000000000000000000000000000000000000000000000000081526004016119ab90613899565b60405180910390fd5b60608215600081146119d55760405191506000825260208201604052611a26565b6040519150601f8416801560200281840101858101878315602002848b0101015b81831015611a1357805183526020830192506020810190506119f6565b50868552601f19601f8301166040525050505b50809150509392505050565b60008084471015611a78576040517f08c379a0000000000000000000000000000000000000000000000000000000008152600401611a6f90613905565b60405180910390fd5b6000835103611abc576040517f08c379a0000000000000000000000000000000000000000000000000000000008152600401611ab390613971565b60405180910390fd5b8383516020850187f59050600073ffffffffffffffffffffffffffffffffffffffff168173ffffffffffffffffffffffffffffffffffffffff1603611b36576040517f08c379a0000000000000000000000000000000000000000000000000000000008152600401611b2d906139dd565b60405180910390fd5b809150509392505050565b6060600160008381526020019081526020016000208054611b619061334c565b80601f0160208091040260200160405190810160405280929190818152602001828054611b8d9061334c565b8015611bda5780601f10611baf57610100808354040283529160200191611bda565b820191906000526020600020905b815481529060010190602001808311611bbd57829003601f168201915b50505050509050919050565b80600260006101000a81548173ffffffffffffffffffffffffffffffffffffffff021916908373ffffffffffffffffffffffffffffffffffffffff16021790555050565b60006344c028fe60e01b7bffffffffffffffffffffffffffffffffffffffffffffffffffffffff1916827bffffffffffffffffffffffffffffffffffffffffffffffffffffffff19161480611c845750611c8382611ef2565b5b9050919050565b6000806041835103611ccc5760008060006020860151925060408601519150606086015160001a9050611cc087828585611f5c565b94509450505050611d05565b6040835103611cfc576000806020850151915060408501519050611cf1868383612068565b935093505050611d05565b60006002915091505b9250929050565b60006004811115611d2057611d1f6139fd565b5b816004811115611d3357611d326139fd565b5b0315611ed55760016004811115611d4d57611d4c6139fd565b5b816004811115611d6057611d5f6139fd565b5b03611da0576040517f08c379a0000000000000000000000000000000000000000000000000000000008152600401611d9790613a78565b60405180910390fd5b60026004811115611db457611db36139fd565b5b816004811115611dc757611dc66139fd565b5b03611e07576040517f08c379a0000000000000000000000000000000000000000000000000000000008152600401611dfe90613ae4565b60405180910390fd5b60036004811115611e1b57611e1a6139fd565b5b816004811115611e2e57611e2d6139fd565b5b03611e6e576040517f08c379a0000000000000000000000000000000000000000000000000000000008152600401611e6590613b76565b60405180910390fd5b600480811115611e8157611e806139fd565b5b816004811115611e9457611e936139fd565b5b03611ed4576040517f08c379a0000000000000000000000000000000000000000000000000000000008152600401611ecb90613c08565b60405180910390fd5b5b50565b6060600082511115611eed5781518083602001fd5b600080fd5b60007f01ffc9a7000000000000000000000000000000000000000000000000000000007bffffffffffffffffffffffffffffffffffffffffffffffffffffffff1916827bffffffffffffffffffffffffffffffffffffffffffffffffffffffff1916149050919050565b6000807f7fffffffffffffffffffffffffffffff5d576e7357a4501ddfe92f46681b20a08360001c1115611f9757600060039150915061205f565b601b8560ff1614158015611faf5750601c8560ff1614155b15611fc157600060049150915061205f565b600060018787878760405160008152602001604052604051611fe69493929190613c44565b6020604051602081039080840390855afa158015612008573d6000803e3d6000fd5b505050602060405103519050600073ffffffffffffffffffffffffffffffffffffffff168173ffffffffffffffffffffffffffffffffffffffff16036120565760006001925092505061205f565b80600092509250505b94509492505050565b60008060007f7fffffffffffffffffffffffffffffffffffffffffffffffffffffffffffffff60001b841690506000601b60ff8660001c901c6120ab919061371f565b90506120b987828885611f5c565b935093505050935093915050565b6000604051905090565b600080fd5b600080fd5b60007fffffffff0000000000000000000000000000000000000000000000000000000082169050919050565b612110816120db565b811461211b57600080fd5b50565b60008135905061212d81612107565b92915050565b600060208284031215612149576121486120d1565b5b60006121578482850161211e565b91505092915050565b60008115159050919050565b61217581612160565b82525050565b6000602082019050612190600083018461216c565b92915050565b600080fd5b6000601f19601f8301169050919050565b7f4e487b7100000000000000000000000000000000000000000000000000000000600052604160045260246000fd5b6121e48261219b565b810181811067ffffffffffffffff82111715612203576122026121ac565b5b80604052505050565b60006122166120c7565b905061222282826121db565b919050565b600067ffffffffffffffff821115612242576122416121ac565b5b602082029050602081019050919050565b600080fd5b6000819050919050565b61226b81612258565b811461227657600080fd5b50565b60008135905061228881612262565b92915050565b60006122a161229c84612227565b61220c565b905080838252602082019050602084028301858111156122c4576122c3612253565b5b835b818110156122ed57806122d98882612279565b8452602084019350506020810190506122c6565b5050509392505050565b600082601f83011261230c5761230b612196565b5b813561231c84826020860161228e565b91505092915050565b600067ffffffffffffffff8211156123405761233f6121ac565b5b602082029050602081019050919050565b600080fd5b600067ffffffffffffffff821115612371576123706121ac565b5b61237a8261219b565b9050602081019050919050565b82818337600083830152505050565b60006123a96123a484612356565b61220c565b9050828152602081018484840111156123c5576123c4612351565b5b6123d0848285612387565b509392505050565b600082601f8301126123ed576123ec612196565b5b81356123fd848260208601612396565b91505092915050565b600061241961241484612325565b61220c565b9050808382526020820190506020840283018581111561243c5761243b612253565b5b835b8181101561248357803567ffffffffffffffff81111561246157612460612196565b5b80860161246e89826123d8565b8552602085019450505060208101905061243e565b5050509392505050565b600082601f8301126124a2576124a1612196565b5b81356124b2848260208601612406565b91505092915050565b600080604083850312156124d2576124d16120d1565b5b600083013567ffffffffffffffff8111156124f0576124ef6120d6565b5b6124fc858286016122f7565b925050602083013567ffffffffffffffff81111561251d5761251c6120d6565b5b6125298582860161248d565b9150509250929050565b6000806040838503121561254a576125496120d1565b5b600061255885828601612279565b925050602083013567ffffffffffffffff811115612579576125786120d6565b5b612585858286016123d8565b9150509250929050565b612598816120db565b82525050565b60006020820190506125b3600083018461258f565b92915050565b6000819050919050565b6125cc816125b9565b81146125d757600080fd5b50565b6000813590506125e9816125c3565b92915050565b600073ffffffffffffffffffffffffffffffffffffffff82169050919050565b600061261a826125ef565b9050919050565b61262a8161260f565b811461263557600080fd5b50565b60008135905061264781612621565b92915050565b600080fd5b60008083601f84011261266857612667612196565b5b8235905067ffffffffffffffff8111156126855761268461264d565b5b6020830191508360018202830111156126a1576126a0612253565b5b9250929050565b6000806000806000608086880312156126c4576126c36120d1565b5b60006126d2888289016125da565b95505060206126e388828901612638565b94505060406126f4888289016125da565b935050606086013567ffffffffffffffff811115612715576127146120d6565b5b61272188828901612652565b92509250509295509295909350565b600081519050919050565b600082825260208201905092915050565b60005b8381101561276a57808201518184015260208101905061274f565b83811115612779576000848401525b50505050565b600061278a82612730565b612794818561273b565b93506127a481856020860161274c565b6127ad8161219b565b840191505092915050565b600060208201905081810360008301526127d2818461277f565b905092915050565b6000602082840312156127f0576127ef6120d1565b5b600082013567ffffffffffffffff81111561280e5761280d6120d6565b5b61281a848285016122f7565b91505092915050565b600081519050919050565b600082825260208201905092915050565b6000819050602082019050919050565b600082825260208201905092915050565b600061286b82612730565b612875818561284f565b935061288581856020860161274c565b61288e8161219b565b840191505092915050565b60006128a58383612860565b905092915050565b6000602082019050919050565b60006128c582612823565b6128cf818561282e565b9350836020820285016128e18561283f565b8060005b8581101561291d57848403895281516128fe8582612899565b9450612909836128ad565b925060208a019950506001810190506128e5565b50829750879550505050505092915050565b6000602082019050818103600083015261294981846128ba565b905092915050565b600060208284031215612967576129666120d1565b5b600061297584828501612279565b91505092915050565b600080600060408486031215612997576129966120d1565b5b60006129a586828701612279565b935050602084013567ffffffffffffffff8111156129c6576129c56120d6565b5b6129d286828701612652565b92509250509250925092565b6129e78161260f565b82525050565b6000602082019050612a0260008301846129de565b92915050565b600060208284031215612a1e57612a1d6120d1565b5b6000612a2c84828501612638565b91505092915050565b600082825260208201905092915050565b7f4f776e61626c653a2063616c6c6572206973206e6f7420746865206f776e6572600082015250565b6000612a7c602083612a35565b9150612a8782612a46565b602082019050919050565b60006020820190508181036000830152612aab81612a6f565b9050919050565b7f4b657973206c656e677468206e6f7420657175616c20746f2076616c7565732060008201527f6c656e6774680000000000000000000000000000000000000000000000000000602082015250565b6000612b0e602683612a35565b9150612b1982612ab2565b604082019050919050565b60006020820190508181036000830152612b3d81612b01565b9050919050565b7f4e487b7100000000000000000000000000000000000000000000000000000000600052603260045260246000fd5b612b7c81612258565b82525050565b6000604082019050612b976000830185612b73565b8181036020830152612ba9818461277f565b90509392505050565b600081519050612bc181612107565b92915050565b600060208284031215612bdd57612bdc6120d1565b5b6000612beb84828501612bb2565b91505092915050565b7f455243373235583a20696e73756666696369656e742062616c616e636520666f60008201527f722063616c6c0000000000000000000000000000000000000000000000000000602082015250565b6000612c50602683612a35565b9150612c5b82612bf4565b604082019050919050565b60006020820190508181036000830152612c7f81612c43565b9050919050565b600082905092915050565b600082821b905092915050565b6000612caa8383612c86565b82612cb581356120db565b92506004821015612cf557612cf07fffffffff0000000000000000000000000000000000000000000000000000000083600403600802612c91565b831692505b505092915050565b7f455243373235583a2063616e6e6f74207472616e736665722076616c7565207760008201527f697468206f7065726174696f6e2053544154494343414c4c0000000000000000602082015250565b6000612d59603883612a35565b9150612d6482612cfd565b604082019050919050565b60006020820190508181036000830152612d8881612d4c565b9050919050565b7f455243373235583a2063616e6e6f74207472616e736665722076616c7565207760008201527f697468206f7065726174696f6e2044454c454741544543414c4c000000000000602082015250565b6000612deb603a83612a35565b9150612df682612d8f565b604082019050919050565b60006020820190508181036000830152612e1a81612dde565b9050919050565b7f455243373235583a20435245415445206f7065726174696f6e7320726571756960008201527f726520746865207265636569766572206164647265737320746f20626520656d60208201527f7074790000000000000000000000000000000000000000000000000000000000604082015250565b6000612ea3604383612a35565b9150612eae82612e21565b606082019050919050565b60006020820190508181036000830152612ed281612e96565b9050919050565b60008160601b9050919050565b6000612ef182612ed9565b9050919050565b6000612f0382612ee6565b9050919050565b612f1b612f168261260f565b612ef8565b82525050565b6000612f2d8284612f0a565b60148201915081905092915050565b7f4e487b7100000000000000000000000000000000000000000000000000000000600052601160045260246000fd5b6000612f76826125b9565b9150612f81836125b9565b925082821015612f9457612f93612f3c565b5b828203905092915050565b7f57726f6e67206f7065726174696f6e2074797065000000000000000000000000600082015250565b6000612fd5601483612a35565b9150612fe082612f9f565b602082019050919050565b6000602082019050818103600083015261300481612fc8565b9050919050565b7f4f776e61626c65436c61696d3a2063616c6c6572206973206e6f74207468652060008201527f70656e64696e674f776e65720000000000000000000000000000000000000000602082015250565b6000613067602c83612a35565b91506130728261300b565b604082019050919050565b600060208201905081810360008301526130968161305a565b9050919050565b6000819050602082019050919050565b60007fffffffffffffffffffffffffffffffffffffffff00000000000000000000000082169050919050565b60006130e582516130ad565b80915050919050565b60006130f982612730565b826131038461309d565b905061310e816130d9565b9250601482101561314e576131497fffffffffffffffffffffffffffffffffffffffff00000000000000000000000083601403600802612c91565b831692505b5050919050565b61315e816125b9565b82525050565b6000613170838561273b565b935061317d838584612387565b6131868361219b565b840190509392505050565b60006080820190506131a660008301886129de565b6131b36020830187613155565b6131c06040830186612b73565b81810360608301526131d3818486613164565b90509695505050505050565b60006131f26131ed84612356565b61220c565b90508281526020810184848401111561320e5761320d612351565b5b61321984828561274c565b509392505050565b600082601f83011261323657613235612196565b5b81516132468482602086016131df565b91505092915050565b600060208284031215613265576132646120d1565b5b600082015167ffffffffffffffff811115613283576132826120d6565b5b61328f84828501613221565b91505092915050565b600081905092915050565b60006132ae82612730565b6132b88185613298565b93506132c881856020860161274c565b80840191505092915050565b60006132e082846132a3565b915081905092915050565b60006040820190506133006000830186613155565b8181036020830152613313818486613164565b9050949350505050565b7f4e487b7100000000000000000000000000000000000000000000000000000000600052602260045260246000fd5b6000600282049050600182168061336457607f821691505b6020821081036133775761337661331d565b5b50919050565b60008190508160005260206000209050919050565b60006020601f8301049050919050565b6000600883026133d27fffffffffffffffffffffffffffffffffffffffffffffffffffffffffffffffff82612c91565b6133dc8683612c91565b95508019841693508086168417925050509392505050565b6000819050919050565b600061341961341461340f846125b9565b6133f4565b6125b9565b9050919050565b6000819050919050565b613433836133fe565b61344761343f82613420565b8484546133a2565b825550505050565b600090565b61345c61344f565b61346781848461342a565b505050565b5b8181101561348b57613480600082613454565b60018101905061346d565b5050565b601f8211156134d0576134a18161337d565b6134aa84613392565b810160208510156134b9578190505b6134cd6134c585613392565b83018261346c565b50505b505050565b600082821c905092915050565b60006134f3600019846008026134d5565b1980831691505092915050565b600061350c83836134e2565b9150826002028217905092915050565b61352582612730565b67ffffffffffffffff81111561353e5761353d6121ac565b5b613548825461334c565b61355382828561348f565b600060209050601f8311600181146135865760008415613574578287015190505b61357e8582613500565b8655506135e6565b601f1984166135948661337d565b60005b828110156135bc57848901518255600182019150602085019450602081019050613597565b868310156135d957848901516135d5601f8916826134e2565b8355505b6001600288020188555050505b505050505050565b6135f781612160565b811461360257600080fd5b50565b600081519050613614816135ee565b92915050565b6000602082840312156136305761362f6120d1565b5b600061363e84828501613605565b91505092915050565b7f6e6f20636f6e74726163742062797465636f64652070726f7669646564000000600082015250565b600061367d601d83612a35565b915061368882613647565b602082019050919050565b600060208201905081810360008301526136ac81613670565b9050919050565b7f436f756c64206e6f74206465706c6f7920636f6e747261637400000000000000600082015250565b60006136e9601983612a35565b91506136f4826136b3565b602082019050919050565b60006020820190508181036000830152613718816136dc565b9050919050565b600061372a826125b9565b9150613735836125b9565b9250827fffffffffffffffffffffffffffffffffffffffffffffffffffffffffffffffff0382111561376a57613769612f3c565b5b828201905092915050565b7f746f427974657333325f6f75744f66426f756e64730000000000000000000000600082015250565b60006137ab601583612a35565b91506137b682613775565b602082019050919050565b600060208201905081810360008301526137da8161379e565b9050919050565b7f736c6963655f6f766572666c6f77000000000000000000000000000000000000600082015250565b6000613817600e83612a35565b9150613822826137e1565b602082019050919050565b600060208201905081810360008301526138468161380a565b9050919050565b7f736c6963655f6f75744f66426f756e6473000000000000000000000000000000600082015250565b6000613883601183612a35565b915061388e8261384d565b602082019050919050565b600060208201905081810360008301526138b281613876565b9050919050565b7f437265617465323a20696e73756666696369656e742062616c616e6365000000600082015250565b60006138ef601d83612a35565b91506138fa826138b9565b602082019050919050565b6000602082019050818103600083015261391e816138e2565b9050919050565b7f437265617465323a2062797465636f6465206c656e677468206973207a65726f600082015250565b600061395b602083612a35565b915061396682613925565b602082019050919050565b6000602082019050818103600083015261398a8161394e565b9050919050565b7f437265617465323a204661696c6564206f6e206465706c6f7900000000000000600082015250565b60006139c7601983612a35565b91506139d282613991565b602082019050919050565b600060208201905081810360008301526139f6816139ba565b9050919050565b7f4e487b7100000000000000000000000000000000000000000000000000000000600052602160045260246000fd5b7f45434453413a20696e76616c6964207369676e61747572650000000000000000600082015250565b6000613a62601883612a35565b9150613a6d82613a2c565b602082019050919050565b60006020820190508181036000830152613a9181613a55565b9050919050565b7f45434453413a20696e76616c6964207369676e6174757265206c656e67746800600082015250565b6000613ace601f83612a35565b9150613ad982613a98565b602082019050919050565b60006020820190508181036000830152613afd81613ac1565b9050919050565b7f45434453413a20696e76616c6964207369676e6174757265202773272076616c60008201527f7565000000000000000000000000000000000000000000000000000000000000602082015250565b6000613b60602283612a35565b9150613b6b82613b04565b604082019050919050565b60006020820190508181036000830152613b8f81613b53565b9050919050565b7f45434453413a20696e76616c6964207369676e6174757265202776272076616c60008201527f7565000000000000000000000000000000000000000000000000000000000000602082015250565b6000613bf2602283612a35565b9150613bfd82613b96565b604082019050919050565b60006020820190508181036000830152613c2181613be5565b9050919050565b600060ff82169050919050565b613c3e81613c28565b82525050565b6000608082019050613c596000830187612b73565b613c666020830186613c35565b613c736040830185612b73565b613c806060830184612b73565b9594505050505056fea2646970667358221220d915471e367d23acd167f6ce8f6067728964d78e88531dd15669e0546f3c582864736f6c634300080f00336080604052348015600f57600080fd5b50603f80601d6000396000f3fe6080604052600080fdfea264697066735822122043a65f9fe1e25ba494678d1de67e73682391edb52377753f409dfca5f93b903e64736f6c634300080f003360806040523480156200001157600080fd5b50604051620051293803806200512983398181016040528101906200003791906200016f565b816000806101000a81548173ffffffffffffffffffffffffffffffffffffffff021916908373ffffffffffffffffffffffffffffffffffffffff16021790555080600160006101000a81548173ffffffffffffffffffffffffffffffffffffffff021916908373ffffffffffffffffffffffffffffffffffffffff1602179055505050620001b6565b600080fd5b600073ffffffffffffffffffffffffffffffffffffffff82169050919050565b6000620000f282620000c5565b9050919050565b6200010481620000e5565b81146200011057600080fd5b50565b6000815190506200012481620000f9565b92915050565b60006200013782620000c5565b9050919050565b62000149816200012a565b81146200015557600080fd5b50565b60008151905062000169816200013e565b92915050565b60008060408385031215620001895762000188620000c0565b5b6000620001998582860162000113565b9250506020620001ac8582860162000158565b9150509250929050565b614f6380620001c66000396000f3fe608060405234801561001057600080fd5b50600436106100625760003560e01c80631c8734cf146100675780635c19a95c146100835780635c9cafcf1461009f578063bb26d08c146100d0578063cc5daa7a146100ec578063d353e96014610108575b600080fd5b610081600480360381019061007c91906133b0565b610124565b005b61009d6004803603810190610098919061340c565b61037e565b005b6100b960048036038101906100b49190613491565b610768565b6040516100c79291906136d2565b60405180910390f35b6100ea60048036038101906100e5919061385d565b611994565b005b61010660048036038101906101019190613bc6565b611ef2565b005b610122600480360381019061011d9190613d3d565b61284a565b005b61016833608060001b6040518060400160405280600681526020017f4d41535445520000000000000000000000000000000000000000000000000000815250612c64565b600061017383612cc2565b905060005b82518160ff16101561022e576000801b838260ff168151811061019e5761019d613e17565b5b60200260200101518316146101e657828160ff16815181106101c3576101c2613e17565b5b602002602001015160001c8260001c6101dc9190613e7f565b60001b915061021b565b828160ff16815181106101fc576101fb613e17565b5b602002602001015160001c8260001c6102159190613eb3565b60001b91505b808061022690613f09565b915050610178565b506000600167ffffffffffffffff81111561024c5761024b613237565b5b60405190808252806020026020018201604052801561027a5781602001602082028036833780820191505090505b5090506b4b80742de2bfb3cc0e49000060a01b8460601b6040516020016102a2929190613fcc565b6040516020818303038152906040526102ba9061402a565b816000815181106102ce576102cd613e17565b5b6020026020010181815250506000600167ffffffffffffffff8111156102f7576102f6613237565b5b60405190808252806020026020018201604052801561032a57816020015b60608152602001906001900390816103155790505b5090508260405160200161033e91906140b2565b6040516020818303038152906040528160008151811061036157610360613e17565b5b60200260200101819052506103768282612db0565b505050505050565b6103c233600860001b6040518060400160405280600c81526020017f53454e4444454c45474154450000000000000000000000000000000000000000815250612c64565b61040681601060001b6040518060400160405280600f81526020017f5245434945564544454c45474154450000000000000000000000000000000000815250612c64565b60006bc3f797d5c8ae536b82a6000060a01b8260601b60405160200161042d929190613fcc565b6040516020818303038152906040526104459061402a565b905060008060009054906101000a900473ffffffffffffffffffffffffffffffffffffffff1673ffffffffffffffffffffffffffffffffffffffff166354f6127f836040518263ffffffff1660e01b81526004016104a391906140dc565b600060405180830381865afa1580156104c0573d6000803e3d6000fd5b505050506040513d6000823e3d601f19601f820116820180604052508101906104e99190614167565b6104f2906141f1565b60801c90506000600267ffffffffffffffff81111561051457610513613237565b5b6040519080825280602002602001820160405280156105425781602001602082028036833780820191505090505b50905061054e83613083565b60006002811061056157610560613e17565b5b60200201518260801b60405160200161057b929190614279565b6040516020818303038152906040526105939061402a565b816000815181106105a7576105a6613e17565b5b60200260200101818152505082816001815181106105c8576105c7613e17565b5b6020026020010181815250506b0a30e74a6c7868e40014000060a01b3360601b6040516020016105f9929190613fcc565b6040516020818303038152906040526106119061402a565b8160028151811061062557610624613e17565b5b6020026020010181815250506000600267ffffffffffffffff81111561064e5761064d613237565b5b60405190808252806020026020018201604052801561068157816020015b606081526020019060019003908161066c5790505b5090503360601b60405160200161069891906142a5565b604051602081830303815290604052816000815181106106bb576106ba613e17565b5b60200260200101819052506001836106d391906142dc565b60801b6040516020016106e69190614322565b6040516020818303038152906040528160018151811061070957610708613e17565b5b60200260200101819052508460601b60405160200161072891906142a5565b6040516020818303038152906040528160028151811061074b5761074a613e17565b5b60200260200101819052506107608282612db0565b505050505050565b6060806107af33600460001b6040518060400160405280600781526020017f4558454355544500000000000000000000000000000000000000000000000000815250612c64565b4260008054906101000a900473ffffffffffffffffffffffffffffffffffffffff1673ffffffffffffffffffffffffffffffffffffffff166354f6127f7fd08ca3a83d59467dd8ba57e940549874ea8310a1ebfb4396959235b00035d77760001b6040518263ffffffff1660e01b815260040161082c91906140dc565b600060405180830381865afa158015610849573d6000803e3d6000fd5b505050506040513d6000823e3d601f19601f820116820180604052508101906108729190614167565b61087b9061437e565b60d01c65ffffffffffff1660008054906101000a900473ffffffffffffffffffffffffffffffffffffffff1673ffffffffffffffffffffffffffffffffffffffff166354f6127f7f5bd05fa174be6a4aa4a8222f8837a27a381de14e7797cf7945df58b0626e6c3d60001b6040518263ffffffff1660e01b815260040161090291906140dc565b600060405180830381865afa15801561091f573d6000803e3d6000fd5b505050506040513d6000823e3d601f19601f820116820180604052508101906109489190614167565b6109519061437e565b60d01c65ffffffffffff1660008054906101000a900473ffffffffffffffffffffffffffffffffffffffff1673ffffffffffffffffffffffffffffffffffffffff166354f6127f73bd3132afbfa232f7d171a873f7e52e32c666b06d60501b6040518263ffffffff1660e01b81526004016109cc9190614432565b600060405180830381865afa1580156109e9573d6000803e3d6000fd5b505050506040513d6000823e3d601f19601f82011682018060405250810190610a129190614167565b610a1b9061437e565b60d01c65ffffffffffff16610a309190613eb3565b610a3a9190613eb3565b1115610a7e57600f6040517ff3a4c8ae000000000000000000000000000000000000000000000000000000008152600401610a7591906144c1565b60405180910390fd5b60008060009054906101000a900473ffffffffffffffffffffffffffffffffffffffff1673ffffffffffffffffffffffffffffffffffffffff166354f6127f8573ed458cca63dcf8476211a40ad15420dcabc377f060501b604051602001610ae792919061451e565b604051602081830303815290604052610aff9061402a565b6040518263ffffffff1660e01b8152600401610b1b91906140dc565b600060405180830381865afa158015610b38573d6000803e3d6000fd5b505050506040513d6000823e3d601f19601f82011682018060405250810190610b619190614167565b610b6a9061402a565b60001c03610bb05760106040517ff3a4c8ae000000000000000000000000000000000000000000000000000000008152600401610ba79190614585565b60405180910390fd5b60008060009054906101000a900473ffffffffffffffffffffffffffffffffffffffff1673ffffffffffffffffffffffffffffffffffffffff166354f6127f8573e5dd8acc7154a678a0a3fa3fe2d65b8700bf702c60501b604051602001610c1992919061451e565b604051602081830303815290604052610c319061402a565b6040518263ffffffff1660e01b8152600401610c4d91906140dc565b600060405180830381865afa158015610c6a573d6000803e3d6000fd5b505050506040513d6000823e3d601f19601f82011682018060405250810190610c939190614167565b610c9c906145b5565b60f81c905060008060009054906101000a900473ffffffffffffffffffffffffffffffffffffffff1673ffffffffffffffffffffffffffffffffffffffff166354f6127f7fdf30dba06db6a30e65354d9a64c609861f089545ca58c6b4dbe31a5f338cb0e360001b6040518263ffffffff1660e01b8152600401610d2091906140dc565b600060405180830381865afa158015610d3d573d6000803e3d6000fd5b505050506040513d6000823e3d601f19601f82011682018060405250810190610d669190614167565b610d6f9061402a565b60001c905060008260ff1667ffffffffffffffff811115610d9357610d92613237565b5b604051908082528060200260200182016040528015610dc15781602001602082028036833780820191505090505b50905060005b82816fffffffffffffffffffffffffffffffff1610156112795760008060009054906101000a900473ffffffffffffffffffffffffffffffffffffffff1673ffffffffffffffffffffffffffffffffffffffff166354f6127f6fdf30dba06db6a30e65354d9a64c6098660801b8460801b604051602001610e49929190614279565b604051602081830303815290604052610e619061402a565b6040518263ffffffff1660e01b8152600401610e7d91906140dc565b600060405180830381865afa158015610e9a573d6000803e3d6000fd5b505050506040513d6000823e3d601f19601f82011682018060405250810190610ec39190614167565b610ecc90614631565b60601c90506000610edc82612cc2565b905060008060009054906101000a900473ffffffffffffffffffffffffffffffffffffffff1673ffffffffffffffffffffffffffffffffffffffff166354f6127f6b0a30e74a6c7868e40014000060a01b8560601b604051602001610f42929190613fcc565b604051602081830303815290604052610f5a9061402a565b6040518263ffffffff1660e01b8152600401610f7691906140dc565b600060405180830381865afa158015610f93573d6000803e3d6000fd5b505050506040513d6000823e3d601f19601f82011682018060405250810190610fbc9190614167565b610fc590614631565b90506000801b600160001b83161461126357600080600060601b6bffffffffffffffffffffffff1916836bffffffffffffffffffffffff1916036110bf576001905060008054906101000a900473ffffffffffffffffffffffffffffffffffffffff1673ffffffffffffffffffffffffffffffffffffffff166354f6127f61104d8e886130f1565b6040518263ffffffff1660e01b815260040161106991906140dc565b600060405180830381865afa158015611086573d6000803e3d6000fd5b505050506040513d6000823e3d601f19601f820116820180604052508101906110af9190614167565b6110b8906146ad565b91506110c4565b600090505b6000801b601060001b8516146111c95760008054906101000a900473ffffffffffffffffffffffffffffffffffffffff1673ffffffffffffffffffffffffffffffffffffffff166354f6127f6bc3f797d5c8ae536b82a6000060a01b8760601b604051602001611135929190613fcc565b60405160208183030381529060405261114d9061402a565b6040518263ffffffff1660e01b815260040161116991906140dc565b600060405180830381865afa158015611186573d6000803e3d6000fd5b505050506040513d6000823e3d601f19601f820116820180604052508101906111af9190614167565b6111b89061402a565b60001c816111c69190613eb3565b90505b60005b8960ff168160ff16101561125f57600060f01b8160ff166001901b60f01b84167dffffffffffffffffffffffffffffffffffffffffffffffffffffffffffff19160361121957600061124b565b81888260ff16815181106112305761122f613e17565b5b602002602001018181516112449190613eb3565b9150818152505b50808061125790613f09565b9150506111cc565b5050505b505050808061127190614714565b915050610dc7565b50600080600080600090505b8660ff168110156113b6578481815181106112a3576112a2613e17565b5b6020026020010151846112b69190613eb3565b93506002876112c5919061477b565b60ff1681101561133b578481815181106112e2576112e1613e17565b5b60200260200101518760ff1660648360028b6112fe919061477b565b60ff1661130b9190613e7f565b61131591906147ac565b61131f9190614806565b61132991906147ac565b836113349190613eb3565b92506113a3565b84818151811061134e5761134d613e17565b5b60200260200101518760ff16606460028a611369919061477b565b60ff16846113779190613e7f565b61138191906147ac565b61138b9190614806565b61139591906147ac565b826113a09190613eb3565b91505b80806113ae90614837565b915050611285565b5060008060009054906101000a900473ffffffffffffffffffffffffffffffffffffffff1673ffffffffffffffffffffffffffffffffffffffff166354f6127f7fbc776f168e7b9c60bb2a7180950facd372cd90c841732d963c31a93ff9f8c12760001b6040518263ffffffff1660e01b815260040161143691906140dc565b600060405180830381865afa158015611453573d6000803e3d6000fd5b505050506040513d6000823e3d601f19601f8201168201806040525081019061147c9190614167565b6114859061402a565b60001c905060008060009054906101000a900473ffffffffffffffffffffffffffffffffffffffff1673ffffffffffffffffffffffffffffffffffffffff166354f6127f7ff89f507ecd9cb7646ce1514ec6ab90d695dac9314c3771f451fd90148a3335a960001b6040518263ffffffff1660e01b815260040161150991906140dc565b600060405180830381865afa158015611526573d6000803e3d6000fd5b505050506040513d6000823e3d601f19601f8201168201806040525081019061154f9190614167565b6115589061402a565b60001c905086816115699190614806565b87866115759190614806565b118015611597575084826115899190614806565b85846115959190614806565b115b156119875760008b73ba6d4933d1a0fbfd29728a3ed8d0a7aca50635b560501b6040516020016115c892919061451e565b6040516020818303038152906040526115e09061402a565b905060008c73478499bb6846f8a28632137c772be842c41b310560501b60405160200161160e92919061451e565b6040516020818303038152906040526116269061402a565b905060008060009054906101000a900473ffffffffffffffffffffffffffffffffffffffff1673ffffffffffffffffffffffffffffffffffffffff166354f6127f846040518263ffffffff1660e01b815260040161168491906140dc565b600060405180830381865afa1580156116a1573d6000803e3d6000fd5b505050506040513d6000823e3d601f19601f820116820180604052508101906116ca9190614167565b6116d39061402a565b60001c90508067ffffffffffffffff8111156116f2576116f1613237565b5b6040519080825280602002602001820160405280156117205781602001602082028036833780820191505090505b509c508067ffffffffffffffff81111561173d5761173c613237565b5b60405190808252806020026020018201604052801561177057816020015b606081526020019060019003908161175b5790505b509b5060005b818110156119825760008054906101000a900473ffffffffffffffffffffffffffffffffffffffff1673ffffffffffffffffffffffffffffffffffffffff166354f6127f856040518263ffffffff1660e01b81526004016117d791906140dc565b600060405180830381865afa1580156117f4573d6000803e3d6000fd5b505050506040513d6000823e3d601f19601f8201168201806040525081019061181d9190614167565b61182690614631565b60601c73ffffffffffffffffffffffffffffffffffffffff1660008054906101000a900473ffffffffffffffffffffffffffffffffffffffff1673ffffffffffffffffffffffffffffffffffffffff166354f6127f856040518263ffffffff1660e01b815260040161189891906140dc565b600060405180830381865afa1580156118b5573d6000803e3d6000fd5b505050506040513d6000823e3d601f19601f820116820180604052508101906118de9190614167565b6040516118eb91906148bb565b6000604051808303816000865af19150503d8060008114611928576040519150601f19603f3d011682016040523d82523d6000602084013e61192d565b606091505b508f838151811061194157611940613e17565b5b602002602001018f848151811061195b5761195a613e17565b5b6020026020010182905282151515158152505050808061197a90614837565b915050611776565b505050505b5050505050505050915091565b6119d833600160001b6040518060400160405280600481526020017f564f544500000000000000000000000000000000000000000000000000000000815250612c64565b60008060009054906101000a900473ffffffffffffffffffffffffffffffffffffffff1673ffffffffffffffffffffffffffffffffffffffff166354f6127f611a2186336130f1565b6040518263ffffffff1660e01b8152600401611a3d91906140dc565b600060405180830381865afa158015611a5a573d6000803e3d6000fd5b505050506040513d6000823e3d601f19601f82011682018060405250810190611a839190614167565b611a8c9061402a565b60001c14611ad25760116040517ff3a4c8ae000000000000000000000000000000000000000000000000000000008152600401611ac9919061490d565b60405180910390fd5b805160008054906101000a900473ffffffffffffffffffffffffffffffffffffffff1673ffffffffffffffffffffffffffffffffffffffff166354f6127f8573ed458cca63dcf8476211a40ad15420dcabc377f060501b604051602001611b3a92919061451e565b604051602081830303815290604052611b529061402a565b6040518263ffffffff1660e01b8152600401611b6e91906140dc565b600060405180830381865afa158015611b8b573d6000803e3d6000fd5b505050506040513d6000823e3d601f19601f82011682018060405250810190611bb49190614167565b611bbd906145b5565b60f81c60ff161015611c075760126040517ff3a4c8ae000000000000000000000000000000000000000000000000000000008152600401611bfe9190614963565b60405180910390fd5b6000805b8251816fffffffffffffffffffffffffffffffff161015611dcf5782816fffffffffffffffffffffffffffffffff1681518110611c4b57611c4a613e17565b5b602002602001015160ff1660008054906101000a900473ffffffffffffffffffffffffffffffffffffffff1673ffffffffffffffffffffffffffffffffffffffff166354f6127f611cdc8873e5dd8acc7154a678a0a3fa3fe2d65b8700bf702c60501b604051602001611cbf92919061451e565b604051602081830303815290604052611cd79061402a565b613083565b600060028110611cef57611cee613e17565b5b60200201518460801b604051602001611d09929190614279565b604051602081830303815290604052611d219061402a565b6040518263ffffffff1660e01b8152600401611d3d91906140dc565b600060405180830381865afa158015611d5a573d6000803e3d6000fd5b505050506040513d6000823e3d601f19601f82011682018060405250810190611d839190614167565b611d8c906145b5565b60f81c60ff1603611dbc57806fffffffffffffffffffffffffffffffff166001901b82611db9919061498c565b91505b8080611dc790614714565b915050611c0b565b506000600167ffffffffffffffff811115611ded57611dec613237565b5b604051908082528060200260200182016040528015611e1b5781602001602082028036833780820191505090505b509050611e2885336130f1565b81600081518110611e3c57611e3b613e17565b5b6020026020010181815250506000600167ffffffffffffffff811115611e6557611e64613237565b5b604051908082528060200260200182016040528015611e9857816020015b6060815260200190600190039081611e835790505b509050848360f01b604051602001611eb1929190614a06565b60405160208183030381529060405281600081518110611ed457611ed3613e17565b5b6020026020010181905250611ee98282612db0565b50505050505050565b611f3633600260001b6040518060400160405280600781526020017f50524f504f534500000000000000000000000000000000000000000000000000815250612c64565b8251845114611f7d57600c6040517ff3a4c8ae000000000000000000000000000000000000000000000000000000008152600401611f749190614a6d565b60405180910390fd5b60108260ff161115611fc757600d6040517ff3a4c8ae000000000000000000000000000000000000000000000000000000008152600401611fbe9190614ac3565b60405180910390fd5b8160ff168160ff16111561201357600e6040517ff3a4c8ae00000000000000000000000000000000000000000000000000000000815260040161200a9190614b19565b60405180910390fd5b60008451600261202391906147ac565b90506000612031428961312f565b905060006007836120429190613eb3565b67ffffffffffffffff81111561205b5761205a613237565b5b6040519080825280602002602001820160405280156120895781602001602082028036833780820191505090505b509050600060078461209b9190613eb3565b67ffffffffffffffff8111156120b4576120b3613237565b5b6040519080825280602002602001820160405280156120e757816020015b60608152602001906001900390816120d25790505b50905060008411156123405760005b88518161ffff16101561233e5761214d8473ba6d4933d1a0fbfd29728a3ed8d0a7aca50635b560501b60405160200161213092919061451e565b6040516020818303038152906040526121489061402a565b613083565b6000600281106121605761215f613e17565b5b60200201518161ffff1660801b60405160200161217e929190614279565b6040516020818303038152906040526121969061402a565b838261ffff16815181106121ad576121ac613e17565b5b6020026020010181815250506122038473478499bb6846f8a28632137c772be842c41b310560501b6040516020016121e692919061451e565b6040516020818303038152906040526121fe9061402a565b613083565b60006002811061221657612215613e17565b5b60200201518161ffff1660801b604051602001612234929190614279565b60405160208183030381529060405261224c9061402a565b838a518361ffff1661225e9190613eb3565b8151811061226f5761226e613e17565b5b602002602001018181525050888161ffff168151811061229257612291613e17565b5b602002602001015160601b6040516020016122ad91906142a5565b604051602081830303815290604052828261ffff16815181106122d3576122d2613e17565b5b6020026020010181905250878161ffff16815181106122f5576122f4613e17565b5b6020026020010151828a518361ffff1661230f9190613eb3565b815181106123205761231f613e17565b5b6020026020010181905250808061233690614b34565b9150506120f6565b505b8273ba6d4933d1a0fbfd29728a3ed8d0a7aca50635b560501b60405160200161236a92919061451e565b6040516020818303038152906040526123829061402a565b826000866123909190613eb3565b815181106123a1576123a0613e17565b5b6020026020010181815250508273478499bb6846f8a28632137c772be842c41b310560501b6040516020016123d792919061451e565b6040516020818303038152906040526123ef9061402a565b826001866123fd9190613eb3565b8151811061240e5761240d613e17565b5b60200260200101818152505082733f82a2b5852cbedcda3d9062384397479ac9a00d60501b60405160200161244492919061451e565b60405160208183030381529060405261245c9061402a565b8260028661246a9190613eb3565b8151811061247b5761247a613e17565b5b602002602001018181525050827395e794640ff3efd16bfe738f1a9bf2886d166af560501b6040516020016124b192919061451e565b6040516020818303038152906040526124c99061402a565b826003866124d79190613eb3565b815181106124e8576124e7613e17565b5b6020026020010181815250508273bd3132afbfa232f7d171a873f7e52e32c666b06d60501b60405160200161251e92919061451e565b6040516020818303038152906040526125369061402a565b826004866125449190613eb3565b8151811061255557612554613e17565b5b6020026020010181815250508273e5dd8acc7154a678a0a3fa3fe2d65b8700bf702c60501b60405160200161258b92919061451e565b6040516020818303038152906040526125a39061402a565b826005866125b19190613eb3565b815181106125c2576125c1613e17565b5b6020026020010181815250508273ed458cca63dcf8476211a40ad15420dcabc377f060501b6040516020016125f892919061451e565b6040516020818303038152906040526126109061402a565b8260068661261e9190613eb3565b8151811061262f5761262e613e17565b5b602002602001018181525050875160001b60405160200161265091906140b2565b6040516020818303038152906040528160008661266d9190613eb3565b8151811061267e5761267d613e17565b5b6020026020010181905250865160001b60405160200161269e91906140b2565b604051602081830303815290604052816001866126bb9190613eb3565b815181106126cc576126cb613e17565b5b6020026020010181905250896040516020016126e891906140b2565b604051602081830303815290604052816002866127059190613eb3565b8151811061271657612715613e17565b5b602002602001018190525088816003866127309190613eb3565b8151811061274157612740613e17565b5b60200260200101819052504260d01b6040516020016127609190614b7f565b6040516020818303038152906040528160048661277d9190613eb3565b8151811061278e5761278d613e17565b5b60200260200101819052508560f81b6040516020016127ad9190614bbb565b604051602081830303815290604052816005866127ca9190613eb3565b815181106127db576127da613e17565b5b60200260200101819052508460f81b6040516020016127fa9190614bbb565b604051602081830303815290604052816006866128179190613eb3565b8151811061282857612827613e17565b5b602002602001018190525061283d8282612db0565b5050505050505050505050565b6000600767ffffffffffffffff81111561286757612866613237565b5b6040519080825280602002602001820160405280156128955781602001602082028036833780820191505090505b5090507f3f82a2b5852cbedcda3d9062384397479ac9a00dae9991874d842bec7aab98ce60001b816000815181106128d0576128cf613e17565b5b6020026020010181815250507f95e794640ff3efd16bfe738f1a9bf2886d166af549121f57d6e14af6b513f45d60001b8160018151811061291457612913613e17565b5b6020026020010181815250507fbc776f168e7b9c60bb2a7180950facd372cd90c841732d963c31a93ff9f8c12760001b8160028151811061295857612957613e17565b5b6020026020010181815250507ff89f507ecd9cb7646ce1514ec6ab90d695dac9314c3771f451fd90148a3335a960001b8160038151811061299c5761299b613e17565b5b6020026020010181815250507f5bd05fa174be6a4aa4a8222f8837a27a381de14e7797cf7945df58b0626e6c3d60001b816004815181106129e0576129df613e17565b5b6020026020010181815250507fd08ca3a83d59467dd8ba57e940549874ea8310a1ebfb4396959235b00035d77760001b81600581518110612a2457612a23613e17565b5b6020026020010181815250507fa45b1e711ab5d2d7654c92da78c9148c51fb0a58b116afda9fbf612c88e9680d60001b81600681518110612a6857612a67613e17565b5b6020026020010181815250506000600767ffffffffffffffff811115612a9157612a90613237565b5b604051908082528060200260200182016040528015612ac457816020015b6060815260200190600190039081612aaf5790505b5090508881600081518110612adc57612adb613e17565b5b60200260200101819052508781600181518110612afc57612afb613e17565b5b60200260200101819052508660f81b604051602001612b1b9190614bbb565b60405160208183030381529060405281600281518110612b3e57612b3d613e17565b5b60200260200101819052508560f81b604051602001612b5d9190614bbb565b60405160208183030381529060405281600381518110612b8057612b7f613e17565b5b60200260200101819052508460d01b604051602001612b9f9190614b7f565b60405160208183030381529060405281600481518110612bc257612bc1613e17565b5b60200260200101819052508360d01b604051602001612be19190614b7f565b60405160208183030381529060405281600581518110612c0457612c03613e17565b5b602002602001018190525082604051602001612c209190614bbb565b60405160208183030381529060405281600681518110612c4357612c42613e17565b5b6020026020010181905250612c588282612db0565b50505050505050505050565b6000612c6f84612cc2565b90506000801b83821603612cbc5783826040517f3bdad6e6000000000000000000000000000000000000000000000000000000008152600401612cb3929190614c3a565b60405180910390fd5b50505050565b60008060009054906101000a900473ffffffffffffffffffffffffffffffffffffffff1673ffffffffffffffffffffffffffffffffffffffff166354f6127f6b4b80742de2bfb3cc0e49000060a01b8460601b604051602001612d26929190613fcc565b604051602081830303815290604052612d3e9061402a565b6040518263ffffffff1660e01b8152600401612d5a91906140dc565b600060405180830381865afa158015612d77573d6000803e3d6000fd5b505050506040513d6000823e3d601f19601f82011682018060405250810190612da09190614167565b612da99061402a565b9050919050565b60608151835114612dc057600080fd5b6000835111612dce57600080fd5b6001835103612f4757600160009054906101000a900473ffffffffffffffffffffffffffffffffffffffff1673ffffffffffffffffffffffffffffffffffffffff166309c5eabe7f7f23690cc80a596acdae0a51503f8066ffd79ab76fd5c929578309d2e2883b7785600081518110612e4a57612e49613e17565b5b602002602001015185600081518110612e6657612e65613e17565b5b6020026020010151604051602401612e7f929190614cb4565b604051602081830303815290604052907bffffffffffffffffffffffffffffffffffffffffffffffffffffffff19166020820180517bffffffffffffffffffffffffffffffffffffffffffffffffffffffff83818316178352505050506040518263ffffffff1660e01b8152600401612ef89190614ce4565b6000604051808303816000875af1158015612f17573d6000803e3d6000fd5b505050506040513d6000823e3d601f19601f82011682018060405250810190612f409190614167565b905061307d565b600160009054906101000a900473ffffffffffffffffffffffffffffffffffffffff1673ffffffffffffffffffffffffffffffffffffffff166309c5eabe7f14a6e2931875c22579e483160c8d2832a3fb3acbd575a49f6a0f7fc5e135f7898585604051602401612fb9929190614dc4565b604051602081830303815290604052907bffffffffffffffffffffffffffffffffffffffffffffffffffffffff19166020820180517bffffffffffffffffffffffffffffffffffffffffffffffffffffffff83818316178352505050506040518263ffffffff1660e01b81526004016130329190614ce4565b6000604051808303816000875af1158015613051573d6000803e3d6000fd5b505050506040513d6000823e3d601f19601f8201168201806040525081019061307a9190614167565b90505b92915050565b61308b61318d565b6040518060400160405280600060801b6fffffffffffffffffffffffffffffffff19166fffffffffffffffffffffffffffffffff19168152602001600060801b6fffffffffffffffffffffffffffffffff19168152509050818152816010820152919050565b600082600060f01b8360601b60405160200161310f93929190614dfb565b6040516020818303038152906040526131279061402a565b905092915050565b60008260d01b8260405160200161314691906140b2565b6040516020818303038152906040528051906020012060405160200161316d929190614e85565b60405160208183030381529060405261318590614ec6565b905092915050565b6040518060400160405280600290602082028036833780820191505090505090565b6000604051905090565b600080fd5b600080fd5b600073ffffffffffffffffffffffffffffffffffffffff82169050919050565b60006131ee826131c3565b9050919050565b6131fe816131e3565b811461320957600080fd5b50565b60008135905061321b816131f5565b92915050565b600080fd5b6000601f19601f8301169050919050565b7f4e487b7100000000000000000000000000000000000000000000000000000000600052604160045260246000fd5b61326f82613226565b810181811067ffffffffffffffff8211171561328e5761328d613237565b5b80604052505050565b60006132a16131af565b90506132ad8282613266565b919050565b600067ffffffffffffffff8211156132cd576132cc613237565b5b602082029050602081019050919050565b600080fd5b6000819050919050565b6132f6816132e3565b811461330157600080fd5b50565b600081359050613313816132ed565b92915050565b600061332c613327846132b2565b613297565b9050808382526020820190506020840283018581111561334f5761334e6132de565b5b835b8181101561337857806133648882613304565b845260208401935050602081019050613351565b5050509392505050565b600082601f83011261339757613396613221565b5b81356133a7848260208601613319565b91505092915050565b600080604083850312156133c7576133c66131b9565b5b60006133d58582860161320c565b925050602083013567ffffffffffffffff8111156133f6576133f56131be565b5b61340285828601613382565b9150509250929050565b600060208284031215613422576134216131b9565b5b60006134308482850161320c565b91505092915050565b60007fffffffffffffffffffff0000000000000000000000000000000000000000000082169050919050565b61346e81613439565b811461347957600080fd5b50565b60008135905061348b81613465565b92915050565b6000602082840312156134a7576134a66131b9565b5b60006134b58482850161347c565b91505092915050565b600081519050919050565b600082825260208201905092915050565b6000819050602082019050919050565b60008115159050919050565b6134ff816134ea565b82525050565b600061351183836134f6565b60208301905092915050565b6000602082019050919050565b6000613535826134be565b61353f81856134c9565b935061354a836134da565b8060005b8381101561357b5781516135628882613505565b975061356d8361351d565b92505060018101905061354e565b5085935050505092915050565b600081519050919050565b600082825260208201905092915050565b6000819050602082019050919050565b600081519050919050565b600082825260208201905092915050565b60005b838110156135ee5780820151818401526020810190506135d3565b838111156135fd576000848401525b50505050565b600061360e826135b4565b61361881856135bf565b93506136288185602086016135d0565b61363181613226565b840191505092915050565b60006136488383613603565b905092915050565b6000602082019050919050565b600061366882613588565b6136728185613593565b935083602082028501613684856135a4565b8060005b858110156136c057848403895281516136a1858261363c565b94506136ac83613650565b925060208a01995050600181019050613688565b50829750879550505050505092915050565b600060408201905081810360008301526136ec818561352a565b90508181036020830152613700818461365d565b90509392505050565b60007fffffffffffffffffffffffffffffffffffffffffffffffffffffffffffff000082169050919050565b61373e81613709565b811461374957600080fd5b50565b60008135905061375b81613735565b92915050565b600067ffffffffffffffff82111561377c5761377b613237565b5b602082029050602081019050919050565b600060ff82169050919050565b6137a38161378d565b81146137ae57600080fd5b50565b6000813590506137c08161379a565b92915050565b60006137d96137d484613761565b613297565b905080838252602082019050602084028301858111156137fc576137fb6132de565b5b835b81811015613825578061381188826137b1565b8452602084019350506020810190506137fe565b5050509392505050565b600082601f83011261384457613843613221565b5b81356138548482602086016137c6565b91505092915050565b600080600060608486031215613876576138756131b9565b5b60006138848682870161347c565b93505060206138958682870161374c565b925050604084013567ffffffffffffffff8111156138b6576138b56131be565b5b6138c28682870161382f565b9150509250925092565b600080fd5b600067ffffffffffffffff8211156138ec576138eb613237565b5b6138f582613226565b9050602081019050919050565b82818337600083830152505050565b600061392461391f846138d1565b613297565b9050828152602081018484840111156139405761393f6138cc565b5b61394b848285613902565b509392505050565b600082601f83011261396857613967613221565b5b8135613978848260208601613911565b91505092915050565b600067ffffffffffffffff82111561399c5761399b613237565b5b602082029050602081019050919050565b60006139c06139bb84613981565b613297565b905080838252602082019050602084028301858111156139e3576139e26132de565b5b835b81811015613a0c57806139f8888261320c565b8452602084019350506020810190506139e5565b5050509392505050565b600082601f830112613a2b57613a2a613221565b5b8135613a3b8482602086016139ad565b91505092915050565b600067ffffffffffffffff821115613a5f57613a5e613237565b5b602082029050602081019050919050565b600067ffffffffffffffff821115613a8b57613a8a613237565b5b613a9482613226565b9050602081019050919050565b6000613ab4613aaf84613a70565b613297565b905082815260208101848484011115613ad057613acf6138cc565b5b613adb848285613902565b509392505050565b600082601f830112613af857613af7613221565b5b8135613b08848260208601613aa1565b91505092915050565b6000613b24613b1f84613a44565b613297565b90508083825260208201905060208402830185811115613b4757613b466132de565b5b835b81811015613b8e57803567ffffffffffffffff811115613b6c57613b6b613221565b5b808601613b798982613ae3565b85526020850194505050602081019050613b49565b5050509392505050565b600082601f830112613bad57613bac613221565b5b8135613bbd848260208601613b11565b91505092915050565b60008060008060008060c08789031215613be357613be26131b9565b5b6000613bf189828a01613304565b965050602087013567ffffffffffffffff811115613c1257613c116131be565b5b613c1e89828a01613953565b955050604087013567ffffffffffffffff811115613c3f57613c3e6131be565b5b613c4b89828a01613a16565b945050606087013567ffffffffffffffff811115613c6c57613c6b6131be565b5b613c7889828a01613b98565b9350506080613c8989828a016137b1565b92505060a0613c9a89828a016137b1565b9150509295509295509295565b600065ffffffffffff82169050919050565b613cc281613ca7565b8114613ccd57600080fd5b50565b600081359050613cdf81613cb9565b92915050565b60007fff0000000000000000000000000000000000000000000000000000000000000082169050919050565b613d1a81613ce5565b8114613d2557600080fd5b50565b600081359050613d3781613d11565b92915050565b600080600080600080600060e0888a031215613d5c57613d5b6131b9565b5b600088013567ffffffffffffffff811115613d7a57613d796131be565b5b613d868a828b01613953565b975050602088013567ffffffffffffffff811115613da757613da66131be565b5b613db38a828b01613953565b9650506040613dc48a828b016137b1565b9550506060613dd58a828b016137b1565b9450506080613de68a828b01613cd0565b93505060a0613df78a828b01613cd0565b92505060c0613e088a828b01613d28565b91505092959891949750929550565b7f4e487b7100000000000000000000000000000000000000000000000000000000600052603260045260246000fd5b6000819050919050565b7f4e487b7100000000000000000000000000000000000000000000000000000000600052601160045260246000fd5b6000613e8a82613e46565b9150613e9583613e46565b925082821015613ea857613ea7613e50565b5b828203905092915050565b6000613ebe82613e46565b9150613ec983613e46565b9250827fffffffffffffffffffffffffffffffffffffffffffffffffffffffffffffffff03821115613efe57613efd613e50565b5b828201905092915050565b6000613f148261378d565b915060ff8203613f2757613f26613e50565b5b600182019050919050565b60007fffffffffffffffffffffffff000000000000000000000000000000000000000082169050919050565b6000819050919050565b613f79613f7482613f32565b613f5e565b82525050565b60007fffffffffffffffffffffffffffffffffffffffff00000000000000000000000082169050919050565b6000819050919050565b613fc6613fc182613f7f565b613fab565b82525050565b6000613fd88285613f68565b600c82019150613fe88284613fb5565b6014820191508190509392505050565b6000819050602082019050919050565b600061401482516132e3565b80915050919050565b600082821b905092915050565b6000614035826135b4565b8261403f84613ff8565b905061404a81614008565b9250602082101561408a576140857fffffffffffffffffffffffffffffffffffffffffffffffffffffffffffffffff8360200360080261401d565b831692505b5050919050565b6000819050919050565b6140ac6140a7826132e3565b614091565b82525050565b60006140be828461409b565b60208201915081905092915050565b6140d6816132e3565b82525050565b60006020820190506140f160008301846140cd565b92915050565b600061410a61410584613a70565b613297565b905082815260208101848484011115614126576141256138cc565b5b6141318482856135d0565b509392505050565b600082601f83011261414e5761414d613221565b5b815161415e8482602086016140f7565b91505092915050565b60006020828403121561417d5761417c6131b9565b5b600082015167ffffffffffffffff81111561419b5761419a6131be565b5b6141a784828501614139565b91505092915050565b60007fffffffffffffffffffffffffffffffff0000000000000000000000000000000082169050919050565b60006141e882516141b0565b80915050919050565b60006141fc826135b4565b8261420684613ff8565b9050614211816141dc565b925060108210156142515761424c7fffffffffffffffffffffffffffffffff000000000000000000000000000000008360100360080261401d565b831692505b5050919050565b6000819050919050565b61427361426e826141b0565b614258565b82525050565b60006142858285614262565b6010820191506142958284614262565b6010820191508190509392505050565b60006142b18284613fb5565b60148201915081905092915050565b60006fffffffffffffffffffffffffffffffff82169050919050565b60006142e7826142c0565b91506142f2836142c0565b9250826fffffffffffffffffffffffffffffffff0382111561431757614316613e50565b5b828201905092915050565b600061432e8284614262565b60108201915081905092915050565b60007fffffffffffff000000000000000000000000000000000000000000000000000082169050919050565b6000614375825161433d565b80915050919050565b6000614389826135b4565b8261439384613ff8565b905061439e81614369565b925060068210156143de576143d97fffffffffffff00000000000000000000000000000000000000000000000000008360060360080261401d565b831692505b5050919050565b60007fffffffffffffffffffffffffffffffffffffffffffff0000000000000000000082169050919050565b600061441c826143e5565b9050919050565b61442c81614411565b82525050565b60006020820190506144476000830184614423565b92915050565b6000819050919050565b60007fffff00000000000000000000000000000000000000000000000000000000000082169050919050565b60008160f01b9050919050565b60006144ab6144a66144a18461444d565b614483565b614457565b9050919050565b6144bb81614490565b82525050565b60006020820190506144d660008301846144b2565b92915050565b6000819050919050565b6144f76144f282613439565b6144dc565b82525050565b6000819050919050565b614518614513826143e5565b6144fd565b82525050565b600061452a82856144e6565b600a8201915061453a8284614507565b6016820191508190509392505050565b6000819050919050565b600061456f61456a6145658461454a565b614483565b614457565b9050919050565b61457f81614554565b82525050565b600060208201905061459a6000830184614576565b92915050565b60006145ac8251613ce5565b80915050919050565b60006145c0826135b4565b826145ca84613ff8565b90506145d5816145a0565b92506001821015614615576146107fff000000000000000000000000000000000000000000000000000000000000008360010360080261401d565b831692505b5050919050565b60006146288251613f7f565b80915050919050565b600061463c826135b4565b8261464684613ff8565b90506146518161461c565b925060148210156146915761468c7fffffffffffffffffffffffffffffffffffffffff0000000000000000000000008360140360080261401d565b831692505b5050919050565b60006146a48251614457565b80915050919050565b60006146b8826135b4565b826146c284613ff8565b90506146cd81614698565b9250600282101561470d576147087fffff0000000000000000000000000000000000000000000000000000000000008360020360080261401d565b831692505b5050919050565b600061471f826142c0565b91506fffffffffffffffffffffffffffffffff820361474157614740613e50565b5b600182019050919050565b7f4e487b7100000000000000000000000000000000000000000000000000000000600052601260045260246000fd5b60006147868261378d565b91506147918361378d565b9250826147a1576147a061474c565b5b828204905092915050565b60006147b782613e46565b91506147c283613e46565b9250817fffffffffffffffffffffffffffffffffffffffffffffffffffffffffffffffff04831182151516156147fb576147fa613e50565b5b828202905092915050565b600061481182613e46565b915061481c83613e46565b92508261482c5761482b61474c565b5b828204905092915050565b600061484282613e46565b91507fffffffffffffffffffffffffffffffffffffffffffffffffffffffffffffffff820361487457614873613e50565b5b600182019050919050565b600081905092915050565b6000614895826135b4565b61489f818561487f565b93506148af8185602086016135d0565b80840191505092915050565b60006148c7828461488a565b915081905092915050565b6000819050919050565b60006148f76148f26148ed846148d2565b614483565b614457565b9050919050565b614907816148dc565b82525050565b600060208201905061492260008301846148fe565b92915050565b6000819050919050565b600061494d61494861494384614928565b614483565b614457565b9050919050565b61495d81614932565b82525050565b60006020820190506149786000830184614954565b92915050565b600061ffff82169050919050565b60006149978261497e565b91506149a28361497e565b92508261ffff038211156149b9576149b8613e50565b5b828201905092915050565b6000819050919050565b6149df6149da82613709565b6149c4565b82525050565b6000819050919050565b614a006149fb82614457565b6149e5565b82525050565b6000614a1282856149ce565b601e82019150614a2282846149ef565b6002820191508190509392505050565b6000819050919050565b6000614a57614a52614a4d84614a32565b614483565b614457565b9050919050565b614a6781614a3c565b82525050565b6000602082019050614a826000830184614a5e565b92915050565b6000819050919050565b6000614aad614aa8614aa384614a88565b614483565b614457565b9050919050565b614abd81614a92565b82525050565b6000602082019050614ad86000830184614ab4565b92915050565b6000819050919050565b6000614b03614afe614af984614ade565b614483565b614457565b9050919050565b614b1381614ae8565b82525050565b6000602082019050614b2e6000830184614b0a565b92915050565b6000614b3f8261497e565b915061ffff8203614b5357614b52613e50565b5b600182019050919050565b6000819050919050565b614b79614b748261433d565b614b5e565b82525050565b6000614b8b8284614b68565b60068201915081905092915050565b6000819050919050565b614bb5614bb082613ce5565b614b9a565b82525050565b6000614bc78284614ba4565b60018201915081905092915050565b614bdf816131e3565b82525050565b600081519050919050565b600082825260208201905092915050565b6000614c0c82614be5565b614c168185614bf0565b9350614c268185602086016135d0565b614c2f81613226565b840191505092915050565b6000604082019050614c4f6000830185614bd6565b8181036020830152614c618184614c01565b90509392505050565b600082825260208201905092915050565b6000614c86826135b4565b614c908185614c6a565b9350614ca08185602086016135d0565b614ca981613226565b840191505092915050565b6000604082019050614cc960008301856140cd565b8181036020830152614cdb8184614c7b565b90509392505050565b60006020820190508181036000830152614cfe8184614c7b565b905092915050565b600081519050919050565b600082825260208201905092915050565b6000819050602082019050919050565b614d3b816132e3565b82525050565b6000614d4d8383614d32565b60208301905092915050565b6000602082019050919050565b6000614d7182614d06565b614d7b8185614d11565b9350614d8683614d22565b8060005b83811015614db7578151614d9e8882614d41565b9750614da983614d59565b925050600181019050614d8a565b5085935050505092915050565b60006040820190508181036000830152614dde8185614d66565b90508181036020830152614df2818461365d565b90509392505050565b6000614e0782866144e6565b600a82019150614e1782856149ef565b600282019150614e278284613fb5565b601482019150819050949350505050565b60007fffffffff0000000000000000000000000000000000000000000000000000000082169050919050565b6000819050919050565b614e7f614e7a82614e38565b614e64565b82525050565b6000614e918285614b68565b600682019150614ea18284614e6e565b6004820191508190509392505050565b6000614ebd8251613439565b80915050919050565b6000614ed1826135b4565b82614edb84613ff8565b9050614ee681614eb1565b9250600a821015614f2657614f217fffffffffffffffffffff0000000000000000000000000000000000000000000083600a0360080261401d565b831692505b505091905056fea2646970667358221220c17a2071e819c20b1042bcaf42dcb9c9dcdc381c6ad42e58f2ca4cd477ec383f64736f6c634300080f003360806040523480156200001157600080fd5b5060405162004b1438038062004b148339818101604052810190620000379190620000e8565b806000806101000a81548173ffffffffffffffffffffffffffffffffffffffff021916908373ffffffffffffffffffffffffffffffffffffffff160217905550506200011a565b600080fd5b600073ffffffffffffffffffffffffffffffffffffffff82169050919050565b6000620000b08262000083565b9050919050565b620000c281620000a3565b8114620000ce57600080fd5b50565b600081519050620000e281620000b7565b92915050565b6000602082840312156200010157620001006200007e565b5b60006200011184828501620000d1565b91505092915050565b6149ea806200012a6000396000f3fe6080604052600436106100555760003560e01c806301ffc9a71461005a57806309c5eabe146100975780631626ba7e146100c75780638953580314610104578063902d5fa014610141578063d4b8399214610171575b600080fd5b34801561006657600080fd5b50610081600480360381019061007c9190612e46565b61019c565b60405161008e9190612e8e565b60405180910390f35b6100b160048036038101906100ac9190612f0e565b61024c565b6040516100be9190612ff4565b60405180910390f35b3480156100d357600080fd5b506100ee60048036038101906100e9919061317c565b610370565b6040516100fb91906131e7565b60405180910390f35b34801561011057600080fd5b5061012b60048036038101906101269190613296565b61040b565b60405161013891906132e5565b60405180910390f35b61015b60048036038101906101569190613300565b610483565b6040516101689190612ff4565b60405180910390f35b34801561017d57600080fd5b506101866106b0565b604051610193919061339f565b60405180910390f35b600063c403d48f60e01b7bffffffffffffffffffffffffffffffffffffffffffffffffffffffff1916827bffffffffffffffffffffffffffffffffffffffffffffffffffffffff191614806102355750631626ba7e60e01b7bffffffffffffffffffffffffffffffffffffffffffffffffffffffff1916827bffffffffffffffffffffffffffffffffffffffffffffffffffffffff1916145b806102455750610244826106d4565b5b9050919050565b606061025933848461073e565b60008060008054906101000a900473ffffffffffffffffffffffffffffffffffffffff1673ffffffffffffffffffffffffffffffffffffffff16345a9087876040516102a69291906133ea565b600060405180830381858888f193505050503d80600081146102e4576040519150601f19603f3d011682016040523d82523d6000602084013e6102e9565b606091505b5091509150816102fe576102fc81610cc4565b505b347f6b9340454526f665e369d7ac17353d0b73774a4a80f746b959ece8130e0f1d7286869061032d919061341b565b60405161033a91906131e7565b60405180910390a260008151036103515780610366565b8080602001905181019061036591906134ea565b5b9250505092915050565b6000806103868385610cde90919063ffffffff16565b90506103e861020060001b6103da8360008054906101000a900473ffffffffffffffffffffffffffffffffffffffff1673ffffffffffffffffffffffffffffffffffffffff16610d0590919063ffffffff16565b610db790919063ffffffff16565b6103f95763ffffffff60e01b610402565b631626ba7e60e01b5b91505092915050565b600080600160008573ffffffffffffffffffffffffffffffffffffffff1673ffffffffffffffffffffffffffffffffffffffff1681526020019081526020016000206000848152602001908152602001600020549050806fffffffffffffffffffffffffffffffff16608084901b1791505092915050565b6060600046308686866040516020016104a095949392919061359c565b604051602081830303815290604052905060006104d5876104c78480519060200120610dc6565b610cde90919063ffffffff16565b90506104e18187610df6565b610520576040517f08c379a000000000000000000000000000000000000000000000000000000000815260040161051790613645565b60405180910390fd5b600160008273ffffffffffffffffffffffffffffffffffffffff1673ffffffffffffffffffffffffffffffffffffffff1681526020019081526020016000206000608088901c8152602001908152602001600020600081548092919061058590613694565b919050555061059581868661073e565b60008060008054906101000a900473ffffffffffffffffffffffffffffffffffffffff1673ffffffffffffffffffffffffffffffffffffffff16345a9089896040516105e29291906133ea565b600060405180830381858888f193505050503d8060008114610620576040519150601f19603f3d011682016040523d82523d6000602084013e610625565b606091505b50915091508161063a5761063881610cc4565b505b347f6b9340454526f665e369d7ac17353d0b73774a4a80f746b959ece8130e0f1d72888890610669919061341b565b60405161067691906131e7565b60405180910390a2600081510361068d57806106a2565b808060200190518101906106a191906134ea565b5b945050505050949350505050565b60008054906101000a900473ffffffffffffffffffffffffffffffffffffffff1681565b60007f01ffc9a7000000000000000000000000000000000000000000000000000000007bffffffffffffffffffffffffffffffffffffffffffffffffffffffff1916827bffffffffffffffffffffffffffffffffffffffffffffffffffffffff1916149050919050565b60008282600090600492610754939291906136e6565b9061075f919061341b565b905060006107ac8560008054906101000a900473ffffffffffffffffffffffffffffffffffffffff1673ffffffffffffffffffffffffffffffffffffffff16610d0590919063ffffffff16565b90506000801b81036107f557846040517ff292052a0000000000000000000000000000000000000000000000000000000081526004016107ec919061339f565b60405180910390fd5b7f7f23690cc80a596acdae0a51503f8066ffd79ab76fd5c929578309d2e2883b777bffffffffffffffffffffffffffffffffffffffffffffffffffffffff1916827bffffffffffffffffffffffffffffffffffffffffffffffffffffffff1916036109a35760008085856004908092610870939291906136e6565b81019061087d919061317c565b91509150654b80742de2bf60d01b79ffffffffffffffffffffffffffffffffffffffffffffffffffff19168279ffffffffffffffffffffffffffffffffffffffffffffffffffff1916148061090a57506fdf30dba06db6a30e65354d9a64c6098660801b6fffffffffffffffffffffffffffffffff1916826fffffffffffffffffffffffffffffffff1916145b156109205761091b82828986610e73565b61099c565b6000600167ffffffffffffffff81111561093d5761093c613051565b5b60405190808252806020026020018201604052801561096b5781602001602082028036833780820191505090505b509050828160008151811061098357610982613721565b5b60200260200101818152505061099a8885836113d5565b505b5050610cbd565b7f14a6e2931875c22579e483160c8d2832a3fb3acbd575a49f6a0f7fc5e135f7897bffffffffffffffffffffffffffffffffffffffffffffffffffffffff1916827bffffffffffffffffffffffffffffffffffffffffffffffffffffffff191603610b715760008085856004908092610a1e939291906136e6565b810190610a2b91906138f4565b915091506000805b8351811015610b56576000848281518110610a5157610a50613721565b5b602002602001015190506000848381518110610a7057610a6f613721565b5b60200260200101519050654b80742de2bf60d01b79ffffffffffffffffffffffffffffffffffffffffffffffffffff19168279ffffffffffffffffffffffffffffffffffffffffffffffffffff19161480610b0357506fdf30dba06db6a30e65354d9a64c6098660801b6fffffffffffffffffffffffffffffffff1916826fffffffffffffffffffffffffffffffff1916145b15610b3c57610b1482828d8a610e73565b6000801b868481518110610b2b57610b2a613721565b5b602002602001018181525050610b41565b600193505b50508080610b4e90613694565b915050610a33565b508015610b6957610b688885856113d5565b5b505050610cbc565b6344c028fe60e01b7bffffffffffffffffffffffffffffffffffffffffffffffffffffffff1916827bffffffffffffffffffffffffffffffffffffffffffffffffffffffff191603610bce57610bc985828686611411565b610cbb565b63f2fde38b60e01b7bffffffffffffffffffffffffffffffffffffffffffffffffffffffff1916827bffffffffffffffffffffffffffffffffffffffffffffffffffffffff19161480610c655750634e71e0c860e01b7bffffffffffffffffffffffffffffffffffffffffffffffffffffffff1916827bffffffffffffffffffffffffffffffffffffffffffffffffffffffff1916145b15610c7f57610c798582600160001b6116a4565b50610cba565b6040517f08c379a0000000000000000000000000000000000000000000000000000000008152600401610cb1906139de565b60405180910390fd5b5b5b5b5050505050565b6060600082511115610cd95781518083602001fd5b600080fd5b6000806000610ced8585611710565b91509150610cfa81611791565b819250505092915050565b6000808373ffffffffffffffffffffffffffffffffffffffff166354f6127f610d406b4b80742de2bf82acb363000060a01b8660601b61195d565b6040518263ffffffff1660e01b8152600401610d5c9190613a0d565b600060405180830381865afa158015610d79573d6000803e3d6000fd5b505050506040513d6000823e3d601f19601f82011682018060405250810190610da291906134ea565b905080610dae90613a4d565b91505092915050565b60008182841614905092915050565b600081604051602001610dd99190613b2c565b604051602081830303815290604052805190602001209050919050565b6000600160008473ffffffffffffffffffffffffffffffffffffffff1673ffffffffffffffffffffffffffffffffffffffff1681526020019081526020016000206000608084901c81526020019081526020016000205470010000000000000000000000000000000083610e6a9190613b81565b14905092915050565b6b4b80742de2bf82acb363000060a01b73ffffffffffffffffffffffffffffffffffffffff19168473ffffffffffffffffffffffffffffffffffffffff191603610ec757610ec2848383611996565b6113cf565b7fdf30dba06db6a30e65354d9a64c609861f089545ca58c6b4dbe31a5f338cb0e360001b8403610f0257610efd84848484611a72565b6113ce565b6fdf30dba06db6a30e65354d9a64c6098660801b6fffffffffffffffffffffffffffffffff1916846fffffffffffffffffffffffffffffffff191603610f5757610f518282600260001b6116a4565b506113cd565b6b4b80742de2bfc6dd6b3c000060a01b73ffffffffffffffffffffffffffffffffffffffff19168473ffffffffffffffffffffffffffffffffffffffff1916036110bc57610fa483611b69565b610fe3576040517f08c379a0000000000000000000000000000000000000000000000000000000008152600401610fda90613c24565b60405180910390fd5b60008060009054906101000a900473ffffffffffffffffffffffffffffffffffffffff1673ffffffffffffffffffffffffffffffffffffffff166354f6127f866040518263ffffffff1660e01b815260040161103f9190613a0d565b600060405180830381865afa15801561105c573d6000803e3d6000fd5b505050506040513d6000823e3d601f19601f8201168201806040525081019061108591906134ea565b905060008151036110a55761109f8383600460001b6116a4565b506110b6565b6110b48383600260001b6116a4565b505b506113cc565b6b4b80742de2bf8efea1e8000060a01b73ffffffffffffffffffffffffffffffffffffffff19168473ffffffffffffffffffffffffffffffffffffffff1916148061114357506b4b80742de2bf3efa94a3000060a01b73ffffffffffffffffffffffffffffffffffffffff19168473ffffffffffffffffffffffffffffffffffffffff1916145b156112695761115183611c54565b611190576040517f08c379a000000000000000000000000000000000000000000000000000000000815260040161118790613cb6565b60405180910390fd5b60008060009054906101000a900473ffffffffffffffffffffffffffffffffffffffff1673ffffffffffffffffffffffffffffffffffffffff166354f6127f866040518263ffffffff1660e01b81526004016111ec9190613a0d565b600060405180830381865afa158015611209573d6000803e3d6000fd5b505050506040513d6000823e3d601f19601f8201168201806040525081019061123291906134ea565b905060008151036112525761124c8383600460001b6116a4565b50611263565b6112618383600260001b6116a4565b505b506113cb565b6b4b80742de2bf90b8b485000060a01b73ffffffffffffffffffffffffffffffffffffffff19168473ffffffffffffffffffffffffffffffffffffffff1916036113ca576112b683611d2f565b6112f5576040517f08c379a00000000000000000000000000000000000000000000000000000000081526004016112ec90613d48565b60405180910390fd5b60008060009054906101000a900473ffffffffffffffffffffffffffffffffffffffff1673ffffffffffffffffffffffffffffffffffffffff166354f6127f866040518263ffffffff1660e01b81526004016113519190613a0d565b600060405180830381865afa15801561136e573d6000803e3d6000fd5b505050506040513d6000823e3d601f19601f8201168201806040525081019061139791906134ea565b905060008151036113b7576113b18383600460001b6116a4565b506113c8565b6113c68383600260001b6116a4565b505b505b5b5b5b5b5b50505050565b6113ed61040060001b83610db790919063ffffffff16565b61140c576114008383600860001b6116a4565b5061140b8382611dc8565b5b505050565b60008282600490602492611427939291906136e6565b906114329190613d68565b60001c90506005811061147a576040517f08c379a000000000000000000000000000000000000000000000000000000000815260040161147190613e39565b60405180910390fd5b600481036114bd576040517f08c379a00000000000000000000000000000000000000000000000000000000081526004016114b490613ecb565b60405180910390fd5b600083836044906064926114d3939291906136e6565b906114de9190613d68565b60001c9050600060018314806114f45750600283145b9050600060a486869050119050600082611528576115236115148661200b565b89610db790919063ffffffff16565b61152b565b60005b9050811561155057808061154e575061154d898961154888612051565b6116a4565b5b505b600061156a61080060001b8a610db790919063ffffffff16565b9050600085111561158f57808061158d575061158c8a8a61010060001b6116a4565b5b505b83156115a05750505050505061169e565b8180156115aa5750825b80156115b65750600085145b156115c65750505050505061169e565b8080156115d1575082155b80156115dd5750600085115b156115ed5750505050505061169e565b8180156115f75750805b156116075750505050505061169e565b6000888860309060449261161d939291906136e6565b906116289190613f17565b60601c90506116378b826120bc565b60008173ffffffffffffffffffffffffffffffffffffffff163b1115611696576116618b826121fa565b60a88989905010611695576116948b8a8a60a49060a892611684939291906136e6565b9061168f919061341b565b61232f565b5b5b505050505050505b50505050565b60006116b98284610db790919063ffffffff16565b6117095760006116c88361247f565b905084816040517f3bdad6e6000000000000000000000000000000000000000000000000000000008152600401611700929190613fba565b60405180910390fd5b9392505050565b60008060418351036117515760008060006020860151925060408601519150606086015160001a905061174587828585612759565b9450945050505061178a565b6040835103611781576000806020850151915060408501519050611776868383612865565b93509350505061178a565b60006002915091505b9250929050565b600060048111156117a5576117a4613fea565b5b8160048111156117b8576117b7613fea565b5b031561195a57600160048111156117d2576117d1613fea565b5b8160048111156117e5576117e4613fea565b5b03611825576040517f08c379a000000000000000000000000000000000000000000000000000000000815260040161181c90614065565b60405180910390fd5b6002600481111561183957611838613fea565b5b81600481111561184c5761184b613fea565b5b0361188c576040517f08c379a0000000000000000000000000000000000000000000000000000000008152600401611883906140d1565b60405180910390fd5b600360048111156118a05761189f613fea565b5b8160048111156118b3576118b2613fea565b5b036118f3576040517f08c379a00000000000000000000000000000000000000000000000000000000081526004016118ea90614163565b60405180910390fd5b60048081111561190657611905613fea565b5b81600481111561191957611918613fea565b5b03611959576040517f08c379a0000000000000000000000000000000000000000000000000000000008152600401611950906141f5565b60405180910390fd5b5b50565b6000808383604051602001611973929190614283565b604051602081830303815290604052905061198d816128c4565b91505092915050565b6000801b60008054906101000a900473ffffffffffffffffffffffffffffffffffffffff1673ffffffffffffffffffffffffffffffffffffffff166354f6127f856040518263ffffffff1660e01b81526004016119f39190613a0d565b600060405180830381865afa158015611a10573d6000803e3d6000fd5b505050506040513d6000823e3d601f19601f82011682018060405250810190611a3991906134ea565b611a4290613a4d565b03611a5c57611a568282600460001b6116a4565b50611a6d565b611a6b8282600260001b6116a4565b505b505050565b60008060009054906101000a900473ffffffffffffffffffffffffffffffffffffffff1673ffffffffffffffffffffffffffffffffffffffff166354f6127f866040518263ffffffff1660e01b8152600401611ace9190613a0d565b600060405180830381865afa158015611aeb573d6000803e3d6000fd5b505050506040513d6000823e3d601f19601f82011682018060405250810190611b1491906134ea565b611b1d90613a4d565b60001c9050600084611b2e90613a4d565b60001c905081811115611b5057611b4a8484600460001b6116a4565b50611b61565b611b5f8484600260001b6116a4565b505b505050505050565b6000611b7482611d2f565b611b815760009050611c4f565b600082611b8d90613a4d565b60001c90506000611ba782856128d290919063ffffffff16565b90506000602083611bb891906142af565b905060005b82811015611c46576000611bda838861293990919063ffffffff16565b9050600060a01b73ffffffffffffffffffffffffffffffffffffffff19168173ffffffffffffffffffffffffffffffffffffffff191614611c2357600095505050505050611c4f565b602083611c3091906142af565b9250508080611c3e90613694565b915050611bbd565b50600193505050505b919050565b6000611c5f82611d2f565b611c6c5760009050611d2a565b600082611c7890613a4d565b60001c90506000611c9282856128d290919063ffffffff16565b90506000602083611ca391906142af565b905060005b82811015611d21576000611cc5838861293990919063ffffffff16565b905060008160001c7bffffffffffffffffffffffffffffffffffffffffffffffffffffffff1614611cfe57600095505050505050611d2a565b602083611d0b91906142af565b9250508080611d1990613694565b915050611ca8565b50600193505050505b919050565b600080825190506020811015611d49576000915050611dc3565b600083611d5590613a4d565b60001c905080821015611d6d57600092505050611dc3565b6000611d8282866128d290919063ffffffff16565b9050602081611d919190614305565b602083611d9e91906142af565b611da891906142af565b831015611dbb5760009350505050611dc3565b600193505050505b919050565b6000611e138360008054906101000a900473ffffffffffffffffffffffffffffffffffffffff1673ffffffffffffffffffffffffffffffffffffffff166129a090919063ffffffff16565b9050600081511480611e2b5750611e2981611d2f565b155b15611e365750612007565b600081806020019051810190611e4c919061440b565b905060008060005b8351811015611f6457611e80848281518110611e7357611e72613721565b5b6020026020010151612a44565b925060005b8651811015611f50576000801b878281518110611ea557611ea4613721565b5b60200260200101510315611f3d577fffffffffffffffffffffffffffffffffffffffffffffffffffffffffffffffff846008021b925082878281518110611eef57611eee613721565b5b602002602001015116858381518110611f0b57611f0a613721565b5b602002602001015103611f3c576000801b878281518110611f2f57611f2e613721565b5b6020026020010181815250505b5b8080611f4890613694565b915050611e85565b508080611f5c90613694565b915050611e54565b5060005b8551811015612001576000801b868281518110611f8857611f87613721565b5b602002602001015114611fee5786868281518110611fa957611fa8613721565b5b60200260200101516040517f3003e7ae000000000000000000000000000000000000000000000000000000008152600401611fe5929190614454565b60405180910390fd5b8080611ff990613694565b915050611f68565b50505050505b5050565b60008082036120215761100060001b905061204c565b600382036120365761200060001b905061204c565b6004820361204b5761400060001b905061204c565b5b919050565b600080820361206657601060001b90506120b7565b6001820361207a57608060001b90506120b7565b6002820361208e57608060001b90506120b7565b600382036120a257602060001b90506120b7565b600482036120b657604060001b90506120b7565b5b919050565b60006121078360008054906101000a900473ffffffffffffffffffffffffffffffffffffffff1673ffffffffffffffffffffffffffffffffffffffff16612ac390919063ffffffff16565b905060008151148061211f575061211d81611b69565b155b1561212a57506121f6565b6000818060200190518101906121409190614555565b905060005b81518110156121b65781818151811061216157612160613721565b5b602002602001015173ffffffffffffffffffffffffffffffffffffffff168473ffffffffffffffffffffffffffffffffffffffff16036121a3575050506121f6565b80806121ae90613694565b915050612145565b5083836040517f2879b1280000000000000000000000000000000000000000000000000000000081526004016121ed92919061459e565b60405180910390fd5b5050565b60006122458360008054906101000a900473ffffffffffffffffffffffffffffffffffffffff1673ffffffffffffffffffffffffffffffffffffffff16612b6790919063ffffffff16565b905060008151148061225d575061225b81611c54565b155b15612268575061232b565b60008180602001905181019061227e919061469f565b905060005b81518110156122ef576122cf8282815181106122a2576122a1613721565b5b60200260200101518573ffffffffffffffffffffffffffffffffffffffff16612c0b90919063ffffffff16565b156122dc5750505061232b565b80806122e790613694565b915050612283565b506040517f08c379a000000000000000000000000000000000000000000000000000000000815260040161232290614734565b60405180910390fd5b5050565b600061237a8360008054906101000a900473ffffffffffffffffffffffffffffffffffffffff1673ffffffffffffffffffffffffffffffffffffffff16612d3690919063ffffffff16565b9050600081511480612392575061239081611c54565b155b1561239d575061247b565b6000818060200190518101906123b3919061469f565b905060005b815181101561243b578181815181106123d4576123d3613721565b5b60200260200101517bffffffffffffffffffffffffffffffffffffffffffffffffffffffff1916847bffffffffffffffffffffffffffffffffffffffffffffffffffffffff1916036124285750505061247b565b808061243390613694565b9150506123b8565b5083836040517f84135110000000000000000000000000000000000000000000000000000000008152600401612472929190614754565b60405180910390fd5b5050565b6060600160001b82036124c9576040518060400160405280601181526020017f5452414e534645524f574e4552534849500000000000000000000000000000008152509050612754565b600260001b8203612511576040518060400160405280601181526020017f4348414e47455045524d495353494f4e530000000000000000000000000000008152509050612754565b600460001b8203612559576040518060400160405280600e81526020017f4144445045524d495353494f4e530000000000000000000000000000000000008152509050612754565b600860001b82036125a1576040518060400160405280600781526020017f53455444415441000000000000000000000000000000000000000000000000008152509050612754565b601060001b82036125e9576040518060400160405280600481526020017f43414c4c000000000000000000000000000000000000000000000000000000008152509050612754565b602060001b8203612631576040518060400160405280600a81526020017f53544154494343414c4c000000000000000000000000000000000000000000008152509050612754565b604060001b8203612679576040518060400160405280600c81526020017f44454c454741544543414c4c00000000000000000000000000000000000000008152509050612754565b608060001b82036126c1576040518060400160405280600681526020017f4445504c4f5900000000000000000000000000000000000000000000000000008152509050612754565b61010060001b820361270a576040518060400160405280600d81526020017f5452414e5346455256414c5545000000000000000000000000000000000000008152509050612754565b61020060001b8203612753576040518060400160405280600481526020017f5349474e000000000000000000000000000000000000000000000000000000008152509050612754565b5b919050565b6000807f7fffffffffffffffffffffffffffffff5d576e7357a4501ddfe92f46681b20a08360001c111561279457600060039150915061285c565b601b8560ff16141580156127ac5750601c8560ff1614155b156127be57600060049150915061285c565b6000600187878787604051600081526020016040526040516127e39493929190614799565b6020604051602081039080840390855afa158015612805573d6000803e3d6000fd5b505050602060405103519050600073ffffffffffffffffffffffffffffffffffffffff168173ffffffffffffffffffffffffffffffffffffffff16036128535760006001925092505061285c565b80600092509250505b94509492505050565b60008060007f7fffffffffffffffffffffffffffffffffffffffffffffffffffffffffffffff60001b841690506000601b60ff8660001c901c6128a891906142af565b90506128b687828885612759565b935093505050935093915050565b600060208201519050919050565b60006020826128e191906142af565b83511015612924576040517f08c379a000000000000000000000000000000000000000000000000000000000815260040161291b9061482a565b60405180910390fd5b60008260208501015190508091505092915050565b600060208261294891906142af565b8351101561298b576040517f08c379a000000000000000000000000000000000000000000000000000000000815260040161298290614896565b60405180910390fd5b60008260208501015190508091505092915050565b60608273ffffffffffffffffffffffffffffffffffffffff166354f6127f6129da6b4b80742de2bf90b8b485000060a01b8560601b61195d565b6040518263ffffffff1660e01b81526004016129f69190613a0d565b600060405180830381865afa158015612a13573d6000803e3d6000fd5b505050506040513d6000823e3d601f19601f82011682018060405250810190612a3c91906134ea565b905092915050565b600080601f90505b600060f81b838260208110612a6457612a63613721565b5b1a60f81b7effffffffffffffffffffffffffffffffffffffffffffffffffffffffffffff191603612aa2578080612a9a906148b6565b915050612a4c565b600181612aaf91906142af565b6020612abb91906148df565b915050919050565b60608273ffffffffffffffffffffffffffffffffffffffff166354f6127f612afd6b4b80742de2bfc6dd6b3c000060a01b8560601b61195d565b6040518263ffffffff1660e01b8152600401612b199190613a0d565b600060405180830381865afa158015612b36573d6000803e3d6000fd5b505050506040513d6000823e3d601f19601f82011682018060405250810190612b5f91906134ea565b905092915050565b60608273ffffffffffffffffffffffffffffffffffffffff166354f6127f612ba16b4b80742de2bf3efa94a3000060a01b8560601b61195d565b6040518263ffffffff1660e01b8152600401612bbd9190613a0d565b600060405180830381865afa158015612bda573d6000803e3d6000fd5b505050506040513d6000823e3d601f19601f82011682018060405250810190612c0391906134ea565b905092915050565b6000806301ffc9a760e01b83604051602401612c2791906131e7565b604051602081830303815290604052907bffffffffffffffffffffffffffffffffffffffffffffffffffffffff19166020820180517bffffffffffffffffffffffffffffffffffffffffffffffffffffffff838183161783525050505090506000808573ffffffffffffffffffffffffffffffffffffffff1661753084604051612cb19190614944565b6000604051808303818686fa925050503d8060008114612ced576040519150601f19603f3d011682016040523d82523d6000602084013e612cf2565b606091505b5091509150602081511015612d0d5760009350505050612d30565b818015612d2a575080806020019051810190612d299190614987565b5b93505050505b92915050565b60608273ffffffffffffffffffffffffffffffffffffffff166354f6127f612d706b4b80742de2bf8efea1e8000060a01b8560601b61195d565b6040518263ffffffff1660e01b8152600401612d8c9190613a0d565b600060405180830381865afa158015612da9573d6000803e3d6000fd5b505050506040513d6000823e3d601f19601f82011682018060405250810190612dd291906134ea565b905092915050565b6000604051905090565b600080fd5b600080fd5b60007fffffffff0000000000000000000000000000000000000000000000000000000082169050919050565b612e2381612dee565b8114612e2e57600080fd5b50565b600081359050612e4081612e1a565b92915050565b600060208284031215612e5c57612e5b612de4565b5b6000612e6a84828501612e31565b91505092915050565b60008115159050919050565b612e8881612e73565b82525050565b6000602082019050612ea36000830184612e7f565b92915050565b600080fd5b600080fd5b600080fd5b60008083601f840112612ece57612ecd612ea9565b5b8235905067ffffffffffffffff811115612eeb57612eea612eae565b5b602083019150836001820283011115612f0757612f06612eb3565b5b9250929050565b60008060208385031215612f2557612f24612de4565b5b600083013567ffffffffffffffff811115612f4357612f42612de9565b5b612f4f85828601612eb8565b92509250509250929050565b600081519050919050565b600082825260208201905092915050565b60005b83811015612f95578082015181840152602081019050612f7a565b83811115612fa4576000848401525b50505050565b6000601f19601f8301169050919050565b6000612fc682612f5b565b612fd08185612f66565b9350612fe0818560208601612f77565b612fe981612faa565b840191505092915050565b6000602082019050818103600083015261300e8184612fbb565b905092915050565b6000819050919050565b61302981613016565b811461303457600080fd5b50565b60008135905061304681613020565b92915050565b600080fd5b7f4e487b7100000000000000000000000000000000000000000000000000000000600052604160045260246000fd5b61308982612faa565b810181811067ffffffffffffffff821117156130a8576130a7613051565b5b80604052505050565b60006130bb612dda565b90506130c78282613080565b919050565b600067ffffffffffffffff8211156130e7576130e6613051565b5b6130f082612faa565b9050602081019050919050565b82818337600083830152505050565b600061311f61311a846130cc565b6130b1565b90508281526020810184848401111561313b5761313a61304c565b5b6131468482856130fd565b509392505050565b600082601f83011261316357613162612ea9565b5b813561317384826020860161310c565b91505092915050565b6000806040838503121561319357613192612de4565b5b60006131a185828601613037565b925050602083013567ffffffffffffffff8111156131c2576131c1612de9565b5b6131ce8582860161314e565b9150509250929050565b6131e181612dee565b82525050565b60006020820190506131fc60008301846131d8565b92915050565b600073ffffffffffffffffffffffffffffffffffffffff82169050919050565b600061322d82613202565b9050919050565b61323d81613222565b811461324857600080fd5b50565b60008135905061325a81613234565b92915050565b6000819050919050565b61327381613260565b811461327e57600080fd5b50565b6000813590506132908161326a565b92915050565b600080604083850312156132ad576132ac612de4565b5b60006132bb8582860161324b565b92505060206132cc85828601613281565b9150509250929050565b6132df81613260565b82525050565b60006020820190506132fa60008301846132d6565b92915050565b6000806000806060858703121561331a57613319612de4565b5b600085013567ffffffffffffffff81111561333857613337612de9565b5b6133448782880161314e565b945050602061335587828801613281565b935050604085013567ffffffffffffffff81111561337657613375612de9565b5b61338287828801612eb8565b925092505092959194509250565b61339981613222565b82525050565b60006020820190506133b46000830184613390565b92915050565b600081905092915050565b60006133d183856133ba565b93506133de8385846130fd565b82840190509392505050565b60006133f78284866133c5565b91508190509392505050565b600082905092915050565b600082821b905092915050565b60006134278383613403565b826134328135612dee565b925060048210156134725761346d7fffffffff000000000000000000000000000000000000000000000000000000008360040360080261340e565b831692505b505092915050565b600061348d613488846130cc565b6130b1565b9050828152602081018484840111156134a9576134a861304c565b5b6134b4848285612f77565b509392505050565b600082601f8301126134d1576134d0612ea9565b5b81516134e184826020860161347a565b91505092915050565b600060208284031215613500576134ff612de4565b5b600082015167ffffffffffffffff81111561351e5761351d612de9565b5b61352a848285016134bc565b91505092915050565b6000819050919050565b61354e61354982613260565b613533565b82525050565b60008160601b9050919050565b600061356c82613554565b9050919050565b600061357e82613561565b9050919050565b61359661359182613222565b613573565b82525050565b60006135a8828861353d565b6020820191506135b88287613585565b6014820191506135c8828661353d565b6020820191506135d98284866133c5565b91508190509695505050505050565b600082825260208201905092915050565b7f6578656375746552656c617943616c6c3a20496e76616c6964206e6f6e636500600082015250565b600061362f601f836135e8565b915061363a826135f9565b602082019050919050565b6000602082019050818103600083015261365e81613622565b9050919050565b7f4e487b7100000000000000000000000000000000000000000000000000000000600052601160045260246000fd5b600061369f82613260565b91507fffffffffffffffffffffffffffffffffffffffffffffffffffffffffffffffff82036136d1576136d0613665565b5b600182019050919050565b600080fd5b600080fd5b600080858511156136fa576136f96136dc565b5b8386111561370b5761370a6136e1565b5b6001850283019150848603905094509492505050565b7f4e487b7100000000000000000000000000000000000000000000000000000000600052603260045260246000fd5b600067ffffffffffffffff82111561376b5761376a613051565b5b602082029050602081019050919050565b600061378f61378a84613750565b6130b1565b905080838252602082019050602084028301858111156137b2576137b1612eb3565b5b835b818110156137db57806137c78882613037565b8452602084019350506020810190506137b4565b5050509392505050565b600082601f8301126137fa576137f9612ea9565b5b813561380a84826020860161377c565b91505092915050565b600067ffffffffffffffff82111561382e5761382d613051565b5b602082029050602081019050919050565b600061385261384d84613813565b6130b1565b9050808382526020820190506020840283018581111561387557613874612eb3565b5b835b818110156138bc57803567ffffffffffffffff81111561389a57613899612ea9565b5b8086016138a7898261314e565b85526020850194505050602081019050613877565b5050509392505050565b600082601f8301126138db576138da612ea9565b5b81356138eb84826020860161383f565b91505092915050565b6000806040838503121561390b5761390a612de4565b5b600083013567ffffffffffffffff81111561392957613928612de9565b5b613935858286016137e5565b925050602083013567ffffffffffffffff81111561395657613955612de9565b5b613962858286016138c6565b9150509250929050565b7f5f7665726966795065726d697373696f6e733a20696e76616c6964204552433760008201527f32352073656c6563746f72000000000000000000000000000000000000000000602082015250565b60006139c8602b836135e8565b91506139d38261396c565b604082019050919050565b600060208201905081810360008301526139f7816139bb565b9050919050565b613a0781613016565b82525050565b6000602082019050613a2260008301846139fe565b92915050565b6000819050602082019050919050565b6000613a448251613016565b80915050919050565b6000613a5882612f5b565b82613a6284613a28565b9050613a6d81613a38565b92506020821015613aad57613aa87fffffffffffffffffffffffffffffffffffffffffffffffffffffffffffffffff8360200360080261340e565b831692505b5050919050565b600081905092915050565b7f19457468657265756d205369676e6564204d6573736167653a0a333200000000600082015250565b6000613af5601c83613ab4565b9150613b0082613abf565b601c82019050919050565b6000819050919050565b613b26613b2182613016565b613b0b565b82525050565b6000613b3782613ae8565b9150613b438284613b15565b60208201915081905092915050565b7f4e487b7100000000000000000000000000000000000000000000000000000000600052601260045260246000fd5b6000613b8c82613260565b9150613b9783613260565b925082613ba757613ba6613b52565b5b828206905092915050565b7f4c5350364b65794d616e616765723a20696e76616c69642041424920656e636f60008201527f646564206172726179206f662061646472657373657300000000000000000000602082015250565b6000613c0e6036836135e8565b9150613c1982613bb2565b604082019050919050565b60006020820190508181036000830152613c3d81613c01565b9050919050565b7f4c5350364b65794d616e616765723a20696e76616c69642041424920656e636f60008201527f646564206172726179206f662062797465733400000000000000000000000000602082015250565b6000613ca06033836135e8565b9150613cab82613c44565b604082019050919050565b60006020820190508181036000830152613ccf81613c93565b9050919050565b7f4c5350364b65794d616e616765723a20696e76616c69642041424920656e636f60008201527f646564206172726179206f662062797465733332000000000000000000000000602082015250565b6000613d326034836135e8565b9150613d3d82613cd6565b604082019050919050565b60006020820190508181036000830152613d6181613d25565b9050919050565b6000613d748383613403565b82613d7f8135613016565b92506020821015613dbf57613dba7fffffffffffffffffffffffffffffffffffffffffffffffffffffffffffffffff8360200360080261340e565b831692505b505092915050565b7f4c5350364b65794d616e616765723a20696e76616c6964206f7065726174696f60008201527f6e20747970650000000000000000000000000000000000000000000000000000602082015250565b6000613e236026836135e8565b9150613e2e82613dc7565b604082019050919050565b60006020820190508181036000830152613e5281613e16565b9050919050565b7f4c5350364b65794d616e616765723a206f7065726174696f6e2044454c45474160008201527f544543414c4c2069732063757272656e746c7920646973616c6c6f7765640000602082015250565b6000613eb5603e836135e8565b9150613ec082613e59565b604082019050919050565b60006020820190508181036000830152613ee481613ea8565b9050919050565b60007fffffffffffffffffffffffffffffffffffffffff00000000000000000000000082169050919050565b6000613f238383613403565b82613f2e8135613eeb565b92506014821015613f6e57613f697fffffffffffffffffffffffffffffffffffffffff0000000000000000000000008360140360080261340e565b831692505b505092915050565b600081519050919050565b6000613f8c82613f76565b613f9681856135e8565b9350613fa6818560208601612f77565b613faf81612faa565b840191505092915050565b6000604082019050613fcf6000830185613390565b8181036020830152613fe18184613f81565b90509392505050565b7f4e487b7100000000000000000000000000000000000000000000000000000000600052602160045260246000fd5b7f45434453413a20696e76616c6964207369676e61747572650000000000000000600082015250565b600061404f6018836135e8565b915061405a82614019565b602082019050919050565b6000602082019050818103600083015261407e81614042565b9050919050565b7f45434453413a20696e76616c6964207369676e6174757265206c656e67746800600082015250565b60006140bb601f836135e8565b91506140c682614085565b602082019050919050565b600060208201905081810360008301526140ea816140ae565b9050919050565b7f45434453413a20696e76616c6964207369676e6174757265202773272076616c60008201527f7565000000000000000000000000000000000000000000000000000000000000602082015250565b600061414d6022836135e8565b9150614158826140f1565b604082019050919050565b6000602082019050818103600083015261417c81614140565b9050919050565b7f45434453413a20696e76616c6964207369676e6174757265202776272076616c60008201527f7565000000000000000000000000000000000000000000000000000000000000602082015250565b60006141df6022836135e8565b91506141ea82614183565b604082019050919050565b6000602082019050818103600083015261420e816141d2565b9050919050565b60007fffffffffffffffffffffffff000000000000000000000000000000000000000082169050919050565b6000819050919050565b61425c61425782614215565b614241565b82525050565b6000819050919050565b61427d61427882613eeb565b614262565b82525050565b600061428f828561424b565b600c8201915061429f828461426c565b6014820191508190509392505050565b60006142ba82613260565b91506142c583613260565b9250827fffffffffffffffffffffffffffffffffffffffffffffffffffffffffffffffff038211156142fa576142f9613665565b5b828201905092915050565b600061431082613260565b915061431b83613260565b9250817fffffffffffffffffffffffffffffffffffffffffffffffffffffffffffffffff048311821515161561435457614353613665565b5b828202905092915050565b60008151905061436e81613020565b92915050565b600061438761438284613750565b6130b1565b905080838252602082019050602084028301858111156143aa576143a9612eb3565b5b835b818110156143d357806143bf888261435f565b8452602084019350506020810190506143ac565b5050509392505050565b600082601f8301126143f2576143f1612ea9565b5b8151614402848260208601614374565b91505092915050565b60006020828403121561442157614420612de4565b5b600082015167ffffffffffffffff81111561443f5761443e612de9565b5b61444b848285016143dd565b91505092915050565b60006040820190506144696000830185613390565b61447660208301846139fe565b9392505050565b600067ffffffffffffffff82111561449857614497613051565b5b602082029050602081019050919050565b6000815190506144b881613234565b92915050565b60006144d16144cc8461447d565b6130b1565b905080838252602082019050602084028301858111156144f4576144f3612eb3565b5b835b8181101561451d578061450988826144a9565b8452602084019350506020810190506144f6565b5050509392505050565b600082601f83011261453c5761453b612ea9565b5b815161454c8482602086016144be565b91505092915050565b60006020828403121561456b5761456a612de4565b5b600082015167ffffffffffffffff81111561458957614588612de9565b5b61459584828501614527565b91505092915050565b60006040820190506145b36000830185613390565b6145c06020830184613390565b9392505050565b600067ffffffffffffffff8211156145e2576145e1613051565b5b602082029050602081019050919050565b60008151905061460281612e1a565b92915050565b600061461b614616846145c7565b6130b1565b9050808382526020820190506020840283018581111561463e5761463d612eb3565b5b835b81811015614667578061465388826145f3565b845260208401935050602081019050614640565b5050509392505050565b600082601f83011261468657614685612ea9565b5b8151614696848260208601614608565b91505092915050565b6000602082840312156146b5576146b4612de4565b5b600082015167ffffffffffffffff8111156146d3576146d2612de9565b5b6146df84828501614671565b91505092915050565b7f4e6f7420416c6c6f776564205374616e64617264730000000000000000000000600082015250565b600061471e6015836135e8565b9150614729826146e8565b602082019050919050565b6000602082019050818103600083015261474d81614711565b9050919050565b60006040820190506147696000830185613390565b61477660208301846131d8565b9392505050565b600060ff82169050919050565b6147938161477d565b82525050565b60006080820190506147ae60008301876139fe565b6147bb602083018661478a565b6147c860408301856139fe565b6147d560608301846139fe565b95945050505050565b7f746f55696e743235365f6f75744f66426f756e64730000000000000000000000600082015250565b60006148146015836135e8565b915061481f826147de565b602082019050919050565b6000602082019050818103600083015261484381614807565b9050919050565b7f746f427974657333325f6f75744f66426f756e64730000000000000000000000600082015250565b60006148806015836135e8565b915061488b8261484a565b602082019050919050565b600060208201905081810360008301526148af81614873565b9050919050565b60006148c182613260565b9150600082036148d4576148d3613665565b5b600182039050919050565b60006148ea82613260565b91506148f583613260565b92508282101561490857614907613665565b5b828203905092915050565b600061491e82612f5b565b61492881856133ba565b9350614938818560208601612f77565b80840191505092915050565b60006149508284614913565b915081905092915050565b61496481612e73565b811461496f57600080fd5b50565b6000815190506149818161495b565b92915050565b60006020828403121561499d5761499c612de4565b5b60006149ab84828501614972565b9150509291505056fea26469706673582212209c9666b73ab8801ddabb8811e00478b3dce69e36e7101f2554c17fe30394469e64736f6c634300080f0033a2646970667358221220c6141f8cfeafb36697e2b04091c1ae13697b0982c939aced134f589daa39dce864736f6c634300080f0033",
  "immutableReferences": {},
  "source": "// SPDX-License-Identifier: CC0-1.0\n\npragma solidity ^0.8.0;\n\nimport {LSP0ERC725Account} from \"@lukso/lsp-smart-contracts/contracts/LSP0ERC725Account/LSP0ERC725Account.sol\";\nimport {LSP6KeyManager} from \"@lukso/lsp-smart-contracts/contracts/LSP6KeyManager/LSP6KeyManager.sol\";\nimport {DaoKeyManager} from \"./DaoAccount/DaoKeyManager.sol\";\nimport {VaultKeyManager} from \"./Vault/VaultKeyManager.sol\";\nimport {MultisigKeyManager} from \"./Multisig/MultisigKeyManager.sol\";\nimport {\n  _LSP6KEY_ADDRESSPERMISSIONS_ARRAY,\n  _LSP6KEY_ADDRESSPERMISSIONS_ARRAY_PREFIX,\n  _LSP6KEY_ADDRESSPERMISSIONS_PERMISSIONS_PREFIX\n} from \"@lukso/lsp-smart-contracts/contracts/LSP6KeyManager/LSP6Constants.sol\";\nimport {\n  ErrorWithNumber\n} from \"./Errors.sol\";\n\n/**\n *\n* @notice This smart contract is responsible for creating an connecting every\n* LEGO block needed for a working DAO suitable for the user.\n *\n * @author B00ste\n * @title DaoCreator\n * @custom:version 0.92\n */\ncontract DaoCreator {\n\n  /**\n   * @notice Structure for saving user progress in DAO creation.\n   */\n  struct UserProgress {\n    address payable UNIVERSAL_PROFILE;\n    address KEY_MANAGER;\n    address DAO_KEY_MANAGER;\n    address VAULT_KEY_MANAGER;\n    address MULTISIG_KEY_MANAGER;\n\n    // Up to 16 phases for creating a DAO.\n    bytes2 phases;\n  }\n\n  /**\n   * @notice Mapping for storing user progress.\n   */\n  mapping (address => UserProgress) userProgress;\n\n  /**\n   * @notice Get all the addresses of the contracts that a user has created.\n   */\n  function getAddresses() external view returns(address[5] memory addresses) {\n    addresses = [\n      userProgress[msg.sender].UNIVERSAL_PROFILE,\n      userProgress[msg.sender].KEY_MANAGER,\n      userProgress[msg.sender].DAO_KEY_MANAGER,\n      userProgress[msg.sender].VAULT_KEY_MANAGER,\n      userProgress[msg.sender].MULTISIG_KEY_MANAGER\n    ];\n  }\n  \n  /**\n   * @notice Create the Universal Profile for the DAO.\n   */\n  function createUniversalProfile() external {\n    if (uint16(userProgress[msg.sender].phases) & (1 << 0) != 0) revert ErrorWithNumber(0x0001);\n    userProgress[msg.sender].UNIVERSAL_PROFILE = payable(new LSP0ERC725Account(address(this)));\n    userProgress[msg.sender].phases = bytes2(uint16(1));\n  }\n\n  /**\n   * @notice Create the Key Manager of the Universal Profile\n   */\n  function createUniversalProfileKeyManager() external {\n    if (uint16(userProgress[msg.sender].phases) & (1 << 0) == 0) revert ErrorWithNumber(0x0002);\n    if (uint16(userProgress[msg.sender].phases) & (1 << 1) != 0) revert ErrorWithNumber(0x0003);\n    userProgress[msg.sender].KEY_MANAGER = address(new LSP6KeyManager(userProgress[msg.sender].UNIVERSAL_PROFILE));\n    userProgress[msg.sender].phases = bytes2(uint16(userProgress[msg.sender].phases) << 1);\n  }\n\n  /**\n   * @notice Create the DAO Key manager.\n   */\n  function createDaoKeyManager(/*\n    string memory title,\n    string memory description,\n    uint8 majority,\n    uint8 participationRate,\n    uint48 votingDelay,\n    uint48 votingPeriod,\n    bytes1 tokenGated\n  */) external {\n    if (uint16(userProgress[msg.sender].phases) & (1 << 1) == 0) revert ErrorWithNumber(0x0004);\n    if (uint16(userProgress[msg.sender].phases) & (1 << 2) != 0) revert ErrorWithNumber(0x0005);\n    userProgress[msg.sender].DAO_KEY_MANAGER = address(new DaoKeyManager(\n      userProgress[msg.sender].UNIVERSAL_PROFILE,\n      userProgress[msg.sender].KEY_MANAGER/*,\n      title,\n      description,\n      majority,\n      participationRate,\n      votingDelay,\n      votingPeriod,\n      tokenGated*/\n    ));\n    userProgress[msg.sender].phases = bytes2(uint16(userProgress[msg.sender].phases) << 1);\n  }\n\n  /**\n   * @notice Create Vault Key Manager.\n   */\n  function createVaultKeyManager() external {\n    if (uint16(userProgress[msg.sender].phases) & (1 << 2) == 0) revert ErrorWithNumber(0x0006);\n    if (uint16(userProgress[msg.sender].phases) & (1 << 3) != 0) revert ErrorWithNumber(0x0007);\n    userProgress[msg.sender].VAULT_KEY_MANAGER = address(new VaultKeyManager());\n    userProgress[msg.sender].phases = bytes2(uint16(userProgress[msg.sender].phases) << 1);\n  }\n\n  /**\n   * @notice Give 7FFF permissions to DaoKeyManager and to VaultKeyManager.\n   */\n  function giveMaxPermissionsToDaoAndVault() external {\n    if (uint16(userProgress[msg.sender].phases) & (1 << 3) == 0) revert ErrorWithNumber(0x0008);\n    if (uint16(userProgress[msg.sender].phases) & (1 << 4) != 0) revert ErrorWithNumber(0x0009);\n    bytes32[] memory keys = new bytes32[](7);\n    keys[0] = _LSP6KEY_ADDRESSPERMISSIONS_ARRAY;\n    keys[1] = bytes32(bytes.concat(_LSP6KEY_ADDRESSPERMISSIONS_ARRAY_PREFIX, bytes16(0)));\n    keys[2] = bytes32(bytes.concat(_LSP6KEY_ADDRESSPERMISSIONS_ARRAY_PREFIX, bytes16(uint128(1))));\n    keys[3] = bytes32(bytes.concat(_LSP6KEY_ADDRESSPERMISSIONS_ARRAY_PREFIX, bytes16(uint128(2))));\n    keys[4] = bytes32(bytes.concat(\n      _LSP6KEY_ADDRESSPERMISSIONS_PERMISSIONS_PREFIX,\n      bytes20(userProgress[msg.sender].DAO_KEY_MANAGER)\n    ));\n    keys[5] = bytes32(bytes.concat(\n      _LSP6KEY_ADDRESSPERMISSIONS_PERMISSIONS_PREFIX,\n      bytes20(userProgress[msg.sender].VAULT_KEY_MANAGER)\n    ));\n    keys[6] = bytes32(bytes.concat(\n      _LSP6KEY_ADDRESSPERMISSIONS_PERMISSIONS_PREFIX,\n      bytes20(address(this))\n    ));\n    bytes[] memory values = new bytes[](7);\n    values[0] = bytes.concat(bytes32(uint256(2)));\n    values[1] = bytes.concat(bytes20(userProgress[msg.sender].DAO_KEY_MANAGER));\n    values[2] = bytes.concat(bytes20(userProgress[msg.sender].VAULT_KEY_MANAGER));\n    values[3] = bytes.concat(bytes20(address(this)));\n    values[4] = bytes.concat(bytes32(0x0000000000000000000000000000000000000000000000000000000000007FFF));\n    values[5] = bytes.concat(bytes32(0x0000000000000000000000000000000000000000000000000000000000007FFF));\n    values[6] = bytes.concat(bytes32(0x0000000000000000000000000000000000000000000000000000000000000001));\n\n    LSP0ERC725Account(userProgress[msg.sender].UNIVERSAL_PROFILE).setData(\n      keys, values\n    );\n    userProgress[msg.sender].phases = bytes2(uint16(userProgress[msg.sender].phases) << 1);\n  }\n\n  /**\n   * @notice transferOwnership() from UNIVERSAL_PROFILE to KEY_MANAGER\n   * and claimOwnership() of UNIVERSAL_PROFILE from KEY_MANAGER.\n   */\n  function transferOwnership() external {\n    if (uint16(userProgress[msg.sender].phases) & (1 << 4) == 0) revert ErrorWithNumber(0x000A);\n    if (uint16(userProgress[msg.sender].phases) & (1 << 5) != 0) revert ErrorWithNumber(0x000B);\n    LSP0ERC725Account(userProgress[msg.sender].UNIVERSAL_PROFILE).transferOwnership(\n      userProgress[msg.sender].KEY_MANAGER\n    );\n    LSP6KeyManager(userProgress[msg.sender].KEY_MANAGER).execute(\n      abi.encodeWithSelector(bytes4(keccak256(\"claimOwnership()\")))\n    );\n    userProgress[msg.sender].phases = bytes2(uint16(userProgress[msg.sender].phases) << 1);\n  }\n\n}",
  "sourcePath": "/home/b00ste/Projects/universal-profile-governance/contracts/DaoCreator.sol",
  "compiler": {
    "name": "solc",
    "version": "0.8.15+commit.e14f2714.Emscripten.clang"
  },
  "schemaVersion": "3.4.8",
  "updatedAt": "2022-07-28T16:35:48.049Z",
  "devdoc": {
    "author": "B00ste",
    "custom:version": "0.92",
    "kind": "dev",
    "methods": {},
    "title": "DaoCreator",
    "version": 1
  },
  "userdoc": {
    "kind": "user",
    "methods": {
      "createDaoKeyManager()": {
        "notice": "Create the DAO Key manager."
      },
      "createUniversalProfile()": {
        "notice": "Create the Universal Profile for the DAO."
      },
      "createUniversalProfileKeyManager()": {
        "notice": "Create the Key Manager of the Universal Profile"
      },
      "createVaultKeyManager()": {
        "notice": "Create Vault Key Manager."
      },
      "getAddresses()": {
        "notice": "Get all the addresses of the contracts that a user has created."
      },
      "giveMaxPermissionsToDaoAndVault()": {
        "notice": "Give 7FFF permissions to DaoKeyManager and to VaultKeyManager."
      },
      "transferOwnership()": {
        "notice": "transferOwnership() from UNIVERSAL_PROFILE to KEY_MANAGER and claimOwnership() of UNIVERSAL_PROFILE from KEY_MANAGER."
      }
    },
    "notice": "This smart contract is responsible for creating an connecting every LEGO block needed for a working DAO suitable for the user.",
    "version": 1
  }
}