{
  "contractName": "DaoCreator",
  "abi": [
    {
      "inputs": [],
      "name": "createUniversalProfile",
      "outputs": [],
      "stateMutability": "nonpayable",
      "type": "function"
    },
    {
      "inputs": [],
      "name": "createUniversalProfileKeyManager",
      "outputs": [],
      "stateMutability": "nonpayable",
      "type": "function"
    },
    {
      "inputs": [],
      "name": "createDaoKeyManager",
      "outputs": [],
      "stateMutability": "nonpayable",
      "type": "function"
    },
    {
      "inputs": [],
      "name": "createVaultKeyManager",
      "outputs": [],
      "stateMutability": "nonpayable",
      "type": "function"
    },
    {
      "inputs": [],
      "name": "giveMaxPermissionsToDaoAndVault",
      "outputs": [],
      "stateMutability": "nonpayable",
      "type": "function"
    },
    {
      "inputs": [],
      "name": "transferOwnership",
      "outputs": [],
      "stateMutability": "nonpayable",
      "type": "function"
    }
  ],
  "bytecode": "0x608060405234801561001057600080fd5b50618b4a806100206000396000f3fe608060405234801561001057600080fd5b50600436106100725760003560e01c80635a01f4bd116100505780635a01f4bd146100915780636974397314610099578063880ad0af146100a157600080fd5b806305ebdeea14610077578063273c23a11461008157806342bd382914610089575b600080fd5b61007f6100a9565b005b61007f6101b7565b61007f610323565b61007f6109bd565b61007f610b28565b61007f610cc2565b33600090815260208190526040902060030154600160a01b90046001161561012a5760405162461bcd60e51b815260206004820152602960248201527f556e6976657273616c2050726f66696c6520697320616c726561647920696e696044820152683a34b0b634bd32b21760b91b60648201526084015b60405180910390fd5b3060405161013790610efa565b6001600160a01b039091168152602001604051809103906000f080158015610163573d6000803e3d6000fd5b5033600090815260208190526040902080546001600160a01b039290921673ffffffffffffffffffffffffffffffffffffffff19909216919091178155600301805461ffff60a01b1916600160a01b179055565b33600090815260208190526040902060030154600160a01b9004600416158015906101fc575033600090815260208190526040902060030154600160a01b9004600816155b6102805760405162461bcd60e51b815260206004820152604960248201527f44414f204b6579204d616e61676572206e6f7420696e697469616c697a65642060448201527f6f72205661756c74204b6579204d616e6167657220616c726561647920696e696064820152683a34b0b634bd32b21760b91b608482015260a401610121565b60405161028c90610f08565b604051809103906000f0801580156102a8573d6000803e3d6000fd5b5033600090815260208190526040902060030180547fffffffffffffffffffff0000000000000000000000000000000000000000000081166001600160a01b0393909316928317600160a01b73ffffffffffffffffffffffffffffffffffffffff1990921690931781900460011b61fffe1602919091179055565b33600090815260208190526040902060030154600160a01b900460081615801590610368575033600090815260208190526040902060030154600160a01b9004601016155b6103da5760405162461bcd60e51b815260206004820152603f60248201527f5661756c74204b6579204d616e61676572206e6f7420696e697469616c697a6560448201527f64206f72207065726d697373696f6e7320616c726561647920676976656e2e006064820152608401610121565b60408051600780825261010082019092526000916020820160e0803683370190505090507fdf30dba06db6a30e65354d9a64c609861f089545ca58c6b4dbe31a5f338cb0e360001b8160008151811061043557610435610f47565b602090810291909101810191909152604080516f6f986dd036db5187329aa6cd326304c360811b8184015260006030820152815180820390930183528101905261047e90610f5d565b8160018151811061049157610491610f47565b602090810291909101810191909152604080516f6f986dd036db5187329aa6cd326304c360811b81840152700100000000000000000000000000000000603082015281518082039093018352810190526104ea90610f5d565b816002815181106104fd576104fd610f47565b602090810291909101810191909152604080516f6f986dd036db5187329aa6cd326304c360811b818401527002000000000000000000000000000000006030820152815180820390930183528101905261055690610f5d565b8160038151811061056957610569610f47565b602090810291909101810191909152336000908152808252604090819020600201548151694b80742de2bf82acb36360b01b9381019390935260601b6bffffffffffffffffffffffff1916602c830152016040516020818303038152906040526105d290610f5d565b816004815181106105e5576105e5610f47565b602090810291909101810191909152336000908152808252604090819020600301548151694b80742de2bf82acb36360b01b9381019390935260601b6bffffffffffffffffffffffff1916602c8301520160405160208183030381529060405261064e90610f5d565b8160058151811061066157610661610f47565b60209081029190910181019190915260408051694b80742de2bf82acb36360b01b818401523060601b6bffffffffffffffffffffffff1916602c82015281518082039093018352810190526106b590610f5d565b816006815181106106c8576106c8610f47565b60209081029190910101526040805160078082526101008201909252600091816020015b60608152602001906001900390816106ec579050506040805160026020820152919250016040516020818303038152906040528160008151811061073257610732610f47565b60209081029190910181019190915233600090815280825260409081902060020154905160609190911b6bffffffffffffffffffffffff1916918101919091526034016040516020818303038152906040528160018151811061079757610797610f47565b60209081029190910181019190915233600090815280825260409081902060030154905160609190911b6bffffffffffffffffffffffff191691810191909152603401604051602081830303815290604052816002815181106107fc576107fc610f47565b60200260200101819052503060601b60405160200161083091906bffffffffffffffffffffffff1991909116815260140190565b6040516020818303038152906040528160038151811061085257610852610f47565b6020026020010181905250617fff60001b60405160200161087591815260200190565b6040516020818303038152906040528160048151811061089757610897610f47565b6020026020010181905250617fff60001b6040516020016108ba91815260200190565b604051602081830303815290604052816005815181106108dc576108dc610f47565b6020026020010181905250600160001b6040516020016108fe91815260200190565b6040516020818303038152906040528160068151811061092057610920610f47565b602090810291909101810191909152336000908152908190526040908190205490517f14a6e2930000000000000000000000000000000000000000000000000000000081526001600160a01b03909116906314a6e293906109879085908590600401610fe0565b600060405180830381600087803b1580156109a157600080fd5b505af11580156109b5573d6000803e3d6000fd5b505050505050565b33600090815260208190526040902060030154600160a01b900460021615801590610a02575033600090815260208190526040902060030154600160a01b9004600416155b610a9a5760405162461bcd60e51b815260206004820152605560248201527f556e6976657273616c2050726f66696c65204b6579204d616e61676572206e6f60448201527f7420696e697469616c697a6564206f722044414f204b6579204d616e6167657260648201527f20616c726561647920696e697469616c697a65642e0000000000000000000000608482015260a401610121565b604051610aa690610f15565b604051809103906000f080158015610ac2573d6000803e3d6000fd5b5033600090815260208190526040902060028101805473ffffffffffffffffffffffffffffffffffffffff19166001600160a01b039390931692909217909155600301805461ffff60a01b198116600160a01b9182900460011b61fffe16909102179055565b33600090815260208190526040902060030154600160a01b900460011615801590610b6d575033600090815260208190526040902060030154600160a01b9004600216155b610c055760405162461bcd60e51b815260206004820152605760248201527f556e6976657273616c2070726f66696c65206e6f7420696e697469616c697a6560448201527f64206f7220556e6976657273616c2050726f66696c65204b6579206d616e616760648201527f657220616c726561647920696e697469616c697a65642e000000000000000000608482015260a401610121565b33600090815260208190526040908190205490516001600160a01b0390911690610c2e90610f23565b6001600160a01b039091168152602001604051809103906000f080158015610c5a573d6000803e3d6000fd5b503360009081526020819052604090206001808201805473ffffffffffffffffffffffffffffffffffffffff19166001600160a01b039490941693909317909255600301805461ffff60a01b198116600160a01b9182900490931b61fffe1602919091179055565b33600090815260208190526040902060030154600160a01b900460101615801590610d0657503360009081526020818152604090912060030154600160a01b900416155b610d785760405162461bcd60e51b815260206004820152603660248201527f5065726d697373696f6e73206e6f7420676976656e206f72204f776e6572736860448201527f697020616c7265616479207472616e7366657265642e000000000000000000006064820152608401610121565b3360009081526020819052604090819020805460019091015491517ff2fde38b0000000000000000000000000000000000000000000000000000000081526001600160a01b03928316600482015291169063f2fde38b90602401600060405180830381600087803b158015610dec57600080fd5b505af1158015610e00573d6000803e3d6000fd5b50503360009081526020818152604091829020600101548251600480825260248201855292810180517bffffffffffffffffffffffffffffffffffffffffffffffffffffffff167f4e71e0c80000000000000000000000000000000000000000000000000000000017905292517f09c5eabe0000000000000000000000000000000000000000000000000000000081526001600160a01b039190911694506309c5eabe9350610eb0929101611078565b6000604051808303816000875af1158015610ecf573d6000803e3d6000fd5b505050506040513d6000823e601f3d908101601f19168201604052610ef79190810190611092565b50565b6125b9806200114083390190565b605c80620036f983390190565b61262a806200375583390190565b612d968062005d7f83390190565b634e487b7160e01b600052604160045260246000fd5b634e487b7160e01b600052603260045260246000fd5b80516020808301519190811015610f7e576000198160200360031b1b821691505b50919050565b60005b83811015610f9f578181015183820152602001610f87565b83811115610fae576000848401525b50505050565b60008151808452610fcc816020860160208601610f84565b601f01601f19169290920160200192915050565b604080825283519082018190526000906020906060840190828701845b8281101561101957815184529284019290840190600101610ffd565b50505083810382850152845180825282820190600581901b8301840187850160005b8381101561106957601f19868403018552611057838351610fb4565b9487019492509086019060010161103b565b50909998505050505050505050565b60208152600061108b6020830184610fb4565b9392505050565b6000602082840312156110a457600080fd5b815167ffffffffffffffff808211156110bc57600080fd5b818401915084601f8301126110d057600080fd5b8151818111156110e2576110e2610f31565b604051601f8201601f19908116603f0116810190838211818310171561110a5761110a610f31565b8160405282815287602084870101111561112357600080fd5b611134836020830160208801610f84565b97965050505050505056fe60806040523480156200001157600080fd5b50604051620025b9380380620025b98339810160408190526200003491620000b8565b6200004a816200005160201b620010fd1760201c565b50620000ea565b6000546001600160a01b03828116911614620000b557600080546001600160a01b038381166001600160a01b0319831681178455604051919092169283917f8be0079c531659141344cd1fd0a4f28419497f9722a3daafe3b4186f6b6457e09190a3505b50565b600060208284031215620000cb57600080fd5b81516001600160a01b0381168114620000e357600080fd5b9392505050565b6124bf80620000fa6000396000f3fe6080604052600436106100d25760003560e01c806354f6127f1161007f5780637f23690c116100595780637f23690c146102405780638da5cb5b14610260578063e30c397814610292578063f2fde38b146102b2576100d2565b806354f6127f146101f85780636bb56a1414610218578063715018a61461022b576100d2565b806344c028fe116100b057806344c028fe146101965780634e3e6e9c146101b65780634e71e0c8146101e3576100d2565b806301ffc9a71461010857806314a6e2931461013d5780631626ba7e1461015d575b341561010657604051349033907f7e71433ddf847725166244795048ecf3e3f9f35628254ecbf73605666423349390600090a35b005b34801561011457600080fd5b50610128610123366004611c40565b6102d2565b60405190151581526020015b60405180910390f35b34801561014957600080fd5b50610106610158366004611da8565b610399565b34801561016957600080fd5b5061017d610178366004611e7d565b6104d3565b6040516001600160e01b03199091168152602001610134565b6101a96101a4366004611f1d565b6105d4565b6040516101349190611fe1565b3480156101c257600080fd5b506101d66101d1366004611ff4565b610cc5565b6040516101349190612029565b3480156101ef57600080fd5b50610106610d79565b34801561020457600080fd5b506101a961021336600461208b565b610e2d565b6101a96102263660046120a4565b610e38565b34801561023757600080fd5b50610106610f7a565b34801561024c57600080fd5b5061010661025b366004611e7d565b610fef565b34801561026c57600080fd5b506000546001600160a01b03165b6040516001600160a01b039091168152602001610134565b34801561029e57600080fd5b5060025461027a906001600160a01b031681565b3480156102be57600080fd5b506101066102cd3660046120f0565b611066565b60006001600160e01b03198216630b135d3f60e11b148061031c57506001600160e01b031982167f9a3bfe8800000000000000000000000000000000000000000000000000000000145b8061035057506001600160e01b031982167f6bb56a1400000000000000000000000000000000000000000000000000000000145b8061038457506001600160e01b031982167fad7dd9b000000000000000000000000000000000000000000000000000000000145b8061039357506103938261116f565b92915050565b336103ac6000546001600160a01b031690565b6001600160a01b0316146104075760405162461bcd60e51b815260206004820181905260248201527f4f776e61626c653a2063616c6c6572206973206e6f7420746865206f776e657260448201526064015b60405180910390fd5b805182511461047e5760405162461bcd60e51b815260206004820152602660248201527f4b657973206c656e677468206e6f7420657175616c20746f2076616c7565732060448201527f6c656e677468000000000000000000000000000000000000000000000000000060648201526084016103fe565b60005b82518110156104ce576104c683828151811061049f5761049f61210b565b60200260200101518383815181106104b9576104b961210b565b60200260200101516111ad565b600101610481565b505050565b6000806104e86000546001600160a01b031690565b90506001600160a01b0381163b156105945761050b81630b135d3f60e11b6111f5565b61051d576001600160e01b031961058c565b604051630b135d3f60e11b81526001600160a01b03821690631626ba7e9061054b9087908790600401612121565b602060405180830381865afa158015610568573d6000803e3d6000fd5b505050506040513d601f19601f8201168201806040525081019061058c919061213a565b915050610393565b61059e84846112f3565b6001600160a01b0316816001600160a01b0316146105c4576001600160e01b031961058c565b50630b135d3f60e11b9392505050565b6060336105e96000546001600160a01b031690565b6001600160a01b03161461063f5760405162461bcd60e51b815260206004820181905260248201527f4f776e61626c653a2063616c6c6572206973206e6f7420746865206f776e657260448201526064016103fe565b60005a90508661074557844710156106a85760405162461bcd60e51b815260206004820152602660248201527f455243373235583a20696e73756666696369656e742062616c616e636520666f6044820152651c8818d85b1b60d21b60648201526084016103fe565b6106eb868686868080601f016020809104026020016040519081016040528093929190818152602001838380828437600092019190915250879250611317915050565b9150846001600160a01b038716887f4810874456b8e6487bd861375cf6abd8e1c8bb5858c8ce36a86a04dabfac199e6107248789612157565b6040516001600160e01b0319909116815260200160405180910390a4610cbb565b600387036108035784156107c15760405162461bcd60e51b815260206004820152603860248201527f455243373235583a2063616e6e6f74207472616e736665722076616c7565207760448201527f697468206f7065726174696f6e2053544154494343414c4c000000000000000060648201526084016103fe565b6106eb8685858080601f016020809104026020016040519081016040528093929190818152602001838380828437600092019190915250869250611397915050565b600487036108c157841561087f5760405162461bcd60e51b815260206004820152603a60248201527f455243373235583a2063616e6e6f74207472616e736665722076616c7565207760448201527f697468206f7065726174696f6e2044454c454741544543414c4c00000000000060648201526084016103fe565b6106eb8685858080601f016020809104026020016040519081016040528093929190818152602001838380828437600092019190915250869250611412915050565b60018703610a64576001600160a01b038616156109525760405162461bcd60e51b815260206004820152604360248201527f455243373235583a20435245415445206f7065726174696f6e7320726571756960448201527f726520746865207265636569766572206164647265737320746f20626520656d60648201526270747960e81b608482015260a4016103fe565b844710156109b15760405162461bcd60e51b815260206004820152602660248201527f455243373235583a20696e73756666696369656e742062616c616e636520666f6044820152651c8818d85b1b60d21b60648201526084016103fe565b60006109f38686868080601f01602080910402602001604051908101604052809392919081815260200183838082843760009201919091525061146c92505050565b6040516bffffffffffffffffffffffff19606083901b166020820152909150603401604051602081830303815290604052925085816001600160a01b0316897f01c42bd7e97a66166063b02fce6924e6656b6c2c61966630165095c4fb0b7b2f60405160405180910390a450610cbb565b60028703610c73576001600160a01b03861615610af55760405162461bcd60e51b815260206004820152604360248201527f455243373235583a20435245415445206f7065726174696f6e7320726571756960448201527f726520746865207265636569766572206164647265737320746f20626520656d60648201526270747960e81b608482015260a4016103fe565b84471015610b545760405162461bcd60e51b815260206004820152602660248201527f455243373235583a20696e73756666696369656e742062616c616e636520666f6044820152651c8818d85b1b60d21b60648201526084016103fe565b6000610ba285858080601f016020809104026020016040519081016040528093929190818152602001838380828437600092019190915250610b9d92506020915088905061219d565b61151f565b90506000610bf186868080601f01602080910402602001604051908101604052809392919081815260200183838082843760009201829052509250610bec9150602090508961219d565b611585565b90506000610c008884846116ad565b6040516bffffffffffffffffffffffff19606083901b166020820152909150603401604051602081830303815290604052945087816001600160a01b03168b7f01c42bd7e97a66166063b02fce6924e6656b6c2c61966630165095c4fb0b7b2f60405160405180910390a4505050610cbb565b60405162461bcd60e51b815260206004820152601460248201527f57726f6e67206f7065726174696f6e207479706500000000000000000000000060448201526064016103fe565b5095945050505050565b6060815167ffffffffffffffff811115610ce157610ce1611c64565b604051908082528060200260200182016040528015610d1457816020015b6060815260200190600190039081610cff5790505b50905060005b8251811015610d7357610d45838281518110610d3857610d3861210b565b60200260200101516117ba565b828281518110610d5757610d5761210b565b6020026020010181905250610d6c8160010190565b9050610d1a565b50919050565b6002546001600160a01b03163314610df95760405162461bcd60e51b815260206004820152602c60248201527f4f776e61626c65436c61696d3a2063616c6c6572206973206e6f74207468652060448201527f70656e64696e674f776e6572000000000000000000000000000000000000000060648201526084016103fe565b600254610e0e906001600160a01b03166110fd565b6002805473ffffffffffffffffffffffffffffffffffffffff19169055565b6060610393826117ba565b60606000610e657f0cfc51aec37c55a4d0b1a65c6255c4bf2fbdf6277f3cc0730c45b828b6db8b476117ba565b90506014815110610f16576000610e7b826121b4565b60601c9050610e9181635122dded60e11b6111f5565b15610f1457604051635122dded60e11b81526001600160a01b0382169063a245bbda90610eca90339034908b908b908b90600401612219565b6000604051808303816000875af1158015610ee9573d6000803e3d6000fd5b505050506040513d6000823e601f3d908101601f19168201604052610f119190810190612253565b92505b505b81604051610f2491906122c1565b604051809103902085336001600160a01b03167f9c3ba68eb5742b8e3961aea0afc7371a71bf433c8a67a831803b64c064a178c2348888604051610f6a939291906122dd565b60405180910390a4509392505050565b33610f8d6000546001600160a01b031690565b6001600160a01b031614610fe35760405162461bcd60e51b815260206004820181905260248201527f4f776e61626c653a2063616c6c6572206973206e6f7420746865206f776e657260448201526064016103fe565b610fed60006110fd565b565b336110026000546001600160a01b031690565b6001600160a01b0316146110585760405162461bcd60e51b815260206004820181905260248201527f4f776e61626c653a2063616c6c6572206973206e6f7420746865206f776e657260448201526064016103fe565b61106282826111ad565b5050565b336110796000546001600160a01b031690565b6001600160a01b0316146110cf5760405162461bcd60e51b815260206004820181905260248201527f4f776e61626c653a2063616c6c6572206973206e6f7420746865206f776e657260448201526064016103fe565b6002805473ffffffffffffffffffffffffffffffffffffffff19166001600160a01b03831617905550565b50565b6000546001600160a01b038281169116146110fa57600080546001600160a01b0383811673ffffffffffffffffffffffffffffffffffffffff19831681178455604051919092169283917f8be0079c531659141344cd1fd0a4f28419497f9722a3daafe3b4186f6b6457e09190a35050565b60006001600160e01b031982167f714df77c00000000000000000000000000000000000000000000000000000000148061039357506103938261185c565b60008281526001602052604090206111c58282612379565b5060405182907fcdf4e344c0d23d4cdd0474039d176c55b19d531070dbe17856bfb993a5b5720b90600090a25050565b604080516001600160e01b0319831660248083019190915282518083039091018152604490910182526020810180517bffffffffffffffffffffffffffffffffffffffffffffffffffffffff166301ffc9a760e01b179052905160009190829081906001600160a01b03871690617530906112719086906122c1565b6000604051808303818686fa925050503d80600081146112ad576040519150601f19603f3d011682016040523d82523d6000602084013e6112b2565b606091505b50915091506020815110156112cd5760009350505050610393565b8180156112e95750808060200190518101906112e99190612439565b9695505050505050565b600080600061130285856118aa565b9150915061130f81611918565b509392505050565b6060600080866001600160a01b031684878760405161133691906122c1565b600060405180830381858888f193505050503d8060008114611374576040519150601f19603f3d011682016040523d82523d6000602084013e611379565b606091505b5091509150816112e95761138c81611ace565b509695505050505050565b6060600080856001600160a01b031684866040516113b591906122c1565b6000604051808303818686fa925050503d80600081146113f1576040519150601f19603f3d011682016040523d82523d6000602084013e6113f6565b606091505b50915091508161140957610cbb81611ace565b95945050505050565b6060600080856001600160a01b0316848660405161143091906122c1565b6000604051808303818686f4925050503d80600081146113f1576040519150601f19603f3d011682016040523d82523d6000602084013e6113f6565b600081516000036114bf5760405162461bcd60e51b815260206004820152601d60248201527f6e6f20636f6e74726163742062797465636f64652070726f766964656400000060448201526064016103fe565b81516020830184f090506001600160a01b0381166103935760405162461bcd60e51b815260206004820152601960248201527f436f756c64206e6f74206465706c6f7920636f6e74726163740000000000000060448201526064016103fe565b600061152c82602061245b565b8351101561157c5760405162461bcd60e51b815260206004820152601560248201527f746f427974657333325f6f75744f66426f756e6473000000000000000000000060448201526064016103fe565b50016020015190565b60608161159381601f61245b565b10156115e15760405162461bcd60e51b815260206004820152600e60248201527f736c6963655f6f766572666c6f7700000000000000000000000000000000000060448201526064016103fe565b6115eb828461245b565b8451101561163b5760405162461bcd60e51b815260206004820152601160248201527f736c6963655f6f75744f66426f756e647300000000000000000000000000000060448201526064016103fe565b60608215801561165a57604051915060008252602082016040526116a4565b6040519150601f8416801560200281840101858101878315602002848b0101015b8183101561169357805183526020928301920161167b565b5050858452601f01601f1916604052505b50949350505050565b600080844710156117005760405162461bcd60e51b815260206004820152601d60248201527f437265617465323a20696e73756666696369656e742062616c616e636500000060448201526064016103fe565b82516000036117515760405162461bcd60e51b815260206004820181905260248201527f437265617465323a2062797465636f6465206c656e677468206973207a65726f60448201526064016103fe565b8383516020850187f590506001600160a01b0381166117b25760405162461bcd60e51b815260206004820152601960248201527f437265617465323a204661696c6564206f6e206465706c6f790000000000000060448201526064016103fe565b949350505050565b60008181526001602052604090208054606091906117d7906122f7565b80601f0160208091040260200160405190810160405280929190818152602001828054611803906122f7565b80156118505780601f1061182557610100808354040283529160200191611850565b820191906000526020600020905b81548152906001019060200180831161183357829003601f168201915b50505050509050919050565b60006001600160e01b031982167f44c028fe00000000000000000000000000000000000000000000000000000000148061039357506301ffc9a760e01b6001600160e01b0319831614610393565b60008082516041036118e05760208301516040840151606085015160001a6118d487828585611aeb565b94509450505050611911565b825160400361190957602083015160408401516118fe868383611bd8565b935093505050611911565b506000905060025b9250929050565b600081600481111561192c5761192c612473565b036119345750565b600181600481111561194857611948612473565b036119955760405162461bcd60e51b815260206004820152601860248201527f45434453413a20696e76616c6964207369676e6174757265000000000000000060448201526064016103fe565b60028160048111156119a9576119a9612473565b036119f65760405162461bcd60e51b815260206004820152601f60248201527f45434453413a20696e76616c6964207369676e6174757265206c656e6774680060448201526064016103fe565b6003816004811115611a0a57611a0a612473565b03611a625760405162461bcd60e51b815260206004820152602260248201527f45434453413a20696e76616c6964207369676e6174757265202773272076616c604482015261756560f01b60648201526084016103fe565b6004816004811115611a7657611a76612473565b036110fa5760405162461bcd60e51b815260206004820152602260248201527f45434453413a20696e76616c6964207369676e6174757265202776272076616c604482015261756560f01b60648201526084016103fe565b805160609015611ae15781518083602001fd5b600080fd5b919050565b6000807f7fffffffffffffffffffffffffffffff5d576e7357a4501ddfe92f46681b20a0831115611b225750600090506003611bcf565b8460ff16601b14158015611b3a57508460ff16601c14155b15611b4b5750600090506004611bcf565b6040805160008082526020820180845289905260ff881692820192909252606081018690526080810185905260019060a0016020604051602081039080840390855afa158015611b9f573d6000803e3d6000fd5b5050604051601f1901519150506001600160a01b038116611bc857600060019250925050611bcf565b9150600090505b94509492505050565b6000807f7fffffffffffffffffffffffffffffffffffffffffffffffffffffffffffffff831681611c0e60ff86901c601b61245b565b9050611c1c87828885611aeb565b935093505050935093915050565b6001600160e01b0319811681146110fa57600080fd5b600060208284031215611c5257600080fd5b8135611c5d81611c2a565b9392505050565b634e487b7160e01b600052604160045260246000fd5b604051601f8201601f1916810167ffffffffffffffff81118282101715611ca357611ca3611c64565b604052919050565b600067ffffffffffffffff821115611cc557611cc5611c64565b5060051b60200190565b600082601f830112611ce057600080fd5b81356020611cf5611cf083611cab565b611c7a565b82815260059290921b84018101918181019086841115611d1457600080fd5b8286015b8481101561138c5780358352918301918301611d18565b600067ffffffffffffffff821115611d4957611d49611c64565b50601f01601f191660200190565b600082601f830112611d6857600080fd5b8135611d76611cf082611d2f565b818152846020838601011115611d8b57600080fd5b816020850160208301376000918101602001919091529392505050565b60008060408385031215611dbb57600080fd5b823567ffffffffffffffff80821115611dd357600080fd5b611ddf86838701611ccf565b9350602091508185013581811115611df657600080fd5b8501601f81018713611e0757600080fd5b8035611e15611cf082611cab565b81815260059190911b82018401908481019089831115611e3457600080fd5b8584015b83811015611e6c57803586811115611e505760008081fd5b611e5e8c8983890101611d57565b845250918601918601611e38565b508096505050505050509250929050565b60008060408385031215611e9057600080fd5b82359150602083013567ffffffffffffffff811115611eae57600080fd5b611eba85828601611d57565b9150509250929050565b80356001600160a01b0381168114611ae657600080fd5b60008083601f840112611eed57600080fd5b50813567ffffffffffffffff811115611f0557600080fd5b60208301915083602082850101111561191157600080fd5b600080600080600060808688031215611f3557600080fd5b85359450611f4560208701611ec4565b935060408601359250606086013567ffffffffffffffff811115611f6857600080fd5b611f7488828901611edb565b969995985093965092949392505050565b60005b83811015611fa0578181015183820152602001611f88565b83811115611faf576000848401525b50505050565b60008151808452611fcd816020860160208601611f85565b601f01601f19169290920160200192915050565b602081526000611c5d6020830184611fb5565b60006020828403121561200657600080fd5b813567ffffffffffffffff81111561201d57600080fd5b6117b284828501611ccf565b6000602080830181845280855180835260408601915060408160051b870101925083870160005b8281101561207e57603f1988860301845261206c858351611fb5565b94509285019290850190600101612050565b5092979650505050505050565b60006020828403121561209d57600080fd5b5035919050565b6000806000604084860312156120b957600080fd5b83359250602084013567ffffffffffffffff8111156120d757600080fd5b6120e386828701611edb565b9497909650939450505050565b60006020828403121561210257600080fd5b611c5d82611ec4565b634e487b7160e01b600052603260045260246000fd5b8281526040602082015260006117b26040830184611fb5565b60006020828403121561214c57600080fd5b8151611c5d81611c2a565b6001600160e01b0319813581811691600485101561217f5780818660040360031b1b83161692505b505092915050565b634e487b7160e01b600052601160045260246000fd5b6000828210156121af576121af612187565b500390565b805160208201516bffffffffffffffffffffffff1980821692919060148310156121e85780818460140360031b1b83161693505b505050919050565b81835281816020850137506000828201602090810191909152601f909101601f19169091010190565b6001600160a01b03861681528460208201528360408201526080606082015260006122486080830184866121f0565b979650505050505050565b60006020828403121561226557600080fd5b815167ffffffffffffffff81111561227c57600080fd5b8201601f8101841361228d57600080fd5b805161229b611cf082611d2f565b8181528560208385010111156122b057600080fd5b611409826020830160208601611f85565b600082516122d3818460208701611f85565b9190910192915050565b8381526040602082015260006114096040830184866121f0565b600181811c9082168061230b57607f821691505b602082108103610d7357634e487b7160e01b600052602260045260246000fd5b601f8211156104ce57600081815260208120601f850160051c810160208610156123525750805b601f850160051c820191505b818110156123715782815560010161235e565b505050505050565b815167ffffffffffffffff81111561239357612393611c64565b6123a7816123a184546122f7565b8461232b565b602080601f8311600181146123dc57600084156123c45750858301515b600019600386901b1c1916600185901b178555612371565b600085815260208120601f198616915b8281101561240b578886015182559484019460019091019084016123ec565b50858210156124295787850151600019600388901b60f8161c191681555b5050505050600190811b01905550565b60006020828403121561244b57600080fd5b81518015158114611c5d57600080fd5b6000821982111561246e5761246e612187565b500190565b634e487b7160e01b600052602160045260246000fdfea26469706673582212205379f4358c1c298ca36fdb0e4437e9c71748017b4badd9a097470e2a865b3c9d64736f6c634300080f00336080604052348015600f57600080fd5b50603f80601d6000396000f3fe6080604052600080fdfea2646970667358221220af49e5707b9e6769d8820373015fb9ce9ac44df41202091102ee188129b557f264736f6c634300080f0033608060405234801561001057600080fd5b50600180546001600160a01b031916331790556125f8806100326000396000f3fe608060405234801561001057600080fd5b50600436106100675760003560e01c80635c19a95c116100505780635c19a95c14610094578063aa328a49146100a7578063bc0e0925146100ba57600080fd5b80631284a79b1461006c57806341a3299d14610081575b600080fd5b61007f61007a366004611fb6565b6100cd565b005b61007f61008f3660046120ad565b6105db565b61007f6100a2366004612188565b610a8b565b61007f6100b53660046121bd565b610c77565b61007f6100c8366004612225565b611134565b61011133600260001b6040518060400160405280600781526020017f50524f504f5345000000000000000000000000000000000000000000000000008152506113dc565b825184511461018d5760405162461bcd60e51b815260206004820152602c60248201527f746172676574732e6c656e677468206d75737420626520657175616c20746f2060448201527f64617461732e6c656e677468000000000000000000000000000000000000000060648201526084015b60405180910390fd5b60108251111580156101a3575060108160ff1611155b6101ef5760405162461bcd60e51b815260206004820181905260248201527f596f752063616e2068617665206d6178696d756d2031362063686f696365732e6044820152606401610184565b60408051600780825261010082019092526000916020820160e080368337019050509050600061021f428961142f565b604080516001600160b01b0319831660208201527d3f82a2b5852cbedcda3d9062384397479ac9a00d00000000000000000000602a8201529192500160405160208183030381529060405261027390612240565b8260008151811061028657610286612267565b602090810291909101810191909152604080516001600160b01b03198416818401527d95e794640ff3efd16bfe738f1a9bf2886d166af500000000000000000000602a82015281518082039093018352810190526102e390612240565b826000815181106102f6576102f6612267565b602090810291909101810191909152604080516001600160b01b03198416818401527dbd3132afbfa232f7d171a873f7e52e32c666b06d00000000000000000000602a820152815180820390930183528101905261035390612240565b8260008151811061036657610366612267565b602090810291909101810191909152604080516001600160b01b03198416818401527ded458cca63dcf8476211a40ad15420dcabc377f000000000000000000000602a82015281518082039093018352810190526103c390612240565b826000815181106103d6576103d6612267565b60209081029190910101526040805160078082526101008201909252600091816020015b60608152602001906001900390816103fa579050509050888160008151811061042557610425612267565b6020026020010181905250878160008151811061044457610444612267565b60200260200101819052504260d01b60405160200161047391906001600160d01b031991909116815260060190565b6040516020818303038152906040528160008151811061049557610495612267565b60200260200101819052508360f81b6040516020016104c491906001600160f81b031991909116815260010190565b604051602081830303815290604052816000815181106104e6576104e6612267565b60209081029190910101526000546040516314a6e29360e01b81526001600160a01b03909116906314a6e2939061052390869085906004016122d5565b600060405180830381600087803b15801561053d57600080fd5b505af1158015610551573d6000803e3d6000fd5b5061058092507dba6d4933d1a0fbfd29728a3ed8d0a7aca50635b50000000000000000000091508990506114a4565b6105a87d478499bb6846f8a28632137c772be842c41b31050000000000000000000087611698565b6105d07d8141b895c75785b22c0f5986707a8c76667932270000000000000000000086611803565b505050505050505050565b6001546001600160a01b031633146105f257600080fd5b600080547fffffffffffffffffffffffff0000000000000000000000000000000000000000166001600160a01b038a161781556040805160078082526101008201909252906020820160e0803683370190505090507f3f82a2b5852cbedcda3d9062384397479ac9a00dae9991874d842bec7aab98ce60001b8160008151811061067e5761067e612267565b6020026020010181815250507f95e794640ff3efd16bfe738f1a9bf2886d166af549121f57d6e14af6b513f45d60001b816001815181106106c1576106c1612267565b6020026020010181815250507fbc776f168e7b9c60bb2a7180950facd372cd90c841732d963c31a93ff9f8c12760001b8160028151811061070457610704612267565b6020026020010181815250507ff89f507ecd9cb7646ce1514ec6ab90d695dac9314c3771f451fd90148a3335a960001b8160038151811061074757610747612267565b6020026020010181815250507f5bd05fa174be6a4aa4a8222f8837a27a381de14e7797cf7945df58b0626e6c3d60001b8160048151811061078a5761078a612267565b6020026020010181815250507fd08ca3a83d59467dd8ba57e940549874ea8310a1ebfb4396959235b00035d77760001b816005815181106107cd576107cd612267565b6020026020010181815250507fa45b1e711ab5d2d7654c92da78c9148c51fb0a58b116afda9fbf612c88e9680d60001b8160068151811061081057610810612267565b60209081029190910101526040805160078082526101008201909252600091816020015b6060815260200190600190039081610834579050509050888160008151811061085f5761085f612267565b6020026020010181905250878160018151811061087e5761087e612267565b60200260200101819052508660f81b6040516020016108ad91906001600160f81b031991909116815260010190565b604051602081830303815290604052816002815181106108cf576108cf612267565b60200260200101819052508560f81b6040516020016108fe91906001600160f81b031991909116815260010190565b6040516020818303038152906040528160038151811061092057610920612267565b60200260200101819052508460d01b60405160200161094f91906001600160d01b031991909116815260060190565b6040516020818303038152906040528160048151811061097157610971612267565b60200260200101819052508360d01b6040516020016109a091906001600160d01b031991909116815260060190565b604051602081830303815290604052816005815181106109c2576109c2612267565b6020026020010181905250826040516020016109ee91906001600160f81b031991909116815260010190565b60405160208183030381529060405281600681518110610a1057610a10612267565b60209081029190910101526000546040516314a6e29360e01b81526001600160a01b03909116906314a6e29390610a4d90859085906004016122d5565b600060405180830381600087803b158015610a6757600080fd5b505af1158015610a7b573d6000803e3d6000fd5b5050505050505050505050505050565b610acf33600860001b6040518060400160405280600c81526020017f53454e4444454c454741544500000000000000000000000000000000000000008152506113dc565b610b1381601060001b6040518060400160405280600f81526020017f5245434945564544454c454741544500000000000000000000000000000000008152506113dc565b604080517fc3f797d5c8ae536b82a60000000000000000000000000000000000000000000060208201526bffffffffffffffffffffffff19606084901b16602c820152610ba59101604051602081830303815290604052610b7390612240565b6040516bffffffffffffffffffffffff193360601b16602082015260340160405160208183030381529060405261198f565b600080546040805160208101939093526bffffffffffffffffffffffff193360601b16908301526001600160a01b031690637f23690c90605401604051602081830303815290604052610bf790612240565b6040516bffffffffffffffffffffffff19606086901b1660208201526034016040516020818303038152906040526040518363ffffffff1660e01b8152600401610c4292919061236d565b600060405180830381600087803b158015610c5c57600080fd5b505af1158015610c70573d6000803e3d6000fd5b5050505050565b610cbb33600160001b6040518060400160405280600481526020017f564f5445000000000000000000000000000000000000000000000000000000008152506113dc565b6000546001600160a01b03166354f6127f610cd68533611bc1565b6040518263ffffffff1660e01b8152600401610cf491815260200190565b600060405180830381865afa158015610d11573d6000803e3d6000fd5b505050506040513d6000823e601f3d908101601f19168201604052610d39919081019061238e565b610d4290612240565b15610d8f5760405162461bcd60e51b815260206004820152601360248201527f5573657220616c726561647920766f7465642e000000000000000000000000006044820152606401610184565b8051600054604080516001600160b01b0319871660208201527ded458cca63dcf8476211a40ad15420dcabc377f000000000000000000000602a8201526001600160a01b03909216916354f6127f9101604051602081830303815290604052610df790612240565b6040518263ffffffff1660e01b8152600401610e1591815260200190565b600060405180830381865afa158015610e32573d6000803e3d6000fd5b505050506040513d6000823e601f3d908101601f19168201604052610e5a919081019061238e565b610e6390612405565b60f81c1015610eda5760405162461bcd60e51b815260206004820152602360248201527f596f752068617665206d6f72652063686f69636573207468616e20616c6c6f7760448201527f65642e00000000000000000000000000000000000000000000000000000000006064820152608401610184565b6000805b8251816fffffffffffffffffffffffffffffffff1610156110785782816fffffffffffffffffffffffffffffffff1681518110610f1d57610f1d612267565b602090810291909101810151600054604080516001600160b01b03198a16818601527d8141b895c75785b22c0f5986707a8c766679322700000000000000000000602a820152815180820390950185528101905290916001600160a01b03909116906354f6127f90610f9790610f9290612240565b611c11565b51604080516001600160801b03199283166020820152608087901b909216603083015201604051602081830303815290604052610fd390612240565b6040518263ffffffff1660e01b8152600401610ff191815260200190565b600060405180830381865afa15801561100e573d6000803e3d6000fd5b505050506040513d6000823e601f3d908101601f19168201604052611036919081019061238e565b61103f90612240565b036110665761106360016fffffffffffffffffffffffffffffffff83161b83612453565b91505b8061107081612479565b915050610ede565b506000546001600160a01b0316637f23690c6110948633611bc1565b6040805161ffff19881660208201527fffff00000000000000000000000000000000000000000000000000000000000060f087901b16603e820152016040516020818303038152906040526040518363ffffffff1660e01b81526004016110fc92919061236d565b600060405180830381600087803b15801561111657600080fd5b505af115801561112a573d6000803e3d6000fd5b5050505050505050565b61117833600460001b6040518060400160405280600781526020017f45584543555445000000000000000000000000000000000000000000000000008152506113dc565b6000546040516354f6127f60e01b81527fd08ca3a83d59467dd8ba57e940549874ea8310a1ebfb4396959235b00035d777600482015242916001600160a01b0316906354f6127f90602401600060405180830381865afa1580156111e0573d6000803e3d6000fd5b505050506040513d6000823e601f3d908101601f19168201604052611208919081019061238e565b611211906124a8565b6000546040516354f6127f60e01b81527f5bd05fa174be6a4aa4a8222f8837a27a381de14e7797cf7945df58b0626e6c3d600482015260d09290921c916001600160a01b03909116906354f6127f90602401600060405180830381865afa158015611280573d6000803e3d6000fd5b505050506040513d6000823e601f3d908101601f191682016040526112a8919081019061238e565b6112b1906124a8565b6000546040516354f6127f60e01b81527dbd3132afbfa232f7d171a873f7e52e32c666b06d00000000000000000000600482015260d09290921c916001600160a01b03909116906354f6127f90602401600060405180830381865afa15801561131e573d6000803e3d6000fd5b505050506040513d6000823e601f3d908101601f19168201604052611346919081019061238e565b61134f906124a8565b61135c919060d01c6124dc565b61136691906124dc565b106113d95760405162461bcd60e51b815260206004820152602360248201527f5468652070726f706f73616c27732074696d6520646964206e6f74206578706960448201527f72652e00000000000000000000000000000000000000000000000000000000006064820152608401610184565b50565b60006113e784611c39565b90508281166000036114295783826040517f3bdad6e60000000000000000000000000000000000000000000000000000000081526004016101849291906124f4565b50505050565b60008260d01b82805190602001206040516020016114859291906001600160d01b03199290921682527fffffffff00000000000000000000000000000000000000000000000000000000166006820152600a0190565b60405160208183030381529060405261149d90612516565b9392505050565b6000815160016114b491906124dc565b67ffffffffffffffff8111156114cc576114cc611d3b565b6040519080825280602002602001820160405280156114f5578160200160208202803683370190505b50905060008251600161150891906124dc565b67ffffffffffffffff81111561152057611520611d3b565b60405190808252806020026020018201604052801561155357816020015b606081526020019060019003908161153e5790505b50905060005b81518110156116465761156b85611c11565b51604080516001600160801b03199283166020820152608084901b9092166030830152016040516020818303038152906040526115a790612240565b8382815181106115b9576115b9612267565b6020026020010181815250508381815181106115d7576115d7612267565b602002602001015160601b60405160200161160791906bffffffffffffffffffffffff1991909116815260140190565b60405160208183030381529060405282828151811061162857611628612267565b6020026020010181905250808061163e9061254a565b915050611559565b50838282518151811061165b5761165b612267565b60209081029190910101526000546040516314a6e29360e01b81526001600160a01b03909116906314a6e293906110fc90859085906004016122d5565b6000815160016116a891906124dc565b67ffffffffffffffff8111156116c0576116c0611d3b565b6040519080825280602002602001820160405280156116e9578160200160208202803683370190505b5090506000825160016116fc91906124dc565b67ffffffffffffffff81111561171457611714611d3b565b60405190808252806020026020018201604052801561174757816020015b60608152602001906001900390816117325790505b50905060005b81518110156116465761175f85611c11565b51604080516001600160801b03199283166020820152608084901b90921660308301520160405160208183030381529060405261179b90612240565b8382815181106117ad576117ad612267565b6020026020010181815250508381815181106117cb576117cb612267565b60200260200101518282815181106117e5576117e5612267565b602002602001018190525080806117fb9061254a565b91505061174d565b60008151600161181391906124dc565b67ffffffffffffffff81111561182b5761182b611d3b565b604051908082528060200260200182016040528015611854578160200160208202803683370190505b50905060008251600161186791906124dc565b67ffffffffffffffff81111561187f5761187f611d3b565b6040519080825280602002602001820160405280156118b257816020015b606081526020019060019003908161189d5790505b50905060005b8151811015611646576118ca85611c11565b51604080516001600160801b03199283166020820152608084901b90921660308301520160405160208183030381529060405261190690612240565b83828151811061191857611918612267565b60200260200101818152505083818151811061193657611936612267565b602002602001015160405160200161195091815260200190565b60405160208183030381529060405282828151811061197157611971612267565b602002602001018190525080806119879061254a565b9150506118b8565b600080546040516354f6127f60e01b8152600481018590526001600160a01b03909116906354f6127f90602401600060405180830381865afa1580156119d9573d6000803e3d6000fd5b505050506040513d6000823e601f3d908101601f19168201604052611a01919081019061238e565b611a0a90612563565b60408051600280825260608201835260809390931c93506000929091602083019080368337019050509050611a3e84611c11565b51604080516001600160801b03199283166020820152608085901b909216603083015201604051602081830303815290604052611a7a90612240565b81600081518110611a8d57611a8d612267565b6020026020010181815250508381600181518110611aad57611aad612267565b602090810291909101015260408051600280825260608201909252600091816020015b6060815260200190600190039081611ad05790505090508381600081518110611afb57611afb612267565b6020908102919091010152611b11836001612597565b60801b604051602001611b3491906001600160801b031991909116815260100190565b60405160208183030381529060405281600181518110611b5657611b56612267565b60209081029190910101526000546040516314a6e29360e01b81526001600160a01b03909116906314a6e29390611b9390859085906004016122d5565b600060405180830381600087803b158015611bad57600080fd5b505af11580156105d0573d6000803e3d6000fd5b604080516001600160b01b0319841660208201526000602a82018190526bffffffffffffffffffffffff19606085901b16602c830152910160405160208183030381529060405261149d90612240565b611c19611d1d565b506040805180820190915260006020820152818152601081019190915290565b60008054604080517f4b80742de2bfb3cc0e490000000000000000000000000000000000000000000060208201526bffffffffffffffffffffffff19606086901b16602c8201526001600160a01b03909216916354f6127f9101604051602081830303815290604052611cab90612240565b6040518263ffffffff1660e01b8152600401611cc991815260200190565b600060405180830381865afa158015611ce6573d6000803e3d6000fd5b505050506040513d6000823e601f3d908101601f19168201604052611d0e919081019061238e565b611d1790612240565b92915050565b60405180604001604052806002906020820280368337509192915050565b634e487b7160e01b600052604160045260246000fd5b604051601f8201601f1916810167ffffffffffffffff81118282101715611d7a57611d7a611d3b565b604052919050565b600067ffffffffffffffff821115611d9c57611d9c611d3b565b50601f01601f191660200190565b6000611dbd611db884611d82565b611d51565b9050828152838383011115611dd157600080fd5b828260208301376000602084830101529392505050565b600082601f830112611df957600080fd5b61149d83833560208501611daa565b600067ffffffffffffffff821115611e2257611e22611d3b565b5060051b60200190565b6001600160a01b03811681146113d957600080fd5b600082601f830112611e5257600080fd5b81356020611e62611db883611e08565b82815260059290921b84018101918181019086841115611e8157600080fd5b8286015b84811015611ea5578035611e9881611e2c565b8352918301918301611e85565b509695505050505050565b600082601f830112611ec157600080fd5b81356020611ed1611db883611e08565b82815260059290921b84018101918181019086841115611ef057600080fd5b8286015b84811015611ea557803567ffffffffffffffff811115611f145760008081fd5b8701603f81018913611f265760008081fd5b611f37898683013560408401611daa565b845250918301918301611ef4565b600082601f830112611f5657600080fd5b81356020611f66611db883611e08565b82815260059290921b84018101918181019086841115611f8557600080fd5b8286015b84811015611ea55780358352918301918301611f89565b803560ff81168114611fb157600080fd5b919050565b60008060008060008060c08789031215611fcf57600080fd5b863567ffffffffffffffff80821115611fe757600080fd5b611ff38a838b01611de8565b9750602089013591508082111561200957600080fd5b6120158a838b01611de8565b9650604089013591508082111561202b57600080fd5b6120378a838b01611e41565b9550606089013591508082111561204d57600080fd5b6120598a838b01611eb0565b9450608089013591508082111561206f57600080fd5b5061207c89828a01611f45565b92505061208b60a08801611fa0565b90509295509295509295565b803565ffffffffffff81168114611fb157600080fd5b600080600080600080600080610100898b0312156120ca57600080fd5b88356120d581611e2c565b9750602089013567ffffffffffffffff808211156120f257600080fd5b6120fe8c838d01611de8565b985060408b013591508082111561211457600080fd5b506121218b828c01611de8565b96505061213060608a01611fa0565b945061213e60808a01611fa0565b935061214c60a08a01612097565b925061215a60c08a01612097565b915060e08901356001600160f81b03198116811461217757600080fd5b809150509295985092959890939650565b60006020828403121561219a57600080fd5b813561149d81611e2c565b80356001600160b01b031981168114611fb157600080fd5b6000806000606084860312156121d257600080fd5b6121db846121a5565b9250602084013561ffff19811681146121f357600080fd5b9150604084013567ffffffffffffffff81111561220f57600080fd5b61221b86828701611f45565b9150509250925092565b60006020828403121561223757600080fd5b61149d826121a5565b80516020808301519190811015612261576000198160200360031b1b821691505b50919050565b634e487b7160e01b600052603260045260246000fd5b60005b83811015612298578181015183820152602001612280565b838111156114295750506000910152565b600081518084526122c181602086016020860161227d565b601f01601f19169290920160200192915050565b604080825283519082018190526000906020906060840190828701845b8281101561230e578151845292840192908401906001016122f2565b50505083810382850152845180825282820190600581901b8301840187850160005b8381101561235e57601f1986840301855261234c8383516122a9565b94870194925090860190600101612330565b50909998505050505050505050565b82815260406020820152600061238660408301846122a9565b949350505050565b6000602082840312156123a057600080fd5b815167ffffffffffffffff8111156123b757600080fd5b8201601f810184136123c857600080fd5b80516123d6611db882611d82565b8181528560208385010111156123eb57600080fd5b6123fc82602083016020860161227d565b95945050505050565b6000815160208301516001600160f81b0319808216935060018310156124355780818460010360031b1b83161693505b505050919050565b634e487b7160e01b600052601160045260246000fd5b600061ffff8083168185168083038211156124705761247061243d565b01949350505050565b60006fffffffffffffffffffffffffffffffff80831681810361249e5761249e61243d565b6001019392505050565b6000815160208301516001600160d01b0319808216935060068310156124355760069290920360031b82901b161692915050565b600082198211156124ef576124ef61243d565b500190565b6001600160a01b038316815260406020820152600061238660408301846122a9565b6000815160208301516001600160b01b03198082169350600a83101561243557600a9290920360031b82901b161692915050565b60006001820161255c5761255c61243d565b5060010190565b6000815160208301516001600160801b0319808216935060108310156124355760109290920360031b82901b161692915050565b60006fffffffffffffffffffffffffffffffff8083168185168083038211156124705761247061243d56fea2646970667358221220ebf90bfddd3d8fd27bfd545b1eb757ca5726823d7b406368db7f24402a4ca63664736f6c634300080f003360806040523480156200001157600080fd5b5060405162002d9638038062002d9683398101604081905262000034916200005a565b600080546001600160a01b0319166001600160a01b03929092169190911790556200008c565b6000602082840312156200006d57600080fd5b81516001600160a01b03811681146200008557600080fd5b9392505050565b612cfa806200009c6000396000f3fe6080604052600436106100655760003560e01c8063895358031161004357806389535803146100f8578063902d5fa014610163578063d4b839921461017657600080fd5b806301ffc9a71461006a57806309c5eabe1461009f5780631626ba7e146100bf575b600080fd5b34801561007657600080fd5b5061008a610085366004612422565b6101ae565b60405190151581526020015b60405180910390f35b6100b26100ad366004612481565b610219565b604051610096919061251b565b3480156100cb57600080fd5b506100df6100da3660046125f3565b610314565b6040516001600160e01b03199091168152602001610096565b34801561010457600080fd5b5061015561011336600461264f565b6001600160a01b039190911660009081526001602090815260408083208484529091529020546fffffffffffffffffffffffffffffffff1660809190911b1790565b604051908152602001610096565b6100b261017136600461267b565b61036b565b34801561018257600080fd5b50600054610196906001600160a01b031681565b6040516001600160a01b039091168152602001610096565b60006001600160e01b031982167fc403d48f0000000000000000000000000000000000000000000000000000000014806101f857506001600160e01b03198216630b135d3f60e11b145b8061021357506301ffc9a760e01b6001600160e01b03198316145b92915050565b6060610226338484610595565b6000805481906001600160a01b0316345a9087876040516102489291906126eb565b600060405180830381858888f193505050503d8060008114610286576040519150601f19603f3d011682016040523d82523d6000602084013e61028b565b606091505b5091509150816102a05761029e816109d2565b505b347f6b9340454526f665e369d7ac17353d0b73774a4a80f746b959ece8130e0f1d726102cc86886126fb565b6040516001600160e01b0319909116815260200160405180910390a280516000036102f7578061030b565b8080602001905181019061030b919061272b565b95945050505050565b60008061032184846109ea565b6000549091506103489061020090610342906001600160a01b031684610a0e565b81161490565b61035a576001600160e01b0319610363565b630b135d3f60e11b5b949350505050565b606060004630868686604051602001610388959493929190612799565b60405160208183030381529060405290506000610403876103fd84805190602001206040517f19457468657265756d205369676e6564204d6573736167653a0a3332000000006020820152603c8101829052600090605c01604051602081830303815290604052805190602001209050919050565b906109ea565b905061040f8187610abc565b6104605760405162461bcd60e51b815260206004820152601f60248201527f6578656375746552656c617943616c6c3a20496e76616c6964206e6f6e63650060448201526064015b60405180910390fd5b6001600160a01b038116600090815260016020908152604080832060808a901c84529091528120805491610493836127e9565b91905055506104a3818686610595565b6000805481906001600160a01b0316345a9089896040516104c59291906126eb565b600060405180830381858888f193505050503d8060008114610503576040519150601f19603f3d011682016040523d82523d6000602084013e610508565b606091505b50915091508161051d5761051b816109d2565b505b347f6b9340454526f665e369d7ac17353d0b73774a4a80f746b959ece8130e0f1d72610549888a6126fb565b6040516001600160e01b0319909116815260200160405180910390a280516000036105745780610588565b80806020019051810190610588919061272b565b9998505050505050505050565b60006105a46004828486612802565b6105ad916126fb565b60008054919250906105c8906001600160a01b031686610a0e565b90508061060c576040517ff292052a0000000000000000000000000000000000000000000000000000000081526001600160a01b0386166004820152602401610457565b7f80dc96f4000000000000000000000000000000000000000000000000000000006001600160e01b03198316016107365760008061064d8560048189612802565b81019061065a91906125f3565b90925090507fffffffffffff00000000000000000000000000000000000000000000000000008216654b80742de2bf60d01b14806106ca57506fffffffffffffffffffffffffffffffff1982167fdf30dba06db6a30e65354d9a64c6098600000000000000000000000000000000145b156106e0576106db82828986610b07565b61072f565b6040805160018082528183019092526000916020808301908036833701905050905082816000815181106107165761071661282c565b60200260200101818152505061072d888583610f1a565b505b50506109cb565b7feb591d6d000000000000000000000000000000000000000000000000000000006001600160e01b03198316016108a3576000806107778560048189612802565b81019061078491906128f1565b915091506000805b83518110156108915760008482815181106107a9576107a961282c565b6020026020010151905060008483815181106107c7576107c761282c565b602090810291909101015190507fffffffffffff00000000000000000000000000000000000000000000000000008216654b80742de2bf60d01b148061083f57506fffffffffffffffffffffffffffffffff1982167fdf30dba06db6a30e65354d9a64c6098600000000000000000000000000000000145b156108775761085082828d8a610b07565b6000801b8684815181106108665761086661282c565b60200260200101818152505061087c565b600193505b50508080610889906127e9565b91505061078c565b50801561072d5761072d888585610f1a565b7fbb3fd702000000000000000000000000000000000000000000000000000000006001600160e01b03198316016108e5576108e085828686610f46565b6109cb565b6001600160e01b031982167ff2fde38b00000000000000000000000000000000000000000000000000000000148061094657506001600160e01b031982167f4e71e0c800000000000000000000000000000000000000000000000000000000145b1561095d57610957858260016111d5565b506109cb565b60405162461bcd60e51b815260206004820152602b60248201527f5f7665726966795065726d697373696f6e733a20696e76616c6964204552433760448201527f32352073656c6563746f720000000000000000000000000000000000000000006064820152608401610457565b5050505050565b8051606090156100655781518083602001fd5b919050565b60008060006109f9858561122a565b91509150610a0681611298565b509392505050565b6000806001600160a01b0384166354f6127f610a4e7f4b80742de2bf82acb36300000000000000000000000000000000000000000000606087901b611451565b6040518263ffffffff1660e01b8152600401610a6c91815260200190565b600060405180830381865afa158015610a89573d6000803e3d6000fd5b505050506040513d6000823e601f3d908101601f19168201604052610ab1919081019061272b565b9050610363816129a0565b6001600160a01b0382166000908152600160209081526040808320608085901c8452909152812054610aff700100000000000000000000000000000000846129c7565b149392505050565b7fb47f8bd21d407d534c9d000000000000000000000000000000000000000000006001600160a01b0319851601610b4857610b4384838361149c565b610f14565b7f20cf245f92495cf19acab2659b39f679e0f76aba35a7394b241ce5a0cc734f1d8401610b7b57610b4384848484611534565b7f20cf245f92495cf19acab2659b39f67a000000000000000000000000000000006fffffffffffffffffffffffffffffffff19851601610bc757610bc1828260026111d5565b50610f14565b7fb47f8bd21d40392294c4000000000000000000000000000000000000000000006001600160a01b0319851601610d1557610c01836115ed565b610c735760405162461bcd60e51b815260206004820152603660248201527f4c5350364b65794d616e616765723a20696e76616c69642041424920656e636f60448201527f646564206172726179206f6620616464726573736573000000000000000000006064820152608401610457565b600080546040516354f6127f60e01b8152600481018790526001600160a01b03909116906354f6127f90602401600060405180830381865afa158015610cbd573d6000803e3d6000fd5b505050506040513d6000823e601f3d908101601f19168201604052610ce5919081019061272b565b90508051600003610d0257610cfc838360046111d5565b50610bc1565b610d0e838360026111d5565b5050610f14565b6001600160a01b031984166909700e85bc57f1dfd43d60b31b1480610d5057506001600160a01b03198416694b80742de2bf3efa94a360b01b145b15610dd057610d5e83611691565b610c735760405162461bcd60e51b815260206004820152603360248201527f4c5350364b65794d616e616765723a20696e76616c69642041424920656e636f60448201527f646564206172726179206f6620627974657334000000000000000000000000006064820152608401610457565b7fb47f8bd21d406f474b7b000000000000000000000000000000000000000000006001600160a01b0319851601610f1457610e0a83611728565b610e7c5760405162461bcd60e51b815260206004820152603460248201527f4c5350364b65794d616e616765723a20696e76616c69642041424920656e636f60448201527f646564206172726179206f6620627974657333320000000000000000000000006064820152608401610457565b600080546040516354f6127f60e01b8152600481018790526001600160a01b03909116906354f6127f90602401600060405180830381865afa158015610ec6573d6000803e3d6000fd5b505050506040513d6000823e601f3d908101601f19168201604052610eee919081019061272b565b90508051600003610f0557610957838360046111d5565b610f11838360026111d5565b50505b50505050565b61040080831603610f2a57505050565b610f36838360086111d5565b50610f4183826117a9565b505050565b6000610f56602460048486612802565b610f5f916129e9565b905060058110610fd75760405162461bcd60e51b815260206004820152602660248201527f4c5350364b65794d616e616765723a20696e76616c6964206f7065726174696f60448201527f6e207479706500000000000000000000000000000000000000000000000000006064820152608401610457565b6004810361104d5760405162461bcd60e51b815260206004820152603e60248201527f4c5350364b65794d616e616765723a206f7065726174696f6e2044454c45474160448201527f544543414c4c2069732063757272656e746c7920646973616c6c6f77656400006064820152608401610457565b600061105d606460448587612802565b611066916129e9565b9050600060018314806110795750600283145b905060a4841160008261109e576110996110928661198d565b8981161490565b6110a1565b60005b905081156110c55780806110c357506110c389896110be886119bf565b6111d5565b505b6108008881161484156110e85780806110e657506110e68a8a6101006111d5565b505b83156110f957505050505050610f14565b8180156111035750825b801561110d575084155b1561111d57505050505050610f14565b808015611128575082155b80156111345750600085115b1561114457505050505050610f14565b81801561114e5750805b1561115e57505050505050610f14565b600061116e604460308a8c612802565b61117791612a07565b60601c90506111868b82611a0e565b6001600160a01b0381163b156111c8576111a08b82611afc565b60a888106111c8576111c88b6111ba60a860a48c8e612802565b6111c3916126fb565b611bf5565b5050505050505050505050565b600081831682146112235760006111eb83611ced565b905084816040517f3bdad6e6000000000000000000000000000000000000000000000000000000008152600401610457929190612a3a565b9392505050565b60008082516041036112605760208301516040840151606085015160001a61125487828585611f84565b94509450505050611291565b8251604003611289576020830151604084015161127e868383612071565b935093505050611291565b506000905060025b9250929050565b60008160048111156112ac576112ac612a5c565b036112b45750565b60018160048111156112c8576112c8612a5c565b036113155760405162461bcd60e51b815260206004820152601860248201527f45434453413a20696e76616c6964207369676e617475726500000000000000006044820152606401610457565b600281600481111561132957611329612a5c565b036113765760405162461bcd60e51b815260206004820152601f60248201527f45434453413a20696e76616c6964207369676e6174757265206c656e677468006044820152606401610457565b600381600481111561138a5761138a612a5c565b036113e25760405162461bcd60e51b815260206004820152602260248201527f45434453413a20696e76616c6964207369676e6174757265202773272076616c604482015261756560f01b6064820152608401610457565b60048160048111156113f6576113f6612a5c565b0361144e5760405162461bcd60e51b815260206004820152602260248201527f45434453413a20696e76616c6964207369676e6174757265202776272076616c604482015261756560f01b6064820152608401610457565b50565b604080516001600160a01b0319841660208201526bffffffffffffffffffffffff198316602c8201526000918291016040516020818303038152906040529050610363816020015190565b600080546040516354f6127f60e01b8152600481018690526001600160a01b03909116906354f6127f90602401600060405180830381865afa1580156114e6573d6000803e3d6000fd5b505050506040513d6000823e601f3d908101601f1916820160405261150e919081019061272b565b611517906129a0565b0361152857610f14828260046111d5565b610f14828260026111d5565b600080546040516354f6127f60e01b8152600481018790526001600160a01b03909116906354f6127f90602401600060405180830381865afa15801561157e573d6000803e3d6000fd5b505050506040513d6000823e601f3d908101601f191682016040526115a6919081019061272b565b6115af906129a0565b905060006115bc856129a0565b9050818111156115d8576115d2848460046111d5565b50610f11565b6115e4848460026111d5565b50505050505050565b60006115f882611728565b61160457506000919050565b600061160f836129a0565b9050600061161d84836120c3565b9050600061162c836020612a72565b905060005b828110156116855760006116458784612129565b90506001600160a01b0319811615611664575060009695505050505050565b61166f602084612a72565b925050808061167d906127e9565b915050611631565b50600195945050505050565b600061169c82611728565b6116a857506000919050565b60006116b3836129a0565b905060006116c184836120c3565b905060006116d0836020612a72565b905060005b828110156116855760006116e98784612129565b90506001600160e01b03811615611707575060009695505050505050565b611712602084612a72565b9250508080611720906127e9565b9150506116d5565b8051600090602081101561173f5750600092915050565b600061174a846129a0565b90508082101561175e575060009392505050565b600061176a85836120c3565b9050611777816020612a8a565b611782836020612a72565b61178c9190612a72565b83101561179e57506000949350505050565b506001949350505050565b600080546117c0906001600160a01b031684612186565b90508051600014806117d857506117d681611728565b155b156117e257505050565b6000818060200190518101906117f89190612aa9565b905060008060005b83518110156118ea5761182b84828151811061181e5761181e61282c565b6020026020010151612226565b925060005b86518110156118d7576000801b87828151811061184f5761184f61282c565b602002602001015103156118c557600019846008021b92508287828151811061187a5761187a61282c565b6020026020010151168583815181106118955761189561282c565b6020026020010151036118c5576000801b8782815181106118b8576118b861282c565b6020026020010181815250505b806118cf816127e9565b915050611830565b50806118e2816127e9565b915050611800565b5060005b85518110156115e4576000801b86828151811061190d5761190d61282c565b60200260200101511461197b578686828151811061192d5761192d61282c565b60209081029190910101516040517f3003e7ae0000000000000000000000000000000000000000000000000000000081526001600160a01b0390921660048301526024820152604401610457565b80611985816127e9565b9150506118ee565b60008161199d5750611000919050565b600382036119ae5750612000919050565b600482036109e55750614000919050565b6000816119ce57506010919050565b600182036119de57506080919050565b600282036119ee57506080919050565b600382036119fe57506020919050565b600482036109e557506040919050565b60008054611a25906001600160a01b031684612292565b9050805160001480611a3d5750611a3b816115ed565b155b15611a4757505050565b600081806020019051810190611a5d9190612b3a565b905060005b8151811015611ab657818181518110611a7d57611a7d61282c565b60200260200101516001600160a01b0316846001600160a01b031603611aa4575050505050565b80611aae816127e9565b915050611a62565b506040517f2879b1280000000000000000000000000000000000000000000000000000000081526001600160a01b03808616600483015284166024820152604401610457565b60008054611b13906001600160a01b0316846122cf565b9050805160001480611b2b5750611b2981611691565b155b15611b3557505050565b600081806020019051810190611b4b9190612bc9565b905060005b8151811015611bac57611b8e828281518110611b6e57611b6e61282c565b6020026020010151856001600160a01b03166122f990919063ffffffff16565b15611b9a575050505050565b80611ba4816127e9565b915050611b50565b5060405162461bcd60e51b815260206004820152601560248201527f4e6f7420416c6c6f776564205374616e646172647300000000000000000000006044820152606401610457565b60008054611c0c906001600160a01b0316846123e2565b9050805160001480611c245750611c2281611691565b155b15611c2e57505050565b600081806020019051810190611c449190612bc9565b905060005b8151811015611c9f57818181518110611c6457611c6461282c565b60200260200101516001600160e01b031916846001600160e01b03191603611c8d575050505050565b80611c97816127e9565b915050611c49565b506040517f841351100000000000000000000000000000000000000000000000000000000081526001600160a01b03851660048201526001600160e01b031984166024820152604401610457565b60606000198201611d3157505060408051808201909152601181527f5452414e534645524f574e455253484950000000000000000000000000000000602082015290565b6001198201611d7357505060408051808201909152601181527f4348414e47455045524d495353494f4e53000000000000000000000000000000602082015290565b6003198201611db557505060408051808201909152600e81527f4144445045524d495353494f4e53000000000000000000000000000000000000602082015290565b6007198201611df757505060408051808201909152600781527f5345544441544100000000000000000000000000000000000000000000000000602082015290565b600f198201611e3957505060408051808201909152600481527f43414c4c00000000000000000000000000000000000000000000000000000000602082015290565b601f198201611e7b57505060408051808201909152600a81527f53544154494343414c4c00000000000000000000000000000000000000000000602082015290565b603f198201611ebd57505060408051808201909152600c81527f44454c454741544543414c4c0000000000000000000000000000000000000000602082015290565b607f198201611eff57505060408051808201909152600681527f4445504c4f590000000000000000000000000000000000000000000000000000602082015290565b60ff198201611f4157505060408051808201909152600d81527f5452414e5346455256414c554500000000000000000000000000000000000000602082015290565b6101ff1982016109e557505060408051808201909152600481527f5349474e00000000000000000000000000000000000000000000000000000000602082015290565b6000807f7fffffffffffffffffffffffffffffff5d576e7357a4501ddfe92f46681b20a0831115611fbb5750600090506003612068565b8460ff16601b14158015611fd357508460ff16601c14155b15611fe45750600090506004612068565b6040805160008082526020820180845289905260ff881692820192909252606081018690526080810185905260019060a0016020604051602081039080840390855afa158015612038573d6000803e3d6000fd5b5050604051601f1901519150506001600160a01b03811661206157600060019250925050612068565b9150600090505b94509492505050565b6000807f7fffffffffffffffffffffffffffffffffffffffffffffffffffffffffffffff8316816120a760ff86901c601b612a72565b90506120b587828885611f84565b935093505050935093915050565b60006120d0826020612a72565b835110156121205760405162461bcd60e51b815260206004820152601560248201527f746f55696e743235365f6f75744f66426f756e647300000000000000000000006044820152606401610457565b50016020015190565b6000612136826020612a72565b835110156121205760405162461bcd60e51b815260206004820152601560248201527f746f427974657333325f6f75744f66426f756e647300000000000000000000006044820152606401610457565b60606001600160a01b0383166354f6127f6121c37f4b80742de2bf90b8b4850000000000000000000000000000000000000000000085851b611451565b6040518263ffffffff1660e01b81526004016121e191815260200190565b600060405180830381865afa1580156121fe573d6000803e3d6000fd5b505050506040513d6000823e601f3d908101601f19168201604052611223919081019061272b565b6000601f5b82816020811061223d5761223d61282c565b1a60f81b7fff000000000000000000000000000000000000000000000000000000000000001660000361227c578061227481612c58565b91505061222b565b612287816001612a72565b611223906020612c6f565b60606001600160a01b0383166354f6127f6121c37f4b80742de2bfc6dd6b3c0000000000000000000000000000000000000000000085851b611451565b60606001600160a01b0383166354f6127f6121c3694b80742de2bf3efa94a360b01b85851b611451565b604080516001600160e01b0319831660248083019190915282518083039091018152604490910182526020810180516001600160e01b03166301ffc9a760e01b179052905160009190829081906001600160a01b0387169061753090612360908690612c86565b6000604051808303818686fa925050503d806000811461239c576040519150601f19603f3d011682016040523d82523d6000602084013e6123a1565b606091505b50915091506020815110156123bc5760009350505050610213565b8180156123d85750808060200190518101906123d89190612ca2565b9695505050505050565b60606001600160a01b0383166354f6127f6121c36909700e85bc57f1dfd43d60b31b85851b611451565b6001600160e01b03198116811461144e57600080fd5b60006020828403121561243457600080fd5b81356112238161240c565b60008083601f84011261245157600080fd5b50813567ffffffffffffffff81111561246957600080fd5b60208301915083602082850101111561129157600080fd5b6000806020838503121561249457600080fd5b823567ffffffffffffffff8111156124ab57600080fd5b6124b78582860161243f565b90969095509350505050565b60005b838110156124de5781810151838201526020016124c6565b83811115610f145750506000910152565b600081518084526125078160208601602086016124c3565b601f01601f19169290920160200192915050565b60208152600061122360208301846124ef565b634e487b7160e01b600052604160045260246000fd5b604051601f8201601f1916810167ffffffffffffffff8111828210171561256d5761256d61252e565b604052919050565b600067ffffffffffffffff82111561258f5761258f61252e565b50601f01601f191660200190565b600082601f8301126125ae57600080fd5b81356125c16125bc82612575565b612544565b8181528460208386010111156125d657600080fd5b816020850160208301376000918101602001919091529392505050565b6000806040838503121561260657600080fd5b82359150602083013567ffffffffffffffff81111561262457600080fd5b6126308582860161259d565b9150509250929050565b6001600160a01b038116811461144e57600080fd5b6000806040838503121561266257600080fd5b823561266d8161263a565b946020939093013593505050565b6000806000806060858703121561269157600080fd5b843567ffffffffffffffff808211156126a957600080fd5b6126b58883890161259d565b95506020870135945060408701359150808211156126d257600080fd5b506126df8782880161243f565b95989497509550505050565b8183823760009101908152919050565b6001600160e01b031981358181169160048510156127235780818660040360031b1b83161692505b505092915050565b60006020828403121561273d57600080fd5b815167ffffffffffffffff81111561275457600080fd5b8201601f8101841361276557600080fd5b80516127736125bc82612575565b81815285602083850101111561278857600080fd5b61030b8260208301602086016124c3565b8581526bffffffffffffffffffffffff198560601b1660208201528360348201528183605483013760009101605401908152949350505050565b634e487b7160e01b600052601160045260246000fd5b6000600182016127fb576127fb6127d3565b5060010190565b6000808585111561281257600080fd5b8386111561281f57600080fd5b5050820193919092039150565b634e487b7160e01b600052603260045260246000fd5b600067ffffffffffffffff82111561285c5761285c61252e565b5060051b60200190565b600082601f83011261287757600080fd5b813560206128876125bc83612842565b82815260059290921b840181019181810190868411156128a657600080fd5b8286015b848110156128e657803567ffffffffffffffff8111156128ca5760008081fd5b6128d88986838b010161259d565b8452509183019183016128aa565b509695505050505050565b6000806040838503121561290457600080fd5b823567ffffffffffffffff8082111561291c57600080fd5b818501915085601f83011261293057600080fd5b813560206129406125bc83612842565b82815260059290921b8401810191818101908984111561295f57600080fd5b948201945b8386101561297d57853582529482019490820190612964565b9650508601359250508082111561299357600080fd5b5061263085828601612866565b805160208083015191908110156129c1576000198160200360031b1b821691505b50919050565b6000826129e457634e487b7160e01b600052601260045260246000fd5b500690565b8035602083101561021357600019602084900360031b1b1692915050565b6bffffffffffffffffffffffff1981358181169160148510156127235760149490940360031b84901b1690921692915050565b6001600160a01b038316815260406020820152600061036360408301846124ef565b634e487b7160e01b600052602160045260246000fd5b60008219821115612a8557612a856127d3565b500190565b6000816000190483118215151615612aa457612aa46127d3565b500290565b60006020808385031215612abc57600080fd5b825167ffffffffffffffff811115612ad357600080fd5b8301601f81018513612ae457600080fd5b8051612af26125bc82612842565b81815260059190911b82018301908381019087831115612b1157600080fd5b928401925b82841015612b2f57835182529284019290840190612b16565b979650505050505050565b60006020808385031215612b4d57600080fd5b825167ffffffffffffffff811115612b6457600080fd5b8301601f81018513612b7557600080fd5b8051612b836125bc82612842565b81815260059190911b82018301908381019087831115612ba257600080fd5b928401925b82841015612b2f578351612bba8161263a565b82529284019290840190612ba7565b60006020808385031215612bdc57600080fd5b825167ffffffffffffffff811115612bf357600080fd5b8301601f81018513612c0457600080fd5b8051612c126125bc82612842565b81815260059190911b82018301908381019087831115612c3157600080fd5b928401925b82841015612b2f578351612c498161240c565b82529284019290840190612c36565b600081612c6757612c676127d3565b506000190190565b600082821015612c8157612c816127d3565b500390565b60008251612c988184602087016124c3565b9190910192915050565b600060208284031215612cb457600080fd5b8151801515811461122357600080fdfea2646970667358221220728d011d4e5f0b1aec5f3866395375392ee2d5e50eefffb85d832310850dae6a64736f6c634300080f0033a26469706673582212209314741a462c62ed220c816230c46ba23bfd75e997e341b6c7189f64e96435f364736f6c634300080f0033",
  "immutableReferences": {},
  "source": "// SPDX-License-Identifier: CC0-1.0\n\npragma solidity ^0.8.0;\n\nimport {LSP0ERC725Account} from \"@lukso/lsp-smart-contracts/contracts/LSP0ERC725Account/LSP0ERC725Account.sol\";\nimport {LSP6KeyManager} from \"@lukso/lsp-smart-contracts/contracts/LSP6KeyManager/LSP6KeyManager.sol\";\nimport {DaoKeyManager} from \"./DaoAccount/DaoKeyManager.sol\";\nimport {VaultKeyManager} from \"./DaoVault/VaultKeyManager.sol\";\nimport {\n  _LSP6KEY_ADDRESSPERMISSIONS_ARRAY,\n  _LSP6KEY_ADDRESSPERMISSIONS_ARRAY_PREFIX,\n  _LSP6KEY_ADDRESSPERMISSIONS_PERMISSIONS_PREFIX\n} from \"@lukso/lsp-smart-contracts/contracts/LSP6KeyManager/LSP6Constants.sol\";\n\n/**\n *\n* @notice This smart contract is responsible for creating an connecting every\n* LEGO block needed for a working DAO suitable for the user.\n *\n * @author B00ste\n * @title DaoCreator\n * @custom:version 0.92\n */\ncontract DaoCreator {\n\n  /**\n   * @notice Structure for saving user progress in DAO creation.\n   */\n  struct UserProgress {\n    address payable UNIVERSAL_PROFILE;\n    address KEY_MANAGER;\n    address DAO_KEY_MANAGER;\n    address VAULT_KEY_MANAGER;\n\n    // Up to 16 phases for creating a DAO.\n    bytes2 phases;\n  }\n\n  /**\n   * @notice Mapping for storing user progress.\n   */\n  mapping (address => UserProgress) userProgress;\n  \n  /**\n   * @notice Create the Universal Profile for the DAO.\n   */\n  function createUniversalProfile() external {\n    require(\n      (uint16(userProgress[msg.sender].phases)) & (1 << 0) == 0,\n      \"Universal Profile is already initialized.\"\n    );\n    userProgress[msg.sender].UNIVERSAL_PROFILE = payable(new LSP0ERC725Account(address(this)));\n    userProgress[msg.sender].phases = bytes2(uint16(1));\n  }\n\n  /**\n   * @notice Create the Key Manager of the Universal Profile\n   */\n  function createUniversalProfileKeyManager() external {\n    require(\n      (uint16(userProgress[msg.sender].phases)) & (1 << 0) != 0 &&\n      (uint16(userProgress[msg.sender].phases)) & (1 << 1) == 0,\n      \"Universal profile not initialized or Universal Profile Key manager already initialized.\"\n    );\n    userProgress[msg.sender].KEY_MANAGER = address(new LSP6KeyManager(userProgress[msg.sender].UNIVERSAL_PROFILE));\n    userProgress[msg.sender].phases = bytes2(uint16(userProgress[msg.sender].phases) << 1);\n  }\n\n  /**\n   * @notice Create the DAO Key manager.\n   */\n  function createDaoKeyManager() external {\n    require(\n      (uint16(userProgress[msg.sender].phases)) & (1 << 1) != 0 &&\n      (uint16(userProgress[msg.sender].phases)) & (1 << 2) == 0,\n      \"Universal Profile Key Manager not initialized or DAO Key Manager already initialized.\"\n    );\n    userProgress[msg.sender].DAO_KEY_MANAGER = address(new DaoKeyManager());\n    userProgress[msg.sender].phases = bytes2(uint16(userProgress[msg.sender].phases) << 1);\n  }\n\n  /**\n   * @notice Create Vault Key Manager.\n   */\n  function createVaultKeyManager() external {\n    require(\n      (uint16(userProgress[msg.sender].phases)) & (1 << 2) != 0 &&\n      (uint16(userProgress[msg.sender].phases)) & (1 << 3) == 0,\n      \"DAO Key Manager not initialized or Vault Key Manager already initialized.\"\n    );\n    userProgress[msg.sender].VAULT_KEY_MANAGER = address(new VaultKeyManager());\n    userProgress[msg.sender].phases = bytes2(uint16(userProgress[msg.sender].phases) << 1);\n  }\n\n  /**\n   * @notice Give 7FFF permissions to DaoKeyManager and to VaultKeyManager.\n   */\n  function giveMaxPermissionsToDaoAndVault() external {\n    require(\n      (uint16(userProgress[msg.sender].phases)) & (1 << 3) != 0 &&\n      (uint16(userProgress[msg.sender].phases)) & (1 << 4) == 0,\n      \"Vault Key Manager not initialized or permissions already given.\"\n    );\n    bytes32[] memory keys = new bytes32[](7);\n    keys[0] = _LSP6KEY_ADDRESSPERMISSIONS_ARRAY;\n    keys[1] = bytes32(bytes.concat(_LSP6KEY_ADDRESSPERMISSIONS_ARRAY_PREFIX, bytes16(0)));\n    keys[2] = bytes32(bytes.concat(_LSP6KEY_ADDRESSPERMISSIONS_ARRAY_PREFIX, bytes16(uint128(1))));\n    keys[3] = bytes32(bytes.concat(_LSP6KEY_ADDRESSPERMISSIONS_ARRAY_PREFIX, bytes16(uint128(2))));\n    keys[4] = bytes32(bytes.concat(\n      _LSP6KEY_ADDRESSPERMISSIONS_PERMISSIONS_PREFIX,\n      bytes20(userProgress[msg.sender].DAO_KEY_MANAGER)\n    ));\n    keys[5] = bytes32(bytes.concat(\n      _LSP6KEY_ADDRESSPERMISSIONS_PERMISSIONS_PREFIX,\n      bytes20(userProgress[msg.sender].VAULT_KEY_MANAGER)\n    ));\n    keys[6] = bytes32(bytes.concat(\n      _LSP6KEY_ADDRESSPERMISSIONS_PERMISSIONS_PREFIX,\n      bytes20(address(this))\n    ));\n    bytes[] memory values = new bytes[](7);\n    values[0] = bytes.concat(bytes32(uint256(2)));\n    values[1] = bytes.concat(bytes20(userProgress[msg.sender].DAO_KEY_MANAGER));\n    values[2] = bytes.concat(bytes20(userProgress[msg.sender].VAULT_KEY_MANAGER));\n    values[3] = bytes.concat(bytes20(address(this)));\n    values[4] = bytes.concat(bytes32(0x0000000000000000000000000000000000000000000000000000000000007FFF));\n    values[5] = bytes.concat(bytes32(0x0000000000000000000000000000000000000000000000000000000000007FFF));\n    values[6] = bytes.concat(bytes32(0x0000000000000000000000000000000000000000000000000000000000000001));\n\n    LSP0ERC725Account(userProgress[msg.sender].UNIVERSAL_PROFILE).setData(\n      keys, values\n    );\n  }\n\n  /**\n   * @notice transferOwnership() from UNIVERSAL_PROFILE to KEY_MANAGER\n   * and claimOwnership() of UNIVERSAL_PROFILE from KEY_MANAGER.\n   */\n  function transferOwnership() external {\n    require(\n      (uint16(userProgress[msg.sender].phases)) & (1 << 4) != 0 &&\n      (uint16(userProgress[msg.sender].phases)) & (1 << 5) == 0,\n      \"Permissions not given or Ownership already transfered.\"\n    );\n    LSP0ERC725Account(userProgress[msg.sender].UNIVERSAL_PROFILE).transferOwnership(\n      userProgress[msg.sender].KEY_MANAGER\n    );\n    LSP6KeyManager(userProgress[msg.sender].KEY_MANAGER).execute(\n      abi.encodeWithSelector(bytes4(keccak256(\"claimOwnership()\")))\n    );\n  }\n\n}",
  "sourcePath": "/home/b00ste/Projects/universal-profile-governance/contracts/DaoCreator.sol",
  "compiler": {
    "name": "solc",
    "version": "0.8.15+commit.e14f2714.Emscripten.clang"
  },
  "schemaVersion": "3.4.8",
  "updatedAt": "2022-07-25T06:31:38.591Z",
  "devdoc": {
    "author": "B00ste",
    "custom:version": "0.92",
    "kind": "dev",
    "methods": {},
    "title": "DaoCreator",
    "version": 1
  },
  "userdoc": {
    "kind": "user",
    "methods": {
      "createDaoKeyManager()": {
        "notice": "Create the DAO Key manager."
      },
      "createUniversalProfile()": {
        "notice": "Create the Universal Profile for the DAO."
      },
      "createUniversalProfileKeyManager()": {
        "notice": "Create the Key Manager of the Universal Profile"
      },
      "createVaultKeyManager()": {
        "notice": "Create Vault Key Manager."
      },
      "giveMaxPermissionsToDaoAndVault()": {
        "notice": "Give 7FFF permissions to DaoKeyManager and to VaultKeyManager."
      },
      "transferOwnership()": {
        "notice": "transferOwnership() from UNIVERSAL_PROFILE to KEY_MANAGER and claimOwnership() of UNIVERSAL_PROFILE from KEY_MANAGER."
      }
    },
    "notice": "This smart contract is responsible for creating an connecting every LEGO block needed for a working DAO suitable for the user.",
    "version": 1
  }
}