{
  "contractName": "DaoDelegates",
  "abi": [
    {
      "inputs": [
        {
          "internalType": "contract LSP0ERC725Account",
          "name": "_DAO",
          "type": "address"
        },
        {
          "internalType": "contract DaoUtils",
          "name": "_utils",
          "type": "address"
        },
        {
          "internalType": "address",
          "name": "daoAddress",
          "type": "address"
        }
      ],
      "name": "init",
      "outputs": [],
      "stateMutability": "nonpayable",
      "type": "function"
    },
    {
      "inputs": [
        {
          "internalType": "address",
          "name": "delegator",
          "type": "address"
        }
      ],
      "name": "_getDelegateeOfTheDelegator",
      "outputs": [
        {
          "internalType": "address",
          "name": "delegatee",
          "type": "address"
        }
      ],
      "stateMutability": "view",
      "type": "function"
    },
    {
      "inputs": [
        {
          "internalType": "address",
          "name": "delegator",
          "type": "address"
        },
        {
          "internalType": "address",
          "name": "delegatee",
          "type": "address"
        }
      ],
      "name": "_setDelegateeOfTheDelegator",
      "outputs": [],
      "stateMutability": "nonpayable",
      "type": "function"
    },
    {
      "inputs": [
        {
          "internalType": "address",
          "name": "delegatee",
          "type": "address"
        }
      ],
      "name": "_getDelegatorsArrayLength",
      "outputs": [
        {
          "internalType": "uint256",
          "name": "length",
          "type": "uint256"
        }
      ],
      "stateMutability": "view",
      "type": "function"
    },
    {
      "inputs": [
        {
          "internalType": "uint256",
          "name": "length",
          "type": "uint256"
        },
        {
          "internalType": "address",
          "name": "delegatee",
          "type": "address"
        }
      ],
      "name": "_setDelegatorsArrayLength",
      "outputs": [],
      "stateMutability": "nonpayable",
      "type": "function"
    },
    {
      "inputs": [
        {
          "internalType": "address",
          "name": "delegatee",
          "type": "address"
        },
        {
          "internalType": "uint256",
          "name": "index",
          "type": "uint256"
        }
      ],
      "name": "_getDelegatorByIndex",
      "outputs": [
        {
          "internalType": "address",
          "name": "delegator",
          "type": "address"
        }
      ],
      "stateMutability": "view",
      "type": "function"
    },
    {
      "inputs": [
        {
          "internalType": "address",
          "name": "delegator",
          "type": "address"
        },
        {
          "internalType": "address",
          "name": "delegatee",
          "type": "address"
        },
        {
          "internalType": "uint256",
          "name": "index",
          "type": "uint256"
        }
      ],
      "name": "_setDelegatorByIndex",
      "outputs": [],
      "stateMutability": "nonpayable",
      "type": "function"
    }
  ],
  "bytecode": "0x60806040526000600160146101000a81548160ff02191690831515021790555034801561002b57600080fd5b50611c1e8061003b6000396000f3fe608060405234801561001057600080fd5b506004361061007d5760003560e01c806398f351741161005b57806398f35174146100ea578063bae744a51461011a578063bece603a1461014a578063fd3ee5f4146101665761007d565b8063184b9559146100825780631b311a4b1461009e57806361f49787146100ce575b600080fd5b61009c60048036038101906100979190611049565b610182565b005b6100b860048036038101906100b3919061109c565b61030e565b6040516100c591906110d8565b60405180910390f35b6100e860048036038101906100e39190611129565b61041c565b005b61010460048036038101906100ff919061109c565b610633565b6040516101119190611178565b60405180910390f35b610134600480360381019061012f9190611193565b61075e565b60405161014191906110d8565b60405180910390f35b610164600480360381019061015f91906111d3565b61096e565b005b610180600480360381019061017b9190611213565b610b63565b005b600160149054906101000a900460ff16156101d2576040517f08c379a00000000000000000000000000000000000000000000000000000000081526004016101c9906112c3565b60405180910390fd5b600160149054906101000a900460ff1615610222576040517f08c379a000000000000000000000000000000000000000000000000000000000815260040161021990611355565b60405180910390fd5b82600260006101000a81548173ffffffffffffffffffffffffffffffffffffffff021916908373ffffffffffffffffffffffffffffffffffffffff16021790555081600360006101000a81548173ffffffffffffffffffffffffffffffffffffffff021916908373ffffffffffffffffffffffffffffffffffffffff1602179055506102ae8282610e5a565b80600460006101000a81548173ffffffffffffffffffffffffffffffffffffffff021916908373ffffffffffffffffffffffffffffffffffffffff16021790555060018060146101000a81548160ff021916908315150217905550505050565b6000807fe9506e3d2587fc04e328470c13bf1130def14def5c14cb5b71970ff8144e4299600060f01b8460601b60405160200161034d9392919061145c565b604051602081830303815290604052610365906114e0565b9050600260009054906101000a900473ffffffffffffffffffffffffffffffffffffffff1673ffffffffffffffffffffffffffffffffffffffff166354f6127f826040518263ffffffff1660e01b81526004016103c29190611556565b600060405180830381865afa1580156103df573d6000803e3d6000fd5b505050506040513d6000823e3d601f19601f8201168201806040525081019061040891906116db565b61041190611739565b60601c915050919050565b33600160009054906101000a900473ffffffffffffffffffffffffffffffffffffffff1673ffffffffffffffffffffffffffffffffffffffff168173ffffffffffffffffffffffffffffffffffffffff16146104ad576040517f08c379a00000000000000000000000000000000000000000000000000000000081526004016104a4906117ec565b60405180910390fd5b600160149054906101000a900460ff166104fc576040517f08c379a00000000000000000000000000000000000000000000000000000000081526004016104f390611858565b60405180910390fd5b60007f321d588394b2b1ae9eb09d447e72908c29c47484b007463fbbc62f1f467e32ab7fe9506e3d2587fc04e328470c13bf1130def14def5c14cb5b71970ff8144e4299600060f01b8560601b60405160200161055c9493929190611912565b604051602081830303815290604052610574906114e0565b905060008460001b60405160200161058c9190611981565b6040516020818303038152906040529050600260009054906101000a900473ffffffffffffffffffffffffffffffffffffffff1673ffffffffffffffffffffffffffffffffffffffff16637f23690c83836040518363ffffffff1660e01b81526004016105fa9291906119e6565b600060405180830381600087803b15801561061457600080fd5b505af1158015610628573d6000803e3d6000fd5b505050505050505050565b6000600260009054906101000a900473ffffffffffffffffffffffffffffffffffffffff1673ffffffffffffffffffffffffffffffffffffffff166354f6127f7f321d588394b2b1ae9eb09d447e72908c29c47484b007463fbbc62f1f467e32ab7fe9506e3d2587fc04e328470c13bf1130def14def5c14cb5b71970ff8144e4299600060f01b8660601b6040516020016106d19493929190611912565b6040516020818303038152906040526106e9906114e0565b6040518263ffffffff1660e01b81526004016107059190611556565b600060405180830381865afa158015610722573d6000803e3d6000fd5b505050506040513d6000823e3d601f19601f8201168201806040525081019061074b91906116db565b610754906114e0565b60001c9050919050565b600080600360009054906101000a900473ffffffffffffffffffffffffffffffffffffffff1673ffffffffffffffffffffffffffffffffffffffff16634bb5ec327f321d588394b2b1ae9eb09d447e72908c29c47484b007463fbbc62f1f467e32ab7fe9506e3d2587fc04e328470c13bf1130def14def5c14cb5b71970ff8144e4299600060f01b8860601b6040516020016107fd9493929190611912565b604051602081830303815290604052610815906114e0565b6040518263ffffffff1660e01b81526004016108319190611556565b6040805180830381865afa15801561084d573d6000803e3d6000fd5b505050506040513d601f19601f820116820180604052508101906108719190611b24565b60006002811061088457610883611b51565b5b60200201518360801b60405160200161089e929190611ba1565b6040516020818303038152906040526108b6906114e0565b9050600260009054906101000a900473ffffffffffffffffffffffffffffffffffffffff1673ffffffffffffffffffffffffffffffffffffffff166354f6127f826040518263ffffffff1660e01b81526004016109139190611556565b600060405180830381865afa158015610930573d6000803e3d6000fd5b505050506040513d6000823e3d601f19601f8201168201806040525081019061095991906116db565b61096290611739565b60601c91505092915050565b33600160009054906101000a900473ffffffffffffffffffffffffffffffffffffffff1673ffffffffffffffffffffffffffffffffffffffff168173ffffffffffffffffffffffffffffffffffffffff16146109ff576040517f08c379a00000000000000000000000000000000000000000000000000000000081526004016109f6906117ec565b60405180910390fd5b600160149054906101000a900460ff16610a4e576040517f08c379a0000000000000000000000000000000000000000000000000000000008152600401610a4590611858565b60405180910390fd5b60007fe9506e3d2587fc04e328470c13bf1130def14def5c14cb5b71970ff8144e4299600060f01b8560601b604051602001610a8c9392919061145c565b604051602081830303815290604052610aa4906114e0565b905060008360601b604051602001610abc9190611bcd565b6040516020818303038152906040529050600260009054906101000a900473ffffffffffffffffffffffffffffffffffffffff1673ffffffffffffffffffffffffffffffffffffffff16637f23690c83836040518363ffffffff1660e01b8152600401610b2a9291906119e6565b600060405180830381600087803b158015610b4457600080fd5b505af1158015610b58573d6000803e3d6000fd5b505050505050505050565b33600160009054906101000a900473ffffffffffffffffffffffffffffffffffffffff1673ffffffffffffffffffffffffffffffffffffffff168173ffffffffffffffffffffffffffffffffffffffff1614610bf4576040517f08c379a0000000000000000000000000000000000000000000000000000000008152600401610beb906117ec565b60405180910390fd5b600160149054906101000a900460ff16610c43576040517f08c379a0000000000000000000000000000000000000000000000000000000008152600401610c3a90611858565b60405180910390fd5b6000600360009054906101000a900473ffffffffffffffffffffffffffffffffffffffff1673ffffffffffffffffffffffffffffffffffffffff16634bb5ec327f321d588394b2b1ae9eb09d447e72908c29c47484b007463fbbc62f1f467e32ab7fe9506e3d2587fc04e328470c13bf1130def14def5c14cb5b71970ff8144e4299600060f01b8860601b604051602001610ce19493929190611912565b604051602081830303815290604052610cf9906114e0565b6040518263ffffffff1660e01b8152600401610d159190611556565b6040805180830381865afa158015610d31573d6000803e3d6000fd5b505050506040513d601f19601f82011682018060405250810190610d559190611b24565b600060028110610d6857610d67611b51565b5b60200201518360801b604051602001610d82929190611ba1565b604051602081830303815290604052610d9a906114e0565b905060008560601b604051602001610db29190611bcd565b6040516020818303038152906040529050600260009054906101000a900473ffffffffffffffffffffffffffffffffffffffff1673ffffffffffffffffffffffffffffffffffffffff16637f23690c83836040518363ffffffff1660e01b8152600401610e209291906119e6565b600060405180830381600087803b158015610e3a57600080fd5b505af1158015610e4e573d6000803e3d6000fd5b50505050505050505050565b600160149054906101000a900460ff1615610eaa576040517f08c379a0000000000000000000000000000000000000000000000000000000008152600401610ea190611355565b60405180910390fd5b816000806101000a81548173ffffffffffffffffffffffffffffffffffffffff021916908373ffffffffffffffffffffffffffffffffffffffff16021790555080600160006101000a81548173ffffffffffffffffffffffffffffffffffffffff021916908373ffffffffffffffffffffffffffffffffffffffff16021790555060018060146101000a81548160ff0219169083151502179055505050565b6000604051905090565b600080fd5b600080fd5b600073ffffffffffffffffffffffffffffffffffffffff82169050919050565b6000610f8882610f5d565b9050919050565b6000610f9a82610f7d565b9050919050565b610faa81610f8f565b8114610fb557600080fd5b50565b600081359050610fc781610fa1565b92915050565b6000610fd882610f5d565b9050919050565b6000610fea82610fcd565b9050919050565b610ffa81610fdf565b811461100557600080fd5b50565b60008135905061101781610ff1565b92915050565b61102681610fcd565b811461103157600080fd5b50565b6000813590506110438161101d565b92915050565b60008060006060848603121561106257611061610f53565b5b600061107086828701610fb8565b935050602061108186828701611008565b925050604061109286828701611034565b9150509250925092565b6000602082840312156110b2576110b1610f53565b5b60006110c084828501611034565b91505092915050565b6110d281610fcd565b82525050565b60006020820190506110ed60008301846110c9565b92915050565b6000819050919050565b611106816110f3565b811461111157600080fd5b50565b600081359050611123816110fd565b92915050565b600080604083850312156111405761113f610f53565b5b600061114e85828601611114565b925050602061115f85828601611034565b9150509250929050565b611172816110f3565b82525050565b600060208201905061118d6000830184611169565b92915050565b600080604083850312156111aa576111a9610f53565b5b60006111b885828601611034565b92505060206111c985828601611114565b9150509250929050565b600080604083850312156111ea576111e9610f53565b5b60006111f885828601611034565b925050602061120985828601611034565b9150509250929050565b60008060006060848603121561122c5761122b610f53565b5b600061123a86828701611034565b935050602061124b86828701611034565b925050604061125c86828701611114565b9150509250925092565b600082825260208201905092915050565b7f436f6e7472616374732061726520696e697469616c697a65642e000000000000600082015250565b60006112ad601a83611266565b91506112b882611277565b602082019050919050565b600060208201905081810360008301526112dc816112a0565b9050919050565b7f54686520636f6e747261637420697320616c726561647920696e697469616c6960008201527f7a65642e00000000000000000000000000000000000000000000000000000000602082015250565b600061133f602483611266565b915061134a826112e3565b604082019050919050565b6000602082019050818103600083015261136e81611332565b9050919050565b60007fffffffffffffffffffff0000000000000000000000000000000000000000000082169050919050565b6000819050919050565b6113bc6113b782611375565b6113a1565b82525050565b60007fffff00000000000000000000000000000000000000000000000000000000000082169050919050565b6000819050919050565b611409611404826113c2565b6113ee565b82525050565b60007fffffffffffffffffffffffffffffffffffffffff00000000000000000000000082169050919050565b6000819050919050565b6114566114518261140f565b61143b565b82525050565b600061146882866113ab565b600a8201915061147882856113f8565b6002820191506114888284611445565b601482019150819050949350505050565b600081519050919050565b6000819050602082019050919050565b6000819050919050565b60006114ca82516114b4565b80915050919050565b600082821b905092915050565b60006114eb82611499565b826114f5846114a4565b9050611500816114be565b925060208210156115405761153b7fffffffffffffffffffffffffffffffffffffffffffffffffffffffffffffffff836020036008026114d3565b831692505b5050919050565b611550816114b4565b82525050565b600060208201905061156b6000830184611547565b92915050565b600080fd5b600080fd5b6000601f19601f8301169050919050565b7f4e487b7100000000000000000000000000000000000000000000000000000000600052604160045260246000fd5b6115c48261157b565b810181811067ffffffffffffffff821117156115e3576115e261158c565b5b80604052505050565b60006115f6610f49565b905061160282826115bb565b919050565b600067ffffffffffffffff8211156116225761162161158c565b5b61162b8261157b565b9050602081019050919050565b60005b8381101561165657808201518184015260208101905061163b565b83811115611665576000848401525b50505050565b600061167e61167984611607565b6115ec565b90508281526020810184848401111561169a57611699611576565b5b6116a5848285611638565b509392505050565b600082601f8301126116c2576116c1611571565b5b81516116d284826020860161166b565b91505092915050565b6000602082840312156116f1576116f0610f53565b5b600082015167ffffffffffffffff81111561170f5761170e610f58565b5b61171b848285016116ad565b91505092915050565b6000611730825161140f565b80915050919050565b600061174482611499565b8261174e846114a4565b905061175981611724565b92506014821015611799576117947fffffffffffffffffffffffffffffffffffffffff000000000000000000000000836014036008026114d3565b831692505b5050919050565b7f43616c6c6572206973206e6f74207468652044414f2e00000000000000000000600082015250565b60006117d6601683611266565b91506117e1826117a0565b602082019050919050565b60006020820190508181036000830152611805816117c9565b9050919050565b7f436f6e74726163747320617265206e6f7420696e697469616c697a65642e0000600082015250565b6000611842601e83611266565b915061184d8261180c565b602082019050919050565b6000602082019050818103600083015261187181611835565b9050919050565b60007fffffffffffff000000000000000000000000000000000000000000000000000082169050919050565b6000819050919050565b6118bf6118ba82611878565b6118a4565b82525050565b60007fffffffff0000000000000000000000000000000000000000000000000000000082169050919050565b6000819050919050565b61190c611907826118c5565b6118f1565b82525050565b600061191e82876118ae565b60068201915061192e82866118fb565b60048201915061193e82856113f8565b60028201915061194e8284611445565b60148201915081905095945050505050565b6000819050919050565b61197b611976826114b4565b611960565b82525050565b600061198d828461196a565b60208201915081905092915050565b600082825260208201905092915050565b60006119b882611499565b6119c2818561199c565b93506119d2818560208601611638565b6119db8161157b565b840191505092915050565b60006040820190506119fb6000830185611547565b8181036020830152611a0d81846119ad565b90509392505050565b600067ffffffffffffffff821115611a3157611a3061158c565b5b602082029050919050565b600080fd5b60007fffffffffffffffffffffffffffffffff0000000000000000000000000000000082169050919050565b611a7681611a41565b8114611a8157600080fd5b50565b600081519050611a9381611a6d565b92915050565b6000611aac611aa784611a16565b6115ec565b90508060208402830185811115611ac657611ac5611a3c565b5b835b81811015611aef5780611adb8882611a84565b845260208401935050602081019050611ac8565b5050509392505050565b600082601f830112611b0e57611b0d611571565b5b6002611b1b848285611a99565b91505092915050565b600060408284031215611b3a57611b39610f53565b5b6000611b4884828501611af9565b91505092915050565b7f4e487b7100000000000000000000000000000000000000000000000000000000600052603260045260246000fd5b6000819050919050565b611b9b611b9682611a41565b611b80565b82525050565b6000611bad8285611b8a565b601082019150611bbd8284611b8a565b6010820191508190509392505050565b6000611bd98284611445565b6014820191508190509291505056fea2646970667358221220724b2d4a8c0da5b3d48ab27fe58fdce3428b1840552ed7aadba54e1985eb7dda64736f6c634300080f0033",
  "immutableReferences": {},
  "source": "// SPDX-License-Identifier: CC0-1.0\n\npragma solidity ^0.8.0;\n\nimport \"./LSP0ERC725Account.sol\";\nimport \"./Interfaces/DaoPermissionsInterface.sol\";\nimport \"./Utils/AccessControl.sol\";\nimport \"./Utils/DaoUtils.sol\";\n\n/**\n * @author B00ste\n * @title DaoDelegates\n * @custom:version 0.92\n */\ncontract DaoDelegates is AccessControl {\n\n  /**\n   * @notice Instance of the DAO key manager.\n   */\n  LSP0ERC725Account private DAO;\n\n  /**\n   * @notice Instance for the utils of a Universal Profile DAO.\n   */\n  DaoUtils private utils;\n\n  /**\n   * @notice Instance for the DAO permissions contract.\n   */\n  DaoPermissionsInterface private permissions;\n\n  /**\n   * @notice Initializing the contract.\n   */\n  function init(LSP0ERC725Account _DAO, DaoUtils _utils, address daoAddress) external isNotInitialized() {\n    require(!initialized, \"The contract is already initialized.\");\n    DAO = _DAO;\n    utils = _utils;\n    initAccessControl(_utils, daoAddress);\n    permissions = DaoPermissionsInterface(daoAddress);\n    initialized = true;\n  }\n\n  // --- GETTERS & SETTERS\n\n  /**\n   * @notice Get the delgatee of the delegator.\n   *\n   * @param delegator Address of the delegator..\n   */\n  function _getDelegateeOfTheDelegator(address delegator) public view returns(address delegatee) {\n    bytes32 delegateeOfTheDelegatorKey = bytes32(bytes.concat(\n      bytes10(keccak256(\"Delegatee\")),\n      bytes2(0),\n      bytes20(delegator)\n    ));\n    delegatee = address(bytes20(DAO.getData(delegateeOfTheDelegatorKey)));\n  }\n\n  /**\n   * @notice Set the delgatee of the delegator.\n   *\n   * @param delegator Address of the delegator.\n   * @param delegatee Address of the delegatee.\n   */\n  function _setDelegateeOfTheDelegator(address delegator, address delegatee) external isDao(msg.sender) isInitialized() {\n    bytes32 delegateeOfTheDelegatorKey = bytes32(bytes.concat(\n      bytes10(keccak256(\"Delegatee\")),\n      bytes2(0),\n      bytes20(delegator)\n    ));\n    bytes memory delegateeOfTheDelegatorValue = bytes.concat(bytes20(delegatee)); \n    DAO.setData(delegateeOfTheDelegatorKey, delegateeOfTheDelegatorValue);\n  }\n\n  /**\n   * @notice Get the length of the array of addresses that delegated the votes to a delegatee.\n   *\n   * @param delegatee Address of the delegatee.\n   */\n  function _getDelegatorsArrayLength(address delegatee) public view returns(uint256 length) {\n    length = uint256(bytes32(DAO.getData(      \n      bytes32(bytes.concat(\n        bytes6(keccak256(\"VotesDelegatedArray[]\")),\n        bytes4(keccak256(\"Delegatee\")),\n        bytes2(0),\n        bytes20(delegatee)\n      ))\n    )));\n  }\n\n  /**\n   * @notice Set the length of the array of addresses that delegated the votes to a delegatee.\n   *\n   * @param length the length of the array of addresses that delegated the votes to a delegatee.\n   * @param delegatee Address of the delegatee.\n   */\n  function _setDelegatorsArrayLength(uint256 length, address delegatee) external isDao(msg.sender) isInitialized() {\n    bytes32 delegateesArrayOfDeleggatorsKey = bytes32(bytes.concat(\n      bytes6(keccak256(\"VotesDelegatedArray[]\")),\n      bytes4(keccak256(\"Delegatee\")),\n      bytes2(0),\n      bytes20(delegatee)\n    ));\n    bytes memory newLength = bytes.concat(bytes32(length));\n    DAO.setData(delegateesArrayOfDeleggatorsKey, newLength);\n  }\n\n  /**\n   * @notice Get the delegator of the delagtee by index.\n   *\n   * @param delegatee Address of the delegatee.\n   * @param index A number of the array.\n   */\n  function _getDelegatorByIndex(address delegatee, uint256 index) public view returns(address delegator) {\n    bytes32 delegateeAndIndexKey = bytes32(bytes.concat(\n      utils._bytes32ToTwoHalfs(\n        bytes32(bytes.concat(\n          bytes6(keccak256(\"VotesDelegatedArray[]\")),\n          bytes4(keccak256(\"Delegatee\")),\n          bytes2(0),\n          bytes20(delegatee)\n        ))\n      )[0],\n      bytes16(uint128(index))\n    ));\n    delegator = address(bytes20(DAO.getData(delegateeAndIndexKey)));\n  }\n\n  /**\n   * @notice Set the delegator of the delagtee by index.\n   *\n   * @param delegator Address of the delegator.\n   * @param delegatee Address of the delegatee.\n   * @param index A number of the array.\n   */\n  function _setDelegatorByIndex(address delegator, address delegatee, uint256 index) external isDao(msg.sender) isInitialized() {\n    bytes32 delegateeAndIndexKey = bytes32(bytes.concat(\n      utils._bytes32ToTwoHalfs(\n        bytes32(bytes.concat(\n          bytes6(keccak256(\"VotesDelegatedArray[]\")),\n          bytes4(keccak256(\"Delegatee\")),\n          bytes2(0),\n          bytes20(delegatee)\n        ))\n      )[0],\n      bytes16(uint128(index))\n    ));\n    bytes memory delegateeAndIndexValue = bytes.concat(bytes20(delegator));\n    DAO.setData(delegateeAndIndexKey, delegateeAndIndexValue);\n  }\n  \n}",
  "sourcePath": "/home/b00ste/Projects/universal-profile-governance/contracts/UPDao/DaoDelegates.sol",
  "compiler": {
    "name": "solc",
    "version": "0.8.15+commit.e14f2714.Emscripten.clang"
  },
  "schemaVersion": "3.4.8",
  "updatedAt": "2022-07-22T23:29:03.980Z",
  "devdoc": {
    "author": "B00ste",
    "custom:version": "0.92",
    "kind": "dev",
    "methods": {
      "_getDelegateeOfTheDelegator(address)": {
        "params": {
          "delegator": "Address of the delegator.."
        }
      },
      "_getDelegatorByIndex(address,uint256)": {
        "params": {
          "delegatee": "Address of the delegatee.",
          "index": "A number of the array."
        }
      },
      "_getDelegatorsArrayLength(address)": {
        "params": {
          "delegatee": "Address of the delegatee."
        }
      },
      "_setDelegateeOfTheDelegator(address,address)": {
        "params": {
          "delegatee": "Address of the delegatee.",
          "delegator": "Address of the delegator."
        }
      },
      "_setDelegatorByIndex(address,address,uint256)": {
        "params": {
          "delegatee": "Address of the delegatee.",
          "delegator": "Address of the delegator.",
          "index": "A number of the array."
        }
      },
      "_setDelegatorsArrayLength(uint256,address)": {
        "params": {
          "delegatee": "Address of the delegatee.",
          "length": "the length of the array of addresses that delegated the votes to a delegatee."
        }
      }
    },
    "title": "DaoDelegates",
    "version": 1
  },
  "userdoc": {
    "kind": "user",
    "methods": {
      "_getDelegateeOfTheDelegator(address)": {
        "notice": "Get the delgatee of the delegator."
      },
      "_getDelegatorByIndex(address,uint256)": {
        "notice": "Get the delegator of the delagtee by index."
      },
      "_getDelegatorsArrayLength(address)": {
        "notice": "Get the length of the array of addresses that delegated the votes to a delegatee."
      },
      "_setDelegateeOfTheDelegator(address,address)": {
        "notice": "Set the delgatee of the delegator."
      },
      "_setDelegatorByIndex(address,address,uint256)": {
        "notice": "Set the delegator of the delagtee by index."
      },
      "_setDelegatorsArrayLength(uint256,address)": {
        "notice": "Set the length of the array of addresses that delegated the votes to a delegatee."
      },
      "init(address,address,address)": {
        "notice": "Initializing the contract."
      }
    },
    "version": 1
  }
}