{
  "contractName": "DaoDelegates",
  "abi": [
    {
      "inputs": [
        {
          "internalType": "contract LSP0ERC725Account",
          "name": "_DAO",
          "type": "address"
        },
        {
          "internalType": "contract DaoUtils",
          "name": "_utils",
          "type": "address"
        }
      ],
      "stateMutability": "nonpayable",
      "type": "constructor"
    },
    {
      "inputs": [
        {
          "internalType": "address",
          "name": "delegator",
          "type": "address"
        }
      ],
      "name": "_getDelegateeOfTheDelegator",
      "outputs": [
        {
          "internalType": "address",
          "name": "delegatee",
          "type": "address"
        }
      ],
      "stateMutability": "view",
      "type": "function"
    },
    {
      "inputs": [
        {
          "internalType": "address",
          "name": "delegatee",
          "type": "address"
        }
      ],
      "name": "_getDelegatorsArrayLength",
      "outputs": [
        {
          "internalType": "uint256",
          "name": "length",
          "type": "uint256"
        }
      ],
      "stateMutability": "view",
      "type": "function"
    },
    {
      "inputs": [
        {
          "internalType": "address",
          "name": "delegatee",
          "type": "address"
        },
        {
          "internalType": "uint256",
          "name": "index",
          "type": "uint256"
        }
      ],
      "name": "_getDelegatorByIndex",
      "outputs": [
        {
          "internalType": "address",
          "name": "delegator",
          "type": "address"
        }
      ],
      "stateMutability": "view",
      "type": "function"
    }
  ],
  "bytecode": "0x60806040523480156200001157600080fd5b5060405162000f7138038062000f71833981810160405281019062000037919062000197565b816000806101000a81548173ffffffffffffffffffffffffffffffffffffffff021916908373ffffffffffffffffffffffffffffffffffffffff16021790555080600160006101000a81548173ffffffffffffffffffffffffffffffffffffffff021916908373ffffffffffffffffffffffffffffffffffffffff1602179055505050620001de565b600080fd5b600073ffffffffffffffffffffffffffffffffffffffff82169050919050565b6000620000f282620000c5565b9050919050565b60006200010682620000e5565b9050919050565b6200011881620000f9565b81146200012457600080fd5b50565b60008151905062000138816200010d565b92915050565b60006200014b82620000c5565b9050919050565b60006200015f826200013e565b9050919050565b620001718162000152565b81146200017d57600080fd5b50565b600081519050620001918162000166565b92915050565b60008060408385031215620001b157620001b0620000c0565b5b6000620001c18582860162000127565b9250506020620001d48582860162000180565b9150509250929050565b610d8380620001ee6000396000f3fe608060405234801561001057600080fd5b50600436106100415760003560e01c80631b311a4b1461004657806398f3517414610076578063bae744a5146100a6575b600080fd5b610060600480360381019061005b919061058c565b6100d6565b60405161006d91906105c8565b60405180910390f35b610090600480360381019061008b919061058c565b6101e2565b60405161009d91906105fc565b60405180910390f35b6100c060048036038101906100bb9190610643565b61030c565b6040516100cd91906105c8565b60405180910390f35b6000807fe9506e3d2587fc04e328470c13bf1130def14def5c14cb5b71970ff8144e4299600060f01b8460601b6040516020016101159392919061076a565b60405160208183030381529060405261012d906107ee565b905060008054906101000a900473ffffffffffffffffffffffffffffffffffffffff1673ffffffffffffffffffffffffffffffffffffffff166354f6127f826040518263ffffffff1660e01b81526004016101889190610864565b600060405180830381865afa1580156101a5573d6000803e3d6000fd5b505050506040513d6000823e3d601f19601f820116820180604052508101906101ce91906109e9565b6101d790610a47565b60601c915050919050565b60008060009054906101000a900473ffffffffffffffffffffffffffffffffffffffff1673ffffffffffffffffffffffffffffffffffffffff166354f6127f7f321d588394b2b1ae9eb09d447e72908c29c47484b007463fbbc62f1f467e32ab7fe9506e3d2587fc04e328470c13bf1130def14def5c14cb5b71970ff8144e4299600060f01b8660601b60405160200161027f9493929190610b48565b604051602081830303815290604052610297906107ee565b6040518263ffffffff1660e01b81526004016102b39190610864565b600060405180830381865afa1580156102d0573d6000803e3d6000fd5b505050506040513d6000823e3d601f19601f820116820180604052508101906102f991906109e9565b610302906107ee565b60001c9050919050565b600080600160009054906101000a900473ffffffffffffffffffffffffffffffffffffffff1673ffffffffffffffffffffffffffffffffffffffff16634bb5ec327f321d588394b2b1ae9eb09d447e72908c29c47484b007463fbbc62f1f467e32ab7fe9506e3d2587fc04e328470c13bf1130def14def5c14cb5b71970ff8144e4299600060f01b8860601b6040516020016103ab9493929190610b48565b6040516020818303038152906040526103c3906107ee565b6040518263ffffffff1660e01b81526004016103df9190610864565b6040805180830381865afa1580156103fb573d6000803e3d6000fd5b505050506040513d601f19601f8201168201806040525081019061041f9190610ca4565b60006002811061043257610431610cd1565b5b60200201518360801b60405160200161044c929190610d21565b604051602081830303815290604052610464906107ee565b905060008054906101000a900473ffffffffffffffffffffffffffffffffffffffff1673ffffffffffffffffffffffffffffffffffffffff166354f6127f826040518263ffffffff1660e01b81526004016104bf9190610864565b600060405180830381865afa1580156104dc573d6000803e3d6000fd5b505050506040513d6000823e3d601f19601f8201168201806040525081019061050591906109e9565b61050e90610a47565b60601c91505092915050565b6000604051905090565b600080fd5b600080fd5b600073ffffffffffffffffffffffffffffffffffffffff82169050919050565b60006105598261052e565b9050919050565b6105698161054e565b811461057457600080fd5b50565b60008135905061058681610560565b92915050565b6000602082840312156105a2576105a1610524565b5b60006105b084828501610577565b91505092915050565b6105c28161054e565b82525050565b60006020820190506105dd60008301846105b9565b92915050565b6000819050919050565b6105f6816105e3565b82525050565b600060208201905061061160008301846105ed565b92915050565b610620816105e3565b811461062b57600080fd5b50565b60008135905061063d81610617565b92915050565b6000806040838503121561065a57610659610524565b5b600061066885828601610577565b92505060206106798582860161062e565b9150509250929050565b60007fffffffffffffffffffff0000000000000000000000000000000000000000000082169050919050565b6000819050919050565b6106ca6106c582610683565b6106af565b82525050565b60007fffff00000000000000000000000000000000000000000000000000000000000082169050919050565b6000819050919050565b610717610712826106d0565b6106fc565b82525050565b60007fffffffffffffffffffffffffffffffffffffffff00000000000000000000000082169050919050565b6000819050919050565b61076461075f8261071d565b610749565b82525050565b600061077682866106b9565b600a820191506107868285610706565b6002820191506107968284610753565b601482019150819050949350505050565b600081519050919050565b6000819050602082019050919050565b6000819050919050565b60006107d882516107c2565b80915050919050565b600082821b905092915050565b60006107f9826107a7565b82610803846107b2565b905061080e816107cc565b9250602082101561084e576108497fffffffffffffffffffffffffffffffffffffffffffffffffffffffffffffffff836020036008026107e1565b831692505b5050919050565b61085e816107c2565b82525050565b60006020820190506108796000830184610855565b92915050565b600080fd5b600080fd5b6000601f19601f8301169050919050565b7f4e487b7100000000000000000000000000000000000000000000000000000000600052604160045260246000fd5b6108d282610889565b810181811067ffffffffffffffff821117156108f1576108f061089a565b5b80604052505050565b600061090461051a565b905061091082826108c9565b919050565b600067ffffffffffffffff8211156109305761092f61089a565b5b61093982610889565b9050602081019050919050565b60005b83811015610964578082015181840152602081019050610949565b83811115610973576000848401525b50505050565b600061098c61098784610915565b6108fa565b9050828152602081018484840111156109a8576109a7610884565b5b6109b3848285610946565b509392505050565b600082601f8301126109d0576109cf61087f565b5b81516109e0848260208601610979565b91505092915050565b6000602082840312156109ff576109fe610524565b5b600082015167ffffffffffffffff811115610a1d57610a1c610529565b5b610a29848285016109bb565b91505092915050565b6000610a3e825161071d565b80915050919050565b6000610a52826107a7565b82610a5c846107b2565b9050610a6781610a32565b92506014821015610aa757610aa27fffffffffffffffffffffffffffffffffffffffff000000000000000000000000836014036008026107e1565b831692505b5050919050565b60007fffffffffffff000000000000000000000000000000000000000000000000000082169050919050565b6000819050919050565b610af5610af082610aae565b610ada565b82525050565b60007fffffffff0000000000000000000000000000000000000000000000000000000082169050919050565b6000819050919050565b610b42610b3d82610afb565b610b27565b82525050565b6000610b548287610ae4565b600682019150610b648286610b31565b600482019150610b748285610706565b600282019150610b848284610753565b60148201915081905095945050505050565b600067ffffffffffffffff821115610bb157610bb061089a565b5b602082029050919050565b600080fd5b60007fffffffffffffffffffffffffffffffff0000000000000000000000000000000082169050919050565b610bf681610bc1565b8114610c0157600080fd5b50565b600081519050610c1381610bed565b92915050565b6000610c2c610c2784610b96565b6108fa565b90508060208402830185811115610c4657610c45610bbc565b5b835b81811015610c6f5780610c5b8882610c04565b845260208401935050602081019050610c48565b5050509392505050565b600082601f830112610c8e57610c8d61087f565b5b6002610c9b848285610c19565b91505092915050565b600060408284031215610cba57610cb9610524565b5b6000610cc884828501610c79565b91505092915050565b7f4e487b7100000000000000000000000000000000000000000000000000000000600052603260045260246000fd5b6000819050919050565b610d1b610d1682610bc1565b610d00565b82525050565b6000610d2d8285610d0a565b601082019150610d3d8284610d0a565b601082019150819050939250505056fea2646970667358221220e70746b1dc729485be6c3daea7a78d543daebc54f51d28186af305884c5d2fcc64736f6c634300080f0033",
  "immutableReferences": {},
  "source": "// SPDX-License-Identifier: CC0-1.0\n\npragma solidity ^0.8.0;\n\nimport \"@lukso/lsp-smart-contracts/contracts/LSP0ERC725Account/LSP0ERC725Account.sol\";\nimport \"./Interfaces/DaoPermissionsInterface.sol\";\nimport \"./DaoUtils.sol\";\n\n/**\n * @author B00ste\n * @title DaoDelegates\n * @custom:version 0.91\n */\ncontract DaoDelegates {\n\n  /**\n   * @notice Instance of the DAO key manager.\n   */\n  LSP0ERC725Account private DAO;\n\n  /**\n   * @notice Instance for the utils of a Universal Profile DAO.\n   */\n  DaoUtils private utils;\n\n  /**\n   * @notice Instance for the DAO permissions contract.\n   */\n  DaoPermissionsInterface private permissions;\n\n  constructor(LSP0ERC725Account _DAO, DaoUtils _utils) {\n    DAO = _DAO;\n    utils = _utils;\n  }\n\n  // --- MODIFIERS\n\n  /**\n   * @notice Verifies that a Universal Profile did not delegate his vote.\n   */ \n  modifier didNotDelegate(address universalProfileAddress) {\n    address delegatee = _getDelegateeOfTheDelegator(universalProfileAddress);\n    require(\n      universalProfileAddress == delegatee || bytes20(universalProfileAddress) == bytes20(0),\n      \"User delegated his votes.\"\n    );\n    _;\n  }\n\n  // --- GETTERS & SETTERS\n\n  /**\n   * @notice Get the delgatee of the delegator.\n   *\n   * @param delegator Address of the delegator..\n   */\n  function _getDelegateeOfTheDelegator(address delegator) public view returns(address delegatee) {\n    bytes32 delegateeOfTheDelegatorKey = bytes32(bytes.concat(\n      bytes10(keccak256(\"Delegatee\")),\n      bytes2(0),\n      bytes20(delegator)\n    ));\n    delegatee = address(bytes20(DAO.getData(delegateeOfTheDelegatorKey)));\n  }\n\n  /**\n   * @notice Set the delgatee of the delegator.\n   *\n   * @param delegator Address of the delegator.\n   * @param delegatee Address of the delegatee.\n   */\n  function _setDelegateeOfTheDelegator(address delegator, address delegatee) internal {\n    bytes32 delegateeOfTheDelegatorKey = bytes32(bytes.concat(\n      bytes10(keccak256(\"Delegatee\")),\n      bytes2(0),\n      bytes20(delegator)\n    ));\n    bytes memory delegateeOfTheDelegatorValue = bytes.concat(bytes20(delegatee)); \n    DAO.setData(delegateeOfTheDelegatorKey, delegateeOfTheDelegatorValue);\n  }\n\n  /**\n   * @notice Get the length of the array of addresses that delegated the votes to a delegatee.\n   *\n   * @param delegatee Address of the delegatee.\n   */\n  function _getDelegatorsArrayLength(address delegatee) public view returns(uint256 length) {\n    length = uint256(bytes32(DAO.getData(      \n      bytes32(bytes.concat(\n        bytes6(keccak256(\"VotesDelegatedArray[]\")),\n        bytes4(keccak256(\"Delegatee\")),\n        bytes2(0),\n        bytes20(delegatee)\n      ))\n    )));\n  }\n\n  /**\n   * @notice Set the length of the array of addresses that delegated the votes to a delegatee.\n   *\n   * @param length the length of the array of addresses that delegated the votes to a delegatee.\n   * @param delegatee Address of the delegatee.\n   */\n  function _setDelegatorsArrayLength(uint256 length, address delegatee) internal {\n    bytes32 delegateesArrayOfDeleggatorsKey = bytes32(bytes.concat(\n      bytes6(keccak256(\"VotesDelegatedArray[]\")),\n      bytes4(keccak256(\"Delegatee\")),\n      bytes2(0),\n      bytes20(delegatee)\n    ));\n    bytes memory newLength = bytes.concat(bytes32(length));\n    DAO.setData(delegateesArrayOfDeleggatorsKey, newLength);\n  }\n\n  /**\n   * @notice Get the delegator of the delagtee by index.\n   *\n   * @param delegatee Address of the delegatee.\n   * @param index A number of the array.\n   */\n  function _getDelegatorByIndex(address delegatee, uint256 index) public view returns(address delegator) {\n    bytes32 delegateeAndIndexKey = bytes32(bytes.concat(\n      utils._bytes32ToTwoHalfs(\n        bytes32(bytes.concat(\n          bytes6(keccak256(\"VotesDelegatedArray[]\")),\n          bytes4(keccak256(\"Delegatee\")),\n          bytes2(0),\n          bytes20(delegatee)\n        ))\n      )[0],\n      bytes16(uint128(index))\n    ));\n    delegator = address(bytes20(DAO.getData(delegateeAndIndexKey)));\n  }\n\n  /**\n   * @notice Set the delegator of the delagtee by index.\n   *\n   * @param delegator Address of the delegator.\n   * @param delegatee Address of the delegatee.\n   * @param index A number of the array.\n   */\n  function _setDelegatorByIndex(address delegator, address delegatee, uint256 index) internal {\n    bytes32 delegateeAndIndexKey = bytes32(bytes.concat(\n      utils._bytes32ToTwoHalfs(\n        bytes32(bytes.concat(\n          bytes6(keccak256(\"VotesDelegatedArray[]\")),\n          bytes4(keccak256(\"Delegatee\")),\n          bytes2(0),\n          bytes20(delegatee)\n        ))\n      )[0],\n      bytes16(uint128(index))\n    ));\n    bytes memory delegateeAndIndexValue = bytes.concat(bytes20(delegator));\n    DAO.setData(delegateeAndIndexKey, delegateeAndIndexValue);\n  }\n  \n}",
  "sourcePath": "/home/b00ste/Projects/universal-profile-governance/contracts/UPDao/DaoDelegates.sol",
  "compiler": {
    "name": "solc",
    "version": "0.8.15+commit.e14f2714.Emscripten.clang"
  },
  "schemaVersion": "3.4.8",
  "updatedAt": "2022-07-21T08:10:15.130Z",
  "devdoc": {
    "author": "B00ste",
    "custom:version": "0.91",
    "kind": "dev",
    "methods": {
      "_getDelegateeOfTheDelegator(address)": {
        "params": {
          "delegator": "Address of the delegator.."
        }
      },
      "_getDelegatorByIndex(address,uint256)": {
        "params": {
          "delegatee": "Address of the delegatee.",
          "index": "A number of the array."
        }
      },
      "_getDelegatorsArrayLength(address)": {
        "params": {
          "delegatee": "Address of the delegatee."
        }
      }
    },
    "title": "DaoDelegates",
    "version": 1
  },
  "userdoc": {
    "kind": "user",
    "methods": {
      "_getDelegateeOfTheDelegator(address)": {
        "notice": "Get the delgatee of the delegator."
      },
      "_getDelegatorByIndex(address,uint256)": {
        "notice": "Get the delegator of the delagtee by index."
      },
      "_getDelegatorsArrayLength(address)": {
        "notice": "Get the length of the array of addresses that delegated the votes to a delegatee."
      }
    },
    "version": 1
  }
}