{
  "contractName": "DaoKeyManager",
  "abi": [
    {
      "inputs": [
        {
          "internalType": "address payable",
          "name": "_UNIVERSAL_PROFILE",
          "type": "address"
        },
        {
          "internalType": "address",
          "name": "_KEY_MANAGER",
          "type": "address"
        }
      ],
      "stateMutability": "nonpayable",
      "type": "constructor"
    },
    {
      "inputs": [
        {
          "internalType": "bytes2",
          "name": "errorNumber",
          "type": "bytes2"
        }
      ],
      "name": "ErrorWithNumber",
      "type": "error"
    },
    {
      "inputs": [
        {
          "internalType": "address",
          "name": "from",
          "type": "address"
        },
        {
          "internalType": "string",
          "name": "permission",
          "type": "string"
        }
      ],
      "name": "NotAuthorised",
      "type": "error"
    },
    {
      "inputs": [
        {
          "internalType": "string",
          "name": "title",
          "type": "string"
        },
        {
          "internalType": "string",
          "name": "description",
          "type": "string"
        },
        {
          "internalType": "uint8",
          "name": "majority",
          "type": "uint8"
        },
        {
          "internalType": "uint8",
          "name": "participationRate",
          "type": "uint8"
        },
        {
          "internalType": "uint48",
          "name": "votingDelay",
          "type": "uint48"
        },
        {
          "internalType": "uint48",
          "name": "votingPeriod",
          "type": "uint48"
        },
        {
          "internalType": "bytes1",
          "name": "tokenGated",
          "type": "bytes1"
        }
      ],
      "name": "initialize",
      "outputs": [],
      "stateMutability": "nonpayable",
      "type": "function"
    },
    {
      "inputs": [
        {
          "internalType": "address",
          "name": "_to",
          "type": "address"
        },
        {
          "internalType": "bytes32[]",
          "name": "_permissions",
          "type": "bytes32[]"
        }
      ],
      "name": "togglePermissions",
      "outputs": [],
      "stateMutability": "nonpayable",
      "type": "function"
    },
    {
      "inputs": [
        {
          "internalType": "address",
          "name": "delegatee",
          "type": "address"
        }
      ],
      "name": "delegate",
      "outputs": [],
      "stateMutability": "nonpayable",
      "type": "function"
    },
    {
      "inputs": [
        {
          "internalType": "string",
          "name": "title",
          "type": "string"
        },
        {
          "internalType": "string",
          "name": "description",
          "type": "string"
        },
        {
          "internalType": "address[]",
          "name": "targets",
          "type": "address[]"
        },
        {
          "internalType": "bytes[]",
          "name": "datas",
          "type": "bytes[]"
        },
        {
          "internalType": "uint8",
          "name": "choices",
          "type": "uint8"
        },
        {
          "internalType": "uint8",
          "name": "choicesPerVote",
          "type": "uint8"
        }
      ],
      "name": "createProposal",
      "outputs": [],
      "stateMutability": "nonpayable",
      "type": "function"
    },
    {
      "inputs": [
        {
          "internalType": "bytes10",
          "name": "proposalSignature",
          "type": "bytes10"
        }
      ],
      "name": "executeProposal",
      "outputs": [
        {
          "internalType": "bool",
          "name": "success",
          "type": "bool"
        },
        {
          "internalType": "bytes",
          "name": "res",
          "type": "bytes"
        }
      ],
      "stateMutability": "nonpayable",
      "type": "function"
    },
    {
      "inputs": [
        {
          "internalType": "bytes10",
          "name": "proposalSignature",
          "type": "bytes10"
        },
        {
          "internalType": "bytes30",
          "name": "voteDescription",
          "type": "bytes30"
        },
        {
          "internalType": "uint8[]",
          "name": "choicesArray",
          "type": "uint8[]"
        }
      ],
      "name": "vote",
      "outputs": [],
      "stateMutability": "nonpayable",
      "type": "function"
    }
  ],
  "bytecode": "0x60806040523480156200001157600080fd5b5060405162005031380380620050318339818101604052810190620000379190620001b0565b33600260006101000a81548173ffffffffffffffffffffffffffffffffffffffff021916908373ffffffffffffffffffffffffffffffffffffffff160217905550816000806101000a81548173ffffffffffffffffffffffffffffffffffffffff021916908373ffffffffffffffffffffffffffffffffffffffff16021790555080600160006101000a81548173ffffffffffffffffffffffffffffffffffffffff021916908373ffffffffffffffffffffffffffffffffffffffff1602179055505050620001f7565b600080fd5b600073ffffffffffffffffffffffffffffffffffffffff82169050919050565b6000620001338262000106565b9050919050565b620001458162000126565b81146200015157600080fd5b50565b60008151905062000165816200013a565b92915050565b6000620001788262000106565b9050919050565b6200018a816200016b565b81146200019657600080fd5b50565b600081519050620001aa816200017f565b92915050565b60008060408385031215620001ca57620001c962000101565b5b6000620001da8582860162000154565b9250506020620001ed8582860162000199565b9150509250929050565b614e2a80620002076000396000f3fe608060405234801561001057600080fd5b50600436106100625760003560e01c806316cad267146100675780631c8734cf146100835780635c19a95c1461009f5780635c9cafcf146100bb578063760285e9146100ec578063bb26d08c14610108575b600080fd5b610081600480360381019061007c9190613339565b610124565b005b61009d6004803603810190610098919061356f565b610597565b005b6100b960048036038101906100b491906135cb565b6107f0565b005b6100d560048036038101906100d09190613650565b610c51565b6040516100e3929190613720565b60405180910390f35b61010660048036038101906101019190613995565b611d55565b005b610122600480360381019061011d9190613bad565b61268d565b005b600260009054906101000a900473ffffffffffffffffffffffffffffffffffffffff1673ffffffffffffffffffffffffffffffffffffffff163373ffffffffffffffffffffffffffffffffffffffff161461017e57600080fd5b6000600767ffffffffffffffff81111561019b5761019a61313f565b5b6040519080825280602002602001820160405280156101c95781602001602082028036833780820191505090505b5090507f3f82a2b5852cbedcda3d9062384397479ac9a00dae9991874d842bec7aab98ce60001b8160008151811061020457610203613c1c565b5b6020026020010181815250507f95e794640ff3efd16bfe738f1a9bf2886d166af549121f57d6e14af6b513f45d60001b8160018151811061024857610247613c1c565b5b6020026020010181815250507fbc776f168e7b9c60bb2a7180950facd372cd90c841732d963c31a93ff9f8c12760001b8160028151811061028c5761028b613c1c565b5b6020026020010181815250507ff89f507ecd9cb7646ce1514ec6ab90d695dac9314c3771f451fd90148a3335a960001b816003815181106102d0576102cf613c1c565b5b6020026020010181815250507f5bd05fa174be6a4aa4a8222f8837a27a381de14e7797cf7945df58b0626e6c3d60001b8160048151811061031457610313613c1c565b5b6020026020010181815250507fd08ca3a83d59467dd8ba57e940549874ea8310a1ebfb4396959235b00035d77760001b8160058151811061035857610357613c1c565b5b6020026020010181815250507fa45b1e711ab5d2d7654c92da78c9148c51fb0a58b116afda9fbf612c88e9680d60001b8160068151811061039c5761039b613c1c565b5b6020026020010181815250506000600767ffffffffffffffff8111156103c5576103c461313f565b5b6040519080825280602002602001820160405280156103f857816020015b60608152602001906001900390816103e35790505b50905088816000815181106104105761040f613c1c565b5b602002602001018190525087816001815181106104305761042f613c1c565b5b60200260200101819052508660f81b60405160200161044f9190613c6c565b6040516020818303038152906040528160028151811061047257610471613c1c565b5b60200260200101819052508560f81b6040516020016104919190613c6c565b604051602081830303815290604052816003815181106104b4576104b3613c1c565b5b60200260200101819052508460d01b6040516020016104d39190613cd4565b604051602081830303815290604052816004815181106104f6576104f5613c1c565b5b60200260200101819052508360d01b6040516020016105159190613cd4565b6040516020818303038152906040528160058151811061053857610537613c1c565b5b6020026020010181905250826040516020016105549190613c6c565b6040516020818303038152906040528160068151811061057757610576613c1c565b5b602002602001018190525061058c8282612bea565b505050505050505050565b6105db33608060001b6040518060400160405280600681526020017f4d41535445520000000000000000000000000000000000000000000000000000815250612eb7565b60006105e683612f15565b905060005b82518160ff1610156106a1576000801b838260ff168151811061061157610610613c1c565b5b602002602001015183161461065957828160ff168151811061063657610635613c1c565b5b602002602001015160001c8260001c61064f9190613d28565b60001b915061068e565b828160ff168151811061066f5761066e613c1c565b5b602002602001015160001c8260001c6106889190613d5c565b60001b91505b808061069990613db2565b9150506105eb565b506000600167ffffffffffffffff8111156106bf576106be61313f565b5b6040519080825280602002602001820160405280156106ed5781602001602082028036833780820191505090505b5090506b4b80742de2bfb3cc0e49000060a01b8460601b604051602001610715929190613e75565b60405160208183030381529060405261072d90613ed3565b8160008151811061074157610740613c1c565b5b6020026020010181815250506000600167ffffffffffffffff81111561076a5761076961313f565b5b60405190808252806020026020018201604052801561079d57816020015b60608152602001906001900390816107885790505b509050826040516020016107b19190613f5b565b604051602081830303815290604052816000815181106107d4576107d3613c1c565b5b60200260200101819052506107e98282612bea565b5050505050565b61083433600860001b6040518060400160405280600c81526020017f53454e4444454c45474154450000000000000000000000000000000000000000815250612eb7565b61087881601060001b6040518060400160405280600f81526020017f5245434945564544454c45474154450000000000000000000000000000000000815250612eb7565b60006bc3f797d5c8ae536b82a6000060a01b8260601b60405160200161089f929190613e75565b6040516020818303038152906040526108b790613ed3565b905060008060009054906101000a900473ffffffffffffffffffffffffffffffffffffffff1673ffffffffffffffffffffffffffffffffffffffff166354f6127f836040518263ffffffff1660e01b81526004016109159190613f85565b600060405180830381865afa158015610932573d6000803e3d6000fd5b505050506040513d6000823e3d601f19601f8201168201806040525081019061095b9190614010565b6109649061409a565b60801c90506000600267ffffffffffffffff8111156109865761098561313f565b5b6040519080825280602002602001820160405280156109b45781602001602082028036833780820191505090505b5090506109c083613003565b6000600281106109d3576109d2613c1c565b5b60200201518260801b6040516020016109ed929190614122565b604051602081830303815290604052610a0590613ed3565b81600081518110610a1957610a18613c1c565b5b6020026020010181815250508281600181518110610a3a57610a39613c1c565b5b602002602001018181525050600060a01b3360601b604051602001610a60929190613e75565b604051602081830303815290604052610a7890613ed3565b81600281518110610a8c57610a8b613c1c565b5b6020026020010181815250506000600267ffffffffffffffff811115610ab557610ab461313f565b5b604051908082528060200260200182016040528015610ae857816020015b6060815260200190600190039081610ad35790505b5090503360601b604051602001610aff919061414e565b60405160208183030381529060405281600081518110610b2257610b21613c1c565b5b6020026020010181905250600183610b3a9190614185565b60801b604051602001610b4d91906141cb565b60405160208183030381529060405281600181518110610b7057610b6f613c1c565b5b60200260200101819052508460601b604051602001610b8f919061414e565b60405160208183030381529060405281600281518110610bb257610bb1613c1c565b5b602002602001018190525060008054906101000a900473ffffffffffffffffffffffffffffffffffffffff1673ffffffffffffffffffffffffffffffffffffffff166314a6e29383836040518363ffffffff1660e01b8152600401610c189291906143b0565b600060405180830381600087803b158015610c3257600080fd5b505af1158015610c46573d6000803e3d6000fd5b505050505050505050565b60006060610c9933600460001b6040518060400160405280600781526020017f4558454355544500000000000000000000000000000000000000000000000000815250612eb7565b4260008054906101000a900473ffffffffffffffffffffffffffffffffffffffff1673ffffffffffffffffffffffffffffffffffffffff166354f6127f7fd08ca3a83d59467dd8ba57e940549874ea8310a1ebfb4396959235b00035d77760001b6040518263ffffffff1660e01b8152600401610d169190613f85565b600060405180830381865afa158015610d33573d6000803e3d6000fd5b505050506040513d6000823e3d601f19601f82011682018060405250810190610d5c9190614010565b610d65906143fc565b60d01c65ffffffffffff1660008054906101000a900473ffffffffffffffffffffffffffffffffffffffff1673ffffffffffffffffffffffffffffffffffffffff166354f6127f7f5bd05fa174be6a4aa4a8222f8837a27a381de14e7797cf7945df58b0626e6c3d60001b6040518263ffffffff1660e01b8152600401610dec9190613f85565b600060405180830381865afa158015610e09573d6000803e3d6000fd5b505050506040513d6000823e3d601f19601f82011682018060405250810190610e329190614010565b610e3b906143fc565b60d01c65ffffffffffff1660008054906101000a900473ffffffffffffffffffffffffffffffffffffffff1673ffffffffffffffffffffffffffffffffffffffff166354f6127f73bd3132afbfa232f7d171a873f7e52e32c666b06d60501b6040518263ffffffff1660e01b8152600401610eb691906144b0565b600060405180830381865afa158015610ed3573d6000803e3d6000fd5b505050506040513d6000823e3d601f19601f82011682018060405250810190610efc9190614010565b610f05906143fc565b60d01c65ffffffffffff16610f1a9190613d5c565b610f249190613d5c565b1115610f6857600f6040517ff3a4c8ae000000000000000000000000000000000000000000000000000000008152600401610f5f919061453f565b60405180910390fd5b60008060009054906101000a900473ffffffffffffffffffffffffffffffffffffffff1673ffffffffffffffffffffffffffffffffffffffff166354f6127f8573ed458cca63dcf8476211a40ad15420dcabc377f060501b604051602001610fd192919061459c565b604051602081830303815290604052610fe990613ed3565b6040518263ffffffff1660e01b81526004016110059190613f85565b600060405180830381865afa158015611022573d6000803e3d6000fd5b505050506040513d6000823e3d601f19601f8201168201806040525081019061104b9190614010565b61105490613ed3565b60001c0361109a5760106040517ff3a4c8ae0000000000000000000000000000000000000000000000000000000081526004016110919190614603565b60405180910390fd5b60008060009054906101000a900473ffffffffffffffffffffffffffffffffffffffff1673ffffffffffffffffffffffffffffffffffffffff166354f6127f85738141b895c75785b22c0f5986707a8c766679322760501b60405160200161110392919061459c565b60405160208183030381529060405261111b90613ed3565b6040518263ffffffff1660e01b81526004016111379190613f85565b600060405180830381865afa158015611154573d6000803e3d6000fd5b505050506040513d6000823e3d601f19601f8201168201806040525081019061117d9190614010565b61118690614633565b60f81c905060008060009054906101000a900473ffffffffffffffffffffffffffffffffffffffff1673ffffffffffffffffffffffffffffffffffffffff166354f6127f7fdf30dba06db6a30e65354d9a64c609861f089545ca58c6b4dbe31a5f338cb0e360001b6040518263ffffffff1660e01b815260040161120a9190613f85565b600060405180830381865afa158015611227573d6000803e3d6000fd5b505050506040513d6000823e3d601f19601f820116820180604052508101906112509190614010565b61125990613ed3565b60001c905060008260ff1667ffffffffffffffff81111561127d5761127c61313f565b5b6040519080825280602002602001820160405280156112ab5781602001602082028036833780820191505090505b50905060005b82816fffffffffffffffffffffffffffffffff1610156117585760008060009054906101000a900473ffffffffffffffffffffffffffffffffffffffff1673ffffffffffffffffffffffffffffffffffffffff166354f6127f6fdf30dba06db6a30e65354d9a64c6098660801b8460801b604051602001611333929190614122565b60405160208183030381529060405261134b90613ed3565b6040518263ffffffff1660e01b81526004016113679190613f85565b600060405180830381865afa158015611384573d6000803e3d6000fd5b505050506040513d6000823e3d601f19601f820116820180604052508101906113ad9190614010565b6113b6906146af565b60601c905060006113c682612f15565b905060008060009054906101000a900473ffffffffffffffffffffffffffffffffffffffff1673ffffffffffffffffffffffffffffffffffffffff166354f6127f600060a01b8560601b604051602001611421929190613e75565b60405160208183030381529060405261143990613ed3565b6040518263ffffffff1660e01b81526004016114559190613f85565b600060405180830381865afa158015611472573d6000803e3d6000fd5b505050506040513d6000823e3d601f19601f8201168201806040525081019061149b9190614010565b6114a4906146af565b90506000801b600160001b83161461174257600080600060601b6bffffffffffffffffffffffff1916836bffffffffffffffffffffffff19160361159e576001905060008054906101000a900473ffffffffffffffffffffffffffffffffffffffff1673ffffffffffffffffffffffffffffffffffffffff166354f6127f61152c8e88613071565b6040518263ffffffff1660e01b81526004016115489190613f85565b600060405180830381865afa158015611565573d6000803e3d6000fd5b505050506040513d6000823e3d601f19601f8201168201806040525081019061158e9190614010565b6115979061472b565b91506115a3565b600090505b6000801b601060001b8516146116a85760008054906101000a900473ffffffffffffffffffffffffffffffffffffffff1673ffffffffffffffffffffffffffffffffffffffff166354f6127f6bc3f797d5c8ae536b82a6000060a01b8760601b604051602001611614929190613e75565b60405160208183030381529060405261162c90613ed3565b6040518263ffffffff1660e01b81526004016116489190613f85565b600060405180830381865afa158015611665573d6000803e3d6000fd5b505050506040513d6000823e3d601f19601f8201168201806040525081019061168e9190614010565b61169790613ed3565b60001c816116a59190613d5c565b90505b60005b8960ff168160ff16101561173e57600060f01b8160ff166001901b60f01b84167dffffffffffffffffffffffffffffffffffffffffffffffffffffffffffff1916036116f857600061172a565b81888260ff168151811061170f5761170e613c1c565b5b602002602001018181516117239190613d5c565b9150818152505b50808061173690613db2565b9150506116ab565b5050505b505050808061175090614792565b9150506112b1565b50600080600080600090505b8660ff1681101561184b5784818151811061178257611781613c1c565b5b6020026020010151846117959190613d5c565b93506002876117a491906147f9565b60ff168110156117f5578660ff1660648260028a6117c291906147f9565b60ff166117cf9190613d28565b6117d9919061482a565b6117e39190614884565b836117ee9190613d5c565b9250611838565b8660ff16606460028961180891906147f9565b60ff16836118169190613d28565b611820919061482a565b61182a9190614884565b826118359190613d5c565b91505b8080611843906148b5565b915050611764565b5060008060009054906101000a900473ffffffffffffffffffffffffffffffffffffffff1673ffffffffffffffffffffffffffffffffffffffff166354f6127f7fbc776f168e7b9c60bb2a7180950facd372cd90c841732d963c31a93ff9f8c12760001b6040518263ffffffff1660e01b81526004016118cb9190613f85565b600060405180830381865afa1580156118e8573d6000803e3d6000fd5b505050506040513d6000823e3d601f19601f820116820180604052508101906119119190614010565b61191a90613ed3565b60001c905060008060009054906101000a900473ffffffffffffffffffffffffffffffffffffffff1673ffffffffffffffffffffffffffffffffffffffff166354f6127f7ff89f507ecd9cb7646ce1514ec6ab90d695dac9314c3771f451fd90148a3335a960001b6040518263ffffffff1660e01b815260040161199e9190613f85565b600060405180830381865afa1580156119bb573d6000803e3d6000fd5b505050506040513d6000823e3d601f19601f820116820180604052508101906119e49190614010565b6119ed90613ed3565b60001c905086816119fe9190614884565b8786611a0a9190614884565b118015611a2c57508482611a1e9190614884565b8584611a2a9190614884565b115b15611d485760008b73ba6d4933d1a0fbfd29728a3ed8d0a7aca50635b560501b604051602001611a5d92919061459c565b604051602081830303815290604052611a7590613ed3565b905060008c73478499bb6846f8a28632137c772be842c41b310560501b604051602001611aa392919061459c565b604051602081830303815290604052611abb90613ed3565b905060008060009054906101000a900473ffffffffffffffffffffffffffffffffffffffff1673ffffffffffffffffffffffffffffffffffffffff166354f6127f846040518263ffffffff1660e01b8152600401611b199190613f85565b600060405180830381865afa158015611b36573d6000803e3d6000fd5b505050506040513d6000823e3d601f19601f82011682018060405250810190611b5f9190614010565b611b6890613ed3565b60001c905060005b81811015611d435760008054906101000a900473ffffffffffffffffffffffffffffffffffffffff1673ffffffffffffffffffffffffffffffffffffffff166354f6127f856040518263ffffffff1660e01b8152600401611bd19190613f85565b600060405180830381865afa158015611bee573d6000803e3d6000fd5b505050506040513d6000823e3d601f19601f82011682018060405250810190611c179190614010565b611c20906146af565b60601c73ffffffffffffffffffffffffffffffffffffffff1660008054906101000a900473ffffffffffffffffffffffffffffffffffffffff1673ffffffffffffffffffffffffffffffffffffffff166354f6127f856040518263ffffffff1660e01b8152600401611c929190613f85565b600060405180830381865afa158015611caf573d6000803e3d6000fd5b505050506040513d6000823e3d601f19601f82011682018060405250810190611cd89190614010565b604051611ce59190614939565b6000604051808303816000865af19150503d8060008114611d22576040519150601f19603f3d011682016040523d82523d6000602084013e611d27565b606091505b50809e50819f5050508080611d3b906148b5565b915050611b70565b505050505b5050505050505050915091565b611d9933600260001b6040518060400160405280600781526020017f50524f504f534500000000000000000000000000000000000000000000000000815250612eb7565b8251845114611de057600c6040517ff3a4c8ae000000000000000000000000000000000000000000000000000000008152600401611dd7919061498b565b60405180910390fd5b60108260ff161115611e2a57600d6040517ff3a4c8ae000000000000000000000000000000000000000000000000000000008152600401611e2191906149e1565b60405180910390fd5b8160ff168160ff161115611e7657600e6040517ff3a4c8ae000000000000000000000000000000000000000000000000000000008152600401611e6d9190614a37565b60405180910390fd5b600084516002611e86919061482a565b90506000611e9442896130af565b90506000600783611ea59190613d5c565b67ffffffffffffffff811115611ebe57611ebd61313f565b5b604051908082528060200260200182016040528015611eec5781602001602082028036833780820191505090505b5090506000600784611efe9190613d5c565b67ffffffffffffffff811115611f1757611f1661313f565b5b604051908082528060200260200182016040528015611f4a57816020015b6060815260200190600190039081611f355790505b50905060008411156121a35760005b88518161ffff1610156121a157611fb08473ba6d4933d1a0fbfd29728a3ed8d0a7aca50635b560501b604051602001611f9392919061459c565b604051602081830303815290604052611fab90613ed3565b613003565b600060028110611fc357611fc2613c1c565b5b60200201518161ffff1660801b604051602001611fe1929190614122565b604051602081830303815290604052611ff990613ed3565b838261ffff16815181106120105761200f613c1c565b5b6020026020010181815250506120668473478499bb6846f8a28632137c772be842c41b310560501b60405160200161204992919061459c565b60405160208183030381529060405261206190613ed3565b613003565b60006002811061207957612078613c1c565b5b60200201518161ffff1660801b604051602001612097929190614122565b6040516020818303038152906040526120af90613ed3565b838a518361ffff166120c19190613d5c565b815181106120d2576120d1613c1c565b5b602002602001018181525050888161ffff16815181106120f5576120f4613c1c565b5b602002602001015160601b604051602001612110919061414e565b604051602081830303815290604052828261ffff168151811061213657612135613c1c565b5b6020026020010181905250878161ffff168151811061215857612157613c1c565b5b6020026020010151828a518361ffff166121729190613d5c565b8151811061218357612182613c1c565b5b6020026020010181905250808061219990614a60565b915050611f59565b505b8273ba6d4933d1a0fbfd29728a3ed8d0a7aca50635b560501b6040516020016121cd92919061459c565b6040516020818303038152906040526121e590613ed3565b826000866121f39190613d5c565b8151811061220457612203613c1c565b5b6020026020010181815250508273478499bb6846f8a28632137c772be842c41b310560501b60405160200161223a92919061459c565b60405160208183030381529060405261225290613ed3565b826001866122609190613d5c565b8151811061227157612270613c1c565b5b60200260200101818152505082733f82a2b5852cbedcda3d9062384397479ac9a00d60501b6040516020016122a792919061459c565b6040516020818303038152906040526122bf90613ed3565b826002866122cd9190613d5c565b815181106122de576122dd613c1c565b5b602002602001018181525050827395e794640ff3efd16bfe738f1a9bf2886d166af560501b60405160200161231492919061459c565b60405160208183030381529060405261232c90613ed3565b8260038661233a9190613d5c565b8151811061234b5761234a613c1c565b5b6020026020010181815250508273bd3132afbfa232f7d171a873f7e52e32c666b06d60501b60405160200161238192919061459c565b60405160208183030381529060405261239990613ed3565b826004866123a79190613d5c565b815181106123b8576123b7613c1c565b5b60200260200101818152505082738141b895c75785b22c0f5986707a8c766679322760501b6040516020016123ee92919061459c565b60405160208183030381529060405261240690613ed3565b826005866124149190613d5c565b8151811061242557612424613c1c565b5b6020026020010181815250508273ed458cca63dcf8476211a40ad15420dcabc377f060501b60405160200161245b92919061459c565b60405160208183030381529060405261247390613ed3565b826006866124819190613d5c565b8151811061249257612491613c1c565b5b602002602001018181525050875160001b6040516020016124b39190613f5b565b604051602081830303815290604052816000866124d09190613d5c565b815181106124e1576124e0613c1c565b5b6020026020010181905250865160001b6040516020016125019190613f5b565b6040516020818303038152906040528160018661251e9190613d5c565b8151811061252f5761252e613c1c565b5b602002602001018190525089816002866125499190613d5c565b8151811061255a57612559613c1c565b5b602002602001018190525088816003866125749190613d5c565b8151811061258557612584613c1c565b5b60200260200101819052504260d01b6040516020016125a49190613cd4565b604051602081830303815290604052816004866125c19190613d5c565b815181106125d2576125d1613c1c565b5b60200260200101819052508560f81b6040516020016125f19190613c6c565b6040516020818303038152906040528160058661260e9190613d5c565b8151811061261f5761261e613c1c565b5b60200260200101819052508460f81b60405160200161263e9190613c6c565b6040516020818303038152906040528160068661265b9190613d5c565b8151811061266c5761266b613c1c565b5b60200260200101819052506126818282612bea565b50505050505050505050565b6126d133600160001b6040518060400160405280600481526020017f564f544500000000000000000000000000000000000000000000000000000000815250612eb7565b60008060009054906101000a900473ffffffffffffffffffffffffffffffffffffffff1673ffffffffffffffffffffffffffffffffffffffff166354f6127f61271a8633613071565b6040518263ffffffff1660e01b81526004016127369190613f85565b600060405180830381865afa158015612753573d6000803e3d6000fd5b505050506040513d6000823e3d601f19601f8201168201806040525081019061277c9190614010565b61278590613ed3565b60001c146127cb5760116040517ff3a4c8ae0000000000000000000000000000000000000000000000000000000081526004016127c29190614ac5565b60405180910390fd5b805160008054906101000a900473ffffffffffffffffffffffffffffffffffffffff1673ffffffffffffffffffffffffffffffffffffffff166354f6127f8573ed458cca63dcf8476211a40ad15420dcabc377f060501b60405160200161283392919061459c565b60405160208183030381529060405261284b90613ed3565b6040518263ffffffff1660e01b81526004016128679190613f85565b600060405180830381865afa158015612884573d6000803e3d6000fd5b505050506040513d6000823e3d601f19601f820116820180604052508101906128ad9190614010565b6128b690614633565b60f81c60ff1610156129005760126040517ff3a4c8ae0000000000000000000000000000000000000000000000000000000081526004016128f79190614b1b565b60405180910390fd5b6000805b8251816fffffffffffffffffffffffffffffffff161015612ac85782816fffffffffffffffffffffffffffffffff168151811061294457612943613c1c565b5b602002602001015160ff1660008054906101000a900473ffffffffffffffffffffffffffffffffffffffff1673ffffffffffffffffffffffffffffffffffffffff166354f6127f6129d588738141b895c75785b22c0f5986707a8c766679322760501b6040516020016129b892919061459c565b6040516020818303038152906040526129d090613ed3565b613003565b6000600281106129e8576129e7613c1c565b5b60200201518460801b604051602001612a02929190614122565b604051602081830303815290604052612a1a90613ed3565b6040518263ffffffff1660e01b8152600401612a369190613f85565b600060405180830381865afa158015612a53573d6000803e3d6000fd5b505050506040513d6000823e3d601f19601f82011682018060405250810190612a7c9190614010565b612a8590614633565b60f81c60ff1603612ab557806fffffffffffffffffffffffffffffffff166001901b82612ab29190614b36565b91505b8080612ac090614792565b915050612904565b506000600167ffffffffffffffff811115612ae657612ae561313f565b5b604051908082528060200260200182016040528015612b145781602001602082028036833780820191505090505b509050612b218533613071565b81600081518110612b3557612b34613c1c565b5b6020026020010181815250506000600167ffffffffffffffff811115612b5e57612b5d61313f565b5b604051908082528060200260200182016040528015612b9157816020015b6060815260200190600190039081612b7c5790505b509050848360f01b604051602001612baa929190614bb0565b60405160208183030381529060405281600081518110612bcd57612bcc613c1c565b5b6020026020010181905250612be28282612bea565b505050505050565b8051825114612bf857600080fd5b6000825111612c0657600080fd5b6001825103612d7e57600160009054906101000a900473ffffffffffffffffffffffffffffffffffffffff1673ffffffffffffffffffffffffffffffffffffffff166309c5eabe7f7f23690cc80a596acdae0a51503f8066ffd79ab76fd5c929578309d2e2883b7784600081518110612c8257612c81613c1c565b5b602002602001015184600081518110612c9e57612c9d613c1c565b5b6020026020010151604051602401612cb7929190614bdc565b604051602081830303815290604052907bffffffffffffffffffffffffffffffffffffffffffffffffffffffff19166020820180517bffffffffffffffffffffffffffffffffffffffffffffffffffffffff83818316178352505050506040518263ffffffff1660e01b8152600401612d309190614c0c565b6000604051808303816000875af1158015612d4f573d6000803e3d6000fd5b505050506040513d6000823e3d601f19601f82011682018060405250810190612d789190614010565b50612eb3565b600160009054906101000a900473ffffffffffffffffffffffffffffffffffffffff1673ffffffffffffffffffffffffffffffffffffffff166309c5eabe7f14a6e2931875c22579e483160c8d2832a3fb3acbd575a49f6a0f7fc5e135f7898484604051602401612df09291906143b0565b604051602081830303815290604052907bffffffffffffffffffffffffffffffffffffffffffffffffffffffff19166020820180517bffffffffffffffffffffffffffffffffffffffffffffffffffffffff83818316178352505050506040518263ffffffff1660e01b8152600401612e699190614c0c565b6000604051808303816000875af1158015612e88573d6000803e3d6000fd5b505050506040513d6000823e3d601f19601f82011682018060405250810190612eb19190614010565b505b5050565b6000612ec284612f15565b90506000801b83821603612f0f5783826040517f3bdad6e6000000000000000000000000000000000000000000000000000000008152600401612f06929190614c92565b60405180910390fd5b50505050565b60008060009054906101000a900473ffffffffffffffffffffffffffffffffffffffff1673ffffffffffffffffffffffffffffffffffffffff166354f6127f6b4b80742de2bfb3cc0e49000060a01b8460601b604051602001612f79929190613e75565b604051602081830303815290604052612f9190613ed3565b6040518263ffffffff1660e01b8152600401612fad9190613f85565b600060405180830381865afa158015612fca573d6000803e3d6000fd5b505050506040513d6000823e3d601f19601f82011682018060405250810190612ff39190614010565b612ffc90613ed3565b9050919050565b61300b6130ee565b6040518060400160405280600060801b6fffffffffffffffffffffffffffffffff19166fffffffffffffffffffffffffffffffff19168152602001600060801b6fffffffffffffffffffffffffffffffff19168152509050818152816010820152919050565b600082600060f01b8360601b60405160200161308f93929190614cc2565b6040516020818303038152906040526130a790613ed3565b905092915050565b60008260d01b82805190602001206040516020016130ce929190614d4c565b6040516020818303038152906040526130e690614d8d565b905092915050565b6040518060400160405280600290602082028036833780820191505090505090565b6000604051905090565b600080fd5b600080fd5b600080fd5b600080fd5b6000601f19601f8301169050919050565b7f4e487b7100000000000000000000000000000000000000000000000000000000600052604160045260246000fd5b6131778261312e565b810181811067ffffffffffffffff821117156131965761319561313f565b5b80604052505050565b60006131a9613110565b90506131b5828261316e565b919050565b600067ffffffffffffffff8211156131d5576131d461313f565b5b6131de8261312e565b9050602081019050919050565b82818337600083830152505050565b600061320d613208846131ba565b61319f565b90508281526020810184848401111561322957613228613129565b5b6132348482856131eb565b509392505050565b600082601f83011261325157613250613124565b5b81356132618482602086016131fa565b91505092915050565b600060ff82169050919050565b6132808161326a565b811461328b57600080fd5b50565b60008135905061329d81613277565b92915050565b600065ffffffffffff82169050919050565b6132be816132a3565b81146132c957600080fd5b50565b6000813590506132db816132b5565b92915050565b60007fff0000000000000000000000000000000000000000000000000000000000000082169050919050565b613316816132e1565b811461332157600080fd5b50565b6000813590506133338161330d565b92915050565b600080600080600080600060e0888a0312156133585761335761311a565b5b600088013567ffffffffffffffff8111156133765761337561311f565b5b6133828a828b0161323c565b975050602088013567ffffffffffffffff8111156133a3576133a261311f565b5b6133af8a828b0161323c565b96505060406133c08a828b0161328e565b95505060606133d18a828b0161328e565b94505060806133e28a828b016132cc565b93505060a06133f38a828b016132cc565b92505060c06134048a828b01613324565b91505092959891949750929550565b600073ffffffffffffffffffffffffffffffffffffffff82169050919050565b600061343e82613413565b9050919050565b61344e81613433565b811461345957600080fd5b50565b60008135905061346b81613445565b92915050565b600067ffffffffffffffff82111561348c5761348b61313f565b5b602082029050602081019050919050565b600080fd5b6000819050919050565b6134b5816134a2565b81146134c057600080fd5b50565b6000813590506134d2816134ac565b92915050565b60006134eb6134e684613471565b61319f565b9050808382526020820190506020840283018581111561350e5761350d61349d565b5b835b81811015613537578061352388826134c3565b845260208401935050602081019050613510565b5050509392505050565b600082601f83011261355657613555613124565b5b81356135668482602086016134d8565b91505092915050565b600080604083850312156135865761358561311a565b5b60006135948582860161345c565b925050602083013567ffffffffffffffff8111156135b5576135b461311f565b5b6135c185828601613541565b9150509250929050565b6000602082840312156135e1576135e061311a565b5b60006135ef8482850161345c565b91505092915050565b60007fffffffffffffffffffff0000000000000000000000000000000000000000000082169050919050565b61362d816135f8565b811461363857600080fd5b50565b60008135905061364a81613624565b92915050565b6000602082840312156136665761366561311a565b5b60006136748482850161363b565b91505092915050565b60008115159050919050565b6136928161367d565b82525050565b600081519050919050565b600082825260208201905092915050565b60005b838110156136d25780820151818401526020810190506136b7565b838111156136e1576000848401525b50505050565b60006136f282613698565b6136fc81856136a3565b935061370c8185602086016136b4565b6137158161312e565b840191505092915050565b60006040820190506137356000830185613689565b818103602083015261374781846136e7565b90509392505050565b600067ffffffffffffffff82111561376b5761376a61313f565b5b602082029050602081019050919050565b600061378f61378a84613750565b61319f565b905080838252602082019050602084028301858111156137b2576137b161349d565b5b835b818110156137db57806137c7888261345c565b8452602084019350506020810190506137b4565b5050509392505050565b600082601f8301126137fa576137f9613124565b5b813561380a84826020860161377c565b91505092915050565b600067ffffffffffffffff82111561382e5761382d61313f565b5b602082029050602081019050919050565b600067ffffffffffffffff82111561385a5761385961313f565b5b6138638261312e565b9050602081019050919050565b600061388361387e8461383f565b61319f565b90508281526020810184848401111561389f5761389e613129565b5b6138aa8482856131eb565b509392505050565b600082601f8301126138c7576138c6613124565b5b81356138d7848260208601613870565b91505092915050565b60006138f36138ee84613813565b61319f565b905080838252602082019050602084028301858111156139165761391561349d565b5b835b8181101561395d57803567ffffffffffffffff81111561393b5761393a613124565b5b80860161394889826138b2565b85526020850194505050602081019050613918565b5050509392505050565b600082601f83011261397c5761397b613124565b5b813561398c8482602086016138e0565b91505092915050565b60008060008060008060c087890312156139b2576139b161311a565b5b600087013567ffffffffffffffff8111156139d0576139cf61311f565b5b6139dc89828a0161323c565b965050602087013567ffffffffffffffff8111156139fd576139fc61311f565b5b613a0989828a0161323c565b955050604087013567ffffffffffffffff811115613a2a57613a2961311f565b5b613a3689828a016137e5565b945050606087013567ffffffffffffffff811115613a5757613a5661311f565b5b613a6389828a01613967565b9350506080613a7489828a0161328e565b92505060a0613a8589828a0161328e565b9150509295509295509295565b60007fffffffffffffffffffffffffffffffffffffffffffffffffffffffffffff000082169050919050565b613ac781613a92565b8114613ad257600080fd5b50565b600081359050613ae481613abe565b92915050565b600067ffffffffffffffff821115613b0557613b0461313f565b5b602082029050602081019050919050565b6000613b29613b2484613aea565b61319f565b90508083825260208201905060208402830185811115613b4c57613b4b61349d565b5b835b81811015613b755780613b61888261328e565b845260208401935050602081019050613b4e565b5050509392505050565b600082601f830112613b9457613b93613124565b5b8135613ba4848260208601613b16565b91505092915050565b600080600060608486031215613bc657613bc561311a565b5b6000613bd48682870161363b565b9350506020613be586828701613ad5565b925050604084013567ffffffffffffffff811115613c0657613c0561311f565b5b613c1286828701613b7f565b9150509250925092565b7f4e487b7100000000000000000000000000000000000000000000000000000000600052603260045260246000fd5b6000819050919050565b613c66613c61826132e1565b613c4b565b82525050565b6000613c788284613c55565b60018201915081905092915050565b60007fffffffffffff000000000000000000000000000000000000000000000000000082169050919050565b6000819050919050565b613cce613cc982613c87565b613cb3565b82525050565b6000613ce08284613cbd565b60068201915081905092915050565b6000819050919050565b7f4e487b7100000000000000000000000000000000000000000000000000000000600052601160045260246000fd5b6000613d3382613cef565b9150613d3e83613cef565b925082821015613d5157613d50613cf9565b5b828203905092915050565b6000613d6782613cef565b9150613d7283613cef565b9250827fffffffffffffffffffffffffffffffffffffffffffffffffffffffffffffffff03821115613da757613da6613cf9565b5b828201905092915050565b6000613dbd8261326a565b915060ff8203613dd057613dcf613cf9565b5b600182019050919050565b60007fffffffffffffffffffffffff000000000000000000000000000000000000000082169050919050565b6000819050919050565b613e22613e1d82613ddb565b613e07565b82525050565b60007fffffffffffffffffffffffffffffffffffffffff00000000000000000000000082169050919050565b6000819050919050565b613e6f613e6a82613e28565b613e54565b82525050565b6000613e818285613e11565b600c82019150613e918284613e5e565b6014820191508190509392505050565b6000819050602082019050919050565b6000613ebd82516134a2565b80915050919050565b600082821b905092915050565b6000613ede82613698565b82613ee884613ea1565b9050613ef381613eb1565b92506020821015613f3357613f2e7fffffffffffffffffffffffffffffffffffffffffffffffffffffffffffffffff83602003600802613ec6565b831692505b5050919050565b6000819050919050565b613f55613f50826134a2565b613f3a565b82525050565b6000613f678284613f44565b60208201915081905092915050565b613f7f816134a2565b82525050565b6000602082019050613f9a6000830184613f76565b92915050565b6000613fb3613fae8461383f565b61319f565b905082815260208101848484011115613fcf57613fce613129565b5b613fda8482856136b4565b509392505050565b600082601f830112613ff757613ff6613124565b5b8151614007848260208601613fa0565b91505092915050565b6000602082840312156140265761402561311a565b5b600082015167ffffffffffffffff8111156140445761404361311f565b5b61405084828501613fe2565b91505092915050565b60007fffffffffffffffffffffffffffffffff0000000000000000000000000000000082169050919050565b60006140918251614059565b80915050919050565b60006140a582613698565b826140af84613ea1565b90506140ba81614085565b925060108210156140fa576140f57fffffffffffffffffffffffffffffffff0000000000000000000000000000000083601003600802613ec6565b831692505b5050919050565b6000819050919050565b61411c61411782614059565b614101565b82525050565b600061412e828561410b565b60108201915061413e828461410b565b6010820191508190509392505050565b600061415a8284613e5e565b60148201915081905092915050565b60006fffffffffffffffffffffffffffffffff82169050919050565b600061419082614169565b915061419b83614169565b9250826fffffffffffffffffffffffffffffffff038211156141c0576141bf613cf9565b5b828201905092915050565b60006141d7828461410b565b60108201915081905092915050565b600081519050919050565b600082825260208201905092915050565b6000819050602082019050919050565b61421b816134a2565b82525050565b600061422d8383614212565b60208301905092915050565b6000602082019050919050565b6000614251826141e6565b61425b81856141f1565b935061426683614202565b8060005b8381101561429757815161427e8882614221565b975061428983614239565b92505060018101905061426a565b5085935050505092915050565b600081519050919050565b600082825260208201905092915050565b6000819050602082019050919050565b600082825260208201905092915050565b60006142ec82613698565b6142f681856142d0565b93506143068185602086016136b4565b61430f8161312e565b840191505092915050565b600061432683836142e1565b905092915050565b6000602082019050919050565b6000614346826142a4565b61435081856142af565b935083602082028501614362856142c0565b8060005b8581101561439e578484038952815161437f858261431a565b945061438a8361432e565b925060208a01995050600181019050614366565b50829750879550505050505092915050565b600060408201905081810360008301526143ca8185614246565b905081810360208301526143de818461433b565b90509392505050565b60006143f38251613c87565b80915050919050565b600061440782613698565b8261441184613ea1565b905061441c816143e7565b9250600682101561445c576144577fffffffffffff000000000000000000000000000000000000000000000000000083600603600802613ec6565b831692505b5050919050565b60007fffffffffffffffffffffffffffffffffffffffffffff0000000000000000000082169050919050565b600061449a82614463565b9050919050565b6144aa8161448f565b82525050565b60006020820190506144c560008301846144a1565b92915050565b6000819050919050565b60007fffff00000000000000000000000000000000000000000000000000000000000082169050919050565b60008160f01b9050919050565b600061452961452461451f846144cb565b614501565b6144d5565b9050919050565b6145398161450e565b82525050565b60006020820190506145546000830184614530565b92915050565b6000819050919050565b614575614570826135f8565b61455a565b82525050565b6000819050919050565b61459661459182614463565b61457b565b82525050565b60006145a88285614564565b600a820191506145b88284614585565b6016820191508190509392505050565b6000819050919050565b60006145ed6145e86145e3846145c8565b614501565b6144d5565b9050919050565b6145fd816145d2565b82525050565b600060208201905061461860008301846145f4565b92915050565b600061462a82516132e1565b80915050919050565b600061463e82613698565b8261464884613ea1565b90506146538161461e565b925060018210156146935761468e7fff0000000000000000000000000000000000000000000000000000000000000083600103600802613ec6565b831692505b5050919050565b60006146a68251613e28565b80915050919050565b60006146ba82613698565b826146c484613ea1565b90506146cf8161469a565b9250601482101561470f5761470a7fffffffffffffffffffffffffffffffffffffffff00000000000000000000000083601403600802613ec6565b831692505b5050919050565b600061472282516144d5565b80915050919050565b600061473682613698565b8261474084613ea1565b905061474b81614716565b9250600282101561478b576147867fffff00000000000000000000000000000000000000000000000000000000000083600203600802613ec6565b831692505b5050919050565b600061479d82614169565b91506fffffffffffffffffffffffffffffffff82036147bf576147be613cf9565b5b600182019050919050565b7f4e487b7100000000000000000000000000000000000000000000000000000000600052601260045260246000fd5b60006148048261326a565b915061480f8361326a565b92508261481f5761481e6147ca565b5b828204905092915050565b600061483582613cef565b915061484083613cef565b9250817fffffffffffffffffffffffffffffffffffffffffffffffffffffffffffffffff048311821515161561487957614878613cf9565b5b828202905092915050565b600061488f82613cef565b915061489a83613cef565b9250826148aa576148a96147ca565b5b828204905092915050565b60006148c082613cef565b91507fffffffffffffffffffffffffffffffffffffffffffffffffffffffffffffffff82036148f2576148f1613cf9565b5b600182019050919050565b600081905092915050565b600061491382613698565b61491d81856148fd565b935061492d8185602086016136b4565b80840191505092915050565b60006149458284614908565b915081905092915050565b6000819050919050565b600061497561497061496b84614950565b614501565b6144d5565b9050919050565b6149858161495a565b82525050565b60006020820190506149a0600083018461497c565b92915050565b6000819050919050565b60006149cb6149c66149c1846149a6565b614501565b6144d5565b9050919050565b6149db816149b0565b82525050565b60006020820190506149f660008301846149d2565b92915050565b6000819050919050565b6000614a21614a1c614a17846149fc565b614501565b6144d5565b9050919050565b614a3181614a06565b82525050565b6000602082019050614a4c6000830184614a28565b92915050565b600061ffff82169050919050565b6000614a6b82614a52565b915061ffff8203614a7f57614a7e613cf9565b5b600182019050919050565b6000819050919050565b6000614aaf614aaa614aa584614a8a565b614501565b6144d5565b9050919050565b614abf81614a94565b82525050565b6000602082019050614ada6000830184614ab6565b92915050565b6000819050919050565b6000614b05614b00614afb84614ae0565b614501565b6144d5565b9050919050565b614b1581614aea565b82525050565b6000602082019050614b306000830184614b0c565b92915050565b6000614b4182614a52565b9150614b4c83614a52565b92508261ffff03821115614b6357614b62613cf9565b5b828201905092915050565b6000819050919050565b614b89614b8482613a92565b614b6e565b82525050565b6000819050919050565b614baa614ba5826144d5565b614b8f565b82525050565b6000614bbc8285614b78565b601e82019150614bcc8284614b99565b6002820191508190509392505050565b6000604082019050614bf16000830185613f76565b8181036020830152614c0381846136e7565b90509392505050565b60006020820190508181036000830152614c2681846136e7565b905092915050565b614c3781613433565b82525050565b600081519050919050565b600082825260208201905092915050565b6000614c6482614c3d565b614c6e8185614c48565b9350614c7e8185602086016136b4565b614c878161312e565b840191505092915050565b6000604082019050614ca76000830185614c2e565b8181036020830152614cb98184614c59565b90509392505050565b6000614cce8286614564565b600a82019150614cde8285614b99565b600282019150614cee8284613e5e565b601482019150819050949350505050565b60007fffffffff0000000000000000000000000000000000000000000000000000000082169050919050565b6000819050919050565b614d46614d4182614cff565b614d2b565b82525050565b6000614d588285613cbd565b600682019150614d688284614d35565b6004820191508190509392505050565b6000614d8482516135f8565b80915050919050565b6000614d9882613698565b82614da284613ea1565b9050614dad81614d78565b9250600a821015614ded57614de87fffffffffffffffffffff0000000000000000000000000000000000000000000083600a03600802613ec6565b831692505b505091905056fea26469706673582212208ab771b1b1088bfcd6c52fc7f7c5fd32df4d2e6cd71c822c1631f33a8e201b4664736f6c634300080f0033",
  "immutableReferences": {},
  "source": "// SPDX-License-Identifier: CC0-1.0\n\npragma solidity ^0.8.0;\n\nimport {IERC725Y} from \"@erc725/smart-contracts/contracts/interfaces/IERC725Y.sol\";\nimport {LSP6KeyManager} from \"@lukso/lsp-smart-contracts/contracts/LSP6KeyManager/LSP6KeyManager.sol\";\nimport {\n  NoPermissionsSet,\n  NotAuthorised\n} from \"@lukso/lsp-smart-contracts/contracts/LSP6KeyManager/LSP6Errors.sol\";\nimport {\n  _LSP6KEY_ADDRESSPERMISSIONS_ARRAY,\n  _LSP6KEY_ADDRESSPERMISSIONS_ARRAY_PREFIX,\n  _LSP6KEY_ADDRESSPERMISSIONS_DAOPERMISSIONS_PREFIX,\n  _PERMISSION_VOTE,\n  _PERMISSION_PROPOSE,\n  _PERMISSION_EXECUTE,\n  _PERMISSION_SENDDELEGATE,\n  _PERMISSION_RECIEVEDELEGATE,\n  _PERMISSION_MASTER,\n\n  _KEY_TITLE,\n  _KEY_DESCRIPTION,\n  _KEY_MAJORITY,\n  _KEY_PARTICIPATIONRATE,\n  _KEY_VOTINGDELAY,\n  _KEY_VOTINGPERIOD,\n  _KEY_TOKENGATED,\n\n  _KEY_DELEGATEVOTE,\n  _KEY_ADDRESSDELEGATES_ARRAY_PREFIX,\n\n  _KEY_PROPOSAL_PREFIX,\n  _KEY_PROPOSAL_TITLE_SUFFIX,\n  _KEY_PROPOSAL_DESCRIPTION_SUFFIX,\n  _KEY_PROPOSAL_CREATIONTIMESTAMP_SUFFIX,\n  _KEY_PROPOSAL_TARGETSARRAY_SUFFIX,\n  _KEY_PROPOSAL_DATASARRAY_SUFFIX,\n  _KEY_PROPOSAL_PROPOSALCHOICES_SUFFIX,\n  _KEY_PROPOSAL_MAXIMUMCHOICESPERVOTE_SUFFIX,\n  _KEY_PARTICIPANT_VOTE,\n\n  setDataSingleSelector,\n  setDataMultipleSelector,\n\n  _SPLIT_BYTES32_IN_TWO_HALFS\n} from \"./DaoConstants.sol\";\nimport {\n  ErrorWithNumber\n} from \"../DaoCreatorErrors.sol\";\n\n/**\n *\n* @notice This smart contract is responsible for managing the DAO Keys.\n *\n * @author B00ste\n * @title DaoKeyManager\n * @custom:version 1\n */\ncontract DaoKeyManager {\n\n  /**\n   * @notice Address of the DAO_ACCOUNT.\n   */\n  address payable private UNIVERSAL_PROFILE;\n\n  /**\n   * @notice Address of the KEY_MANAGER.\n   */\n  address private KEY_MANAGER;\n\n  /**\n   * @notice Address of the creator.\n   */\n  address private CREATOR;\n\n  constructor(\n    address payable _UNIVERSAL_PROFILE,\n    address _KEY_MANAGER\n  ) {\n    CREATOR = msg.sender;\n    UNIVERSAL_PROFILE = _UNIVERSAL_PROFILE;\n    KEY_MANAGER = _KEY_MANAGER;\n  }\n  function initialize(\n    string memory title,\n    string memory description,\n    uint8 majority,\n    uint8 participationRate,\n    uint48 votingDelay,\n    uint48 votingPeriod,\n    bytes1 tokenGated\n  ) external {\n    require(msg.sender == CREATOR);\n\n    bytes32[] memory keys = new bytes32[](7);\n    keys[0] = _KEY_TITLE;\n    keys[1] = _KEY_DESCRIPTION;\n    keys[2] = _KEY_MAJORITY;\n    keys[3] = _KEY_PARTICIPATIONRATE;\n    keys[4] = _KEY_VOTINGDELAY;\n    keys[5] = _KEY_VOTINGPERIOD;\n    keys[6] = _KEY_TOKENGATED;\n\n    bytes[] memory values = new bytes[](7);\n    values[0] = bytes(title);\n    values[1] = bytes(description);\n    values[2] = bytes.concat(bytes1(majority));\n    values[3] = bytes.concat(bytes1(participationRate));\n    values[4] = bytes.concat(bytes6(votingDelay));\n    values[5] = bytes.concat(bytes6(votingPeriod));\n    values[6] = bytes.concat(tokenGated);\n\n    _setData(keys, values);\n  }\n\n\n  // --- General Methods.\n\n\n  /**\n   * @notice Toggle permissions of an address.\n   */\n  function togglePermissions(address _to, bytes32[] memory _permissions) external {\n    _verifyPermission(msg.sender, _PERMISSION_MASTER, \"MASTER\");\n\n    bytes32 permissions = _getPermissions(_to);\n    for (uint8 i = 0; i < _permissions.length; i++) {\n      if (permissions & _permissions[i] != 0) {\n        permissions = bytes32(uint256(permissions) - uint256(_permissions[i]));\n      }\n      else {\n        permissions = bytes32(uint256(permissions) + uint256(_permissions[i]));\n      }\n    }\n\n    bytes32[] memory keys = new bytes32[](1);\n    keys[0] = bytes32(bytes.concat(_LSP6KEY_ADDRESSPERMISSIONS_DAOPERMISSIONS_PREFIX, bytes20(_to)));\n    bytes[] memory values = new bytes[](1);\n    values[0] = bytes.concat(permissions);\n    _setData(keys, values);\n  }\n\n  /**\n   * @notice Delegate your vote.\n   */\n  function delegate(address delegatee) external {\n    _verifyPermission(msg.sender, _PERMISSION_SENDDELEGATE, \"SENDDELEGATE\");\n    _verifyPermission(delegatee, _PERMISSION_RECIEVEDELEGATE, \"RECIEVEDELEGATE\");\n\n    bytes32 arrayKey = bytes32(bytes.concat(_KEY_ADDRESSDELEGATES_ARRAY_PREFIX, bytes20(delegatee)));\n    uint128 arrayLength = uint128(bytes16(IERC725Y(UNIVERSAL_PROFILE).getData(arrayKey)));\n\n    bytes32[] memory keys = new bytes32[](2);\n    keys[0] = bytes32(bytes.concat(_SPLIT_BYTES32_IN_TWO_HALFS(arrayKey)[0], bytes16(arrayLength)));\n    keys[1] = arrayKey;\n    keys[2] = bytes32(bytes.concat(_KEY_DELEGATEVOTE, bytes20(msg.sender)));\n    bytes[] memory values = new bytes[](2);\n    values[0] = bytes.concat(bytes20(msg.sender));\n    values[1] = bytes.concat(bytes16(arrayLength + 1));\n    values[2] = bytes.concat(bytes20(delegatee));\n  \n    IERC725Y(UNIVERSAL_PROFILE).setData(keys, values);\n  }\n\n  /**\n   * @notice Create a proposal.\n   */\n  function createProposal(\n    string memory title,\n    string memory description,\n    address[] memory targets,\n    bytes[] memory datas,\n    uint8 choices,\n    uint8 choicesPerVote\n  ) external {\n    _verifyPermission(msg.sender, _PERMISSION_PROPOSE, \"PROPOSE\");\n    if (targets.length != datas.length) revert ErrorWithNumber(0x000C);\n    if (choices > 16) revert ErrorWithNumber(0x000D);\n    if (choicesPerVote > choices) revert ErrorWithNumber(0x000E);\n\n    uint256 arraysLength = 2 * targets.length;\n    bytes10 KEY_PROPOSAL_PREFIX = _KEY_PROPOSAL_PREFIX(uint48(block.timestamp), title);\n    bytes32[] memory keys = new bytes32[](arraysLength + 7);\n    bytes[] memory values = new bytes[](arraysLength + 7);\n\n    if(arraysLength > 0){\n      for (uint16 i = 0; i < targets.length; i++) {\n        keys[i] = bytes32(bytes.concat(\n          _SPLIT_BYTES32_IN_TWO_HALFS(bytes32(bytes.concat(KEY_PROPOSAL_PREFIX, _KEY_PROPOSAL_TARGETSARRAY_SUFFIX)))[0],\n          bytes16(uint128(i))\n        ));\n        keys[i + targets.length] = bytes32(bytes.concat(\n          _SPLIT_BYTES32_IN_TWO_HALFS(bytes32(bytes.concat(KEY_PROPOSAL_PREFIX, _KEY_PROPOSAL_DATASARRAY_SUFFIX)))[0],\n          bytes16(uint128(i))\n        ));\n\n        values[i] = bytes.concat(bytes20(targets[i]));\n        values[i + targets.length] = datas[i];\n      } \n    }\n\n    keys[arraysLength + 0] = bytes32(bytes.concat(KEY_PROPOSAL_PREFIX, _KEY_PROPOSAL_TARGETSARRAY_SUFFIX));\n    keys[arraysLength + 1] = bytes32(bytes.concat(KEY_PROPOSAL_PREFIX, _KEY_PROPOSAL_DATASARRAY_SUFFIX));\n    keys[arraysLength + 2] = bytes32(bytes.concat(KEY_PROPOSAL_PREFIX, _KEY_PROPOSAL_TITLE_SUFFIX));\n    keys[arraysLength + 3] = bytes32(bytes.concat(KEY_PROPOSAL_PREFIX, _KEY_PROPOSAL_DESCRIPTION_SUFFIX));\n    keys[arraysLength + 4] = bytes32(bytes.concat(KEY_PROPOSAL_PREFIX, _KEY_PROPOSAL_CREATIONTIMESTAMP_SUFFIX));\n    keys[arraysLength + 5] = bytes32(bytes.concat(KEY_PROPOSAL_PREFIX, _KEY_PROPOSAL_PROPOSALCHOICES_SUFFIX));\n    keys[arraysLength + 6] = bytes32(bytes.concat(KEY_PROPOSAL_PREFIX, _KEY_PROPOSAL_MAXIMUMCHOICESPERVOTE_SUFFIX));\n\n    values[arraysLength + 0] = bytes.concat(bytes32(targets.length));\n    values[arraysLength + 1] = bytes.concat(bytes32(datas.length));\n    values[arraysLength + 2] = bytes(title);\n    values[arraysLength + 3] = bytes(description);\n    values[arraysLength + 4] = bytes.concat(bytes6(uint48(block.timestamp)));\n    values[arraysLength + 5] = bytes.concat(bytes1(choices));\n    values[arraysLength + 6] = bytes.concat(bytes1(choicesPerVote));\n\n    _setData(keys, values);\n  }\n\n  /**\n   * @notice Execute the calldata of the Proposal if there is one.\n   */\n  function executeProposal(\n    bytes10 proposalSignature\n  )\n    external\n    returns(bool success, bytes memory res)\n  {\n    _verifyPermission(msg.sender, _PERMISSION_EXECUTE, \"EXECUTE\");\n    if (\n      uint256(uint48(bytes6(IERC725Y(UNIVERSAL_PROFILE).getData(_KEY_PROPOSAL_CREATIONTIMESTAMP_SUFFIX))))\n      + uint256(uint48(bytes6(IERC725Y(UNIVERSAL_PROFILE).getData(_KEY_VOTINGDELAY))))\n      + uint256(uint48(bytes6(IERC725Y(UNIVERSAL_PROFILE).getData(_KEY_VOTINGPERIOD))))\n      > block.timestamp\n    ) revert ErrorWithNumber(0x000F);\n    if (\n      uint256(bytes32(IERC725Y(UNIVERSAL_PROFILE).getData(\n        bytes32(bytes.concat(proposalSignature, _KEY_PROPOSAL_MAXIMUMCHOICESPERVOTE_SUFFIX))\n      ))) == 0\n    ) revert ErrorWithNumber(0x0010);\n\n    /**\n     * @dev Count all the votes by accessing the choices of all of the participants\n     * of the DAO.\n     * 1. Get the user address and verify its permissions.\n     * 2. If `user` has vote permission and did not delegate his vote\n     * we will save his number of votes as 1 and save his choices for later use.\n     * 3. We verify if the `user` has the RECIEVEDELEGATE permission and if so\n     * we will increase his number of votes by the number of votes delegated to him.\n     * 4. After we got all the needed info we can add the number of votes to the choises of the `user`\n     */  \n    uint8 nrOfChoices =  uint8(bytes1(IERC725Y(UNIVERSAL_PROFILE).getData(bytes32(bytes.concat(proposalSignature, _KEY_PROPOSAL_PROPOSALCHOICES_SUFFIX)))));\n    uint256 totalUsers = uint256(bytes32(IERC725Y(UNIVERSAL_PROFILE).getData(_LSP6KEY_ADDRESSPERMISSIONS_ARRAY)));\n    uint256[] memory votesByChoiceIndex = new uint256[](nrOfChoices);\n    for (uint128 i = 0; i < totalUsers; i++) {\n      address user = address(bytes20(IERC725Y(UNIVERSAL_PROFILE).getData(\n        bytes32(bytes.concat(_LSP6KEY_ADDRESSPERMISSIONS_ARRAY_PREFIX, bytes16(i)))\n      )));\n      bytes32 permissions = _getPermissions(user);\n      bytes20 delegatedTo = bytes20(IERC725Y(UNIVERSAL_PROFILE).getData(\n        bytes32(bytes.concat(_KEY_DELEGATEVOTE, bytes20(user)))\n      ));\n      if (permissions & _PERMISSION_VOTE != 0) {\n        bytes2 choices;\n        uint256 votes;\n        if (delegatedTo == bytes20(0)) {\n          votes = 1;\n          choices = bytes2(IERC725Y(UNIVERSAL_PROFILE).getData(\n            _KEY_PARTICIPANT_VOTE(proposalSignature, user)\n          ));\n        }\n        else {\n          votes = 0;\n        }\n        if (permissions & _PERMISSION_RECIEVEDELEGATE != 0) {\n          votes += uint256(bytes32(IERC725Y(UNIVERSAL_PROFILE).getData(\n            bytes32(bytes.concat(_KEY_ADDRESSDELEGATES_ARRAY_PREFIX, bytes20(user)))\n          )));\n        }\n        for(uint8 j = 0; j < nrOfChoices; j++) {\n          choices & bytes2(uint16(1 << j)) != 0 ? votesByChoiceIndex[j] += votes : 0;\n        }\n      }\n    }\n\n    /**\n     * @dev We split all the choices between `negativeVotes` and `positiveVotes`\n     *  ____________________________________\n     * |  1  |  2  |  3  | 4 | 5  | 6  | 7  |\n     * | -42 | -28 | -14 | 0 | 14 | 28 | 42 |\n     * |_____|_____|_____|___|____|____|____|\n     *\n     */\n    uint256 totalVotes;\n    uint256 negativeVotes;\n    uint256 positiveVotes;\n    for (uint256 i = 0; i < nrOfChoices; i++) {\n      totalVotes += votesByChoiceIndex[i];\n      if (i < nrOfChoices/2) {\n        negativeVotes += ((nrOfChoices/2 - i) * 100/nrOfChoices);\n      }\n      else {\n        positiveVotes += ((i - nrOfChoices/2) * 100/nrOfChoices);\n      }\n    }\n\n    uint256 majority = uint256(bytes32(IERC725Y(UNIVERSAL_PROFILE).getData(_KEY_MAJORITY)));\n    uint256 participationRate = uint256(bytes32(IERC725Y(UNIVERSAL_PROFILE).getData(\n      _KEY_PARTICIPATIONRATE\n    )));\n\n    /**\n     * @dev Check if the proposal has passed and execute the saved methods.\n     */\n    if(\n      totalVotes/totalUsers > participationRate/totalUsers &&\n      positiveVotes/totalVotes > majority/totalVotes\n    ) {\n      bytes32 targetsKey = bytes32(bytes.concat(proposalSignature, _KEY_PROPOSAL_TARGETSARRAY_SUFFIX));\n      bytes32 datasKey = bytes32(bytes.concat(proposalSignature, _KEY_PROPOSAL_DATASARRAY_SUFFIX));\n      uint256 arrayLength = uint256(bytes32(IERC725Y(UNIVERSAL_PROFILE).getData(targetsKey)));\n      for (uint256 i = 0; i < arrayLength; i++) {\n        (success, res) = address(bytes20(IERC725Y(UNIVERSAL_PROFILE).getData(targetsKey)))\n        .call(IERC725Y(UNIVERSAL_PROFILE).getData(datasKey));\n      }\n    }\n\n  }\n\n  /**\n   * @notice Vote on a proposal.\n   */\n  function vote(\n    bytes10 proposalSignature,\n    bytes30 voteDescription,\n    uint8[] memory choicesArray\n  ) external {\n    _verifyPermission(msg.sender, _PERMISSION_VOTE, \"VOTE\");\n    if (\n      uint256(bytes32(\n        IERC725Y(UNIVERSAL_PROFILE).getData(\n          _KEY_PARTICIPANT_VOTE(proposalSignature, msg.sender)\n        )\n      )) != 0\n    ) revert ErrorWithNumber(0x0011);\n    if (\n      uint8(bytes1(IERC725Y(UNIVERSAL_PROFILE).getData(\n        bytes32(bytes.concat(proposalSignature, _KEY_PROPOSAL_MAXIMUMCHOICESPERVOTE_SUFFIX))\n      ))) < choicesArray.length\n    ) revert ErrorWithNumber(0x0012);\n\n    uint16 choices = 0;\n    for(uint128 i = 0; i < choicesArray.length; i++) {\n      if(\n      uint8(bytes1(IERC725Y(UNIVERSAL_PROFILE).getData(\n        bytes32(bytes.concat(\n          _SPLIT_BYTES32_IN_TWO_HALFS(\n            bytes32(bytes.concat(\n              proposalSignature, _KEY_PROPOSAL_PROPOSALCHOICES_SUFFIX\n            ))\n          )[0],\n          bytes16(i)\n        ))\n      ))) == choicesArray[i]\n      ) {\n        choices = choices + uint16(1 << i);\n      }\n    }\n\n    bytes32[] memory keys = new bytes32[](1);\n    keys[0] = _KEY_PARTICIPANT_VOTE(proposalSignature, msg.sender);\n    bytes[] memory values = new bytes[](1);\n    values[0] = bytes.concat(voteDescription, bytes2(choices));\n    _setData(keys, values);\n  }\n\n\n  // --- Internal Methods.\n\n\n  function _getPermissions(\n    address _from\n  )\n    internal\n    view\n    returns(bytes32 permissions)\n  {\n    permissions = bytes32(IERC725Y(UNIVERSAL_PROFILE).getData(bytes32(bytes.concat(\n      _LSP6KEY_ADDRESSPERMISSIONS_DAOPERMISSIONS_PREFIX,\n      bytes20(_from)\n    ))));\n  }\n\n  function _verifyPermission(\n    address _from,\n    bytes32 _permission,\n    string memory _permissionName\n  )\n    internal\n    view\n  {\n    bytes32 permissions = _getPermissions(_from);\n    if(permissions & _permission == 0) revert NotAuthorised(_from, _permissionName);\n  }\n\n  function _setData(\n    bytes32[] memory _keys,\n    bytes[] memory _values\n  ) internal {\n    require(_keys.length == _values.length);\n    require(_keys.length > 0);\n    if(_keys.length == 1) {\n      LSP6KeyManager(KEY_MANAGER).execute(abi.encodeWithSelector(\n        setDataSingleSelector, _keys[0], _values[0]\n      ));\n    }\n    else {\n      LSP6KeyManager(KEY_MANAGER).execute(abi.encodeWithSelector(\n        setDataMultipleSelector, _keys, _values\n      ));\n    }\n  }\n\n}",
  "sourcePath": "/home/b00ste/Projects/universal-profile-governance/contracts/DaoAccount/DaoKeyManager.sol",
  "compiler": {
    "name": "solc",
    "version": "0.8.15+commit.e14f2714.Emscripten.clang"
  },
  "schemaVersion": "3.4.8",
  "updatedAt": "2022-07-26T22:41:00.443Z",
  "devdoc": {
    "author": "B00ste",
    "custom:version": "1",
    "errors": {
      "NotAuthorised(address,string)": [
        {
          "details": "address `from` is not authorised to `permission`",
          "params": {
            "from": "address not-authorised",
            "permission": "permission required"
          }
        }
      ]
    },
    "kind": "dev",
    "methods": {},
    "title": "DaoKeyManager",
    "version": 1
  },
  "userdoc": {
    "kind": "user",
    "methods": {
      "createProposal(string,string,address[],bytes[],uint8,uint8)": {
        "notice": "Create a proposal."
      },
      "delegate(address)": {
        "notice": "Delegate your vote."
      },
      "executeProposal(bytes10)": {
        "notice": "Execute the calldata of the Proposal if there is one."
      },
      "togglePermissions(address,bytes32[])": {
        "notice": "Toggle permissions of an address."
      },
      "vote(bytes10,bytes30,uint8[])": {
        "notice": "Vote on a proposal."
      }
    },
    "notice": "This smart contract is responsible for managing the DAO Keys.",
    "version": 1
  }
}