{
  "contractName": "DaoKeyManager",
  "abi": [
    {
      "inputs": [
        {
          "internalType": "address payable",
          "name": "_UNIVERSAL_PROFILE",
          "type": "address"
        },
        {
          "internalType": "address",
          "name": "_KEY_MANAGER",
          "type": "address"
        }
      ],
      "stateMutability": "nonpayable",
      "type": "constructor"
    },
    {
      "inputs": [
        {
          "internalType": "bytes2",
          "name": "errorNumber",
          "type": "bytes2"
        }
      ],
      "name": "ErrorWithNumber",
      "type": "error"
    },
    {
      "inputs": [
        {
          "internalType": "address",
          "name": "from",
          "type": "address"
        },
        {
          "internalType": "string",
          "name": "permission",
          "type": "string"
        }
      ],
      "name": "NotAuthorised",
      "type": "error"
    },
    {
      "inputs": [
        {
          "internalType": "string",
          "name": "title",
          "type": "string"
        },
        {
          "internalType": "string",
          "name": "description",
          "type": "string"
        },
        {
          "internalType": "uint8",
          "name": "majority",
          "type": "uint8"
        },
        {
          "internalType": "uint8",
          "name": "participationRate",
          "type": "uint8"
        },
        {
          "internalType": "uint48",
          "name": "votingDelay",
          "type": "uint48"
        },
        {
          "internalType": "uint48",
          "name": "votingPeriod",
          "type": "uint48"
        },
        {
          "internalType": "bytes1",
          "name": "tokenGated",
          "type": "bytes1"
        }
      ],
      "name": "init",
      "outputs": [],
      "stateMutability": "nonpayable",
      "type": "function"
    },
    {
      "inputs": [
        {
          "internalType": "address",
          "name": "_to",
          "type": "address"
        },
        {
          "internalType": "bytes32[]",
          "name": "_permissions",
          "type": "bytes32[]"
        }
      ],
      "name": "togglePermissions",
      "outputs": [],
      "stateMutability": "nonpayable",
      "type": "function"
    },
    {
      "inputs": [
        {
          "internalType": "address",
          "name": "delegatee",
          "type": "address"
        }
      ],
      "name": "delegate",
      "outputs": [],
      "stateMutability": "nonpayable",
      "type": "function"
    },
    {
      "inputs": [
        {
          "internalType": "bytes32",
          "name": "title",
          "type": "bytes32"
        },
        {
          "internalType": "string",
          "name": "description",
          "type": "string"
        },
        {
          "internalType": "address[]",
          "name": "targets",
          "type": "address[]"
        },
        {
          "internalType": "bytes[]",
          "name": "datas",
          "type": "bytes[]"
        },
        {
          "internalType": "uint8",
          "name": "choices",
          "type": "uint8"
        },
        {
          "internalType": "uint8",
          "name": "choicesPerVote",
          "type": "uint8"
        }
      ],
      "name": "createProposal",
      "outputs": [],
      "stateMutability": "nonpayable",
      "type": "function"
    },
    {
      "inputs": [
        {
          "internalType": "bytes10",
          "name": "proposalSignature",
          "type": "bytes10"
        }
      ],
      "name": "executeProposal",
      "outputs": [
        {
          "internalType": "bool[]",
          "name": "success",
          "type": "bool[]"
        },
        {
          "internalType": "bytes[]",
          "name": "results",
          "type": "bytes[]"
        }
      ],
      "stateMutability": "nonpayable",
      "type": "function"
    },
    {
      "inputs": [
        {
          "internalType": "bytes10",
          "name": "proposalSignature",
          "type": "bytes10"
        },
        {
          "internalType": "bytes30",
          "name": "voteDescription",
          "type": "bytes30"
        },
        {
          "internalType": "uint8[]",
          "name": "choicesArray",
          "type": "uint8[]"
        }
      ],
      "name": "vote",
      "outputs": [],
      "stateMutability": "nonpayable",
      "type": "function"
    }
  ],
  "bytecode": "0x60806040523480156200001157600080fd5b50604051620050df380380620050df83398181016040528101906200003791906200016f565b816000806101000a81548173ffffffffffffffffffffffffffffffffffffffff021916908373ffffffffffffffffffffffffffffffffffffffff16021790555080600160006101000a81548173ffffffffffffffffffffffffffffffffffffffff021916908373ffffffffffffffffffffffffffffffffffffffff1602179055505050620001b6565b600080fd5b600073ffffffffffffffffffffffffffffffffffffffff82169050919050565b6000620000f282620000c5565b9050919050565b6200010481620000e5565b81146200011057600080fd5b50565b6000815190506200012481620000f9565b92915050565b60006200013782620000c5565b9050919050565b62000149816200012a565b81146200015557600080fd5b50565b60008151905062000169816200013e565b92915050565b60008060408385031215620001895762000188620000c0565b5b6000620001998582860162000113565b9250506020620001ac8582860162000158565b9150509250929050565b614f1980620001c66000396000f3fe608060405234801561001057600080fd5b50600436106100625760003560e01c80631c8734cf146100675780635c19a95c146100835780635c9cafcf1461009f578063bb26d08c146100d0578063cc5daa7a146100ec578063d353e96014610108575b600080fd5b610081600480360381019061007c9190613366565b610124565b005b61009d600480360381019061009891906133c2565b61037e565b005b6100b960048036038101906100b49190613447565b610768565b6040516100c7929190613688565b60405180910390f35b6100ea60048036038101906100e59190613813565b61194a565b005b61010660048036038101906101019190613b7c565b611ea8565b005b610122600480360381019061011d9190613cf3565b612800565b005b61016833608060001b6040518060400160405280600681526020017f4d41535445520000000000000000000000000000000000000000000000000000815250612c1a565b600061017383612c78565b905060005b82518160ff16101561022e576000801b838260ff168151811061019e5761019d613dcd565b5b60200260200101518316146101e657828160ff16815181106101c3576101c2613dcd565b5b602002602001015160001c8260001c6101dc9190613e35565b60001b915061021b565b828160ff16815181106101fc576101fb613dcd565b5b602002602001015160001c8260001c6102159190613e69565b60001b91505b808061022690613ebf565b915050610178565b506000600167ffffffffffffffff81111561024c5761024b6131ed565b5b60405190808252806020026020018201604052801561027a5781602001602082028036833780820191505090505b5090506b4b80742de2bfb3cc0e49000060a01b8460601b6040516020016102a2929190613f82565b6040516020818303038152906040526102ba90613fe0565b816000815181106102ce576102cd613dcd565b5b6020026020010181815250506000600167ffffffffffffffff8111156102f7576102f66131ed565b5b60405190808252806020026020018201604052801561032a57816020015b60608152602001906001900390816103155790505b5090508260405160200161033e9190614068565b6040516020818303038152906040528160008151811061036157610360613dcd565b5b60200260200101819052506103768282612d66565b505050505050565b6103c233600860001b6040518060400160405280600c81526020017f53454e4444454c45474154450000000000000000000000000000000000000000815250612c1a565b61040681601060001b6040518060400160405280600f81526020017f5245434945564544454c45474154450000000000000000000000000000000000815250612c1a565b60006bc3f797d5c8ae536b82a6000060a01b8260601b60405160200161042d929190613f82565b60405160208183030381529060405261044590613fe0565b905060008060009054906101000a900473ffffffffffffffffffffffffffffffffffffffff1673ffffffffffffffffffffffffffffffffffffffff166354f6127f836040518263ffffffff1660e01b81526004016104a39190614092565b600060405180830381865afa1580156104c0573d6000803e3d6000fd5b505050506040513d6000823e3d601f19601f820116820180604052508101906104e9919061411d565b6104f2906141a7565b60801c90506000600267ffffffffffffffff811115610514576105136131ed565b5b6040519080825280602002602001820160405280156105425781602001602082028036833780820191505090505b50905061054e83613039565b60006002811061056157610560613dcd565b5b60200201518260801b60405160200161057b92919061422f565b60405160208183030381529060405261059390613fe0565b816000815181106105a7576105a6613dcd565b5b60200260200101818152505082816001815181106105c8576105c7613dcd565b5b6020026020010181815250506b0a30e74a6c7868e40014000060a01b3360601b6040516020016105f9929190613f82565b60405160208183030381529060405261061190613fe0565b8160028151811061062557610624613dcd565b5b6020026020010181815250506000600267ffffffffffffffff81111561064e5761064d6131ed565b5b60405190808252806020026020018201604052801561068157816020015b606081526020019060019003908161066c5790505b5090503360601b604051602001610698919061425b565b604051602081830303815290604052816000815181106106bb576106ba613dcd565b5b60200260200101819052506001836106d39190614292565b60801b6040516020016106e691906142d8565b6040516020818303038152906040528160018151811061070957610708613dcd565b5b60200260200101819052508460601b604051602001610728919061425b565b6040516020818303038152906040528160028151811061074b5761074a613dcd565b5b60200260200101819052506107608282612d66565b505050505050565b6060806107af33600460001b6040518060400160405280600781526020017f4558454355544500000000000000000000000000000000000000000000000000815250612c1a565b4260008054906101000a900473ffffffffffffffffffffffffffffffffffffffff1673ffffffffffffffffffffffffffffffffffffffff166354f6127f7fd08ca3a83d59467dd8ba57e940549874ea8310a1ebfb4396959235b00035d77760001b6040518263ffffffff1660e01b815260040161082c9190614092565b600060405180830381865afa158015610849573d6000803e3d6000fd5b505050506040513d6000823e3d601f19601f82011682018060405250810190610872919061411d565b61087b90614334565b60d01c65ffffffffffff1660008054906101000a900473ffffffffffffffffffffffffffffffffffffffff1673ffffffffffffffffffffffffffffffffffffffff166354f6127f7f5bd05fa174be6a4aa4a8222f8837a27a381de14e7797cf7945df58b0626e6c3d60001b6040518263ffffffff1660e01b81526004016109029190614092565b600060405180830381865afa15801561091f573d6000803e3d6000fd5b505050506040513d6000823e3d601f19601f82011682018060405250810190610948919061411d565b61095190614334565b60d01c65ffffffffffff1660008054906101000a900473ffffffffffffffffffffffffffffffffffffffff1673ffffffffffffffffffffffffffffffffffffffff166354f6127f73bd3132afbfa232f7d171a873f7e52e32c666b06d60501b6040518263ffffffff1660e01b81526004016109cc91906143e8565b600060405180830381865afa1580156109e9573d6000803e3d6000fd5b505050506040513d6000823e3d601f19601f82011682018060405250810190610a12919061411d565b610a1b90614334565b60d01c65ffffffffffff16610a309190613e69565b610a3a9190613e69565b1115610a7e57600f6040517ff3a4c8ae000000000000000000000000000000000000000000000000000000008152600401610a759190614477565b60405180910390fd5b60008060009054906101000a900473ffffffffffffffffffffffffffffffffffffffff1673ffffffffffffffffffffffffffffffffffffffff166354f6127f8573ed458cca63dcf8476211a40ad15420dcabc377f060501b604051602001610ae79291906144d4565b604051602081830303815290604052610aff90613fe0565b6040518263ffffffff1660e01b8152600401610b1b9190614092565b600060405180830381865afa158015610b38573d6000803e3d6000fd5b505050506040513d6000823e3d601f19601f82011682018060405250810190610b61919061411d565b610b6a90613fe0565b60001c03610bb05760106040517ff3a4c8ae000000000000000000000000000000000000000000000000000000008152600401610ba7919061453b565b60405180910390fd5b60008060009054906101000a900473ffffffffffffffffffffffffffffffffffffffff1673ffffffffffffffffffffffffffffffffffffffff166354f6127f8573e5dd8acc7154a678a0a3fa3fe2d65b8700bf702c60501b604051602001610c199291906144d4565b604051602081830303815290604052610c3190613fe0565b6040518263ffffffff1660e01b8152600401610c4d9190614092565b600060405180830381865afa158015610c6a573d6000803e3d6000fd5b505050506040513d6000823e3d601f19601f82011682018060405250810190610c93919061411d565b610c9c9061456b565b60f81c905060008060009054906101000a900473ffffffffffffffffffffffffffffffffffffffff1673ffffffffffffffffffffffffffffffffffffffff166354f6127f7fdf30dba06db6a30e65354d9a64c609861f089545ca58c6b4dbe31a5f338cb0e360001b6040518263ffffffff1660e01b8152600401610d209190614092565b600060405180830381865afa158015610d3d573d6000803e3d6000fd5b505050506040513d6000823e3d601f19601f82011682018060405250810190610d66919061411d565b610d6f90613fe0565b60001c905060008260ff1667ffffffffffffffff811115610d9357610d926131ed565b5b604051908082528060200260200182016040528015610dc15781602001602082028036833780820191505090505b50905060005b82816fffffffffffffffffffffffffffffffff1610156112795760008060009054906101000a900473ffffffffffffffffffffffffffffffffffffffff1673ffffffffffffffffffffffffffffffffffffffff166354f6127f6fdf30dba06db6a30e65354d9a64c6098660801b8460801b604051602001610e4992919061422f565b604051602081830303815290604052610e6190613fe0565b6040518263ffffffff1660e01b8152600401610e7d9190614092565b600060405180830381865afa158015610e9a573d6000803e3d6000fd5b505050506040513d6000823e3d601f19601f82011682018060405250810190610ec3919061411d565b610ecc906145e7565b60601c90506000610edc82612c78565b905060008060009054906101000a900473ffffffffffffffffffffffffffffffffffffffff1673ffffffffffffffffffffffffffffffffffffffff166354f6127f6b0a30e74a6c7868e40014000060a01b8560601b604051602001610f42929190613f82565b604051602081830303815290604052610f5a90613fe0565b6040518263ffffffff1660e01b8152600401610f769190614092565b600060405180830381865afa158015610f93573d6000803e3d6000fd5b505050506040513d6000823e3d601f19601f82011682018060405250810190610fbc919061411d565b610fc5906145e7565b90506000801b600160001b83161461126357600080600060601b6bffffffffffffffffffffffff1916836bffffffffffffffffffffffff1916036110bf576001905060008054906101000a900473ffffffffffffffffffffffffffffffffffffffff1673ffffffffffffffffffffffffffffffffffffffff166354f6127f61104d8e886130a7565b6040518263ffffffff1660e01b81526004016110699190614092565b600060405180830381865afa158015611086573d6000803e3d6000fd5b505050506040513d6000823e3d601f19601f820116820180604052508101906110af919061411d565b6110b890614663565b91506110c4565b600090505b6000801b601060001b8516146111c95760008054906101000a900473ffffffffffffffffffffffffffffffffffffffff1673ffffffffffffffffffffffffffffffffffffffff166354f6127f6bc3f797d5c8ae536b82a6000060a01b8760601b604051602001611135929190613f82565b60405160208183030381529060405261114d90613fe0565b6040518263ffffffff1660e01b81526004016111699190614092565b600060405180830381865afa158015611186573d6000803e3d6000fd5b505050506040513d6000823e3d601f19601f820116820180604052508101906111af919061411d565b6111b890613fe0565b60001c816111c69190613e69565b90505b60005b8960ff168160ff16101561125f57600060f01b8160ff166001901b60f01b84167dffffffffffffffffffffffffffffffffffffffffffffffffffffffffffff19160361121957600061124b565b81888260ff16815181106112305761122f613dcd565b5b602002602001018181516112449190613e69565b9150818152505b50808061125790613ebf565b9150506111cc565b5050505b5050508080611271906146ca565b915050610dc7565b50600080600080600090505b8660ff1681101561136c578481815181106112a3576112a2613dcd565b5b6020026020010151846112b69190613e69565b93506002876112c59190614731565b60ff16811015611316578660ff1660648260028a6112e39190614731565b60ff166112f09190613e35565b6112fa9190614762565b61130491906147bc565b8361130f9190613e69565b9250611359565b8660ff1660646002896113299190614731565b60ff16836113379190613e35565b6113419190614762565b61134b91906147bc565b826113569190613e69565b91505b8080611364906147ed565b915050611285565b5060008060009054906101000a900473ffffffffffffffffffffffffffffffffffffffff1673ffffffffffffffffffffffffffffffffffffffff166354f6127f7fbc776f168e7b9c60bb2a7180950facd372cd90c841732d963c31a93ff9f8c12760001b6040518263ffffffff1660e01b81526004016113ec9190614092565b600060405180830381865afa158015611409573d6000803e3d6000fd5b505050506040513d6000823e3d601f19601f82011682018060405250810190611432919061411d565b61143b90613fe0565b60001c905060008060009054906101000a900473ffffffffffffffffffffffffffffffffffffffff1673ffffffffffffffffffffffffffffffffffffffff166354f6127f7ff89f507ecd9cb7646ce1514ec6ab90d695dac9314c3771f451fd90148a3335a960001b6040518263ffffffff1660e01b81526004016114bf9190614092565b600060405180830381865afa1580156114dc573d6000803e3d6000fd5b505050506040513d6000823e3d601f19601f82011682018060405250810190611505919061411d565b61150e90613fe0565b60001c9050868161151f91906147bc565b878661152b91906147bc565b11801561154d5750848261153f91906147bc565b858461154b91906147bc565b115b1561193d5760008b73ba6d4933d1a0fbfd29728a3ed8d0a7aca50635b560501b60405160200161157e9291906144d4565b60405160208183030381529060405261159690613fe0565b905060008c73478499bb6846f8a28632137c772be842c41b310560501b6040516020016115c49291906144d4565b6040516020818303038152906040526115dc90613fe0565b905060008060009054906101000a900473ffffffffffffffffffffffffffffffffffffffff1673ffffffffffffffffffffffffffffffffffffffff166354f6127f846040518263ffffffff1660e01b815260040161163a9190614092565b600060405180830381865afa158015611657573d6000803e3d6000fd5b505050506040513d6000823e3d601f19601f82011682018060405250810190611680919061411d565b61168990613fe0565b60001c90508067ffffffffffffffff8111156116a8576116a76131ed565b5b6040519080825280602002602001820160405280156116d65781602001602082028036833780820191505090505b509c508067ffffffffffffffff8111156116f3576116f26131ed565b5b60405190808252806020026020018201604052801561172657816020015b60608152602001906001900390816117115790505b509b5060005b818110156119385760008054906101000a900473ffffffffffffffffffffffffffffffffffffffff1673ffffffffffffffffffffffffffffffffffffffff166354f6127f856040518263ffffffff1660e01b815260040161178d9190614092565b600060405180830381865afa1580156117aa573d6000803e3d6000fd5b505050506040513d6000823e3d601f19601f820116820180604052508101906117d3919061411d565b6117dc906145e7565b60601c73ffffffffffffffffffffffffffffffffffffffff1660008054906101000a900473ffffffffffffffffffffffffffffffffffffffff1673ffffffffffffffffffffffffffffffffffffffff166354f6127f856040518263ffffffff1660e01b815260040161184e9190614092565b600060405180830381865afa15801561186b573d6000803e3d6000fd5b505050506040513d6000823e3d601f19601f82011682018060405250810190611894919061411d565b6040516118a19190614871565b6000604051808303816000865af19150503d80600081146118de576040519150601f19603f3d011682016040523d82523d6000602084013e6118e3565b606091505b508f83815181106118f7576118f6613dcd565b5b602002602001018f848151811061191157611910613dcd565b5b60200260200101829052821515151581525050508080611930906147ed565b91505061172c565b505050505b5050505050505050915091565b61198e33600160001b6040518060400160405280600481526020017f564f544500000000000000000000000000000000000000000000000000000000815250612c1a565b60008060009054906101000a900473ffffffffffffffffffffffffffffffffffffffff1673ffffffffffffffffffffffffffffffffffffffff166354f6127f6119d786336130a7565b6040518263ffffffff1660e01b81526004016119f39190614092565b600060405180830381865afa158015611a10573d6000803e3d6000fd5b505050506040513d6000823e3d601f19601f82011682018060405250810190611a39919061411d565b611a4290613fe0565b60001c14611a885760116040517ff3a4c8ae000000000000000000000000000000000000000000000000000000008152600401611a7f91906148c3565b60405180910390fd5b805160008054906101000a900473ffffffffffffffffffffffffffffffffffffffff1673ffffffffffffffffffffffffffffffffffffffff166354f6127f8573ed458cca63dcf8476211a40ad15420dcabc377f060501b604051602001611af09291906144d4565b604051602081830303815290604052611b0890613fe0565b6040518263ffffffff1660e01b8152600401611b249190614092565b600060405180830381865afa158015611b41573d6000803e3d6000fd5b505050506040513d6000823e3d601f19601f82011682018060405250810190611b6a919061411d565b611b739061456b565b60f81c60ff161015611bbd5760126040517ff3a4c8ae000000000000000000000000000000000000000000000000000000008152600401611bb49190614919565b60405180910390fd5b6000805b8251816fffffffffffffffffffffffffffffffff161015611d855782816fffffffffffffffffffffffffffffffff1681518110611c0157611c00613dcd565b5b602002602001015160ff1660008054906101000a900473ffffffffffffffffffffffffffffffffffffffff1673ffffffffffffffffffffffffffffffffffffffff166354f6127f611c928873e5dd8acc7154a678a0a3fa3fe2d65b8700bf702c60501b604051602001611c759291906144d4565b604051602081830303815290604052611c8d90613fe0565b613039565b600060028110611ca557611ca4613dcd565b5b60200201518460801b604051602001611cbf92919061422f565b604051602081830303815290604052611cd790613fe0565b6040518263ffffffff1660e01b8152600401611cf39190614092565b600060405180830381865afa158015611d10573d6000803e3d6000fd5b505050506040513d6000823e3d601f19601f82011682018060405250810190611d39919061411d565b611d429061456b565b60f81c60ff1603611d7257806fffffffffffffffffffffffffffffffff166001901b82611d6f9190614942565b91505b8080611d7d906146ca565b915050611bc1565b506000600167ffffffffffffffff811115611da357611da26131ed565b5b604051908082528060200260200182016040528015611dd15781602001602082028036833780820191505090505b509050611dde85336130a7565b81600081518110611df257611df1613dcd565b5b6020026020010181815250506000600167ffffffffffffffff811115611e1b57611e1a6131ed565b5b604051908082528060200260200182016040528015611e4e57816020015b6060815260200190600190039081611e395790505b509050848360f01b604051602001611e679291906149bc565b60405160208183030381529060405281600081518110611e8a57611e89613dcd565b5b6020026020010181905250611e9f8282612d66565b50505050505050565b611eec33600260001b6040518060400160405280600781526020017f50524f504f534500000000000000000000000000000000000000000000000000815250612c1a565b8251845114611f3357600c6040517ff3a4c8ae000000000000000000000000000000000000000000000000000000008152600401611f2a9190614a23565b60405180910390fd5b60108260ff161115611f7d57600d6040517ff3a4c8ae000000000000000000000000000000000000000000000000000000008152600401611f749190614a79565b60405180910390fd5b8160ff168160ff161115611fc957600e6040517ff3a4c8ae000000000000000000000000000000000000000000000000000000008152600401611fc09190614acf565b60405180910390fd5b600084516002611fd99190614762565b90506000611fe742896130e5565b90506000600783611ff89190613e69565b67ffffffffffffffff811115612011576120106131ed565b5b60405190808252806020026020018201604052801561203f5781602001602082028036833780820191505090505b50905060006007846120519190613e69565b67ffffffffffffffff81111561206a576120696131ed565b5b60405190808252806020026020018201604052801561209d57816020015b60608152602001906001900390816120885790505b50905060008411156122f65760005b88518161ffff1610156122f4576121038473ba6d4933d1a0fbfd29728a3ed8d0a7aca50635b560501b6040516020016120e69291906144d4565b6040516020818303038152906040526120fe90613fe0565b613039565b60006002811061211657612115613dcd565b5b60200201518161ffff1660801b60405160200161213492919061422f565b60405160208183030381529060405261214c90613fe0565b838261ffff168151811061216357612162613dcd565b5b6020026020010181815250506121b98473478499bb6846f8a28632137c772be842c41b310560501b60405160200161219c9291906144d4565b6040516020818303038152906040526121b490613fe0565b613039565b6000600281106121cc576121cb613dcd565b5b60200201518161ffff1660801b6040516020016121ea92919061422f565b60405160208183030381529060405261220290613fe0565b838a518361ffff166122149190613e69565b8151811061222557612224613dcd565b5b602002602001018181525050888161ffff168151811061224857612247613dcd565b5b602002602001015160601b604051602001612263919061425b565b604051602081830303815290604052828261ffff168151811061228957612288613dcd565b5b6020026020010181905250878161ffff16815181106122ab576122aa613dcd565b5b6020026020010151828a518361ffff166122c59190613e69565b815181106122d6576122d5613dcd565b5b602002602001018190525080806122ec90614aea565b9150506120ac565b505b8273ba6d4933d1a0fbfd29728a3ed8d0a7aca50635b560501b6040516020016123209291906144d4565b60405160208183030381529060405261233890613fe0565b826000866123469190613e69565b8151811061235757612356613dcd565b5b6020026020010181815250508273478499bb6846f8a28632137c772be842c41b310560501b60405160200161238d9291906144d4565b6040516020818303038152906040526123a590613fe0565b826001866123b39190613e69565b815181106123c4576123c3613dcd565b5b60200260200101818152505082733f82a2b5852cbedcda3d9062384397479ac9a00d60501b6040516020016123fa9291906144d4565b60405160208183030381529060405261241290613fe0565b826002866124209190613e69565b8151811061243157612430613dcd565b5b602002602001018181525050827395e794640ff3efd16bfe738f1a9bf2886d166af560501b6040516020016124679291906144d4565b60405160208183030381529060405261247f90613fe0565b8260038661248d9190613e69565b8151811061249e5761249d613dcd565b5b6020026020010181815250508273bd3132afbfa232f7d171a873f7e52e32c666b06d60501b6040516020016124d49291906144d4565b6040516020818303038152906040526124ec90613fe0565b826004866124fa9190613e69565b8151811061250b5761250a613dcd565b5b6020026020010181815250508273e5dd8acc7154a678a0a3fa3fe2d65b8700bf702c60501b6040516020016125419291906144d4565b60405160208183030381529060405261255990613fe0565b826005866125679190613e69565b8151811061257857612577613dcd565b5b6020026020010181815250508273ed458cca63dcf8476211a40ad15420dcabc377f060501b6040516020016125ae9291906144d4565b6040516020818303038152906040526125c690613fe0565b826006866125d49190613e69565b815181106125e5576125e4613dcd565b5b602002602001018181525050875160001b6040516020016126069190614068565b604051602081830303815290604052816000866126239190613e69565b8151811061263457612633613dcd565b5b6020026020010181905250865160001b6040516020016126549190614068565b604051602081830303815290604052816001866126719190613e69565b8151811061268257612681613dcd565b5b60200260200101819052508960405160200161269e9190614068565b604051602081830303815290604052816002866126bb9190613e69565b815181106126cc576126cb613dcd565b5b602002602001018190525088816003866126e69190613e69565b815181106126f7576126f6613dcd565b5b60200260200101819052504260d01b6040516020016127169190614b35565b604051602081830303815290604052816004866127339190613e69565b8151811061274457612743613dcd565b5b60200260200101819052508560f81b6040516020016127639190614b71565b604051602081830303815290604052816005866127809190613e69565b8151811061279157612790613dcd565b5b60200260200101819052508460f81b6040516020016127b09190614b71565b604051602081830303815290604052816006866127cd9190613e69565b815181106127de576127dd613dcd565b5b60200260200101819052506127f38282612d66565b5050505050505050505050565b6000600767ffffffffffffffff81111561281d5761281c6131ed565b5b60405190808252806020026020018201604052801561284b5781602001602082028036833780820191505090505b5090507f3f82a2b5852cbedcda3d9062384397479ac9a00dae9991874d842bec7aab98ce60001b8160008151811061288657612885613dcd565b5b6020026020010181815250507f95e794640ff3efd16bfe738f1a9bf2886d166af549121f57d6e14af6b513f45d60001b816001815181106128ca576128c9613dcd565b5b6020026020010181815250507fbc776f168e7b9c60bb2a7180950facd372cd90c841732d963c31a93ff9f8c12760001b8160028151811061290e5761290d613dcd565b5b6020026020010181815250507ff89f507ecd9cb7646ce1514ec6ab90d695dac9314c3771f451fd90148a3335a960001b8160038151811061295257612951613dcd565b5b6020026020010181815250507f5bd05fa174be6a4aa4a8222f8837a27a381de14e7797cf7945df58b0626e6c3d60001b8160048151811061299657612995613dcd565b5b6020026020010181815250507fd08ca3a83d59467dd8ba57e940549874ea8310a1ebfb4396959235b00035d77760001b816005815181106129da576129d9613dcd565b5b6020026020010181815250507fa45b1e711ab5d2d7654c92da78c9148c51fb0a58b116afda9fbf612c88e9680d60001b81600681518110612a1e57612a1d613dcd565b5b6020026020010181815250506000600767ffffffffffffffff811115612a4757612a466131ed565b5b604051908082528060200260200182016040528015612a7a57816020015b6060815260200190600190039081612a655790505b5090508881600081518110612a9257612a91613dcd565b5b60200260200101819052508781600181518110612ab257612ab1613dcd565b5b60200260200101819052508660f81b604051602001612ad19190614b71565b60405160208183030381529060405281600281518110612af457612af3613dcd565b5b60200260200101819052508560f81b604051602001612b139190614b71565b60405160208183030381529060405281600381518110612b3657612b35613dcd565b5b60200260200101819052508460d01b604051602001612b559190614b35565b60405160208183030381529060405281600481518110612b7857612b77613dcd565b5b60200260200101819052508360d01b604051602001612b979190614b35565b60405160208183030381529060405281600581518110612bba57612bb9613dcd565b5b602002602001018190525082604051602001612bd69190614b71565b60405160208183030381529060405281600681518110612bf957612bf8613dcd565b5b6020026020010181905250612c0e8282612d66565b50505050505050505050565b6000612c2584612c78565b90506000801b83821603612c725783826040517f3bdad6e6000000000000000000000000000000000000000000000000000000008152600401612c69929190614bf0565b60405180910390fd5b50505050565b60008060009054906101000a900473ffffffffffffffffffffffffffffffffffffffff1673ffffffffffffffffffffffffffffffffffffffff166354f6127f6b4b80742de2bfb3cc0e49000060a01b8460601b604051602001612cdc929190613f82565b604051602081830303815290604052612cf490613fe0565b6040518263ffffffff1660e01b8152600401612d109190614092565b600060405180830381865afa158015612d2d573d6000803e3d6000fd5b505050506040513d6000823e3d601f19601f82011682018060405250810190612d56919061411d565b612d5f90613fe0565b9050919050565b60608151835114612d7657600080fd5b6000835111612d8457600080fd5b6001835103612efd57600160009054906101000a900473ffffffffffffffffffffffffffffffffffffffff1673ffffffffffffffffffffffffffffffffffffffff166309c5eabe7f7f23690cc80a596acdae0a51503f8066ffd79ab76fd5c929578309d2e2883b7785600081518110612e0057612dff613dcd565b5b602002602001015185600081518110612e1c57612e1b613dcd565b5b6020026020010151604051602401612e35929190614c6a565b604051602081830303815290604052907bffffffffffffffffffffffffffffffffffffffffffffffffffffffff19166020820180517bffffffffffffffffffffffffffffffffffffffffffffffffffffffff83818316178352505050506040518263ffffffff1660e01b8152600401612eae9190614c9a565b6000604051808303816000875af1158015612ecd573d6000803e3d6000fd5b505050506040513d6000823e3d601f19601f82011682018060405250810190612ef6919061411d565b9050613033565b600160009054906101000a900473ffffffffffffffffffffffffffffffffffffffff1673ffffffffffffffffffffffffffffffffffffffff166309c5eabe7f14a6e2931875c22579e483160c8d2832a3fb3acbd575a49f6a0f7fc5e135f7898585604051602401612f6f929190614d7a565b604051602081830303815290604052907bffffffffffffffffffffffffffffffffffffffffffffffffffffffff19166020820180517bffffffffffffffffffffffffffffffffffffffffffffffffffffffff83818316178352505050506040518263ffffffff1660e01b8152600401612fe89190614c9a565b6000604051808303816000875af1158015613007573d6000803e3d6000fd5b505050506040513d6000823e3d601f19601f82011682018060405250810190613030919061411d565b90505b92915050565b613041613143565b6040518060400160405280600060801b6fffffffffffffffffffffffffffffffff19166fffffffffffffffffffffffffffffffff19168152602001600060801b6fffffffffffffffffffffffffffffffff19168152509050818152816010820152919050565b600082600060f01b8360601b6040516020016130c593929190614db1565b6040516020818303038152906040526130dd90613fe0565b905092915050565b60008260d01b826040516020016130fc9190614068565b60405160208183030381529060405280519060200120604051602001613123929190614e3b565b60405160208183030381529060405261313b90614e7c565b905092915050565b6040518060400160405280600290602082028036833780820191505090505090565b6000604051905090565b600080fd5b600080fd5b600073ffffffffffffffffffffffffffffffffffffffff82169050919050565b60006131a482613179565b9050919050565b6131b481613199565b81146131bf57600080fd5b50565b6000813590506131d1816131ab565b92915050565b600080fd5b6000601f19601f8301169050919050565b7f4e487b7100000000000000000000000000000000000000000000000000000000600052604160045260246000fd5b613225826131dc565b810181811067ffffffffffffffff82111715613244576132436131ed565b5b80604052505050565b6000613257613165565b9050613263828261321c565b919050565b600067ffffffffffffffff821115613283576132826131ed565b5b602082029050602081019050919050565b600080fd5b6000819050919050565b6132ac81613299565b81146132b757600080fd5b50565b6000813590506132c9816132a3565b92915050565b60006132e26132dd84613268565b61324d565b9050808382526020820190506020840283018581111561330557613304613294565b5b835b8181101561332e578061331a88826132ba565b845260208401935050602081019050613307565b5050509392505050565b600082601f83011261334d5761334c6131d7565b5b813561335d8482602086016132cf565b91505092915050565b6000806040838503121561337d5761337c61316f565b5b600061338b858286016131c2565b925050602083013567ffffffffffffffff8111156133ac576133ab613174565b5b6133b885828601613338565b9150509250929050565b6000602082840312156133d8576133d761316f565b5b60006133e6848285016131c2565b91505092915050565b60007fffffffffffffffffffff0000000000000000000000000000000000000000000082169050919050565b613424816133ef565b811461342f57600080fd5b50565b6000813590506134418161341b565b92915050565b60006020828403121561345d5761345c61316f565b5b600061346b84828501613432565b91505092915050565b600081519050919050565b600082825260208201905092915050565b6000819050602082019050919050565b60008115159050919050565b6134b5816134a0565b82525050565b60006134c783836134ac565b60208301905092915050565b6000602082019050919050565b60006134eb82613474565b6134f5818561347f565b935061350083613490565b8060005b8381101561353157815161351888826134bb565b9750613523836134d3565b925050600181019050613504565b5085935050505092915050565b600081519050919050565b600082825260208201905092915050565b6000819050602082019050919050565b600081519050919050565b600082825260208201905092915050565b60005b838110156135a4578082015181840152602081019050613589565b838111156135b3576000848401525b50505050565b60006135c48261356a565b6135ce8185613575565b93506135de818560208601613586565b6135e7816131dc565b840191505092915050565b60006135fe83836135b9565b905092915050565b6000602082019050919050565b600061361e8261353e565b6136288185613549565b93508360208202850161363a8561355a565b8060005b85811015613676578484038952815161365785826135f2565b945061366283613606565b925060208a0199505060018101905061363e565b50829750879550505050505092915050565b600060408201905081810360008301526136a281856134e0565b905081810360208301526136b68184613613565b90509392505050565b60007fffffffffffffffffffffffffffffffffffffffffffffffffffffffffffff000082169050919050565b6136f4816136bf565b81146136ff57600080fd5b50565b600081359050613711816136eb565b92915050565b600067ffffffffffffffff821115613732576137316131ed565b5b602082029050602081019050919050565b600060ff82169050919050565b61375981613743565b811461376457600080fd5b50565b60008135905061377681613750565b92915050565b600061378f61378a84613717565b61324d565b905080838252602082019050602084028301858111156137b2576137b1613294565b5b835b818110156137db57806137c78882613767565b8452602084019350506020810190506137b4565b5050509392505050565b600082601f8301126137fa576137f96131d7565b5b813561380a84826020860161377c565b91505092915050565b60008060006060848603121561382c5761382b61316f565b5b600061383a86828701613432565b935050602061384b86828701613702565b925050604084013567ffffffffffffffff81111561386c5761386b613174565b5b613878868287016137e5565b9150509250925092565b600080fd5b600067ffffffffffffffff8211156138a2576138a16131ed565b5b6138ab826131dc565b9050602081019050919050565b82818337600083830152505050565b60006138da6138d584613887565b61324d565b9050828152602081018484840111156138f6576138f5613882565b5b6139018482856138b8565b509392505050565b600082601f83011261391e5761391d6131d7565b5b813561392e8482602086016138c7565b91505092915050565b600067ffffffffffffffff821115613952576139516131ed565b5b602082029050602081019050919050565b600061397661397184613937565b61324d565b9050808382526020820190506020840283018581111561399957613998613294565b5b835b818110156139c257806139ae88826131c2565b84526020840193505060208101905061399b565b5050509392505050565b600082601f8301126139e1576139e06131d7565b5b81356139f1848260208601613963565b91505092915050565b600067ffffffffffffffff821115613a1557613a146131ed565b5b602082029050602081019050919050565b600067ffffffffffffffff821115613a4157613a406131ed565b5b613a4a826131dc565b9050602081019050919050565b6000613a6a613a6584613a26565b61324d565b905082815260208101848484011115613a8657613a85613882565b5b613a918482856138b8565b509392505050565b600082601f830112613aae57613aad6131d7565b5b8135613abe848260208601613a57565b91505092915050565b6000613ada613ad5846139fa565b61324d565b90508083825260208201905060208402830185811115613afd57613afc613294565b5b835b81811015613b4457803567ffffffffffffffff811115613b2257613b216131d7565b5b808601613b2f8982613a99565b85526020850194505050602081019050613aff565b5050509392505050565b600082601f830112613b6357613b626131d7565b5b8135613b73848260208601613ac7565b91505092915050565b60008060008060008060c08789031215613b9957613b9861316f565b5b6000613ba789828a016132ba565b965050602087013567ffffffffffffffff811115613bc857613bc7613174565b5b613bd489828a01613909565b955050604087013567ffffffffffffffff811115613bf557613bf4613174565b5b613c0189828a016139cc565b945050606087013567ffffffffffffffff811115613c2257613c21613174565b5b613c2e89828a01613b4e565b9350506080613c3f89828a01613767565b92505060a0613c5089828a01613767565b9150509295509295509295565b600065ffffffffffff82169050919050565b613c7881613c5d565b8114613c8357600080fd5b50565b600081359050613c9581613c6f565b92915050565b60007fff0000000000000000000000000000000000000000000000000000000000000082169050919050565b613cd081613c9b565b8114613cdb57600080fd5b50565b600081359050613ced81613cc7565b92915050565b600080600080600080600060e0888a031215613d1257613d1161316f565b5b600088013567ffffffffffffffff811115613d3057613d2f613174565b5b613d3c8a828b01613909565b975050602088013567ffffffffffffffff811115613d5d57613d5c613174565b5b613d698a828b01613909565b9650506040613d7a8a828b01613767565b9550506060613d8b8a828b01613767565b9450506080613d9c8a828b01613c86565b93505060a0613dad8a828b01613c86565b92505060c0613dbe8a828b01613cde565b91505092959891949750929550565b7f4e487b7100000000000000000000000000000000000000000000000000000000600052603260045260246000fd5b6000819050919050565b7f4e487b7100000000000000000000000000000000000000000000000000000000600052601160045260246000fd5b6000613e4082613dfc565b9150613e4b83613dfc565b925082821015613e5e57613e5d613e06565b5b828203905092915050565b6000613e7482613dfc565b9150613e7f83613dfc565b9250827fffffffffffffffffffffffffffffffffffffffffffffffffffffffffffffffff03821115613eb457613eb3613e06565b5b828201905092915050565b6000613eca82613743565b915060ff8203613edd57613edc613e06565b5b600182019050919050565b60007fffffffffffffffffffffffff000000000000000000000000000000000000000082169050919050565b6000819050919050565b613f2f613f2a82613ee8565b613f14565b82525050565b60007fffffffffffffffffffffffffffffffffffffffff00000000000000000000000082169050919050565b6000819050919050565b613f7c613f7782613f35565b613f61565b82525050565b6000613f8e8285613f1e565b600c82019150613f9e8284613f6b565b6014820191508190509392505050565b6000819050602082019050919050565b6000613fca8251613299565b80915050919050565b600082821b905092915050565b6000613feb8261356a565b82613ff584613fae565b905061400081613fbe565b925060208210156140405761403b7fffffffffffffffffffffffffffffffffffffffffffffffffffffffffffffffff83602003600802613fd3565b831692505b5050919050565b6000819050919050565b61406261405d82613299565b614047565b82525050565b60006140748284614051565b60208201915081905092915050565b61408c81613299565b82525050565b60006020820190506140a76000830184614083565b92915050565b60006140c06140bb84613a26565b61324d565b9050828152602081018484840111156140dc576140db613882565b5b6140e7848285613586565b509392505050565b600082601f830112614104576141036131d7565b5b81516141148482602086016140ad565b91505092915050565b6000602082840312156141335761413261316f565b5b600082015167ffffffffffffffff81111561415157614150613174565b5b61415d848285016140ef565b91505092915050565b60007fffffffffffffffffffffffffffffffff0000000000000000000000000000000082169050919050565b600061419e8251614166565b80915050919050565b60006141b28261356a565b826141bc84613fae565b90506141c781614192565b92506010821015614207576142027fffffffffffffffffffffffffffffffff0000000000000000000000000000000083601003600802613fd3565b831692505b5050919050565b6000819050919050565b61422961422482614166565b61420e565b82525050565b600061423b8285614218565b60108201915061424b8284614218565b6010820191508190509392505050565b60006142678284613f6b565b60148201915081905092915050565b60006fffffffffffffffffffffffffffffffff82169050919050565b600061429d82614276565b91506142a883614276565b9250826fffffffffffffffffffffffffffffffff038211156142cd576142cc613e06565b5b828201905092915050565b60006142e48284614218565b60108201915081905092915050565b60007fffffffffffff000000000000000000000000000000000000000000000000000082169050919050565b600061432b82516142f3565b80915050919050565b600061433f8261356a565b8261434984613fae565b90506143548161431f565b925060068210156143945761438f7fffffffffffff000000000000000000000000000000000000000000000000000083600603600802613fd3565b831692505b5050919050565b60007fffffffffffffffffffffffffffffffffffffffffffff0000000000000000000082169050919050565b60006143d28261439b565b9050919050565b6143e2816143c7565b82525050565b60006020820190506143fd60008301846143d9565b92915050565b6000819050919050565b60007fffff00000000000000000000000000000000000000000000000000000000000082169050919050565b60008160f01b9050919050565b600061446161445c61445784614403565b614439565b61440d565b9050919050565b61447181614446565b82525050565b600060208201905061448c6000830184614468565b92915050565b6000819050919050565b6144ad6144a8826133ef565b614492565b82525050565b6000819050919050565b6144ce6144c98261439b565b6144b3565b82525050565b60006144e0828561449c565b600a820191506144f082846144bd565b6016820191508190509392505050565b6000819050919050565b600061452561452061451b84614500565b614439565b61440d565b9050919050565b6145358161450a565b82525050565b6000602082019050614550600083018461452c565b92915050565b60006145628251613c9b565b80915050919050565b60006145768261356a565b8261458084613fae565b905061458b81614556565b925060018210156145cb576145c67fff0000000000000000000000000000000000000000000000000000000000000083600103600802613fd3565b831692505b5050919050565b60006145de8251613f35565b80915050919050565b60006145f28261356a565b826145fc84613fae565b9050614607816145d2565b92506014821015614647576146427fffffffffffffffffffffffffffffffffffffffff00000000000000000000000083601403600802613fd3565b831692505b5050919050565b600061465a825161440d565b80915050919050565b600061466e8261356a565b8261467884613fae565b90506146838161464e565b925060028210156146c3576146be7fffff00000000000000000000000000000000000000000000000000000000000083600203600802613fd3565b831692505b5050919050565b60006146d582614276565b91506fffffffffffffffffffffffffffffffff82036146f7576146f6613e06565b5b600182019050919050565b7f4e487b7100000000000000000000000000000000000000000000000000000000600052601260045260246000fd5b600061473c82613743565b915061474783613743565b92508261475757614756614702565b5b828204905092915050565b600061476d82613dfc565b915061477883613dfc565b9250817fffffffffffffffffffffffffffffffffffffffffffffffffffffffffffffffff04831182151516156147b1576147b0613e06565b5b828202905092915050565b60006147c782613dfc565b91506147d283613dfc565b9250826147e2576147e1614702565b5b828204905092915050565b60006147f882613dfc565b91507fffffffffffffffffffffffffffffffffffffffffffffffffffffffffffffffff820361482a57614829613e06565b5b600182019050919050565b600081905092915050565b600061484b8261356a565b6148558185614835565b9350614865818560208601613586565b80840191505092915050565b600061487d8284614840565b915081905092915050565b6000819050919050565b60006148ad6148a86148a384614888565b614439565b61440d565b9050919050565b6148bd81614892565b82525050565b60006020820190506148d860008301846148b4565b92915050565b6000819050919050565b60006149036148fe6148f9846148de565b614439565b61440d565b9050919050565b614913816148e8565b82525050565b600060208201905061492e600083018461490a565b92915050565b600061ffff82169050919050565b600061494d82614934565b915061495883614934565b92508261ffff0382111561496f5761496e613e06565b5b828201905092915050565b6000819050919050565b614995614990826136bf565b61497a565b82525050565b6000819050919050565b6149b66149b18261440d565b61499b565b82525050565b60006149c88285614984565b601e820191506149d882846149a5565b6002820191508190509392505050565b6000819050919050565b6000614a0d614a08614a03846149e8565b614439565b61440d565b9050919050565b614a1d816149f2565b82525050565b6000602082019050614a386000830184614a14565b92915050565b6000819050919050565b6000614a63614a5e614a5984614a3e565b614439565b61440d565b9050919050565b614a7381614a48565b82525050565b6000602082019050614a8e6000830184614a6a565b92915050565b6000819050919050565b6000614ab9614ab4614aaf84614a94565b614439565b61440d565b9050919050565b614ac981614a9e565b82525050565b6000602082019050614ae46000830184614ac0565b92915050565b6000614af582614934565b915061ffff8203614b0957614b08613e06565b5b600182019050919050565b6000819050919050565b614b2f614b2a826142f3565b614b14565b82525050565b6000614b418284614b1e565b60068201915081905092915050565b6000819050919050565b614b6b614b6682613c9b565b614b50565b82525050565b6000614b7d8284614b5a565b60018201915081905092915050565b614b9581613199565b82525050565b600081519050919050565b600082825260208201905092915050565b6000614bc282614b9b565b614bcc8185614ba6565b9350614bdc818560208601613586565b614be5816131dc565b840191505092915050565b6000604082019050614c056000830185614b8c565b8181036020830152614c178184614bb7565b90509392505050565b600082825260208201905092915050565b6000614c3c8261356a565b614c468185614c20565b9350614c56818560208601613586565b614c5f816131dc565b840191505092915050565b6000604082019050614c7f6000830185614083565b8181036020830152614c918184614c31565b90509392505050565b60006020820190508181036000830152614cb48184614c31565b905092915050565b600081519050919050565b600082825260208201905092915050565b6000819050602082019050919050565b614cf181613299565b82525050565b6000614d038383614ce8565b60208301905092915050565b6000602082019050919050565b6000614d2782614cbc565b614d318185614cc7565b9350614d3c83614cd8565b8060005b83811015614d6d578151614d548882614cf7565b9750614d5f83614d0f565b925050600181019050614d40565b5085935050505092915050565b60006040820190508181036000830152614d948185614d1c565b90508181036020830152614da88184613613565b90509392505050565b6000614dbd828661449c565b600a82019150614dcd82856149a5565b600282019150614ddd8284613f6b565b601482019150819050949350505050565b60007fffffffff0000000000000000000000000000000000000000000000000000000082169050919050565b6000819050919050565b614e35614e3082614dee565b614e1a565b82525050565b6000614e478285614b1e565b600682019150614e578284614e24565b6004820191508190509392505050565b6000614e7382516133ef565b80915050919050565b6000614e878261356a565b82614e9184613fae565b9050614e9c81614e67565b9250600a821015614edc57614ed77fffffffffffffffffffff0000000000000000000000000000000000000000000083600a03600802613fd3565b831692505b505091905056fea2646970667358221220695682e29dd040a3afc004d0309429c9072ddd66d0d34a9a264dd68e49025a1764736f6c634300080f0033",
  "immutableReferences": {},
  "source": "// SPDX-License-Identifier: CC0-1.0\n\npragma solidity ^0.8.0;\n\nimport {IERC725Y} from \"@erc725/smart-contracts/contracts/interfaces/IERC725Y.sol\";\nimport {ILSP6KeyManager} from \"@lukso/lsp-smart-contracts/contracts/LSP6KeyManager/ILSP6KeyManager.sol\";\nimport {IDaoKeyManager} from \"./IDaoKeyManager.sol\";\nimport {\n  NoPermissionsSet,\n  NotAuthorised\n} from \"@lukso/lsp-smart-contracts/contracts/LSP6KeyManager/LSP6Errors.sol\";\nimport {\n  _LSP6KEY_ADDRESSPERMISSIONS_ARRAY,\n  _LSP6KEY_ADDRESSPERMISSIONS_ARRAY_PREFIX,\n  _LSP6KEY_ADDRESSPERMISSIONS_DAOPERMISSIONS_PREFIX,\n  _PERMISSION_VOTE,\n  _PERMISSION_PROPOSE,\n  _PERMISSION_EXECUTE,\n  _PERMISSION_SENDDELEGATE,\n  _PERMISSION_RECIEVEDELEGATE,\n  _PERMISSION_MASTER,\n\n  _KEY_TITLE,\n  _KEY_DESCRIPTION,\n  _KEY_MAJORITY,\n  _KEY_PARTICIPATIONRATE,\n  _KEY_VOTINGDELAY,\n  _KEY_VOTINGPERIOD,\n  _KEY_TOKENGATED,\n\n  _KEY_DELEGATEVOTE,\n  _KEY_ADDRESSDELEGATES_ARRAY_PREFIX,\n\n  _KEY_PROPOSAL_PREFIX,\n  _KEY_PROPOSAL_TITLE_SUFFIX,\n  _KEY_PROPOSAL_DESCRIPTION_SUFFIX,\n  _KEY_PROPOSAL_CREATIONTIMESTAMP_SUFFIX,\n  _KEY_PROPOSAL_TARGETSARRAY_SUFFIX,\n  _KEY_PROPOSAL_DATASARRAY_SUFFIX,\n  _KEY_PROPOSAL_PROPOSALCHOICES_SUFFIX,\n  _KEY_PROPOSAL_MAXIMUMCHOICESPERVOTE_SUFFIX,\n  _KEY_PARTICIPANT_VOTE,\n\n  setDataSingleSelector,\n  setDataMultipleSelector,\n  execute,\n\n  _SPLIT_BYTES32_IN_TWO_HALFS\n} from \"./DaoConstants.sol\";\nimport {ErrorWithNumber} from \"../Errors.sol\";\n\n/**\n *\n* @notice This smart contract is responsible for managing the DAO Keys.\n *\n * @author B00ste\n * @title DaoKeyManager\n * @custom:version 1\n */\ncontract DaoKeyManager is IDaoKeyManager {\n\n  /**\n   * @notice Address of the DAO_ACCOUNT.\n   */\n  address payable private UNIVERSAL_PROFILE;\n\n  /**\n   * @notice Address of the KEY_MANAGER.\n   */\n  address private KEY_MANAGER;\n\n  /**\n   * @dev\n   */\n  constructor(\n    address payable _UNIVERSAL_PROFILE,\n    address _KEY_MANAGER\n  ) {\n    UNIVERSAL_PROFILE = _UNIVERSAL_PROFILE;\n    KEY_MANAGER = _KEY_MANAGER;\n  }\n  function init(\n    string memory title,\n    string memory description,\n    uint8 majority,\n    uint8 participationRate,\n    uint48 votingDelay,\n    uint48 votingPeriod,\n    bytes1 tokenGated\n  ) external {\n\n    bytes32[] memory keys = new bytes32[](7);\n    keys[0] = _KEY_TITLE;\n    keys[1] = _KEY_DESCRIPTION;\n    keys[2] = _KEY_MAJORITY;\n    keys[3] = _KEY_PARTICIPATIONRATE;\n    keys[4] = _KEY_VOTINGDELAY;\n    keys[5] = _KEY_VOTINGPERIOD;\n    keys[6] = _KEY_TOKENGATED;\n\n    bytes[] memory values = new bytes[](7);\n    values[0] = bytes(title);\n    values[1] = bytes(description);\n    values[2] = bytes.concat(bytes1(majority));\n    values[3] = bytes.concat(bytes1(participationRate));\n    values[4] = bytes.concat(bytes6(votingDelay));\n    values[5] = bytes.concat(bytes6(votingPeriod));\n    values[6] = bytes.concat(tokenGated);\n\n    _setData(keys, values);\n\n  }\n\n  // --- General Methods.\n\n\n  /**\n   * @inheritdoc IDaoKeyManager\n   */\n  function togglePermissions(address _to, bytes32[] memory _permissions) external override {\n    _verifyPermission(msg.sender, _PERMISSION_MASTER, \"MASTER\");\n\n    bytes32 permissions = _getPermissions(_to);\n    for (uint8 i = 0; i < _permissions.length; i++) {\n      if (permissions & _permissions[i] != 0) {\n        permissions = bytes32(uint256(permissions) - uint256(_permissions[i]));\n      }\n      else {\n        permissions = bytes32(uint256(permissions) + uint256(_permissions[i]));\n      }\n    }\n\n    bytes32[] memory keys = new bytes32[](1);\n    keys[0] = bytes32(bytes.concat(_LSP6KEY_ADDRESSPERMISSIONS_DAOPERMISSIONS_PREFIX, bytes20(_to)));\n    bytes[] memory values = new bytes[](1);\n    values[0] = bytes.concat(permissions);\n    _setData(keys, values);\n  }\n\n  /**\n   * @inheritdoc IDaoKeyManager\n   */\n  function delegate(address delegatee) external override {\n    _verifyPermission(msg.sender, _PERMISSION_SENDDELEGATE, \"SENDDELEGATE\");\n    _verifyPermission(delegatee, _PERMISSION_RECIEVEDELEGATE, \"RECIEVEDELEGATE\");\n\n    bytes32 arrayKey = bytes32(bytes.concat(_KEY_ADDRESSDELEGATES_ARRAY_PREFIX, bytes20(delegatee)));\n    uint128 arrayLength = uint128(bytes16(IERC725Y(UNIVERSAL_PROFILE).getData(arrayKey)));\n\n    bytes32[] memory keys = new bytes32[](2);\n    keys[0] = bytes32(bytes.concat(_SPLIT_BYTES32_IN_TWO_HALFS(arrayKey)[0], bytes16(arrayLength)));\n    keys[1] = arrayKey;\n    keys[2] = bytes32(bytes.concat(_KEY_DELEGATEVOTE, bytes20(msg.sender)));\n    bytes[] memory values = new bytes[](2);\n    values[0] = bytes.concat(bytes20(msg.sender));\n    values[1] = bytes.concat(bytes16(arrayLength + 1));\n    values[2] = bytes.concat(bytes20(delegatee));\n  \n    _setData(keys, values);\n  }\n\n  /**\n   * @inheritdoc IDaoKeyManager\n   */\n  function createProposal(\n    bytes32 title,\n    string memory description,\n    address[] memory targets,\n    bytes[] memory datas,\n    uint8 choices,\n    uint8 choicesPerVote\n  ) external override {\n    _verifyPermission(msg.sender, _PERMISSION_PROPOSE, \"PROPOSE\");\n    if (targets.length != datas.length) revert ErrorWithNumber(0x000C);\n    if (choices > 16) revert ErrorWithNumber(0x000D);\n    if (choicesPerVote > choices) revert ErrorWithNumber(0x000E);\n\n    uint256 arraysLength = 2 * targets.length;\n    bytes10 KEY_PROPOSAL_PREFIX = _KEY_PROPOSAL_PREFIX(uint48(block.timestamp), title);\n    bytes32[] memory keys = new bytes32[](arraysLength + 7);\n    bytes[] memory values = new bytes[](arraysLength + 7);\n\n    if(arraysLength > 0){\n      for (uint16 i = 0; i < targets.length; i++) {\n        keys[i] = bytes32(bytes.concat(\n          _SPLIT_BYTES32_IN_TWO_HALFS(bytes32(bytes.concat(KEY_PROPOSAL_PREFIX, _KEY_PROPOSAL_TARGETSARRAY_SUFFIX)))[0],\n          bytes16(uint128(i))\n        ));\n        keys[i + targets.length] = bytes32(bytes.concat(\n          _SPLIT_BYTES32_IN_TWO_HALFS(bytes32(bytes.concat(KEY_PROPOSAL_PREFIX, _KEY_PROPOSAL_DATASARRAY_SUFFIX)))[0],\n          bytes16(uint128(i))\n        ));\n\n        values[i] = bytes.concat(bytes20(targets[i]));\n        values[i + targets.length] = datas[i];\n      } \n    }\n\n    keys[arraysLength + 0] = bytes32(bytes.concat(KEY_PROPOSAL_PREFIX, _KEY_PROPOSAL_TARGETSARRAY_SUFFIX));\n    keys[arraysLength + 1] = bytes32(bytes.concat(KEY_PROPOSAL_PREFIX, _KEY_PROPOSAL_DATASARRAY_SUFFIX));\n    keys[arraysLength + 2] = bytes32(bytes.concat(KEY_PROPOSAL_PREFIX, _KEY_PROPOSAL_TITLE_SUFFIX));\n    keys[arraysLength + 3] = bytes32(bytes.concat(KEY_PROPOSAL_PREFIX, _KEY_PROPOSAL_DESCRIPTION_SUFFIX));\n    keys[arraysLength + 4] = bytes32(bytes.concat(KEY_PROPOSAL_PREFIX, _KEY_PROPOSAL_CREATIONTIMESTAMP_SUFFIX));\n    keys[arraysLength + 5] = bytes32(bytes.concat(KEY_PROPOSAL_PREFIX, _KEY_PROPOSAL_PROPOSALCHOICES_SUFFIX));\n    keys[arraysLength + 6] = bytes32(bytes.concat(KEY_PROPOSAL_PREFIX, _KEY_PROPOSAL_MAXIMUMCHOICESPERVOTE_SUFFIX));\n\n    values[arraysLength + 0] = bytes.concat(bytes32(targets.length));\n    values[arraysLength + 1] = bytes.concat(bytes32(datas.length));\n    values[arraysLength + 2] = bytes.concat(title);\n    values[arraysLength + 3] = bytes(description);\n    values[arraysLength + 4] = bytes.concat(bytes6(uint48(block.timestamp)));\n    values[arraysLength + 5] = bytes.concat(bytes1(choices));\n    values[arraysLength + 6] = bytes.concat(bytes1(choicesPerVote));\n\n    _setData(keys, values);\n  }\n\n  /**\n   * @inheritdoc IDaoKeyManager\n   */\n  function executeProposal(\n    bytes10 proposalSignature\n  )\n    external override\n    returns(bool[] memory success, bytes[] memory results)\n  {\n    _verifyPermission(msg.sender, _PERMISSION_EXECUTE, \"EXECUTE\");\n    if (\n      uint256(uint48(bytes6(IERC725Y(UNIVERSAL_PROFILE).getData(_KEY_PROPOSAL_CREATIONTIMESTAMP_SUFFIX))))\n      + uint256(uint48(bytes6(IERC725Y(UNIVERSAL_PROFILE).getData(_KEY_VOTINGDELAY))))\n      + uint256(uint48(bytes6(IERC725Y(UNIVERSAL_PROFILE).getData(_KEY_VOTINGPERIOD))))\n      > block.timestamp\n    ) revert ErrorWithNumber(0x000F);\n    if (\n      uint256(bytes32(IERC725Y(UNIVERSAL_PROFILE).getData(\n        bytes32(bytes.concat(proposalSignature, _KEY_PROPOSAL_MAXIMUMCHOICESPERVOTE_SUFFIX))\n      ))) == 0\n    ) revert ErrorWithNumber(0x0010);\n\n    /**\n     * @dev Count all the votes by accessing the choices of all of the participants\n     * of the DAO.\n     * 1. Get the user address and verify its permissions.\n     * 2. If `user` has vote permission and did not delegate his vote\n     * we will save his number of votes as 1 and save his choices for later use.\n     * 3. We verify if the `user` has the RECIEVEDELEGATE permission and if so\n     * we will increase his number of votes by the number of votes delegated to him.\n     * 4. After we got all the needed info we can add the number of votes to the choises of the `user`\n     */  \n    uint8 nrOfChoices =  uint8(bytes1(IERC725Y(UNIVERSAL_PROFILE).getData(bytes32(bytes.concat(proposalSignature, _KEY_PROPOSAL_PROPOSALCHOICES_SUFFIX)))));\n    uint256 totalUsers = uint256(bytes32(IERC725Y(UNIVERSAL_PROFILE).getData(_LSP6KEY_ADDRESSPERMISSIONS_ARRAY)));\n    uint256[] memory votesByChoiceIndex = new uint256[](nrOfChoices);\n    for (uint128 i = 0; i < totalUsers; i++) {\n      address user = address(bytes20(IERC725Y(UNIVERSAL_PROFILE).getData(\n        bytes32(bytes.concat(_LSP6KEY_ADDRESSPERMISSIONS_ARRAY_PREFIX, bytes16(i)))\n      )));\n      bytes32 permissions = _getPermissions(user);\n      bytes20 delegatedTo = bytes20(IERC725Y(UNIVERSAL_PROFILE).getData(\n        bytes32(bytes.concat(_KEY_DELEGATEVOTE, bytes20(user)))\n      ));\n      if (permissions & _PERMISSION_VOTE != 0) {\n        bytes2 choices;\n        uint256 votes;\n        if (delegatedTo == bytes20(0)) {\n          votes = 1;\n          choices = bytes2(IERC725Y(UNIVERSAL_PROFILE).getData(\n            _KEY_PARTICIPANT_VOTE(proposalSignature, user)\n          ));\n        }\n        else {\n          votes = 0;\n        }\n        if (permissions & _PERMISSION_RECIEVEDELEGATE != 0) {\n          votes += uint256(bytes32(IERC725Y(UNIVERSAL_PROFILE).getData(\n            bytes32(bytes.concat(_KEY_ADDRESSDELEGATES_ARRAY_PREFIX, bytes20(user)))\n          )));\n        }\n        for(uint8 j = 0; j < nrOfChoices; j++) {\n          choices & bytes2(uint16(1 << j)) != 0 ? votesByChoiceIndex[j] += votes : 0;\n        }\n      }\n    }\n\n    /**\n     * @dev We split all the choices between `negativeVotes` and `positiveVotes`\n     *  ____________________________________\n     * |  1  |  2  |  3  | 4 | 5  | 6  | 7  |\n     * | -42 | -28 | -14 | 0 | 14 | 28 | 42 |\n     * |_____|_____|_____|___|____|____|____|\n     *\n     */\n    uint256 totalVotes;\n    uint256 negativeVotes;\n    uint256 positiveVotes;\n    for (uint256 i = 0; i < nrOfChoices; i++) {\n      totalVotes += votesByChoiceIndex[i];\n      if (i < nrOfChoices/2) {\n        negativeVotes += ((nrOfChoices/2 - i) * 100/nrOfChoices);\n      }\n      else {\n        positiveVotes += ((i - nrOfChoices/2) * 100/nrOfChoices);\n      }\n    }\n\n    uint256 majority = uint256(bytes32(IERC725Y(UNIVERSAL_PROFILE).getData(_KEY_MAJORITY)));\n    uint256 participationRate = uint256(bytes32(IERC725Y(UNIVERSAL_PROFILE).getData(\n      _KEY_PARTICIPATIONRATE\n    )));\n\n    /**\n     * @dev Check if the proposal has passed and execute the saved methods.\n     */\n    if(\n      totalVotes/totalUsers > participationRate/totalUsers &&\n      positiveVotes/totalVotes > majority/totalVotes\n    ) {\n      bytes32 targetsKey = bytes32(bytes.concat(proposalSignature, _KEY_PROPOSAL_TARGETSARRAY_SUFFIX));\n      bytes32 datasKey = bytes32(bytes.concat(proposalSignature, _KEY_PROPOSAL_DATASARRAY_SUFFIX));\n      uint256 arrayLength = uint256(bytes32(IERC725Y(UNIVERSAL_PROFILE).getData(targetsKey)));\n      success = new bool[](arrayLength);\n      results = new bytes[](arrayLength);\n      for (uint256 i = 0; i < arrayLength; i++) {\n        (success[i], results[i]) = address(bytes20(IERC725Y(UNIVERSAL_PROFILE).getData(targetsKey)))\n        .call(IERC725Y(UNIVERSAL_PROFILE).getData(datasKey));\n      }\n    }\n\n  }\n\n  /**\n   * @inheritdoc IDaoKeyManager\n   */\n  function vote(\n    bytes10 proposalSignature,\n    bytes30 voteDescription,\n    uint8[] memory choicesArray\n  ) external override {\n    _verifyPermission(msg.sender, _PERMISSION_VOTE, \"VOTE\");\n    if (\n      uint256(bytes32(\n        IERC725Y(UNIVERSAL_PROFILE).getData(\n          _KEY_PARTICIPANT_VOTE(proposalSignature, msg.sender)\n        )\n      )) != 0\n    ) revert ErrorWithNumber(0x0011);\n    if (\n      uint8(bytes1(IERC725Y(UNIVERSAL_PROFILE).getData(\n        bytes32(bytes.concat(proposalSignature, _KEY_PROPOSAL_MAXIMUMCHOICESPERVOTE_SUFFIX))\n      ))) < choicesArray.length\n    ) revert ErrorWithNumber(0x0012);\n\n    uint16 choices = 0;\n    for(uint128 i = 0; i < choicesArray.length; i++) {\n      if(\n      uint8(bytes1(IERC725Y(UNIVERSAL_PROFILE).getData(\n        bytes32(bytes.concat(\n          _SPLIT_BYTES32_IN_TWO_HALFS(\n            bytes32(bytes.concat(\n              proposalSignature, _KEY_PROPOSAL_PROPOSALCHOICES_SUFFIX\n            ))\n          )[0],\n          bytes16(i)\n        ))\n      ))) == choicesArray[i]\n      ) {\n        choices = choices + uint16(1 << i);\n      }\n    }\n\n    bytes32[] memory keys = new bytes32[](1);\n    keys[0] = _KEY_PARTICIPANT_VOTE(proposalSignature, msg.sender);\n    bytes[] memory values = new bytes[](1);\n    values[0] = bytes.concat(voteDescription, bytes2(choices));\n    _setData(keys, values);\n  }\n\n\n  // --- Internal Methods.\n\n  /**\n   * @dev\n   */\n  function _getPermissions(\n    address _from\n  )\n    internal\n    view\n    returns(bytes32 permissions)\n  {\n    permissions = bytes32(IERC725Y(UNIVERSAL_PROFILE).getData(bytes32(bytes.concat(\n      _LSP6KEY_ADDRESSPERMISSIONS_DAOPERMISSIONS_PREFIX,\n      bytes20(_from)\n    ))));\n  }\n\n  /**\n   * @dev\n   */\n  function _verifyPermission(\n    address _from,\n    bytes32 _permission,\n    string memory _permissionName\n  )\n    internal\n    view\n  {\n    bytes32 permissions = _getPermissions(_from);\n    if(permissions & _permission == 0) revert NotAuthorised(_from, _permissionName);\n  }\n\n  /**\n   * @dev\n   */\n  function _setData(\n    bytes32[] memory _keys,\n    bytes[] memory _values\n  ) internal returns(bytes memory result) {\n    require(_keys.length == _values.length);\n    require(_keys.length > 0);\n    \n    if(_keys.length == 1) {\n      result = ILSP6KeyManager(KEY_MANAGER).execute(\n        abi.encodeWithSelector(\n          setDataSingleSelector, _keys[0], _values[0]\n        )\n      );\n    }\n    else {\n      result = ILSP6KeyManager(KEY_MANAGER).execute(\n        abi.encodeWithSelector(\n          setDataMultipleSelector, _keys, _values\n        )\n      );\n    }\n  }\n\n}",
  "sourcePath": "/home/b00ste/Projects/universal-profile-governance/contracts/DaoAccount/DaoKeyManager.sol",
  "compiler": {
    "name": "solc",
    "version": "0.8.15+commit.e14f2714.Emscripten.clang"
  },
  "schemaVersion": "3.4.8",
  "updatedAt": "2022-07-27T15:35:25.240Z",
  "networkType": "ethereum",
  "devdoc": {
    "author": "B00ste",
    "custom:version": "1",
    "errors": {
      "NotAuthorised(address,string)": [
        {
          "details": "address `from` is not authorised to `permission`",
          "params": {
            "from": "address not-authorised",
            "permission": "permission required"
          }
        }
      ]
    },
    "kind": "dev",
    "methods": {},
    "title": "DaoKeyManager",
    "version": 1
  },
  "userdoc": {
    "kind": "user",
    "methods": {
      "createProposal(bytes32,string,address[],bytes[],uint8,uint8)": {
        "notice": "Create a proposal."
      },
      "delegate(address)": {
        "notice": "Delegate your vote."
      },
      "executeProposal(bytes10)": {
        "notice": "Execute the calldata of the Proposal if there is one."
      },
      "togglePermissions(address,bytes32[])": {
        "notice": "Toggle permissions of an address."
      },
      "vote(bytes10,bytes30,uint8[])": {
        "notice": "Vote on a proposal."
      }
    },
    "notice": "This smart contract is responsible for managing the DAO Keys.",
    "version": 1
  }
}