{
  "contractName": "DaoKeyManager",
  "abi": [
    {
      "inputs": [],
      "stateMutability": "nonpayable",
      "type": "constructor"
    },
    {
      "inputs": [
        {
          "internalType": "address",
          "name": "from",
          "type": "address"
        },
        {
          "internalType": "string",
          "name": "permission",
          "type": "string"
        }
      ],
      "name": "NotAuthorised",
      "type": "error"
    },
    {
      "inputs": [
        {
          "internalType": "address payable",
          "name": "_UNIVERSAL_PROFILE",
          "type": "address"
        },
        {
          "internalType": "string",
          "name": "title",
          "type": "string"
        },
        {
          "internalType": "string",
          "name": "description",
          "type": "string"
        },
        {
          "internalType": "uint8",
          "name": "majority",
          "type": "uint8"
        },
        {
          "internalType": "uint8",
          "name": "participationRate",
          "type": "uint8"
        },
        {
          "internalType": "uint48",
          "name": "votingDelay",
          "type": "uint48"
        },
        {
          "internalType": "uint48",
          "name": "votingPeriod",
          "type": "uint48"
        },
        {
          "internalType": "bytes1",
          "name": "tokenGated",
          "type": "bytes1"
        }
      ],
      "name": "initialize",
      "outputs": [],
      "stateMutability": "nonpayable",
      "type": "function"
    },
    {
      "inputs": [
        {
          "internalType": "address",
          "name": "delegatee",
          "type": "address"
        }
      ],
      "name": "delegate",
      "outputs": [],
      "stateMutability": "nonpayable",
      "type": "function"
    },
    {
      "inputs": [
        {
          "internalType": "string",
          "name": "title",
          "type": "string"
        },
        {
          "internalType": "string",
          "name": "description",
          "type": "string"
        },
        {
          "internalType": "address[]",
          "name": "targets",
          "type": "address[]"
        },
        {
          "internalType": "bytes[]",
          "name": "datas",
          "type": "bytes[]"
        },
        {
          "internalType": "bytes32[]",
          "name": "choices",
          "type": "bytes32[]"
        },
        {
          "internalType": "uint8",
          "name": "maximumChoicesPerVote",
          "type": "uint8"
        }
      ],
      "name": "createProposal",
      "outputs": [],
      "stateMutability": "nonpayable",
      "type": "function"
    },
    {
      "inputs": [
        {
          "internalType": "bytes10",
          "name": "proposalSignature",
          "type": "bytes10"
        }
      ],
      "name": "endProposal",
      "outputs": [],
      "stateMutability": "nonpayable",
      "type": "function"
    },
    {
      "inputs": [
        {
          "internalType": "bytes10",
          "name": "proposalSignature",
          "type": "bytes10"
        },
        {
          "internalType": "bytes30",
          "name": "voteDescription",
          "type": "bytes30"
        },
        {
          "internalType": "bytes32[]",
          "name": "choicesArray",
          "type": "bytes32[]"
        }
      ],
      "name": "vote",
      "outputs": [],
      "stateMutability": "nonpayable",
      "type": "function"
    }
  ],
  "bytecode": "0x608060405234801561001057600080fd5b50600180546001600160a01b031916331790556125f8806100326000396000f3fe608060405234801561001057600080fd5b50600436106100675760003560e01c80635c19a95c116100505780635c19a95c14610094578063aa328a49146100a7578063bc0e0925146100ba57600080fd5b80631284a79b1461006c57806341a3299d14610081575b600080fd5b61007f61007a366004611fb6565b6100cd565b005b61007f61008f3660046120ad565b6105db565b61007f6100a2366004612188565b610a8b565b61007f6100b53660046121bd565b610c77565b61007f6100c8366004612225565b611134565b61011133600260001b6040518060400160405280600781526020017f50524f504f5345000000000000000000000000000000000000000000000000008152506113dc565b825184511461018d5760405162461bcd60e51b815260206004820152602c60248201527f746172676574732e6c656e677468206d75737420626520657175616c20746f2060448201527f64617461732e6c656e677468000000000000000000000000000000000000000060648201526084015b60405180910390fd5b60108251111580156101a3575060108160ff1611155b6101ef5760405162461bcd60e51b815260206004820181905260248201527f596f752063616e2068617665206d6178696d756d2031362063686f696365732e6044820152606401610184565b60408051600780825261010082019092526000916020820160e080368337019050509050600061021f428961142f565b604080516001600160b01b0319831660208201527d3f82a2b5852cbedcda3d9062384397479ac9a00d00000000000000000000602a8201529192500160405160208183030381529060405261027390612240565b8260008151811061028657610286612267565b602090810291909101810191909152604080516001600160b01b03198416818401527d95e794640ff3efd16bfe738f1a9bf2886d166af500000000000000000000602a82015281518082039093018352810190526102e390612240565b826000815181106102f6576102f6612267565b602090810291909101810191909152604080516001600160b01b03198416818401527dbd3132afbfa232f7d171a873f7e52e32c666b06d00000000000000000000602a820152815180820390930183528101905261035390612240565b8260008151811061036657610366612267565b602090810291909101810191909152604080516001600160b01b03198416818401527ded458cca63dcf8476211a40ad15420dcabc377f000000000000000000000602a82015281518082039093018352810190526103c390612240565b826000815181106103d6576103d6612267565b60209081029190910101526040805160078082526101008201909252600091816020015b60608152602001906001900390816103fa579050509050888160008151811061042557610425612267565b6020026020010181905250878160008151811061044457610444612267565b60200260200101819052504260d01b60405160200161047391906001600160d01b031991909116815260060190565b6040516020818303038152906040528160008151811061049557610495612267565b60200260200101819052508360f81b6040516020016104c491906001600160f81b031991909116815260010190565b604051602081830303815290604052816000815181106104e6576104e6612267565b60209081029190910101526000546040516314a6e29360e01b81526001600160a01b03909116906314a6e2939061052390869085906004016122d5565b600060405180830381600087803b15801561053d57600080fd5b505af1158015610551573d6000803e3d6000fd5b5061058092507dba6d4933d1a0fbfd29728a3ed8d0a7aca50635b50000000000000000000091508990506114a4565b6105a87d478499bb6846f8a28632137c772be842c41b31050000000000000000000087611698565b6105d07d8141b895c75785b22c0f5986707a8c76667932270000000000000000000086611803565b505050505050505050565b6001546001600160a01b031633146105f257600080fd5b600080547fffffffffffffffffffffffff0000000000000000000000000000000000000000166001600160a01b038a161781556040805160078082526101008201909252906020820160e0803683370190505090507f3f82a2b5852cbedcda3d9062384397479ac9a00dae9991874d842bec7aab98ce60001b8160008151811061067e5761067e612267565b6020026020010181815250507f95e794640ff3efd16bfe738f1a9bf2886d166af549121f57d6e14af6b513f45d60001b816001815181106106c1576106c1612267565b6020026020010181815250507fbc776f168e7b9c60bb2a7180950facd372cd90c841732d963c31a93ff9f8c12760001b8160028151811061070457610704612267565b6020026020010181815250507ff89f507ecd9cb7646ce1514ec6ab90d695dac9314c3771f451fd90148a3335a960001b8160038151811061074757610747612267565b6020026020010181815250507f5bd05fa174be6a4aa4a8222f8837a27a381de14e7797cf7945df58b0626e6c3d60001b8160048151811061078a5761078a612267565b6020026020010181815250507fd08ca3a83d59467dd8ba57e940549874ea8310a1ebfb4396959235b00035d77760001b816005815181106107cd576107cd612267565b6020026020010181815250507fa45b1e711ab5d2d7654c92da78c9148c51fb0a58b116afda9fbf612c88e9680d60001b8160068151811061081057610810612267565b60209081029190910101526040805160078082526101008201909252600091816020015b6060815260200190600190039081610834579050509050888160008151811061085f5761085f612267565b6020026020010181905250878160018151811061087e5761087e612267565b60200260200101819052508660f81b6040516020016108ad91906001600160f81b031991909116815260010190565b604051602081830303815290604052816002815181106108cf576108cf612267565b60200260200101819052508560f81b6040516020016108fe91906001600160f81b031991909116815260010190565b6040516020818303038152906040528160038151811061092057610920612267565b60200260200101819052508460d01b60405160200161094f91906001600160d01b031991909116815260060190565b6040516020818303038152906040528160048151811061097157610971612267565b60200260200101819052508360d01b6040516020016109a091906001600160d01b031991909116815260060190565b604051602081830303815290604052816005815181106109c2576109c2612267565b6020026020010181905250826040516020016109ee91906001600160f81b031991909116815260010190565b60405160208183030381529060405281600681518110610a1057610a10612267565b60209081029190910101526000546040516314a6e29360e01b81526001600160a01b03909116906314a6e29390610a4d90859085906004016122d5565b600060405180830381600087803b158015610a6757600080fd5b505af1158015610a7b573d6000803e3d6000fd5b5050505050505050505050505050565b610acf33600860001b6040518060400160405280600c81526020017f53454e4444454c454741544500000000000000000000000000000000000000008152506113dc565b610b1381601060001b6040518060400160405280600f81526020017f5245434945564544454c454741544500000000000000000000000000000000008152506113dc565b604080517fc3f797d5c8ae536b82a60000000000000000000000000000000000000000000060208201526bffffffffffffffffffffffff19606084901b16602c820152610ba59101604051602081830303815290604052610b7390612240565b6040516bffffffffffffffffffffffff193360601b16602082015260340160405160208183030381529060405261198f565b600080546040805160208101939093526bffffffffffffffffffffffff193360601b16908301526001600160a01b031690637f23690c90605401604051602081830303815290604052610bf790612240565b6040516bffffffffffffffffffffffff19606086901b1660208201526034016040516020818303038152906040526040518363ffffffff1660e01b8152600401610c4292919061236d565b600060405180830381600087803b158015610c5c57600080fd5b505af1158015610c70573d6000803e3d6000fd5b5050505050565b610cbb33600160001b6040518060400160405280600481526020017f564f5445000000000000000000000000000000000000000000000000000000008152506113dc565b6000546001600160a01b03166354f6127f610cd68533611bc1565b6040518263ffffffff1660e01b8152600401610cf491815260200190565b600060405180830381865afa158015610d11573d6000803e3d6000fd5b505050506040513d6000823e601f3d908101601f19168201604052610d39919081019061238e565b610d4290612240565b15610d8f5760405162461bcd60e51b815260206004820152601360248201527f5573657220616c726561647920766f7465642e000000000000000000000000006044820152606401610184565b8051600054604080516001600160b01b0319871660208201527ded458cca63dcf8476211a40ad15420dcabc377f000000000000000000000602a8201526001600160a01b03909216916354f6127f9101604051602081830303815290604052610df790612240565b6040518263ffffffff1660e01b8152600401610e1591815260200190565b600060405180830381865afa158015610e32573d6000803e3d6000fd5b505050506040513d6000823e601f3d908101601f19168201604052610e5a919081019061238e565b610e6390612405565b60f81c1015610eda5760405162461bcd60e51b815260206004820152602360248201527f596f752068617665206d6f72652063686f69636573207468616e20616c6c6f7760448201527f65642e00000000000000000000000000000000000000000000000000000000006064820152608401610184565b6000805b8251816fffffffffffffffffffffffffffffffff1610156110785782816fffffffffffffffffffffffffffffffff1681518110610f1d57610f1d612267565b602090810291909101810151600054604080516001600160b01b03198a16818601527d8141b895c75785b22c0f5986707a8c766679322700000000000000000000602a820152815180820390950185528101905290916001600160a01b03909116906354f6127f90610f9790610f9290612240565b611c11565b51604080516001600160801b03199283166020820152608087901b909216603083015201604051602081830303815290604052610fd390612240565b6040518263ffffffff1660e01b8152600401610ff191815260200190565b600060405180830381865afa15801561100e573d6000803e3d6000fd5b505050506040513d6000823e601f3d908101601f19168201604052611036919081019061238e565b61103f90612240565b036110665761106360016fffffffffffffffffffffffffffffffff83161b83612453565b91505b8061107081612479565b915050610ede565b506000546001600160a01b0316637f23690c6110948633611bc1565b6040805161ffff19881660208201527fffff00000000000000000000000000000000000000000000000000000000000060f087901b16603e820152016040516020818303038152906040526040518363ffffffff1660e01b81526004016110fc92919061236d565b600060405180830381600087803b15801561111657600080fd5b505af115801561112a573d6000803e3d6000fd5b5050505050505050565b61117833600460001b6040518060400160405280600781526020017f45584543555445000000000000000000000000000000000000000000000000008152506113dc565b6000546040516354f6127f60e01b81527fd08ca3a83d59467dd8ba57e940549874ea8310a1ebfb4396959235b00035d777600482015242916001600160a01b0316906354f6127f90602401600060405180830381865afa1580156111e0573d6000803e3d6000fd5b505050506040513d6000823e601f3d908101601f19168201604052611208919081019061238e565b611211906124a8565b6000546040516354f6127f60e01b81527f5bd05fa174be6a4aa4a8222f8837a27a381de14e7797cf7945df58b0626e6c3d600482015260d09290921c916001600160a01b03909116906354f6127f90602401600060405180830381865afa158015611280573d6000803e3d6000fd5b505050506040513d6000823e601f3d908101601f191682016040526112a8919081019061238e565b6112b1906124a8565b6000546040516354f6127f60e01b81527dbd3132afbfa232f7d171a873f7e52e32c666b06d00000000000000000000600482015260d09290921c916001600160a01b03909116906354f6127f90602401600060405180830381865afa15801561131e573d6000803e3d6000fd5b505050506040513d6000823e601f3d908101601f19168201604052611346919081019061238e565b61134f906124a8565b61135c919060d01c6124dc565b61136691906124dc565b106113d95760405162461bcd60e51b815260206004820152602360248201527f5468652070726f706f73616c27732074696d6520646964206e6f74206578706960448201527f72652e00000000000000000000000000000000000000000000000000000000006064820152608401610184565b50565b60006113e784611c39565b90508281166000036114295783826040517f3bdad6e60000000000000000000000000000000000000000000000000000000081526004016101849291906124f4565b50505050565b60008260d01b82805190602001206040516020016114859291906001600160d01b03199290921682527fffffffff00000000000000000000000000000000000000000000000000000000166006820152600a0190565b60405160208183030381529060405261149d90612516565b9392505050565b6000815160016114b491906124dc565b67ffffffffffffffff8111156114cc576114cc611d3b565b6040519080825280602002602001820160405280156114f5578160200160208202803683370190505b50905060008251600161150891906124dc565b67ffffffffffffffff81111561152057611520611d3b565b60405190808252806020026020018201604052801561155357816020015b606081526020019060019003908161153e5790505b50905060005b81518110156116465761156b85611c11565b51604080516001600160801b03199283166020820152608084901b9092166030830152016040516020818303038152906040526115a790612240565b8382815181106115b9576115b9612267565b6020026020010181815250508381815181106115d7576115d7612267565b602002602001015160601b60405160200161160791906bffffffffffffffffffffffff1991909116815260140190565b60405160208183030381529060405282828151811061162857611628612267565b6020026020010181905250808061163e9061254a565b915050611559565b50838282518151811061165b5761165b612267565b60209081029190910101526000546040516314a6e29360e01b81526001600160a01b03909116906314a6e293906110fc90859085906004016122d5565b6000815160016116a891906124dc565b67ffffffffffffffff8111156116c0576116c0611d3b565b6040519080825280602002602001820160405280156116e9578160200160208202803683370190505b5090506000825160016116fc91906124dc565b67ffffffffffffffff81111561171457611714611d3b565b60405190808252806020026020018201604052801561174757816020015b60608152602001906001900390816117325790505b50905060005b81518110156116465761175f85611c11565b51604080516001600160801b03199283166020820152608084901b90921660308301520160405160208183030381529060405261179b90612240565b8382815181106117ad576117ad612267565b6020026020010181815250508381815181106117cb576117cb612267565b60200260200101518282815181106117e5576117e5612267565b602002602001018190525080806117fb9061254a565b91505061174d565b60008151600161181391906124dc565b67ffffffffffffffff81111561182b5761182b611d3b565b604051908082528060200260200182016040528015611854578160200160208202803683370190505b50905060008251600161186791906124dc565b67ffffffffffffffff81111561187f5761187f611d3b565b6040519080825280602002602001820160405280156118b257816020015b606081526020019060019003908161189d5790505b50905060005b8151811015611646576118ca85611c11565b51604080516001600160801b03199283166020820152608084901b90921660308301520160405160208183030381529060405261190690612240565b83828151811061191857611918612267565b60200260200101818152505083818151811061193657611936612267565b602002602001015160405160200161195091815260200190565b60405160208183030381529060405282828151811061197157611971612267565b602002602001018190525080806119879061254a565b9150506118b8565b600080546040516354f6127f60e01b8152600481018590526001600160a01b03909116906354f6127f90602401600060405180830381865afa1580156119d9573d6000803e3d6000fd5b505050506040513d6000823e601f3d908101601f19168201604052611a01919081019061238e565b611a0a90612563565b60408051600280825260608201835260809390931c93506000929091602083019080368337019050509050611a3e84611c11565b51604080516001600160801b03199283166020820152608085901b909216603083015201604051602081830303815290604052611a7a90612240565b81600081518110611a8d57611a8d612267565b6020026020010181815250508381600181518110611aad57611aad612267565b602090810291909101015260408051600280825260608201909252600091816020015b6060815260200190600190039081611ad05790505090508381600081518110611afb57611afb612267565b6020908102919091010152611b11836001612597565b60801b604051602001611b3491906001600160801b031991909116815260100190565b60405160208183030381529060405281600181518110611b5657611b56612267565b60209081029190910101526000546040516314a6e29360e01b81526001600160a01b03909116906314a6e29390611b9390859085906004016122d5565b600060405180830381600087803b158015611bad57600080fd5b505af11580156105d0573d6000803e3d6000fd5b604080516001600160b01b0319841660208201526000602a82018190526bffffffffffffffffffffffff19606085901b16602c830152910160405160208183030381529060405261149d90612240565b611c19611d1d565b506040805180820190915260006020820152818152601081019190915290565b60008054604080517f4b80742de2bfb3cc0e490000000000000000000000000000000000000000000060208201526bffffffffffffffffffffffff19606086901b16602c8201526001600160a01b03909216916354f6127f9101604051602081830303815290604052611cab90612240565b6040518263ffffffff1660e01b8152600401611cc991815260200190565b600060405180830381865afa158015611ce6573d6000803e3d6000fd5b505050506040513d6000823e601f3d908101601f19168201604052611d0e919081019061238e565b611d1790612240565b92915050565b60405180604001604052806002906020820280368337509192915050565b634e487b7160e01b600052604160045260246000fd5b604051601f8201601f1916810167ffffffffffffffff81118282101715611d7a57611d7a611d3b565b604052919050565b600067ffffffffffffffff821115611d9c57611d9c611d3b565b50601f01601f191660200190565b6000611dbd611db884611d82565b611d51565b9050828152838383011115611dd157600080fd5b828260208301376000602084830101529392505050565b600082601f830112611df957600080fd5b61149d83833560208501611daa565b600067ffffffffffffffff821115611e2257611e22611d3b565b5060051b60200190565b6001600160a01b03811681146113d957600080fd5b600082601f830112611e5257600080fd5b81356020611e62611db883611e08565b82815260059290921b84018101918181019086841115611e8157600080fd5b8286015b84811015611ea5578035611e9881611e2c565b8352918301918301611e85565b509695505050505050565b600082601f830112611ec157600080fd5b81356020611ed1611db883611e08565b82815260059290921b84018101918181019086841115611ef057600080fd5b8286015b84811015611ea557803567ffffffffffffffff811115611f145760008081fd5b8701603f81018913611f265760008081fd5b611f37898683013560408401611daa565b845250918301918301611ef4565b600082601f830112611f5657600080fd5b81356020611f66611db883611e08565b82815260059290921b84018101918181019086841115611f8557600080fd5b8286015b84811015611ea55780358352918301918301611f89565b803560ff81168114611fb157600080fd5b919050565b60008060008060008060c08789031215611fcf57600080fd5b863567ffffffffffffffff80821115611fe757600080fd5b611ff38a838b01611de8565b9750602089013591508082111561200957600080fd5b6120158a838b01611de8565b9650604089013591508082111561202b57600080fd5b6120378a838b01611e41565b9550606089013591508082111561204d57600080fd5b6120598a838b01611eb0565b9450608089013591508082111561206f57600080fd5b5061207c89828a01611f45565b92505061208b60a08801611fa0565b90509295509295509295565b803565ffffffffffff81168114611fb157600080fd5b600080600080600080600080610100898b0312156120ca57600080fd5b88356120d581611e2c565b9750602089013567ffffffffffffffff808211156120f257600080fd5b6120fe8c838d01611de8565b985060408b013591508082111561211457600080fd5b506121218b828c01611de8565b96505061213060608a01611fa0565b945061213e60808a01611fa0565b935061214c60a08a01612097565b925061215a60c08a01612097565b915060e08901356001600160f81b03198116811461217757600080fd5b809150509295985092959890939650565b60006020828403121561219a57600080fd5b813561149d81611e2c565b80356001600160b01b031981168114611fb157600080fd5b6000806000606084860312156121d257600080fd5b6121db846121a5565b9250602084013561ffff19811681146121f357600080fd5b9150604084013567ffffffffffffffff81111561220f57600080fd5b61221b86828701611f45565b9150509250925092565b60006020828403121561223757600080fd5b61149d826121a5565b80516020808301519190811015612261576000198160200360031b1b821691505b50919050565b634e487b7160e01b600052603260045260246000fd5b60005b83811015612298578181015183820152602001612280565b838111156114295750506000910152565b600081518084526122c181602086016020860161227d565b601f01601f19169290920160200192915050565b604080825283519082018190526000906020906060840190828701845b8281101561230e578151845292840192908401906001016122f2565b50505083810382850152845180825282820190600581901b8301840187850160005b8381101561235e57601f1986840301855261234c8383516122a9565b94870194925090860190600101612330565b50909998505050505050505050565b82815260406020820152600061238660408301846122a9565b949350505050565b6000602082840312156123a057600080fd5b815167ffffffffffffffff8111156123b757600080fd5b8201601f810184136123c857600080fd5b80516123d6611db882611d82565b8181528560208385010111156123eb57600080fd5b6123fc82602083016020860161227d565b95945050505050565b6000815160208301516001600160f81b0319808216935060018310156124355780818460010360031b1b83161693505b505050919050565b634e487b7160e01b600052601160045260246000fd5b600061ffff8083168185168083038211156124705761247061243d565b01949350505050565b60006fffffffffffffffffffffffffffffffff80831681810361249e5761249e61243d565b6001019392505050565b6000815160208301516001600160d01b0319808216935060068310156124355760069290920360031b82901b161692915050565b600082198211156124ef576124ef61243d565b500190565b6001600160a01b038316815260406020820152600061238660408301846122a9565b6000815160208301516001600160b01b03198082169350600a83101561243557600a9290920360031b82901b161692915050565b60006001820161255c5761255c61243d565b5060010190565b6000815160208301516001600160801b0319808216935060108310156124355760109290920360031b82901b161692915050565b60006fffffffffffffffffffffffffffffffff8083168185168083038211156124705761247061243d56fea2646970667358221220ebf90bfddd3d8fd27bfd545b1eb757ca5726823d7b406368db7f24402a4ca63664736f6c634300080f0033",
  "immutableReferences": {},
  "source": "// SPDX-License-Identifier: CC0-1.0\n\npragma solidity ^0.8.0;\n\nimport {LSP0ERC725Account} from \"@lukso/lsp-smart-contracts/contracts/LSP0ERC725Account/LSP0ERC725Account.sol\";\nimport {\n  NoPermissionsSet,\n  NotAuthorised\n} from \"@lukso/lsp-smart-contracts/contracts/LSP6KeyManager/LSP6Errors.sol\";\nimport {\n  _LSP6KEY_ADDRESSPERMISSIONS_DAOPERMISSIONS_PREFIX,\n  _PERMISSION_VOTE,\n  _PERMISSION_PROPOSE,\n  _PERMISSION_EXECUTE,\n  _PERMISSION_SENDDELEGATE,\n  _PERMISSION_RECIEVEDELEGATE,\n\n  _KEY_TITLE,\n  _KEY_DESCRIPTION,\n  _KEY_MAJORITY,\n  _KEY_PARTICIPATIONRATE,\n  _KEY_VOTINGDELAY,\n  _KEY_VOTINGPERIOD,\n  _KEY_TOKENGATED,\n\n  _KEY_DELEGATEVOTE,\n  _KEY_ADDRESSDELEGATES_ARRAY,\n\n  _KEY_PROPOSAL_PREFIX,\n  _KEY_PROPOSAL_TITLE_SUFFIX,\n  _KEY_PROPOSAL_DESCRIPTION_SUFFIX,\n  _KEY_PROPOSAL_CREATIONTIMESTAMP_SUFFIX,\n  _KEY_PROPOSAL_TARGETSARRAY_SUFFIX,\n  _KEY_PROPOSAL_DATASARRAY_SUFFIX,\n  _KEY_PROPOSAL_PROPOSALCHOICESARRAY_SUFFIX,\n  _KEY_PROPOSAL_MAXIMUMCHOICESPERVOTE_SUFFIX,\n  _KEY_PARTICIPANT_VOTE,\n\n  setDataSingleSelector,\n  setDataMultipleSelector,\n\n  _SPLIT_BYTES32_IN_TWO_HALFS\n} from \"./DaoConstants.sol\";\n\n/**\n *\n* @notice This smart contract is responsible for managing the DAO Keys.\n *\n * @author B00ste\n * @title DaoKeyManager\n * @custom:version 0.92\n */\ncontract DaoKeyManager {\n\n  /**\n   * @notice Address of the DAO_ACCOUNT.\n   */\n  address payable private UNIVERSAL_PROFILE;\n\n  /**\n   * @notice Address of the creator.\n   */\n  address private CREATOR;\n\n  constructor() { CREATOR = msg.sender; }\n  function initialize(\n    address payable _UNIVERSAL_PROFILE,\n    string memory title,\n    string memory description,\n    uint8 majority,\n    uint8 participationRate,\n    uint48 votingDelay,\n    uint48 votingPeriod,\n    bytes1 tokenGated\n  ) external {\n    require(msg.sender == CREATOR);\n    UNIVERSAL_PROFILE = _UNIVERSAL_PROFILE;\n\n    bytes32[] memory keys = new bytes32[](7);\n    keys[0] = _KEY_TITLE;\n    keys[1] = _KEY_DESCRIPTION;\n    keys[2] = _KEY_MAJORITY;\n    keys[3] = _KEY_PARTICIPATIONRATE;\n    keys[4] = _KEY_VOTINGDELAY;\n    keys[5] = _KEY_VOTINGPERIOD;\n    keys[6] = _KEY_TOKENGATED;\n\n    bytes[] memory values = new bytes[](7);\n    values[0] = bytes(title);\n    values[1] = bytes(description);\n    values[2] = bytes.concat(bytes1(majority));\n    values[3] = bytes.concat(bytes1(participationRate));\n    values[4] = bytes.concat(bytes6(votingDelay));\n    values[5] = bytes.concat(bytes6(votingPeriod));\n    values[6] = bytes.concat(tokenGated);\n\n    LSP0ERC725Account(UNIVERSAL_PROFILE).setData(keys, values);\n\n  }\n\n\n  // --- General Methods.\n\n\n  /**\n   * @notice Delegate your vote.\n   */\n  function delegate(address delegatee) external {\n    _verifyPermission(msg.sender, _PERMISSION_SENDDELEGATE, \"SENDDELEGATE\");\n    _verifyPermission(delegatee, _PERMISSION_RECIEVEDELEGATE, \"RECIEVEDELEGATE\");\n\n    _addElementToArray(\n      bytes32(bytes.concat(_KEY_ADDRESSDELEGATES_ARRAY, bytes20(delegatee))),\n      bytes.concat(bytes20(msg.sender))\n    );\n\n    LSP0ERC725Account(UNIVERSAL_PROFILE).setData(\n      bytes32(bytes.concat(_KEY_DELEGATEVOTE, bytes20(msg.sender))),\n      bytes.concat(bytes20(delegatee))\n    );\n  }\n\n  /**\n   * @notice Create a proposal.\n   */\n  function createProposal(\n    string memory title,\n    string memory description,\n    address[] memory targets,\n    bytes[] memory datas,\n    bytes32[] memory choices,\n    uint8 maximumChoicesPerVote\n  ) external {\n    _verifyPermission(msg.sender, _PERMISSION_PROPOSE, \"PROPOSE\");\n    require(\n      targets.length == datas.length,\n      \"targets.length must be equal to datas.length\"\n    );\n    require(\n      choices.length <= 16 &&\n      maximumChoicesPerVote <= 16,\n      \"You can have maximum 16 choices.\"\n    );\n\n    bytes32[] memory keys = new bytes32[](7);\n    bytes10 KEY_PROPOSAL_PREFIX = _KEY_PROPOSAL_PREFIX(uint48(block.timestamp), title);\n    keys[0] = bytes32(bytes.concat(KEY_PROPOSAL_PREFIX, _KEY_PROPOSAL_TITLE_SUFFIX));\n    keys[0] = bytes32(bytes.concat(KEY_PROPOSAL_PREFIX, _KEY_PROPOSAL_DESCRIPTION_SUFFIX));\n    keys[0] = bytes32(bytes.concat(KEY_PROPOSAL_PREFIX, _KEY_PROPOSAL_CREATIONTIMESTAMP_SUFFIX));\n    keys[0] = bytes32(bytes.concat(KEY_PROPOSAL_PREFIX, _KEY_PROPOSAL_MAXIMUMCHOICESPERVOTE_SUFFIX));\n\n    bytes[] memory values = new bytes[](7);\n    values[0] = bytes(title);\n    values[0] = bytes(description);\n    values[0] = bytes.concat(bytes6(uint48(block.timestamp)));\n    values[0] = bytes.concat(bytes1(maximumChoicesPerVote));\n\n    LSP0ERC725Account(UNIVERSAL_PROFILE).setData(keys, values);\n    _setAddressArray(_KEY_PROPOSAL_TARGETSARRAY_SUFFIX, targets);\n    _setDataArray(_KEY_PROPOSAL_DATASARRAY_SUFFIX, datas);\n    _setBytes32Array(_KEY_PROPOSAL_PROPOSALCHOICESARRAY_SUFFIX, choices);\n  }\n\n  /**\n   * @notice End Proposal.\n   */\n  function endProposal(bytes10 proposalSignature) external {\n    _verifyPermission(msg.sender, _PERMISSION_EXECUTE, \"EXECUTE\");\n    require(\n      uint256(uint48(bytes6(LSP0ERC725Account(UNIVERSAL_PROFILE).getData(_KEY_PROPOSAL_CREATIONTIMESTAMP_SUFFIX))))\n      + uint256(uint48(bytes6(LSP0ERC725Account(UNIVERSAL_PROFILE).getData(_KEY_VOTINGDELAY))))\n      + uint256(uint48(bytes6(LSP0ERC725Account(UNIVERSAL_PROFILE).getData(_KEY_VOTINGPERIOD))))\n      < block.timestamp,\n      \"The proposal's time did not expire.\"\n    );\n    // ToDo verify if the proposal has passed and execute the datas if necessary.\n  }\n\n  /**\n   * @notice Vote on a proposal.\n   */\n  function vote(bytes10 proposalSignature, bytes30 voteDescription, bytes32[] memory choicesArray) external {\n    _verifyPermission(msg.sender, _PERMISSION_VOTE, \"VOTE\");\n    require(\n      uint256(bytes32(\n        LSP0ERC725Account(UNIVERSAL_PROFILE).getData(\n          _KEY_PARTICIPANT_VOTE(proposalSignature, msg.sender)\n        )\n      )) == 0,\n      \"User already voted.\"\n    );\n    require(\n      uint8(bytes1(LSP0ERC725Account(UNIVERSAL_PROFILE).getData(\n        bytes32(bytes.concat(proposalSignature, _KEY_PROPOSAL_MAXIMUMCHOICESPERVOTE_SUFFIX))\n      ))) >= choicesArray.length,\n      \"You have more choices than allowed.\"\n    );\n\n    uint16 choices = 0;\n    for(uint128 i = 0; i < choicesArray.length; i++) {\n      if(\n      bytes32(LSP0ERC725Account(UNIVERSAL_PROFILE).getData(\n        bytes32(bytes.concat(\n          _SPLIT_BYTES32_IN_TWO_HALFS(\n            bytes32(bytes.concat(\n              proposalSignature, _KEY_PROPOSAL_PROPOSALCHOICESARRAY_SUFFIX\n            ))\n          )[0],\n          bytes16(i)\n        ))\n      )) == choicesArray[i]\n      ) {\n        choices = choices + uint16(1 << i);\n      }\n    }\n\n    LSP0ERC725Account(UNIVERSAL_PROFILE).setData(\n      _KEY_PARTICIPANT_VOTE(proposalSignature, msg.sender),\n      bytes.concat(voteDescription, bytes2(choices))\n    );\n  }\n\n\n  // --- Internal Methods.\n\n\n  function _getPermissions(\n    address _from\n  )\n    internal\n    view\n    returns(bytes32 permissions)\n  {\n    permissions = bytes32(LSP0ERC725Account(UNIVERSAL_PROFILE).getData(bytes32(bytes.concat(\n      _LSP6KEY_ADDRESSPERMISSIONS_DAOPERMISSIONS_PREFIX,\n      bytes20(_from)\n    ))));\n  }\n\n  function _verifyPermission(\n    address _from,\n    bytes32 _permission,\n    string memory _permissionName\n  )\n    internal\n    view\n  {\n    bytes32 permissions = _getPermissions(_from);\n    if(permissions & _permission == 0) revert NotAuthorised(_from, _permissionName);\n  }\n\n  function _setDataArray(bytes32 arrayKey, bytes[] memory arrayValues) internal {\n    bytes32[] memory keys = new bytes32[](arrayValues.length + 1);\n    bytes[] memory values = new bytes[](arrayValues.length + 1);\n    for (uint256 i = 0; i < values.length; i++) {\n      keys[i] = bytes32(bytes.concat(\n        _SPLIT_BYTES32_IN_TWO_HALFS(arrayKey)[0],\n        bytes16(uint128(i))\n      ));\n      values[i] = arrayValues[i];\n    }\n    keys[values.length] = bytes32(arrayKey);\n\n    LSP0ERC725Account(UNIVERSAL_PROFILE).setData(keys, values);\n  }\n\n  function _setAddressArray(bytes32 arrayKey, address[] memory arrayValues) internal {\n    bytes32[] memory keys = new bytes32[](arrayValues.length + 1);\n    bytes[] memory values = new bytes[](arrayValues.length + 1);\n    for (uint256 i = 0; i < values.length; i++) {\n      keys[i] = bytes32(bytes.concat(\n        _SPLIT_BYTES32_IN_TWO_HALFS(arrayKey)[0],\n        bytes16(uint128(i))\n      ));\n      values[i] = bytes.concat(bytes20(arrayValues[i]));\n    }\n    keys[values.length] = bytes32(arrayKey);\n\n    LSP0ERC725Account(UNIVERSAL_PROFILE).setData(keys, values);\n  }\n\n  function _setBytes32Array(bytes32 arrayKey, bytes32[] memory arrayValues) internal {\n    bytes32[] memory keys = new bytes32[](arrayValues.length + 1);\n    bytes[] memory values = new bytes[](arrayValues.length + 1);\n    for (uint256 i = 0; i < values.length; i++) {\n      keys[i] = bytes32(bytes.concat(\n        _SPLIT_BYTES32_IN_TWO_HALFS(arrayKey)[0],\n        bytes16(uint128(i))\n      ));\n      values[i] = bytes.concat(arrayValues[i]);\n    }\n    keys[values.length] = bytes32(arrayKey);\n\n    LSP0ERC725Account(UNIVERSAL_PROFILE).setData(keys, values);\n  }\n\n  function _addElementToArray(bytes32 arrayKey, bytes memory value) internal {\n    uint128 arrayLength = uint128(bytes16(LSP0ERC725Account(UNIVERSAL_PROFILE).getData(arrayKey)));\n    bytes32[] memory keys = new bytes32[](2);\n    keys[0] = bytes32(bytes.concat(\n      _SPLIT_BYTES32_IN_TWO_HALFS(arrayKey)[0],\n      bytes16(arrayLength)\n    ));\n    keys[1] = arrayKey;\n    bytes[] memory values = new bytes[](2);\n    values[0] = value;\n    values[1] = bytes.concat(bytes16(arrayLength + 1));\n\n    LSP0ERC725Account(UNIVERSAL_PROFILE).setData(keys, values);\n  }\n\n}",
  "sourcePath": "/home/b00ste/Projects/universal-profile-governance/contracts/DaoAccount/DaoKeyManager.sol",
  "compiler": {
    "name": "solc",
    "version": "0.8.15+commit.e14f2714.Emscripten.clang"
  },
  "schemaVersion": "3.4.8",
  "updatedAt": "2022-07-25T06:31:38.476Z",
  "devdoc": {
    "author": "B00ste",
    "custom:version": "0.92",
    "errors": {
      "NotAuthorised(address,string)": [
        {
          "details": "address `from` is not authorised to `permission`",
          "params": {
            "from": "address not-authorised",
            "permission": "permission required"
          }
        }
      ]
    },
    "kind": "dev",
    "methods": {},
    "title": "DaoKeyManager",
    "version": 1
  },
  "userdoc": {
    "kind": "user",
    "methods": {
      "createProposal(string,string,address[],bytes[],bytes32[],uint8)": {
        "notice": "Create a proposal."
      },
      "delegate(address)": {
        "notice": "Delegate your vote."
      },
      "endProposal(bytes10)": {
        "notice": "End Proposal."
      },
      "vote(bytes10,bytes30,bytes32[])": {
        "notice": "Vote on a proposal."
      }
    },
    "notice": "This smart contract is responsible for managing the DAO Keys.",
    "version": 1
  }
}