{
  "contractName": "DaoKeyManager",
  "abi": [
    {
      "inputs": [
        {
          "internalType": "address payable",
          "name": "_UNIVERSAL_PROFILE",
          "type": "address"
        },
        {
          "internalType": "address",
          "name": "_KEY_MANAGER",
          "type": "address"
        }
      ],
      "stateMutability": "nonpayable",
      "type": "constructor"
    },
    {
      "inputs": [
        {
          "internalType": "bytes2",
          "name": "errorNumber",
          "type": "bytes2"
        }
      ],
      "name": "ErrorWithNumber",
      "type": "error"
    },
    {
      "inputs": [
        {
          "internalType": "address",
          "name": "from",
          "type": "address"
        },
        {
          "internalType": "string",
          "name": "permission",
          "type": "string"
        }
      ],
      "name": "NotAuthorised",
      "type": "error"
    },
    {
      "inputs": [
        {
          "internalType": "address",
          "name": "_to",
          "type": "address"
        },
        {
          "internalType": "bytes32[]",
          "name": "_permissions",
          "type": "bytes32[]"
        }
      ],
      "name": "togglePermissions",
      "outputs": [],
      "stateMutability": "nonpayable",
      "type": "function"
    },
    {
      "inputs": [
        {
          "internalType": "address",
          "name": "delegatee",
          "type": "address"
        }
      ],
      "name": "delegate",
      "outputs": [],
      "stateMutability": "nonpayable",
      "type": "function"
    },
    {
      "inputs": [
        {
          "internalType": "string",
          "name": "title",
          "type": "string"
        },
        {
          "internalType": "string",
          "name": "metadataLink",
          "type": "string"
        },
        {
          "internalType": "address[]",
          "name": "targets",
          "type": "address[]"
        },
        {
          "internalType": "bytes[]",
          "name": "datas",
          "type": "bytes[]"
        },
        {
          "internalType": "uint8",
          "name": "choices",
          "type": "uint8"
        },
        {
          "internalType": "uint8",
          "name": "choicesPerVote",
          "type": "uint8"
        }
      ],
      "name": "createProposal",
      "outputs": [],
      "stateMutability": "nonpayable",
      "type": "function"
    },
    {
      "inputs": [
        {
          "internalType": "bytes10",
          "name": "proposalSignature",
          "type": "bytes10"
        }
      ],
      "name": "executeProposal",
      "outputs": [
        {
          "internalType": "bool[]",
          "name": "success",
          "type": "bool[]"
        },
        {
          "internalType": "bytes[]",
          "name": "results",
          "type": "bytes[]"
        }
      ],
      "stateMutability": "nonpayable",
      "type": "function"
    },
    {
      "inputs": [
        {
          "internalType": "bytes10",
          "name": "proposalSignature",
          "type": "bytes10"
        },
        {
          "internalType": "bytes30",
          "name": "voteDescription",
          "type": "bytes30"
        },
        {
          "internalType": "uint8[]",
          "name": "choicesArray",
          "type": "uint8[]"
        }
      ],
      "name": "vote",
      "outputs": [],
      "stateMutability": "nonpayable",
      "type": "function"
    }
  ],
  "bytecode": "0x60806040523480156200001157600080fd5b5060405162004b1438038062004b1483398181016040528101906200003791906200016f565b816000806101000a81548173ffffffffffffffffffffffffffffffffffffffff021916908373ffffffffffffffffffffffffffffffffffffffff16021790555080600160006101000a81548173ffffffffffffffffffffffffffffffffffffffff021916908373ffffffffffffffffffffffffffffffffffffffff1602179055505050620001b6565b600080fd5b600073ffffffffffffffffffffffffffffffffffffffff82169050919050565b6000620000f282620000c5565b9050919050565b6200010481620000e5565b81146200011057600080fd5b50565b6000815190506200012481620000f9565b92915050565b60006200013782620000c5565b9050919050565b62000149816200012a565b81146200015557600080fd5b50565b60008151905062000169816200013e565b92915050565b60008060408385031215620001895762000188620000c0565b5b6000620001998582860162000113565b9250506020620001ac8582860162000158565b9150509250929050565b61494e80620001c66000396000f3fe608060405234801561001057600080fd5b50600436106100575760003560e01c80631c8734cf1461005c5780635c19a95c146100785780635c9cafcf14610094578063760285e9146100c5578063bb26d08c146100e1575b600080fd5b61007660048036038101906100719190612eff565b6100fd565b005b610092600480360381019061008d9190612f5b565b610357565b005b6100ae60048036038101906100a99190612fe0565b610741565b6040516100bc929190613221565b60405180910390f35b6100df60048036038101906100da919061358b565b6119d3565b005b6100fb60048036038101906100f691906137a3565b612274565b005b61014133608060001b6040518060400160405280600681526020017f4d415354455200000000000000000000000000000000000000000000000000008152506127d2565b600061014c83612830565b905060005b82518160ff161015610207576000801b838260ff168151811061017757610176613812565b5b60200260200101518316146101bf57828160ff168151811061019c5761019b613812565b5b602002602001015160001c8260001c6101b5919061387a565b60001b91506101f4565b828160ff16815181106101d5576101d4613812565b5b602002602001015160001c8260001c6101ee91906138ae565b60001b91505b80806101ff90613904565b915050610151565b506000600167ffffffffffffffff81111561022557610224612d86565b5b6040519080825280602002602001820160405280156102535781602001602082028036833780820191505090505b5090506b4b80742de2bfb3cc0e49000060a01b8460601b60405160200161027b9291906139c7565b60405160208183030381529060405261029390613a25565b816000815181106102a7576102a6613812565b5b6020026020010181815250506000600167ffffffffffffffff8111156102d0576102cf612d86565b5b60405190808252806020026020018201604052801561030357816020015b60608152602001906001900390816102ee5790505b509050826040516020016103179190613aad565b6040516020818303038152906040528160008151811061033a57610339613812565b5b602002602001018190525061034f828261291e565b505050505050565b61039b33600860001b6040518060400160405280600c81526020017f53454e4444454c454741544500000000000000000000000000000000000000008152506127d2565b6103df81601060001b6040518060400160405280600f81526020017f5245434945564544454c454741544500000000000000000000000000000000008152506127d2565b60006bc3f797d5c8ae536b82a6000060a01b8260601b6040516020016104069291906139c7565b60405160208183030381529060405261041e90613a25565b905060008060009054906101000a900473ffffffffffffffffffffffffffffffffffffffff1673ffffffffffffffffffffffffffffffffffffffff166354f6127f836040518263ffffffff1660e01b815260040161047c9190613ad7565b600060405180830381865afa158015610499573d6000803e3d6000fd5b505050506040513d6000823e3d601f19601f820116820180604052508101906104c29190613b62565b6104cb90613bec565b60801c90506000600267ffffffffffffffff8111156104ed576104ec612d86565b5b60405190808252806020026020018201604052801561051b5781602001602082028036833780820191505090505b50905061052783612bf1565b60006002811061053a57610539613812565b5b60200201518260801b604051602001610554929190613c74565b60405160208183030381529060405261056c90613a25565b816000815181106105805761057f613812565b5b60200260200101818152505082816001815181106105a1576105a0613812565b5b6020026020010181815250506b0a30e74a6c7868e40014000060a01b3360601b6040516020016105d29291906139c7565b6040516020818303038152906040526105ea90613a25565b816002815181106105fe576105fd613812565b5b6020026020010181815250506000600267ffffffffffffffff81111561062757610626612d86565b5b60405190808252806020026020018201604052801561065a57816020015b60608152602001906001900390816106455790505b5090503360601b6040516020016106719190613ca0565b6040516020818303038152906040528160008151811061069457610693613812565b5b60200260200101819052506001836106ac9190613cd7565b60801b6040516020016106bf9190613d1d565b604051602081830303815290604052816001815181106106e2576106e1613812565b5b60200260200101819052508460601b6040516020016107019190613ca0565b6040516020818303038152906040528160028151811061072457610723613812565b5b6020026020010181905250610739828261291e565b505050505050565b60608061078833600460001b6040518060400160405280600781526020017f45584543555445000000000000000000000000000000000000000000000000008152506127d2565b4260008054906101000a900473ffffffffffffffffffffffffffffffffffffffff1673ffffffffffffffffffffffffffffffffffffffff166354f6127f85733f82a2b5852cbedcda3d9062384397479ac9a00d60501b6040516020016107ef929190613da6565b60405160208183030381529060405261080790613a25565b6040518263ffffffff1660e01b81526004016108239190613ad7565b600060405180830381865afa158015610840573d6000803e3d6000fd5b505050506040513d6000823e3d601f19601f820116820180604052508101906108699190613b62565b61087290613e13565b60d01c65ffffffffffff1660008054906101000a900473ffffffffffffffffffffffffffffffffffffffff1673ffffffffffffffffffffffffffffffffffffffff166354f6127f86733f82a2b5852cbedcda3d9062384397479ac9a00d60501b6040516020016108e3929190613da6565b6040516020818303038152906040526108fb90613a25565b6040518263ffffffff1660e01b81526004016109179190613ad7565b600060405180830381865afa158015610934573d6000803e3d6000fd5b505050506040513d6000823e3d601f19601f8201168201806040525081019061095d9190613b62565b61096690613e13565b60d01c65ffffffffffff1660008054906101000a900473ffffffffffffffffffffffffffffffffffffffff1673ffffffffffffffffffffffffffffffffffffffff166354f6127f8773bd3132afbfa232f7d171a873f7e52e32c666b06d60501b6040516020016109d7929190613da6565b6040516020818303038152906040526109ef90613a25565b6040518263ffffffff1660e01b8152600401610a0b9190613ad7565b600060405180830381865afa158015610a28573d6000803e3d6000fd5b505050506040513d6000823e3d601f19601f82011682018060405250810190610a519190613b62565b610a5a90613e13565b60d01c65ffffffffffff16610a6f91906138ae565b610a7991906138ae565b1115610abd5760046040517ff3a4c8ae000000000000000000000000000000000000000000000000000000008152600401610ab49190613eee565b60405180910390fd5b60008060009054906101000a900473ffffffffffffffffffffffffffffffffffffffff1673ffffffffffffffffffffffffffffffffffffffff166354f6127f8573ed458cca63dcf8476211a40ad15420dcabc377f060501b604051602001610b26929190613da6565b604051602081830303815290604052610b3e90613a25565b6040518263ffffffff1660e01b8152600401610b5a9190613ad7565b600060405180830381865afa158015610b77573d6000803e3d6000fd5b505050506040513d6000823e3d601f19601f82011682018060405250810190610ba09190613b62565b610ba990613a25565b60001c03610bef5760056040517ff3a4c8ae000000000000000000000000000000000000000000000000000000008152600401610be69190613f44565b60405180910390fd5b60008060009054906101000a900473ffffffffffffffffffffffffffffffffffffffff1673ffffffffffffffffffffffffffffffffffffffff166354f6127f8573e5dd8acc7154a678a0a3fa3fe2d65b8700bf702c60501b604051602001610c58929190613da6565b604051602081830303815290604052610c7090613a25565b6040518263ffffffff1660e01b8152600401610c8c9190613ad7565b600060405180830381865afa158015610ca9573d6000803e3d6000fd5b505050506040513d6000823e3d601f19601f82011682018060405250810190610cd29190613b62565b610cdb90613fa0565b60f81c905060008060009054906101000a900473ffffffffffffffffffffffffffffffffffffffff1673ffffffffffffffffffffffffffffffffffffffff166354f6127f7fdf30dba06db6a30e65354d9a64c609861f089545ca58c6b4dbe31a5f338cb0e360001b6040518263ffffffff1660e01b8152600401610d5f9190613ad7565b600060405180830381865afa158015610d7c573d6000803e3d6000fd5b505050506040513d6000823e3d601f19601f82011682018060405250810190610da59190613b62565b610dae90613a25565b60001c905060008260ff1667ffffffffffffffff811115610dd257610dd1612d86565b5b604051908082528060200260200182016040528015610e005781602001602082028036833780820191505090505b50905060005b82816fffffffffffffffffffffffffffffffff1610156112b85760008060009054906101000a900473ffffffffffffffffffffffffffffffffffffffff1673ffffffffffffffffffffffffffffffffffffffff166354f6127f6fdf30dba06db6a30e65354d9a64c6098660801b8460801b604051602001610e88929190613c74565b604051602081830303815290604052610ea090613a25565b6040518263ffffffff1660e01b8152600401610ebc9190613ad7565b600060405180830381865afa158015610ed9573d6000803e3d6000fd5b505050506040513d6000823e3d601f19601f82011682018060405250810190610f029190613b62565b610f0b9061401c565b60601c90506000610f1b82612830565b905060008060009054906101000a900473ffffffffffffffffffffffffffffffffffffffff1673ffffffffffffffffffffffffffffffffffffffff166354f6127f6b0a30e74a6c7868e40014000060a01b8560601b604051602001610f819291906139c7565b604051602081830303815290604052610f9990613a25565b6040518263ffffffff1660e01b8152600401610fb59190613ad7565b600060405180830381865afa158015610fd2573d6000803e3d6000fd5b505050506040513d6000823e3d601f19601f82011682018060405250810190610ffb9190613b62565b6110049061401c565b90506000801b600160001b8316146112a257600080600060601b6bffffffffffffffffffffffff1916836bffffffffffffffffffffffff1916036110fe576001905060008054906101000a900473ffffffffffffffffffffffffffffffffffffffff1673ffffffffffffffffffffffffffffffffffffffff166354f6127f61108c8e88612c5f565b6040518263ffffffff1660e01b81526004016110a89190613ad7565b600060405180830381865afa1580156110c5573d6000803e3d6000fd5b505050506040513d6000823e3d601f19601f820116820180604052508101906110ee9190613b62565b6110f790614098565b9150611103565b600090505b6000801b601060001b8516146112085760008054906101000a900473ffffffffffffffffffffffffffffffffffffffff1673ffffffffffffffffffffffffffffffffffffffff166354f6127f6bc3f797d5c8ae536b82a6000060a01b8760601b6040516020016111749291906139c7565b60405160208183030381529060405261118c90613a25565b6040518263ffffffff1660e01b81526004016111a89190613ad7565b600060405180830381865afa1580156111c5573d6000803e3d6000fd5b505050506040513d6000823e3d601f19601f820116820180604052508101906111ee9190613b62565b6111f790613a25565b60001c8161120591906138ae565b90505b60005b8960ff168160ff16101561129e57600060f01b8160ff166001901b60f01b84167dffffffffffffffffffffffffffffffffffffffffffffffffffffffffffff19160361125857600061128a565b81888260ff168151811061126f5761126e613812565b5b6020026020010181815161128391906138ae565b9150818152505b50808061129690613904565b91505061120b565b5050505b50505080806112b0906140ff565b915050610e06565b50600080600080600090505b8660ff168110156113f5578481815181106112e2576112e1613812565b5b6020026020010151846112f591906138ae565b93506002876113049190614166565b60ff1681101561137a5784818151811061132157611320613812565b5b60200260200101518760ff1660648360028b61133d9190614166565b60ff1661134a919061387a565b6113549190614197565b61135e91906141f1565b6113689190614197565b8361137391906138ae565b92506113e2565b84818151811061138d5761138c613812565b5b60200260200101518760ff16606460028a6113a89190614166565b60ff16846113b6919061387a565b6113c09190614197565b6113ca91906141f1565b6113d49190614197565b826113df91906138ae565b91505b80806113ed90614222565b9150506112c4565b5060008060009054906101000a900473ffffffffffffffffffffffffffffffffffffffff1673ffffffffffffffffffffffffffffffffffffffff166354f6127f7fbc776f168e7b9c60bb2a7180950facd372cd90c841732d963c31a93ff9f8c12760001b6040518263ffffffff1660e01b81526004016114759190613ad7565b600060405180830381865afa158015611492573d6000803e3d6000fd5b505050506040513d6000823e3d601f19601f820116820180604052508101906114bb9190613b62565b6114c490613a25565b60001c905060008060009054906101000a900473ffffffffffffffffffffffffffffffffffffffff1673ffffffffffffffffffffffffffffffffffffffff166354f6127f7ff89f507ecd9cb7646ce1514ec6ab90d695dac9314c3771f451fd90148a3335a960001b6040518263ffffffff1660e01b81526004016115489190613ad7565b600060405180830381865afa158015611565573d6000803e3d6000fd5b505050506040513d6000823e3d601f19601f8201168201806040525081019061158e9190613b62565b61159790613a25565b60001c905086816115a891906141f1565b87866115b491906141f1565b1180156115d6575084826115c891906141f1565b85846115d491906141f1565b115b156119c65760008b73ba6d4933d1a0fbfd29728a3ed8d0a7aca50635b560501b604051602001611607929190613da6565b60405160208183030381529060405261161f90613a25565b905060008c73478499bb6846f8a28632137c772be842c41b310560501b60405160200161164d929190613da6565b60405160208183030381529060405261166590613a25565b905060008060009054906101000a900473ffffffffffffffffffffffffffffffffffffffff1673ffffffffffffffffffffffffffffffffffffffff166354f6127f846040518263ffffffff1660e01b81526004016116c39190613ad7565b600060405180830381865afa1580156116e0573d6000803e3d6000fd5b505050506040513d6000823e3d601f19601f820116820180604052508101906117099190613b62565b61171290613a25565b60001c90508067ffffffffffffffff81111561173157611730612d86565b5b60405190808252806020026020018201604052801561175f5781602001602082028036833780820191505090505b509c508067ffffffffffffffff81111561177c5761177b612d86565b5b6040519080825280602002602001820160405280156117af57816020015b606081526020019060019003908161179a5790505b509b5060005b818110156119c15760008054906101000a900473ffffffffffffffffffffffffffffffffffffffff1673ffffffffffffffffffffffffffffffffffffffff166354f6127f856040518263ffffffff1660e01b81526004016118169190613ad7565b600060405180830381865afa158015611833573d6000803e3d6000fd5b505050506040513d6000823e3d601f19601f8201168201806040525081019061185c9190613b62565b6118659061401c565b60601c73ffffffffffffffffffffffffffffffffffffffff1660008054906101000a900473ffffffffffffffffffffffffffffffffffffffff1673ffffffffffffffffffffffffffffffffffffffff166354f6127f856040518263ffffffff1660e01b81526004016118d79190613ad7565b600060405180830381865afa1580156118f4573d6000803e3d6000fd5b505050506040513d6000823e3d601f19601f8201168201806040525081019061191d9190613b62565b60405161192a91906142a6565b6000604051808303816000865af19150503d8060008114611967576040519150601f19603f3d011682016040523d82523d6000602084013e61196c565b606091505b508f83815181106119805761197f613812565b5b602002602001018f848151811061199a57611999613812565b5b602002602001018290528215151515815250505080806119b990614222565b9150506117b5565b505050505b5050505050505050915091565b611a1733600260001b6040518060400160405280600781526020017f50524f504f5345000000000000000000000000000000000000000000000000008152506127d2565b8251845114611a5e5760016040517ff3a4c8ae000000000000000000000000000000000000000000000000000000008152600401611a5591906142f8565b60405180910390fd5b60108260ff161115611aa85760026040517ff3a4c8ae000000000000000000000000000000000000000000000000000000008152600401611a9f919061434e565b60405180910390fd5b8160ff168160ff161115611af45760036040517ff3a4c8ae000000000000000000000000000000000000000000000000000000008152600401611aeb91906143a4565b60405180910390fd5b600084516002611b049190614197565b90506000611b124289612c9d565b90506000600783611b2391906138ae565b67ffffffffffffffff811115611b3c57611b3b612d86565b5b604051908082528060200260200182016040528015611b6a5781602001602082028036833780820191505090505b5090506000600784611b7c91906138ae565b67ffffffffffffffff811115611b9557611b94612d86565b5b604051908082528060200260200182016040528015611bc857816020015b6060815260200190600190039081611bb35790505b5090506000841115611e215760005b88518161ffff161015611e1f57611c2e8473ba6d4933d1a0fbfd29728a3ed8d0a7aca50635b560501b604051602001611c11929190613da6565b604051602081830303815290604052611c2990613a25565b612bf1565b600060028110611c4157611c40613812565b5b60200201518161ffff1660801b604051602001611c5f929190613c74565b604051602081830303815290604052611c7790613a25565b838261ffff1681518110611c8e57611c8d613812565b5b602002602001018181525050611ce48473478499bb6846f8a28632137c772be842c41b310560501b604051602001611cc7929190613da6565b604051602081830303815290604052611cdf90613a25565b612bf1565b600060028110611cf757611cf6613812565b5b60200201518161ffff1660801b604051602001611d15929190613c74565b604051602081830303815290604052611d2d90613a25565b838a518361ffff16611d3f91906138ae565b81518110611d5057611d4f613812565b5b602002602001018181525050888161ffff1681518110611d7357611d72613812565b5b602002602001015160601b604051602001611d8e9190613ca0565b604051602081830303815290604052828261ffff1681518110611db457611db3613812565b5b6020026020010181905250878161ffff1681518110611dd657611dd5613812565b5b6020026020010151828a518361ffff16611df091906138ae565b81518110611e0157611e00613812565b5b60200260200101819052508080611e17906143cd565b915050611bd7565b505b8273ba6d4933d1a0fbfd29728a3ed8d0a7aca50635b560501b604051602001611e4b929190613da6565b604051602081830303815290604052611e6390613a25565b82600086611e7191906138ae565b81518110611e8257611e81613812565b5b6020026020010181815250508273478499bb6846f8a28632137c772be842c41b310560501b604051602001611eb8929190613da6565b604051602081830303815290604052611ed090613a25565b82600186611ede91906138ae565b81518110611eef57611eee613812565b5b60200260200101818152505082733f82a2b5852cbedcda3d9062384397479ac9a00d60501b604051602001611f25929190613da6565b604051602081830303815290604052611f3d90613a25565b82600286611f4b91906138ae565b81518110611f5c57611f5b613812565b5b6020026020010181815250508273bd3132afbfa232f7d171a873f7e52e32c666b06d60501b604051602001611f92929190613da6565b604051602081830303815290604052611faa90613a25565b82600486611fb891906138ae565b81518110611fc957611fc8613812565b5b6020026020010181815250508273e5dd8acc7154a678a0a3fa3fe2d65b8700bf702c60501b604051602001611fff929190613da6565b60405160208183030381529060405261201790613a25565b8260058661202591906138ae565b8151811061203657612035613812565b5b6020026020010181815250508273ed458cca63dcf8476211a40ad15420dcabc377f060501b60405160200161206c929190613da6565b60405160208183030381529060405261208490613a25565b8260068661209291906138ae565b815181106120a3576120a2613812565b5b602002602001018181525050875160001b6040516020016120c49190613aad565b604051602081830303815290604052816000866120e191906138ae565b815181106120f2576120f1613812565b5b6020026020010181905250865160001b6040516020016121129190613aad565b6040516020818303038152906040528160018661212f91906138ae565b815181106121405761213f613812565b5b6020026020010181905250888160038661215a91906138ae565b8151811061216b5761216a613812565b5b60200260200101819052504260d01b60405160200161218a9190614418565b604051602081830303815290604052816004866121a791906138ae565b815181106121b8576121b7613812565b5b60200260200101819052508560f81b6040516020016121d79190614454565b604051602081830303815290604052816005866121f491906138ae565b8151811061220557612204613812565b5b60200260200101819052508460f81b6040516020016122249190614454565b6040516020818303038152906040528160068661224191906138ae565b8151811061225257612251613812565b5b6020026020010181905250612267828261291e565b5050505050505050505050565b6122b833600160001b6040518060400160405280600481526020017f564f5445000000000000000000000000000000000000000000000000000000008152506127d2565b60008060009054906101000a900473ffffffffffffffffffffffffffffffffffffffff1673ffffffffffffffffffffffffffffffffffffffff166354f6127f6123018633612c5f565b6040518263ffffffff1660e01b815260040161231d9190613ad7565b600060405180830381865afa15801561233a573d6000803e3d6000fd5b505050506040513d6000823e3d601f19601f820116820180604052508101906123639190613b62565b61236c90613a25565b60001c146123b25760066040517ff3a4c8ae0000000000000000000000000000000000000000000000000000000081526004016123a991906144aa565b60405180910390fd5b805160008054906101000a900473ffffffffffffffffffffffffffffffffffffffff1673ffffffffffffffffffffffffffffffffffffffff166354f6127f8573ed458cca63dcf8476211a40ad15420dcabc377f060501b60405160200161241a929190613da6565b60405160208183030381529060405261243290613a25565b6040518263ffffffff1660e01b815260040161244e9190613ad7565b600060405180830381865afa15801561246b573d6000803e3d6000fd5b505050506040513d6000823e3d601f19601f820116820180604052508101906124949190613b62565b61249d90613fa0565b60f81c60ff1610156124e75760076040517ff3a4c8ae0000000000000000000000000000000000000000000000000000000081526004016124de9190614500565b60405180910390fd5b6000805b8251816fffffffffffffffffffffffffffffffff1610156126af5782816fffffffffffffffffffffffffffffffff168151811061252b5761252a613812565b5b602002602001015160ff1660008054906101000a900473ffffffffffffffffffffffffffffffffffffffff1673ffffffffffffffffffffffffffffffffffffffff166354f6127f6125bc8873e5dd8acc7154a678a0a3fa3fe2d65b8700bf702c60501b60405160200161259f929190613da6565b6040516020818303038152906040526125b790613a25565b612bf1565b6000600281106125cf576125ce613812565b5b60200201518460801b6040516020016125e9929190613c74565b60405160208183030381529060405261260190613a25565b6040518263ffffffff1660e01b815260040161261d9190613ad7565b600060405180830381865afa15801561263a573d6000803e3d6000fd5b505050506040513d6000823e3d601f19601f820116820180604052508101906126639190613b62565b61266c90613fa0565b60f81c60ff160361269c57806fffffffffffffffffffffffffffffffff166001901b82612699919061451b565b91505b80806126a7906140ff565b9150506124eb565b506000600167ffffffffffffffff8111156126cd576126cc612d86565b5b6040519080825280602002602001820160405280156126fb5781602001602082028036833780820191505090505b5090506127088533612c5f565b8160008151811061271c5761271b613812565b5b6020026020010181815250506000600167ffffffffffffffff81111561274557612744612d86565b5b60405190808252806020026020018201604052801561277857816020015b60608152602001906001900390816127635790505b509050848360f01b604051602001612791929190614595565b604051602081830303815290604052816000815181106127b4576127b3613812565b5b60200260200101819052506127c9828261291e565b50505050505050565b60006127dd84612830565b90506000801b8382160361282a5783826040517f3bdad6e6000000000000000000000000000000000000000000000000000000008152600401612821929190614625565b60405180910390fd5b50505050565b60008060009054906101000a900473ffffffffffffffffffffffffffffffffffffffff1673ffffffffffffffffffffffffffffffffffffffff166354f6127f6b4b80742de2bfb3cc0e49000060a01b8460601b6040516020016128949291906139c7565b6040516020818303038152906040526128ac90613a25565b6040518263ffffffff1660e01b81526004016128c89190613ad7565b600060405180830381865afa1580156128e5573d6000803e3d6000fd5b505050506040513d6000823e3d601f19601f8201168201806040525081019061290e9190613b62565b61291790613a25565b9050919050565b6060815183511461292e57600080fd5b600083511161293c57600080fd5b6001835103612ab557600160009054906101000a900473ffffffffffffffffffffffffffffffffffffffff1673ffffffffffffffffffffffffffffffffffffffff166309c5eabe7f7f23690cc80a596acdae0a51503f8066ffd79ab76fd5c929578309d2e2883b77856000815181106129b8576129b7613812565b5b6020026020010151856000815181106129d4576129d3613812565b5b60200260200101516040516024016129ed92919061469f565b604051602081830303815290604052907bffffffffffffffffffffffffffffffffffffffffffffffffffffffff19166020820180517bffffffffffffffffffffffffffffffffffffffffffffffffffffffff83818316178352505050506040518263ffffffff1660e01b8152600401612a6691906146cf565b6000604051808303816000875af1158015612a85573d6000803e3d6000fd5b505050506040513d6000823e3d601f19601f82011682018060405250810190612aae9190613b62565b9050612beb565b600160009054906101000a900473ffffffffffffffffffffffffffffffffffffffff1673ffffffffffffffffffffffffffffffffffffffff166309c5eabe7f14a6e2931875c22579e483160c8d2832a3fb3acbd575a49f6a0f7fc5e135f7898585604051602401612b279291906147af565b604051602081830303815290604052907bffffffffffffffffffffffffffffffffffffffffffffffffffffffff19166020820180517bffffffffffffffffffffffffffffffffffffffffffffffffffffffff83818316178352505050506040518263ffffffff1660e01b8152600401612ba091906146cf565b6000604051808303816000875af1158015612bbf573d6000803e3d6000fd5b505050506040513d6000823e3d601f19601f82011682018060405250810190612be89190613b62565b90505b92915050565b612bf9612cdc565b6040518060400160405280600060801b6fffffffffffffffffffffffffffffffff19166fffffffffffffffffffffffffffffffff19168152602001600060801b6fffffffffffffffffffffffffffffffff19168152509050818152816010820152919050565b600082600060f01b8360601b604051602001612c7d939291906147e6565b604051602081830303815290604052612c9590613a25565b905092915050565b60008260d01b8280519060200120604051602001612cbc929190614870565b604051602081830303815290604052612cd4906148b1565b905092915050565b6040518060400160405280600290602082028036833780820191505090505090565b6000604051905090565b600080fd5b600080fd5b600073ffffffffffffffffffffffffffffffffffffffff82169050919050565b6000612d3d82612d12565b9050919050565b612d4d81612d32565b8114612d5857600080fd5b50565b600081359050612d6a81612d44565b92915050565b600080fd5b6000601f19601f8301169050919050565b7f4e487b7100000000000000000000000000000000000000000000000000000000600052604160045260246000fd5b612dbe82612d75565b810181811067ffffffffffffffff82111715612ddd57612ddc612d86565b5b80604052505050565b6000612df0612cfe565b9050612dfc8282612db5565b919050565b600067ffffffffffffffff821115612e1c57612e1b612d86565b5b602082029050602081019050919050565b600080fd5b6000819050919050565b612e4581612e32565b8114612e5057600080fd5b50565b600081359050612e6281612e3c565b92915050565b6000612e7b612e7684612e01565b612de6565b90508083825260208201905060208402830185811115612e9e57612e9d612e2d565b5b835b81811015612ec75780612eb38882612e53565b845260208401935050602081019050612ea0565b5050509392505050565b600082601f830112612ee657612ee5612d70565b5b8135612ef6848260208601612e68565b91505092915050565b60008060408385031215612f1657612f15612d08565b5b6000612f2485828601612d5b565b925050602083013567ffffffffffffffff811115612f4557612f44612d0d565b5b612f5185828601612ed1565b9150509250929050565b600060208284031215612f7157612f70612d08565b5b6000612f7f84828501612d5b565b91505092915050565b60007fffffffffffffffffffff0000000000000000000000000000000000000000000082169050919050565b612fbd81612f88565b8114612fc857600080fd5b50565b600081359050612fda81612fb4565b92915050565b600060208284031215612ff657612ff5612d08565b5b600061300484828501612fcb565b91505092915050565b600081519050919050565b600082825260208201905092915050565b6000819050602082019050919050565b60008115159050919050565b61304e81613039565b82525050565b60006130608383613045565b60208301905092915050565b6000602082019050919050565b60006130848261300d565b61308e8185613018565b935061309983613029565b8060005b838110156130ca5781516130b18882613054565b97506130bc8361306c565b92505060018101905061309d565b5085935050505092915050565b600081519050919050565b600082825260208201905092915050565b6000819050602082019050919050565b600081519050919050565b600082825260208201905092915050565b60005b8381101561313d578082015181840152602081019050613122565b8381111561314c576000848401525b50505050565b600061315d82613103565b613167818561310e565b935061317781856020860161311f565b61318081612d75565b840191505092915050565b60006131978383613152565b905092915050565b6000602082019050919050565b60006131b7826130d7565b6131c181856130e2565b9350836020820285016131d3856130f3565b8060005b8581101561320f57848403895281516131f0858261318b565b94506131fb8361319f565b925060208a019950506001810190506131d7565b50829750879550505050505092915050565b6000604082019050818103600083015261323b8185613079565b9050818103602083015261324f81846131ac565b90509392505050565b600080fd5b600067ffffffffffffffff82111561327857613277612d86565b5b61328182612d75565b9050602081019050919050565b82818337600083830152505050565b60006132b06132ab8461325d565b612de6565b9050828152602081018484840111156132cc576132cb613258565b5b6132d784828561328e565b509392505050565b600082601f8301126132f4576132f3612d70565b5b813561330484826020860161329d565b91505092915050565b600067ffffffffffffffff82111561332857613327612d86565b5b602082029050602081019050919050565b600061334c6133478461330d565b612de6565b9050808382526020820190506020840283018581111561336f5761336e612e2d565b5b835b8181101561339857806133848882612d5b565b845260208401935050602081019050613371565b5050509392505050565b600082601f8301126133b7576133b6612d70565b5b81356133c7848260208601613339565b91505092915050565b600067ffffffffffffffff8211156133eb576133ea612d86565b5b602082029050602081019050919050565b600067ffffffffffffffff82111561341757613416612d86565b5b61342082612d75565b9050602081019050919050565b600061344061343b846133fc565b612de6565b90508281526020810184848401111561345c5761345b613258565b5b61346784828561328e565b509392505050565b600082601f83011261348457613483612d70565b5b813561349484826020860161342d565b91505092915050565b60006134b06134ab846133d0565b612de6565b905080838252602082019050602084028301858111156134d3576134d2612e2d565b5b835b8181101561351a57803567ffffffffffffffff8111156134f8576134f7612d70565b5b808601613505898261346f565b855260208501945050506020810190506134d5565b5050509392505050565b600082601f83011261353957613538612d70565b5b813561354984826020860161349d565b91505092915050565b600060ff82169050919050565b61356881613552565b811461357357600080fd5b50565b6000813590506135858161355f565b92915050565b60008060008060008060c087890312156135a8576135a7612d08565b5b600087013567ffffffffffffffff8111156135c6576135c5612d0d565b5b6135d289828a016132df565b965050602087013567ffffffffffffffff8111156135f3576135f2612d0d565b5b6135ff89828a016132df565b955050604087013567ffffffffffffffff8111156136205761361f612d0d565b5b61362c89828a016133a2565b945050606087013567ffffffffffffffff81111561364d5761364c612d0d565b5b61365989828a01613524565b935050608061366a89828a01613576565b92505060a061367b89828a01613576565b9150509295509295509295565b60007fffffffffffffffffffffffffffffffffffffffffffffffffffffffffffff000082169050919050565b6136bd81613688565b81146136c857600080fd5b50565b6000813590506136da816136b4565b92915050565b600067ffffffffffffffff8211156136fb576136fa612d86565b5b602082029050602081019050919050565b600061371f61371a846136e0565b612de6565b9050808382526020820190506020840283018581111561374257613741612e2d565b5b835b8181101561376b57806137578882613576565b845260208401935050602081019050613744565b5050509392505050565b600082601f83011261378a57613789612d70565b5b813561379a84826020860161370c565b91505092915050565b6000806000606084860312156137bc576137bb612d08565b5b60006137ca86828701612fcb565b93505060206137db868287016136cb565b925050604084013567ffffffffffffffff8111156137fc576137fb612d0d565b5b61380886828701613775565b9150509250925092565b7f4e487b7100000000000000000000000000000000000000000000000000000000600052603260045260246000fd5b6000819050919050565b7f4e487b7100000000000000000000000000000000000000000000000000000000600052601160045260246000fd5b600061388582613841565b915061389083613841565b9250828210156138a3576138a261384b565b5b828203905092915050565b60006138b982613841565b91506138c483613841565b9250827fffffffffffffffffffffffffffffffffffffffffffffffffffffffffffffffff038211156138f9576138f861384b565b5b828201905092915050565b600061390f82613552565b915060ff82036139225761392161384b565b5b600182019050919050565b60007fffffffffffffffffffffffff000000000000000000000000000000000000000082169050919050565b6000819050919050565b61397461396f8261392d565b613959565b82525050565b60007fffffffffffffffffffffffffffffffffffffffff00000000000000000000000082169050919050565b6000819050919050565b6139c16139bc8261397a565b6139a6565b82525050565b60006139d38285613963565b600c820191506139e382846139b0565b6014820191508190509392505050565b6000819050602082019050919050565b6000613a0f8251612e32565b80915050919050565b600082821b905092915050565b6000613a3082613103565b82613a3a846139f3565b9050613a4581613a03565b92506020821015613a8557613a807fffffffffffffffffffffffffffffffffffffffffffffffffffffffffffffffff83602003600802613a18565b831692505b5050919050565b6000819050919050565b613aa7613aa282612e32565b613a8c565b82525050565b6000613ab98284613a96565b60208201915081905092915050565b613ad181612e32565b82525050565b6000602082019050613aec6000830184613ac8565b92915050565b6000613b05613b00846133fc565b612de6565b905082815260208101848484011115613b2157613b20613258565b5b613b2c84828561311f565b509392505050565b600082601f830112613b4957613b48612d70565b5b8151613b59848260208601613af2565b91505092915050565b600060208284031215613b7857613b77612d08565b5b600082015167ffffffffffffffff811115613b9657613b95612d0d565b5b613ba284828501613b34565b91505092915050565b60007fffffffffffffffffffffffffffffffff0000000000000000000000000000000082169050919050565b6000613be38251613bab565b80915050919050565b6000613bf782613103565b82613c01846139f3565b9050613c0c81613bd7565b92506010821015613c4c57613c477fffffffffffffffffffffffffffffffff0000000000000000000000000000000083601003600802613a18565b831692505b5050919050565b6000819050919050565b613c6e613c6982613bab565b613c53565b82525050565b6000613c808285613c5d565b601082019150613c908284613c5d565b6010820191508190509392505050565b6000613cac82846139b0565b60148201915081905092915050565b60006fffffffffffffffffffffffffffffffff82169050919050565b6000613ce282613cbb565b9150613ced83613cbb565b9250826fffffffffffffffffffffffffffffffff03821115613d1257613d1161384b565b5b828201905092915050565b6000613d298284613c5d565b60108201915081905092915050565b6000819050919050565b613d53613d4e82612f88565b613d38565b82525050565b60007fffffffffffffffffffffffffffffffffffffffffffff0000000000000000000082169050919050565b6000819050919050565b613da0613d9b82613d59565b613d85565b82525050565b6000613db28285613d42565b600a82019150613dc28284613d8f565b6016820191508190509392505050565b60007fffffffffffff000000000000000000000000000000000000000000000000000082169050919050565b6000613e0a8251613dd2565b80915050919050565b6000613e1e82613103565b82613e28846139f3565b9050613e3381613dfe565b92506006821015613e7357613e6e7fffffffffffff000000000000000000000000000000000000000000000000000083600603600802613a18565b831692505b5050919050565b6000819050919050565b60007fffff00000000000000000000000000000000000000000000000000000000000082169050919050565b60008160f01b9050919050565b6000613ed8613ed3613ece84613e7a565b613eb0565b613e84565b9050919050565b613ee881613ebd565b82525050565b6000602082019050613f036000830184613edf565b92915050565b6000819050919050565b6000613f2e613f29613f2484613f09565b613eb0565b613e84565b9050919050565b613f3e81613f13565b82525050565b6000602082019050613f596000830184613f35565b92915050565b60007fff0000000000000000000000000000000000000000000000000000000000000082169050919050565b6000613f978251613f5f565b80915050919050565b6000613fab82613103565b82613fb5846139f3565b9050613fc081613f8b565b9250600182101561400057613ffb7fff0000000000000000000000000000000000000000000000000000000000000083600103600802613a18565b831692505b5050919050565b6000614013825161397a565b80915050919050565b600061402782613103565b82614031846139f3565b905061403c81614007565b9250601482101561407c576140777fffffffffffffffffffffffffffffffffffffffff00000000000000000000000083601403600802613a18565b831692505b5050919050565b600061408f8251613e84565b80915050919050565b60006140a382613103565b826140ad846139f3565b90506140b881614083565b925060028210156140f8576140f37fffff00000000000000000000000000000000000000000000000000000000000083600203600802613a18565b831692505b5050919050565b600061410a82613cbb565b91506fffffffffffffffffffffffffffffffff820361412c5761412b61384b565b5b600182019050919050565b7f4e487b7100000000000000000000000000000000000000000000000000000000600052601260045260246000fd5b600061417182613552565b915061417c83613552565b92508261418c5761418b614137565b5b828204905092915050565b60006141a282613841565b91506141ad83613841565b9250817fffffffffffffffffffffffffffffffffffffffffffffffffffffffffffffffff04831182151516156141e6576141e561384b565b5b828202905092915050565b60006141fc82613841565b915061420783613841565b92508261421757614216614137565b5b828204905092915050565b600061422d82613841565b91507fffffffffffffffffffffffffffffffffffffffffffffffffffffffffffffffff820361425f5761425e61384b565b5b600182019050919050565b600081905092915050565b600061428082613103565b61428a818561426a565b935061429a81856020860161311f565b80840191505092915050565b60006142b28284614275565b915081905092915050565b6000819050919050565b60006142e26142dd6142d8846142bd565b613eb0565b613e84565b9050919050565b6142f2816142c7565b82525050565b600060208201905061430d60008301846142e9565b92915050565b6000819050919050565b600061433861433361432e84614313565b613eb0565b613e84565b9050919050565b6143488161431d565b82525050565b6000602082019050614363600083018461433f565b92915050565b6000819050919050565b600061438e61438961438484614369565b613eb0565b613e84565b9050919050565b61439e81614373565b82525050565b60006020820190506143b96000830184614395565b92915050565b600061ffff82169050919050565b60006143d8826143bf565b915061ffff82036143ec576143eb61384b565b5b600182019050919050565b6000819050919050565b61441261440d82613dd2565b6143f7565b82525050565b60006144248284614401565b60068201915081905092915050565b6000819050919050565b61444e61444982613f5f565b614433565b82525050565b6000614460828461443d565b60018201915081905092915050565b6000819050919050565b600061449461448f61448a8461446f565b613eb0565b613e84565b9050919050565b6144a481614479565b82525050565b60006020820190506144bf600083018461449b565b92915050565b6000819050919050565b60006144ea6144e56144e0846144c5565b613eb0565b613e84565b9050919050565b6144fa816144cf565b82525050565b600060208201905061451560008301846144f1565b92915050565b6000614526826143bf565b9150614531836143bf565b92508261ffff038211156145485761454761384b565b5b828201905092915050565b6000819050919050565b61456e61456982613688565b614553565b82525050565b6000819050919050565b61458f61458a82613e84565b614574565b82525050565b60006145a1828561455d565b601e820191506145b1828461457e565b6002820191508190509392505050565b6145ca81612d32565b82525050565b600081519050919050565b600082825260208201905092915050565b60006145f7826145d0565b61460181856145db565b935061461181856020860161311f565b61461a81612d75565b840191505092915050565b600060408201905061463a60008301856145c1565b818103602083015261464c81846145ec565b90509392505050565b600082825260208201905092915050565b600061467182613103565b61467b8185614655565b935061468b81856020860161311f565b61469481612d75565b840191505092915050565b60006040820190506146b46000830185613ac8565b81810360208301526146c68184614666565b90509392505050565b600060208201905081810360008301526146e98184614666565b905092915050565b600081519050919050565b600082825260208201905092915050565b6000819050602082019050919050565b61472681612e32565b82525050565b6000614738838361471d565b60208301905092915050565b6000602082019050919050565b600061475c826146f1565b61476681856146fc565b93506147718361470d565b8060005b838110156147a2578151614789888261472c565b975061479483614744565b925050600181019050614775565b5085935050505092915050565b600060408201905081810360008301526147c98185614751565b905081810360208301526147dd81846131ac565b90509392505050565b60006147f28286613d42565b600a82019150614802828561457e565b60028201915061481282846139b0565b601482019150819050949350505050565b60007fffffffff0000000000000000000000000000000000000000000000000000000082169050919050565b6000819050919050565b61486a61486582614823565b61484f565b82525050565b600061487c8285614401565b60068201915061488c8284614859565b6004820191508190509392505050565b60006148a88251612f88565b80915050919050565b60006148bc82613103565b826148c6846139f3565b90506148d18161489c565b9250600a8210156149115761490c7fffffffffffffffffffff0000000000000000000000000000000000000000000083600a03600802613a18565b831692505b505091905056fea2646970667358221220943807cfda72b7e84aea11897e4d37efc08594ce9f32c7ebd2a3792d4cee7a2364736f6c634300080f0033",
  "immutableReferences": {},
  "source": "// SPDX-License-Identifier: CC0-1.0\n\npragma solidity ^0.8.0;\n\nimport {IERC725Y} from \"@erc725/smart-contracts/contracts/interfaces/IERC725Y.sol\";\nimport {ILSP6KeyManager} from \"@lukso/lsp-smart-contracts/contracts/LSP6KeyManager/ILSP6KeyManager.sol\";\nimport {IDaoKeyManager} from \"./IDaoKeyManager.sol\";\nimport {\n  NoPermissionsSet,\n  NotAuthorised\n} from \"@lukso/lsp-smart-contracts/contracts/LSP6KeyManager/LSP6Errors.sol\";\nimport {\n  _LSP6KEY_ADDRESSPERMISSIONS_ARRAY,\n  _LSP6KEY_ADDRESSPERMISSIONS_ARRAY_PREFIX,\n  _LSP6KEY_ADDRESSPERMISSIONS_DAOPERMISSIONS_PREFIX,\n  _PERMISSION_VOTE,\n  _PERMISSION_PROPOSE,\n  _PERMISSION_EXECUTE,\n  _PERMISSION_SENDDELEGATE,\n  _PERMISSION_RECIEVEDELEGATE,\n  _PERMISSION_MASTER,\n\n  _KEY_JSON_DAO,\n  _KEY_MAJORITY,\n  _KEY_PARTICIPATIONRATE,\n  _KEY_MINIMUMVOTINGDELAY,\n  _KEY_MINIMUMVOTINGPERIOD,\n\n  _KEY_DELEGATEVOTE,\n  _KEY_ADDRESSDELEGATES_ARRAY_PREFIX,\n\n  _KEY_PROPOSAL_PREFIX,\n  _KEY_PROPOSAL_JSON_SUFFIX,\n  _KEY_PROPOSAL_DELAY_SUFFIX,\n  _KEY_PROPOSAL_PERIOD_SUFFIX,\n  _KEY_PROPOSAL_CREATIONTIMESTAMP_SUFFIX,\n  _KEY_PROPOSAL_TARGETSARRAY_SUFFIX,\n  _KEY_PROPOSAL_DATASARRAY_SUFFIX,\n  _KEY_PROPOSAL_PROPOSALCHOICES_SUFFIX,\n  _KEY_PROPOSAL_MAXIMUMCHOICESPERVOTE_SUFFIX,\n  _KEY_PARTICIPANT_VOTE,\n\n  setDataSingleSelector,\n  setDataMultipleSelector,\n  execute,\n\n  _SPLIT_BYTES32_IN_TWO_HALFS\n} from \"./DaoConstants.sol\";\nimport {ErrorWithNumber} from \"../Errors.sol\";\n\n/**\n *\n* @notice This smart contract is responsible for managing the DAO Keys.\n *\n * @author B00ste\n * @title DaoKeyManager\n * @custom:version 1\n */\ncontract DaoKeyManager is IDaoKeyManager {\n\n  /**\n   * @notice Address of the DAO_ACCOUNT.\n   */\n  address payable private UNIVERSAL_PROFILE;\n\n  /**\n   * @notice Address of the KEY_MANAGER.\n   */\n  address private KEY_MANAGER;\n\n  /**\n   * @dev\n   */\n  constructor(\n    address payable _UNIVERSAL_PROFILE,\n    address _KEY_MANAGER\n  ) {\n    UNIVERSAL_PROFILE = _UNIVERSAL_PROFILE;\n    KEY_MANAGER = _KEY_MANAGER;\n  }\n\n\n  // --- General Methods.\n\n\n  /**\n   * @inheritdoc IDaoKeyManager\n   */\n  function togglePermissions(address _to, bytes32[] memory _permissions) external override {\n    _verifyPermission(msg.sender, _PERMISSION_MASTER, \"MASTER\");\n\n    bytes32 permissions = _getPermissions(_to);\n    for (uint8 i = 0; i < _permissions.length; i++) {\n      if (permissions & _permissions[i] != 0) {\n        permissions = bytes32(uint256(permissions) - uint256(_permissions[i]));\n      }\n      else {\n        permissions = bytes32(uint256(permissions) + uint256(_permissions[i]));\n      }\n    }\n\n    bytes32[] memory keys = new bytes32[](1);\n    keys[0] = bytes32(bytes.concat(_LSP6KEY_ADDRESSPERMISSIONS_DAOPERMISSIONS_PREFIX, bytes20(_to)));\n    bytes[] memory values = new bytes[](1);\n    values[0] = bytes.concat(permissions);\n    _setData(keys, values);\n  }\n\n  /**\n   * @inheritdoc IDaoKeyManager\n   */\n  function delegate(address delegatee) external override {\n    _verifyPermission(msg.sender, _PERMISSION_SENDDELEGATE, \"SENDDELEGATE\");\n    _verifyPermission(delegatee, _PERMISSION_RECIEVEDELEGATE, \"RECIEVEDELEGATE\");\n\n    bytes32 arrayKey = bytes32(bytes.concat(_KEY_ADDRESSDELEGATES_ARRAY_PREFIX, bytes20(delegatee)));\n    uint128 arrayLength = uint128(bytes16(IERC725Y(UNIVERSAL_PROFILE).getData(arrayKey)));\n\n    bytes32[] memory keys = new bytes32[](2);\n    keys[0] = bytes32(bytes.concat(_SPLIT_BYTES32_IN_TWO_HALFS(arrayKey)[0], bytes16(arrayLength)));\n    keys[1] = arrayKey;\n    keys[2] = bytes32(bytes.concat(_KEY_DELEGATEVOTE, bytes20(msg.sender)));\n    bytes[] memory values = new bytes[](2);\n    values[0] = bytes.concat(bytes20(msg.sender));\n    values[1] = bytes.concat(bytes16(arrayLength + 1));\n    values[2] = bytes.concat(bytes20(delegatee));\n  \n    _setData(keys, values);\n  }\n\n  /**\n   * @inheritdoc IDaoKeyManager\n   */\n  function createProposal(\n    string memory title,\n    string memory metadataLink,\n    address[] memory targets,\n    bytes[] memory datas,\n    uint8 choices,\n    uint8 choicesPerVote\n  ) external override {\n    _verifyPermission(msg.sender, _PERMISSION_PROPOSE, \"PROPOSE\");\n    if (targets.length != datas.length) revert ErrorWithNumber(0x0001);\n    if (choices > 16) revert ErrorWithNumber(0x0002);\n    if (choicesPerVote > choices) revert ErrorWithNumber(0x0003);\n\n    uint256 arraysLength = 2 * targets.length;\n    bytes10 KEY_PROPOSAL_PREFIX = _KEY_PROPOSAL_PREFIX(uint48(block.timestamp), title);\n    bytes32[] memory keys = new bytes32[](arraysLength + 7);\n    bytes[] memory values = new bytes[](arraysLength + 7);\n\n    if(arraysLength > 0){\n      for (uint16 i = 0; i < targets.length; i++) {\n        keys[i] = bytes32(bytes.concat(\n          _SPLIT_BYTES32_IN_TWO_HALFS(bytes32(bytes.concat(KEY_PROPOSAL_PREFIX, _KEY_PROPOSAL_TARGETSARRAY_SUFFIX)))[0],\n          bytes16(uint128(i))\n        ));\n        keys[i + targets.length] = bytes32(bytes.concat(\n          _SPLIT_BYTES32_IN_TWO_HALFS(bytes32(bytes.concat(KEY_PROPOSAL_PREFIX, _KEY_PROPOSAL_DATASARRAY_SUFFIX)))[0],\n          bytes16(uint128(i))\n        ));\n\n        values[i] = bytes.concat(bytes20(targets[i]));\n        values[i + targets.length] = datas[i];\n      } \n    }\n\n    keys[arraysLength + 0] = bytes32(bytes.concat(KEY_PROPOSAL_PREFIX, _KEY_PROPOSAL_TARGETSARRAY_SUFFIX));\n    keys[arraysLength + 1] = bytes32(bytes.concat(KEY_PROPOSAL_PREFIX, _KEY_PROPOSAL_DATASARRAY_SUFFIX));\n    keys[arraysLength + 2] = bytes32(bytes.concat(KEY_PROPOSAL_PREFIX, _KEY_PROPOSAL_JSON_SUFFIX));\n    keys[arraysLength + 4] = bytes32(bytes.concat(KEY_PROPOSAL_PREFIX, _KEY_PROPOSAL_CREATIONTIMESTAMP_SUFFIX));\n    keys[arraysLength + 5] = bytes32(bytes.concat(KEY_PROPOSAL_PREFIX, _KEY_PROPOSAL_PROPOSALCHOICES_SUFFIX));\n    keys[arraysLength + 6] = bytes32(bytes.concat(KEY_PROPOSAL_PREFIX, _KEY_PROPOSAL_MAXIMUMCHOICESPERVOTE_SUFFIX));\n\n    values[arraysLength + 0] = bytes.concat(bytes32(targets.length));\n    values[arraysLength + 1] = bytes.concat(bytes32(datas.length));\n    values[arraysLength + 3] = bytes(metadataLink);\n    values[arraysLength + 4] = bytes.concat(bytes6(uint48(block.timestamp)));\n    values[arraysLength + 5] = bytes.concat(bytes1(choices));\n    values[arraysLength + 6] = bytes.concat(bytes1(choicesPerVote));\n\n    _setData(keys, values);\n  }\n\n  /**\n   * @inheritdoc IDaoKeyManager\n   */\n  function executeProposal(\n    bytes10 proposalSignature\n  )\n    external override\n    returns(bool[] memory success, bytes[] memory results)\n  {\n    _verifyPermission(msg.sender, _PERMISSION_EXECUTE, \"EXECUTE\");\n    if (\n      uint256(uint48(bytes6(IERC725Y(UNIVERSAL_PROFILE).getData(bytes32(bytes.concat(proposalSignature, _KEY_PROPOSAL_CREATIONTIMESTAMP_SUFFIX))))))\n      + uint256(uint48(bytes6(IERC725Y(UNIVERSAL_PROFILE).getData(bytes32(bytes.concat(proposalSignature, _KEY_PROPOSAL_DELAY_SUFFIX))))))\n      + uint256(uint48(bytes6(IERC725Y(UNIVERSAL_PROFILE).getData(bytes32(bytes.concat(proposalSignature, _KEY_PROPOSAL_PERIOD_SUFFIX))))))\n      > block.timestamp\n    ) revert ErrorWithNumber(0x0004);\n    if (\n      uint256(bytes32(IERC725Y(UNIVERSAL_PROFILE).getData(\n        bytes32(bytes.concat(proposalSignature, _KEY_PROPOSAL_MAXIMUMCHOICESPERVOTE_SUFFIX))\n      ))) == 0\n    ) revert ErrorWithNumber(0x0005);\n\n    /**\n     * @dev Count all the votes by accessing the choices of all of the participants\n     * of the DAO.\n     * 1. Get the user address and verify its permissions.\n     * 2. If `user` has vote permission and did not delegate his vote\n     * we will save his number of votes as 1 and save his choices for later use.\n     * 3. We verify if the `user` has the RECIEVEDELEGATE permission and if so\n     * we will increase his number of votes by the number of votes delegated to him.\n     * 4. After we got all the needed info we can add the number of votes to the choises of the `user`\n     */  \n    uint8 nrOfChoices =  uint8(bytes1(IERC725Y(UNIVERSAL_PROFILE).getData(bytes32(bytes.concat(proposalSignature, _KEY_PROPOSAL_PROPOSALCHOICES_SUFFIX)))));\n    uint256 totalUsers = uint256(bytes32(IERC725Y(UNIVERSAL_PROFILE).getData(_LSP6KEY_ADDRESSPERMISSIONS_ARRAY)));\n    uint256[] memory votesByChoiceIndex = new uint256[](nrOfChoices);\n    for (uint128 i = 0; i < totalUsers; i++) {\n      address user = address(bytes20(IERC725Y(UNIVERSAL_PROFILE).getData(\n        bytes32(bytes.concat(_LSP6KEY_ADDRESSPERMISSIONS_ARRAY_PREFIX, bytes16(i)))\n      )));\n      bytes32 permissions = _getPermissions(user);\n      bytes20 delegatedTo = bytes20(IERC725Y(UNIVERSAL_PROFILE).getData(\n        bytes32(bytes.concat(_KEY_DELEGATEVOTE, bytes20(user)))\n      ));\n      if (permissions & _PERMISSION_VOTE != 0) {\n        bytes2 choices;\n        uint256 votes;\n        if (delegatedTo == bytes20(0)) {\n          votes = 1;\n          choices = bytes2(IERC725Y(UNIVERSAL_PROFILE).getData(\n            _KEY_PARTICIPANT_VOTE(proposalSignature, user)\n          ));\n        }\n        else {\n          votes = 0;\n        }\n        if (permissions & _PERMISSION_RECIEVEDELEGATE != 0) {\n          votes += uint256(bytes32(IERC725Y(UNIVERSAL_PROFILE).getData(\n            bytes32(bytes.concat(_KEY_ADDRESSDELEGATES_ARRAY_PREFIX, bytes20(user)))\n          )));\n        }\n        for(uint8 j = 0; j < nrOfChoices; j++) {\n          choices & bytes2(uint16(1 << j)) != 0 ? votesByChoiceIndex[j] += votes : 0;\n        }\n      }\n    }\n\n    /**\n     * @dev We split all the choices between `negativeVotes` and `positiveVotes`\n     *  ____________________________________\n     * |  1  |  2  |  3  | 4 | 5  | 6  | 7  |\n     * | -42 | -28 | -14 | 0 | 14 | 28 | 42 |\n     * |_____|_____|_____|___|____|____|____|\n     *\n     */\n    uint256 totalVotes;\n    uint256 negativeVotes;\n    uint256 positiveVotes;\n    for (uint256 i = 0; i < nrOfChoices; i++) {\n      totalVotes += votesByChoiceIndex[i];\n      if (i < nrOfChoices/2) {\n        negativeVotes += ((nrOfChoices/2 - i) * 100/nrOfChoices) * votesByChoiceIndex[i];\n      }\n      else {\n        positiveVotes += ((i - nrOfChoices/2) * 100/nrOfChoices) * votesByChoiceIndex[i];\n      }\n    }\n\n    uint256 majority = uint256(bytes32(IERC725Y(UNIVERSAL_PROFILE).getData(_KEY_MAJORITY)));\n    uint256 participationRate = uint256(bytes32(IERC725Y(UNIVERSAL_PROFILE).getData(\n      _KEY_PARTICIPATIONRATE\n    )));\n\n    /**\n     * @dev Check if the proposal has passed and execute the saved methods.\n     */\n    if(\n      totalVotes/totalUsers > participationRate/totalUsers &&\n      positiveVotes/totalVotes > majority/totalVotes\n    ) {\n      bytes32 targetsKey = bytes32(bytes.concat(proposalSignature, _KEY_PROPOSAL_TARGETSARRAY_SUFFIX));\n      bytes32 datasKey = bytes32(bytes.concat(proposalSignature, _KEY_PROPOSAL_DATASARRAY_SUFFIX));\n      uint256 arrayLength = uint256(bytes32(IERC725Y(UNIVERSAL_PROFILE).getData(targetsKey)));\n      success = new bool[](arrayLength);\n      results = new bytes[](arrayLength);\n      for (uint256 i = 0; i < arrayLength; i++) {\n        (success[i], results[i]) = address(bytes20(IERC725Y(UNIVERSAL_PROFILE).getData(targetsKey)))\n        .call(IERC725Y(UNIVERSAL_PROFILE).getData(datasKey));\n      }\n    }\n\n  }\n\n  /**\n   * @inheritdoc IDaoKeyManager\n   */\n  function vote(\n    bytes10 proposalSignature,\n    bytes30 voteDescription,\n    uint8[] memory choicesArray\n  ) external override {\n    _verifyPermission(msg.sender, _PERMISSION_VOTE, \"VOTE\");\n    if (\n      uint256(bytes32(\n        IERC725Y(UNIVERSAL_PROFILE).getData(\n          _KEY_PARTICIPANT_VOTE(proposalSignature, msg.sender)\n        )\n      )) != 0\n    ) revert ErrorWithNumber(0x0006);\n    if (\n      uint8(bytes1(IERC725Y(UNIVERSAL_PROFILE).getData(\n        bytes32(bytes.concat(proposalSignature, _KEY_PROPOSAL_MAXIMUMCHOICESPERVOTE_SUFFIX))\n      ))) < choicesArray.length\n    ) revert ErrorWithNumber(0x0007);\n\n    uint16 choices = 0;\n    for(uint128 i = 0; i < choicesArray.length; i++) {\n      if(\n      uint8(bytes1(IERC725Y(UNIVERSAL_PROFILE).getData(\n        bytes32(bytes.concat(\n          _SPLIT_BYTES32_IN_TWO_HALFS(\n            bytes32(bytes.concat(\n              proposalSignature, _KEY_PROPOSAL_PROPOSALCHOICES_SUFFIX\n            ))\n          )[0],\n          bytes16(i)\n        ))\n      ))) == choicesArray[i]\n      ) {\n        choices = choices + uint16(1 << i);\n      }\n    }\n\n    bytes32[] memory keys = new bytes32[](1);\n    keys[0] = _KEY_PARTICIPANT_VOTE(proposalSignature, msg.sender);\n    bytes[] memory values = new bytes[](1);\n    values[0] = bytes.concat(voteDescription, bytes2(choices));\n    _setData(keys, values);\n  }\n\n\n  // --- Internal Methods.\n\n  /**\n   * @dev\n   */\n  function _getPermissions(\n    address _from\n  )\n    internal\n    view\n    returns(bytes32 permissions)\n  {\n    permissions = bytes32(IERC725Y(UNIVERSAL_PROFILE).getData(bytes32(bytes.concat(\n      _LSP6KEY_ADDRESSPERMISSIONS_DAOPERMISSIONS_PREFIX,\n      bytes20(_from)\n    ))));\n  }\n\n  /**\n   * @dev\n   */\n  function _verifyPermission(\n    address _from,\n    bytes32 _permission,\n    string memory _permissionName\n  )\n    internal\n    view\n  {\n    bytes32 permissions = _getPermissions(_from);\n    if(permissions & _permission == 0) revert NotAuthorised(_from, _permissionName);\n  }\n\n  /**\n   * @dev\n   */\n  function _setData(\n    bytes32[] memory _keys,\n    bytes[] memory _values\n  ) internal returns(bytes memory result) {\n    require(_keys.length == _values.length);\n    require(_keys.length > 0);\n    \n    if(_keys.length == 1) {\n      result = ILSP6KeyManager(KEY_MANAGER).execute(\n        abi.encodeWithSelector(\n          setDataSingleSelector, _keys[0], _values[0]\n        )\n      );\n    }\n    else {\n      result = ILSP6KeyManager(KEY_MANAGER).execute(\n        abi.encodeWithSelector(\n          setDataMultipleSelector, _keys, _values\n        )\n      );\n    }\n  }\n\n}",
  "sourcePath": "/home/b00ste/Projects/universal-profile-governance/contracts/DaoAccount/DaoKeyManager.sol",
  "compiler": {
    "name": "solc",
    "version": "0.8.15+commit.e14f2714.Emscripten.clang"
  },
  "schemaVersion": "3.4.8",
  "updatedAt": "2022-07-28T18:38:29.134Z",
  "networkType": "ethereum",
  "devdoc": {
    "author": "B00ste",
    "custom:version": "1",
    "errors": {
      "NotAuthorised(address,string)": [
        {
          "details": "address `from` is not authorised to `permission`",
          "params": {
            "from": "address not-authorised",
            "permission": "permission required"
          }
        }
      ]
    },
    "kind": "dev",
    "methods": {},
    "title": "DaoKeyManager",
    "version": 1
  },
  "userdoc": {
    "kind": "user",
    "methods": {
      "createProposal(string,string,address[],bytes[],uint8,uint8)": {
        "notice": "Create a proposal."
      },
      "delegate(address)": {
        "notice": "Delegate your vote."
      },
      "executeProposal(bytes10)": {
        "notice": "Execute the calldata of the Proposal if there is one."
      },
      "togglePermissions(address,bytes32[])": {
        "notice": "Toggle permissions of an address."
      },
      "vote(bytes10,bytes30,uint8[])": {
        "notice": "Vote on a proposal."
      }
    },
    "notice": "This smart contract is responsible for managing the DAO Keys.",
    "version": 1
  }
}