{
  "contractName": "DaoParticipation",
  "abi": [
    {
      "inputs": [
        {
          "internalType": "contract DaoUtils",
          "name": "_utils",
          "type": "address"
        }
      ],
      "stateMutability": "nonpayable",
      "type": "constructor"
    },
    {
      "inputs": [
        {
          "internalType": "address",
          "name": "universalProfileAddress",
          "type": "address"
        }
      ],
      "name": "_getArrayOfDaosLength",
      "outputs": [
        {
          "internalType": "uint256",
          "name": "length",
          "type": "uint256"
        }
      ],
      "stateMutability": "view",
      "type": "function"
    },
    {
      "inputs": [
        {
          "internalType": "address",
          "name": "universalProfileAddress",
          "type": "address"
        },
        {
          "internalType": "uint128",
          "name": "index",
          "type": "uint128"
        }
      ],
      "name": "_getDaoFromArrayByIndex",
      "outputs": [
        {
          "internalType": "address",
          "name": "daoAddress",
          "type": "address"
        }
      ],
      "stateMutability": "view",
      "type": "function"
    },
    {
      "inputs": [
        {
          "internalType": "address",
          "name": "daoAddress",
          "type": "address"
        }
      ],
      "name": "_getContollersArrayKey",
      "outputs": [
        {
          "internalType": "bytes32",
          "name": "controllersArrayKey",
          "type": "bytes32"
        }
      ],
      "stateMutability": "pure",
      "type": "function"
    },
    {
      "inputs": [
        {
          "internalType": "address",
          "name": "universalProfileAddress",
          "type": "address"
        },
        {
          "internalType": "address",
          "name": "daoAddress",
          "type": "address"
        }
      ],
      "name": "_getControllersArrayLength",
      "outputs": [
        {
          "internalType": "uint256",
          "name": "length",
          "type": "uint256"
        }
      ],
      "stateMutability": "view",
      "type": "function"
    },
    {
      "inputs": [
        {
          "internalType": "address",
          "name": "universalProfileAddress",
          "type": "address"
        },
        {
          "internalType": "address",
          "name": "daoAddress",
          "type": "address"
        },
        {
          "internalType": "uint128",
          "name": "index",
          "type": "uint128"
        }
      ],
      "name": "_getControllerByIndex",
      "outputs": [
        {
          "internalType": "address",
          "name": "controllerAddress",
          "type": "address"
        }
      ],
      "stateMutability": "view",
      "type": "function"
    }
  ],
  "bytecode": "0x60806040527fbd0fc089e4959fa394a5a3527ee3a872ddae5e9a689008758a5af13d8c4b54fb6001553480156200003557600080fd5b5060405162000f7f38038062000f7f83398181016040528101906200005b919062000120565b806000806101000a81548173ffffffffffffffffffffffffffffffffffffffff021916908373ffffffffffffffffffffffffffffffffffffffff1602179055505062000152565b600080fd5b600073ffffffffffffffffffffffffffffffffffffffff82169050919050565b6000620000d482620000a7565b9050919050565b6000620000e882620000c7565b9050919050565b620000fa81620000db565b81146200010657600080fd5b50565b6000815190506200011a81620000ef565b92915050565b600060208284031215620001395762000138620000a2565b5b6000620001498482850162000109565b91505092915050565b610e1d80620001626000396000f3fe608060405234801561001057600080fd5b50600436106100575760003560e01c80632670e0391461005c5780633afeff901461008c5780634632b877146100bc578063c8b39ce6146100ec578063f870194a1461011c575b600080fd5b610076600480360381019061007191906106a7565b61014c565b60405161008391906106f6565b60405180910390f35b6100a660048036038101906100a19190610711565b6102cc565b6040516100b39190610757565b60405180910390f35b6100d660048036038101906100d19190610772565b610367565b6040516100e391906106f6565b60405180910390f35b610106600480360381019061010191906107c5565b6104ee565b6040516101139190610757565b60405180910390f35b61013660048036038101906101319190610711565b610590565b604051610143919061081e565b60405180910390f35b60008083905060008060009054906101000a900473ffffffffffffffffffffffffffffffffffffffff1673ffffffffffffffffffffffffffffffffffffffff16634bb5ec326001546040518263ffffffff1660e01b81526004016101b0919061081e565b6040805180830381865afa1580156101cc573d6000803e3d6000fd5b505050506040513d601f19601f820116820180604052508101906101f091906109d8565b60006002811061020357610202610a05565b5b60200201518460801b60405160200161021d929190610a55565b60405160208183030381529060405261023590610abe565b90508173ffffffffffffffffffffffffffffffffffffffff166354f6127f826040518263ffffffff1660e01b8152600401610270919061081e565b600060405180830381865afa15801561028d573d6000803e3d6000fd5b505050506040513d6000823e3d601f19601f820116820180604052508101906102b69190610bfe565b6102bf90610c88565b60601c9250505092915050565b6000808290508073ffffffffffffffffffffffffffffffffffffffff166354f6127f6001546040518263ffffffff1660e01b815260040161030d919061081e565b600060405180830381865afa15801561032a573d6000803e3d6000fd5b505050506040513d6000823e3d601f19601f820116820180604052508101906103539190610bfe565b61035c90610abe565b60001c915050919050565b60008084905060008060009054906101000a900473ffffffffffffffffffffffffffffffffffffffff1673ffffffffffffffffffffffffffffffffffffffff16634bb5ec326103b587610590565b6040518263ffffffff1660e01b81526004016103d1919061081e565b6040805180830381865afa1580156103ed573d6000803e3d6000fd5b505050506040513d601f19601f8201168201806040525081019061041191906109d8565b60006002811061042457610423610a05565b5b60200201518460801b60405160200161043e929190610a55565b60405160208183030381529060405261045690610abe565b90508173ffffffffffffffffffffffffffffffffffffffff166354f6127f826040518263ffffffff1660e01b8152600401610491919061081e565b600060405180830381865afa1580156104ae573d6000803e3d6000fd5b505050506040513d6000823e3d601f19601f820116820180604052508101906104d79190610bfe565b6104e090610c88565b60601c925050509392505050565b6000808390508073ffffffffffffffffffffffffffffffffffffffff166354f6127f61051985610590565b6040518263ffffffff1660e01b8152600401610535919061081e565b600060405180830381865afa158015610552573d6000803e3d6000fd5b505050506040513d6000823e3d601f19601f8201168201806040525081019061057b9190610bfe565b61058490610abe565b60001c91505092915050565b60007f40caeb577645b0a6a0971f65980797dc0e4ab346be8af29e76af68e6c83ee900600060f01b8360601b6040516020016105ce93929190610daa565b6040516020818303038152906040526105e690610abe565b9050919050565b6000604051905090565b600080fd5b600080fd5b600073ffffffffffffffffffffffffffffffffffffffff82169050919050565b600061062c82610601565b9050919050565b61063c81610621565b811461064757600080fd5b50565b60008135905061065981610633565b92915050565b60006fffffffffffffffffffffffffffffffff82169050919050565b6106848161065f565b811461068f57600080fd5b50565b6000813590506106a18161067b565b92915050565b600080604083850312156106be576106bd6105f7565b5b60006106cc8582860161064a565b92505060206106dd85828601610692565b9150509250929050565b6106f081610621565b82525050565b600060208201905061070b60008301846106e7565b92915050565b600060208284031215610727576107266105f7565b5b60006107358482850161064a565b91505092915050565b6000819050919050565b6107518161073e565b82525050565b600060208201905061076c6000830184610748565b92915050565b60008060006060848603121561078b5761078a6105f7565b5b60006107998682870161064a565b93505060206107aa8682870161064a565b92505060406107bb86828701610692565b9150509250925092565b600080604083850312156107dc576107db6105f7565b5b60006107ea8582860161064a565b92505060206107fb8582860161064a565b9150509250929050565b6000819050919050565b61081881610805565b82525050565b6000602082019050610833600083018461080f565b92915050565b600080fd5b6000601f19601f8301169050919050565b7f4e487b7100000000000000000000000000000000000000000000000000000000600052604160045260246000fd5b6108878261083e565b810181811067ffffffffffffffff821117156108a6576108a561084f565b5b80604052505050565b60006108b96105ed565b90506108c5828261087e565b919050565b600067ffffffffffffffff8211156108e5576108e461084f565b5b602082029050919050565b600080fd5b60007fffffffffffffffffffffffffffffffff0000000000000000000000000000000082169050919050565b61092a816108f5565b811461093557600080fd5b50565b60008151905061094781610921565b92915050565b600061096061095b846108ca565b6108af565b9050806020840283018581111561097a576109796108f0565b5b835b818110156109a3578061098f8882610938565b84526020840193505060208101905061097c565b5050509392505050565b600082601f8301126109c2576109c1610839565b5b60026109cf84828561094d565b91505092915050565b6000604082840312156109ee576109ed6105f7565b5b60006109fc848285016109ad565b91505092915050565b7f4e487b7100000000000000000000000000000000000000000000000000000000600052603260045260246000fd5b6000819050919050565b610a4f610a4a826108f5565b610a34565b82525050565b6000610a618285610a3e565b601082019150610a718284610a3e565b6010820191508190509392505050565b600081519050919050565b6000819050602082019050919050565b6000610aa88251610805565b80915050919050565b600082821b905092915050565b6000610ac982610a81565b82610ad384610a8c565b9050610ade81610a9c565b92506020821015610b1e57610b197fffffffffffffffffffffffffffffffffffffffffffffffffffffffffffffffff83602003600802610ab1565b831692505b5050919050565b600080fd5b600067ffffffffffffffff821115610b4557610b4461084f565b5b610b4e8261083e565b9050602081019050919050565b60005b83811015610b79578082015181840152602081019050610b5e565b83811115610b88576000848401525b50505050565b6000610ba1610b9c84610b2a565b6108af565b905082815260208101848484011115610bbd57610bbc610b25565b5b610bc8848285610b5b565b509392505050565b600082601f830112610be557610be4610839565b5b8151610bf5848260208601610b8e565b91505092915050565b600060208284031215610c1457610c136105f7565b5b600082015167ffffffffffffffff811115610c3257610c316105fc565b5b610c3e84828501610bd0565b91505092915050565b60007fffffffffffffffffffffffffffffffffffffffff00000000000000000000000082169050919050565b6000610c7f8251610c47565b80915050919050565b6000610c9382610a81565b82610c9d84610a8c565b9050610ca881610c73565b92506014821015610ce857610ce37fffffffffffffffffffffffffffffffffffffffff00000000000000000000000083601403600802610ab1565b831692505b5050919050565b60007fffffffffffffffffffff0000000000000000000000000000000000000000000082169050919050565b6000819050919050565b610d36610d3182610cef565b610d1b565b82525050565b60007fffff00000000000000000000000000000000000000000000000000000000000082169050919050565b6000819050919050565b610d83610d7e82610d3c565b610d68565b82525050565b6000819050919050565b610da4610d9f82610c47565b610d89565b82525050565b6000610db68286610d25565b600a82019150610dc68285610d72565b600282019150610dd68284610d93565b60148201915081905094935050505056fea2646970667358221220b0a61eb40badc5fe13ee7667a9b4f7e233e4fe69d4b0ff407e8fb35034bcb23d64736f6c634300080f0033",
  "immutableReferences": {},
  "source": "// SPDX-License-Identifier: CC0-1.0\n\npragma solidity ^0.8.0;\n\nimport \"@erc725/smart-contracts/contracts/interfaces/IERC725Y.sol\";\nimport \"./DaoUtils.sol\";\n\n/**\n * @author B00ste\n * @title DaoParticipation\n * @custom:version 0.91\n */\ncontract DaoParticipation {\n\n  // --- ATTRIBUTES\n\n  /**\n   * @notice Instance for the utils of a Universal Profile DAO.\n   */\n  DaoUtils private utils;\n\n  constructor(DaoUtils _utils) {\n    utils = _utils;\n  }\n\n  /**\n   * @notice The key for the array of DAOs that a Universal Profile is a participant of.\n   */\n  bytes32 arrayOfDaosKey = bytes32(keccak256(\"ArrayOfDaos[]\"));\n\n  // --- GETTERS & SETTERS\n\n  /**\n   * @notice Get the length of the array of daos that the Universal Profile is a participant of.\n   */\n  function _getArrayOfDaosLength(address universalProfileAddress) public view returns(uint256 length) {\n    IERC725Y UP = IERC725Y(universalProfileAddress);\n    length = uint256(bytes32(UP.getData(arrayOfDaosKey)));\n  }\n\n  /**\n   * @notice Set the length of the array of daos that the Universal Profile is a participant of.\n   */\n  function _setArrayOfDaosLength(address universalProfileAddress, uint256 length) internal {\n    IERC725Y UP = IERC725Y(universalProfileAddress);\n    UP.setData(arrayOfDaosKey, bytes.concat(bytes32(length)));\n  }\n\n  /**\n   * @notice Get DAO from array by index.\n   */\n  function _getDaoFromArrayByIndex(address universalProfileAddress, uint128 index) public view returns(address daoAddress) {\n    IERC725Y UP = IERC725Y(universalProfileAddress);\n    bytes32 key = bytes32(bytes.concat(\n      utils._bytes32ToTwoHalfs(arrayOfDaosKey)[0],\n      bytes16(index)\n    ));\n    daoAddress = address(bytes20(UP.getData(key)));\n  }\n\n  /**\n   * @notice Set DAO to array by index.\n   */\n  function _setDaoToArrayByIndex(address universalProfileAddress, address daoAddress, uint128 index) internal {\n    IERC725Y UP = IERC725Y(universalProfileAddress);\n    bytes32 key = bytes32(bytes.concat(\n      utils._bytes32ToTwoHalfs(arrayOfDaosKey)[0],\n      bytes16(index)\n    ));\n    UP.setData(key, bytes.concat(bytes20(daoAddress)));\n  }\n\n  /**\n   * @notice Get the key for the array of controllers of a Universal Profile for a DAO.\n   */\n  function _getContollersArrayKey(address daoAddress) public pure returns(bytes32 controllersArrayKey) {\n    controllersArrayKey = bytes32(bytes.concat(\n      bytes10(keccak256(\"UPControllersForDaoArray[]\")),\n      bytes2(0),\n      bytes20(daoAddress)\n    ));\n  }\n\n  /**\n   * @notice Get the length of the array of controllers of the a Universal Profile for a DAO.\n   */\n  function _getControllersArrayLength(address universalProfileAddress, address daoAddress) public view returns(uint256 length) {\n    IERC725Y UP = IERC725Y(universalProfileAddress);\n    length = uint256(bytes32(UP.getData(_getContollersArrayKey(daoAddress))));\n  }\n\n  /**\n   * @notice Set the length of the array of controllers of the a Universal Profile for a DAO.\n   */\n  function _setControllersArrayLength(address universalProfileAddress, address daoAddress, uint256 length) internal {\n    IERC725Y UP = IERC725Y(universalProfileAddress);\n    UP.setData(_getContollersArrayKey(daoAddress), bytes.concat(bytes32(length)));\n  }\n\n  /**\n   * @notice Get controller of the Universal Profile for the DAO.\n   */\n  function _getControllerByIndex(address universalProfileAddress, address daoAddress, uint128 index) public view returns(address controllerAddress) {\n    IERC725Y UP = IERC725Y(universalProfileAddress);\n    bytes32 key = bytes32(bytes.concat(\n      utils._bytes32ToTwoHalfs(_getContollersArrayKey(daoAddress))[0],\n      bytes16(index)\n    ));\n    controllerAddress = address(bytes20(UP.getData(key)));\n  }\n\n  /**\n   * @notice Set controller of the Universal Profile for the DAO.\n   */\n  function _setControllerByIndex(address universalProfileAddress, address daoAddress, address controllerAddress, uint128 index) internal {\n    IERC725Y UP = IERC725Y(universalProfileAddress);\n    bytes32 key = bytes32(bytes.concat(\n      utils._bytes32ToTwoHalfs(_getContollersArrayKey(daoAddress))[0],\n      bytes16(index)\n    ));\n    UP.setData(key, bytes.concat(bytes20(controllerAddress)));\n  }\n\n}",
  "sourcePath": "/home/b00ste/Projects/universal-profile-governance/contracts/UPDao/DaoParticipation.sol",
  "compiler": {
    "name": "solc",
    "version": "0.8.15+commit.e14f2714.Emscripten.clang"
  },
  "schemaVersion": "3.4.8",
  "updatedAt": "2022-07-21T08:10:15.174Z",
  "devdoc": {
    "author": "B00ste",
    "custom:version": "0.91",
    "kind": "dev",
    "methods": {},
    "title": "DaoParticipation",
    "version": 1
  },
  "userdoc": {
    "kind": "user",
    "methods": {
      "_getArrayOfDaosLength(address)": {
        "notice": "Get the length of the array of daos that the Universal Profile is a participant of."
      },
      "_getContollersArrayKey(address)": {
        "notice": "Get the key for the array of controllers of a Universal Profile for a DAO."
      },
      "_getControllerByIndex(address,address,uint128)": {
        "notice": "Get controller of the Universal Profile for the DAO."
      },
      "_getControllersArrayLength(address,address)": {
        "notice": "Get the length of the array of controllers of the a Universal Profile for a DAO."
      },
      "_getDaoFromArrayByIndex(address,uint128)": {
        "notice": "Get DAO from array by index."
      }
    },
    "version": 1
  }
}