{
  "contractName": "DaoPermissions",
  "abi": [
    {
      "inputs": [
        {
          "internalType": "contract LSP0ERC725Account",
          "name": "_DAO",
          "type": "address"
        },
        {
          "internalType": "contract DaoUtils",
          "name": "_utils",
          "type": "address"
        }
      ],
      "stateMutability": "nonpayable",
      "type": "constructor"
    },
    {
      "inputs": [
        {
          "internalType": "uint8",
          "name": "index",
          "type": "uint8"
        }
      ],
      "name": "_getPermissionsByIndex",
      "outputs": [
        {
          "internalType": "bytes32",
          "name": "permission",
          "type": "bytes32"
        }
      ],
      "stateMutability": "view",
      "type": "function"
    },
    {
      "inputs": [],
      "name": "_getDaoAddressesArrayLength",
      "outputs": [
        {
          "internalType": "uint256",
          "name": "length",
          "type": "uint256"
        }
      ],
      "stateMutability": "view",
      "type": "function"
    },
    {
      "inputs": [
        {
          "internalType": "uint256",
          "name": "index",
          "type": "uint256"
        }
      ],
      "name": "_getDaoAddressByIndex",
      "outputs": [
        {
          "internalType": "bytes",
          "name": "daoAddress",
          "type": "bytes"
        }
      ],
      "stateMutability": "view",
      "type": "function"
    },
    {
      "inputs": [
        {
          "internalType": "address",
          "name": "daoAddress",
          "type": "address"
        }
      ],
      "name": "_getAddressDaoPermission",
      "outputs": [
        {
          "internalType": "bytes",
          "name": "addressPermssions",
          "type": "bytes"
        }
      ],
      "stateMutability": "view",
      "type": "function"
    }
  ],
  "bytecode": "0x60806040526040518060a00160405280600160001b8152602001600260001b8152602001600460001b8152602001600860001b8152602001601060001b81525060029060056200005192919062000132565b507f72ba3778f5d93e8643176651d8174361d2ba28345f5eaa8b6a10f65dbfcf7c916007553480156200008357600080fd5b5060405162000f4a38038062000f4a8339818101604052810190620000a991906200026d565b816000806101000a81548173ffffffffffffffffffffffffffffffffffffffff021916908373ffffffffffffffffffffffffffffffffffffffff16021790555080600160006101000a81548173ffffffffffffffffffffffffffffffffffffffff021916908373ffffffffffffffffffffffffffffffffffffffff1602179055505050620002b4565b826005810192821562000164579160200282015b828111156200016357825182559160200191906001019062000146565b5b50905062000173919062000177565b5090565b5b808211156200019257600081600090555060010162000178565b5090565b600080fd5b600073ffffffffffffffffffffffffffffffffffffffff82169050919050565b6000620001c8826200019b565b9050919050565b6000620001dc82620001bb565b9050919050565b620001ee81620001cf565b8114620001fa57600080fd5b50565b6000815190506200020e81620001e3565b92915050565b600062000221826200019b565b9050919050565b6000620002358262000214565b9050919050565b620002478162000228565b81146200025357600080fd5b50565b60008151905062000267816200023c565b92915050565b6000806040838503121562000287576200028662000196565b5b60006200029785828601620001fd565b9250506020620002aa8582860162000256565b9150509250929050565b610c8680620002c46000396000f3fe608060405234801561001057600080fd5b506004361061004c5760003560e01c80631da0d49f146100515780636405184e146100815780637b3008661461009f578063d6d09cfb146100cf575b600080fd5b61006b60048036038101906100669190610500565b6100ff565b60405161007891906105c6565b60405180910390f35b610089610222565b6040516100969190610601565b60405180910390f35b6100b960048036038101906100b49190610648565b6102d7565b6040516100c691906105c6565b60405180910390f35b6100e960048036038101906100e491906106ae565b61046c565b6040516100f691906106f4565b60405180910390f35b606060007f6f1212b29e0d5f509b2e732e5f6a14acceb10e7f27ee7136e73989d3b14d592c7fd553aa042a90e2c5d42813162a48e47473d9969955759122f7bf8ec00217f413600060f01b8560601b6040516020016101619493929190610843565b604051602081830303815290604052610179906108c3565b905060008054906101000a900473ffffffffffffffffffffffffffffffffffffffff1673ffffffffffffffffffffffffffffffffffffffff166354f6127f826040518263ffffffff1660e01b81526004016101d491906106f4565b600060405180830381865afa1580156101f1573d6000803e3d6000fd5b505050506040513d6000823e3d601f19601f8201168201806040525081019061021a9190610a50565b915050919050565b60008060009054906101000a900473ffffffffffffffffffffffffffffffffffffffff1673ffffffffffffffffffffffffffffffffffffffff166354f6127f6007546040518263ffffffff1660e01b815260040161028091906106f4565b600060405180830381865afa15801561029d573d6000803e3d6000fd5b505050506040513d6000823e3d601f19601f820116820180604052508101906102c69190610a50565b6102cf906108c3565b60001c905090565b60606000600160009054906101000a900473ffffffffffffffffffffffffffffffffffffffff1673ffffffffffffffffffffffffffffffffffffffff16634bb5ec326007546040518263ffffffff1660e01b815260040161033891906106f4565b6040805180830381865afa158015610354573d6000803e3d6000fd5b505050506040513d601f19601f820116820180604052508101906103789190610ba7565b90506000816000600281106103905761038f610bd4565b5b60200201518460801b6040516020016103aa929190610c24565b6040516020818303038152906040526103c2906108c3565b905060008054906101000a900473ffffffffffffffffffffffffffffffffffffffff1673ffffffffffffffffffffffffffffffffffffffff166354f6127f826040518263ffffffff1660e01b815260040161041d91906106f4565b600060405180830381865afa15801561043a573d6000803e3d6000fd5b505050506040513d6000823e3d601f19601f820116820180604052508101906104639190610a50565b92505050919050565b600060028260ff166005811061048557610484610bd4565b5b01549050919050565b6000604051905090565b600080fd5b600080fd5b600073ffffffffffffffffffffffffffffffffffffffff82169050919050565b60006104cd826104a2565b9050919050565b6104dd816104c2565b81146104e857600080fd5b50565b6000813590506104fa816104d4565b92915050565b60006020828403121561051657610515610498565b5b6000610524848285016104eb565b91505092915050565b600081519050919050565b600082825260208201905092915050565b60005b8381101561056757808201518184015260208101905061054c565b83811115610576576000848401525b50505050565b6000601f19601f8301169050919050565b60006105988261052d565b6105a28185610538565b93506105b2818560208601610549565b6105bb8161057c565b840191505092915050565b600060208201905081810360008301526105e0818461058d565b905092915050565b6000819050919050565b6105fb816105e8565b82525050565b600060208201905061061660008301846105f2565b92915050565b610625816105e8565b811461063057600080fd5b50565b6000813590506106428161061c565b92915050565b60006020828403121561065e5761065d610498565b5b600061066c84828501610633565b91505092915050565b600060ff82169050919050565b61068b81610675565b811461069657600080fd5b50565b6000813590506106a881610682565b92915050565b6000602082840312156106c4576106c3610498565b5b60006106d284828501610699565b91505092915050565b6000819050919050565b6106ee816106db565b82525050565b600060208201905061070960008301846106e5565b92915050565b60007fffffffffffff000000000000000000000000000000000000000000000000000082169050919050565b6000819050919050565b6107566107518261070f565b61073b565b82525050565b60007fffffffff0000000000000000000000000000000000000000000000000000000082169050919050565b6000819050919050565b6107a361079e8261075c565b610788565b82525050565b60007fffff00000000000000000000000000000000000000000000000000000000000082169050919050565b6000819050919050565b6107f06107eb826107a9565b6107d5565b82525050565b60007fffffffffffffffffffffffffffffffffffffffff00000000000000000000000082169050919050565b6000819050919050565b61083d610838826107f6565b610822565b82525050565b600061084f8287610745565b60068201915061085f8286610792565b60048201915061086f82856107df565b60028201915061087f828461082c565b60148201915081905095945050505050565b6000819050602082019050919050565b60006108ad82516106db565b80915050919050565b600082821b905092915050565b60006108ce8261052d565b826108d884610891565b90506108e3816108a1565b925060208210156109235761091e7fffffffffffffffffffffffffffffffffffffffffffffffffffffffffffffffff836020036008026108b6565b831692505b5050919050565b600080fd5b600080fd5b7f4e487b7100000000000000000000000000000000000000000000000000000000600052604160045260246000fd5b61096c8261057c565b810181811067ffffffffffffffff8211171561098b5761098a610934565b5b80604052505050565b600061099e61048e565b90506109aa8282610963565b919050565b600067ffffffffffffffff8211156109ca576109c9610934565b5b6109d38261057c565b9050602081019050919050565b60006109f36109ee846109af565b610994565b905082815260208101848484011115610a0f57610a0e61092f565b5b610a1a848285610549565b509392505050565b600082601f830112610a3757610a3661092a565b5b8151610a478482602086016109e0565b91505092915050565b600060208284031215610a6657610a65610498565b5b600082015167ffffffffffffffff811115610a8457610a8361049d565b5b610a9084828501610a22565b91505092915050565b600067ffffffffffffffff821115610ab457610ab3610934565b5b602082029050919050565b600080fd5b60007fffffffffffffffffffffffffffffffff0000000000000000000000000000000082169050919050565b610af981610ac4565b8114610b0457600080fd5b50565b600081519050610b1681610af0565b92915050565b6000610b2f610b2a84610a99565b610994565b90508060208402830185811115610b4957610b48610abf565b5b835b81811015610b725780610b5e8882610b07565b845260208401935050602081019050610b4b565b5050509392505050565b600082601f830112610b9157610b9061092a565b5b6002610b9e848285610b1c565b91505092915050565b600060408284031215610bbd57610bbc610498565b5b6000610bcb84828501610b7c565b91505092915050565b7f4e487b7100000000000000000000000000000000000000000000000000000000600052603260045260246000fd5b6000819050919050565b610c1e610c1982610ac4565b610c03565b82525050565b6000610c308285610c0d565b601082019150610c408284610c0d565b601082019150819050939250505056fea2646970667358221220df720fe9f237926c75d60d16bff2c24ad8a10b120d4c4eaddb70eb4847d9d4d564736f6c634300080f0033",
  "immutableReferences": {},
  "source": "// SPDX-License-Identifier: CC0-1.0\n\npragma solidity ^0.8.0;\n\nimport \"@lukso/lsp-smart-contracts/contracts/LSP0ERC725Account/LSP0ERC725Account.sol\";\nimport \"./DaoUtils.sol\";\n\n/**\n *\n* @notice This smart contract is responsible for setting and getting the permesions of each participant to the DAO.\n* The DAO must have as a base smart contract the LSP0ERC725Account.\n *\n * @author B00ste\n * @title DaoPermissions\n * @custom:version 0.91\n */\ncontract DaoPermissions {\n\n  /**\n   * @notice Instance of the DAO key manager.\n   */\n  LSP0ERC725Account private DAO;\n\n  /**\n   * @notice Instance for the utils of a Universal Profile DAO.\n   */\n  DaoUtils private utils;\n\n  constructor(LSP0ERC725Account _DAO, DaoUtils _utils) {\n    DAO = _DAO;\n    utils = _utils;\n  }\n\n  /**\n   * @notice Permissions.\n   * VOTE              = 0x0000000000000000000000000000000000000000000000000000000000000001; // 0000 0001\n   * PROPOSE           = 0x0000000000000000000000000000000000000000000000000000000000000002; // 0000 0010\n   * SEND_DELEGATE     = 0x0000000000000000000000000000000000000000000000000000000000000004; // 0000 0100\n   * RECIEVE_DELEGATE  = 0x0000000000000000000000000000000000000000000000000000000000000008; // 0000 1000\n   * MASTER            = 0x0000000000000000000000000000000000000000000000000000000000000010; // 0001 0000\n   */\n  bytes32[5] private permissions = [\n    bytes32(0x0000000000000000000000000000000000000000000000000000000000000001),\n    0x0000000000000000000000000000000000000000000000000000000000000002,\n    0x0000000000000000000000000000000000000000000000000000000000000004,\n    0x0000000000000000000000000000000000000000000000000000000000000008,\n    0x0000000000000000000000000000000000000000000000000000000000000010\n  ];\n\n  /**\n   * @notice The key for the length of the array of aaddresses that have permissions in the DAO.\n   */\n  bytes32 private daoAddressesArrayKey = bytes32(keccak256(\"DAOPermissionsAddresses[]\"));\n\n  // --- MODIFIERS\n\n  /**\n   * @notice Verifies if an Universal Profile has a certain permision.\n   */\n  modifier permissionSet(address universalProfileAddress, bytes32 checkedPermission) {\n    bytes memory addressPermissions = _getAddressDaoPermission(universalProfileAddress);\n    require(\n      uint256(bytes32(addressPermissions)) & uint256(checkedPermission) == uint256(checkedPermission),\n      \"User doesen't have the permission.\"\n    );\n    _;\n  }\n\n  /**\n   * @notice Verifies if an Universal Profile doesn't have a certian permission.\n   */\n  modifier permissionUnset(address universalProfileAddress, bytes32 checkedPermission) {\n    bytes memory addressPermissions = _getAddressDaoPermission(universalProfileAddress);\n    require(\n      uint256(bytes32(addressPermissions)) & uint256(checkedPermission) == 0,\n      \"User already has the permission.\"\n    );\n    _;\n  }\n\n  /**\n   * @notice Verifying if universal profile is a participant of the DAO.\n   */\n  modifier isParticipantOfDao(address universalProfileAddress) {\n    bytes memory addressPermissions = _getAddressDaoPermission(universalProfileAddress);\n    require(\n      bytes32(addressPermissions) != bytes32(0),\n      \"This Universal Profile is not a participant of the DAO.\"\n    );\n    _;\n  }\n\n  // --- GETTERS & SETTERS\n\n  /**\n   * @notice Get the the bytes32 permission from the permissions array.\n   */\n  function _getPermissionsByIndex(uint8 index) public view returns(bytes32 permission) {\n    permission = permissions[index];\n  }\n\n  /**\n   * @notice Get the length of the array of the addresses that are participants of the DAO.\n   */\n  function _getDaoAddressesArrayLength() public view returns(uint256 length) {\n    length = uint256(bytes32(DAO.getData(daoAddressesArrayKey)));\n  }\n\n  /**\n   * @notice Set the length of the array of the addresses that are participants of the DAO.\n   *\n   * @param length the length of the array of addresses that are participants to the DAO.\n   */\n  function _setDaoAddressesArrayLength(uint256 length) internal {\n    bytes memory newLength = bytes.concat(bytes32(length));\n    DAO.setData(daoAddressesArrayKey, newLength);\n  }\n\n  /**\n   * @notice Get an address of a DAO perticipant by index.\n   *\n   * @param index The index of the an address.\n   */\n  function _getDaoAddressByIndex(uint256 index) public view returns(bytes memory daoAddress) {\n    bytes16[2] memory daoAddressesArrayKeyHalfs = utils._bytes32ToTwoHalfs(daoAddressesArrayKey);\n    bytes32 daoAddressKey = bytes32(bytes.concat(\n      daoAddressesArrayKeyHalfs[0], bytes16(uint128(index))\n    ));\n    daoAddress = DAO.getData(daoAddressKey);\n  }\n\n  /**\n   * @notice Set an address of a DAO perticipant at an index.\n   *\n   * @param index The index of an address.\n   * @param _daoAddress The address of a DAO participant.\n   */\n  function _setDaoAddressByIndex(uint256 index, address _daoAddress) internal {\n    bytes16[2] memory daoAddressesArrayKeyHalfs = utils._bytes32ToTwoHalfs(daoAddressesArrayKey);\n    bytes32 daoAddressKey = bytes32(bytes.concat(\n      daoAddressesArrayKeyHalfs[0], bytes16(uint128(index))\n    ));\n    bytes memory daoAddress = bytes.concat(bytes20(_daoAddress));\n    DAO.setData(daoAddressKey, daoAddress);\n  }\n\n  /**\n   * @notice Get addresses DAO permmissions BitArray.\n   *\n   * @param daoAddress The address of a DAO participant.\n   */\n  function _getAddressDaoPermission(address daoAddress) public view returns(bytes memory addressPermssions) {\n    bytes32 addressPermssionsKey = bytes32(bytes.concat(\n      bytes6(keccak256(\"DAOPermissionsAddresses\")),\n      bytes4(keccak256(\"DAOPermissions\")),\n      bytes2(0),\n      bytes20(daoAddress)\n    ));\n    addressPermssions = DAO.getData(addressPermssionsKey);\n  }\n\n  /**\n   * @notice Set addresses DAO permmissions BitArray by index.\n   *\n   * @param daoAddress The address of a DAO participant.\n   * @param index The index of the permissions array.\n   * Index 0 is the VOTE permission.\n   * Index 1 is the PROPOSE permission.\n   * Index 2 is the SEND_DELEGATE permission.\n   * Index 3 is the RECIEVE_DELEGATE permission.\n   * Index 4 is the EXECUTE permission.\n   */\n  function _setAddressDaoPermission(address daoAddress, uint8 index, bool permissionAdded) internal {\n    bytes32 addressPermssionsKey = bytes32(bytes.concat(\n      bytes6(keccak256(\"DAOPermissionsAddresses\")),\n      bytes4(keccak256(\"DAOPermissions\")),\n      bytes2(0),\n      bytes20(daoAddress)\n    ));\n    bytes memory addressPermssions;\n    if (permissionAdded) {\n      addressPermssions = bytes.concat(\n        bytes32(uint256(bytes32(DAO.getData(addressPermssionsKey))) + uint256(permissions[index]))\n      );\n    }\n    else {\n      addressPermssions = bytes.concat(\n        bytes32(uint256(bytes32(DAO.getData(addressPermssionsKey))) - uint256(permissions[index]))\n      );\n    }\n    DAO.setData(addressPermssionsKey, addressPermssions);\n  }\n\n  // --- INTERNAL METHODS\n\n  /**\n   * @notice Check if a Universal Profile is a participant of the DAO\n   *\n   * @param universalProfileAddress The address of an Universal Profile.\n   */\n  function checkUser(address universalProfileAddress) internal view returns(bool) {\n    uint256 addressesArrayLength = _getDaoAddressesArrayLength();\n    for (uint256 i = 0; i < addressesArrayLength; i++) {\n      bytes memory daoAddress = _getDaoAddressByIndex(i);\n      if (address(bytes20(daoAddress)) == universalProfileAddress) {\n        return true;\n      }\n    }\n    return false;\n  }\n\n}",
  "sourcePath": "/home/b00ste/Projects/universal-profile-governance/contracts/UPDao/DaoPermissions.sol",
  "compiler": {
    "name": "solc",
    "version": "0.8.15+commit.e14f2714.Emscripten.clang"
  },
  "schemaVersion": "3.4.8",
  "updatedAt": "2022-07-21T08:10:15.211Z",
  "devdoc": {
    "author": "B00ste",
    "custom:version": "0.91",
    "kind": "dev",
    "methods": {
      "_getAddressDaoPermission(address)": {
        "params": {
          "daoAddress": "The address of a DAO participant."
        }
      },
      "_getDaoAddressByIndex(uint256)": {
        "params": {
          "index": "The index of the an address."
        }
      }
    },
    "title": "DaoPermissions",
    "version": 1
  },
  "userdoc": {
    "kind": "user",
    "methods": {
      "_getAddressDaoPermission(address)": {
        "notice": "Get addresses DAO permmissions BitArray."
      },
      "_getDaoAddressByIndex(uint256)": {
        "notice": "Get an address of a DAO perticipant by index."
      },
      "_getDaoAddressesArrayLength()": {
        "notice": "Get the length of the array of the addresses that are participants of the DAO."
      },
      "_getPermissionsByIndex(uint8)": {
        "notice": "Get the the bytes32 permission from the permissions array."
      }
    },
    "notice": "This smart contract is responsible for setting and getting the permesions of each participant to the DAO. The DAO must have as a base smart contract the LSP0ERC725Account.",
    "version": 1
  }
}