{
  "contractName": "DaoProposals",
  "abi": [
    {
      "inputs": [
        {
          "internalType": "contract LSP0ERC725Account",
          "name": "_DAO",
          "type": "address"
        },
        {
          "internalType": "contract DaoUtils",
          "name": "_utils",
          "type": "address"
        },
        {
          "internalType": "address",
          "name": "daoAddress",
          "type": "address"
        }
      ],
      "stateMutability": "nonpayable",
      "type": "constructor"
    },
    {
      "inputs": [
        {
          "internalType": "uint256",
          "name": "creationTimestamp",
          "type": "uint256"
        },
        {
          "internalType": "string",
          "name": "proposalName",
          "type": "string"
        }
      ],
      "name": "_getProposalSignature",
      "outputs": [
        {
          "internalType": "bytes10",
          "name": "proposalSignature",
          "type": "bytes10"
        }
      ],
      "stateMutability": "pure",
      "type": "function"
    },
    {
      "inputs": [],
      "name": "_getProposalsArrayLength",
      "outputs": [
        {
          "internalType": "uint256",
          "name": "length",
          "type": "uint256"
        }
      ],
      "stateMutability": "view",
      "type": "function"
    },
    {
      "inputs": [
        {
          "internalType": "uint256",
          "name": "index",
          "type": "uint256"
        }
      ],
      "name": "_getProposalSignatureByIndex",
      "outputs": [
        {
          "internalType": "bytes",
          "name": "proposalSignature",
          "type": "bytes"
        }
      ],
      "stateMutability": "view",
      "type": "function"
    },
    {
      "inputs": [
        {
          "internalType": "bytes10",
          "name": "proposalSignature",
          "type": "bytes10"
        },
        {
          "internalType": "bytes20",
          "name": "proposalAttributeKey",
          "type": "bytes20"
        }
      ],
      "name": "_getAttributeValue",
      "outputs": [
        {
          "internalType": "bytes",
          "name": "value",
          "type": "bytes"
        }
      ],
      "stateMutability": "view",
      "type": "function"
    },
    {
      "inputs": [
        {
          "internalType": "bytes10",
          "name": "proposalSignature",
          "type": "bytes10"
        }
      ],
      "name": "_getTargetsAndDatas",
      "outputs": [
        {
          "internalType": "address[]",
          "name": "targets",
          "type": "address[]"
        },
        {
          "internalType": "bytes[]",
          "name": "datas",
          "type": "bytes[]"
        }
      ],
      "stateMutability": "view",
      "type": "function"
    },
    {
      "inputs": [
        {
          "internalType": "address",
          "name": "universalProfileAddress",
          "type": "address"
        },
        {
          "internalType": "bytes10",
          "name": "proposalSignature",
          "type": "bytes10"
        }
      ],
      "name": "_getVotedStatus",
      "outputs": [
        {
          "internalType": "bool",
          "name": "result",
          "type": "bool"
        }
      ],
      "stateMutability": "view",
      "type": "function"
    }
  ],
  "bytecode": "0x60806040527f868640b1c1ae76f98d5a65e35f03a012e5169c298cb4db2d7b71b05e26410c736003556040518061012001604052807f3f82a2b5852cbedcda3d9062384397479ac9a00dae9991874d842bec7aab98ce6bffffffffffffffffffffffff19166bffffffffffffffffffffffff191681526020017f95e794640ff3efd16bfe738f1a9bf2886d166af549121f57d6e14af6b513f45d6bffffffffffffffffffffffff19166bffffffffffffffffffffffff191681526020017fbd3132afbfa232f7d171a873f7e52e32c666b06d8af76d2c9a4ec8149c6b4f986bffffffffffffffffffffffff19166bffffffffffffffffffffffff191681526020017f29eed6590124f64f9236a23d588dbe9a7731e8e7d994f19cbb599c2c9372e7f46bffffffffffffffffffffffff19166bffffffffffffffffffffffff191681526020017fe9079e01bc10f74c7548106059c64f0d04857893cee4fbc8810c4b405700c0976bffffffffffffffffffffffff19166bffffffffffffffffffffffff191681526020017f7ef9322621ca886af10c2bf8f67b9ce1dbafe8f40c0ac7f7e0e8dab81a7feff86bffffffffffffffffffffffff19166bffffffffffffffffffffffff191681526020017fc589c7f4e5976c631f54442ad87fcec402da02df9989767145e519abcbd2b1d96bffffffffffffffffffffffff19166bffffffffffffffffffffffff191681526020017f214afa26c5f6a535e82ca315d5ffc739048132e744c73f66d711468ed63faac96bffffffffffffffffffffffff19166bffffffffffffffffffffffff191681526020017feaeb11cb7786797587689f7f6303acfee9b7b7570354137133562456569337596bffffffffffffffffffffffff19166bffffffffffffffffffffffff19168152506004906009620002a8929190620003a7565b50348015620002b657600080fd5b5060405162001e8538038062001e858339818101604052810190620002dc91906200053d565b826000806101000a81548173ffffffffffffffffffffffffffffffffffffffff021916908373ffffffffffffffffffffffffffffffffffffffff16021790555081600160006101000a81548173ffffffffffffffffffffffffffffffffffffffff021916908373ffffffffffffffffffffffffffffffffffffffff16021790555080600260006101000a81548173ffffffffffffffffffffffffffffffffffffffff021916908373ffffffffffffffffffffffffffffffffffffffff16021790555050505062000599565b826009810192821562000403579160200282015b82811115620004025782518260006101000a81548173ffffffffffffffffffffffffffffffffffffffff021916908360601c021790555091602001919060010190620003bb565b5b50905062000412919062000416565b5090565b5b808211156200043157600081600090555060010162000417565b5090565b600080fd5b600073ffffffffffffffffffffffffffffffffffffffff82169050919050565b600062000467826200043a565b9050919050565b60006200047b826200045a565b9050919050565b6200048d816200046e565b81146200049957600080fd5b50565b600081519050620004ad8162000482565b92915050565b6000620004c0826200043a565b9050919050565b6000620004d482620004b3565b9050919050565b620004e681620004c7565b8114620004f257600080fd5b50565b6000815190506200050681620004db565b92915050565b6200051781620004b3565b81146200052357600080fd5b50565b60008151905062000537816200050c565b92915050565b60008060006060848603121562000559576200055862000435565b5b600062000569868287016200049c565b93505060206200057c86828701620004f5565b92505060406200058f8682870162000526565b9150509250925092565b6118dc80620005a96000396000f3fe608060405234801561001057600080fd5b50600436106100625760003560e01c806346ccaefa14610067578063525ae7f114610097578063994d43c3146100c7578063a56c89b1146100f7578063d7a96f2b14610127578063dd59665514610145575b600080fd5b610081600480360381019061007c9190610cb2565b610176565b60405161008e9190610d49565b60405180910390f35b6100b160048036038101906100ac9190610dee565b6101d8565b6040516100be9190610e49565b60405180910390f35b6100e160048036038101906100dc9190610e64565b6102d8565b6040516100ee9190610f19565b60405180910390f35b610111600480360381019061010c9190610f93565b61046d565b60405161011e9190610f19565b60405180910390f35b61012f610525565b60405161013c9190610fe2565b60405180910390f35b61015f600480360381019061015a9190610ffd565b6105da565b60405161016d9291906111f4565b60405180910390f35b6000826040516020016101899190610fe2565b6040516020818303038152906040528051906020012082805190602001206040516020016101b89291906112c5565b6040516020818303038152906040526101d090611323565b905092915050565b60008082600060f01b8560601b6040516020016101f793929190611419565b60405160208183030381529060405261020f90611475565b9050600160008054906101000a900473ffffffffffffffffffffffffffffffffffffffff1673ffffffffffffffffffffffffffffffffffffffff166354f6127f836040518263ffffffff1660e01b815260040161026c91906114eb565b600060405180830381865afa158015610289573d6000803e3d6000fd5b505050506040513d6000823e3d601f19601f820116820180604052508101906102b291906115a7565b6102bb90611475565b60001c036102cc57600191506102d1565b600091505b5092915050565b60606000600160009054906101000a900473ffffffffffffffffffffffffffffffffffffffff1673ffffffffffffffffffffffffffffffffffffffff16634bb5ec326003546040518263ffffffff1660e01b815260040161033991906114eb565b6040805180830381865afa158015610355573d6000803e3d6000fd5b505050506040513d601f19601f8201168201806040525081019061037991906116fe565b90506000816000600281106103915761039061172b565b5b60200201518460801b6040516020016103ab92919061177b565b6040516020818303038152906040526103c390611475565b905060008054906101000a900473ffffffffffffffffffffffffffffffffffffffff1673ffffffffffffffffffffffffffffffffffffffff166354f6127f826040518263ffffffff1660e01b815260040161041e91906114eb565b600060405180830381865afa15801561043b573d6000803e3d6000fd5b505050506040513d6000823e3d601f19601f8201168201806040525081019061046491906115a7565b92505050919050565b6060600061047b8484610ae7565b905060008054906101000a900473ffffffffffffffffffffffffffffffffffffffff1673ffffffffffffffffffffffffffffffffffffffff166354f6127f826040518263ffffffff1660e01b81526004016104d691906114eb565b600060405180830381865afa1580156104f3573d6000803e3d6000fd5b505050506040513d6000823e3d601f19601f8201168201806040525081019061051c91906115a7565b91505092915050565b60008060009054906101000a900473ffffffffffffffffffffffffffffffffffffffff1673ffffffffffffffffffffffffffffffffffffffff166354f6127f6003546040518263ffffffff1660e01b815260040161058391906114eb565b600060405180830381865afa1580156105a0573d6000803e3d6000fd5b505050506040513d6000823e3d601f19601f820116820180604052508101906105c991906115a7565b6105d290611475565b60001c905090565b606080600061060c8460046005600981106105f8576105f761172b565b5b0160009054906101000a900460601b610ae7565b9050600061063d8560046006600981106106295761062861172b565b5b0160009054906101000a900460601b610ae7565b9050600061066e86600460056009811061065a5761065961172b565b5b0160009054906101000a900460601b61046d565b61067790611475565b60001c90508067ffffffffffffffff81111561069657610695610b87565b5b6040519080825280602002602001820160405280156106c45781602001602082028036833780820191505090505b5094508067ffffffffffffffff8111156106e1576106e0610b87565b5b60405190808252806020026020018201604052801561071457816020015b60608152602001906001900390816106ff5790505b50935060005b81816fffffffffffffffffffffffffffffffff161015610ade5760008054906101000a900473ffffffffffffffffffffffffffffffffffffffff1673ffffffffffffffffffffffffffffffffffffffff166354f6127f600160009054906101000a900473ffffffffffffffffffffffffffffffffffffffff1673ffffffffffffffffffffffffffffffffffffffff16634bb5ec32876040518263ffffffff1660e01b81526004016107cb91906114eb565b6040805180830381865afa1580156107e7573d6000803e3d6000fd5b505050506040513d601f19601f8201168201806040525081019061080b91906116fe565b60006002811061081e5761081d61172b565b5b60200201518360801b60405160200161083892919061177b565b60405160208183030381529060405261085090611475565b6040518263ffffffff1660e01b815260040161086c91906114eb565b600060405180830381865afa158015610889573d6000803e3d6000fd5b505050506040513d6000823e3d601f19601f820116820180604052508101906108b291906115a7565b6108bb906117bc565b60601c86826fffffffffffffffffffffffffffffffff16815181106108e3576108e261172b565b5b602002602001019073ffffffffffffffffffffffffffffffffffffffff16908173ffffffffffffffffffffffffffffffffffffffff168152505060008054906101000a900473ffffffffffffffffffffffffffffffffffffffff1673ffffffffffffffffffffffffffffffffffffffff166354f6127f600160009054906101000a900473ffffffffffffffffffffffffffffffffffffffff1673ffffffffffffffffffffffffffffffffffffffff16634bb5ec32866040518263ffffffff1660e01b81526004016109b491906114eb565b6040805180830381865afa1580156109d0573d6000803e3d6000fd5b505050506040513d601f19601f820116820180604052508101906109f491906116fe565b600060028110610a0757610a0661172b565b5b60200201518360801b604051602001610a2192919061177b565b604051602081830303815290604052610a3990611475565b6040518263ffffffff1660e01b8152600401610a5591906114eb565b600060405180830381865afa158015610a72573d6000803e3d6000fd5b505050506040513d6000823e3d601f19601f82011682018060405250810190610a9b91906115a7565b85826fffffffffffffffffffffffffffffffff1681518110610ac057610abf61172b565b5b60200260200101819052508080610ad69061186e565b91505061071a565b50505050915091565b600082600060f01b83604051602001610b0293929190611419565b604051602081830303815290604052610b1a90611475565b905092915050565b6000604051905090565b600080fd5b600080fd5b6000819050919050565b610b4981610b36565b8114610b5457600080fd5b50565b600081359050610b6681610b40565b92915050565b600080fd5b600080fd5b6000601f19601f8301169050919050565b7f4e487b7100000000000000000000000000000000000000000000000000000000600052604160045260246000fd5b610bbf82610b76565b810181811067ffffffffffffffff82111715610bde57610bdd610b87565b5b80604052505050565b6000610bf1610b22565b9050610bfd8282610bb6565b919050565b600067ffffffffffffffff821115610c1d57610c1c610b87565b5b610c2682610b76565b9050602081019050919050565b82818337600083830152505050565b6000610c55610c5084610c02565b610be7565b905082815260208101848484011115610c7157610c70610b71565b5b610c7c848285610c33565b509392505050565b600082601f830112610c9957610c98610b6c565b5b8135610ca9848260208601610c42565b91505092915050565b60008060408385031215610cc957610cc8610b2c565b5b6000610cd785828601610b57565b925050602083013567ffffffffffffffff811115610cf857610cf7610b31565b5b610d0485828601610c84565b9150509250929050565b60007fffffffffffffffffffff0000000000000000000000000000000000000000000082169050919050565b610d4381610d0e565b82525050565b6000602082019050610d5e6000830184610d3a565b92915050565b600073ffffffffffffffffffffffffffffffffffffffff82169050919050565b6000610d8f82610d64565b9050919050565b610d9f81610d84565b8114610daa57600080fd5b50565b600081359050610dbc81610d96565b92915050565b610dcb81610d0e565b8114610dd657600080fd5b50565b600081359050610de881610dc2565b92915050565b60008060408385031215610e0557610e04610b2c565b5b6000610e1385828601610dad565b9250506020610e2485828601610dd9565b9150509250929050565b60008115159050919050565b610e4381610e2e565b82525050565b6000602082019050610e5e6000830184610e3a565b92915050565b600060208284031215610e7a57610e79610b2c565b5b6000610e8884828501610b57565b91505092915050565b600081519050919050565b600082825260208201905092915050565b60005b83811015610ecb578082015181840152602081019050610eb0565b83811115610eda576000848401525b50505050565b6000610eeb82610e91565b610ef58185610e9c565b9350610f05818560208601610ead565b610f0e81610b76565b840191505092915050565b60006020820190508181036000830152610f338184610ee0565b905092915050565b60007fffffffffffffffffffffffffffffffffffffffff00000000000000000000000082169050919050565b610f7081610f3b565b8114610f7b57600080fd5b50565b600081359050610f8d81610f67565b92915050565b60008060408385031215610faa57610fa9610b2c565b5b6000610fb885828601610dd9565b9250506020610fc985828601610f7e565b9150509250929050565b610fdc81610b36565b82525050565b6000602082019050610ff76000830184610fd3565b92915050565b60006020828403121561101357611012610b2c565b5b600061102184828501610dd9565b91505092915050565b600081519050919050565b600082825260208201905092915050565b6000819050602082019050919050565b61105f81610d84565b82525050565b60006110718383611056565b60208301905092915050565b6000602082019050919050565b60006110958261102a565b61109f8185611035565b93506110aa83611046565b8060005b838110156110db5781516110c28882611065565b97506110cd8361107d565b9250506001810190506110ae565b5085935050505092915050565b600081519050919050565b600082825260208201905092915050565b6000819050602082019050919050565b600082825260208201905092915050565b600061113082610e91565b61113a8185611114565b935061114a818560208601610ead565b61115381610b76565b840191505092915050565b600061116a8383611125565b905092915050565b6000602082019050919050565b600061118a826110e8565b61119481856110f3565b9350836020820285016111a685611104565b8060005b858110156111e257848403895281516111c3858261115e565b94506111ce83611172565b925060208a019950506001810190506111aa565b50829750879550505050505092915050565b6000604082019050818103600083015261120e818561108a565b90508181036020830152611222818461117f565b90509392505050565b60007fffffffffffff000000000000000000000000000000000000000000000000000082169050919050565b6000819050919050565b61127261126d8261122b565b611257565b82525050565b60007fffffffff0000000000000000000000000000000000000000000000000000000082169050919050565b6000819050919050565b6112bf6112ba82611278565b6112a4565b82525050565b60006112d18285611261565b6006820191506112e182846112ae565b6004820191508190509392505050565b6000819050602082019050919050565b600061130d8251610d0e565b80915050919050565b600082821b905092915050565b600061132e82610e91565b82611338846112f1565b905061134381611301565b9250600a8210156113835761137e7fffffffffffffffffffff0000000000000000000000000000000000000000000083600a03600802611316565b831692505b5050919050565b6000819050919050565b6113a56113a082610d0e565b61138a565b82525050565b60007fffff00000000000000000000000000000000000000000000000000000000000082169050919050565b6000819050919050565b6113f26113ed826113ab565b6113d7565b82525050565b6000819050919050565b61141361140e82610f3b565b6113f8565b82525050565b60006114258286611394565b600a8201915061143582856113e1565b6002820191506114458284611402565b601482019150819050949350505050565b6000819050919050565b600061146c8251611456565b80915050919050565b600061148082610e91565b8261148a846112f1565b905061149581611460565b925060208210156114d5576114d07fffffffffffffffffffffffffffffffffffffffffffffffffffffffffffffffff83602003600802611316565b831692505b5050919050565b6114e581611456565b82525050565b600060208201905061150060008301846114dc565b92915050565b600067ffffffffffffffff82111561152157611520610b87565b5b61152a82610b76565b9050602081019050919050565b600061154a61154584611506565b610be7565b90508281526020810184848401111561156657611565610b71565b5b611571848285610ead565b509392505050565b600082601f83011261158e5761158d610b6c565b5b815161159e848260208601611537565b91505092915050565b6000602082840312156115bd576115bc610b2c565b5b600082015167ffffffffffffffff8111156115db576115da610b31565b5b6115e784828501611579565b91505092915050565b600067ffffffffffffffff82111561160b5761160a610b87565b5b602082029050919050565b600080fd5b60007fffffffffffffffffffffffffffffffff0000000000000000000000000000000082169050919050565b6116508161161b565b811461165b57600080fd5b50565b60008151905061166d81611647565b92915050565b6000611686611681846115f0565b610be7565b905080602084028301858111156116a05761169f611616565b5b835b818110156116c957806116b5888261165e565b8452602084019350506020810190506116a2565b5050509392505050565b600082601f8301126116e8576116e7610b6c565b5b60026116f5848285611673565b91505092915050565b60006040828403121561171457611713610b2c565b5b6000611722848285016116d3565b91505092915050565b7f4e487b7100000000000000000000000000000000000000000000000000000000600052603260045260246000fd5b6000819050919050565b6117756117708261161b565b61175a565b82525050565b60006117878285611764565b6010820191506117978284611764565b6010820191508190509392505050565b60006117b38251610f3b565b80915050919050565b60006117c782610e91565b826117d1846112f1565b90506117dc816117a7565b9250601482101561181c576118177fffffffffffffffffffffffffffffffffffffffff00000000000000000000000083601403600802611316565b831692505b5050919050565b7f4e487b7100000000000000000000000000000000000000000000000000000000600052601160045260246000fd5b60006fffffffffffffffffffffffffffffffff82169050919050565b600061187982611852565b91506fffffffffffffffffffffffffffffffff820361189b5761189a611823565b5b60018201905091905056fea26469706673582212206462f2a986b150ea3d13aaf8c93da70feb2d3823f5e8f1721615cb85d1efe10a64736f6c634300080f0033",
  "immutableReferences": {},
  "source": "// SPDX-License-Identifier: CC0-1.0\n\npragma solidity ^0.8.0;\n\nimport \"@lukso/lsp-smart-contracts/contracts/LSP0ERC725Account/LSP0ERC725Account.sol\";\nimport \"./Interfaces/DaoAccountMetadataInterface.sol\";\nimport \"./DaoUtils.sol\";\n\n/**\n *\n* @notice This smart contract is responsible for the proposals of a DAO.\n* The DAO must have as a base smart contract the LSP0ERC725Account.\n *\n * @author B00ste\n * @title DaoProposals\n * @custom:version 0.91\n */\ncontract DaoProposals {\n\n  // --- GENERAL ATTRIBUTES\n\n  /**\n   * @notice Instance of the DAO key manager.\n   */\n  LSP0ERC725Account private DAO;\n\n  /**\n   * @notice Instance for the utils of a Universal Profile DAO.\n   */\n  DaoUtils private utils;\n\n  /**\n   * @notice Instance for the DAO metadata.\n   */\n  DaoAccountMetadataInterface private metadata;\n\n  // --- PROPOSAL ATTRIBUTES\n  \n  /**\n   * @notice Initializing the Proposals smart contract.\n   */\n  constructor(\n    LSP0ERC725Account _DAO,\n    DaoUtils _utils,\n    address daoAddress\n  ) {\n    DAO = _DAO;\n    utils = _utils;\n    metadata = DaoAccountMetadataInterface(daoAddress); \n  }\n\n  /**\n   * @notice Proposals array key.\n   */\n  bytes32 private proposalsArrayKey = bytes32(keccak256(\"ProposalsArray[]\"));\n\n  /**\n   * @notice Proposal attribute key.\n   */  \n  bytes20[9] internal proposalAttributeKeys = [\n    bytes20(keccak256(\"Title\")),\n    bytes20(keccak256(\"Description\")),\n    bytes20(keccak256(\"CreationTimestamp\")),\n    bytes20(keccak256(\"VotingTimestamp\")),\n    bytes20(keccak256(\"EndTimestamp\")),\n    bytes20(keccak256(\"Targets[]\")),\n    bytes20(keccak256(\"Datas[]\")),\n    bytes20(keccak256(\"AgainstVotes\")),\n    bytes20(keccak256(\"ProVotes\"))\n  ];\n\n  // --- MODIFIERS\n\n  /**\n   * @notice Verifying if the voting delay has passed. \n   */\n  modifier votingDelayPassed(bytes10 proposalSignature) {\n    require(\n      metadata._getDaoVotingDelay() + uint256(bytes32(_getAttributeValue(proposalSignature, proposalAttributeKeys[2]))) < block.timestamp,\n      \"The voting delay is not yeat over.\"\n    );\n    _;\n  }\n\n  /**\n   * @notice Verifying if the voting period has passed. \n   */\n  modifier votingPeriodPassed(bytes10 proposalSignature) {\n    require(\n      metadata._getDaoVotingPeriod() + uint256(bytes32(_getAttributeValue(proposalSignature, proposalAttributeKeys[3]))) < block.timestamp,\n      \"The voting delay is not yet over.\"\n    );\n    _;\n  }\n\n  /**\n   * @notice Verifying if the voting period is still on.\n   */\n  modifier votingPeriodIsOn(bytes10 proposalSignature) {\n    require(\n      metadata._getDaoVotingPeriod() + uint256(bytes32(_getAttributeValue(proposalSignature, proposalAttributeKeys[3]))) > block.timestamp,\n      \"Voting period is already over.\"\n    );\n    _;\n  }\n\n  /**\n   * @notice Verifying if the user didn't vote.\n   */\n  modifier didNotVote(address universalProfileAddress, bytes10 proposalSignature) {\n    require(\n      !_getVotedStatus(universalProfileAddress, proposalSignature),\n      \"User did already vote.\"\n    );\n    _;\n  }\n\n  // --- GETTERS & SETTERS\n\n  /**\n   * @notice Get proposal signature.\n   */\n  function _getProposalSignature(uint256 creationTimestamp, string memory proposalName) public pure returns(bytes10 proposalSignature) {\n    proposalSignature = bytes10(bytes.concat(\n      bytes6(keccak256(abi.encode(creationTimestamp))),\n      bytes4(keccak256(bytes(proposalName)))\n    ));\n  }\n\n  /**\n   * @notice Get the proposals array lenngth.\n   */\n  function _getProposalsArrayLength() public view returns(uint256 length) {\n    length = uint256(bytes32(DAO.getData(proposalsArrayKey)));\n  }\n\n  /**\n   * @notice Set the proposals array lenngth.\n   */\n  function _setProposalsArrayLength(uint256 length) internal {\n    bytes memory newLength = bytes.concat(bytes32(length));\n    DAO.setData(proposalsArrayKey, newLength);\n  }\n\n  /**\n   * @notice Get Proposal Signature by index.\n   */\n  function _getProposalSignatureByIndex(uint256 index) public view returns(bytes memory proposalSignature) {\n    bytes16[2] memory daoProposalsArrayKeyHalfs = utils._bytes32ToTwoHalfs(proposalsArrayKey);\n    bytes32 proposalKey = bytes32(bytes.concat(\n      daoProposalsArrayKeyHalfs[0], bytes16(uint128(index))\n    ));\n    proposalSignature = DAO.getData(proposalKey);\n  }\n\n  /**\n   * @notice Set Proposal by index.\n   */\n  function _setProposalSignatureByIndex(uint256 index, bytes10 _proposalSignature) internal {\n    bytes16[2] memory daoProposalsArrayKeyHalfs = utils._bytes32ToTwoHalfs(proposalsArrayKey);\n    bytes32 proposalKey = bytes32(bytes.concat(\n      daoProposalsArrayKeyHalfs[0], bytes16(uint128(index))\n    ));\n    bytes memory proposalSignature = bytes.concat(_proposalSignature);\n    DAO.setData(proposalKey, proposalSignature);\n  }\n\n  /**\n   * @notice Get the key for a proposal attribute.\n   */\n  function _getAttributeKey(bytes10 proposalSignature, bytes20 proposalAttributeKey) internal pure returns(bytes32 key) {\n    key = bytes32(bytes.concat(\n      proposalSignature,\n      bytes2(0),\n      proposalAttributeKey\n    ));\n  }\n\n  /**\n   * @notice Get attribute value.\n   */\n  function _getAttributeValue(bytes10 proposalSignature, bytes20 proposalAttributeKey) public view returns(bytes memory value) {\n    bytes32 key = _getAttributeKey(proposalSignature, proposalAttributeKey);\n    value = DAO.getData(key);\n  }\n\n  /**\n   * @notice Set attribute value.\n   */\n  function _setAttributeValue(bytes10 proposalSignature, bytes20 proposalAttributeKey, bytes memory value) internal {\n    bytes32 key = _getAttributeKey(proposalSignature, proposalAttributeKey);\n    DAO.setData(key, value);\n  }\n\n  /**\n   * @notice Get the targets and datas for execution of a proposal.\n   */\n  function _getTargetsAndDatas(bytes10 proposalSignature) public view returns(address[] memory targets, bytes[] memory datas) {\n    bytes32 targetsKey = _getAttributeKey(proposalSignature, proposalAttributeKeys[5]);\n    bytes32 datasKey = _getAttributeKey(proposalSignature, proposalAttributeKeys[6]);\n    uint256 arrayLength = uint256(bytes32(_getAttributeValue(proposalSignature, proposalAttributeKeys[5])));\n    targets = new address[](arrayLength);\n    datas = new bytes[](arrayLength);\n    for(uint128 i = 0; i < arrayLength; i++) {\n      targets[i] = address(bytes20(DAO.getData(bytes32(bytes.concat(\n        utils._bytes32ToTwoHalfs(targetsKey)[0],\n        bytes16(i)\n      )))));\n      datas[i] = DAO.getData(bytes32(bytes.concat(\n        utils._bytes32ToTwoHalfs(datasKey)[0],\n        bytes16(i)\n      )));\n    }\n  }\n\n  /**\n   * @notice Set the targets and datas for execution of a proposal.\n   */\n  function _setTargetsAndDatas(bytes10 proposalSignature, address[] memory targets, bytes[] memory datas) internal {\n    bytes32 targetsKey = _getAttributeKey(proposalSignature, proposalAttributeKeys[5]);\n    bytes32 datasKey = _getAttributeKey(proposalSignature, proposalAttributeKeys[6]);\n    uint256 arrayLength = targets.length;\n    for(uint128 i = 0; i < arrayLength; i++) {\n      DAO.setData(\n        bytes32(bytes.concat(\n          utils._bytes32ToTwoHalfs(targetsKey)[0],\n          bytes16(i)\n        )),\n        bytes.concat(bytes20(targets[i]))\n      );\n      DAO.setData(\n        bytes32(bytes.concat(\n          utils._bytes32ToTwoHalfs(datasKey)[0],\n          bytes16(i)\n        )),\n        datas[i]\n      );\n    }\n  }\n\n  /**\n   * @notice Get voted status of a Universal Profile for a proposal.\n   */\n  function _getVotedStatus(address universalProfileAddress, bytes10 proposalSignature) public view returns(bool result) {\n    bytes32 key = bytes32(bytes.concat(\n      bytes10(proposalSignature),\n      bytes2(0),\n      bytes20(universalProfileAddress)\n    ));\n    if(uint256(bytes32(DAO.getData(key))) == 1) {\n      result = true;\n    }\n    else {\n      result = false;\n    }\n  }\n\n  /**\n   * @notice Set voted status of a Universal Profile for a proposal.\n   */\n  function _setVotedStatus(address universalProfileAddress, bytes10 proposalSignature) internal {\n    bytes32 key = bytes32(bytes.concat(\n      bytes10(proposalSignature),\n      bytes2(0),\n      bytes20(universalProfileAddress)\n    ));\n    DAO.setData(key, bytes.concat(bytes32(uint256(1))));\n  }\n\n}",
  "sourcePath": "/home/b00ste/Projects/universal-profile-governance/contracts/UPDao/DaoProposals.sol",
  "compiler": {
    "name": "solc",
    "version": "0.8.15+commit.e14f2714.Emscripten.clang"
  },
  "schemaVersion": "3.4.8",
  "updatedAt": "2022-07-21T08:10:15.402Z",
  "devdoc": {
    "author": "B00ste",
    "custom:version": "0.91",
    "kind": "dev",
    "methods": {},
    "title": "DaoProposals",
    "version": 1
  },
  "userdoc": {
    "kind": "user",
    "methods": {
      "_getAttributeValue(bytes10,bytes20)": {
        "notice": "Get attribute value."
      },
      "_getProposalSignature(uint256,string)": {
        "notice": "Get proposal signature."
      },
      "_getProposalSignatureByIndex(uint256)": {
        "notice": "Get Proposal Signature by index."
      },
      "_getProposalsArrayLength()": {
        "notice": "Get the proposals array lenngth."
      },
      "_getTargetsAndDatas(bytes10)": {
        "notice": "Get the targets and datas for execution of a proposal."
      },
      "_getVotedStatus(address,bytes10)": {
        "notice": "Get voted status of a Universal Profile for a proposal."
      },
      "constructor": {
        "notice": "Initializing the Proposals smart contract."
      }
    },
    "notice": "This smart contract is responsible for the proposals of a DAO. The DAO must have as a base smart contract the LSP0ERC725Account.",
    "version": 1
  }
}