{
  "contractName": "DaoProposals",
  "abi": [
    {
      "inputs": [
        {
          "internalType": "contract LSP0ERC725Account",
          "name": "_DAO",
          "type": "address"
        },
        {
          "internalType": "contract DaoUtils",
          "name": "_utils",
          "type": "address"
        },
        {
          "internalType": "address",
          "name": "daoAddress",
          "type": "address"
        }
      ],
      "name": "init",
      "outputs": [],
      "stateMutability": "nonpayable",
      "type": "function"
    },
    {
      "inputs": [
        {
          "internalType": "uint8",
          "name": "index",
          "type": "uint8"
        }
      ],
      "name": "_getProposalAttributeKeyByIndex",
      "outputs": [
        {
          "internalType": "bytes20",
          "name": "key",
          "type": "bytes20"
        }
      ],
      "stateMutability": "view",
      "type": "function"
    },
    {
      "inputs": [
        {
          "internalType": "uint256",
          "name": "creationTimestamp",
          "type": "uint256"
        },
        {
          "internalType": "string",
          "name": "proposalName",
          "type": "string"
        }
      ],
      "name": "_getProposalSignature",
      "outputs": [
        {
          "internalType": "bytes10",
          "name": "proposalSignature",
          "type": "bytes10"
        }
      ],
      "stateMutability": "pure",
      "type": "function"
    },
    {
      "inputs": [],
      "name": "_getProposalsArrayLength",
      "outputs": [
        {
          "internalType": "uint256",
          "name": "length",
          "type": "uint256"
        }
      ],
      "stateMutability": "view",
      "type": "function"
    },
    {
      "inputs": [
        {
          "internalType": "uint256",
          "name": "length",
          "type": "uint256"
        }
      ],
      "name": "_setProposalsArrayLength",
      "outputs": [],
      "stateMutability": "nonpayable",
      "type": "function"
    },
    {
      "inputs": [
        {
          "internalType": "uint256",
          "name": "index",
          "type": "uint256"
        }
      ],
      "name": "_getProposalSignatureByIndex",
      "outputs": [
        {
          "internalType": "bytes",
          "name": "proposalSignature",
          "type": "bytes"
        }
      ],
      "stateMutability": "view",
      "type": "function"
    },
    {
      "inputs": [
        {
          "internalType": "uint256",
          "name": "index",
          "type": "uint256"
        },
        {
          "internalType": "bytes10",
          "name": "_proposalSignature",
          "type": "bytes10"
        }
      ],
      "name": "_setProposalSignatureByIndex",
      "outputs": [],
      "stateMutability": "nonpayable",
      "type": "function"
    },
    {
      "inputs": [
        {
          "internalType": "bytes10",
          "name": "proposalSignature",
          "type": "bytes10"
        },
        {
          "internalType": "bytes20",
          "name": "proposalAttributeKey",
          "type": "bytes20"
        }
      ],
      "name": "_getAttributeKey",
      "outputs": [
        {
          "internalType": "bytes32",
          "name": "key",
          "type": "bytes32"
        }
      ],
      "stateMutability": "pure",
      "type": "function"
    },
    {
      "inputs": [
        {
          "internalType": "bytes10",
          "name": "proposalSignature",
          "type": "bytes10"
        },
        {
          "internalType": "bytes20",
          "name": "proposalAttributeKey",
          "type": "bytes20"
        }
      ],
      "name": "_getAttributeValue",
      "outputs": [
        {
          "internalType": "bytes",
          "name": "value",
          "type": "bytes"
        }
      ],
      "stateMutability": "view",
      "type": "function"
    },
    {
      "inputs": [
        {
          "internalType": "bytes10",
          "name": "proposalSignature",
          "type": "bytes10"
        },
        {
          "internalType": "bytes20",
          "name": "proposalAttributeKey",
          "type": "bytes20"
        },
        {
          "internalType": "bytes",
          "name": "value",
          "type": "bytes"
        }
      ],
      "name": "_setAttributeValue",
      "outputs": [],
      "stateMutability": "nonpayable",
      "type": "function"
    },
    {
      "inputs": [
        {
          "internalType": "bytes10",
          "name": "proposalSignature",
          "type": "bytes10"
        }
      ],
      "name": "_getTargetsAndDatas",
      "outputs": [
        {
          "internalType": "address[]",
          "name": "targets",
          "type": "address[]"
        },
        {
          "internalType": "bytes[]",
          "name": "datas",
          "type": "bytes[]"
        }
      ],
      "stateMutability": "view",
      "type": "function"
    },
    {
      "inputs": [
        {
          "internalType": "bytes10",
          "name": "proposalSignature",
          "type": "bytes10"
        },
        {
          "internalType": "address[]",
          "name": "targets",
          "type": "address[]"
        },
        {
          "internalType": "bytes[]",
          "name": "datas",
          "type": "bytes[]"
        }
      ],
      "name": "_setTargetsAndDatas",
      "outputs": [],
      "stateMutability": "nonpayable",
      "type": "function"
    },
    {
      "inputs": [
        {
          "internalType": "address",
          "name": "universalProfileAddress",
          "type": "address"
        },
        {
          "internalType": "bytes10",
          "name": "proposalSignature",
          "type": "bytes10"
        }
      ],
      "name": "_getVotedStatus",
      "outputs": [
        {
          "internalType": "bool",
          "name": "result",
          "type": "bool"
        }
      ],
      "stateMutability": "view",
      "type": "function"
    },
    {
      "inputs": [
        {
          "internalType": "address",
          "name": "universalProfileAddress",
          "type": "address"
        },
        {
          "internalType": "bytes10",
          "name": "proposalSignature",
          "type": "bytes10"
        }
      ],
      "name": "_setVotedStatus",
      "outputs": [],
      "stateMutability": "nonpayable",
      "type": "function"
    }
  ],
  "bytecode": "0x60806040526000600160146101000a81548160ff0219169083151502179055507f868640b1c1ae76f98d5a65e35f03a012e5169c298cb4db2d7b71b05e26410c736005556040518061012001604052807f3f82a2b5852cbedcda3d9062384397479ac9a00dae9991874d842bec7aab98ce6bffffffffffffffffffffffff19166bffffffffffffffffffffffff191681526020017f95e794640ff3efd16bfe738f1a9bf2886d166af549121f57d6e14af6b513f45d6bffffffffffffffffffffffff19166bffffffffffffffffffffffff191681526020017fbd3132afbfa232f7d171a873f7e52e32c666b06d8af76d2c9a4ec8149c6b4f986bffffffffffffffffffffffff19166bffffffffffffffffffffffff191681526020017f29eed6590124f64f9236a23d588dbe9a7731e8e7d994f19cbb599c2c9372e7f46bffffffffffffffffffffffff19166bffffffffffffffffffffffff191681526020017fe9079e01bc10f74c7548106059c64f0d04857893cee4fbc8810c4b405700c0976bffffffffffffffffffffffff19166bffffffffffffffffffffffff191681526020017f7ef9322621ca886af10c2bf8f67b9ce1dbafe8f40c0ac7f7e0e8dab81a7feff86bffffffffffffffffffffffff19166bffffffffffffffffffffffff191681526020017fc589c7f4e5976c631f54442ad87fcec402da02df9989767145e519abcbd2b1d96bffffffffffffffffffffffff19166bffffffffffffffffffffffff191681526020017f214afa26c5f6a535e82ca315d5ffc739048132e744c73f66d711468ed63faac96bffffffffffffffffffffffff19166bffffffffffffffffffffffff191681526020017feaeb11cb7786797587689f7f6303acfee9b7b7570354137133562456569337596bffffffffffffffffffffffff19166bffffffffffffffffffffffff19168152506006906009620002c3929190620002d8565b50348015620002d157600080fd5b5062000366565b826009810192821562000334579160200282015b82811115620003335782518260006101000a81548173ffffffffffffffffffffffffffffffffffffffff021916908360601c021790555091602001919060010190620002ec565b5b50905062000343919062000347565b5090565b5b808211156200036257600081600090555060010162000348565b5090565b6130b680620003766000396000f3fe608060405234801561001057600080fd5b50600436106100ea5760003560e01c806391021ae81161008c578063a56c89b111610066578063a56c89b11461026b578063c70b2d381461029b578063d7a96f2b146102b7578063dd596655146102d5576100ea565b806391021ae814610203578063994d43c31461021f5780639ec7b2611461024f576100ea565b80633fb7718e116100c85780633fb7718e1461015757806346ccaefa14610173578063525ae7f1146101a3578063781cc232146101d3576100ea565b806305c6e8de146100ef578063184b95591461010b57806338671fd214610127575b600080fd5b61010960048036038101906101049190611c56565b610306565b005b61012560048036038101906101209190611d82565b61058c565b005b610141600480360381019061013c9190611e0e565b610718565b60405161014e9190611e76565b60405180910390f35b610171600480360381019061016c9190612180565b610747565b005b61018d600480360381019061018891906122ac565b610c1e565b60405161019a9190612317565b60405180910390f35b6101bd60048036038101906101b89190612332565b610c80565b6040516101ca919061238d565b60405180910390f35b6101ed60048036038101906101e891906123d4565b610d82565b6040516101fa919061242d565b60405180910390f35b61021d60048036038101906102189190612448565b610dbd565b005b610239600480360381019061023491906124b7565b610f41565b604051610246919061256c565b60405180910390f35b61026960048036038101906102649190612332565b6110d8565b005b610285600480360381019061028091906123d4565b6112a8565b604051610292919061256c565b60405180910390f35b6102b560048036038101906102b091906124b7565b611362565b005b6102bf6114ff565b6040516102cc919061259d565b60405180910390f35b6102ef60048036038101906102ea91906125b8565b6115b5565b6040516102fd9291906127af565b60405180910390f35b33600160009054906101000a900473ffffffffffffffffffffffffffffffffffffffff1673ffffffffffffffffffffffffffffffffffffffff168173ffffffffffffffffffffffffffffffffffffffff1614610397576040517f08c379a000000000000000000000000000000000000000000000000000000000815260040161038e90612843565b60405180910390fd5b600160149054906101000a900460ff166103e6576040517f08c379a00000000000000000000000000000000000000000000000000000000081526004016103dd906128af565b60405180910390fd5b6000600360009054906101000a900473ffffffffffffffffffffffffffffffffffffffff1673ffffffffffffffffffffffffffffffffffffffff16634bb5ec326005546040518263ffffffff1660e01b8152600401610445919061242d565b6040805180830381865afa158015610461573d6000803e3d6000fd5b505050506040513d601f19601f8201168201806040525081019061048591906129d8565b905060008160006002811061049d5761049c612a05565b5b60200201518560801b6040516020016104b7929190612a55565b6040516020818303038152906040526104cf90612ab3565b90506000846040516020016104e49190612b3b565b6040516020818303038152906040529050600260009054906101000a900473ffffffffffffffffffffffffffffffffffffffff1673ffffffffffffffffffffffffffffffffffffffff16637f23690c83836040518363ffffffff1660e01b8152600401610552929190612b56565b600060405180830381600087803b15801561056c57600080fd5b505af1158015610580573d6000803e3d6000fd5b50505050505050505050565b600160149054906101000a900460ff16156105dc576040517f08c379a00000000000000000000000000000000000000000000000000000000081526004016105d390612bd2565b60405180910390fd5b600160149054906101000a900460ff161561062c576040517f08c379a000000000000000000000000000000000000000000000000000000000815260040161062390612c64565b60405180910390fd5b82600260006101000a81548173ffffffffffffffffffffffffffffffffffffffff021916908373ffffffffffffffffffffffffffffffffffffffff16021790555081600360006101000a81548173ffffffffffffffffffffffffffffffffffffffff021916908373ffffffffffffffffffffffffffffffffffffffff1602179055506106b88282611ac5565b80600460006101000a81548173ffffffffffffffffffffffffffffffffffffffff021916908373ffffffffffffffffffffffffffffffffffffffff16021790555060018060146101000a81548160ff021916908315150217905550505050565b600060068260ff166009811061073157610730612a05565b5b0160009054906101000a900460601b9050919050565b33600160009054906101000a900473ffffffffffffffffffffffffffffffffffffffff1673ffffffffffffffffffffffffffffffffffffffff168173ffffffffffffffffffffffffffffffffffffffff16146107d8576040517f08c379a00000000000000000000000000000000000000000000000000000000081526004016107cf90612843565b60405180910390fd5b600160149054906101000a900460ff16610827576040517f08c379a000000000000000000000000000000000000000000000000000000000815260040161081e906128af565b60405180910390fd5b600061085685600660056009811061084257610841612a05565b5b0160009054906101000a900460601b610d82565b90506000610886866006806009811061087257610871612a05565b5b0160009054906101000a900460601b610d82565b905060008551905060005b81816fffffffffffffffffffffffffffffffff161015610c1457600260009054906101000a900473ffffffffffffffffffffffffffffffffffffffff1673ffffffffffffffffffffffffffffffffffffffff16637f23690c600360009054906101000a900473ffffffffffffffffffffffffffffffffffffffff1673ffffffffffffffffffffffffffffffffffffffff16634bb5ec32876040518263ffffffff1660e01b8152600401610944919061242d565b6040805180830381865afa158015610960573d6000803e3d6000fd5b505050506040513d601f19601f8201168201806040525081019061098491906129d8565b60006002811061099757610996612a05565b5b60200201518360801b6040516020016109b1929190612a55565b6040516020818303038152906040526109c990612ab3565b89846fffffffffffffffffffffffffffffffff16815181106109ee576109ed612a05565b5b602002602001015160601b604051602001610a099190612ca5565b6040516020818303038152906040526040518363ffffffff1660e01b8152600401610a35929190612b56565b600060405180830381600087803b158015610a4f57600080fd5b505af1158015610a63573d6000803e3d6000fd5b50505050600260009054906101000a900473ffffffffffffffffffffffffffffffffffffffff1673ffffffffffffffffffffffffffffffffffffffff16637f23690c600360009054906101000a900473ffffffffffffffffffffffffffffffffffffffff1673ffffffffffffffffffffffffffffffffffffffff16634bb5ec32866040518263ffffffff1660e01b8152600401610b00919061242d565b6040805180830381865afa158015610b1c573d6000803e3d6000fd5b505050506040513d601f19601f82011682018060405250810190610b4091906129d8565b600060028110610b5357610b52612a05565b5b60200201518360801b604051602001610b6d929190612a55565b604051602081830303815290604052610b8590612ab3565b88846fffffffffffffffffffffffffffffffff1681518110610baa57610ba9612a05565b5b60200260200101516040518363ffffffff1660e01b8152600401610bcf929190612b56565b600060405180830381600087803b158015610be957600080fd5b505af1158015610bfd573d6000803e3d6000fd5b505050508080610c0c90612d0b565b915050610891565b5050505050505050565b600082604051602001610c31919061259d565b604051602081830303815290604052805190602001208280519060200120604051602001610c60929190612ddd565b604051602081830303815290604052610c7890612e1e565b905092915050565b60008082600060f01b8560601b604051602001610c9f93929190612ed2565b604051602081830303815290604052610cb790612ab3565b90506001600260009054906101000a900473ffffffffffffffffffffffffffffffffffffffff1673ffffffffffffffffffffffffffffffffffffffff166354f6127f836040518263ffffffff1660e01b8152600401610d16919061242d565b600060405180830381865afa158015610d33573d6000803e3d6000fd5b505050506040513d6000823e3d601f19601f82011682018060405250810190610d5c9190612f7f565b610d6590612ab3565b60001c03610d765760019150610d7b565b600091505b5092915050565b600082600060f01b83604051602001610d9d93929190612ed2565b604051602081830303815290604052610db590612ab3565b905092915050565b33600160009054906101000a900473ffffffffffffffffffffffffffffffffffffffff1673ffffffffffffffffffffffffffffffffffffffff168173ffffffffffffffffffffffffffffffffffffffff1614610e4e576040517f08c379a0000000000000000000000000000000000000000000000000000000008152600401610e4590612843565b60405180910390fd5b600160149054906101000a900460ff16610e9d576040517f08c379a0000000000000000000000000000000000000000000000000000000008152600401610e94906128af565b60405180910390fd5b6000610ea98585610d82565b9050600260009054906101000a900473ffffffffffffffffffffffffffffffffffffffff1673ffffffffffffffffffffffffffffffffffffffff16637f23690c82856040518363ffffffff1660e01b8152600401610f08929190612b56565b600060405180830381600087803b158015610f2257600080fd5b505af1158015610f36573d6000803e3d6000fd5b505050505050505050565b60606000600360009054906101000a900473ffffffffffffffffffffffffffffffffffffffff1673ffffffffffffffffffffffffffffffffffffffff16634bb5ec326005546040518263ffffffff1660e01b8152600401610fa2919061242d565b6040805180830381865afa158015610fbe573d6000803e3d6000fd5b505050506040513d601f19601f82011682018060405250810190610fe291906129d8565b9050600081600060028110610ffa57610ff9612a05565b5b60200201518460801b604051602001611014929190612a55565b60405160208183030381529060405261102c90612ab3565b9050600260009054906101000a900473ffffffffffffffffffffffffffffffffffffffff1673ffffffffffffffffffffffffffffffffffffffff166354f6127f826040518263ffffffff1660e01b8152600401611089919061242d565b600060405180830381865afa1580156110a6573d6000803e3d6000fd5b505050506040513d6000823e3d601f19601f820116820180604052508101906110cf9190612f7f565b92505050919050565b33600160009054906101000a900473ffffffffffffffffffffffffffffffffffffffff1673ffffffffffffffffffffffffffffffffffffffff168173ffffffffffffffffffffffffffffffffffffffff1614611169576040517f08c379a000000000000000000000000000000000000000000000000000000000815260040161116090612843565b60405180910390fd5b600160149054906101000a900460ff166111b8576040517f08c379a00000000000000000000000000000000000000000000000000000000081526004016111af906128af565b60405180910390fd5b600082600060f01b8560601b6040516020016111d693929190612ed2565b6040516020818303038152906040526111ee90612ab3565b9050600260009054906101000a900473ffffffffffffffffffffffffffffffffffffffff1673ffffffffffffffffffffffffffffffffffffffff16637f23690c82600160001b6040516020016112449190612fe9565b6040516020818303038152906040526040518363ffffffff1660e01b8152600401611270929190612b56565b600060405180830381600087803b15801561128a57600080fd5b505af115801561129e573d6000803e3d6000fd5b5050505050505050565b606060006112b68484610d82565b9050600260009054906101000a900473ffffffffffffffffffffffffffffffffffffffff1673ffffffffffffffffffffffffffffffffffffffff166354f6127f826040518263ffffffff1660e01b8152600401611313919061242d565b600060405180830381865afa158015611330573d6000803e3d6000fd5b505050506040513d6000823e3d601f19601f820116820180604052508101906113599190612f7f565b91505092915050565b33600160009054906101000a900473ffffffffffffffffffffffffffffffffffffffff1673ffffffffffffffffffffffffffffffffffffffff168173ffffffffffffffffffffffffffffffffffffffff16146113f3576040517f08c379a00000000000000000000000000000000000000000000000000000000081526004016113ea90612843565b60405180910390fd5b600160149054906101000a900460ff16611442576040517f08c379a0000000000000000000000000000000000000000000000000000000008152600401611439906128af565b60405180910390fd5b60008260001b6040516020016114589190612fe9565b6040516020818303038152906040529050600260009054906101000a900473ffffffffffffffffffffffffffffffffffffffff1673ffffffffffffffffffffffffffffffffffffffff16637f23690c600554836040518363ffffffff1660e01b81526004016114c8929190612b56565b600060405180830381600087803b1580156114e257600080fd5b505af11580156114f6573d6000803e3d6000fd5b50505050505050565b6000600260009054906101000a900473ffffffffffffffffffffffffffffffffffffffff1673ffffffffffffffffffffffffffffffffffffffff166354f6127f6005546040518263ffffffff1660e01b815260040161155e919061242d565b600060405180830381865afa15801561157b573d6000803e3d6000fd5b505050506040513d6000823e3d601f19601f820116820180604052508101906115a49190612f7f565b6115ad90612ab3565b60001c905090565b60608060006115e78460066005600981106115d3576115d2612a05565b5b0160009054906101000a900460601b610d82565b90506000611617856006806009811061160357611602612a05565b5b0160009054906101000a900460601b610d82565b9050600061164886600660056009811061163457611633612a05565b5b0160009054906101000a900460601b6112a8565b61165190612ab3565b60001c90508067ffffffffffffffff8111156116705761166f611ea7565b5b60405190808252806020026020018201604052801561169e5781602001602082028036833780820191505090505b5094508067ffffffffffffffff8111156116bb576116ba611ea7565b5b6040519080825280602002602001820160405280156116ee57816020015b60608152602001906001900390816116d95790505b50935060005b81816fffffffffffffffffffffffffffffffff161015611abc57600260009054906101000a900473ffffffffffffffffffffffffffffffffffffffff1673ffffffffffffffffffffffffffffffffffffffff166354f6127f600360009054906101000a900473ffffffffffffffffffffffffffffffffffffffff1673ffffffffffffffffffffffffffffffffffffffff16634bb5ec32876040518263ffffffff1660e01b81526004016117a7919061242d565b6040805180830381865afa1580156117c3573d6000803e3d6000fd5b505050506040513d601f19601f820116820180604052508101906117e791906129d8565b6000600281106117fa576117f9612a05565b5b60200201518360801b604051602001611814929190612a55565b60405160208183030381529060405261182c90612ab3565b6040518263ffffffff1660e01b8152600401611848919061242d565b600060405180830381865afa158015611865573d6000803e3d6000fd5b505050506040513d6000823e3d601f19601f8201168201806040525081019061188e9190612f7f565b61189790613019565b60601c86826fffffffffffffffffffffffffffffffff16815181106118bf576118be612a05565b5b602002602001019073ffffffffffffffffffffffffffffffffffffffff16908173ffffffffffffffffffffffffffffffffffffffff1681525050600260009054906101000a900473ffffffffffffffffffffffffffffffffffffffff1673ffffffffffffffffffffffffffffffffffffffff166354f6127f600360009054906101000a900473ffffffffffffffffffffffffffffffffffffffff1673ffffffffffffffffffffffffffffffffffffffff16634bb5ec32866040518263ffffffff1660e01b8152600401611992919061242d565b6040805180830381865afa1580156119ae573d6000803e3d6000fd5b505050506040513d601f19601f820116820180604052508101906119d291906129d8565b6000600281106119e5576119e4612a05565b5b60200201518360801b6040516020016119ff929190612a55565b604051602081830303815290604052611a1790612ab3565b6040518263ffffffff1660e01b8152600401611a33919061242d565b600060405180830381865afa158015611a50573d6000803e3d6000fd5b505050506040513d6000823e3d601f19601f82011682018060405250810190611a799190612f7f565b85826fffffffffffffffffffffffffffffffff1681518110611a9e57611a9d612a05565b5b60200260200101819052508080611ab490612d0b565b9150506116f4565b50505050915091565b600160149054906101000a900460ff1615611b15576040517f08c379a0000000000000000000000000000000000000000000000000000000008152600401611b0c90612c64565b60405180910390fd5b816000806101000a81548173ffffffffffffffffffffffffffffffffffffffff021916908373ffffffffffffffffffffffffffffffffffffffff16021790555080600160006101000a81548173ffffffffffffffffffffffffffffffffffffffff021916908373ffffffffffffffffffffffffffffffffffffffff16021790555060018060146101000a81548160ff0219169083151502179055505050565b6000604051905090565b600080fd5b600080fd5b6000819050919050565b611bdb81611bc8565b8114611be657600080fd5b50565b600081359050611bf881611bd2565b92915050565b60007fffffffffffffffffffff0000000000000000000000000000000000000000000082169050919050565b611c3381611bfe565b8114611c3e57600080fd5b50565b600081359050611c5081611c2a565b92915050565b60008060408385031215611c6d57611c6c611bbe565b5b6000611c7b85828601611be9565b9250506020611c8c85828601611c41565b9150509250929050565b600073ffffffffffffffffffffffffffffffffffffffff82169050919050565b6000611cc182611c96565b9050919050565b6000611cd382611cb6565b9050919050565b611ce381611cc8565b8114611cee57600080fd5b50565b600081359050611d0081611cda565b92915050565b6000611d1182611c96565b9050919050565b6000611d2382611d06565b9050919050565b611d3381611d18565b8114611d3e57600080fd5b50565b600081359050611d5081611d2a565b92915050565b611d5f81611d06565b8114611d6a57600080fd5b50565b600081359050611d7c81611d56565b92915050565b600080600060608486031215611d9b57611d9a611bbe565b5b6000611da986828701611cf1565b9350506020611dba86828701611d41565b9250506040611dcb86828701611d6d565b9150509250925092565b600060ff82169050919050565b611deb81611dd5565b8114611df657600080fd5b50565b600081359050611e0881611de2565b92915050565b600060208284031215611e2457611e23611bbe565b5b6000611e3284828501611df9565b91505092915050565b60007fffffffffffffffffffffffffffffffffffffffff00000000000000000000000082169050919050565b611e7081611e3b565b82525050565b6000602082019050611e8b6000830184611e67565b92915050565b600080fd5b6000601f19601f8301169050919050565b7f4e487b7100000000000000000000000000000000000000000000000000000000600052604160045260246000fd5b611edf82611e96565b810181811067ffffffffffffffff82111715611efe57611efd611ea7565b5b80604052505050565b6000611f11611bb4565b9050611f1d8282611ed6565b919050565b600067ffffffffffffffff821115611f3d57611f3c611ea7565b5b602082029050602081019050919050565b600080fd5b6000611f66611f6184611f22565b611f07565b90508083825260208201905060208402830185811115611f8957611f88611f4e565b5b835b81811015611fb25780611f9e8882611d6d565b845260208401935050602081019050611f8b565b5050509392505050565b600082601f830112611fd157611fd0611e91565b5b8135611fe1848260208601611f53565b91505092915050565b600067ffffffffffffffff82111561200557612004611ea7565b5b602082029050602081019050919050565b600080fd5b600067ffffffffffffffff82111561203657612035611ea7565b5b61203f82611e96565b9050602081019050919050565b82818337600083830152505050565b600061206e6120698461201b565b611f07565b90508281526020810184848401111561208a57612089612016565b5b61209584828561204c565b509392505050565b600082601f8301126120b2576120b1611e91565b5b81356120c284826020860161205b565b91505092915050565b60006120de6120d984611fea565b611f07565b9050808382526020820190506020840283018581111561210157612100611f4e565b5b835b8181101561214857803567ffffffffffffffff81111561212657612125611e91565b5b808601612133898261209d565b85526020850194505050602081019050612103565b5050509392505050565b600082601f83011261216757612166611e91565b5b81356121778482602086016120cb565b91505092915050565b60008060006060848603121561219957612198611bbe565b5b60006121a786828701611c41565b935050602084013567ffffffffffffffff8111156121c8576121c7611bc3565b5b6121d486828701611fbc565b925050604084013567ffffffffffffffff8111156121f5576121f4611bc3565b5b61220186828701612152565b9150509250925092565b600067ffffffffffffffff82111561222657612225611ea7565b5b61222f82611e96565b9050602081019050919050565b600061224f61224a8461220b565b611f07565b90508281526020810184848401111561226b5761226a612016565b5b61227684828561204c565b509392505050565b600082601f83011261229357612292611e91565b5b81356122a384826020860161223c565b91505092915050565b600080604083850312156122c3576122c2611bbe565b5b60006122d185828601611be9565b925050602083013567ffffffffffffffff8111156122f2576122f1611bc3565b5b6122fe8582860161227e565b9150509250929050565b61231181611bfe565b82525050565b600060208201905061232c6000830184612308565b92915050565b6000806040838503121561234957612348611bbe565b5b600061235785828601611d6d565b925050602061236885828601611c41565b9150509250929050565b60008115159050919050565b61238781612372565b82525050565b60006020820190506123a2600083018461237e565b92915050565b6123b181611e3b565b81146123bc57600080fd5b50565b6000813590506123ce816123a8565b92915050565b600080604083850312156123eb576123ea611bbe565b5b60006123f985828601611c41565b925050602061240a858286016123bf565b9150509250929050565b6000819050919050565b61242781612414565b82525050565b6000602082019050612442600083018461241e565b92915050565b60008060006060848603121561246157612460611bbe565b5b600061246f86828701611c41565b9350506020612480868287016123bf565b925050604084013567ffffffffffffffff8111156124a1576124a0611bc3565b5b6124ad8682870161209d565b9150509250925092565b6000602082840312156124cd576124cc611bbe565b5b60006124db84828501611be9565b91505092915050565b600081519050919050565b600082825260208201905092915050565b60005b8381101561251e578082015181840152602081019050612503565b8381111561252d576000848401525b50505050565b600061253e826124e4565b61254881856124ef565b9350612558818560208601612500565b61256181611e96565b840191505092915050565b600060208201905081810360008301526125868184612533565b905092915050565b61259781611bc8565b82525050565b60006020820190506125b2600083018461258e565b92915050565b6000602082840312156125ce576125cd611bbe565b5b60006125dc84828501611c41565b91505092915050565b600081519050919050565b600082825260208201905092915050565b6000819050602082019050919050565b61261a81611d06565b82525050565b600061262c8383612611565b60208301905092915050565b6000602082019050919050565b6000612650826125e5565b61265a81856125f0565b935061266583612601565b8060005b8381101561269657815161267d8882612620565b975061268883612638565b925050600181019050612669565b5085935050505092915050565b600081519050919050565b600082825260208201905092915050565b6000819050602082019050919050565b600082825260208201905092915050565b60006126eb826124e4565b6126f581856126cf565b9350612705818560208601612500565b61270e81611e96565b840191505092915050565b600061272583836126e0565b905092915050565b6000602082019050919050565b6000612745826126a3565b61274f81856126ae565b935083602082028501612761856126bf565b8060005b8581101561279d578484038952815161277e8582612719565b94506127898361272d565b925060208a01995050600181019050612765565b50829750879550505050505092915050565b600060408201905081810360008301526127c98185612645565b905081810360208301526127dd818461273a565b90509392505050565b600082825260208201905092915050565b7f43616c6c6572206973206e6f74207468652044414f2e00000000000000000000600082015250565b600061282d6016836127e6565b9150612838826127f7565b602082019050919050565b6000602082019050818103600083015261285c81612820565b9050919050565b7f436f6e74726163747320617265206e6f7420696e697469616c697a65642e0000600082015250565b6000612899601e836127e6565b91506128a482612863565b602082019050919050565b600060208201905081810360008301526128c88161288c565b9050919050565b600067ffffffffffffffff8211156128ea576128e9611ea7565b5b602082029050919050565b60007fffffffffffffffffffffffffffffffff0000000000000000000000000000000082169050919050565b61292a816128f5565b811461293557600080fd5b50565b60008151905061294781612921565b92915050565b600061296061295b846128cf565b611f07565b9050806020840283018581111561297a57612979611f4e565b5b835b818110156129a3578061298f8882612938565b84526020840193505060208101905061297c565b5050509392505050565b600082601f8301126129c2576129c1611e91565b5b60026129cf84828561294d565b91505092915050565b6000604082840312156129ee576129ed611bbe565b5b60006129fc848285016129ad565b91505092915050565b7f4e487b7100000000000000000000000000000000000000000000000000000000600052603260045260246000fd5b6000819050919050565b612a4f612a4a826128f5565b612a34565b82525050565b6000612a618285612a3e565b601082019150612a718284612a3e565b6010820191508190509392505050565b6000819050602082019050919050565b6000612a9d8251612414565b80915050919050565b600082821b905092915050565b6000612abe826124e4565b82612ac884612a81565b9050612ad381612a91565b92506020821015612b1357612b0e7fffffffffffffffffffffffffffffffffffffffffffffffffffffffffffffffff83602003600802612aa6565b831692505b5050919050565b6000819050919050565b612b35612b3082611bfe565b612b1a565b82525050565b6000612b478284612b24565b600a8201915081905092915050565b6000604082019050612b6b600083018561241e565b8181036020830152612b7d8184612533565b90509392505050565b7f436f6e7472616374732061726520696e697469616c697a65642e000000000000600082015250565b6000612bbc601a836127e6565b9150612bc782612b86565b602082019050919050565b60006020820190508181036000830152612beb81612baf565b9050919050565b7f54686520636f6e747261637420697320616c726561647920696e697469616c6960008201527f7a65642e00000000000000000000000000000000000000000000000000000000602082015250565b6000612c4e6024836127e6565b9150612c5982612bf2565b604082019050919050565b60006020820190508181036000830152612c7d81612c41565b9050919050565b6000819050919050565b612c9f612c9a82611e3b565b612c84565b82525050565b6000612cb18284612c8e565b60148201915081905092915050565b7f4e487b7100000000000000000000000000000000000000000000000000000000600052601160045260246000fd5b60006fffffffffffffffffffffffffffffffff82169050919050565b6000612d1682612cef565b91506fffffffffffffffffffffffffffffffff8203612d3857612d37612cc0565b5b600182019050919050565b60007fffffffffffff000000000000000000000000000000000000000000000000000082169050919050565b6000819050919050565b612d8a612d8582612d43565b612d6f565b82525050565b60007fffffffff0000000000000000000000000000000000000000000000000000000082169050919050565b6000819050919050565b612dd7612dd282612d90565b612dbc565b82525050565b6000612de98285612d79565b600682019150612df98284612dc6565b6004820191508190509392505050565b6000612e158251611bfe565b80915050919050565b6000612e29826124e4565b82612e3384612a81565b9050612e3e81612e09565b9250600a821015612e7e57612e797fffffffffffffffffffff0000000000000000000000000000000000000000000083600a03600802612aa6565b831692505b5050919050565b60007fffff00000000000000000000000000000000000000000000000000000000000082169050919050565b6000819050919050565b612ecc612ec782612e85565b612eb1565b82525050565b6000612ede8286612b24565b600a82019150612eee8285612ebb565b600282019150612efe8284612c8e565b601482019150819050949350505050565b6000612f22612f1d8461201b565b611f07565b905082815260208101848484011115612f3e57612f3d612016565b5b612f49848285612500565b509392505050565b600082601f830112612f6657612f65611e91565b5b8151612f76848260208601612f0f565b91505092915050565b600060208284031215612f9557612f94611bbe565b5b600082015167ffffffffffffffff811115612fb357612fb2611bc3565b5b612fbf84828501612f51565b91505092915050565b6000819050919050565b612fe3612fde82612414565b612fc8565b82525050565b6000612ff58284612fd2565b60208201915081905092915050565b60006130108251611e3b565b80915050919050565b6000613024826124e4565b8261302e84612a81565b905061303981613004565b92506014821015613079576130747fffffffffffffffffffffffffffffffffffffffff00000000000000000000000083601403600802612aa6565b831692505b505091905056fea26469706673582212208e9ece41abdbb26705bd119aaede2a9cc4fe4dfc82483abd80a68249bd9d364a64736f6c634300080f0033",
  "immutableReferences": {},
  "source": "// SPDX-License-Identifier: CC0-1.0\n\npragma solidity ^0.8.0;\n\nimport \"./LSP0ERC725Account.sol\";\nimport \"./Interfaces/DaoAccountMetadataInterface.sol\";\nimport \"./Utils/AccessControl.sol\";\nimport \"./Utils/DaoUtils.sol\";\n\n/**\n *\n* @notice This smart contract is responsible for the proposals of a DAO.\n* The DAO must have as a base smart contract the LSP0ERC725Account.\n *\n * @author B00ste\n * @title DaoProposals\n * @custom:version 0.92\n */\ncontract DaoProposals is AccessControl {\n\n  // --- GENERAL ATTRIBUTES\n\n  /**\n   * @notice Instance of the DAO key manager.\n   */\n  LSP0ERC725Account private DAO;\n\n  /**\n   * @notice Instance for the utils of a Universal Profile DAO.\n   */\n  DaoUtils private utils;\n\n  /**\n   * @notice Instance for the DAO metadata.\n   */\n  DaoAccountMetadataInterface private metadata;\n\n  /**\n   * @notice Initializing the contract.\n   */\n  function init(LSP0ERC725Account _DAO, DaoUtils _utils, address daoAddress) external isNotInitialized() {\n    require(!initialized, \"The contract is already initialized.\");\n    DAO = _DAO;\n    utils = _utils;\n    initAccessControl(_utils, daoAddress);\n    metadata = DaoAccountMetadataInterface(daoAddress);\n    initialized = true;\n  }\n\n  // --- ATTRIBUTES\n\n  /**\n   * @notice Proposals array key.\n   */\n  bytes32 private proposalsArrayKey = bytes32(keccak256(\"ProposalsArray[]\"));\n\n  /**\n   * @notice Proposal attribute key.\n   */  \n  bytes20[9] private proposalAttributeKeys = [\n    bytes20(keccak256(\"Title\")),\n    bytes20(keccak256(\"Description\")),\n    bytes20(keccak256(\"CreationTimestamp\")),\n    bytes20(keccak256(\"VotingTimestamp\")),\n    bytes20(keccak256(\"EndTimestamp\")), //todo add ending delay.\n    bytes20(keccak256(\"Targets[]\")),\n    bytes20(keccak256(\"Datas[]\")),\n    bytes20(keccak256(\"AgainstVotes\")),\n    bytes20(keccak256(\"ProVotes\"))\n  ];\n\n  // --- GETTERS & SETTERS\n\n  /**\n   * @notice Get proposal attribute key.\n   */\n  function _getProposalAttributeKeyByIndex(uint8 index) external view returns(bytes20 key) {\n    key = proposalAttributeKeys[index];\n  }\n\n  /**\n   * @notice Get proposal signature.\n   */\n  function _getProposalSignature(uint256 creationTimestamp, string memory proposalName) public pure returns(bytes10 proposalSignature) {\n    proposalSignature = bytes10(bytes.concat(\n      bytes6(keccak256(abi.encode(creationTimestamp))),\n      bytes4(keccak256(bytes(proposalName)))\n    ));\n  }\n\n  /**\n   * @notice Get the proposals array lenngth.\n   */\n  function _getProposalsArrayLength() public view returns(uint256 length) {\n    length = uint256(bytes32(DAO.getData(proposalsArrayKey)));\n  }\n\n  /**\n   * @notice Set the proposals array lenngth.\n   */\n  function _setProposalsArrayLength(uint256 length) external isDao(msg.sender) isInitialized() {\n    bytes memory newLength = bytes.concat(bytes32(length));\n    DAO.setData(proposalsArrayKey, newLength);\n  }\n\n  /**\n   * @notice Get Proposal Signature by index.\n   */\n  function _getProposalSignatureByIndex(uint256 index) public view returns(bytes memory proposalSignature) {\n    bytes16[2] memory daoProposalsArrayKeyHalfs = utils._bytes32ToTwoHalfs(proposalsArrayKey);\n    bytes32 proposalKey = bytes32(bytes.concat(\n      daoProposalsArrayKeyHalfs[0], bytes16(uint128(index))\n    ));\n    proposalSignature = DAO.getData(proposalKey);\n  }\n\n  /**\n   * @notice Set Proposal by index.\n   */\n  function _setProposalSignatureByIndex(uint256 index, bytes10 _proposalSignature) external isDao(msg.sender) isInitialized() {\n    bytes16[2] memory daoProposalsArrayKeyHalfs = utils._bytes32ToTwoHalfs(proposalsArrayKey);\n    bytes32 proposalKey = bytes32(bytes.concat(\n      daoProposalsArrayKeyHalfs[0], bytes16(uint128(index))\n    ));\n    bytes memory proposalSignature = bytes.concat(_proposalSignature);\n    DAO.setData(proposalKey, proposalSignature);\n  }\n\n  /**\n   * @notice Get the key for a proposal attribute.\n   */\n  function _getAttributeKey(bytes10 proposalSignature, bytes20 proposalAttributeKey) public pure returns(bytes32 key) {\n    key = bytes32(bytes.concat(\n      proposalSignature,\n      bytes2(0),\n      proposalAttributeKey\n    ));\n  }\n\n  /**\n   * @notice Get attribute value.\n   */\n  function _getAttributeValue(bytes10 proposalSignature, bytes20 proposalAttributeKey) public view returns(bytes memory value) {\n    bytes32 key = _getAttributeKey(proposalSignature, proposalAttributeKey);\n    value = DAO.getData(key);\n  }\n\n  /**\n   * @notice Set attribute value.\n   */\n  function _setAttributeValue(bytes10 proposalSignature, bytes20 proposalAttributeKey, bytes memory value) external isDao(msg.sender) isInitialized() {\n    bytes32 key = _getAttributeKey(proposalSignature, proposalAttributeKey);\n    DAO.setData(key, value);\n  }\n\n  /**\n   * @notice Get the targets and datas for execution of a proposal.\n   */\n  function _getTargetsAndDatas(bytes10 proposalSignature) public view returns(address[] memory targets, bytes[] memory datas) {\n    bytes32 targetsKey = _getAttributeKey(proposalSignature, proposalAttributeKeys[5]);\n    bytes32 datasKey = _getAttributeKey(proposalSignature, proposalAttributeKeys[6]);\n    uint256 arrayLength = uint256(bytes32(_getAttributeValue(proposalSignature, proposalAttributeKeys[5])));\n    targets = new address[](arrayLength);\n    datas = new bytes[](arrayLength);\n    for(uint128 i = 0; i < arrayLength; i++) {\n      targets[i] = address(bytes20(DAO.getData(bytes32(bytes.concat(\n        utils._bytes32ToTwoHalfs(targetsKey)[0],\n        bytes16(i)\n      )))));\n      datas[i] = DAO.getData(bytes32(bytes.concat(\n        utils._bytes32ToTwoHalfs(datasKey)[0],\n        bytes16(i)\n      )));\n    }\n  }\n\n  /**\n   * @notice Set the targets and datas for execution of a proposal.\n   */\n  function _setTargetsAndDatas(bytes10 proposalSignature, address[] memory targets, bytes[] memory datas) external isDao(msg.sender) isInitialized() {\n    bytes32 targetsKey = _getAttributeKey(proposalSignature, proposalAttributeKeys[5]);\n    bytes32 datasKey = _getAttributeKey(proposalSignature, proposalAttributeKeys[6]);\n    uint256 arrayLength = targets.length;\n    for(uint128 i = 0; i < arrayLength; i++) {\n      DAO.setData(\n        bytes32(bytes.concat(\n          utils._bytes32ToTwoHalfs(targetsKey)[0],\n          bytes16(i)\n        )),\n        bytes.concat(bytes20(targets[i]))\n      );\n      DAO.setData(\n        bytes32(bytes.concat(\n          utils._bytes32ToTwoHalfs(datasKey)[0],\n          bytes16(i)\n        )),\n        datas[i]\n      );\n    }\n  }\n\n  /**\n   * @notice Get voted status of a Universal Profile for a proposal.\n   */\n  function _getVotedStatus(address universalProfileAddress, bytes10 proposalSignature) public view returns(bool result) {\n    bytes32 key = bytes32(bytes.concat(\n      bytes10(proposalSignature),\n      bytes2(0),\n      bytes20(universalProfileAddress)\n    ));\n    if(uint256(bytes32(DAO.getData(key))) == 1) {\n      result = true;\n    }\n    else {\n      result = false;\n    }\n  }\n\n  /**\n   * @notice Set voted status of a Universal Profile for a proposal.\n   */\n  function _setVotedStatus(address universalProfileAddress, bytes10 proposalSignature) external isDao(msg.sender) isInitialized() {\n    bytes32 key = bytes32(bytes.concat(\n      bytes10(proposalSignature),\n      bytes2(0),\n      bytes20(universalProfileAddress)\n    ));\n    DAO.setData(key, bytes.concat(bytes32(uint256(1))));\n  }\n\n}",
  "sourcePath": "/home/b00ste/Projects/universal-profile-governance/contracts/UPDao/DaoProposals.sol",
  "compiler": {
    "name": "solc",
    "version": "0.8.15+commit.e14f2714.Emscripten.clang"
  },
  "schemaVersion": "3.4.8",
  "updatedAt": "2022-07-22T23:29:04.107Z",
  "devdoc": {
    "author": "B00ste",
    "custom:version": "0.92",
    "kind": "dev",
    "methods": {},
    "title": "DaoProposals",
    "version": 1
  },
  "userdoc": {
    "kind": "user",
    "methods": {
      "_getAttributeKey(bytes10,bytes20)": {
        "notice": "Get the key for a proposal attribute."
      },
      "_getAttributeValue(bytes10,bytes20)": {
        "notice": "Get attribute value."
      },
      "_getProposalAttributeKeyByIndex(uint8)": {
        "notice": "Get proposal attribute key."
      },
      "_getProposalSignature(uint256,string)": {
        "notice": "Get proposal signature."
      },
      "_getProposalSignatureByIndex(uint256)": {
        "notice": "Get Proposal Signature by index."
      },
      "_getProposalsArrayLength()": {
        "notice": "Get the proposals array lenngth."
      },
      "_getTargetsAndDatas(bytes10)": {
        "notice": "Get the targets and datas for execution of a proposal."
      },
      "_getVotedStatus(address,bytes10)": {
        "notice": "Get voted status of a Universal Profile for a proposal."
      },
      "_setAttributeValue(bytes10,bytes20,bytes)": {
        "notice": "Set attribute value."
      },
      "_setProposalSignatureByIndex(uint256,bytes10)": {
        "notice": "Set Proposal by index."
      },
      "_setProposalsArrayLength(uint256)": {
        "notice": "Set the proposals array lenngth."
      },
      "_setTargetsAndDatas(bytes10,address[],bytes[])": {
        "notice": "Set the targets and datas for execution of a proposal."
      },
      "_setVotedStatus(address,bytes10)": {
        "notice": "Set voted status of a Universal Profile for a proposal."
      },
      "init(address,address,address)": {
        "notice": "Initializing the contract."
      }
    },
    "notice": "This smart contract is responsible for the proposals of a DAO. The DAO must have as a base smart contract the LSP0ERC725Account.",
    "version": 1
  }
}