{
  "contractName": "DaoParticipation",
  "abi": [
    {
      "inputs": [
        {
          "internalType": "contract DaoUtils",
          "name": "_utils",
          "type": "address"
        },
        {
          "internalType": "address",
          "name": "daoAddress",
          "type": "address"
        }
      ],
      "name": "init",
      "outputs": [],
      "stateMutability": "nonpayable",
      "type": "function"
    },
    {
      "inputs": [
        {
          "internalType": "address",
          "name": "universalProfileAddress",
          "type": "address"
        }
      ],
      "name": "_getArrayOfDaosLength",
      "outputs": [
        {
          "internalType": "uint256",
          "name": "length",
          "type": "uint256"
        }
      ],
      "stateMutability": "view",
      "type": "function"
    },
    {
      "inputs": [
        {
          "internalType": "address",
          "name": "universalProfileAddress",
          "type": "address"
        },
        {
          "internalType": "uint256",
          "name": "length",
          "type": "uint256"
        }
      ],
      "name": "_setArrayOfDaosLength",
      "outputs": [],
      "stateMutability": "nonpayable",
      "type": "function"
    },
    {
      "inputs": [
        {
          "internalType": "address",
          "name": "universalProfileAddress",
          "type": "address"
        },
        {
          "internalType": "uint128",
          "name": "index",
          "type": "uint128"
        }
      ],
      "name": "_getDaoFromArrayByIndex",
      "outputs": [
        {
          "internalType": "address",
          "name": "daoAddress",
          "type": "address"
        }
      ],
      "stateMutability": "view",
      "type": "function"
    },
    {
      "inputs": [
        {
          "internalType": "address",
          "name": "universalProfileAddress",
          "type": "address"
        },
        {
          "internalType": "address",
          "name": "daoAddress",
          "type": "address"
        },
        {
          "internalType": "uint128",
          "name": "index",
          "type": "uint128"
        }
      ],
      "name": "_setDaoToArrayByIndex",
      "outputs": [],
      "stateMutability": "nonpayable",
      "type": "function"
    },
    {
      "inputs": [
        {
          "internalType": "address",
          "name": "daoAddress",
          "type": "address"
        }
      ],
      "name": "_getContollersArrayKey",
      "outputs": [
        {
          "internalType": "bytes32",
          "name": "controllersArrayKey",
          "type": "bytes32"
        }
      ],
      "stateMutability": "pure",
      "type": "function"
    },
    {
      "inputs": [
        {
          "internalType": "address",
          "name": "universalProfileAddress",
          "type": "address"
        },
        {
          "internalType": "address",
          "name": "daoAddress",
          "type": "address"
        }
      ],
      "name": "_getControllersArrayLength",
      "outputs": [
        {
          "internalType": "uint256",
          "name": "length",
          "type": "uint256"
        }
      ],
      "stateMutability": "view",
      "type": "function"
    },
    {
      "inputs": [
        {
          "internalType": "address",
          "name": "universalProfileAddress",
          "type": "address"
        },
        {
          "internalType": "address",
          "name": "daoAddress",
          "type": "address"
        },
        {
          "internalType": "uint256",
          "name": "length",
          "type": "uint256"
        }
      ],
      "name": "_setControllersArrayLength",
      "outputs": [],
      "stateMutability": "nonpayable",
      "type": "function"
    },
    {
      "inputs": [
        {
          "internalType": "address",
          "name": "universalProfileAddress",
          "type": "address"
        },
        {
          "internalType": "address",
          "name": "daoAddress",
          "type": "address"
        },
        {
          "internalType": "uint128",
          "name": "index",
          "type": "uint128"
        }
      ],
      "name": "_getControllerByIndex",
      "outputs": [
        {
          "internalType": "address",
          "name": "controllerAddress",
          "type": "address"
        }
      ],
      "stateMutability": "view",
      "type": "function"
    },
    {
      "inputs": [
        {
          "internalType": "address",
          "name": "universalProfileAddress",
          "type": "address"
        },
        {
          "internalType": "address",
          "name": "daoAddress",
          "type": "address"
        },
        {
          "internalType": "address",
          "name": "controllerAddress",
          "type": "address"
        },
        {
          "internalType": "uint128",
          "name": "index",
          "type": "uint128"
        }
      ],
      "name": "_setControllerByIndex",
      "outputs": [],
      "stateMutability": "nonpayable",
      "type": "function"
    },
    {
      "inputs": [
        {
          "internalType": "address",
          "name": "universalProfileAddress",
          "type": "address"
        },
        {
          "internalType": "address",
          "name": "daoAddress",
          "type": "address"
        }
      ],
      "name": "_getParticipantOfDao",
      "outputs": [
        {
          "internalType": "bool",
          "name": "response",
          "type": "bool"
        }
      ],
      "stateMutability": "view",
      "type": "function"
    },
    {
      "inputs": [
        {
          "internalType": "address",
          "name": "universalProfileAddress",
          "type": "address"
        },
        {
          "internalType": "address",
          "name": "daoAddress",
          "type": "address"
        },
        {
          "internalType": "bool",
          "name": "isParticipant",
          "type": "bool"
        }
      ],
      "name": "_toggleParticipantOfDao",
      "outputs": [],
      "stateMutability": "nonpayable",
      "type": "function"
    }
  ],
  "bytecode": "0x60806040526000600160146101000a81548160ff0219169083151502179055507fbd0fc089e4959fa394a5a3527ee3a872ddae5e9a689008758a5af13d8c4b54fb60035534801561004f57600080fd5b50611e708061005f6000396000f3fe608060405234801561001057600080fd5b50600436106100b45760003560e01c8063b795487a11610071578063b795487a1461019d578063c8b39ce6146101b9578063cb42ba1c146101e9578063f09a401614610219578063f870194a14610235578063fad7fc3614610265576100b4565b806313c79650146100b95780632670e039146100d55780633805496f146101055780633afeff90146101215780634632b877146101515780635f10ab8e14610181575b600080fd5b6100d360048036038101906100ce9190611245565b610281565b005b6100ef60048036038101906100ea91906112e0565b61045f565b6040516100fc919061132f565b60405180910390f35b61011f600480360381019061011a9190611380565b6105e0565b005b61013b600480360381019061013691906113c0565b6106ca565b60405161014891906113fc565b60405180910390f35b61016b60048036038101906101669190611417565b610765565b604051610178919061132f565b60405180910390f35b61019b6004803603810190610196919061146a565b6108ed565b005b6101b760048036038101906101b29190611417565b6109de565b005b6101d360048036038101906101ce91906114bd565b610bae565b6040516101e091906113fc565b60405180910390f35b61020360048036038101906101fe91906114bd565b610c50565b604051610210919061150c565b60405180910390f35b610233600480360381019061022e9190611565565b610d6f565b005b61024f600480360381019061024a91906113c0565b610e78565b60405161025c91906115be565b60405180910390f35b61027f600480360381019061027a91906115d9565b610ed5565b005b600160149054906101000a900460ff166102d0576040517f08c379a00000000000000000000000000000000000000000000000000000000081526004016102c79061169d565b60405180910390fd5b600083905060007ff6c2e977714cb0cf78c4ae117569d9685ce0dd08df05cc6806d8250129f48731600060f01b8560601b604051602001610313939291906117a4565b60405160208183030381529060405261032b9061181e565b905082156103c7578173ffffffffffffffffffffffffffffffffffffffff16637f23690c826000801b60405160200161036491906118a6565b6040516020818303038152906040526040518363ffffffff1660e01b815260040161039092919061194f565b600060405180830381600087803b1580156103aa57600080fd5b505af11580156103be573d6000803e3d6000fd5b50505050610458565b8173ffffffffffffffffffffffffffffffffffffffff16637f23690c82600160001b6040516020016103f991906118a6565b6040516020818303038152906040526040518363ffffffff1660e01b815260040161042592919061194f565b600060405180830381600087803b15801561043f57600080fd5b505af1158015610453573d6000803e3d6000fd5b505050505b5050505050565b6000808390506000600260009054906101000a900473ffffffffffffffffffffffffffffffffffffffff1673ffffffffffffffffffffffffffffffffffffffff16634bb5ec326003546040518263ffffffff1660e01b81526004016104c491906115be565b6040805180830381865afa1580156104e0573d6000803e3d6000fd5b505050506040513d601f19601f820116820180604052508101906105049190611b0d565b60006002811061051757610516611b3a565b5b60200201518460801b604051602001610531929190611b8a565b6040516020818303038152906040526105499061181e565b90508173ffffffffffffffffffffffffffffffffffffffff166354f6127f826040518263ffffffff1660e01b815260040161058491906115be565b600060405180830381865afa1580156105a1573d6000803e3d6000fd5b505050506040513d6000823e3d601f19601f820116820180604052508101906105ca9190611c5c565b6105d390611cba565b60601c9250505092915050565b600160149054906101000a900460ff1661062f576040517f08c379a00000000000000000000000000000000000000000000000000000000081526004016106269061169d565b60405180910390fd5b60008290508073ffffffffffffffffffffffffffffffffffffffff16637f23690c6003548460001b60405160200161066791906118a6565b6040516020818303038152906040526040518363ffffffff1660e01b815260040161069392919061194f565b600060405180830381600087803b1580156106ad57600080fd5b505af11580156106c1573d6000803e3d6000fd5b50505050505050565b6000808290508073ffffffffffffffffffffffffffffffffffffffff166354f6127f6003546040518263ffffffff1660e01b815260040161070b91906115be565b600060405180830381865afa158015610728573d6000803e3d6000fd5b505050506040513d6000823e3d601f19601f820116820180604052508101906107519190611c5c565b61075a9061181e565b60001c915050919050565b6000808490506000600260009054906101000a900473ffffffffffffffffffffffffffffffffffffffff1673ffffffffffffffffffffffffffffffffffffffff16634bb5ec326107b487610e78565b6040518263ffffffff1660e01b81526004016107d091906115be565b6040805180830381865afa1580156107ec573d6000803e3d6000fd5b505050506040513d601f19601f820116820180604052508101906108109190611b0d565b60006002811061082357610822611b3a565b5b60200201518460801b60405160200161083d929190611b8a565b6040516020818303038152906040526108559061181e565b90508173ffffffffffffffffffffffffffffffffffffffff166354f6127f826040518263ffffffff1660e01b815260040161089091906115be565b600060405180830381865afa1580156108ad573d6000803e3d6000fd5b505050506040513d6000823e3d601f19601f820116820180604052508101906108d69190611c5c565b6108df90611cba565b60601c925050509392505050565b600160149054906101000a900460ff1661093c576040517f08c379a00000000000000000000000000000000000000000000000000000000081526004016109339061169d565b60405180910390fd5b60008390508073ffffffffffffffffffffffffffffffffffffffff16637f23690c61096685610e78565b8460001b60405160200161097a91906118a6565b6040516020818303038152906040526040518363ffffffff1660e01b81526004016109a692919061194f565b600060405180830381600087803b1580156109c057600080fd5b505af11580156109d4573d6000803e3d6000fd5b5050505050505050565b600160149054906101000a900460ff16610a2d576040517f08c379a0000000000000000000000000000000000000000000000000000000008152600401610a249061169d565b60405180910390fd5b60008390506000600260009054906101000a900473ffffffffffffffffffffffffffffffffffffffff1673ffffffffffffffffffffffffffffffffffffffff16634bb5ec326003546040518263ffffffff1660e01b8152600401610a9191906115be565b6040805180830381865afa158015610aad573d6000803e3d6000fd5b505050506040513d601f19601f82011682018060405250810190610ad19190611b0d565b600060028110610ae457610ae3611b3a565b5b60200201518360801b604051602001610afe929190611b8a565b604051602081830303815290604052610b169061181e565b90508173ffffffffffffffffffffffffffffffffffffffff16637f23690c828660601b604051602001610b499190611d21565b6040516020818303038152906040526040518363ffffffff1660e01b8152600401610b7592919061194f565b600060405180830381600087803b158015610b8f57600080fd5b505af1158015610ba3573d6000803e3d6000fd5b505050505050505050565b6000808390508073ffffffffffffffffffffffffffffffffffffffff166354f6127f610bd985610e78565b6040518263ffffffff1660e01b8152600401610bf591906115be565b600060405180830381865afa158015610c12573d6000803e3d6000fd5b505050506040513d6000823e3d601f19601f82011682018060405250810190610c3b9190611c5c565b610c449061181e565b60001c91505092915050565b60008083905060007ff6c2e977714cb0cf78c4ae117569d9685ce0dd08df05cc6806d8250129f48731600060f01b8560601b604051602001610c94939291906117a4565b604051602081830303815290604052610cac9061181e565b905060008273ffffffffffffffffffffffffffffffffffffffff166354f6127f836040518263ffffffff1660e01b8152600401610ce991906115be565b600060405180830381865afa158015610d06573d6000803e3d6000fd5b505050506040513d6000823e3d601f19601f82011682018060405250810190610d2f9190611c5c565b610d389061181e565b60001c905060018103610d515760019350505050610d69565b60008103610d655760009350505050610d69565b5050505b92915050565b600160149054906101000a900460ff1615610dbf576040517f08c379a0000000000000000000000000000000000000000000000000000000008152600401610db690611d88565b60405180910390fd5b600160149054906101000a900460ff1615610e0f576040517f08c379a0000000000000000000000000000000000000000000000000000000008152600401610e0690611e1a565b60405180910390fd5b81600260006101000a81548173ffffffffffffffffffffffffffffffffffffffff021916908373ffffffffffffffffffffffffffffffffffffffff160217905550610e5a82826110ac565b60018060146101000a81548160ff0219169083151502179055505050565b60007f40caeb577645b0a6a0971f65980797dc0e4ab346be8af29e76af68e6c83ee900600060f01b8360601b604051602001610eb6939291906117a4565b604051602081830303815290604052610ece9061181e565b9050919050565b600160149054906101000a900460ff16610f24576040517f08c379a0000000000000000000000000000000000000000000000000000000008152600401610f1b9061169d565b60405180910390fd5b60008490506000600260009054906101000a900473ffffffffffffffffffffffffffffffffffffffff1673ffffffffffffffffffffffffffffffffffffffff16634bb5ec32610f7287610e78565b6040518263ffffffff1660e01b8152600401610f8e91906115be565b6040805180830381865afa158015610faa573d6000803e3d6000fd5b505050506040513d601f19601f82011682018060405250810190610fce9190611b0d565b600060028110610fe157610fe0611b3a565b5b60200201518360801b604051602001610ffb929190611b8a565b6040516020818303038152906040526110139061181e565b90508173ffffffffffffffffffffffffffffffffffffffff16637f23690c828660601b6040516020016110469190611d21565b6040516020818303038152906040526040518363ffffffff1660e01b815260040161107292919061194f565b600060405180830381600087803b15801561108c57600080fd5b505af11580156110a0573d6000803e3d6000fd5b50505050505050505050565b600160149054906101000a900460ff16156110fc576040517f08c379a00000000000000000000000000000000000000000000000000000000081526004016110f390611e1a565b60405180910390fd5b816000806101000a81548173ffffffffffffffffffffffffffffffffffffffff021916908373ffffffffffffffffffffffffffffffffffffffff16021790555080600160006101000a81548173ffffffffffffffffffffffffffffffffffffffff021916908373ffffffffffffffffffffffffffffffffffffffff16021790555060018060146101000a81548160ff0219169083151502179055505050565b6000604051905090565b600080fd5b600080fd5b600073ffffffffffffffffffffffffffffffffffffffff82169050919050565b60006111da826111af565b9050919050565b6111ea816111cf565b81146111f557600080fd5b50565b600081359050611207816111e1565b92915050565b60008115159050919050565b6112228161120d565b811461122d57600080fd5b50565b60008135905061123f81611219565b92915050565b60008060006060848603121561125e5761125d6111a5565b5b600061126c868287016111f8565b935050602061127d868287016111f8565b925050604061128e86828701611230565b9150509250925092565b60006fffffffffffffffffffffffffffffffff82169050919050565b6112bd81611298565b81146112c857600080fd5b50565b6000813590506112da816112b4565b92915050565b600080604083850312156112f7576112f66111a5565b5b6000611305858286016111f8565b9250506020611316858286016112cb565b9150509250929050565b611329816111cf565b82525050565b60006020820190506113446000830184611320565b92915050565b6000819050919050565b61135d8161134a565b811461136857600080fd5b50565b60008135905061137a81611354565b92915050565b60008060408385031215611397576113966111a5565b5b60006113a5858286016111f8565b92505060206113b68582860161136b565b9150509250929050565b6000602082840312156113d6576113d56111a5565b5b60006113e4848285016111f8565b91505092915050565b6113f68161134a565b82525050565b600060208201905061141160008301846113ed565b92915050565b6000806000606084860312156114305761142f6111a5565b5b600061143e868287016111f8565b935050602061144f868287016111f8565b9250506040611460868287016112cb565b9150509250925092565b600080600060608486031215611483576114826111a5565b5b6000611491868287016111f8565b93505060206114a2868287016111f8565b92505060406114b38682870161136b565b9150509250925092565b600080604083850312156114d4576114d36111a5565b5b60006114e2858286016111f8565b92505060206114f3858286016111f8565b9150509250929050565b6115068161120d565b82525050565b600060208201905061152160008301846114fd565b92915050565b6000611532826111cf565b9050919050565b61154281611527565b811461154d57600080fd5b50565b60008135905061155f81611539565b92915050565b6000806040838503121561157c5761157b6111a5565b5b600061158a85828601611550565b925050602061159b858286016111f8565b9150509250929050565b6000819050919050565b6115b8816115a5565b82525050565b60006020820190506115d360008301846115af565b92915050565b600080600080608085870312156115f3576115f26111a5565b5b6000611601878288016111f8565b9450506020611612878288016111f8565b9350506040611623878288016111f8565b9250506060611634878288016112cb565b91505092959194509250565b600082825260208201905092915050565b7f436f6e74726163747320617265206e6f7420696e697469616c697a65642e0000600082015250565b6000611687601e83611640565b915061169282611651565b602082019050919050565b600060208201905081810360008301526116b68161167a565b9050919050565b60007fffffffffffffffffffff0000000000000000000000000000000000000000000082169050919050565b6000819050919050565b6117046116ff826116bd565b6116e9565b82525050565b60007fffff00000000000000000000000000000000000000000000000000000000000082169050919050565b6000819050919050565b61175161174c8261170a565b611736565b82525050565b60007fffffffffffffffffffffffffffffffffffffffff00000000000000000000000082169050919050565b6000819050919050565b61179e61179982611757565b611783565b82525050565b60006117b082866116f3565b600a820191506117c08285611740565b6002820191506117d0828461178d565b601482019150819050949350505050565b600081519050919050565b6000819050602082019050919050565b600061180882516115a5565b80915050919050565b600082821b905092915050565b6000611829826117e1565b82611833846117ec565b905061183e816117fc565b9250602082101561187e576118797fffffffffffffffffffffffffffffffffffffffffffffffffffffffffffffffff83602003600802611811565b831692505b5050919050565b6000819050919050565b6118a061189b826115a5565b611885565b82525050565b60006118b2828461188f565b60208201915081905092915050565b600082825260208201905092915050565b60005b838110156118f05780820151818401526020810190506118d5565b838111156118ff576000848401525b50505050565b6000601f19601f8301169050919050565b6000611921826117e1565b61192b81856118c1565b935061193b8185602086016118d2565b61194481611905565b840191505092915050565b600060408201905061196460008301856115af565b81810360208301526119768184611916565b90509392505050565b600080fd5b7f4e487b7100000000000000000000000000000000000000000000000000000000600052604160045260246000fd5b6119bc82611905565b810181811067ffffffffffffffff821117156119db576119da611984565b5b80604052505050565b60006119ee61119b565b90506119fa82826119b3565b919050565b600067ffffffffffffffff821115611a1a57611a19611984565b5b602082029050919050565b600080fd5b60007fffffffffffffffffffffffffffffffff0000000000000000000000000000000082169050919050565b611a5f81611a2a565b8114611a6a57600080fd5b50565b600081519050611a7c81611a56565b92915050565b6000611a95611a90846119ff565b6119e4565b90508060208402830185811115611aaf57611aae611a25565b5b835b81811015611ad85780611ac48882611a6d565b845260208401935050602081019050611ab1565b5050509392505050565b600082601f830112611af757611af661197f565b5b6002611b04848285611a82565b91505092915050565b600060408284031215611b2357611b226111a5565b5b6000611b3184828501611ae2565b91505092915050565b7f4e487b7100000000000000000000000000000000000000000000000000000000600052603260045260246000fd5b6000819050919050565b611b84611b7f82611a2a565b611b69565b82525050565b6000611b968285611b73565b601082019150611ba68284611b73565b6010820191508190509392505050565b600080fd5b600067ffffffffffffffff821115611bd657611bd5611984565b5b611bdf82611905565b9050602081019050919050565b6000611bff611bfa84611bbb565b6119e4565b905082815260208101848484011115611c1b57611c1a611bb6565b5b611c268482856118d2565b509392505050565b600082601f830112611c4357611c4261197f565b5b8151611c53848260208601611bec565b91505092915050565b600060208284031215611c7257611c716111a5565b5b600082015167ffffffffffffffff811115611c9057611c8f6111aa565b5b611c9c84828501611c2e565b91505092915050565b6000611cb18251611757565b80915050919050565b6000611cc5826117e1565b82611ccf846117ec565b9050611cda81611ca5565b92506014821015611d1a57611d157fffffffffffffffffffffffffffffffffffffffff00000000000000000000000083601403600802611811565b831692505b5050919050565b6000611d2d828461178d565b60148201915081905092915050565b7f436f6e7472616374732061726520696e697469616c697a65642e000000000000600082015250565b6000611d72601a83611640565b9150611d7d82611d3c565b602082019050919050565b60006020820190508181036000830152611da181611d65565b9050919050565b7f54686520636f6e747261637420697320616c726561647920696e697469616c6960008201527f7a65642e00000000000000000000000000000000000000000000000000000000602082015250565b6000611e04602483611640565b9150611e0f82611da8565b604082019050919050565b60006020820190508181036000830152611e3381611df7565b905091905056fea2646970667358221220ff29584166d08ecc2110b00c1b4b46cb3eebc03266c9f6c03445da2cd8dde94064736f6c634300080f0033",
  "immutableReferences": {},
  "source": "// SPDX-License-Identifier: CC0-1.0\n\npragma solidity ^0.8.0;\n\nimport \"@erc725/smart-contracts/contracts/interfaces/IERC725Y.sol\";\nimport \"./Utils/AccessControl.sol\";\nimport \"./Utils/DaoUtils.sol\";\n\n/**\n * @author B00ste\n * @title DaoParticipation\n * @custom:version 0.92\n */\ncontract DaoParticipation is AccessControl {\n\n  // --- ATTRIBUTES\n\n  /**\n   * @notice Instance for the utils of a Universal Profile DAO.\n   */\n  DaoUtils private utils;\n\n  /**\n   * @notice Initializing the contract.\n   */\n  function init(DaoUtils _utils, address daoAddress) external isNotInitialized() {\n    require(!initialized, \"The contract is already initialized.\");\n    utils = _utils;\n    initAccessControl(_utils, daoAddress);\n    initialized = true;\n  }\n\n  /**\n   * @notice The key for the array of DAOs that a Universal Profile is a participant of.\n   */\n  bytes32 private arrayOfDaosKey = bytes32(keccak256(\"ArrayOfDaos[]\"));\n\n  // --- GETTERS & SETTERS\n\n  /**\n   * @notice Get the length of the array of daos that the Universal Profile is a participant of.\n   */\n  function _getArrayOfDaosLength(address universalProfileAddress) public view returns(uint256 length) {\n    IERC725Y UP = IERC725Y(universalProfileAddress);\n    length = uint256(bytes32(UP.getData(arrayOfDaosKey)));\n  }\n\n  /**\n   * @notice Set the length of the array of daos that the Universal Profile is a participant of.\n   */\n  function _setArrayOfDaosLength(address universalProfileAddress, uint256 length) external isInitialized() {\n    IERC725Y UP = IERC725Y(universalProfileAddress);\n    UP.setData(arrayOfDaosKey, bytes.concat(bytes32(length)));\n  }\n\n  /**\n   * @notice Get DAO from array by index.\n   */\n  function _getDaoFromArrayByIndex(address universalProfileAddress, uint128 index) public view returns(address daoAddress) {\n    IERC725Y UP = IERC725Y(universalProfileAddress);\n    bytes32 key = bytes32(bytes.concat(\n      utils._bytes32ToTwoHalfs(arrayOfDaosKey)[0],\n      bytes16(index)\n    ));\n    daoAddress = address(bytes20(UP.getData(key)));\n  }\n\n  /**\n   * @notice Set DAO to array by index.\n   */\n  function _setDaoToArrayByIndex(address universalProfileAddress, address daoAddress, uint128 index) external isInitialized() {\n    IERC725Y UP = IERC725Y(universalProfileAddress);\n    bytes32 key = bytes32(bytes.concat(\n      utils._bytes32ToTwoHalfs(arrayOfDaosKey)[0],\n      bytes16(index)\n    ));\n    UP.setData(key, bytes.concat(bytes20(daoAddress)));\n  }\n\n  /**\n   * @notice Get the key for the array of controllers of a Universal Profile for a DAO.\n   */\n  function _getContollersArrayKey(address daoAddress) public pure returns(bytes32 controllersArrayKey) {\n    controllersArrayKey = bytes32(bytes.concat(\n      bytes10(keccak256(\"UPControllersForDaoArray[]\")),\n      bytes2(0),\n      bytes20(daoAddress)\n    ));\n  }\n\n  /**\n   * @notice Get the length of the array of controllers of the a Universal Profile for a DAO.\n   */\n  function _getControllersArrayLength(address universalProfileAddress, address daoAddress) public view returns(uint256 length) {\n    IERC725Y UP = IERC725Y(universalProfileAddress);\n    length = uint256(bytes32(UP.getData(_getContollersArrayKey(daoAddress))));\n  }\n\n  /**\n   * @notice Set the length of the array of controllers of the a Universal Profile for a DAO.\n   */\n  function _setControllersArrayLength(address universalProfileAddress, address daoAddress, uint256 length) external isInitialized() {\n    IERC725Y UP = IERC725Y(universalProfileAddress);\n    UP.setData(_getContollersArrayKey(daoAddress), bytes.concat(bytes32(length)));\n  }\n\n  /**\n   * @notice Get controller of the Universal Profile for the DAO.\n   */\n  function _getControllerByIndex(address universalProfileAddress, address daoAddress, uint128 index) public view returns(address controllerAddress) {\n    IERC725Y UP = IERC725Y(universalProfileAddress);\n    bytes32 key = bytes32(bytes.concat(\n      utils._bytes32ToTwoHalfs(_getContollersArrayKey(daoAddress))[0],\n      bytes16(index)\n    ));\n    controllerAddress = address(bytes20(UP.getData(key)));\n  }\n\n  /**\n   * @notice Set controller of the Universal Profile for the DAO.\n   */\n  function _setControllerByIndex(address universalProfileAddress, address daoAddress, address controllerAddress, uint128 index) external isInitialized() {\n    IERC725Y UP = IERC725Y(universalProfileAddress);\n    bytes32 key = bytes32(bytes.concat(\n      utils._bytes32ToTwoHalfs(_getContollersArrayKey(daoAddress))[0],\n      bytes16(index)\n    ));\n    UP.setData(key, bytes.concat(bytes20(controllerAddress)));\n  }\n\n  /**\n   * @notice Get the status as participant of the DAO.\n   */\n  function _getParticipantOfDao(address universalProfileAddress, address daoAddress) public view returns(bool response) {\n    IERC725Y UP = IERC725Y(universalProfileAddress);\n    bytes32 participantOfDaoKey = bytes32(bytes.concat(\n      bytes10(keccak256(\"ParticipantOfDao\")),\n      bytes2(0),\n      bytes20(daoAddress)\n    ));\n    uint256 participantOfDaoResult = uint256(bytes32(UP.getData(participantOfDaoKey)));\n    if(participantOfDaoResult == 1) {\n      return true;\n    }\n    else if(participantOfDaoResult == 0) {\n      return false;\n    }\n  }\n\n  /**\n   * @notice Toggle the status as participant of the DAO.\n   */\n  function _toggleParticipantOfDao(address universalProfileAddress, address daoAddress, bool isParticipant) external isInitialized() {\n    IERC725Y UP = IERC725Y(universalProfileAddress);\n    bytes32 participantOfDaoKey = bytes32(bytes.concat(\n      bytes10(keccak256(\"ParticipantOfDao\")),\n      bytes2(0),\n      bytes20(daoAddress)\n    ));\n    if(isParticipant) {\n      UP.setData(participantOfDaoKey, bytes.concat(bytes32(0)));\n    }\n    else {\n      UP.setData(participantOfDaoKey, bytes.concat(bytes32(uint256(1))));\n    }\n  }\n\n}",
  "sourcePath": "/home/b00ste/Projects/universal-profile-governance/contracts/UPDao/DaoParticipation.sol",
  "compiler": {
    "name": "solc",
    "version": "0.8.15+commit.e14f2714.Emscripten.clang"
  },
  "schemaVersion": "3.4.8",
  "updatedAt": "2022-07-21T22:53:20.043Z",
  "networkType": "ethereum",
  "devdoc": {
    "author": "B00ste",
    "custom:version": "0.92",
    "kind": "dev",
    "methods": {},
    "title": "DaoParticipation",
    "version": 1
  },
  "userdoc": {
    "kind": "user",
    "methods": {
      "_getArrayOfDaosLength(address)": {
        "notice": "Get the length of the array of daos that the Universal Profile is a participant of."
      },
      "_getContollersArrayKey(address)": {
        "notice": "Get the key for the array of controllers of a Universal Profile for a DAO."
      },
      "_getControllerByIndex(address,address,uint128)": {
        "notice": "Get controller of the Universal Profile for the DAO."
      },
      "_getControllersArrayLength(address,address)": {
        "notice": "Get the length of the array of controllers of the a Universal Profile for a DAO."
      },
      "_getDaoFromArrayByIndex(address,uint128)": {
        "notice": "Get DAO from array by index."
      },
      "_getParticipantOfDao(address,address)": {
        "notice": "Get the status as participant of the DAO."
      },
      "_setArrayOfDaosLength(address,uint256)": {
        "notice": "Set the length of the array of daos that the Universal Profile is a participant of."
      },
      "_setControllerByIndex(address,address,address,uint128)": {
        "notice": "Set controller of the Universal Profile for the DAO."
      },
      "_setControllersArrayLength(address,address,uint256)": {
        "notice": "Set the length of the array of controllers of the a Universal Profile for a DAO."
      },
      "_setDaoToArrayByIndex(address,address,uint128)": {
        "notice": "Set DAO to array by index."
      },
      "_toggleParticipantOfDao(address,address,bool)": {
        "notice": "Toggle the status as participant of the DAO."
      },
      "init(address,address)": {
        "notice": "Initializing the contract."
      }
    },
    "version": 1
  }
}