{
  "contractName": "DaoPermissions",
  "abi": [
    {
      "inputs": [
        {
          "internalType": "contract LSP0ERC725Account",
          "name": "_DAO",
          "type": "address"
        },
        {
          "internalType": "contract DaoUtils",
          "name": "_utils",
          "type": "address"
        },
        {
          "internalType": "address",
          "name": "daoAddress",
          "type": "address"
        }
      ],
      "name": "init",
      "outputs": [],
      "stateMutability": "nonpayable",
      "type": "function"
    },
    {
      "inputs": [
        {
          "internalType": "uint8",
          "name": "index",
          "type": "uint8"
        }
      ],
      "name": "_getPermissionsByIndex",
      "outputs": [
        {
          "internalType": "bytes32",
          "name": "permission",
          "type": "bytes32"
        }
      ],
      "stateMutability": "view",
      "type": "function"
    },
    {
      "inputs": [],
      "name": "_getDaoAddressesArrayLength",
      "outputs": [
        {
          "internalType": "uint256",
          "name": "length",
          "type": "uint256"
        }
      ],
      "stateMutability": "view",
      "type": "function"
    },
    {
      "inputs": [
        {
          "internalType": "uint256",
          "name": "length",
          "type": "uint256"
        }
      ],
      "name": "_setDaoAddressesArrayLength",
      "outputs": [],
      "stateMutability": "nonpayable",
      "type": "function"
    },
    {
      "inputs": [
        {
          "internalType": "uint256",
          "name": "index",
          "type": "uint256"
        }
      ],
      "name": "_getDaoAddressByIndex",
      "outputs": [
        {
          "internalType": "bytes",
          "name": "daoAddress",
          "type": "bytes"
        }
      ],
      "stateMutability": "view",
      "type": "function"
    },
    {
      "inputs": [
        {
          "internalType": "uint256",
          "name": "index",
          "type": "uint256"
        },
        {
          "internalType": "address",
          "name": "_daoAddress",
          "type": "address"
        }
      ],
      "name": "_setDaoAddressByIndex",
      "outputs": [],
      "stateMutability": "nonpayable",
      "type": "function"
    },
    {
      "inputs": [
        {
          "internalType": "address",
          "name": "daoAddress",
          "type": "address"
        }
      ],
      "name": "_getAddressDaoPermission",
      "outputs": [
        {
          "internalType": "bytes",
          "name": "addressPermssions",
          "type": "bytes"
        }
      ],
      "stateMutability": "view",
      "type": "function"
    },
    {
      "inputs": [
        {
          "internalType": "address",
          "name": "daoAddress",
          "type": "address"
        },
        {
          "internalType": "uint8",
          "name": "index",
          "type": "uint8"
        },
        {
          "internalType": "bool",
          "name": "permissionAdded",
          "type": "bool"
        }
      ],
      "name": "_setAddressDaoPermission",
      "outputs": [],
      "stateMutability": "nonpayable",
      "type": "function"
    },
    {
      "inputs": [
        {
          "internalType": "address",
          "name": "universalProfileAddress",
          "type": "address"
        }
      ],
      "name": "checkUser",
      "outputs": [
        {
          "internalType": "bool",
          "name": "",
          "type": "bool"
        }
      ],
      "stateMutability": "view",
      "type": "function"
    }
  ],
  "bytecode": "0x60806040526000600160146101000a81548160ff0219169083151502179055506040518060a00160405280600160001b8152602001600260001b8152602001600460001b8152602001600860001b8152602001601060001b81525060049060056200006c929190620000a5565b507f72ba3778f5d93e8643176651d8174361d2ba28345f5eaa8b6a10f65dbfcf7c916009553480156200009e57600080fd5b5062000109565b8260058101928215620000d7579160200282015b82811115620000d6578251825591602001919060010190620000b9565b5b509050620000e69190620000ea565b5090565b5b8082111562000105576000816000905550600101620000eb565b5090565b611e1080620001196000396000f3fe608060405234801561001057600080fd5b50600436106100935760003560e01c8063348289c611610066578063348289c6146101305780636405184e1461014c57806377a14c351461016a5780637b30086614610186578063d6d09cfb146101b657610093565b8063184b9559146100985780631da0d49f146100b45780631e9d48cf146100e457806321298b4214610114575b600080fd5b6100b260048036038101906100ad9190611157565b6101e6565b005b6100ce60048036038101906100c991906111aa565b610331565b6040516100db9190611270565b60405180910390f35b6100fe60048036038101906100f991906111aa565b610456565b60405161010b91906112ad565b60405180910390f35b61012e6004803603810190610129919061132d565b6104e6565b005b61014a600480360381019061014591906113b6565b6108d3565b005b610154610a70565b60405161016191906113f2565b60405180910390f35b610184600480360381019061017f919061140d565b610b26565b005b6101a0600480360381019061019b91906113b6565b610daf565b6040516101ad9190611270565b60405180910390f35b6101d060048036038101906101cb919061144d565b610f46565b6040516101dd9190611493565b60405180910390f35b600160149054906101000a900460ff1615610236576040517f08c379a000000000000000000000000000000000000000000000000000000000815260040161022d9061150b565b60405180910390fd5b600160149054906101000a900460ff1615610286576040517f08c379a000000000000000000000000000000000000000000000000000000000815260040161027d9061159d565b60405180910390fd5b82600260006101000a81548173ffffffffffffffffffffffffffffffffffffffff021916908373ffffffffffffffffffffffffffffffffffffffff16021790555081600360006101000a81548173ffffffffffffffffffffffffffffffffffffffff021916908373ffffffffffffffffffffffffffffffffffffffff1602179055506103128282610f68565b60018060146101000a81548160ff021916908315150217905550505050565b606060007f6f1212b29e0d5f509b2e732e5f6a14acceb10e7f27ee7136e73989d3b14d592c7fd553aa042a90e2c5d42813162a48e47473d9969955759122f7bf8ec00217f413600060f01b8560601b60405160200161039394939291906116f1565b6040516020818303038152906040526103ab90611771565b9050600260009054906101000a900473ffffffffffffffffffffffffffffffffffffffff1673ffffffffffffffffffffffffffffffffffffffff166354f6127f826040518263ffffffff1660e01b81526004016104089190611493565b600060405180830381865afa158015610425573d6000803e3d6000fd5b505050506040513d6000823e3d601f19601f8201168201806040525081019061044e91906118fe565b915050919050565b600080610461610a70565b905060005b818110156104da57600061047982610daf565b90508473ffffffffffffffffffffffffffffffffffffffff168161049c9061195c565b60601c73ffffffffffffffffffffffffffffffffffffffff16036104c657600193505050506104e1565b5080806104d2906119f2565b915050610466565b5060009150505b919050565b33600160009054906101000a900473ffffffffffffffffffffffffffffffffffffffff1673ffffffffffffffffffffffffffffffffffffffff168173ffffffffffffffffffffffffffffffffffffffff1614610577576040517f08c379a000000000000000000000000000000000000000000000000000000000815260040161056e90611a86565b60405180910390fd5b600160149054906101000a900460ff166105c6576040517f08c379a00000000000000000000000000000000000000000000000000000000081526004016105bd90611af2565b60405180910390fd5b60007f6f1212b29e0d5f509b2e732e5f6a14acceb10e7f27ee7136e73989d3b14d592c7fd553aa042a90e2c5d42813162a48e47473d9969955759122f7bf8ec00217f413600060f01b8760601b60405160200161062694939291906116f1565b60405160208183030381529060405261063e90611771565b9050606083156107445760048560ff166005811061065f5761065e611b12565b5b015460001c600260009054906101000a900473ffffffffffffffffffffffffffffffffffffffff1673ffffffffffffffffffffffffffffffffffffffff166354f6127f846040518263ffffffff1660e01b81526004016106bf9190611493565b600060405180830381865afa1580156106dc573d6000803e3d6000fd5b505050506040513d6000823e3d601f19601f8201168201806040525081019061070591906118fe565b61070e90611771565b60001c61071b9190611b41565b60001b60405160200161072e9190611bb8565b604051602081830303815290604052905061083c565b60048560ff166005811061075b5761075a611b12565b5b015460001c600260009054906101000a900473ffffffffffffffffffffffffffffffffffffffff1673ffffffffffffffffffffffffffffffffffffffff166354f6127f846040518263ffffffff1660e01b81526004016107bb9190611493565b600060405180830381865afa1580156107d8573d6000803e3d6000fd5b505050506040513d6000823e3d601f19601f8201168201806040525081019061080191906118fe565b61080a90611771565b60001c6108179190611bd3565b60001b60405160200161082a9190611bb8565b60405160208183030381529060405290505b600260009054906101000a900473ffffffffffffffffffffffffffffffffffffffff1673ffffffffffffffffffffffffffffffffffffffff16637f23690c83836040518363ffffffff1660e01b8152600401610899929190611c07565b600060405180830381600087803b1580156108b357600080fd5b505af11580156108c7573d6000803e3d6000fd5b50505050505050505050565b33600160009054906101000a900473ffffffffffffffffffffffffffffffffffffffff1673ffffffffffffffffffffffffffffffffffffffff168173ffffffffffffffffffffffffffffffffffffffff1614610964576040517f08c379a000000000000000000000000000000000000000000000000000000000815260040161095b90611a86565b60405180910390fd5b600160149054906101000a900460ff166109b3576040517f08c379a00000000000000000000000000000000000000000000000000000000081526004016109aa90611af2565b60405180910390fd5b60008260001b6040516020016109c99190611bb8565b6040516020818303038152906040529050600260009054906101000a900473ffffffffffffffffffffffffffffffffffffffff1673ffffffffffffffffffffffffffffffffffffffff16637f23690c600954836040518363ffffffff1660e01b8152600401610a39929190611c07565b600060405180830381600087803b158015610a5357600080fd5b505af1158015610a67573d6000803e3d6000fd5b50505050505050565b6000600260009054906101000a900473ffffffffffffffffffffffffffffffffffffffff1673ffffffffffffffffffffffffffffffffffffffff166354f6127f6009546040518263ffffffff1660e01b8152600401610acf9190611493565b600060405180830381865afa158015610aec573d6000803e3d6000fd5b505050506040513d6000823e3d601f19601f82011682018060405250810190610b1591906118fe565b610b1e90611771565b60001c905090565b33600160009054906101000a900473ffffffffffffffffffffffffffffffffffffffff1673ffffffffffffffffffffffffffffffffffffffff168173ffffffffffffffffffffffffffffffffffffffff1614610bb7576040517f08c379a0000000000000000000000000000000000000000000000000000000008152600401610bae90611a86565b60405180910390fd5b600160149054906101000a900460ff16610c06576040517f08c379a0000000000000000000000000000000000000000000000000000000008152600401610bfd90611af2565b60405180910390fd5b6000600360009054906101000a900473ffffffffffffffffffffffffffffffffffffffff1673ffffffffffffffffffffffffffffffffffffffff16634bb5ec326009546040518263ffffffff1660e01b8152600401610c659190611493565b6040805180830381865afa158015610c81573d6000803e3d6000fd5b505050506040513d601f19601f82011682018060405250810190610ca59190611d45565b9050600081600060028110610cbd57610cbc611b12565b5b60200201518560801b604051602001610cd7929190611d93565b604051602081830303815290604052610cef90611771565b905060008460601b604051602001610d079190611dbf565b6040516020818303038152906040529050600260009054906101000a900473ffffffffffffffffffffffffffffffffffffffff1673ffffffffffffffffffffffffffffffffffffffff16637f23690c83836040518363ffffffff1660e01b8152600401610d75929190611c07565b600060405180830381600087803b158015610d8f57600080fd5b505af1158015610da3573d6000803e3d6000fd5b50505050505050505050565b60606000600360009054906101000a900473ffffffffffffffffffffffffffffffffffffffff1673ffffffffffffffffffffffffffffffffffffffff16634bb5ec326009546040518263ffffffff1660e01b8152600401610e109190611493565b6040805180830381865afa158015610e2c573d6000803e3d6000fd5b505050506040513d601f19601f82011682018060405250810190610e509190611d45565b9050600081600060028110610e6857610e67611b12565b5b60200201518460801b604051602001610e82929190611d93565b604051602081830303815290604052610e9a90611771565b9050600260009054906101000a900473ffffffffffffffffffffffffffffffffffffffff1673ffffffffffffffffffffffffffffffffffffffff166354f6127f826040518263ffffffff1660e01b8152600401610ef79190611493565b600060405180830381865afa158015610f14573d6000803e3d6000fd5b505050506040513d6000823e3d601f19601f82011682018060405250810190610f3d91906118fe565b92505050919050565b600060048260ff1660058110610f5f57610f5e611b12565b5b01549050919050565b600160149054906101000a900460ff1615610fb8576040517f08c379a0000000000000000000000000000000000000000000000000000000008152600401610faf9061159d565b60405180910390fd5b816000806101000a81548173ffffffffffffffffffffffffffffffffffffffff021916908373ffffffffffffffffffffffffffffffffffffffff16021790555080600160006101000a81548173ffffffffffffffffffffffffffffffffffffffff021916908373ffffffffffffffffffffffffffffffffffffffff16021790555060018060146101000a81548160ff0219169083151502179055505050565b6000604051905090565b600080fd5b600080fd5b600073ffffffffffffffffffffffffffffffffffffffff82169050919050565b60006110968261106b565b9050919050565b60006110a88261108b565b9050919050565b6110b88161109d565b81146110c357600080fd5b50565b6000813590506110d5816110af565b92915050565b60006110e68261106b565b9050919050565b60006110f8826110db565b9050919050565b611108816110ed565b811461111357600080fd5b50565b600081359050611125816110ff565b92915050565b611134816110db565b811461113f57600080fd5b50565b6000813590506111518161112b565b92915050565b6000806000606084860312156111705761116f611061565b5b600061117e868287016110c6565b935050602061118f86828701611116565b92505060406111a086828701611142565b9150509250925092565b6000602082840312156111c0576111bf611061565b5b60006111ce84828501611142565b91505092915050565b600081519050919050565b600082825260208201905092915050565b60005b838110156112115780820151818401526020810190506111f6565b83811115611220576000848401525b50505050565b6000601f19601f8301169050919050565b6000611242826111d7565b61124c81856111e2565b935061125c8185602086016111f3565b61126581611226565b840191505092915050565b6000602082019050818103600083015261128a8184611237565b905092915050565b60008115159050919050565b6112a781611292565b82525050565b60006020820190506112c2600083018461129e565b92915050565b600060ff82169050919050565b6112de816112c8565b81146112e957600080fd5b50565b6000813590506112fb816112d5565b92915050565b61130a81611292565b811461131557600080fd5b50565b60008135905061132781611301565b92915050565b60008060006060848603121561134657611345611061565b5b600061135486828701611142565b9350506020611365868287016112ec565b925050604061137686828701611318565b9150509250925092565b6000819050919050565b61139381611380565b811461139e57600080fd5b50565b6000813590506113b08161138a565b92915050565b6000602082840312156113cc576113cb611061565b5b60006113da848285016113a1565b91505092915050565b6113ec81611380565b82525050565b600060208201905061140760008301846113e3565b92915050565b6000806040838503121561142457611423611061565b5b6000611432858286016113a1565b925050602061144385828601611142565b9150509250929050565b60006020828403121561146357611462611061565b5b6000611471848285016112ec565b91505092915050565b6000819050919050565b61148d8161147a565b82525050565b60006020820190506114a86000830184611484565b92915050565b600082825260208201905092915050565b7f436f6e7472616374732061726520696e697469616c697a65642e000000000000600082015250565b60006114f5601a836114ae565b9150611500826114bf565b602082019050919050565b60006020820190508181036000830152611524816114e8565b9050919050565b7f54686520636f6e747261637420697320616c726561647920696e697469616c6960008201527f7a65642e00000000000000000000000000000000000000000000000000000000602082015250565b60006115876024836114ae565b91506115928261152b565b604082019050919050565b600060208201905081810360008301526115b68161157a565b9050919050565b60007fffffffffffff000000000000000000000000000000000000000000000000000082169050919050565b6000819050919050565b6116046115ff826115bd565b6115e9565b82525050565b60007fffffffff0000000000000000000000000000000000000000000000000000000082169050919050565b6000819050919050565b61165161164c8261160a565b611636565b82525050565b60007fffff00000000000000000000000000000000000000000000000000000000000082169050919050565b6000819050919050565b61169e61169982611657565b611683565b82525050565b60007fffffffffffffffffffffffffffffffffffffffff00000000000000000000000082169050919050565b6000819050919050565b6116eb6116e6826116a4565b6116d0565b82525050565b60006116fd82876115f3565b60068201915061170d8286611640565b60048201915061171d828561168d565b60028201915061172d82846116da565b60148201915081905095945050505050565b6000819050602082019050919050565b600061175b825161147a565b80915050919050565b600082821b905092915050565b600061177c826111d7565b826117868461173f565b90506117918161174f565b925060208210156117d1576117cc7fffffffffffffffffffffffffffffffffffffffffffffffffffffffffffffffff83602003600802611764565b831692505b5050919050565b600080fd5b600080fd5b7f4e487b7100000000000000000000000000000000000000000000000000000000600052604160045260246000fd5b61181a82611226565b810181811067ffffffffffffffff82111715611839576118386117e2565b5b80604052505050565b600061184c611057565b90506118588282611811565b919050565b600067ffffffffffffffff821115611878576118776117e2565b5b61188182611226565b9050602081019050919050565b60006118a161189c8461185d565b611842565b9050828152602081018484840111156118bd576118bc6117dd565b5b6118c88482856111f3565b509392505050565b600082601f8301126118e5576118e46117d8565b5b81516118f584826020860161188e565b91505092915050565b60006020828403121561191457611913611061565b5b600082015167ffffffffffffffff81111561193257611931611066565b5b61193e848285016118d0565b91505092915050565b600061195382516116a4565b80915050919050565b6000611967826111d7565b826119718461173f565b905061197c81611947565b925060148210156119bc576119b77fffffffffffffffffffffffffffffffffffffffff00000000000000000000000083601403600802611764565b831692505b5050919050565b7f4e487b7100000000000000000000000000000000000000000000000000000000600052601160045260246000fd5b60006119fd82611380565b91507fffffffffffffffffffffffffffffffffffffffffffffffffffffffffffffffff8203611a2f57611a2e6119c3565b5b600182019050919050565b7f43616c6c6572206973206e6f74207468652044414f2e00000000000000000000600082015250565b6000611a706016836114ae565b9150611a7b82611a3a565b602082019050919050565b60006020820190508181036000830152611a9f81611a63565b9050919050565b7f436f6e74726163747320617265206e6f7420696e697469616c697a65642e0000600082015250565b6000611adc601e836114ae565b9150611ae782611aa6565b602082019050919050565b60006020820190508181036000830152611b0b81611acf565b9050919050565b7f4e487b7100000000000000000000000000000000000000000000000000000000600052603260045260246000fd5b6000611b4c82611380565b9150611b5783611380565b9250827fffffffffffffffffffffffffffffffffffffffffffffffffffffffffffffffff03821115611b8c57611b8b6119c3565b5b828201905092915050565b6000819050919050565b611bb2611bad8261147a565b611b97565b82525050565b6000611bc48284611ba1565b60208201915081905092915050565b6000611bde82611380565b9150611be983611380565b925082821015611bfc57611bfb6119c3565b5b828203905092915050565b6000604082019050611c1c6000830185611484565b8181036020830152611c2e8184611237565b90509392505050565b600067ffffffffffffffff821115611c5257611c516117e2565b5b602082029050919050565b600080fd5b60007fffffffffffffffffffffffffffffffff0000000000000000000000000000000082169050919050565b611c9781611c62565b8114611ca257600080fd5b50565b600081519050611cb481611c8e565b92915050565b6000611ccd611cc884611c37565b611842565b90508060208402830185811115611ce757611ce6611c5d565b5b835b81811015611d105780611cfc8882611ca5565b845260208401935050602081019050611ce9565b5050509392505050565b600082601f830112611d2f57611d2e6117d8565b5b6002611d3c848285611cba565b91505092915050565b600060408284031215611d5b57611d5a611061565b5b6000611d6984828501611d1a565b91505092915050565b6000819050919050565b611d8d611d8882611c62565b611d72565b82525050565b6000611d9f8285611d7c565b601082019150611daf8284611d7c565b6010820191508190509392505050565b6000611dcb82846116da565b6014820191508190509291505056fea264697066735822122020e1f4e203106f5e228557a32963503a00b18498294dac39b4ce4b172d80907d64736f6c634300080f0033",
  "immutableReferences": {},
  "source": "// SPDX-License-Identifier: CC0-1.0\n\npragma solidity ^0.8.0;\n\nimport \"./LSP0ERC725Account.sol\";\nimport \"./Utils/AccessControl.sol\";\nimport \"./Utils/DaoUtils.sol\";\n\n/**\n *\n* @notice This smart contract is responsible for setting and getting the permesions of each participant to the DAO.\n* The DAO must have as a base smart contract the LSP0ERC725Account.\n *\n * @author B00ste\n * @title DaoPermissions\n * @custom:version 0.92\n */\ncontract DaoPermissions is AccessControl {\n\n  /**\n   * @notice Instance of the DAO key manager.\n   */\n  LSP0ERC725Account private DAO;\n\n  /**\n   * @notice Instance for the utils of a Universal Profile DAO.\n   */\n  DaoUtils private utils;\n\n  /**\n   * @notice Initializing the contract.\n   */\n  function init(LSP0ERC725Account _DAO, DaoUtils _utils, address daoAddress) external isNotInitialized() {\n    require(!initialized, \"The contract is already initialized.\");\n    DAO = _DAO;\n    utils = _utils;\n    initAccessControl(_utils, daoAddress);\n    initialized = true;\n  }\n\n  // --- ATTRIBUTES\n\n  /**\n   * @notice Permissions.\n   * VOTE              = 0x0000000000000000000000000000000000000000000000000000000000000001; // 0000 0001\n   * PROPOSE           = 0x0000000000000000000000000000000000000000000000000000000000000002; // 0000 0010\n   * SEND_DELEGATE     = 0x0000000000000000000000000000000000000000000000000000000000000004; // 0000 0100\n   * RECIEVE_DELEGATE  = 0x0000000000000000000000000000000000000000000000000000000000000008; // 0000 1000\n   * MASTER            = 0x0000000000000000000000000000000000000000000000000000000000000010; // 0001 0000\n   */\n  bytes32[5] private permissions = [\n    bytes32(0x0000000000000000000000000000000000000000000000000000000000000001),\n    0x0000000000000000000000000000000000000000000000000000000000000002,\n    0x0000000000000000000000000000000000000000000000000000000000000004,\n    0x0000000000000000000000000000000000000000000000000000000000000008,\n    0x0000000000000000000000000000000000000000000000000000000000000010\n  ];\n\n  /**\n   * @notice The key for the length of the array of aaddresses that have permissions in the DAO.\n   */\n  bytes32 private daoAddressesArrayKey = bytes32(keccak256(\"DAOPermissionsAddresses[]\"));\n\n  // --- GETTERS & SETTERS\n\n  /**\n   * @notice Get the the bytes32 permission from the permissions array.\n   */\n  function _getPermissionsByIndex(uint8 index) public view returns(bytes32 permission) {\n    permission = permissions[index];\n  }\n\n  /**\n   * @notice Get the length of the array of the addresses that are participants of the DAO.\n   */\n  function _getDaoAddressesArrayLength() public view returns(uint256 length) {\n    length = uint256(bytes32(DAO.getData(daoAddressesArrayKey)));\n  }\n\n  /**\n   * @notice Set the length of the array of the addresses that are participants of the DAO.\n   *\n   * @param length the length of the array of addresses that are participants to the DAO.\n   */\n  function _setDaoAddressesArrayLength(uint256 length) external isDao(msg.sender) isInitialized() {\n    bytes memory newLength = bytes.concat(bytes32(length));\n    DAO.setData(daoAddressesArrayKey, newLength);\n  }\n\n  /**\n   * @notice Get an address of a DAO perticipant by index.\n   *\n   * @param index The index of the an address.\n   */\n  function _getDaoAddressByIndex(uint256 index) public view returns(bytes memory daoAddress) {\n    bytes16[2] memory daoAddressesArrayKeyHalfs = utils._bytes32ToTwoHalfs(daoAddressesArrayKey);\n    bytes32 daoAddressKey = bytes32(bytes.concat(\n      daoAddressesArrayKeyHalfs[0], bytes16(uint128(index))\n    ));\n    daoAddress = DAO.getData(daoAddressKey);\n  }\n\n  /**\n   * @notice Set an address of a DAO perticipant at an index.\n   *\n   * @param index The index of an address.\n   * @param _daoAddress The address of a DAO participant.\n   */\n  function _setDaoAddressByIndex(uint256 index, address _daoAddress) external isDao(msg.sender) isInitialized() {\n    bytes16[2] memory daoAddressesArrayKeyHalfs = utils._bytes32ToTwoHalfs(daoAddressesArrayKey);\n    bytes32 daoAddressKey = bytes32(bytes.concat(\n      daoAddressesArrayKeyHalfs[0], bytes16(uint128(index))\n    ));\n    bytes memory daoAddress = bytes.concat(bytes20(_daoAddress));\n    DAO.setData(daoAddressKey, daoAddress);\n  }\n\n  /**\n   * @notice Get addresses DAO permmissions BitArray.\n   *\n   * @param daoAddress The address of a DAO participant.\n   */\n  function _getAddressDaoPermission(address daoAddress) public view returns(bytes memory addressPermssions) {\n    bytes32 addressPermssionsKey = bytes32(bytes.concat(\n      bytes6(keccak256(\"DAOPermissionsAddresses\")),\n      bytes4(keccak256(\"DAOPermissions\")),\n      bytes2(0),\n      bytes20(daoAddress)\n    ));\n    addressPermssions = DAO.getData(addressPermssionsKey);\n  }\n\n  /**\n   * @notice Set addresses DAO permmissions BitArray by index.\n   *\n   * @param daoAddress The address of a DAO participant.\n   * @param index The index of the permissions array.\n   * Index 0 is the VOTE permission.\n   * Index 1 is the PROPOSE permission.\n   * Index 2 is the SEND_DELEGATE permission.\n   * Index 3 is the RECIEVE_DELEGATE permission.\n   * Index 4 is the EXECUTE permission.\n   */\n  function _setAddressDaoPermission(address daoAddress, uint8 index, bool permissionAdded) external isDao(msg.sender) isInitialized() {\n    bytes32 addressPermssionsKey = bytes32(bytes.concat(\n      bytes6(keccak256(\"DAOPermissionsAddresses\")),\n      bytes4(keccak256(\"DAOPermissions\")),\n      bytes2(0),\n      bytes20(daoAddress)\n    ));\n    bytes memory addressPermssions;\n    if (permissionAdded) {\n      addressPermssions = bytes.concat(\n        bytes32(uint256(bytes32(DAO.getData(addressPermssionsKey))) + uint256(permissions[index]))\n      );\n    }\n    else {\n      addressPermssions = bytes.concat(\n        bytes32(uint256(bytes32(DAO.getData(addressPermssionsKey))) - uint256(permissions[index]))\n      );\n    }\n    DAO.setData(addressPermssionsKey, addressPermssions);\n  }\n\n  // --- INTERNAL METHODS\n\n  /**\n   * @notice Check if a Universal Profile is a participant of the DAO\n   *\n   * @param universalProfileAddress The address of an Universal Profile.\n   */\n  function checkUser(address universalProfileAddress) external view returns(bool) {\n    uint256 addressesArrayLength = _getDaoAddressesArrayLength();\n    for (uint256 i = 0; i < addressesArrayLength; i++) {\n      bytes memory daoAddress = _getDaoAddressByIndex(i);\n      if (address(bytes20(daoAddress)) == universalProfileAddress) {\n        return true;\n      }\n    }\n    return false;\n  }\n\n}",
  "sourcePath": "/home/b00ste/Projects/universal-profile-governance/contracts/UPDao/DaoPermissions.sol",
  "compiler": {
    "name": "solc",
    "version": "0.8.15+commit.e14f2714.Emscripten.clang"
  },
  "schemaVersion": "3.4.8",
  "updatedAt": "2022-07-22T23:29:04.040Z",
  "devdoc": {
    "author": "B00ste",
    "custom:version": "0.92",
    "kind": "dev",
    "methods": {
      "_getAddressDaoPermission(address)": {
        "params": {
          "daoAddress": "The address of a DAO participant."
        }
      },
      "_getDaoAddressByIndex(uint256)": {
        "params": {
          "index": "The index of the an address."
        }
      },
      "_setAddressDaoPermission(address,uint8,bool)": {
        "params": {
          "daoAddress": "The address of a DAO participant.",
          "index": "The index of the permissions array. Index 0 is the VOTE permission. Index 1 is the PROPOSE permission. Index 2 is the SEND_DELEGATE permission. Index 3 is the RECIEVE_DELEGATE permission. Index 4 is the EXECUTE permission."
        }
      },
      "_setDaoAddressByIndex(uint256,address)": {
        "params": {
          "_daoAddress": "The address of a DAO participant.",
          "index": "The index of an address."
        }
      },
      "_setDaoAddressesArrayLength(uint256)": {
        "params": {
          "length": "the length of the array of addresses that are participants to the DAO."
        }
      },
      "checkUser(address)": {
        "params": {
          "universalProfileAddress": "The address of an Universal Profile."
        }
      }
    },
    "title": "DaoPermissions",
    "version": 1
  },
  "userdoc": {
    "kind": "user",
    "methods": {
      "_getAddressDaoPermission(address)": {
        "notice": "Get addresses DAO permmissions BitArray."
      },
      "_getDaoAddressByIndex(uint256)": {
        "notice": "Get an address of a DAO perticipant by index."
      },
      "_getDaoAddressesArrayLength()": {
        "notice": "Get the length of the array of the addresses that are participants of the DAO."
      },
      "_getPermissionsByIndex(uint8)": {
        "notice": "Get the the bytes32 permission from the permissions array."
      },
      "_setAddressDaoPermission(address,uint8,bool)": {
        "notice": "Set addresses DAO permmissions BitArray by index."
      },
      "_setDaoAddressByIndex(uint256,address)": {
        "notice": "Set an address of a DAO perticipant at an index."
      },
      "_setDaoAddressesArrayLength(uint256)": {
        "notice": "Set the length of the array of the addresses that are participants of the DAO."
      },
      "checkUser(address)": {
        "notice": "Check if a Universal Profile is a participant of the DAO"
      },
      "init(address,address,address)": {
        "notice": "Initializing the contract."
      }
    },
    "notice": "This smart contract is responsible for setting and getting the permesions of each participant to the DAO. The DAO must have as a base smart contract the LSP0ERC725Account.",
    "version": 1
  }
}