{
  "contractName": "DaoUtils",
  "abi": [
    {
      "inputs": [
        {
          "internalType": "bytes32",
          "name": "source",
          "type": "bytes32"
        }
      ],
      "name": "_bytes32ToTwoHalfs",
      "outputs": [
        {
          "internalType": "bytes16[2]",
          "name": "y",
          "type": "bytes16[2]"
        }
      ],
      "stateMutability": "pure",
      "type": "function"
    }
  ],
  "bytecode": "0x608060405234801561001057600080fd5b50610280806100206000396000f3fe608060405234801561001057600080fd5b506004361061002b5760003560e01c80634bb5ec3214610030575b600080fd5b61004a6004803603810190610045919061012b565b610060565b604051610057919061022f565b60405180910390f35b6100686100ce565b6040518060400160405280600060801b6fffffffffffffffffffffffffffffffff19166fffffffffffffffffffffffffffffffff19168152602001600060801b6fffffffffffffffffffffffffffffffff19168152509050818152816010820152919050565b6040518060400160405280600290602082028036833780820191505090505090565b600080fd5b6000819050919050565b610108816100f5565b811461011357600080fd5b50565b600081359050610125816100ff565b92915050565b600060208284031215610141576101406100f0565b5b600061014f84828501610116565b91505092915050565b600060029050919050565b600081905092915050565b6000819050919050565b60007fffffffffffffffffffffffffffffffff0000000000000000000000000000000082169050919050565b6101ad81610178565b82525050565b60006101bf83836101a4565b60208301905092915050565b6000602082019050919050565b6101e181610158565b6101eb8184610163565b92506101f68261016e565b8060005b8381101561022757815161020e87826101b3565b9650610219836101cb565b9250506001810190506101fa565b505050505050565b600060408201905061024460008301846101d8565b9291505056fea264697066735822122020ce904b1aaa13cfb4d7247923a61df99d971fffd63e29279168894772e4330164736f6c634300080f0033",
  "immutableReferences": {},
  "source": "// SPDX-License-Identifier: CC0-1.0\n\npragma solidity ^0.8.0;\n\nimport \"@erc725/smart-contracts/contracts/interfaces/IERC725Y.sol\";\n\n/**\n * @author B00ste\n * @title DaoUtils\n * @custom:version 0.91\n */\ncontract DaoUtils {\n\n  // --- MODIFIERS\n\n  /**\n   * @notice Verify if an address is a controller address.\n   */\n  modifier isControllerAddress(address universalProfileAddress) {\n    IERC725Y UP = IERC725Y(universalProfileAddress);\n    bytes32 controllersArraykey = bytes32(0xdf30dba06db6a30e65354d9a64c609861f089545ca58c6b4dbe31a5f338cb0e3);\n    bytes memory controllersArray = UP.getData(controllersArraykey);\n    bool verifyControllerAddress = false;\n    for (uint128 i = 0; i < uint256(bytes32(controllersArray)); i++) {\n      bytes32 addressKey = bytes32(bytes.concat(\n        _bytes32ToTwoHalfs(controllersArraykey)[0],\n        bytes16(i)\n      ));\n      if (bytes20(msg.sender) == bytes20(UP.getData(addressKey))) {\n        verifyControllerAddress = true;\n      }\n    }\n    require(\n      verifyControllerAddress,\n      \"The message sender is not a controller address.\"\n    );\n    _;\n  }\n\n  // --- GENERAL METHODS\n\n  /**\n   * @notice Split a bytes32 in half into two bytes16 values.\n   */\n  function _bytes32ToTwoHalfs(bytes32 source) public pure returns(bytes16[2] memory y) {\n    y = [bytes16(0), 0];\n    assembly {\n        mstore(y, source)\n        mstore(add(y, 16), source)\n    }\n  }\n\n}",
  "sourcePath": "/home/b00ste/Projects/universal-profile-governance/contracts/UPDao/DaoUtils.sol",
  "compiler": {
    "name": "solc",
    "version": "0.8.15+commit.e14f2714.Emscripten.clang"
  },
  "schemaVersion": "3.4.8",
  "updatedAt": "2022-07-21T08:10:15.476Z",
  "devdoc": {
    "author": "B00ste",
    "custom:version": "0.91",
    "kind": "dev",
    "methods": {},
    "title": "DaoUtils",
    "version": 1
  },
  "userdoc": {
    "kind": "user",
    "methods": {
      "_bytes32ToTwoHalfs(bytes32)": {
        "notice": "Split a bytes32 in half into two bytes16 values."
      }
    },
    "version": 1
  }
}