{
  "contractName": "DaoVotingStrategies",
  "abi": [
    {
      "inputs": [
        {
          "internalType": "contract LSP0ERC725Account",
          "name": "_DAO",
          "type": "address"
        },
        {
          "internalType": "address",
          "name": "daoAddress",
          "type": "address"
        }
      ],
      "name": "init",
      "outputs": [],
      "stateMutability": "nonpayable",
      "type": "function"
    },
    {
      "inputs": [
        {
          "internalType": "bytes10",
          "name": "proposalSignature",
          "type": "bytes10"
        }
      ],
      "name": "_getProposalVotes",
      "outputs": [
        {
          "internalType": "uint256",
          "name": "againstVotes",
          "type": "uint256"
        },
        {
          "internalType": "uint256",
          "name": "proVotes",
          "type": "uint256"
        },
        {
          "internalType": "uint256",
          "name": "abstainVotes",
          "type": "uint256"
        }
      ],
      "stateMutability": "view",
      "type": "function"
    },
    {
      "inputs": [
        {
          "internalType": "bytes10",
          "name": "proposalSignature",
          "type": "bytes10"
        }
      ],
      "name": "_strategyOneResult",
      "outputs": [
        {
          "internalType": "bool",
          "name": "result",
          "type": "bool"
        }
      ],
      "stateMutability": "view",
      "type": "function"
    }
  ],
  "bytecode": "0x60806040526000600260146101000a81548160ff02191690831515021790555034801561002b57600080fd5b50610da38061003b6000396000f3fe608060405234801561001057600080fd5b50600436106100415760003560e01c8063123e469d146100465780633ceb2b5d14610078578063f09a4016146100a8575b600080fd5b610060600480360381019061005b91906106ac565b6100c4565b60405161006f939291906106f2565b60405180910390f35b610092600480360381019061008d91906106ac565b61033f565b60405161009f9190610744565b60405180910390f35b6100c260048036038101906100bd919061080d565b61050f565b005b6000806000600160009054906101000a900473ffffffffffffffffffffffffffffffffffffffff1673ffffffffffffffffffffffffffffffffffffffff1663a56c89b1857f214afa26c5f6a535e82ca315d5ffc739048132e744c73f66d711468ed63faac96040518363ffffffff1660e01b8152600401610146929190610897565b600060405180830381865afa158015610163573d6000803e3d6000fd5b505050506040513d6000823e3d601f19601f8201168201806040525081019061018c9190610a2a565b61019590610aba565b60001c9250600160009054906101000a900473ffffffffffffffffffffffffffffffffffffffff1673ffffffffffffffffffffffffffffffffffffffff1663a56c89b1857feaeb11cb7786797587689f7f6303acfee9b7b7570354137133562456569337596040518363ffffffff1660e01b8152600401610217929190610897565b600060405180830381865afa158015610234573d6000803e3d6000fd5b505050506040513d6000823e3d601f19601f8201168201806040525081019061025d9190610a2a565b61026690610aba565b60001c915060008054906101000a900473ffffffffffffffffffffffffffffffffffffffff1673ffffffffffffffffffffffffffffffffffffffff166354f6127f7f72ba3778f5d93e8643176651d8174361d2ba28345f5eaa8b6a10f65dbfcf7c916040518263ffffffff1660e01b81526004016102e49190610b30565b600060405180830381865afa158015610301573d6000803e3d6000fd5b505050506040513d6000823e3d601f19601f8201168201806040525081019061032a9190610a2a565b61033390610aba565b60001c90509193909250565b60008060008061034e856100c4565b92509250925081836103609190610b7a565b8161036b9190610bd0565b90506000828461037b9190610b7a565b90506000828261038b9190610b7a565b905081600260009054906101000a900473ffffffffffffffffffffffffffffffffffffffff1673ffffffffffffffffffffffffffffffffffffffff1663a218a2056040518163ffffffff1660e01b8152600401602060405180830381865afa1580156103fb573d6000803e3d6000fd5b505050506040513d601f19601f8201168201806040525081019061041f9190610c3d565b60ff1661042c9190610c99565b82856104389190610c99565b1180156104ed575080600260009054906101000a900473ffffffffffffffffffffffffffffffffffffffff1673ffffffffffffffffffffffffffffffffffffffff1663754b15286040518163ffffffff1660e01b8152600401602060405180830381865afa1580156104ae573d6000803e3d6000fd5b505050506040513d601f19601f820116820180604052508101906104d29190610c3d565b60ff166104df9190610c99565b81836104eb9190610c99565b115b156105005760019550505050505061050a565b6000955050505050505b919050565b600260149054906101000a900460ff161561055f576040517f08c379a000000000000000000000000000000000000000000000000000000000815260040161055690610d4d565b60405180910390fd5b816000806101000a81548173ffffffffffffffffffffffffffffffffffffffff021916908373ffffffffffffffffffffffffffffffffffffffff16021790555080600160006101000a81548173ffffffffffffffffffffffffffffffffffffffff021916908373ffffffffffffffffffffffffffffffffffffffff16021790555080600260006101000a81548173ffffffffffffffffffffffffffffffffffffffff021916908373ffffffffffffffffffffffffffffffffffffffff1602179055506001600260146101000a81548160ff0219169083151502179055505050565b6000604051905090565b600080fd5b600080fd5b60007fffffffffffffffffffff0000000000000000000000000000000000000000000082169050919050565b61068981610654565b811461069457600080fd5b50565b6000813590506106a681610680565b92915050565b6000602082840312156106c2576106c161064a565b5b60006106d084828501610697565b91505092915050565b6000819050919050565b6106ec816106d9565b82525050565b600060608201905061070760008301866106e3565b61071460208301856106e3565b61072160408301846106e3565b949350505050565b60008115159050919050565b61073e81610729565b82525050565b60006020820190506107596000830184610735565b92915050565b600073ffffffffffffffffffffffffffffffffffffffff82169050919050565b600061078a8261075f565b9050919050565b600061079c8261077f565b9050919050565b6107ac81610791565b81146107b757600080fd5b50565b6000813590506107c9816107a3565b92915050565b60006107da8261075f565b9050919050565b6107ea816107cf565b81146107f557600080fd5b50565b600081359050610807816107e1565b92915050565b600080604083850312156108245761082361064a565b5b6000610832858286016107ba565b9250506020610843858286016107f8565b9150509250929050565b61085681610654565b82525050565b60007fffffffffffffffffffffffffffffffffffffffff00000000000000000000000082169050919050565b6108918161085c565b82525050565b60006040820190506108ac600083018561084d565b6108b96020830184610888565b9392505050565b600080fd5b600080fd5b6000601f19601f8301169050919050565b7f4e487b7100000000000000000000000000000000000000000000000000000000600052604160045260246000fd5b610913826108ca565b810181811067ffffffffffffffff82111715610932576109316108db565b5b80604052505050565b6000610945610640565b9050610951828261090a565b919050565b600067ffffffffffffffff821115610971576109706108db565b5b61097a826108ca565b9050602081019050919050565b60005b838110156109a557808201518184015260208101905061098a565b838111156109b4576000848401525b50505050565b60006109cd6109c884610956565b61093b565b9050828152602081018484840111156109e9576109e86108c5565b5b6109f4848285610987565b509392505050565b600082601f830112610a1157610a106108c0565b5b8151610a218482602086016109ba565b91505092915050565b600060208284031215610a4057610a3f61064a565b5b600082015167ffffffffffffffff811115610a5e57610a5d61064f565b5b610a6a848285016109fc565b91505092915050565b600081519050919050565b6000819050602082019050919050565b6000819050919050565b6000610aa48251610a8e565b80915050919050565b600082821b905092915050565b6000610ac582610a73565b82610acf84610a7e565b9050610ada81610a98565b92506020821015610b1a57610b157fffffffffffffffffffffffffffffffffffffffffffffffffffffffffffffffff83602003600802610aad565b831692505b5050919050565b610b2a81610a8e565b82525050565b6000602082019050610b456000830184610b21565b92915050565b7f4e487b7100000000000000000000000000000000000000000000000000000000600052601160045260246000fd5b6000610b85826106d9565b9150610b90836106d9565b9250827fffffffffffffffffffffffffffffffffffffffffffffffffffffffffffffffff03821115610bc557610bc4610b4b565b5b828201905092915050565b6000610bdb826106d9565b9150610be6836106d9565b925082821015610bf957610bf8610b4b565b5b828203905092915050565b600060ff82169050919050565b610c1a81610c04565b8114610c2557600080fd5b50565b600081519050610c3781610c11565b92915050565b600060208284031215610c5357610c5261064a565b5b6000610c6184828501610c28565b91505092915050565b7f4e487b7100000000000000000000000000000000000000000000000000000000600052601260045260246000fd5b6000610ca4826106d9565b9150610caf836106d9565b925082610cbf57610cbe610c6a565b5b828204905092915050565b600082825260208201905092915050565b7f54686520636f6e747261637420697320616c726561647920696e697469616c6960008201527f7a65642e00000000000000000000000000000000000000000000000000000000602082015250565b6000610d37602483610cca565b9150610d4282610cdb565b604082019050919050565b60006020820190508181036000830152610d6681610d2a565b905091905056fea2646970667358221220e13013232448958edbffa34608f62a108c0b263cdf77d609235a16b1f7211fd564736f6c634300080f0033",
  "immutableReferences": {},
  "source": "// SPDX-License-Identifier: CC0-1.0\n\npragma solidity ^0.8.0;\n\nimport \"./LSP0ERC725Account.sol\";\nimport \"./Interfaces/DaoAccountMetadataInterface.sol\";\nimport \"./Interfaces/DaoProposalsInterface.sol\";\n\n/**\n *\n* @notice This smart contract is responsible for the voting strategies for DAO.\n *\n * @author B00ste\n * @title DaoVotingStrategies\n * @custom:version 0.92\n */\ncontract DaoVotingStrategies {\n\n  /**\n   * @notice Instance of the DAO key manager.\n   */\n  LSP0ERC725Account private DAO;\n\n  /**\n   * @notice Instance of the Proposals contract.\n   */\n  DaoProposalsInterface private proposals;\n\n  /**\n   * @notice Instance of the Proposals contract.\n   */\n  DaoAccountMetadataInterface private metadata;\n\n  /**\n   * @notice Initializing the contract.\n   */\n  bool private initialized = false;\n  function init(LSP0ERC725Account _DAO, address daoAddress) external{\n    require(!initialized, \"The contract is already initialized.\");\n    DAO = _DAO;\n    proposals = DaoProposalsInterface(daoAddress);\n    metadata = DaoAccountMetadataInterface(daoAddress);\n    initialized = true;\n  }\n\n  function _getProposalVotes(bytes10 proposalSignature)\n    public\n    view\n    returns(uint256 againstVotes, uint256 proVotes, uint256 abstainVotes)\n  {\n    againstVotes = uint256(bytes32(proposals._getAttributeValue(proposalSignature, bytes20(keccak256(\"AgainstVotes\")))));\n    proVotes = uint256(bytes32(proposals._getAttributeValue(proposalSignature, bytes20(keccak256(\"ProVotes\")))));\n    abstainVotes = uint256(bytes32(DAO.getData(bytes32(keccak256(\"DAOPermissionsAddresses[]\")))));\n  }\n\n  function _strategyOneResult(bytes10 proposalSignature) public view returns(bool result) {\n    (\n      uint256 againstVotes,\n      uint256 proVotes,\n      uint256 abstainVotes\n    ) = _getProposalVotes(proposalSignature);\n\n    abstainVotes -= (againstVotes + proVotes);\n    uint256 totalActiveVotes = againstVotes + proVotes;\n    uint256 totalVotes = totalActiveVotes + abstainVotes;\n\n    if (\n      proVotes/totalActiveVotes > metadata._getDaoMajority()/totalActiveVotes &&\n      totalActiveVotes/totalVotes > metadata._getDaoParticipationRate()/totalVotes\n    ) {\n      return true;\n    }\n    else {\n      return false;\n    }\n  }\n\n}",
  "sourcePath": "/home/b00ste/Projects/universal-profile-governance/contracts/UPDao/DaoVotingStrategies.sol",
  "compiler": {
    "name": "solc",
    "version": "0.8.15+commit.e14f2714.Emscripten.clang"
  },
  "schemaVersion": "3.4.8",
  "updatedAt": "2022-07-22T23:29:04.170Z",
  "devdoc": {
    "author": "B00ste",
    "custom:version": "0.92",
    "kind": "dev",
    "methods": {},
    "title": "DaoVotingStrategies",
    "version": 1
  },
  "userdoc": {
    "kind": "user",
    "methods": {},
    "notice": "This smart contract is responsible for the voting strategies for DAO.",
    "version": 1
  }
}