{
  "contractName": "DaoVotingStrategies",
  "abi": [
    {
      "inputs": [
        {
          "internalType": "contract LSP0ERC725Account",
          "name": "_DAO",
          "type": "address"
        },
        {
          "internalType": "address",
          "name": "daoAddress",
          "type": "address"
        }
      ],
      "stateMutability": "nonpayable",
      "type": "constructor"
    },
    {
      "inputs": [
        {
          "internalType": "bytes10",
          "name": "proposalSignature",
          "type": "bytes10"
        }
      ],
      "name": "_getProposalVotes",
      "outputs": [
        {
          "internalType": "uint256",
          "name": "againstVotes",
          "type": "uint256"
        },
        {
          "internalType": "uint256",
          "name": "proVotes",
          "type": "uint256"
        },
        {
          "internalType": "uint256",
          "name": "abstainVotes",
          "type": "uint256"
        }
      ],
      "stateMutability": "view",
      "type": "function"
    },
    {
      "inputs": [
        {
          "internalType": "bytes10",
          "name": "proposalSignature",
          "type": "bytes10"
        }
      ],
      "name": "_strategyOneResult",
      "outputs": [
        {
          "internalType": "bool",
          "name": "result",
          "type": "bool"
        }
      ],
      "stateMutability": "view",
      "type": "function"
    }
  ],
  "bytecode": "0x60806040523480156200001157600080fd5b5060405162000cd538038062000cd58339818101604052810190620000379190620001c4565b80600160006101000a81548173ffffffffffffffffffffffffffffffffffffffff021916908373ffffffffffffffffffffffffffffffffffffffff16021790555080600260006101000a81548173ffffffffffffffffffffffffffffffffffffffff021916908373ffffffffffffffffffffffffffffffffffffffff160217905550816000806101000a81548173ffffffffffffffffffffffffffffffffffffffff021916908373ffffffffffffffffffffffffffffffffffffffff16021790555050506200020b565b600080fd5b600073ffffffffffffffffffffffffffffffffffffffff82169050919050565b6000620001338262000106565b9050919050565b6000620001478262000126565b9050919050565b62000159816200013a565b81146200016557600080fd5b50565b60008151905062000179816200014e565b92915050565b60006200018c8262000106565b9050919050565b6200019e816200017f565b8114620001aa57600080fd5b50565b600081519050620001be8162000193565b92915050565b60008060408385031215620001de57620001dd62000101565b5b6000620001ee8582860162000168565b92505060206200020185828601620001ad565b9150509250929050565b610aba806200021b6000396000f3fe608060405234801561001057600080fd5b50600436106100365760003560e01c8063123e469d1461003b5780633ceb2b5d1461006d575b600080fd5b61005560048036038101906100509190610554565b61009d565b6040516100649392919061059a565b60405180910390f35b61008760048036038101906100829190610554565b610318565b60405161009491906105ec565b60405180910390f35b6000806000600160009054906101000a900473ffffffffffffffffffffffffffffffffffffffff1673ffffffffffffffffffffffffffffffffffffffff1663a56c89b1857f214afa26c5f6a535e82ca315d5ffc739048132e744c73f66d711468ed63faac96040518363ffffffff1660e01b815260040161011f929190610651565b600060405180830381865afa15801561013c573d6000803e3d6000fd5b505050506040513d6000823e3d601f19601f8201168201806040525081019061016591906107e4565b61016e90610874565b60001c9250600160009054906101000a900473ffffffffffffffffffffffffffffffffffffffff1673ffffffffffffffffffffffffffffffffffffffff1663a56c89b1857feaeb11cb7786797587689f7f6303acfee9b7b7570354137133562456569337596040518363ffffffff1660e01b81526004016101f0929190610651565b600060405180830381865afa15801561020d573d6000803e3d6000fd5b505050506040513d6000823e3d601f19601f8201168201806040525081019061023691906107e4565b61023f90610874565b60001c915060008054906101000a900473ffffffffffffffffffffffffffffffffffffffff1673ffffffffffffffffffffffffffffffffffffffff166354f6127f7f72ba3778f5d93e8643176651d8174361d2ba28345f5eaa8b6a10f65dbfcf7c916040518263ffffffff1660e01b81526004016102bd91906108ea565b600060405180830381865afa1580156102da573d6000803e3d6000fd5b505050506040513d6000823e3d601f19601f8201168201806040525081019061030391906107e4565b61030c90610874565b60001c90509193909250565b6000806000806103278561009d565b92509250925081836103399190610934565b81610344919061098a565b9050600082846103549190610934565b9050600082826103649190610934565b905081600260009054906101000a900473ffffffffffffffffffffffffffffffffffffffff1673ffffffffffffffffffffffffffffffffffffffff16636df584df6040518163ffffffff1660e01b8152600401602060405180830381865afa1580156103d4573d6000803e3d6000fd5b505050506040513d601f19601f820116820180604052508101906103f891906109f7565b60ff166104059190610a53565b82856104119190610a53565b1180156104c6575080600260009054906101000a900473ffffffffffffffffffffffffffffffffffffffff1673ffffffffffffffffffffffffffffffffffffffff1663754b15286040518163ffffffff1660e01b8152600401602060405180830381865afa158015610487573d6000803e3d6000fd5b505050506040513d601f19601f820116820180604052508101906104ab91906109f7565b60ff166104b89190610a53565b81836104c49190610a53565b115b156104d9576001955050505050506104e3565b6000955050505050505b919050565b6000604051905090565b600080fd5b600080fd5b60007fffffffffffffffffffff0000000000000000000000000000000000000000000082169050919050565b610531816104fc565b811461053c57600080fd5b50565b60008135905061054e81610528565b92915050565b60006020828403121561056a576105696104f2565b5b60006105788482850161053f565b91505092915050565b6000819050919050565b61059481610581565b82525050565b60006060820190506105af600083018661058b565b6105bc602083018561058b565b6105c9604083018461058b565b949350505050565b60008115159050919050565b6105e6816105d1565b82525050565b600060208201905061060160008301846105dd565b92915050565b610610816104fc565b82525050565b60007fffffffffffffffffffffffffffffffffffffffff00000000000000000000000082169050919050565b61064b81610616565b82525050565b60006040820190506106666000830185610607565b6106736020830184610642565b9392505050565b600080fd5b600080fd5b6000601f19601f8301169050919050565b7f4e487b7100000000000000000000000000000000000000000000000000000000600052604160045260246000fd5b6106cd82610684565b810181811067ffffffffffffffff821117156106ec576106eb610695565b5b80604052505050565b60006106ff6104e8565b905061070b82826106c4565b919050565b600067ffffffffffffffff82111561072b5761072a610695565b5b61073482610684565b9050602081019050919050565b60005b8381101561075f578082015181840152602081019050610744565b8381111561076e576000848401525b50505050565b600061078761078284610710565b6106f5565b9050828152602081018484840111156107a3576107a261067f565b5b6107ae848285610741565b509392505050565b600082601f8301126107cb576107ca61067a565b5b81516107db848260208601610774565b91505092915050565b6000602082840312156107fa576107f96104f2565b5b600082015167ffffffffffffffff811115610818576108176104f7565b5b610824848285016107b6565b91505092915050565b600081519050919050565b6000819050602082019050919050565b6000819050919050565b600061085e8251610848565b80915050919050565b600082821b905092915050565b600061087f8261082d565b8261088984610838565b905061089481610852565b925060208210156108d4576108cf7fffffffffffffffffffffffffffffffffffffffffffffffffffffffffffffffff83602003600802610867565b831692505b5050919050565b6108e481610848565b82525050565b60006020820190506108ff60008301846108db565b92915050565b7f4e487b7100000000000000000000000000000000000000000000000000000000600052601160045260246000fd5b600061093f82610581565b915061094a83610581565b9250827fffffffffffffffffffffffffffffffffffffffffffffffffffffffffffffffff0382111561097f5761097e610905565b5b828201905092915050565b600061099582610581565b91506109a083610581565b9250828210156109b3576109b2610905565b5b828203905092915050565b600060ff82169050919050565b6109d4816109be565b81146109df57600080fd5b50565b6000815190506109f1816109cb565b92915050565b600060208284031215610a0d57610a0c6104f2565b5b6000610a1b848285016109e2565b91505092915050565b7f4e487b7100000000000000000000000000000000000000000000000000000000600052601260045260246000fd5b6000610a5e82610581565b9150610a6983610581565b925082610a7957610a78610a24565b5b82820490509291505056fea2646970667358221220f1f47fdbf14b185237318597b49e5f9d61fc3d2763f0c8adba5711f4db2d3f6864736f6c634300080f0033",
  "immutableReferences": {},
  "source": "// SPDX-License-Identifier: CC0-1.0\n\npragma solidity ^0.8.0;\n\nimport \"@lukso/lsp-smart-contracts/contracts/LSP0ERC725Account/LSP0ERC725Account.sol\";\nimport \"./Interfaces/DaoAccountMetadataInterface.sol\";\nimport \"./Interfaces/DaoProposalsInterface.sol\";\n\n/**\n *\n* @notice This smart contract is responsible for the voting strategies for DAO.\n *\n * @author B00ste\n * @title DaoVotingStrategies\n * @custom:version 0.91\n */\ncontract DaoVotingStrategies {\n\n  /**\n   * @notice Instance of the DAO key manager.\n   */\n  LSP0ERC725Account private DAO;\n\n  /**\n   * @notice Instance of the Proposals contract.\n   */\n  DaoProposalsInterface private proposals;\n\n  /**\n   * @notice Instance of the Proposals contract.\n   */\n  DaoAccountMetadataInterface private metadata;\n\n  constructor(LSP0ERC725Account _DAO, address daoAddress) {\n    proposals = DaoProposalsInterface(daoAddress);\n    metadata = DaoAccountMetadataInterface(daoAddress);\n    DAO = _DAO;\n  }\n\n  function _getProposalVotes(bytes10 proposalSignature)\n    public\n    view\n    returns(uint256 againstVotes, uint256 proVotes, uint256 abstainVotes)\n  {\n    againstVotes = uint256(bytes32(proposals._getAttributeValue(proposalSignature, bytes20(keccak256(\"AgainstVotes\")))));\n    proVotes = uint256(bytes32(proposals._getAttributeValue(proposalSignature, bytes20(keccak256(\"ProVotes\")))));\n    abstainVotes = uint256(bytes32(DAO.getData(bytes32(keccak256(\"DAOPermissionsAddresses[]\")))));\n  }\n\n  function _strategyOneResult(bytes10 proposalSignature) public view returns(bool result) {\n    (\n      uint256 againstVotes,\n      uint256 proVotes,\n      uint256 abstainVotes\n    ) = _getProposalVotes(proposalSignature);\n\n    abstainVotes -= (againstVotes + proVotes);\n    uint256 totalActiveVotes = againstVotes + proVotes;\n    uint256 totalVotes = totalActiveVotes + abstainVotes;\n\n    if (\n      proVotes/totalActiveVotes > metadata._getDaoQuorum()/totalActiveVotes &&\n      totalActiveVotes/totalVotes > metadata._getDaoParticipationRate()/totalVotes\n    ) {\n      return true;\n    }\n    else {\n      return false;\n    }\n  }\n\n}",
  "sourcePath": "/home/b00ste/Projects/universal-profile-governance/contracts/UPDao/DaoVotingStrategies.sol",
  "compiler": {
    "name": "solc",
    "version": "0.8.15+commit.e14f2714.Emscripten.clang"
  },
  "schemaVersion": "3.4.8",
  "updatedAt": "2022-07-21T08:10:15.490Z",
  "devdoc": {
    "author": "B00ste",
    "custom:version": "0.91",
    "kind": "dev",
    "methods": {},
    "title": "DaoVotingStrategies",
    "version": 1
  },
  "userdoc": {
    "kind": "user",
    "methods": {},
    "notice": "This smart contract is responsible for the voting strategies for DAO.",
    "version": 1
  }
}