{
  "contractName": "DeployerContract",
  "abi": [
    {
      "inputs": [],
      "name": "createUniversalProfile",
      "outputs": [],
      "stateMutability": "nonpayable",
      "type": "function"
    },
    {
      "inputs": [],
      "name": "createKeyManager",
      "outputs": [],
      "stateMutability": "nonpayable",
      "type": "function"
    },
    {
      "inputs": [],
      "name": "createDaoAccountTools",
      "outputs": [],
      "stateMutability": "nonpayable",
      "type": "function"
    },
    {
      "inputs": [],
      "name": "createDaoAccount",
      "outputs": [],
      "stateMutability": "nonpayable",
      "type": "function"
    },
    {
      "inputs": [],
      "name": "setPermissions",
      "outputs": [],
      "stateMutability": "nonpayable",
      "type": "function"
    }
  ],
  "bytecode": "0x608060405234801561001057600080fd5b506201ce4780620000226000396000f3fe60806040523480156200001157600080fd5b50600436106200005e5760003560e01c806305ebdeea146200006357806334ab4e17146200006f5780635d140f9b146200007b578063b73515eb1462000087578063dd9699591462000093575b600080fd5b6200006d6200009f565b005b6200007962000256565b005b62000085620004d4565b005b6200009162000a3b565b005b6200009d62001844565b005b600060016000803373ffffffffffffffffffffffffffffffffffffffff1673ffffffffffffffffffffffffffffffffffffffff16815260200190815260200160002060080160149054906101000a900460f01b60f01c1661ffff16146200013d576040517f08c379a0000000000000000000000000000000000000000000000000000000008152600401620001349062001e7c565b60405180910390fd5b306040516200014c9062001d77565b62000158919062001ee3565b604051809103906000f08015801562000175573d6000803e3d6000fd5b506000803373ffffffffffffffffffffffffffffffffffffffff1673ffffffffffffffffffffffffffffffffffffffff16815260200190815260200160002060000160006101000a81548173ffffffffffffffffffffffffffffffffffffffff021916908373ffffffffffffffffffffffffffffffffffffffff160217905550600160f01b6000803373ffffffffffffffffffffffffffffffffffffffff1673ffffffffffffffffffffffffffffffffffffffff16815260200190815260200160002060080160146101000a81548161ffff021916908360f01c0217905550565b600060016000803373ffffffffffffffffffffffffffffffffffffffff1673ffffffffffffffffffffffffffffffffffffffff16815260200190815260200160002060080160149054906101000a900460f01b60f01c1661ffff1614158015620003185750600060026000803373ffffffffffffffffffffffffffffffffffffffff1673ffffffffffffffffffffffffffffffffffffffff16815260200190815260200160002060080160149054906101000a900460f01b60f01c1661ffff16145b6200035a576040517f08c379a0000000000000000000000000000000000000000000000000000000008152600401620003519062001f9c565b60405180910390fd5b6000803373ffffffffffffffffffffffffffffffffffffffff1673ffffffffffffffffffffffffffffffffffffffff16815260200190815260200160002060000160009054906101000a900473ffffffffffffffffffffffffffffffffffffffff16604051620003ca9062001d85565b620003d6919062001ee3565b604051809103906000f080158015620003f3573d6000803e3d6000fd5b506000803373ffffffffffffffffffffffffffffffffffffffff1673ffffffffffffffffffffffffffffffffffffffff16815260200190815260200160002060010160006101000a81548173ffffffffffffffffffffffffffffffffffffffff021916908373ffffffffffffffffffffffffffffffffffffffff160217905550600360f01b6000803373ffffffffffffffffffffffffffffffffffffffff1673ffffffffffffffffffffffffffffffffffffffff16815260200190815260200160002060080160146101000a81548161ffff021916908360f01c0217905550565b600060026000803373ffffffffffffffffffffffffffffffffffffffff1673ffffffffffffffffffffffffffffffffffffffff16815260200190815260200160002060080160149054906101000a900460f01b60f01c1661ffff1614158015620005965750600060046000803373ffffffffffffffffffffffffffffffffffffffff1673ffffffffffffffffffffffffffffffffffffffff16815260200190815260200160002060080160149054906101000a900460f01b60f01c1661ffff16145b620005d8576040517f08c379a0000000000000000000000000000000000000000000000000000000008152600401620005cf906200205a565b60405180910390fd5b604051620005e69062001d93565b604051809103906000f08015801562000603573d6000803e3d6000fd5b506000803373ffffffffffffffffffffffffffffffffffffffff1673ffffffffffffffffffffffffffffffffffffffff16815260200190815260200160002060020160006101000a81548173ffffffffffffffffffffffffffffffffffffffff021916908373ffffffffffffffffffffffffffffffffffffffff160217905550604051620006919062001da1565b604051809103906000f080158015620006ae573d6000803e3d6000fd5b506000803373ffffffffffffffffffffffffffffffffffffffff1673ffffffffffffffffffffffffffffffffffffffff16815260200190815260200160002060030160006101000a81548173ffffffffffffffffffffffffffffffffffffffff021916908373ffffffffffffffffffffffffffffffffffffffff1602179055506040516200073c9062001daf565b604051809103906000f08015801562000759573d6000803e3d6000fd5b506000803373ffffffffffffffffffffffffffffffffffffffff1673ffffffffffffffffffffffffffffffffffffffff16815260200190815260200160002060040160006101000a81548173ffffffffffffffffffffffffffffffffffffffff021916908373ffffffffffffffffffffffffffffffffffffffff160217905550604051620007e79062001dbd565b604051809103906000f08015801562000804573d6000803e3d6000fd5b506000803373ffffffffffffffffffffffffffffffffffffffff1673ffffffffffffffffffffffffffffffffffffffff16815260200190815260200160002060050160006101000a81548173ffffffffffffffffffffffffffffffffffffffff021916908373ffffffffffffffffffffffffffffffffffffffff160217905550604051620008929062001dcb565b604051809103906000f080158015620008af573d6000803e3d6000fd5b506000803373ffffffffffffffffffffffffffffffffffffffff1673ffffffffffffffffffffffffffffffffffffffff16815260200190815260200160002060060160006101000a81548173ffffffffffffffffffffffffffffffffffffffff021916908373ffffffffffffffffffffffffffffffffffffffff1602179055506040516200093d9062001dd9565b604051809103906000f0801580156200095a573d6000803e3d6000fd5b506000803373ffffffffffffffffffffffffffffffffffffffff1673ffffffffffffffffffffffffffffffffffffffff16815260200190815260200160002060070160006101000a81548173ffffffffffffffffffffffffffffffffffffffff021916908373ffffffffffffffffffffffffffffffffffffffff160217905550600760f01b6000803373ffffffffffffffffffffffffffffffffffffffff1673ffffffffffffffffffffffffffffffffffffffff16815260200190815260200160002060080160146101000a81548161ffff021916908360f01c0217905550565b600060086000803373ffffffffffffffffffffffffffffffffffffffff1673ffffffffffffffffffffffffffffffffffffffff16815260200190815260200160002060080160149054906101000a900460f01b60f01c1661ffff161415801562000afd5750600060106000803373ffffffffffffffffffffffffffffffffffffffff1673ffffffffffffffffffffffffffffffffffffffff16815260200190815260200160002060080160149054906101000a900460f01b60f01c1661ffff16145b62000b3f576040517f08c379a000000000000000000000000000000000000000000000000000000000815260040162000b3690620020f2565b60405180910390fd5b6000600b67ffffffffffffffff81111562000b5f5762000b5e62002114565b5b60405190808252806020026020018201604052801562000b8e5781602001602082028036833780820191505090505b5090507fdf30dba06db6a30e65354d9a64c609861f089545ca58c6b4dbe31a5f338cb0e360001b8160008151811062000bcc5762000bcb62002143565b5b6020026020010181815250506fdf30dba06db6a30e65354d9a64c6098660801b600060801b60405160200162000c04929190620021c3565b60405160208183030381529060405262000c1e906200223c565b8160018151811062000c355762000c3462002143565b5b6020026020010181815250506fdf30dba06db6a30e65354d9a64c6098660801b600160801b60405160200162000c6d929190620021c3565b60405160208183030381529060405262000c87906200223c565b8160028151811062000c9e5762000c9d62002143565b5b6020026020010181815250506fdf30dba06db6a30e65354d9a64c6098660801b600260801b60405160200162000cd6929190620021c3565b60405160208183030381529060405262000cf0906200223c565b8160038151811062000d075762000d0662002143565b5b6020026020010181815250506fdf30dba06db6a30e65354d9a64c6098660801b600360801b60405160200162000d3f929190620021c3565b60405160208183030381529060405262000d59906200223c565b8160048151811062000d705762000d6f62002143565b5b6020026020010181815250506fdf30dba06db6a30e65354d9a64c6098660801b600460801b60405160200162000da8929190620021c3565b60405160208183030381529060405262000dc2906200223c565b8160058151811062000dd95762000dd862002143565b5b6020026020010181815250506b4b80742de2bf82acb363000060a01b6000803373ffffffffffffffffffffffffffffffffffffffff1673ffffffffffffffffffffffffffffffffffffffff16815260200190815260200160002060080160009054906101000a900473ffffffffffffffffffffffffffffffffffffffff1660601b60405160200162000e6d9291906200234e565b60405160208183030381529060405262000e87906200223c565b8160068151811062000e9e5762000e9d62002143565b5b6020026020010181815250506b4b80742de2bf82acb363000060a01b6000803373ffffffffffffffffffffffffffffffffffffffff1673ffffffffffffffffffffffffffffffffffffffff16815260200190815260200160002060020160009054906101000a900473ffffffffffffffffffffffffffffffffffffffff1660601b60405160200162000f329291906200234e565b60405160208183030381529060405262000f4c906200223c565b8160078151811062000f635762000f6262002143565b5b6020026020010181815250506b4b80742de2bf82acb363000060a01b6000803373ffffffffffffffffffffffffffffffffffffffff1673ffffffffffffffffffffffffffffffffffffffff16815260200190815260200160002060030160009054906101000a900473ffffffffffffffffffffffffffffffffffffffff1660601b60405160200162000ff79291906200234e565b60405160208183030381529060405262001011906200223c565b8160088151811062001028576200102762002143565b5b6020026020010181815250506b4b80742de2bf82acb363000060a01b6000803373ffffffffffffffffffffffffffffffffffffffff1673ffffffffffffffffffffffffffffffffffffffff16815260200190815260200160002060040160009054906101000a900473ffffffffffffffffffffffffffffffffffffffff1660601b604051602001620010bc9291906200234e565b604051602081830303815290604052620010d6906200223c565b81600981518110620010ed57620010ec62002143565b5b6020026020010181815250506b4b80742de2bf82acb363000060a01b6000803373ffffffffffffffffffffffffffffffffffffffff1673ffffffffffffffffffffffffffffffffffffffff16815260200190815260200160002060050160009054906101000a900473ffffffffffffffffffffffffffffffffffffffff1660601b604051602001620011819291906200234e565b6040516020818303038152906040526200119b906200223c565b81600a81518110620011b257620011b162002143565b5b6020026020010181815250506000600b67ffffffffffffffff811115620011de57620011dd62002114565b5b6040519080825280602002602001820160405280156200121357816020015b6060815260200190600190039081620011fd5790505b509050600560001b6040516020016200122d9190620023a3565b6040516020818303038152906040528160008151811062001253576200125262002143565b5b60200260200101819052506000803373ffffffffffffffffffffffffffffffffffffffff1673ffffffffffffffffffffffffffffffffffffffff16815260200190815260200160002060080160009054906101000a900473ffffffffffffffffffffffffffffffffffffffff1660601b604051602001620012d59190620023c0565b60405160208183030381529060405281600181518110620012fb57620012fa62002143565b5b60200260200101819052506000803373ffffffffffffffffffffffffffffffffffffffff1673ffffffffffffffffffffffffffffffffffffffff16815260200190815260200160002060020160009054906101000a900473ffffffffffffffffffffffffffffffffffffffff1660601b6040516020016200137d9190620023c0565b60405160208183030381529060405281600281518110620013a357620013a262002143565b5b60200260200101819052506000803373ffffffffffffffffffffffffffffffffffffffff1673ffffffffffffffffffffffffffffffffffffffff16815260200190815260200160002060030160009054906101000a900473ffffffffffffffffffffffffffffffffffffffff1660601b604051602001620014259190620023c0565b604051602081830303815290604052816003815181106200144b576200144a62002143565b5b60200260200101819052506000803373ffffffffffffffffffffffffffffffffffffffff1673ffffffffffffffffffffffffffffffffffffffff16815260200190815260200160002060040160009054906101000a900473ffffffffffffffffffffffffffffffffffffffff1660601b604051602001620014cd9190620023c0565b60405160208183030381529060405281600481518110620014f357620014f262002143565b5b60200260200101819052506000803373ffffffffffffffffffffffffffffffffffffffff1673ffffffffffffffffffffffffffffffffffffffff16815260200190815260200160002060050160009054906101000a900473ffffffffffffffffffffffffffffffffffffffff1660601b604051602001620015759190620023c0565b604051602081830303815290604052816005815181106200159b576200159a62002143565b5b6020026020010181905250617fff60001b604051602001620015be9190620023a3565b60405160208183030381529060405281600681518110620015e457620015e362002143565b5b6020026020010181905250600860001b604051602001620016069190620023a3565b604051602081830303815290604052816007815181106200162c576200162b62002143565b5b6020026020010181905250600860001b6040516020016200164e9190620023a3565b6040516020818303038152906040528160088151811062001674576200167362002143565b5b6020026020010181905250600860001b604051602001620016969190620023a3565b60405160208183030381529060405281600981518110620016bc57620016bb62002143565b5b6020026020010181905250600860001b604051602001620016de9190620023a3565b60405160208183030381529060405281600a8151811062001704576200170362002143565b5b60200260200101819052506000803373ffffffffffffffffffffffffffffffffffffffff1673ffffffffffffffffffffffffffffffffffffffff16815260200190815260200160002060000160009054906101000a900473ffffffffffffffffffffffffffffffffffffffff1673ffffffffffffffffffffffffffffffffffffffff166314a6e29383836040518363ffffffff1660e01b8152600401620017ad92919062002614565b600060405180830381600087803b158015620017c857600080fd5b505af1158015620017dd573d6000803e3d6000fd5b50505050601f60f01b6000803373ffffffffffffffffffffffffffffffffffffffff1673ffffffffffffffffffffffffffffffffffffffff16815260200190815260200160002060080160146101000a81548161ffff021916908360f01c02179055505050565b600060046000803373ffffffffffffffffffffffffffffffffffffffff1673ffffffffffffffffffffffffffffffffffffffff16815260200190815260200160002060080160149054906101000a900460f01b60f01c1661ffff1614158015620019065750600060086000803373ffffffffffffffffffffffffffffffffffffffff1673ffffffffffffffffffffffffffffffffffffffff16815260200190815260200160002060080160149054906101000a900460f01b60f01c1661ffff16145b62001948576040517f08c379a00000000000000000000000000000000000000000000000000000000081526004016200193f90620026eb565b60405180910390fd5b6000803373ffffffffffffffffffffffffffffffffffffffff1673ffffffffffffffffffffffffffffffffffffffff16815260200190815260200160002060000160009054906101000a900473ffffffffffffffffffffffffffffffffffffffff166000803373ffffffffffffffffffffffffffffffffffffffff1673ffffffffffffffffffffffffffffffffffffffff16815260200190815260200160002060010160009054906101000a900473ffffffffffffffffffffffffffffffffffffffff166000803373ffffffffffffffffffffffffffffffffffffffff1673ffffffffffffffffffffffffffffffffffffffff16815260200190815260200160002060020160009054906101000a900473ffffffffffffffffffffffffffffffffffffffff166000803373ffffffffffffffffffffffffffffffffffffffff1673ffffffffffffffffffffffffffffffffffffffff16815260200190815260200160002060030160009054906101000a900473ffffffffffffffffffffffffffffffffffffffff166000803373ffffffffffffffffffffffffffffffffffffffff1673ffffffffffffffffffffffffffffffffffffffff16815260200190815260200160002060040160009054906101000a900473ffffffffffffffffffffffffffffffffffffffff166000803373ffffffffffffffffffffffffffffffffffffffff1673ffffffffffffffffffffffffffffffffffffffff16815260200190815260200160002060050160009054906101000a900473ffffffffffffffffffffffffffffffffffffffff166000803373ffffffffffffffffffffffffffffffffffffffff1673ffffffffffffffffffffffffffffffffffffffff16815260200190815260200160002060060160009054906101000a900473ffffffffffffffffffffffffffffffffffffffff166000803373ffffffffffffffffffffffffffffffffffffffff1673ffffffffffffffffffffffffffffffffffffffff16815260200190815260200160002060070160009054906101000a900473ffffffffffffffffffffffffffffffffffffffff1660405162001c669062001de7565b62001c799897969594939291906200288f565b604051809103906000f08015801562001c96573d6000803e3d6000fd5b506000803373ffffffffffffffffffffffffffffffffffffffff1673ffffffffffffffffffffffffffffffffffffffff16815260200190815260200160002060080160006101000a81548173ffffffffffffffffffffffffffffffffffffffff021916908373ffffffffffffffffffffffffffffffffffffffff160217905550600f60f01b6000803373ffffffffffffffffffffffffffffffffffffffff1673ffffffffffffffffffffffffffffffffffffffff16815260200190815260200160002060080160146101000a81548161ffff021916908360f01c0217905550565b613ee8806200291e83390190565b614cc4806200680683390190565b61217b806200b4ca83390190565b611f29806200d64583390190565b61342c806200f56e83390190565b611c59806201299a83390190565b611ecf80620145f383390190565b610dde80620164c283390190565b615b7280620172a083390190565b600082825260208201905092915050565b7f556e6976657273616c2050726f66696c6520697320616c726561647920696e6960008201527f7469616c697a65642e0000000000000000000000000000000000000000000000602082015250565b600062001e6460298362001df5565b915062001e718262001e06565b604082019050919050565b6000602082019050818103600083015262001e978162001e55565b9050919050565b600073ffffffffffffffffffffffffffffffffffffffff82169050919050565b600062001ecb8262001e9e565b9050919050565b62001edd8162001ebe565b82525050565b600060208201905062001efa600083018462001ed2565b92915050565b7f556e6976657273616c2050726f66696c65206e6f7420696e697469616c697a6560008201527f64206f72204b6579204d616e6167657220616c726561647920696e697469616c60208201527f697a65642e000000000000000000000000000000000000000000000000000000604082015250565b600062001f8460458362001df5565b915062001f918262001f00565b606082019050919050565b6000602082019050818103600083015262001fb78162001f75565b9050919050565b7f4b6579204d616e61676572206973206e6f7420696e697469616c697a6564206f60008201527f722044616f204163636f756e7420546f6f6c7320616c726561647920696e697460208201527f69616c697a65642e000000000000000000000000000000000000000000000000604082015250565b60006200204260488362001df5565b91506200204f8262001fbe565b606082019050919050565b60006020820190508181036000830152620020758162002033565b9050919050565b7f44616f204163636f756e74206e6f7420696e697469616c697a6564206f72207060008201527f65726d697373696f6e7320616c6572616479207365742e000000000000000000602082015250565b6000620020da60378362001df5565b9150620020e7826200207c565b604082019050919050565b600060208201905081810360008301526200210d81620020cb565b9050919050565b7f4e487b7100000000000000000000000000000000000000000000000000000000600052604160045260246000fd5b7f4e487b7100000000000000000000000000000000000000000000000000000000600052603260045260246000fd5b60007fffffffffffffffffffffffffffffffff0000000000000000000000000000000082169050919050565b6000819050919050565b620021bd620021b78262002172565b6200219e565b82525050565b6000620021d18285620021a8565b601082019150620021e38284620021a8565b6010820191508190509392505050565b600081519050919050565b6000819050602082019050919050565b6000819050919050565b60006200222682516200220e565b80915050919050565b600082821b905092915050565b60006200224982620021f3565b826200225584620021fe565b9050620022628162002218565b92506020821015620022a557620022a07fffffffffffffffffffffffffffffffffffffffffffffffffffffffffffffffff836020036008026200222f565b831692505b5050919050565b60007fffffffffffffffffffffffff000000000000000000000000000000000000000082169050919050565b6000819050919050565b620022f7620022f182620022ac565b620022d8565b82525050565b60007fffffffffffffffffffffffffffffffffffffffff00000000000000000000000082169050919050565b6000819050919050565b620023486200234282620022fd565b62002329565b82525050565b60006200235c8285620022e2565b600c820191506200236e828462002333565b6014820191508190509392505050565b6000819050919050565b6200239d62002397826200220e565b6200237e565b82525050565b6000620023b1828462002388565b60208201915081905092915050565b6000620023ce828462002333565b60148201915081905092915050565b600081519050919050565b600082825260208201905092915050565b6000819050602082019050919050565b62002414816200220e565b82525050565b600062002428838362002409565b60208301905092915050565b6000602082019050919050565b60006200244e82620023dd565b6200245a8185620023e8565b93506200246783620023f9565b8060005b838110156200249e5781516200248288826200241a565b97506200248f8362002434565b9250506001810190506200246b565b5085935050505092915050565b600081519050919050565b600082825260208201905092915050565b6000819050602082019050919050565b600082825260208201905092915050565b60005b8381101562002508578082015181840152602081019050620024eb565b8381111562002518576000848401525b50505050565b6000601f19601f8301169050919050565b60006200253c82620021f3565b620025488185620024d7565b93506200255a818560208601620024e8565b62002565816200251e565b840191505092915050565b60006200257e83836200252f565b905092915050565b6000602082019050919050565b6000620025a082620024ab565b620025ac8185620024b6565b935083602082028501620025c085620024c7565b8060005b85811015620026025784840389528151620025e0858262002570565b9450620025ed8362002586565b925060208a01995050600181019050620025c4565b50829750879550505050505092915050565b6000604082019050818103600083015262002630818562002441565b9050818103602083015262002646818462002593565b90509392505050565b7f44616f204163636f756e7420546f6f6c73206e6f7420696e697469616c697a6560008201527f64206f722044616f204163636f756e7420616c726561647920696e697469616c60208201527f697a65642e000000000000000000000000000000000000000000000000000000604082015250565b6000620026d360458362001df5565b9150620026e0826200264f565b606082019050919050565b600060208201905081810360008301526200270681620026c4565b9050919050565b6000819050919050565b600062002738620027326200272c8462001e9e565b6200270d565b62001e9e565b9050919050565b60006200274c8262002717565b9050919050565b600062002760826200273f565b9050919050565b620027728162002753565b82525050565b6000620027858262002717565b9050919050565b6000620027998262002778565b9050919050565b620027ab816200278c565b82525050565b6000620027be8262002778565b9050919050565b620027d081620027b1565b82525050565b6000620027e38262002778565b9050919050565b620027f581620027d6565b82525050565b6000620028088262002778565b9050919050565b6200281a81620027fb565b82525050565b60006200282d8262002778565b9050919050565b6200283f8162002820565b82525050565b6000620028528262002778565b9050919050565b620028648162002845565b82525050565b6000620028778262002778565b9050919050565b62002889816200286a565b82525050565b600061010082019050620028a7600083018b62002767565b620028b6602083018a620027a0565b620028c56040830189620027c5565b620028d46060830188620027ea565b620028e360808301876200280f565b620028f260a083018662002834565b6200290160c083018562002859565b6200291060e08301846200287e565b999850505050505050505056fe608060405260405162003ee838038062003ee88339818101604052810190620000299190620001e1565b6200003f816200004660201b620013331760201c565b5062000213565b620000566200014e60201b60201c565b73ffffffffffffffffffffffffffffffffffffffff168173ffffffffffffffffffffffffffffffffffffffff16146200014b5760008060009054906101000a900473ffffffffffffffffffffffffffffffffffffffff169050816000806101000a81548173ffffffffffffffffffffffffffffffffffffffff021916908373ffffffffffffffffffffffffffffffffffffffff1602179055508173ffffffffffffffffffffffffffffffffffffffff168173ffffffffffffffffffffffffffffffffffffffff167f8be0079c531659141344cd1fd0a4f28419497f9722a3daafe3b4186f6b6457e060405160405180910390a3505b50565b60008060009054906101000a900473ffffffffffffffffffffffffffffffffffffffff16905090565b600080fd5b600073ffffffffffffffffffffffffffffffffffffffff82169050919050565b6000620001a9826200017c565b9050919050565b620001bb816200019c565b8114620001c757600080fd5b50565b600081519050620001db81620001b0565b92915050565b600060208284031215620001fa57620001f962000177565b5b60006200020a84828501620001ca565b91505092915050565b613cc580620002236000396000f3fe6080604052600436106100c65760003560e01c806354f6127f1161007f5780637f23690c116100595780637f23690c146102c85780638da5cb5b146102f1578063e30c39781461031c578063f2fde38b14610347576100cd565b806354f6127f146102445780636bb56a1414610281578063715018a6146102b1576100cd565b806301ffc9a71461011d57806314a6e2931461015a5780631626ba7e1461018357806344c028fe146101c05780634e3e6e9c146101f05780634e71e0c81461022d576100cd565b366100cd57005b600034111561011b57343373ffffffffffffffffffffffffffffffffffffffff167f7e71433ddf847725166244795048ecf3e3f9f35628254ecbf73605666423349360405160405180910390a35b005b34801561012957600080fd5b50610144600480360381019061013f9190612139565b610370565b6040516101519190612181565b60405180910390f35b34801561016657600080fd5b50610181600480360381019061017c91906124c1565b6104be565b005b34801561018f57600080fd5b506101aa60048036038101906101a59190612539565b6105d6565b6040516101b791906125a4565b60405180910390f35b6101da60048036038101906101d591906126ae565b610705565b6040516101e791906127be565b60405180910390f35b3480156101fc57600080fd5b50610217600480360381019061021291906127e0565b610e37565b6040516102249190612935565b60405180910390f35b34801561023957600080fd5b50610242610eed565b005b34801561025057600080fd5b5061026b60048036038101906102669190612957565b610fec565b60405161027891906127be565b60405180910390f35b61029b60048036038101906102969190612984565b610ffe565b6040516102a891906127be565b60405180910390f35b3480156102bd57600080fd5b506102c661115f565b005b3480156102d457600080fd5b506102ef60048036038101906102ea9190612539565b6111e0565b005b3480156102fd57600080fd5b50610306611263565b60405161031391906129f3565b60405180910390f35b34801561032857600080fd5b5061033161128c565b60405161033e91906129f3565b60405180910390f35b34801561035357600080fd5b5061036e60048036038101906103699190612a0e565b6112b2565b005b6000631626ba7e60e01b7bffffffffffffffffffffffffffffffffffffffffffffffffffffffff1916827bffffffffffffffffffffffffffffffffffffffffffffffffffffffff191614806104095750639a3bfe8860e01b7bffffffffffffffffffffffffffffffffffffffffffffffffffffffff1916827bffffffffffffffffffffffffffffffffffffffffffffffffffffffff1916145b806104585750636bb56a1460e01b7bffffffffffffffffffffffffffffffffffffffffffffffffffffffff1916827bffffffffffffffffffffffffffffffffffffffffffffffffffffffff1916145b806104a7575063ad7dd9b060e01b7bffffffffffffffffffffffffffffffffffffffffffffffffffffffff1916827bffffffffffffffffffffffffffffffffffffffffffffffffffffffff1916145b806104b757506104b682611432565b5b9050919050565b3373ffffffffffffffffffffffffffffffffffffffff166104dd611263565b73ffffffffffffffffffffffffffffffffffffffff1614610533576040517f08c379a000000000000000000000000000000000000000000000000000000000815260040161052a90612a98565b60405180910390fd5b8051825114610577576040517f08c379a000000000000000000000000000000000000000000000000000000000815260040161056e90612b2a565b60405180910390fd5b60005b82518110156105d1576105c183828151811061059957610598612b4a565b5b60200260200101518383815181106105b4576105b3612b4a565b5b6020026020010151611493565b6105ca816114e5565b905061057a565b505050565b6000806105e1611263565b905060008173ffffffffffffffffffffffffffffffffffffffff163b146106a95761061381631626ba7e60e01b6114f2565b6106245763ffffffff60e01b6106a1565b8073ffffffffffffffffffffffffffffffffffffffff16631626ba7e85856040518363ffffffff1660e01b815260040161065f929190612b88565b602060405180830381865afa15801561067c573d6000803e3d6000fd5b505050506040513d601f19601f820116820180604052508101906106a09190612bcd565b5b9150506106ff565b6106b3848461161d565b73ffffffffffffffffffffffffffffffffffffffff168173ffffffffffffffffffffffffffffffffffffffff16146106f25763ffffffff60e01b6106fb565b631626ba7e60e01b5b9150505b92915050565b60603373ffffffffffffffffffffffffffffffffffffffff16610726611263565b73ffffffffffffffffffffffffffffffffffffffff161461077c576040517f08c379a000000000000000000000000000000000000000000000000000000000815260040161077390612a98565b60405180910390fd5b60005a90506000870361087f57844710156107cc576040517f08c379a00000000000000000000000000000000000000000000000000000000081526004016107c390612c6c565b60405180910390fd5b61081c868686868080601f016020809104026020016040519081016040528093929190818152602001838380828437600081840152601f19601f8201169050808301925050505050505084611644565b9150848673ffffffffffffffffffffffffffffffffffffffff16887f4810874456b8e6487bd861375cf6abd8e1c8bb5858c8ce36a86a04dabfac199e8787906108659190612ca4565b60405161087291906125a4565b60405180910390a4610e2d565b6003870361097c57600085146108ca576040517f08c379a00000000000000000000000000000000000000000000000000000000081526004016108c190612d75565b60405180910390fd5b6109198685858080601f016020809104026020016040519081016040528093929190818152602001838380828437600081840152601f19601f82011690508083019250505050505050836116d5565b9150848673ffffffffffffffffffffffffffffffffffffffff16887f4810874456b8e6487bd861375cf6abd8e1c8bb5858c8ce36a86a04dabfac199e8787906109629190612ca4565b60405161096f91906125a4565b60405180910390a4610e2c565b60048703610a7957600085146109c7576040517f08c379a00000000000000000000000000000000000000000000000000000000081526004016109be90612e07565b60405180910390fd5b610a168685858080601f016020809104026020016040519081016040528093929190818152602001838380828437600081840152601f19601f8201169050808301925050505050505083611762565b9150848673ffffffffffffffffffffffffffffffffffffffff16887f4810874456b8e6487bd861375cf6abd8e1c8bb5858c8ce36a86a04dabfac199e878790610a5f9190612ca4565b604051610a6c91906125a4565b60405180910390a4610e2b565b60018703610bf257600073ffffffffffffffffffffffffffffffffffffffff168673ffffffffffffffffffffffffffffffffffffffff1614610af0576040517f08c379a0000000000000000000000000000000000000000000000000000000008152600401610ae790612ebf565b60405180910390fd5b84471015610b33576040517f08c379a0000000000000000000000000000000000000000000000000000000008152600401610b2a90612c6c565b60405180910390fd5b6000610b838686868080601f016020809104026020016040519081016040528093929190818152602001838380828437600081840152601f19601f820116905080830192505050505050506117ef565b905080604051602001610b969190612f27565b6040516020818303038152906040529250858173ffffffffffffffffffffffffffffffffffffffff16897f01c42bd7e97a66166063b02fce6924e6656b6c2c61966630165095c4fb0b7b2f60405160405180910390a450610e2a565b60028703610dee57600073ffffffffffffffffffffffffffffffffffffffff168673ffffffffffffffffffffffffffffffffffffffff1614610c69576040517f08c379a0000000000000000000000000000000000000000000000000000000008152600401610c6090612ebf565b60405180910390fd5b84471015610cac576040517f08c379a0000000000000000000000000000000000000000000000000000000008152600401610ca390612c6c565b60405180910390fd5b6000610d0b85858080601f016020809104026020016040519081016040528093929190818152602001838380828437600081840152601f19601f82011690508083019250505050505050602087879050610d069190612f71565b6118b3565b90506000610d6e86868080601f016020809104026020016040519081016040528093929190818152602001838380828437600081840152601f19601f820116905080830192505050505050506000602089899050610d699190612f71565b61191a565b90506000610d7d888484611a38565b905080604051602001610d909190612f27565b6040516020818303038152906040529450878173ffffffffffffffffffffffffffffffffffffffff168b7f01c42bd7e97a66166063b02fce6924e6656b6c2c61966630165095c4fb0b7b2f60405160405180910390a4505050610e29565b6040517f08c379a0000000000000000000000000000000000000000000000000000000008152600401610e2090612ff1565b60405180910390fd5b5b5b5b5b5095945050505050565b6060815167ffffffffffffffff811115610e5457610e536121b2565b5b604051908082528060200260200182016040528015610e8757816020015b6060815260200190600190039081610e725790505b50905060005b8251811015610ee757610eb9838281518110610eac57610eab612b4a565b5b6020026020010151611b47565b828281518110610ecc57610ecb612b4a565b5b6020026020010181905250610ee0816114e5565b9050610e8d565b50919050565b600260009054906101000a900473ffffffffffffffffffffffffffffffffffffffff1673ffffffffffffffffffffffffffffffffffffffff163373ffffffffffffffffffffffffffffffffffffffff1614610f7d576040517f08c379a0000000000000000000000000000000000000000000000000000000008152600401610f7490613083565b60405180910390fd5b610fa8600260009054906101000a900473ffffffffffffffffffffffffffffffffffffffff16611333565b6000600260006101000a81548173ffffffffffffffffffffffffffffffffffffffff021916908373ffffffffffffffffffffffffffffffffffffffff160217905550565b6060610ff782611b47565b9050919050565b6060600061102e7f0cfc51aec37c55a4d0b1a65c6255c4bf2fbdf6277f3cc0730c45b828b6db8b4760001b611b47565b905060148151106110ee57600081611045906130f4565b60601c905061105b8163a245bbda60e01b6114f2565b156110ec578073ffffffffffffffffffffffffffffffffffffffff1663a245bbda33348989896040518663ffffffff1660e01b81526004016110a1959493929190613197565b6000604051808303816000875af11580156110c0573d6000803e3d6000fd5b505050506040513d6000823e3d601f19601f820116820180604052508101906110e99190613255565b92505b505b816040516110fc91906132da565b6040518091039020853373ffffffffffffffffffffffffffffffffffffffff167f9c3ba68eb5742b8e3961aea0afc7371a71bf433c8a67a831803b64c064a178c234888860405161114f939291906132f1565b60405180910390a4509392505050565b3373ffffffffffffffffffffffffffffffffffffffff1661117e611263565b73ffffffffffffffffffffffffffffffffffffffff16146111d4576040517f08c379a00000000000000000000000000000000000000000000000000000000081526004016111cb90612a98565b60405180910390fd5b6111de6000611333565b565b3373ffffffffffffffffffffffffffffffffffffffff166111ff611263565b73ffffffffffffffffffffffffffffffffffffffff1614611255576040517f08c379a000000000000000000000000000000000000000000000000000000000815260040161124c90612a98565b60405180910390fd5b61125f8282611493565b5050565b60008060009054906101000a900473ffffffffffffffffffffffffffffffffffffffff16905090565b600260009054906101000a900473ffffffffffffffffffffffffffffffffffffffff1681565b3373ffffffffffffffffffffffffffffffffffffffff166112d1611263565b73ffffffffffffffffffffffffffffffffffffffff1614611327576040517f08c379a000000000000000000000000000000000000000000000000000000000815260040161131e90612a98565b60405180910390fd5b61133081611bec565b50565b61133b611263565b73ffffffffffffffffffffffffffffffffffffffff168173ffffffffffffffffffffffffffffffffffffffff161461142f5760008060009054906101000a900473ffffffffffffffffffffffffffffffffffffffff169050816000806101000a81548173ffffffffffffffffffffffffffffffffffffffff021916908373ffffffffffffffffffffffffffffffffffffffff1602179055508173ffffffffffffffffffffffffffffffffffffffff168173ffffffffffffffffffffffffffffffffffffffff167f8be0079c531659141344cd1fd0a4f28419497f9722a3daafe3b4186f6b6457e060405160405180910390a3505b50565b600063714df77c60e01b7bffffffffffffffffffffffffffffffffffffffffffffffffffffffff1916827bffffffffffffffffffffffffffffffffffffffffffffffffffffffff1916148061148c575061148b82611c30565b5b9050919050565b806001600084815260200190815260200160002090816114b39190613522565b50817fcdf4e344c0d23d4cdd0474039d176c55b19d531070dbe17856bfb993a5b5720b60405160405180910390a25050565b6000600182019050919050565b6000806301ffc9a760e01b8360405160240161150e91906125a4565b604051602081830303815290604052907bffffffffffffffffffffffffffffffffffffffffffffffffffffffff19166020820180517bffffffffffffffffffffffffffffffffffffffffffffffffffffffff838183161783525050505090506000808573ffffffffffffffffffffffffffffffffffffffff166175308460405161159891906132da565b6000604051808303818686fa925050503d80600081146115d4576040519150601f19603f3d011682016040523d82523d6000602084013e6115d9565b606091505b50915091506020815110156115f45760009350505050611617565b8180156116115750808060200190518101906116109190613620565b5b93505050505b92915050565b600080600061162c8585611c91565b9150915061163981611d12565b819250505092915050565b60606000808673ffffffffffffffffffffffffffffffffffffffff1684878760405161167091906132da565b600060405180830381858888f193505050503d80600081146116ae576040519150601f19603f3d011682016040523d82523d6000602084013e6116b3565b606091505b5091509150816116c8576116c681611ede565b505b8092505050949350505050565b60606000808573ffffffffffffffffffffffffffffffffffffffff16848660405161170091906132da565b6000604051808303818686fa925050503d806000811461173c576040519150601f19603f3d011682016040523d82523d6000602084013e611741565b606091505b5091509150816117565761175481611ede565b505b80925050509392505050565b60606000808573ffffffffffffffffffffffffffffffffffffffff16848660405161178d91906132da565b6000604051808303818686f4925050503d80600081146117c9576040519150601f19603f3d011682016040523d82523d6000602084013e6117ce565b606091505b5091509150816117e3576117e181611ede565b505b80925050509392505050565b600080825103611834576040517f08c379a000000000000000000000000000000000000000000000000000000000815260040161182b90613699565b60405180910390fd5b81516020830184f09050600073ffffffffffffffffffffffffffffffffffffffff168173ffffffffffffffffffffffffffffffffffffffff16036118ad576040517f08c379a00000000000000000000000000000000000000000000000000000000081526004016118a490613705565b60405180910390fd5b92915050565b60006020826118c29190613725565b83511015611905576040517f08c379a00000000000000000000000000000000000000000000000000000000081526004016118fc906137c7565b60405180910390fd5b60008260208501015190508091505092915050565b606081601f8361192a9190613725565b101561196b576040517f08c379a000000000000000000000000000000000000000000000000000000000815260040161196290613833565b60405180910390fd5b81836119779190613725565b845110156119ba576040517f08c379a00000000000000000000000000000000000000000000000000000000081526004016119b19061389f565b60405180910390fd5b60608215600081146119db5760405191506000825260208201604052611a2c565b6040519150601f8416801560200281840101858101878315602002848b0101015b81831015611a1957805183526020830192506020810190506119fc565b50868552601f19601f8301166040525050505b50809150509392505050565b60008084471015611a7e576040517f08c379a0000000000000000000000000000000000000000000000000000000008152600401611a759061390b565b60405180910390fd5b6000835103611ac2576040517f08c379a0000000000000000000000000000000000000000000000000000000008152600401611ab990613977565b60405180910390fd5b8383516020850187f59050600073ffffffffffffffffffffffffffffffffffffffff168173ffffffffffffffffffffffffffffffffffffffff1603611b3c576040517f08c379a0000000000000000000000000000000000000000000000000000000008152600401611b33906139e3565b60405180910390fd5b809150509392505050565b6060600160008381526020019081526020016000208054611b6790613352565b80601f0160208091040260200160405190810160405280929190818152602001828054611b9390613352565b8015611be05780601f10611bb557610100808354040283529160200191611be0565b820191906000526020600020905b815481529060010190602001808311611bc357829003601f168201915b50505050509050919050565b80600260006101000a81548173ffffffffffffffffffffffffffffffffffffffff021916908373ffffffffffffffffffffffffffffffffffffffff16021790555050565b60006344c028fe60e01b7bffffffffffffffffffffffffffffffffffffffffffffffffffffffff1916827bffffffffffffffffffffffffffffffffffffffffffffffffffffffff19161480611c8a5750611c8982611ef8565b5b9050919050565b6000806041835103611cd25760008060006020860151925060408601519150606086015160001a9050611cc687828585611f62565b94509450505050611d0b565b6040835103611d02576000806020850151915060408501519050611cf786838361206e565b935093505050611d0b565b60006002915091505b9250929050565b60006004811115611d2657611d25613a03565b5b816004811115611d3957611d38613a03565b5b0315611edb5760016004811115611d5357611d52613a03565b5b816004811115611d6657611d65613a03565b5b03611da6576040517f08c379a0000000000000000000000000000000000000000000000000000000008152600401611d9d90613a7e565b60405180910390fd5b60026004811115611dba57611db9613a03565b5b816004811115611dcd57611dcc613a03565b5b03611e0d576040517f08c379a0000000000000000000000000000000000000000000000000000000008152600401611e0490613aea565b60405180910390fd5b60036004811115611e2157611e20613a03565b5b816004811115611e3457611e33613a03565b5b03611e74576040517f08c379a0000000000000000000000000000000000000000000000000000000008152600401611e6b90613b7c565b60405180910390fd5b600480811115611e8757611e86613a03565b5b816004811115611e9a57611e99613a03565b5b03611eda576040517f08c379a0000000000000000000000000000000000000000000000000000000008152600401611ed190613c0e565b60405180910390fd5b5b50565b6060600082511115611ef35781518083602001fd5b600080fd5b60007f01ffc9a7000000000000000000000000000000000000000000000000000000007bffffffffffffffffffffffffffffffffffffffffffffffffffffffff1916827bffffffffffffffffffffffffffffffffffffffffffffffffffffffff1916149050919050565b6000807f7fffffffffffffffffffffffffffffff5d576e7357a4501ddfe92f46681b20a08360001c1115611f9d576000600391509150612065565b601b8560ff1614158015611fb55750601c8560ff1614155b15611fc7576000600491509150612065565b600060018787878760405160008152602001604052604051611fec9493929190613c4a565b6020604051602081039080840390855afa15801561200e573d6000803e3d6000fd5b505050602060405103519050600073ffffffffffffffffffffffffffffffffffffffff168173ffffffffffffffffffffffffffffffffffffffff160361205c57600060019250925050612065565b80600092509250505b94509492505050565b60008060007f7fffffffffffffffffffffffffffffffffffffffffffffffffffffffffffffff60001b841690506000601b60ff8660001c901c6120b19190613725565b90506120bf87828885611f62565b935093505050935093915050565b6000604051905090565b600080fd5b600080fd5b60007fffffffff0000000000000000000000000000000000000000000000000000000082169050919050565b612116816120e1565b811461212157600080fd5b50565b6000813590506121338161210d565b92915050565b60006020828403121561214f5761214e6120d7565b5b600061215d84828501612124565b91505092915050565b60008115159050919050565b61217b81612166565b82525050565b60006020820190506121966000830184612172565b92915050565b600080fd5b6000601f19601f8301169050919050565b7f4e487b7100000000000000000000000000000000000000000000000000000000600052604160045260246000fd5b6121ea826121a1565b810181811067ffffffffffffffff82111715612209576122086121b2565b5b80604052505050565b600061221c6120cd565b905061222882826121e1565b919050565b600067ffffffffffffffff821115612248576122476121b2565b5b602082029050602081019050919050565b600080fd5b6000819050919050565b6122718161225e565b811461227c57600080fd5b50565b60008135905061228e81612268565b92915050565b60006122a76122a28461222d565b612212565b905080838252602082019050602084028301858111156122ca576122c9612259565b5b835b818110156122f357806122df888261227f565b8452602084019350506020810190506122cc565b5050509392505050565b600082601f8301126123125761231161219c565b5b8135612322848260208601612294565b91505092915050565b600067ffffffffffffffff821115612346576123456121b2565b5b602082029050602081019050919050565b600080fd5b600067ffffffffffffffff821115612377576123766121b2565b5b612380826121a1565b9050602081019050919050565b82818337600083830152505050565b60006123af6123aa8461235c565b612212565b9050828152602081018484840111156123cb576123ca612357565b5b6123d684828561238d565b509392505050565b600082601f8301126123f3576123f261219c565b5b813561240384826020860161239c565b91505092915050565b600061241f61241a8461232b565b612212565b9050808382526020820190506020840283018581111561244257612441612259565b5b835b8181101561248957803567ffffffffffffffff8111156124675761246661219c565b5b80860161247489826123de565b85526020850194505050602081019050612444565b5050509392505050565b600082601f8301126124a8576124a761219c565b5b81356124b884826020860161240c565b91505092915050565b600080604083850312156124d8576124d76120d7565b5b600083013567ffffffffffffffff8111156124f6576124f56120dc565b5b612502858286016122fd565b925050602083013567ffffffffffffffff811115612523576125226120dc565b5b61252f85828601612493565b9150509250929050565b600080604083850312156125505761254f6120d7565b5b600061255e8582860161227f565b925050602083013567ffffffffffffffff81111561257f5761257e6120dc565b5b61258b858286016123de565b9150509250929050565b61259e816120e1565b82525050565b60006020820190506125b96000830184612595565b92915050565b6000819050919050565b6125d2816125bf565b81146125dd57600080fd5b50565b6000813590506125ef816125c9565b92915050565b600073ffffffffffffffffffffffffffffffffffffffff82169050919050565b6000612620826125f5565b9050919050565b61263081612615565b811461263b57600080fd5b50565b60008135905061264d81612627565b92915050565b600080fd5b60008083601f84011261266e5761266d61219c565b5b8235905067ffffffffffffffff81111561268b5761268a612653565b5b6020830191508360018202830111156126a7576126a6612259565b5b9250929050565b6000806000806000608086880312156126ca576126c96120d7565b5b60006126d8888289016125e0565b95505060206126e98882890161263e565b94505060406126fa888289016125e0565b935050606086013567ffffffffffffffff81111561271b5761271a6120dc565b5b61272788828901612658565b92509250509295509295909350565b600081519050919050565b600082825260208201905092915050565b60005b83811015612770578082015181840152602081019050612755565b8381111561277f576000848401525b50505050565b600061279082612736565b61279a8185612741565b93506127aa818560208601612752565b6127b3816121a1565b840191505092915050565b600060208201905081810360008301526127d88184612785565b905092915050565b6000602082840312156127f6576127f56120d7565b5b600082013567ffffffffffffffff811115612814576128136120dc565b5b612820848285016122fd565b91505092915050565b600081519050919050565b600082825260208201905092915050565b6000819050602082019050919050565b600082825260208201905092915050565b600061287182612736565b61287b8185612855565b935061288b818560208601612752565b612894816121a1565b840191505092915050565b60006128ab8383612866565b905092915050565b6000602082019050919050565b60006128cb82612829565b6128d58185612834565b9350836020820285016128e785612845565b8060005b858110156129235784840389528151612904858261289f565b945061290f836128b3565b925060208a019950506001810190506128eb565b50829750879550505050505092915050565b6000602082019050818103600083015261294f81846128c0565b905092915050565b60006020828403121561296d5761296c6120d7565b5b600061297b8482850161227f565b91505092915050565b60008060006040848603121561299d5761299c6120d7565b5b60006129ab8682870161227f565b935050602084013567ffffffffffffffff8111156129cc576129cb6120dc565b5b6129d886828701612658565b92509250509250925092565b6129ed81612615565b82525050565b6000602082019050612a0860008301846129e4565b92915050565b600060208284031215612a2457612a236120d7565b5b6000612a328482850161263e565b91505092915050565b600082825260208201905092915050565b7f4f776e61626c653a2063616c6c6572206973206e6f7420746865206f776e6572600082015250565b6000612a82602083612a3b565b9150612a8d82612a4c565b602082019050919050565b60006020820190508181036000830152612ab181612a75565b9050919050565b7f4b657973206c656e677468206e6f7420657175616c20746f2076616c7565732060008201527f6c656e6774680000000000000000000000000000000000000000000000000000602082015250565b6000612b14602683612a3b565b9150612b1f82612ab8565b604082019050919050565b60006020820190508181036000830152612b4381612b07565b9050919050565b7f4e487b7100000000000000000000000000000000000000000000000000000000600052603260045260246000fd5b612b828161225e565b82525050565b6000604082019050612b9d6000830185612b79565b8181036020830152612baf8184612785565b90509392505050565b600081519050612bc78161210d565b92915050565b600060208284031215612be357612be26120d7565b5b6000612bf184828501612bb8565b91505092915050565b7f455243373235583a20696e73756666696369656e742062616c616e636520666f60008201527f722063616c6c0000000000000000000000000000000000000000000000000000602082015250565b6000612c56602683612a3b565b9150612c6182612bfa565b604082019050919050565b60006020820190508181036000830152612c8581612c49565b9050919050565b600082905092915050565b600082821b905092915050565b6000612cb08383612c8c565b82612cbb81356120e1565b92506004821015612cfb57612cf67fffffffff0000000000000000000000000000000000000000000000000000000083600403600802612c97565b831692505b505092915050565b7f455243373235583a2063616e6e6f74207472616e736665722076616c7565207760008201527f697468206f7065726174696f6e2053544154494343414c4c0000000000000000602082015250565b6000612d5f603883612a3b565b9150612d6a82612d03565b604082019050919050565b60006020820190508181036000830152612d8e81612d52565b9050919050565b7f455243373235583a2063616e6e6f74207472616e736665722076616c7565207760008201527f697468206f7065726174696f6e2044454c454741544543414c4c000000000000602082015250565b6000612df1603a83612a3b565b9150612dfc82612d95565b604082019050919050565b60006020820190508181036000830152612e2081612de4565b9050919050565b7f455243373235583a20435245415445206f7065726174696f6e7320726571756960008201527f726520746865207265636569766572206164647265737320746f20626520656d60208201527f7074790000000000000000000000000000000000000000000000000000000000604082015250565b6000612ea9604383612a3b565b9150612eb482612e27565b606082019050919050565b60006020820190508181036000830152612ed881612e9c565b9050919050565b60008160601b9050919050565b6000612ef782612edf565b9050919050565b6000612f0982612eec565b9050919050565b612f21612f1c82612615565b612efe565b82525050565b6000612f338284612f10565b60148201915081905092915050565b7f4e487b7100000000000000000000000000000000000000000000000000000000600052601160045260246000fd5b6000612f7c826125bf565b9150612f87836125bf565b925082821015612f9a57612f99612f42565b5b828203905092915050565b7f57726f6e67206f7065726174696f6e2074797065000000000000000000000000600082015250565b6000612fdb601483612a3b565b9150612fe682612fa5565b602082019050919050565b6000602082019050818103600083015261300a81612fce565b9050919050565b7f4f776e61626c65436c61696d3a2063616c6c6572206973206e6f74207468652060008201527f70656e64696e674f776e65720000000000000000000000000000000000000000602082015250565b600061306d602c83612a3b565b915061307882613011565b604082019050919050565b6000602082019050818103600083015261309c81613060565b9050919050565b6000819050602082019050919050565b60007fffffffffffffffffffffffffffffffffffffffff00000000000000000000000082169050919050565b60006130eb82516130b3565b80915050919050565b60006130ff82612736565b82613109846130a3565b9050613114816130df565b925060148210156131545761314f7fffffffffffffffffffffffffffffffffffffffff00000000000000000000000083601403600802612c97565b831692505b5050919050565b613164816125bf565b82525050565b60006131768385612741565b935061318383858461238d565b61318c836121a1565b840190509392505050565b60006080820190506131ac60008301886129e4565b6131b9602083018761315b565b6131c66040830186612b79565b81810360608301526131d981848661316a565b90509695505050505050565b60006131f86131f38461235c565b612212565b90508281526020810184848401111561321457613213612357565b5b61321f848285612752565b509392505050565b600082601f83011261323c5761323b61219c565b5b815161324c8482602086016131e5565b91505092915050565b60006020828403121561326b5761326a6120d7565b5b600082015167ffffffffffffffff811115613289576132886120dc565b5b61329584828501613227565b91505092915050565b600081905092915050565b60006132b482612736565b6132be818561329e565b93506132ce818560208601612752565b80840191505092915050565b60006132e682846132a9565b915081905092915050565b6000604082019050613306600083018661315b565b818103602083015261331981848661316a565b9050949350505050565b7f4e487b7100000000000000000000000000000000000000000000000000000000600052602260045260246000fd5b6000600282049050600182168061336a57607f821691505b60208210810361337d5761337c613323565b5b50919050565b60008190508160005260206000209050919050565b60006020601f8301049050919050565b6000600883026133d87fffffffffffffffffffffffffffffffffffffffffffffffffffffffffffffffff82612c97565b6133e28683612c97565b95508019841693508086168417925050509392505050565b6000819050919050565b600061341f61341a613415846125bf565b6133fa565b6125bf565b9050919050565b6000819050919050565b61343983613404565b61344d61344582613426565b8484546133a8565b825550505050565b600090565b613462613455565b61346d818484613430565b505050565b5b818110156134915761348660008261345a565b600181019050613473565b5050565b601f8211156134d6576134a781613383565b6134b084613398565b810160208510156134bf578190505b6134d36134cb85613398565b830182613472565b50505b505050565b600082821c905092915050565b60006134f9600019846008026134db565b1980831691505092915050565b600061351283836134e8565b9150826002028217905092915050565b61352b82612736565b67ffffffffffffffff811115613544576135436121b2565b5b61354e8254613352565b613559828285613495565b600060209050601f83116001811461358c576000841561357a578287015190505b6135848582613506565b8655506135ec565b601f19841661359a86613383565b60005b828110156135c25784890151825560018201915060208501945060208101905061359d565b868310156135df57848901516135db601f8916826134e8565b8355505b6001600288020188555050505b505050505050565b6135fd81612166565b811461360857600080fd5b50565b60008151905061361a816135f4565b92915050565b600060208284031215613636576136356120d7565b5b60006136448482850161360b565b91505092915050565b7f6e6f20636f6e74726163742062797465636f64652070726f7669646564000000600082015250565b6000613683601d83612a3b565b915061368e8261364d565b602082019050919050565b600060208201905081810360008301526136b281613676565b9050919050565b7f436f756c64206e6f74206465706c6f7920636f6e747261637400000000000000600082015250565b60006136ef601983612a3b565b91506136fa826136b9565b602082019050919050565b6000602082019050818103600083015261371e816136e2565b9050919050565b6000613730826125bf565b915061373b836125bf565b9250827fffffffffffffffffffffffffffffffffffffffffffffffffffffffffffffffff038211156137705761376f612f42565b5b828201905092915050565b7f746f427974657333325f6f75744f66426f756e64730000000000000000000000600082015250565b60006137b1601583612a3b565b91506137bc8261377b565b602082019050919050565b600060208201905081810360008301526137e0816137a4565b9050919050565b7f736c6963655f6f766572666c6f77000000000000000000000000000000000000600082015250565b600061381d600e83612a3b565b9150613828826137e7565b602082019050919050565b6000602082019050818103600083015261384c81613810565b9050919050565b7f736c6963655f6f75744f66426f756e6473000000000000000000000000000000600082015250565b6000613889601183612a3b565b915061389482613853565b602082019050919050565b600060208201905081810360008301526138b88161387c565b9050919050565b7f437265617465323a20696e73756666696369656e742062616c616e6365000000600082015250565b60006138f5601d83612a3b565b9150613900826138bf565b602082019050919050565b60006020820190508181036000830152613924816138e8565b9050919050565b7f437265617465323a2062797465636f6465206c656e677468206973207a65726f600082015250565b6000613961602083612a3b565b915061396c8261392b565b602082019050919050565b6000602082019050818103600083015261399081613954565b9050919050565b7f437265617465323a204661696c6564206f6e206465706c6f7900000000000000600082015250565b60006139cd601983612a3b565b91506139d882613997565b602082019050919050565b600060208201905081810360008301526139fc816139c0565b9050919050565b7f4e487b7100000000000000000000000000000000000000000000000000000000600052602160045260246000fd5b7f45434453413a20696e76616c6964207369676e61747572650000000000000000600082015250565b6000613a68601883612a3b565b9150613a7382613a32565b602082019050919050565b60006020820190508181036000830152613a9781613a5b565b9050919050565b7f45434453413a20696e76616c6964207369676e6174757265206c656e67746800600082015250565b6000613ad4601f83612a3b565b9150613adf82613a9e565b602082019050919050565b60006020820190508181036000830152613b0381613ac7565b9050919050565b7f45434453413a20696e76616c6964207369676e6174757265202773272076616c60008201527f7565000000000000000000000000000000000000000000000000000000000000602082015250565b6000613b66602283612a3b565b9150613b7182613b0a565b604082019050919050565b60006020820190508181036000830152613b9581613b59565b9050919050565b7f45434453413a20696e76616c6964207369676e6174757265202776272076616c60008201527f7565000000000000000000000000000000000000000000000000000000000000602082015250565b6000613bf8602283612a3b565b9150613c0382613b9c565b604082019050919050565b60006020820190508181036000830152613c2781613beb565b9050919050565b600060ff82169050919050565b613c4481613c2e565b82525050565b6000608082019050613c5f6000830187612b79565b613c6c6020830186613c3b565b613c796040830185612b79565b613c866060830184612b79565b9594505050505056fea264697066735822122038048651f28e0f97d8688e1d9403471e410e29fcf423945cc004ce085b4d35eb64736f6c634300080f003360806040523480156200001157600080fd5b5060405162004cc438038062004cc48339818101604052810190620000379190620000e8565b806000806101000a81548173ffffffffffffffffffffffffffffffffffffffff021916908373ffffffffffffffffffffffffffffffffffffffff160217905550506200011a565b600080fd5b600073ffffffffffffffffffffffffffffffffffffffff82169050919050565b6000620000b08262000083565b9050919050565b620000c281620000a3565b8114620000ce57600080fd5b50565b600081519050620000e281620000b7565b92915050565b6000602082840312156200010157620001006200007e565b5b60006200011184828501620000d1565b91505092915050565b614b9a806200012a6000396000f3fe6080604052600436106100705760003560e01c8063895358031161004e578063895358031461011f578063902d5fa01461015c578063aacd73211461018c578063d4b83992146101a357610070565b806301ffc9a71461007557806309c5eabe146100b25780631626ba7e146100e2575b600080fd5b34801561008157600080fd5b5061009c60048036038101906100979190612f8a565b6101ce565b6040516100a99190612fd2565b60405180910390f35b6100cc60048036038101906100c79190613052565b61027e565b6040516100d99190613138565b60405180910390f35b3480156100ee57600080fd5b50610109600480360381019061010491906132c0565b6103a2565b604051610116919061332b565b60405180910390f35b34801561012b57600080fd5b50610146600480360381019061014191906133da565b61043d565b6040516101539190613429565b60405180910390f35b61017660048036038101906101719190613444565b6104b5565b6040516101839190613138565b60405180910390f35b34801561019857600080fd5b506101a16106e2565b005b3480156101af57600080fd5b506101b86107f4565b6040516101c591906134e3565b60405180910390f35b600063c403d48f60e01b7bffffffffffffffffffffffffffffffffffffffffffffffffffffffff1916827bffffffffffffffffffffffffffffffffffffffffffffffffffffffff191614806102675750631626ba7e60e01b7bffffffffffffffffffffffffffffffffffffffffffffffffffffffff1916827bffffffffffffffffffffffffffffffffffffffffffffffffffffffff1916145b80610277575061027682610818565b5b9050919050565b606061028b338484610882565b60008060008054906101000a900473ffffffffffffffffffffffffffffffffffffffff1673ffffffffffffffffffffffffffffffffffffffff16345a9087876040516102d892919061352e565b600060405180830381858888f193505050503d8060008114610316576040519150601f19603f3d011682016040523d82523d6000602084013e61031b565b606091505b5091509150816103305761032e81610e08565b505b347f6b9340454526f665e369d7ac17353d0b73774a4a80f746b959ece8130e0f1d7286869061035f919061355f565b60405161036c919061332b565b60405180910390a260008151036103835780610398565b80806020019051810190610397919061362e565b5b9250505092915050565b6000806103b88385610e2290919063ffffffff16565b905061041a61020060001b61040c8360008054906101000a900473ffffffffffffffffffffffffffffffffffffffff1673ffffffffffffffffffffffffffffffffffffffff16610e4990919063ffffffff16565b610efb90919063ffffffff16565b61042b5763ffffffff60e01b610434565b631626ba7e60e01b5b91505092915050565b600080600160008573ffffffffffffffffffffffffffffffffffffffff1673ffffffffffffffffffffffffffffffffffffffff1681526020019081526020016000206000848152602001908152602001600020549050806fffffffffffffffffffffffffffffffff16608084901b1791505092915050565b6060600046308686866040516020016104d29594939291906136e0565b60405160208183030381529060405290506000610507876104f98480519060200120610f0a565b610e2290919063ffffffff16565b90506105138187610f3a565b610552576040517f08c379a000000000000000000000000000000000000000000000000000000000815260040161054990613789565b60405180910390fd5b600160008273ffffffffffffffffffffffffffffffffffffffff1673ffffffffffffffffffffffffffffffffffffffff1681526020019081526020016000206000608088901c815260200190815260200160002060008154809291906105b7906137d8565b91905055506105c7818686610882565b60008060008054906101000a900473ffffffffffffffffffffffffffffffffffffffff1673ffffffffffffffffffffffffffffffffffffffff16345a90898960405161061492919061352e565b600060405180830381858888f193505050503d8060008114610652576040519150601f19603f3d011682016040523d82523d6000602084013e610657565b606091505b50915091508161066c5761066a81610e08565b505b347f6b9340454526f665e369d7ac17353d0b73774a4a80f746b959ece8130e0f1d7288889061069b919061355f565b6040516106a8919061332b565b60405180910390a260008151036106bf57806106d4565b808060200190518101906106d3919061362e565b5b945050505050949350505050565b600260009054906101000a900473ffffffffffffffffffffffffffffffffffffffff1673ffffffffffffffffffffffffffffffffffffffff163373ffffffffffffffffffffffffffffffffffffffff1614610772576040517f08c379a00000000000000000000000000000000000000000000000000000000081526004016107699061386c565b60405180910390fd5b60008054906101000a900473ffffffffffffffffffffffffffffffffffffffff1673ffffffffffffffffffffffffffffffffffffffff16634e71e0c86040518163ffffffff1660e01b8152600401600060405180830381600087803b1580156107da57600080fd5b505af11580156107ee573d6000803e3d6000fd5b50505050565b60008054906101000a900473ffffffffffffffffffffffffffffffffffffffff1681565b60007f01ffc9a7000000000000000000000000000000000000000000000000000000007bffffffffffffffffffffffffffffffffffffffffffffffffffffffff1916827bffffffffffffffffffffffffffffffffffffffffffffffffffffffff1916149050919050565b6000828260009060049261089893929190613896565b906108a3919061355f565b905060006108f08560008054906101000a900473ffffffffffffffffffffffffffffffffffffffff1673ffffffffffffffffffffffffffffffffffffffff16610e4990919063ffffffff16565b90506000801b810361093957846040517ff292052a00000000000000000000000000000000000000000000000000000000815260040161093091906134e3565b60405180910390fd5b7f7f23690cc80a596acdae0a51503f8066ffd79ab76fd5c929578309d2e2883b777bffffffffffffffffffffffffffffffffffffffffffffffffffffffff1916827bffffffffffffffffffffffffffffffffffffffffffffffffffffffff191603610ae757600080858560049080926109b493929190613896565b8101906109c191906132c0565b91509150654b80742de2bf60d01b79ffffffffffffffffffffffffffffffffffffffffffffffffffff19168279ffffffffffffffffffffffffffffffffffffffffffffffffffff19161480610a4e57506fdf30dba06db6a30e65354d9a64c6098660801b6fffffffffffffffffffffffffffffffff1916826fffffffffffffffffffffffffffffffff1916145b15610a6457610a5f82828986610fb7565b610ae0565b6000600167ffffffffffffffff811115610a8157610a80613195565b5b604051908082528060200260200182016040528015610aaf5781602001602082028036833780820191505090505b5090508281600081518110610ac757610ac66138d1565b5b602002602001018181525050610ade888583611519565b505b5050610e01565b7f14a6e2931875c22579e483160c8d2832a3fb3acbd575a49f6a0f7fc5e135f7897bffffffffffffffffffffffffffffffffffffffffffffffffffffffff1916827bffffffffffffffffffffffffffffffffffffffffffffffffffffffff191603610cb55760008085856004908092610b6293929190613896565b810190610b6f9190613aa4565b915091506000805b8351811015610c9a576000848281518110610b9557610b946138d1565b5b602002602001015190506000848381518110610bb457610bb36138d1565b5b60200260200101519050654b80742de2bf60d01b79ffffffffffffffffffffffffffffffffffffffffffffffffffff19168279ffffffffffffffffffffffffffffffffffffffffffffffffffff19161480610c4757506fdf30dba06db6a30e65354d9a64c6098660801b6fffffffffffffffffffffffffffffffff1916826fffffffffffffffffffffffffffffffff1916145b15610c8057610c5882828d8a610fb7565b6000801b868481518110610c6f57610c6e6138d1565b5b602002602001018181525050610c85565b600193505b50508080610c92906137d8565b915050610b77565b508015610cad57610cac888585611519565b5b505050610e00565b6344c028fe60e01b7bffffffffffffffffffffffffffffffffffffffffffffffffffffffff1916827bffffffffffffffffffffffffffffffffffffffffffffffffffffffff191603610d1257610d0d85828686611555565b610dff565b63f2fde38b60e01b7bffffffffffffffffffffffffffffffffffffffffffffffffffffffff1916827bffffffffffffffffffffffffffffffffffffffffffffffffffffffff19161480610da95750634e71e0c860e01b7bffffffffffffffffffffffffffffffffffffffffffffffffffffffff1916827bffffffffffffffffffffffffffffffffffffffffffffffffffffffff1916145b15610dc357610dbd8582600160001b6117e8565b50610dfe565b6040517f08c379a0000000000000000000000000000000000000000000000000000000008152600401610df590613b8e565b60405180910390fd5b5b5b5b5050505050565b6060600082511115610e1d5781518083602001fd5b600080fd5b6000806000610e318585611854565b91509150610e3e816118d5565b819250505092915050565b6000808373ffffffffffffffffffffffffffffffffffffffff166354f6127f610e846b4b80742de2bf82acb363000060a01b8660601b611aa1565b6040518263ffffffff1660e01b8152600401610ea09190613bbd565b600060405180830381865afa158015610ebd573d6000803e3d6000fd5b505050506040513d6000823e3d601f19601f82011682018060405250810190610ee6919061362e565b905080610ef290613bfd565b91505092915050565b60008182841614905092915050565b600081604051602001610f1d9190613cdc565b604051602081830303815290604052805190602001209050919050565b6000600160008473ffffffffffffffffffffffffffffffffffffffff1673ffffffffffffffffffffffffffffffffffffffff1681526020019081526020016000206000608084901c81526020019081526020016000205470010000000000000000000000000000000083610fae9190613d31565b14905092915050565b6b4b80742de2bf82acb363000060a01b73ffffffffffffffffffffffffffffffffffffffff19168473ffffffffffffffffffffffffffffffffffffffff19160361100b57611006848383611ada565b611513565b7fdf30dba06db6a30e65354d9a64c609861f089545ca58c6b4dbe31a5f338cb0e360001b84036110465761104184848484611bb6565b611512565b6fdf30dba06db6a30e65354d9a64c6098660801b6fffffffffffffffffffffffffffffffff1916846fffffffffffffffffffffffffffffffff19160361109b576110958282600260001b6117e8565b50611511565b6b4b80742de2bfc6dd6b3c000060a01b73ffffffffffffffffffffffffffffffffffffffff19168473ffffffffffffffffffffffffffffffffffffffff191603611200576110e883611cad565b611127576040517f08c379a000000000000000000000000000000000000000000000000000000000815260040161111e90613dd4565b60405180910390fd5b60008060009054906101000a900473ffffffffffffffffffffffffffffffffffffffff1673ffffffffffffffffffffffffffffffffffffffff166354f6127f866040518263ffffffff1660e01b81526004016111839190613bbd565b600060405180830381865afa1580156111a0573d6000803e3d6000fd5b505050506040513d6000823e3d601f19601f820116820180604052508101906111c9919061362e565b905060008151036111e9576111e38383600460001b6117e8565b506111fa565b6111f88383600260001b6117e8565b505b50611510565b6b4b80742de2bf8efea1e8000060a01b73ffffffffffffffffffffffffffffffffffffffff19168473ffffffffffffffffffffffffffffffffffffffff1916148061128757506b4b80742de2bf3efa94a3000060a01b73ffffffffffffffffffffffffffffffffffffffff19168473ffffffffffffffffffffffffffffffffffffffff1916145b156113ad5761129583611d98565b6112d4576040517f08c379a00000000000000000000000000000000000000000000000000000000081526004016112cb90613e66565b60405180910390fd5b60008060009054906101000a900473ffffffffffffffffffffffffffffffffffffffff1673ffffffffffffffffffffffffffffffffffffffff166354f6127f866040518263ffffffff1660e01b81526004016113309190613bbd565b600060405180830381865afa15801561134d573d6000803e3d6000fd5b505050506040513d6000823e3d601f19601f82011682018060405250810190611376919061362e565b90506000815103611396576113908383600460001b6117e8565b506113a7565b6113a58383600260001b6117e8565b505b5061150f565b6b4b80742de2bf90b8b485000060a01b73ffffffffffffffffffffffffffffffffffffffff19168473ffffffffffffffffffffffffffffffffffffffff19160361150e576113fa83611e73565b611439576040517f08c379a000000000000000000000000000000000000000000000000000000000815260040161143090613ef8565b60405180910390fd5b60008060009054906101000a900473ffffffffffffffffffffffffffffffffffffffff1673ffffffffffffffffffffffffffffffffffffffff166354f6127f866040518263ffffffff1660e01b81526004016114959190613bbd565b600060405180830381865afa1580156114b2573d6000803e3d6000fd5b505050506040513d6000823e3d601f19601f820116820180604052508101906114db919061362e565b905060008151036114fb576114f58383600460001b6117e8565b5061150c565b61150a8383600260001b6117e8565b505b505b5b5b5b5b5b50505050565b61153161040060001b83610efb90919063ffffffff16565b611550576115448383600860001b6117e8565b5061154f8382611f0c565b5b505050565b6000828260049060249261156b93929190613896565b906115769190613f18565b60001c9050600581106115be576040517f08c379a00000000000000000000000000000000000000000000000000000000081526004016115b590613fe9565b60405180910390fd5b60048103611601576040517f08c379a00000000000000000000000000000000000000000000000000000000081526004016115f89061407b565b60405180910390fd5b6000838360449060649261161793929190613896565b906116229190613f18565b60001c9050600060018314806116385750600283145b9050600060a48686905011905060008261166c576116676116588661214f565b89610efb90919063ffffffff16565b61166f565b60005b905081156116945780806116925750611691898961168c88612195565b6117e8565b5b505b60006116ae61080060001b8a610efb90919063ffffffff16565b905060008511156116d35780806116d157506116d08a8a61010060001b6117e8565b5b505b83156116e4575050505050506117e2565b8180156116ee5750825b80156116fa5750600085145b1561170a575050505050506117e2565b808015611715575082155b80156117215750600085115b15611731575050505050506117e2565b81801561173b5750805b1561174b575050505050506117e2565b6000888860309060449261176193929190613896565b9061176c91906140c7565b60601c905061177b8b82612200565b60008173ffffffffffffffffffffffffffffffffffffffff163b11156117da576117a58b8261233e565b60a889899050106117d9576117d88b8a8a60a49060a8926117c893929190613896565b906117d3919061355f565b612473565b5b5b505050505050505b50505050565b60006117fd8284610efb90919063ffffffff16565b61184d57600061180c836125c3565b905084816040517f3bdad6e600000000000000000000000000000000000000000000000000000000815260040161184492919061416a565b60405180910390fd5b9392505050565b60008060418351036118955760008060006020860151925060408601519150606086015160001a90506118898782858561289d565b945094505050506118ce565b60408351036118c55760008060208501519150604085015190506118ba8683836129a9565b9350935050506118ce565b60006002915091505b9250929050565b600060048111156118e9576118e861419a565b5b8160048111156118fc576118fb61419a565b5b0315611a9e57600160048111156119165761191561419a565b5b8160048111156119295761192861419a565b5b03611969576040517f08c379a000000000000000000000000000000000000000000000000000000000815260040161196090614215565b60405180910390fd5b6002600481111561197d5761197c61419a565b5b8160048111156119905761198f61419a565b5b036119d0576040517f08c379a00000000000000000000000000000000000000000000000000000000081526004016119c790614281565b60405180910390fd5b600360048111156119e4576119e361419a565b5b8160048111156119f7576119f661419a565b5b03611a37576040517f08c379a0000000000000000000000000000000000000000000000000000000008152600401611a2e90614313565b60405180910390fd5b600480811115611a4a57611a4961419a565b5b816004811115611a5d57611a5c61419a565b5b03611a9d576040517f08c379a0000000000000000000000000000000000000000000000000000000008152600401611a94906143a5565b60405180910390fd5b5b50565b6000808383604051602001611ab7929190614433565b6040516020818303038152906040529050611ad181612a08565b91505092915050565b6000801b60008054906101000a900473ffffffffffffffffffffffffffffffffffffffff1673ffffffffffffffffffffffffffffffffffffffff166354f6127f856040518263ffffffff1660e01b8152600401611b379190613bbd565b600060405180830381865afa158015611b54573d6000803e3d6000fd5b505050506040513d6000823e3d601f19601f82011682018060405250810190611b7d919061362e565b611b8690613bfd565b03611ba057611b9a8282600460001b6117e8565b50611bb1565b611baf8282600260001b6117e8565b505b505050565b60008060009054906101000a900473ffffffffffffffffffffffffffffffffffffffff1673ffffffffffffffffffffffffffffffffffffffff166354f6127f866040518263ffffffff1660e01b8152600401611c129190613bbd565b600060405180830381865afa158015611c2f573d6000803e3d6000fd5b505050506040513d6000823e3d601f19601f82011682018060405250810190611c58919061362e565b611c6190613bfd565b60001c9050600084611c7290613bfd565b60001c905081811115611c9457611c8e8484600460001b6117e8565b50611ca5565b611ca38484600260001b6117e8565b505b505050505050565b6000611cb882611e73565b611cc55760009050611d93565b600082611cd190613bfd565b60001c90506000611ceb8285612a1690919063ffffffff16565b90506000602083611cfc919061445f565b905060005b82811015611d8a576000611d1e8388612a7d90919063ffffffff16565b9050600060a01b73ffffffffffffffffffffffffffffffffffffffff19168173ffffffffffffffffffffffffffffffffffffffff191614611d6757600095505050505050611d93565b602083611d74919061445f565b9250508080611d82906137d8565b915050611d01565b50600193505050505b919050565b6000611da382611e73565b611db05760009050611e6e565b600082611dbc90613bfd565b60001c90506000611dd68285612a1690919063ffffffff16565b90506000602083611de7919061445f565b905060005b82811015611e65576000611e098388612a7d90919063ffffffff16565b905060008160001c7bffffffffffffffffffffffffffffffffffffffffffffffffffffffff1614611e4257600095505050505050611e6e565b602083611e4f919061445f565b9250508080611e5d906137d8565b915050611dec565b50600193505050505b919050565b600080825190506020811015611e8d576000915050611f07565b600083611e9990613bfd565b60001c905080821015611eb157600092505050611f07565b6000611ec68286612a1690919063ffffffff16565b9050602081611ed591906144b5565b602083611ee2919061445f565b611eec919061445f565b831015611eff5760009350505050611f07565b600193505050505b919050565b6000611f578360008054906101000a900473ffffffffffffffffffffffffffffffffffffffff1673ffffffffffffffffffffffffffffffffffffffff16612ae490919063ffffffff16565b9050600081511480611f6f5750611f6d81611e73565b155b15611f7a575061214b565b600081806020019051810190611f9091906145bb565b905060008060005b83518110156120a857611fc4848281518110611fb757611fb66138d1565b5b6020026020010151612b88565b925060005b8651811015612094576000801b878281518110611fe957611fe86138d1565b5b60200260200101510315612081577fffffffffffffffffffffffffffffffffffffffffffffffffffffffffffffffff846008021b925082878281518110612033576120326138d1565b5b60200260200101511685838151811061204f5761204e6138d1565b5b602002602001015103612080576000801b878281518110612073576120726138d1565b5b6020026020010181815250505b5b808061208c906137d8565b915050611fc9565b5080806120a0906137d8565b915050611f98565b5060005b8551811015612145576000801b8682815181106120cc576120cb6138d1565b5b60200260200101511461213257868682815181106120ed576120ec6138d1565b5b60200260200101516040517f3003e7ae000000000000000000000000000000000000000000000000000000008152600401612129929190614604565b60405180910390fd5b808061213d906137d8565b9150506120ac565b50505050505b5050565b60008082036121655761100060001b9050612190565b6003820361217a5761200060001b9050612190565b6004820361218f5761400060001b9050612190565b5b919050565b60008082036121aa57601060001b90506121fb565b600182036121be57608060001b90506121fb565b600282036121d257608060001b90506121fb565b600382036121e657602060001b90506121fb565b600482036121fa57604060001b90506121fb565b5b919050565b600061224b8360008054906101000a900473ffffffffffffffffffffffffffffffffffffffff1673ffffffffffffffffffffffffffffffffffffffff16612c0790919063ffffffff16565b9050600081511480612263575061226181611cad565b155b1561226e575061233a565b6000818060200190518101906122849190614705565b905060005b81518110156122fa578181815181106122a5576122a46138d1565b5b602002602001015173ffffffffffffffffffffffffffffffffffffffff168473ffffffffffffffffffffffffffffffffffffffff16036122e75750505061233a565b80806122f2906137d8565b915050612289565b5083836040517f2879b12800000000000000000000000000000000000000000000000000000000815260040161233192919061474e565b60405180910390fd5b5050565b60006123898360008054906101000a900473ffffffffffffffffffffffffffffffffffffffff1673ffffffffffffffffffffffffffffffffffffffff16612cab90919063ffffffff16565b90506000815114806123a1575061239f81611d98565b155b156123ac575061246f565b6000818060200190518101906123c2919061484f565b905060005b8151811015612433576124138282815181106123e6576123e56138d1565b5b60200260200101518573ffffffffffffffffffffffffffffffffffffffff16612d4f90919063ffffffff16565b156124205750505061246f565b808061242b906137d8565b9150506123c7565b506040517f08c379a0000000000000000000000000000000000000000000000000000000008152600401612466906148e4565b60405180910390fd5b5050565b60006124be8360008054906101000a900473ffffffffffffffffffffffffffffffffffffffff1673ffffffffffffffffffffffffffffffffffffffff16612e7a90919063ffffffff16565b90506000815114806124d657506124d481611d98565b155b156124e157506125bf565b6000818060200190518101906124f7919061484f565b905060005b815181101561257f57818181518110612518576125176138d1565b5b60200260200101517bffffffffffffffffffffffffffffffffffffffffffffffffffffffff1916847bffffffffffffffffffffffffffffffffffffffffffffffffffffffff19160361256c575050506125bf565b8080612577906137d8565b9150506124fc565b5083836040517f841351100000000000000000000000000000000000000000000000000000000081526004016125b6929190614904565b60405180910390fd5b5050565b6060600160001b820361260d576040518060400160405280601181526020017f5452414e534645524f574e4552534849500000000000000000000000000000008152509050612898565b600260001b8203612655576040518060400160405280601181526020017f4348414e47455045524d495353494f4e530000000000000000000000000000008152509050612898565b600460001b820361269d576040518060400160405280600e81526020017f4144445045524d495353494f4e530000000000000000000000000000000000008152509050612898565b600860001b82036126e5576040518060400160405280600781526020017f53455444415441000000000000000000000000000000000000000000000000008152509050612898565b601060001b820361272d576040518060400160405280600481526020017f43414c4c000000000000000000000000000000000000000000000000000000008152509050612898565b602060001b8203612775576040518060400160405280600a81526020017f53544154494343414c4c000000000000000000000000000000000000000000008152509050612898565b604060001b82036127bd576040518060400160405280600c81526020017f44454c454741544543414c4c00000000000000000000000000000000000000008152509050612898565b608060001b8203612805576040518060400160405280600681526020017f4445504c4f5900000000000000000000000000000000000000000000000000008152509050612898565b61010060001b820361284e576040518060400160405280600d81526020017f5452414e5346455256414c5545000000000000000000000000000000000000008152509050612898565b61020060001b8203612897576040518060400160405280600481526020017f5349474e000000000000000000000000000000000000000000000000000000008152509050612898565b5b919050565b6000807f7fffffffffffffffffffffffffffffff5d576e7357a4501ddfe92f46681b20a08360001c11156128d85760006003915091506129a0565b601b8560ff16141580156128f05750601c8560ff1614155b156129025760006004915091506129a0565b6000600187878787604051600081526020016040526040516129279493929190614949565b6020604051602081039080840390855afa158015612949573d6000803e3d6000fd5b505050602060405103519050600073ffffffffffffffffffffffffffffffffffffffff168173ffffffffffffffffffffffffffffffffffffffff1603612997576000600192509250506129a0565b80600092509250505b94509492505050565b60008060007f7fffffffffffffffffffffffffffffffffffffffffffffffffffffffffffffff60001b841690506000601b60ff8660001c901c6129ec919061445f565b90506129fa8782888561289d565b935093505050935093915050565b600060208201519050919050565b6000602082612a25919061445f565b83511015612a68576040517f08c379a0000000000000000000000000000000000000000000000000000000008152600401612a5f906149da565b60405180910390fd5b60008260208501015190508091505092915050565b6000602082612a8c919061445f565b83511015612acf576040517f08c379a0000000000000000000000000000000000000000000000000000000008152600401612ac690614a46565b60405180910390fd5b60008260208501015190508091505092915050565b60608273ffffffffffffffffffffffffffffffffffffffff166354f6127f612b1e6b4b80742de2bf90b8b485000060a01b8560601b611aa1565b6040518263ffffffff1660e01b8152600401612b3a9190613bbd565b600060405180830381865afa158015612b57573d6000803e3d6000fd5b505050506040513d6000823e3d601f19601f82011682018060405250810190612b80919061362e565b905092915050565b600080601f90505b600060f81b838260208110612ba857612ba76138d1565b5b1a60f81b7effffffffffffffffffffffffffffffffffffffffffffffffffffffffffffff191603612be6578080612bde90614a66565b915050612b90565b600181612bf3919061445f565b6020612bff9190614a8f565b915050919050565b60608273ffffffffffffffffffffffffffffffffffffffff166354f6127f612c416b4b80742de2bfc6dd6b3c000060a01b8560601b611aa1565b6040518263ffffffff1660e01b8152600401612c5d9190613bbd565b600060405180830381865afa158015612c7a573d6000803e3d6000fd5b505050506040513d6000823e3d601f19601f82011682018060405250810190612ca3919061362e565b905092915050565b60608273ffffffffffffffffffffffffffffffffffffffff166354f6127f612ce56b4b80742de2bf3efa94a3000060a01b8560601b611aa1565b6040518263ffffffff1660e01b8152600401612d019190613bbd565b600060405180830381865afa158015612d1e573d6000803e3d6000fd5b505050506040513d6000823e3d601f19601f82011682018060405250810190612d47919061362e565b905092915050565b6000806301ffc9a760e01b83604051602401612d6b919061332b565b604051602081830303815290604052907bffffffffffffffffffffffffffffffffffffffffffffffffffffffff19166020820180517bffffffffffffffffffffffffffffffffffffffffffffffffffffffff838183161783525050505090506000808573ffffffffffffffffffffffffffffffffffffffff1661753084604051612df59190614af4565b6000604051808303818686fa925050503d8060008114612e31576040519150601f19603f3d011682016040523d82523d6000602084013e612e36565b606091505b5091509150602081511015612e515760009350505050612e74565b818015612e6e575080806020019051810190612e6d9190614b37565b5b93505050505b92915050565b60608273ffffffffffffffffffffffffffffffffffffffff166354f6127f612eb46b4b80742de2bf8efea1e8000060a01b8560601b611aa1565b6040518263ffffffff1660e01b8152600401612ed09190613bbd565b600060405180830381865afa158015612eed573d6000803e3d6000fd5b505050506040513d6000823e3d601f19601f82011682018060405250810190612f16919061362e565b905092915050565b6000604051905090565b600080fd5b600080fd5b60007fffffffff0000000000000000000000000000000000000000000000000000000082169050919050565b612f6781612f32565b8114612f7257600080fd5b50565b600081359050612f8481612f5e565b92915050565b600060208284031215612fa057612f9f612f28565b5b6000612fae84828501612f75565b91505092915050565b60008115159050919050565b612fcc81612fb7565b82525050565b6000602082019050612fe76000830184612fc3565b92915050565b600080fd5b600080fd5b600080fd5b60008083601f84011261301257613011612fed565b5b8235905067ffffffffffffffff81111561302f5761302e612ff2565b5b60208301915083600182028301111561304b5761304a612ff7565b5b9250929050565b6000806020838503121561306957613068612f28565b5b600083013567ffffffffffffffff81111561308757613086612f2d565b5b61309385828601612ffc565b92509250509250929050565b600081519050919050565b600082825260208201905092915050565b60005b838110156130d95780820151818401526020810190506130be565b838111156130e8576000848401525b50505050565b6000601f19601f8301169050919050565b600061310a8261309f565b61311481856130aa565b93506131248185602086016130bb565b61312d816130ee565b840191505092915050565b6000602082019050818103600083015261315281846130ff565b905092915050565b6000819050919050565b61316d8161315a565b811461317857600080fd5b50565b60008135905061318a81613164565b92915050565b600080fd5b7f4e487b7100000000000000000000000000000000000000000000000000000000600052604160045260246000fd5b6131cd826130ee565b810181811067ffffffffffffffff821117156131ec576131eb613195565b5b80604052505050565b60006131ff612f1e565b905061320b82826131c4565b919050565b600067ffffffffffffffff82111561322b5761322a613195565b5b613234826130ee565b9050602081019050919050565b82818337600083830152505050565b600061326361325e84613210565b6131f5565b90508281526020810184848401111561327f5761327e613190565b5b61328a848285613241565b509392505050565b600082601f8301126132a7576132a6612fed565b5b81356132b7848260208601613250565b91505092915050565b600080604083850312156132d7576132d6612f28565b5b60006132e58582860161317b565b925050602083013567ffffffffffffffff81111561330657613305612f2d565b5b61331285828601613292565b9150509250929050565b61332581612f32565b82525050565b6000602082019050613340600083018461331c565b92915050565b600073ffffffffffffffffffffffffffffffffffffffff82169050919050565b600061337182613346565b9050919050565b61338181613366565b811461338c57600080fd5b50565b60008135905061339e81613378565b92915050565b6000819050919050565b6133b7816133a4565b81146133c257600080fd5b50565b6000813590506133d4816133ae565b92915050565b600080604083850312156133f1576133f0612f28565b5b60006133ff8582860161338f565b9250506020613410858286016133c5565b9150509250929050565b613423816133a4565b82525050565b600060208201905061343e600083018461341a565b92915050565b6000806000806060858703121561345e5761345d612f28565b5b600085013567ffffffffffffffff81111561347c5761347b612f2d565b5b61348887828801613292565b9450506020613499878288016133c5565b935050604085013567ffffffffffffffff8111156134ba576134b9612f2d565b5b6134c687828801612ffc565b925092505092959194509250565b6134dd81613366565b82525050565b60006020820190506134f860008301846134d4565b92915050565b600081905092915050565b600061351583856134fe565b9350613522838584613241565b82840190509392505050565b600061353b828486613509565b91508190509392505050565b600082905092915050565b600082821b905092915050565b600061356b8383613547565b826135768135612f32565b925060048210156135b6576135b17fffffffff0000000000000000000000000000000000000000000000000000000083600403600802613552565b831692505b505092915050565b60006135d16135cc84613210565b6131f5565b9050828152602081018484840111156135ed576135ec613190565b5b6135f88482856130bb565b509392505050565b600082601f83011261361557613614612fed565b5b81516136258482602086016135be565b91505092915050565b60006020828403121561364457613643612f28565b5b600082015167ffffffffffffffff81111561366257613661612f2d565b5b61366e84828501613600565b91505092915050565b6000819050919050565b61369261368d826133a4565b613677565b82525050565b60008160601b9050919050565b60006136b082613698565b9050919050565b60006136c2826136a5565b9050919050565b6136da6136d582613366565b6136b7565b82525050565b60006136ec8288613681565b6020820191506136fc82876136c9565b60148201915061370c8286613681565b60208201915061371d828486613509565b91508190509695505050505050565b600082825260208201905092915050565b7f6578656375746552656c617943616c6c3a20496e76616c6964206e6f6e636500600082015250565b6000613773601f8361372c565b915061377e8261373d565b602082019050919050565b600060208201905081810360008301526137a281613766565b9050919050565b7f4e487b7100000000000000000000000000000000000000000000000000000000600052601160045260246000fd5b60006137e3826133a4565b91507fffffffffffffffffffffffffffffffffffffffffffffffffffffffffffffffff8203613815576138146137a9565b5b600182019050919050565b7f43616c6c6572206973206e6f74207468652063726561746f722e000000000000600082015250565b6000613856601a8361372c565b915061386182613820565b602082019050919050565b6000602082019050818103600083015261388581613849565b9050919050565b600080fd5b600080fd5b600080858511156138aa576138a961388c565b5b838611156138bb576138ba613891565b5b6001850283019150848603905094509492505050565b7f4e487b7100000000000000000000000000000000000000000000000000000000600052603260045260246000fd5b600067ffffffffffffffff82111561391b5761391a613195565b5b602082029050602081019050919050565b600061393f61393a84613900565b6131f5565b9050808382526020820190506020840283018581111561396257613961612ff7565b5b835b8181101561398b5780613977888261317b565b845260208401935050602081019050613964565b5050509392505050565b600082601f8301126139aa576139a9612fed565b5b81356139ba84826020860161392c565b91505092915050565b600067ffffffffffffffff8211156139de576139dd613195565b5b602082029050602081019050919050565b6000613a026139fd846139c3565b6131f5565b90508083825260208201905060208402830185811115613a2557613a24612ff7565b5b835b81811015613a6c57803567ffffffffffffffff811115613a4a57613a49612fed565b5b808601613a578982613292565b85526020850194505050602081019050613a27565b5050509392505050565b600082601f830112613a8b57613a8a612fed565b5b8135613a9b8482602086016139ef565b91505092915050565b60008060408385031215613abb57613aba612f28565b5b600083013567ffffffffffffffff811115613ad957613ad8612f2d565b5b613ae585828601613995565b925050602083013567ffffffffffffffff811115613b0657613b05612f2d565b5b613b1285828601613a76565b9150509250929050565b7f5f7665726966795065726d697373696f6e733a20696e76616c6964204552433760008201527f32352073656c6563746f72000000000000000000000000000000000000000000602082015250565b6000613b78602b8361372c565b9150613b8382613b1c565b604082019050919050565b60006020820190508181036000830152613ba781613b6b565b9050919050565b613bb78161315a565b82525050565b6000602082019050613bd26000830184613bae565b92915050565b6000819050602082019050919050565b6000613bf4825161315a565b80915050919050565b6000613c088261309f565b82613c1284613bd8565b9050613c1d81613be8565b92506020821015613c5d57613c587fffffffffffffffffffffffffffffffffffffffffffffffffffffffffffffffff83602003600802613552565b831692505b5050919050565b600081905092915050565b7f19457468657265756d205369676e6564204d6573736167653a0a333200000000600082015250565b6000613ca5601c83613c64565b9150613cb082613c6f565b601c82019050919050565b6000819050919050565b613cd6613cd18261315a565b613cbb565b82525050565b6000613ce782613c98565b9150613cf38284613cc5565b60208201915081905092915050565b7f4e487b7100000000000000000000000000000000000000000000000000000000600052601260045260246000fd5b6000613d3c826133a4565b9150613d47836133a4565b925082613d5757613d56613d02565b5b828206905092915050565b7f4c5350364b65794d616e616765723a20696e76616c69642041424920656e636f60008201527f646564206172726179206f662061646472657373657300000000000000000000602082015250565b6000613dbe60368361372c565b9150613dc982613d62565b604082019050919050565b60006020820190508181036000830152613ded81613db1565b9050919050565b7f4c5350364b65794d616e616765723a20696e76616c69642041424920656e636f60008201527f646564206172726179206f662062797465733400000000000000000000000000602082015250565b6000613e5060338361372c565b9150613e5b82613df4565b604082019050919050565b60006020820190508181036000830152613e7f81613e43565b9050919050565b7f4c5350364b65794d616e616765723a20696e76616c69642041424920656e636f60008201527f646564206172726179206f662062797465733332000000000000000000000000602082015250565b6000613ee260348361372c565b9150613eed82613e86565b604082019050919050565b60006020820190508181036000830152613f1181613ed5565b9050919050565b6000613f248383613547565b82613f2f813561315a565b92506020821015613f6f57613f6a7fffffffffffffffffffffffffffffffffffffffffffffffffffffffffffffffff83602003600802613552565b831692505b505092915050565b7f4c5350364b65794d616e616765723a20696e76616c6964206f7065726174696f60008201527f6e20747970650000000000000000000000000000000000000000000000000000602082015250565b6000613fd360268361372c565b9150613fde82613f77565b604082019050919050565b6000602082019050818103600083015261400281613fc6565b9050919050565b7f4c5350364b65794d616e616765723a206f7065726174696f6e2044454c45474160008201527f544543414c4c2069732063757272656e746c7920646973616c6c6f7765640000602082015250565b6000614065603e8361372c565b915061407082614009565b604082019050919050565b6000602082019050818103600083015261409481614058565b9050919050565b60007fffffffffffffffffffffffffffffffffffffffff00000000000000000000000082169050919050565b60006140d38383613547565b826140de813561409b565b9250601482101561411e576141197fffffffffffffffffffffffffffffffffffffffff00000000000000000000000083601403600802613552565b831692505b505092915050565b600081519050919050565b600061413c82614126565b614146818561372c565b93506141568185602086016130bb565b61415f816130ee565b840191505092915050565b600060408201905061417f60008301856134d4565b81810360208301526141918184614131565b90509392505050565b7f4e487b7100000000000000000000000000000000000000000000000000000000600052602160045260246000fd5b7f45434453413a20696e76616c6964207369676e61747572650000000000000000600082015250565b60006141ff60188361372c565b915061420a826141c9565b602082019050919050565b6000602082019050818103600083015261422e816141f2565b9050919050565b7f45434453413a20696e76616c6964207369676e6174757265206c656e67746800600082015250565b600061426b601f8361372c565b915061427682614235565b602082019050919050565b6000602082019050818103600083015261429a8161425e565b9050919050565b7f45434453413a20696e76616c6964207369676e6174757265202773272076616c60008201527f7565000000000000000000000000000000000000000000000000000000000000602082015250565b60006142fd60228361372c565b9150614308826142a1565b604082019050919050565b6000602082019050818103600083015261432c816142f0565b9050919050565b7f45434453413a20696e76616c6964207369676e6174757265202776272076616c60008201527f7565000000000000000000000000000000000000000000000000000000000000602082015250565b600061438f60228361372c565b915061439a82614333565b604082019050919050565b600060208201905081810360008301526143be81614382565b9050919050565b60007fffffffffffffffffffffffff000000000000000000000000000000000000000082169050919050565b6000819050919050565b61440c614407826143c5565b6143f1565b82525050565b6000819050919050565b61442d6144288261409b565b614412565b82525050565b600061443f82856143fb565b600c8201915061444f828461441c565b6014820191508190509392505050565b600061446a826133a4565b9150614475836133a4565b9250827fffffffffffffffffffffffffffffffffffffffffffffffffffffffffffffffff038211156144aa576144a96137a9565b5b828201905092915050565b60006144c0826133a4565b91506144cb836133a4565b9250817fffffffffffffffffffffffffffffffffffffffffffffffffffffffffffffffff0483118215151615614504576145036137a9565b5b828202905092915050565b60008151905061451e81613164565b92915050565b600061453761453284613900565b6131f5565b9050808382526020820190506020840283018581111561455a57614559612ff7565b5b835b81811015614583578061456f888261450f565b84526020840193505060208101905061455c565b5050509392505050565b600082601f8301126145a2576145a1612fed565b5b81516145b2848260208601614524565b91505092915050565b6000602082840312156145d1576145d0612f28565b5b600082015167ffffffffffffffff8111156145ef576145ee612f2d565b5b6145fb8482850161458d565b91505092915050565b600060408201905061461960008301856134d4565b6146266020830184613bae565b9392505050565b600067ffffffffffffffff82111561464857614647613195565b5b602082029050602081019050919050565b60008151905061466881613378565b92915050565b600061468161467c8461462d565b6131f5565b905080838252602082019050602084028301858111156146a4576146a3612ff7565b5b835b818110156146cd57806146b98882614659565b8452602084019350506020810190506146a6565b5050509392505050565b600082601f8301126146ec576146eb612fed565b5b81516146fc84826020860161466e565b91505092915050565b60006020828403121561471b5761471a612f28565b5b600082015167ffffffffffffffff81111561473957614738612f2d565b5b614745848285016146d7565b91505092915050565b600060408201905061476360008301856134d4565b61477060208301846134d4565b9392505050565b600067ffffffffffffffff82111561479257614791613195565b5b602082029050602081019050919050565b6000815190506147b281612f5e565b92915050565b60006147cb6147c684614777565b6131f5565b905080838252602082019050602084028301858111156147ee576147ed612ff7565b5b835b81811015614817578061480388826147a3565b8452602084019350506020810190506147f0565b5050509392505050565b600082601f83011261483657614835612fed565b5b81516148468482602086016147b8565b91505092915050565b60006020828403121561486557614864612f28565b5b600082015167ffffffffffffffff81111561488357614882612f2d565b5b61488f84828501614821565b91505092915050565b7f4e6f7420416c6c6f776564205374616e64617264730000000000000000000000600082015250565b60006148ce60158361372c565b91506148d982614898565b602082019050919050565b600060208201905081810360008301526148fd816148c1565b9050919050565b600060408201905061491960008301856134d4565b614926602083018461331c565b9392505050565b600060ff82169050919050565b6149438161492d565b82525050565b600060808201905061495e6000830187613bae565b61496b602083018661493a565b6149786040830185613bae565b6149856060830184613bae565b95945050505050565b7f746f55696e743235365f6f75744f66426f756e64730000000000000000000000600082015250565b60006149c460158361372c565b91506149cf8261498e565b602082019050919050565b600060208201905081810360008301526149f3816149b7565b9050919050565b7f746f427974657333325f6f75744f66426f756e64730000000000000000000000600082015250565b6000614a3060158361372c565b9150614a3b826149fa565b602082019050919050565b60006020820190508181036000830152614a5f81614a23565b9050919050565b6000614a71826133a4565b915060008203614a8457614a836137a9565b5b600182039050919050565b6000614a9a826133a4565b9150614aa5836133a4565b925082821015614ab857614ab76137a9565b5b828203905092915050565b6000614ace8261309f565b614ad881856134fe565b9350614ae88185602086016130bb565b80840191505092915050565b6000614b008284614ac3565b915081905092915050565b614b1481612fb7565b8114614b1f57600080fd5b50565b600081519050614b3181614b0b565b92915050565b600060208284031215614b4d57614b4c612f28565b5b6000614b5b84828501614b22565b9150509291505056fea2646970667358221220f3756a48ba7b83764bd460ef8673179bdc1ec958f39b9564231f9d6b390115ec64736f6c634300080f003360806040526000600160146101000a81548160ff0219169083151502179055507f55e49609591f684ecf6f2909c9e20c2439b990887b9c3fe108b154c9077d85cf60001b6004557f95e794640ff3efd16bfe738f1a9bf2886d166af549121f57d6e14af6b513f45d60001b6005557f1c990d1606629a2681dbc22754450a119d5896cd739732a966bd0a2e0864735960001b6006557ff89f507ecd9cb7646ce1514ec6ab90d695dac9314c3771f451fd90148a3335a960001b6007557f5bd05fa174be6a4aa4a8222f8837a27a381de14e7797cf7945df58b0626e6c3d60001b6008557fd08ca3a83d59467dd8ba57e940549874ea8310a1ebfb4396959235b00035d77760001b60095534801561011557600080fd5b50612056806101256000396000f3fe608060405234801561001057600080fd5b50600436106100cf5760003560e01c80636f5e35191161008c578063a31f641a11610066578063a31f641a146101d8578063cfb58f7d146101f4578063ef64d31714610210578063f0deb28d1461022e576100cf565b80636f5e351914610180578063754b15281461019c578063a218a205146101ba576100cf565b80630205c373146100d4578063024ff616146100f057806306552ff31461010c578063444f81d41461012857806357c0cb57146101465780636291ebfa14610162575b600080fd5b6100ee60048036038101906100e9919061161e565b61024c565b005b61010a60048036038101906101059190611681565b610487565b005b610126600480360381019061012191906117d8565b6106c2565b005b61013061080e565b60405161013d91906118d8565b60405180910390f35b610160600480360381019061015b919061161e565b6108b8565b005b61016a610af3565b60405161017791906118d8565b60405180910390f35b61019a60048036038101906101959190611681565b610b9d565b005b6101a4610dd8565b6040516101b19190611909565b60405180910390f35b6101c2610e8e565b6040516101cf9190611909565b60405180910390f35b6101f260048036038101906101ed9190611a59565b610f44565b005b61020e60048036038101906102099190611a59565b61115d565b005b610218611376565b6040516102259190611ab1565b60405180910390f35b61023661142c565b6040516102439190611ab1565b60405180910390f35b33600160009054906101000a900473ffffffffffffffffffffffffffffffffffffffff1673ffffffffffffffffffffffffffffffffffffffff168173ffffffffffffffffffffffffffffffffffffffff16146102dd576040517f08c379a00000000000000000000000000000000000000000000000000000000081526004016102d490611b18565b60405180910390fd5b600160149054906101000a900460ff1661032c576040517f08c379a000000000000000000000000000000000000000000000000000000000815260040161032390611b84565b60405180910390fd5b600360009054906101000a900473ffffffffffffffffffffffffffffffffffffffff1673ffffffffffffffffffffffffffffffffffffffff166309c5eabe6007548460f81b6040516020016103819190611bf1565b6040516020818303038152906040526040516024016103a1929190611c7a565b6040516020818303038152906040527f7f23690c000000000000000000000000000000000000000000000000000000007bffffffffffffffffffffffffffffffffffffffffffffffffffffffff19166020820180517bffffffffffffffffffffffffffffffffffffffffffffffffffffffff83818316178352505050506040518263ffffffff1660e01b815260040161043a9190611caa565b6000604051808303816000875af1158015610459573d6000803e3d6000fd5b505050506040513d6000823e3d601f19601f820116820180604052508101906104829190611d6d565b505050565b33600160009054906101000a900473ffffffffffffffffffffffffffffffffffffffff1673ffffffffffffffffffffffffffffffffffffffff168173ffffffffffffffffffffffffffffffffffffffff1614610518576040517f08c379a000000000000000000000000000000000000000000000000000000000815260040161050f90611b18565b60405180910390fd5b600160149054906101000a900460ff16610567576040517f08c379a000000000000000000000000000000000000000000000000000000000815260040161055e90611b84565b60405180910390fd5b600360009054906101000a900473ffffffffffffffffffffffffffffffffffffffff1673ffffffffffffffffffffffffffffffffffffffff166309c5eabe6008548460001b6040516020016105bc9190611dd7565b6040516020818303038152906040526040516024016105dc929190611c7a565b6040516020818303038152906040527f7f23690c000000000000000000000000000000000000000000000000000000007bffffffffffffffffffffffffffffffffffffffffffffffffffffffff19166020820180517bffffffffffffffffffffffffffffffffffffffffffffffffffffffff83818316178352505050506040518263ffffffff1660e01b81526004016106759190611caa565b6000604051808303816000875af1158015610694573d6000803e3d6000fd5b505050506040513d6000823e3d601f19601f820116820180604052508101906106bd9190611d6d565b505050565b600160149054906101000a900460ff1615610712576040517f08c379a000000000000000000000000000000000000000000000000000000000815260040161070990611e3e565b60405180910390fd5b600160149054906101000a900460ff1615610762576040517f08c379a000000000000000000000000000000000000000000000000000000000815260040161075990611ed0565b60405180910390fd5b83600260006101000a81548173ffffffffffffffffffffffffffffffffffffffff021916908373ffffffffffffffffffffffffffffffffffffffff16021790555082600360006101000a81548173ffffffffffffffffffffffffffffffffffffffff021916908373ffffffffffffffffffffffffffffffffffffffff1602179055506107ee82826114e2565b60018060146101000a81548160ff02191690831515021790555050505050565b6060600260009054906101000a900473ffffffffffffffffffffffffffffffffffffffff1673ffffffffffffffffffffffffffffffffffffffff166354f6127f6005546040518263ffffffff1660e01b815260040161086d9190611ef0565b600060405180830381865afa15801561088a573d6000803e3d6000fd5b505050506040513d6000823e3d601f19601f820116820180604052508101906108b39190611d6d565b905090565b33600160009054906101000a900473ffffffffffffffffffffffffffffffffffffffff1673ffffffffffffffffffffffffffffffffffffffff168173ffffffffffffffffffffffffffffffffffffffff1614610949576040517f08c379a000000000000000000000000000000000000000000000000000000000815260040161094090611b18565b60405180910390fd5b600160149054906101000a900460ff16610998576040517f08c379a000000000000000000000000000000000000000000000000000000000815260040161098f90611b84565b60405180910390fd5b600360009054906101000a900473ffffffffffffffffffffffffffffffffffffffff1673ffffffffffffffffffffffffffffffffffffffff166309c5eabe6006548460f81b6040516020016109ed9190611bf1565b604051602081830303815290604052604051602401610a0d929190611c7a565b6040516020818303038152906040527f7f23690c000000000000000000000000000000000000000000000000000000007bffffffffffffffffffffffffffffffffffffffffffffffffffffffff19166020820180517bffffffffffffffffffffffffffffffffffffffffffffffffffffffff83818316178352505050506040518263ffffffff1660e01b8152600401610aa69190611caa565b6000604051808303816000875af1158015610ac5573d6000803e3d6000fd5b505050506040513d6000823e3d601f19601f82011682018060405250810190610aee9190611d6d565b505050565b6060600260009054906101000a900473ffffffffffffffffffffffffffffffffffffffff1673ffffffffffffffffffffffffffffffffffffffff166354f6127f6004546040518263ffffffff1660e01b8152600401610b529190611ef0565b600060405180830381865afa158015610b6f573d6000803e3d6000fd5b505050506040513d6000823e3d601f19601f82011682018060405250810190610b989190611d6d565b905090565b33600160009054906101000a900473ffffffffffffffffffffffffffffffffffffffff1673ffffffffffffffffffffffffffffffffffffffff168173ffffffffffffffffffffffffffffffffffffffff1614610c2e576040517f08c379a0000000000000000000000000000000000000000000000000000000008152600401610c2590611b18565b60405180910390fd5b600160149054906101000a900460ff16610c7d576040517f08c379a0000000000000000000000000000000000000000000000000000000008152600401610c7490611b84565b60405180910390fd5b600360009054906101000a900473ffffffffffffffffffffffffffffffffffffffff1673ffffffffffffffffffffffffffffffffffffffff166309c5eabe6009548460001b604051602001610cd29190611dd7565b604051602081830303815290604052604051602401610cf2929190611c7a565b6040516020818303038152906040527f7f23690c000000000000000000000000000000000000000000000000000000007bffffffffffffffffffffffffffffffffffffffffffffffffffffffff19166020820180517bffffffffffffffffffffffffffffffffffffffffffffffffffffffff83818316178352505050506040518263ffffffff1660e01b8152600401610d8b9190611caa565b6000604051808303816000875af1158015610daa573d6000803e3d6000fd5b505050506040513d6000823e3d601f19601f82011682018060405250810190610dd39190611d6d565b505050565b6000600260009054906101000a900473ffffffffffffffffffffffffffffffffffffffff1673ffffffffffffffffffffffffffffffffffffffff166354f6127f6007546040518263ffffffff1660e01b8152600401610e379190611ef0565b600060405180830381865afa158015610e54573d6000803e3d6000fd5b505050506040513d6000823e3d601f19601f82011682018060405250810190610e7d9190611d6d565b610e8690611f3d565b60f81c905090565b6000600260009054906101000a900473ffffffffffffffffffffffffffffffffffffffff1673ffffffffffffffffffffffffffffffffffffffff166354f6127f6006546040518263ffffffff1660e01b8152600401610eed9190611ef0565b600060405180830381865afa158015610f0a573d6000803e3d6000fd5b505050506040513d6000823e3d601f19601f82011682018060405250810190610f339190611d6d565b610f3c90611f3d565b60f81c905090565b33600160009054906101000a900473ffffffffffffffffffffffffffffffffffffffff1673ffffffffffffffffffffffffffffffffffffffff168173ffffffffffffffffffffffffffffffffffffffff1614610fd5576040517f08c379a0000000000000000000000000000000000000000000000000000000008152600401610fcc90611b18565b60405180910390fd5b600160149054906101000a900460ff16611024576040517f08c379a000000000000000000000000000000000000000000000000000000000815260040161101b90611b84565b60405180910390fd5b600360009054906101000a900473ffffffffffffffffffffffffffffffffffffffff1673ffffffffffffffffffffffffffffffffffffffff166309c5eabe60045484604051602401611077929190611c7a565b6040516020818303038152906040527f7f23690c000000000000000000000000000000000000000000000000000000007bffffffffffffffffffffffffffffffffffffffffffffffffffffffff19166020820180517bffffffffffffffffffffffffffffffffffffffffffffffffffffffff83818316178352505050506040518263ffffffff1660e01b81526004016111109190611caa565b6000604051808303816000875af115801561112f573d6000803e3d6000fd5b505050506040513d6000823e3d601f19601f820116820180604052508101906111589190611d6d565b505050565b33600160009054906101000a900473ffffffffffffffffffffffffffffffffffffffff1673ffffffffffffffffffffffffffffffffffffffff168173ffffffffffffffffffffffffffffffffffffffff16146111ee576040517f08c379a00000000000000000000000000000000000000000000000000000000081526004016111e590611b18565b60405180910390fd5b600160149054906101000a900460ff1661123d576040517f08c379a000000000000000000000000000000000000000000000000000000000815260040161123490611b84565b60405180910390fd5b600360009054906101000a900473ffffffffffffffffffffffffffffffffffffffff1673ffffffffffffffffffffffffffffffffffffffff166309c5eabe60055484604051602401611290929190611c7a565b6040516020818303038152906040527f7f23690c000000000000000000000000000000000000000000000000000000007bffffffffffffffffffffffffffffffffffffffffffffffffffffffff19166020820180517bffffffffffffffffffffffffffffffffffffffffffffffffffffffff83818316178352505050506040518263ffffffff1660e01b81526004016113299190611caa565b6000604051808303816000875af1158015611348573d6000803e3d6000fd5b505050506040513d6000823e3d601f19601f820116820180604052508101906113719190611d6d565b505050565b6000600260009054906101000a900473ffffffffffffffffffffffffffffffffffffffff1673ffffffffffffffffffffffffffffffffffffffff166354f6127f6009546040518263ffffffff1660e01b81526004016113d59190611ef0565b600060405180830381865afa1580156113f2573d6000803e3d6000fd5b505050506040513d6000823e3d601f19601f8201168201806040525081019061141b9190611d6d565b61142490611fb9565b60001c905090565b6000600260009054906101000a900473ffffffffffffffffffffffffffffffffffffffff1673ffffffffffffffffffffffffffffffffffffffff166354f6127f6008546040518263ffffffff1660e01b815260040161148b9190611ef0565b600060405180830381865afa1580156114a8573d6000803e3d6000fd5b505050506040513d6000823e3d601f19601f820116820180604052508101906114d19190611d6d565b6114da90611fb9565b60001c905090565b600160149054906101000a900460ff1615611532576040517f08c379a000000000000000000000000000000000000000000000000000000000815260040161152990611ed0565b60405180910390fd5b816000806101000a81548173ffffffffffffffffffffffffffffffffffffffff021916908373ffffffffffffffffffffffffffffffffffffffff16021790555080600160006101000a81548173ffffffffffffffffffffffffffffffffffffffff021916908373ffffffffffffffffffffffffffffffffffffffff16021790555060018060146101000a81548160ff0219169083151502179055505050565b6000604051905090565b600080fd5b600080fd5b600060ff82169050919050565b6115fb816115e5565b811461160657600080fd5b50565b600081359050611618816115f2565b92915050565b600060208284031215611634576116336115db565b5b600061164284828501611609565b91505092915050565b6000819050919050565b61165e8161164b565b811461166957600080fd5b50565b60008135905061167b81611655565b92915050565b600060208284031215611697576116966115db565b5b60006116a58482850161166c565b91505092915050565b600073ffffffffffffffffffffffffffffffffffffffff82169050919050565b60006116d9826116ae565b9050919050565b60006116eb826116ce565b9050919050565b6116fb816116e0565b811461170657600080fd5b50565b600081359050611718816116f2565b92915050565b6000611729826116ae565b9050919050565b600061173b8261171e565b9050919050565b61174b81611730565b811461175657600080fd5b50565b60008135905061176881611742565b92915050565b60006117798261171e565b9050919050565b6117898161176e565b811461179457600080fd5b50565b6000813590506117a681611780565b92915050565b6117b58161171e565b81146117c057600080fd5b50565b6000813590506117d2816117ac565b92915050565b600080600080608085870312156117f2576117f16115db565b5b600061180087828801611709565b945050602061181187828801611759565b935050604061182287828801611797565b9250506060611833878288016117c3565b91505092959194509250565b600081519050919050565b600082825260208201905092915050565b60005b8381101561187957808201518184015260208101905061185e565b83811115611888576000848401525b50505050565b6000601f19601f8301169050919050565b60006118aa8261183f565b6118b4818561184a565b93506118c481856020860161185b565b6118cd8161188e565b840191505092915050565b600060208201905081810360008301526118f2818461189f565b905092915050565b611903816115e5565b82525050565b600060208201905061191e60008301846118fa565b92915050565b600080fd5b600080fd5b7f4e487b7100000000000000000000000000000000000000000000000000000000600052604160045260246000fd5b6119668261188e565b810181811067ffffffffffffffff821117156119855761198461192e565b5b80604052505050565b60006119986115d1565b90506119a4828261195d565b919050565b600067ffffffffffffffff8211156119c4576119c361192e565b5b6119cd8261188e565b9050602081019050919050565b82818337600083830152505050565b60006119fc6119f7846119a9565b61198e565b905082815260208101848484011115611a1857611a17611929565b5b611a238482856119da565b509392505050565b600082601f830112611a4057611a3f611924565b5b8135611a508482602086016119e9565b91505092915050565b600060208284031215611a6f57611a6e6115db565b5b600082013567ffffffffffffffff811115611a8d57611a8c6115e0565b5b611a9984828501611a2b565b91505092915050565b611aab8161164b565b82525050565b6000602082019050611ac66000830184611aa2565b92915050565b7f43616c6c6572206973206e6f74207468652044414f2e00000000000000000000600082015250565b6000611b0260168361184a565b9150611b0d82611acc565b602082019050919050565b60006020820190508181036000830152611b3181611af5565b9050919050565b7f436f6e74726163747320617265206e6f7420696e697469616c697a65642e0000600082015250565b6000611b6e601e8361184a565b9150611b7982611b38565b602082019050919050565b60006020820190508181036000830152611b9d81611b61565b9050919050565b60007fff0000000000000000000000000000000000000000000000000000000000000082169050919050565b6000819050919050565b611beb611be682611ba4565b611bd0565b82525050565b6000611bfd8284611bda565b60018201915081905092915050565b6000819050919050565b611c1f81611c0c565b82525050565b600081519050919050565b600082825260208201905092915050565b6000611c4c82611c25565b611c568185611c30565b9350611c6681856020860161185b565b611c6f8161188e565b840191505092915050565b6000604082019050611c8f6000830185611c16565b8181036020830152611ca18184611c41565b90509392505050565b60006020820190508181036000830152611cc48184611c41565b905092915050565b600067ffffffffffffffff821115611ce757611ce661192e565b5b611cf08261188e565b9050602081019050919050565b6000611d10611d0b84611ccc565b61198e565b905082815260208101848484011115611d2c57611d2b611929565b5b611d3784828561185b565b509392505050565b600082601f830112611d5457611d53611924565b5b8151611d64848260208601611cfd565b91505092915050565b600060208284031215611d8357611d826115db565b5b600082015167ffffffffffffffff811115611da157611da06115e0565b5b611dad84828501611d3f565b91505092915050565b6000819050919050565b611dd1611dcc82611c0c565b611db6565b82525050565b6000611de38284611dc0565b60208201915081905092915050565b7f436f6e7472616374732061726520696e697469616c697a65642e000000000000600082015250565b6000611e28601a8361184a565b9150611e3382611df2565b602082019050919050565b60006020820190508181036000830152611e5781611e1b565b9050919050565b7f54686520636f6e747261637420697320616c726561647920696e697469616c6960008201527f7a65642e00000000000000000000000000000000000000000000000000000000602082015250565b6000611eba60248361184a565b9150611ec582611e5e565b604082019050919050565b60006020820190508181036000830152611ee981611ead565b9050919050565b6000602082019050611f056000830184611c16565b92915050565b6000819050602082019050919050565b6000611f278251611ba4565b80915050919050565b600082821b905092915050565b6000611f4882611c25565b82611f5284611f0b565b9050611f5d81611f1b565b92506001821015611f9d57611f987fff0000000000000000000000000000000000000000000000000000000000000083600103600802611f30565b831692505b5050919050565b6000611fb08251611c0c565b80915050919050565b6000611fc482611c25565b82611fce84611f0b565b9050611fd981611fa4565b92506020821015612019576120147fffffffffffffffffffffffffffffffffffffffffffffffffffffffffffffffff83602003600802611f30565b831692505b505091905056fea2646970667358221220596b6cdd7921a8b51fe6848cda690d8e6d97645bffb2f22681d7627845062e5f64736f6c634300080f003360806040526000600160146101000a81548160ff0219169083151502179055506040518060a00160405280600160001b8152602001600260001b8152602001600460001b8152602001600860001b8152602001601060001b81525060049060056200006c929190620000a5565b507f72ba3778f5d93e8643176651d8174361d2ba28345f5eaa8b6a10f65dbfcf7c916009553480156200009e57600080fd5b5062000109565b8260058101928215620000d7579160200282015b82811115620000d6578251825591602001919060010190620000b9565b5b509050620000e69190620000ea565b5090565b5b8082111562000105576000816000905550600101620000eb565b5090565b611e1080620001196000396000f3fe608060405234801561001057600080fd5b50600436106100935760003560e01c8063348289c611610066578063348289c6146101305780636405184e1461014c57806377a14c351461016a5780637b30086614610186578063d6d09cfb146101b657610093565b8063184b9559146100985780631da0d49f146100b45780631e9d48cf146100e457806321298b4214610114575b600080fd5b6100b260048036038101906100ad9190611157565b6101e6565b005b6100ce60048036038101906100c991906111aa565b610331565b6040516100db9190611270565b60405180910390f35b6100fe60048036038101906100f991906111aa565b610456565b60405161010b91906112ad565b60405180910390f35b61012e6004803603810190610129919061132d565b6104e6565b005b61014a600480360381019061014591906113b6565b6108d3565b005b610154610a70565b60405161016191906113f2565b60405180910390f35b610184600480360381019061017f919061140d565b610b26565b005b6101a0600480360381019061019b91906113b6565b610daf565b6040516101ad9190611270565b60405180910390f35b6101d060048036038101906101cb919061144d565b610f46565b6040516101dd9190611493565b60405180910390f35b600160149054906101000a900460ff1615610236576040517f08c379a000000000000000000000000000000000000000000000000000000000815260040161022d9061150b565b60405180910390fd5b600160149054906101000a900460ff1615610286576040517f08c379a000000000000000000000000000000000000000000000000000000000815260040161027d9061159d565b60405180910390fd5b82600260006101000a81548173ffffffffffffffffffffffffffffffffffffffff021916908373ffffffffffffffffffffffffffffffffffffffff16021790555081600360006101000a81548173ffffffffffffffffffffffffffffffffffffffff021916908373ffffffffffffffffffffffffffffffffffffffff1602179055506103128282610f68565b60018060146101000a81548160ff021916908315150217905550505050565b606060007f6f1212b29e0d5f509b2e732e5f6a14acceb10e7f27ee7136e73989d3b14d592c7fd553aa042a90e2c5d42813162a48e47473d9969955759122f7bf8ec00217f413600060f01b8560601b60405160200161039394939291906116f1565b6040516020818303038152906040526103ab90611771565b9050600260009054906101000a900473ffffffffffffffffffffffffffffffffffffffff1673ffffffffffffffffffffffffffffffffffffffff166354f6127f826040518263ffffffff1660e01b81526004016104089190611493565b600060405180830381865afa158015610425573d6000803e3d6000fd5b505050506040513d6000823e3d601f19601f8201168201806040525081019061044e91906118fe565b915050919050565b600080610461610a70565b905060005b818110156104da57600061047982610daf565b90508473ffffffffffffffffffffffffffffffffffffffff168161049c9061195c565b60601c73ffffffffffffffffffffffffffffffffffffffff16036104c657600193505050506104e1565b5080806104d2906119f2565b915050610466565b5060009150505b919050565b33600160009054906101000a900473ffffffffffffffffffffffffffffffffffffffff1673ffffffffffffffffffffffffffffffffffffffff168173ffffffffffffffffffffffffffffffffffffffff1614610577576040517f08c379a000000000000000000000000000000000000000000000000000000000815260040161056e90611a86565b60405180910390fd5b600160149054906101000a900460ff166105c6576040517f08c379a00000000000000000000000000000000000000000000000000000000081526004016105bd90611af2565b60405180910390fd5b60007f6f1212b29e0d5f509b2e732e5f6a14acceb10e7f27ee7136e73989d3b14d592c7fd553aa042a90e2c5d42813162a48e47473d9969955759122f7bf8ec00217f413600060f01b8760601b60405160200161062694939291906116f1565b60405160208183030381529060405261063e90611771565b9050606083156107445760048560ff166005811061065f5761065e611b12565b5b015460001c600260009054906101000a900473ffffffffffffffffffffffffffffffffffffffff1673ffffffffffffffffffffffffffffffffffffffff166354f6127f846040518263ffffffff1660e01b81526004016106bf9190611493565b600060405180830381865afa1580156106dc573d6000803e3d6000fd5b505050506040513d6000823e3d601f19601f8201168201806040525081019061070591906118fe565b61070e90611771565b60001c61071b9190611b41565b60001b60405160200161072e9190611bb8565b604051602081830303815290604052905061083c565b60048560ff166005811061075b5761075a611b12565b5b015460001c600260009054906101000a900473ffffffffffffffffffffffffffffffffffffffff1673ffffffffffffffffffffffffffffffffffffffff166354f6127f846040518263ffffffff1660e01b81526004016107bb9190611493565b600060405180830381865afa1580156107d8573d6000803e3d6000fd5b505050506040513d6000823e3d601f19601f8201168201806040525081019061080191906118fe565b61080a90611771565b60001c6108179190611bd3565b60001b60405160200161082a9190611bb8565b60405160208183030381529060405290505b600260009054906101000a900473ffffffffffffffffffffffffffffffffffffffff1673ffffffffffffffffffffffffffffffffffffffff16637f23690c83836040518363ffffffff1660e01b8152600401610899929190611c07565b600060405180830381600087803b1580156108b357600080fd5b505af11580156108c7573d6000803e3d6000fd5b50505050505050505050565b33600160009054906101000a900473ffffffffffffffffffffffffffffffffffffffff1673ffffffffffffffffffffffffffffffffffffffff168173ffffffffffffffffffffffffffffffffffffffff1614610964576040517f08c379a000000000000000000000000000000000000000000000000000000000815260040161095b90611a86565b60405180910390fd5b600160149054906101000a900460ff166109b3576040517f08c379a00000000000000000000000000000000000000000000000000000000081526004016109aa90611af2565b60405180910390fd5b60008260001b6040516020016109c99190611bb8565b6040516020818303038152906040529050600260009054906101000a900473ffffffffffffffffffffffffffffffffffffffff1673ffffffffffffffffffffffffffffffffffffffff16637f23690c600954836040518363ffffffff1660e01b8152600401610a39929190611c07565b600060405180830381600087803b158015610a5357600080fd5b505af1158015610a67573d6000803e3d6000fd5b50505050505050565b6000600260009054906101000a900473ffffffffffffffffffffffffffffffffffffffff1673ffffffffffffffffffffffffffffffffffffffff166354f6127f6009546040518263ffffffff1660e01b8152600401610acf9190611493565b600060405180830381865afa158015610aec573d6000803e3d6000fd5b505050506040513d6000823e3d601f19601f82011682018060405250810190610b1591906118fe565b610b1e90611771565b60001c905090565b33600160009054906101000a900473ffffffffffffffffffffffffffffffffffffffff1673ffffffffffffffffffffffffffffffffffffffff168173ffffffffffffffffffffffffffffffffffffffff1614610bb7576040517f08c379a0000000000000000000000000000000000000000000000000000000008152600401610bae90611a86565b60405180910390fd5b600160149054906101000a900460ff16610c06576040517f08c379a0000000000000000000000000000000000000000000000000000000008152600401610bfd90611af2565b60405180910390fd5b6000600360009054906101000a900473ffffffffffffffffffffffffffffffffffffffff1673ffffffffffffffffffffffffffffffffffffffff16634bb5ec326009546040518263ffffffff1660e01b8152600401610c659190611493565b6040805180830381865afa158015610c81573d6000803e3d6000fd5b505050506040513d601f19601f82011682018060405250810190610ca59190611d45565b9050600081600060028110610cbd57610cbc611b12565b5b60200201518560801b604051602001610cd7929190611d93565b604051602081830303815290604052610cef90611771565b905060008460601b604051602001610d079190611dbf565b6040516020818303038152906040529050600260009054906101000a900473ffffffffffffffffffffffffffffffffffffffff1673ffffffffffffffffffffffffffffffffffffffff16637f23690c83836040518363ffffffff1660e01b8152600401610d75929190611c07565b600060405180830381600087803b158015610d8f57600080fd5b505af1158015610da3573d6000803e3d6000fd5b50505050505050505050565b60606000600360009054906101000a900473ffffffffffffffffffffffffffffffffffffffff1673ffffffffffffffffffffffffffffffffffffffff16634bb5ec326009546040518263ffffffff1660e01b8152600401610e109190611493565b6040805180830381865afa158015610e2c573d6000803e3d6000fd5b505050506040513d601f19601f82011682018060405250810190610e509190611d45565b9050600081600060028110610e6857610e67611b12565b5b60200201518460801b604051602001610e82929190611d93565b604051602081830303815290604052610e9a90611771565b9050600260009054906101000a900473ffffffffffffffffffffffffffffffffffffffff1673ffffffffffffffffffffffffffffffffffffffff166354f6127f826040518263ffffffff1660e01b8152600401610ef79190611493565b600060405180830381865afa158015610f14573d6000803e3d6000fd5b505050506040513d6000823e3d601f19601f82011682018060405250810190610f3d91906118fe565b92505050919050565b600060048260ff1660058110610f5f57610f5e611b12565b5b01549050919050565b600160149054906101000a900460ff1615610fb8576040517f08c379a0000000000000000000000000000000000000000000000000000000008152600401610faf9061159d565b60405180910390fd5b816000806101000a81548173ffffffffffffffffffffffffffffffffffffffff021916908373ffffffffffffffffffffffffffffffffffffffff16021790555080600160006101000a81548173ffffffffffffffffffffffffffffffffffffffff021916908373ffffffffffffffffffffffffffffffffffffffff16021790555060018060146101000a81548160ff0219169083151502179055505050565b6000604051905090565b600080fd5b600080fd5b600073ffffffffffffffffffffffffffffffffffffffff82169050919050565b60006110968261106b565b9050919050565b60006110a88261108b565b9050919050565b6110b88161109d565b81146110c357600080fd5b50565b6000813590506110d5816110af565b92915050565b60006110e68261106b565b9050919050565b60006110f8826110db565b9050919050565b611108816110ed565b811461111357600080fd5b50565b600081359050611125816110ff565b92915050565b611134816110db565b811461113f57600080fd5b50565b6000813590506111518161112b565b92915050565b6000806000606084860312156111705761116f611061565b5b600061117e868287016110c6565b935050602061118f86828701611116565b92505060406111a086828701611142565b9150509250925092565b6000602082840312156111c0576111bf611061565b5b60006111ce84828501611142565b91505092915050565b600081519050919050565b600082825260208201905092915050565b60005b838110156112115780820151818401526020810190506111f6565b83811115611220576000848401525b50505050565b6000601f19601f8301169050919050565b6000611242826111d7565b61124c81856111e2565b935061125c8185602086016111f3565b61126581611226565b840191505092915050565b6000602082019050818103600083015261128a8184611237565b905092915050565b60008115159050919050565b6112a781611292565b82525050565b60006020820190506112c2600083018461129e565b92915050565b600060ff82169050919050565b6112de816112c8565b81146112e957600080fd5b50565b6000813590506112fb816112d5565b92915050565b61130a81611292565b811461131557600080fd5b50565b60008135905061132781611301565b92915050565b60008060006060848603121561134657611345611061565b5b600061135486828701611142565b9350506020611365868287016112ec565b925050604061137686828701611318565b9150509250925092565b6000819050919050565b61139381611380565b811461139e57600080fd5b50565b6000813590506113b08161138a565b92915050565b6000602082840312156113cc576113cb611061565b5b60006113da848285016113a1565b91505092915050565b6113ec81611380565b82525050565b600060208201905061140760008301846113e3565b92915050565b6000806040838503121561142457611423611061565b5b6000611432858286016113a1565b925050602061144385828601611142565b9150509250929050565b60006020828403121561146357611462611061565b5b6000611471848285016112ec565b91505092915050565b6000819050919050565b61148d8161147a565b82525050565b60006020820190506114a86000830184611484565b92915050565b600082825260208201905092915050565b7f436f6e7472616374732061726520696e697469616c697a65642e000000000000600082015250565b60006114f5601a836114ae565b9150611500826114bf565b602082019050919050565b60006020820190508181036000830152611524816114e8565b9050919050565b7f54686520636f6e747261637420697320616c726561647920696e697469616c6960008201527f7a65642e00000000000000000000000000000000000000000000000000000000602082015250565b60006115876024836114ae565b91506115928261152b565b604082019050919050565b600060208201905081810360008301526115b68161157a565b9050919050565b60007fffffffffffff000000000000000000000000000000000000000000000000000082169050919050565b6000819050919050565b6116046115ff826115bd565b6115e9565b82525050565b60007fffffffff0000000000000000000000000000000000000000000000000000000082169050919050565b6000819050919050565b61165161164c8261160a565b611636565b82525050565b60007fffff00000000000000000000000000000000000000000000000000000000000082169050919050565b6000819050919050565b61169e61169982611657565b611683565b82525050565b60007fffffffffffffffffffffffffffffffffffffffff00000000000000000000000082169050919050565b6000819050919050565b6116eb6116e6826116a4565b6116d0565b82525050565b60006116fd82876115f3565b60068201915061170d8286611640565b60048201915061171d828561168d565b60028201915061172d82846116da565b60148201915081905095945050505050565b6000819050602082019050919050565b600061175b825161147a565b80915050919050565b600082821b905092915050565b600061177c826111d7565b826117868461173f565b90506117918161174f565b925060208210156117d1576117cc7fffffffffffffffffffffffffffffffffffffffffffffffffffffffffffffffff83602003600802611764565b831692505b5050919050565b600080fd5b600080fd5b7f4e487b7100000000000000000000000000000000000000000000000000000000600052604160045260246000fd5b61181a82611226565b810181811067ffffffffffffffff82111715611839576118386117e2565b5b80604052505050565b600061184c611057565b90506118588282611811565b919050565b600067ffffffffffffffff821115611878576118776117e2565b5b61188182611226565b9050602081019050919050565b60006118a161189c8461185d565b611842565b9050828152602081018484840111156118bd576118bc6117dd565b5b6118c88482856111f3565b509392505050565b600082601f8301126118e5576118e46117d8565b5b81516118f584826020860161188e565b91505092915050565b60006020828403121561191457611913611061565b5b600082015167ffffffffffffffff81111561193257611931611066565b5b61193e848285016118d0565b91505092915050565b600061195382516116a4565b80915050919050565b6000611967826111d7565b826119718461173f565b905061197c81611947565b925060148210156119bc576119b77fffffffffffffffffffffffffffffffffffffffff00000000000000000000000083601403600802611764565b831692505b5050919050565b7f4e487b7100000000000000000000000000000000000000000000000000000000600052601160045260246000fd5b60006119fd82611380565b91507fffffffffffffffffffffffffffffffffffffffffffffffffffffffffffffffff8203611a2f57611a2e6119c3565b5b600182019050919050565b7f43616c6c6572206973206e6f74207468652044414f2e00000000000000000000600082015250565b6000611a706016836114ae565b9150611a7b82611a3a565b602082019050919050565b60006020820190508181036000830152611a9f81611a63565b9050919050565b7f436f6e74726163747320617265206e6f7420696e697469616c697a65642e0000600082015250565b6000611adc601e836114ae565b9150611ae782611aa6565b602082019050919050565b60006020820190508181036000830152611b0b81611acf565b9050919050565b7f4e487b7100000000000000000000000000000000000000000000000000000000600052603260045260246000fd5b6000611b4c82611380565b9150611b5783611380565b9250827fffffffffffffffffffffffffffffffffffffffffffffffffffffffffffffffff03821115611b8c57611b8b6119c3565b5b828201905092915050565b6000819050919050565b611bb2611bad8261147a565b611b97565b82525050565b6000611bc48284611ba1565b60208201915081905092915050565b6000611bde82611380565b9150611be983611380565b925082821015611bfc57611bfb6119c3565b5b828203905092915050565b6000604082019050611c1c6000830185611484565b8181036020830152611c2e8184611237565b90509392505050565b600067ffffffffffffffff821115611c5257611c516117e2565b5b602082029050919050565b600080fd5b60007fffffffffffffffffffffffffffffffff0000000000000000000000000000000082169050919050565b611c9781611c62565b8114611ca257600080fd5b50565b600081519050611cb481611c8e565b92915050565b6000611ccd611cc884611c37565b611842565b90508060208402830185811115611ce757611ce6611c5d565b5b835b81811015611d105780611cfc8882611ca5565b845260208401935050602081019050611ce9565b5050509392505050565b600082601f830112611d2f57611d2e6117d8565b5b6002611d3c848285611cba565b91505092915050565b600060408284031215611d5b57611d5a611061565b5b6000611d6984828501611d1a565b91505092915050565b6000819050919050565b611d8d611d8882611c62565b611d72565b82525050565b6000611d9f8285611d7c565b601082019150611daf8284611d7c565b6010820191508190509392505050565b6000611dcb82846116da565b6014820191508190509291505056fea264697066735822122020e1f4e203106f5e228557a32963503a00b18498294dac39b4ce4b172d80907d64736f6c634300080f003360806040526000600160146101000a81548160ff0219169083151502179055507f868640b1c1ae76f98d5a65e35f03a012e5169c298cb4db2d7b71b05e26410c736005556040518061012001604052807f3f82a2b5852cbedcda3d9062384397479ac9a00dae9991874d842bec7aab98ce6bffffffffffffffffffffffff19166bffffffffffffffffffffffff191681526020017f95e794640ff3efd16bfe738f1a9bf2886d166af549121f57d6e14af6b513f45d6bffffffffffffffffffffffff19166bffffffffffffffffffffffff191681526020017fbd3132afbfa232f7d171a873f7e52e32c666b06d8af76d2c9a4ec8149c6b4f986bffffffffffffffffffffffff19166bffffffffffffffffffffffff191681526020017f29eed6590124f64f9236a23d588dbe9a7731e8e7d994f19cbb599c2c9372e7f46bffffffffffffffffffffffff19166bffffffffffffffffffffffff191681526020017fe9079e01bc10f74c7548106059c64f0d04857893cee4fbc8810c4b405700c0976bffffffffffffffffffffffff19166bffffffffffffffffffffffff191681526020017f7ef9322621ca886af10c2bf8f67b9ce1dbafe8f40c0ac7f7e0e8dab81a7feff86bffffffffffffffffffffffff19166bffffffffffffffffffffffff191681526020017fc589c7f4e5976c631f54442ad87fcec402da02df9989767145e519abcbd2b1d96bffffffffffffffffffffffff19166bffffffffffffffffffffffff191681526020017f214afa26c5f6a535e82ca315d5ffc739048132e744c73f66d711468ed63faac96bffffffffffffffffffffffff19166bffffffffffffffffffffffff191681526020017feaeb11cb7786797587689f7f6303acfee9b7b7570354137133562456569337596bffffffffffffffffffffffff19166bffffffffffffffffffffffff19168152506006906009620002c3929190620002d8565b50348015620002d157600080fd5b5062000366565b826009810192821562000334579160200282015b82811115620003335782518260006101000a81548173ffffffffffffffffffffffffffffffffffffffff021916908360601c021790555091602001919060010190620002ec565b5b50905062000343919062000347565b5090565b5b808211156200036257600081600090555060010162000348565b5090565b6130b680620003766000396000f3fe608060405234801561001057600080fd5b50600436106100ea5760003560e01c806391021ae81161008c578063a56c89b111610066578063a56c89b11461026b578063c70b2d381461029b578063d7a96f2b146102b7578063dd596655146102d5576100ea565b806391021ae814610203578063994d43c31461021f5780639ec7b2611461024f576100ea565b80633fb7718e116100c85780633fb7718e1461015757806346ccaefa14610173578063525ae7f1146101a3578063781cc232146101d3576100ea565b806305c6e8de146100ef578063184b95591461010b57806338671fd214610127575b600080fd5b61010960048036038101906101049190611c56565b610306565b005b61012560048036038101906101209190611d82565b61058c565b005b610141600480360381019061013c9190611e0e565b610718565b60405161014e9190611e76565b60405180910390f35b610171600480360381019061016c9190612180565b610747565b005b61018d600480360381019061018891906122ac565b610c1e565b60405161019a9190612317565b60405180910390f35b6101bd60048036038101906101b89190612332565b610c80565b6040516101ca919061238d565b60405180910390f35b6101ed60048036038101906101e891906123d4565b610d82565b6040516101fa919061242d565b60405180910390f35b61021d60048036038101906102189190612448565b610dbd565b005b610239600480360381019061023491906124b7565b610f41565b604051610246919061256c565b60405180910390f35b61026960048036038101906102649190612332565b6110d8565b005b610285600480360381019061028091906123d4565b6112a8565b604051610292919061256c565b60405180910390f35b6102b560048036038101906102b091906124b7565b611362565b005b6102bf6114ff565b6040516102cc919061259d565b60405180910390f35b6102ef60048036038101906102ea91906125b8565b6115b5565b6040516102fd9291906127af565b60405180910390f35b33600160009054906101000a900473ffffffffffffffffffffffffffffffffffffffff1673ffffffffffffffffffffffffffffffffffffffff168173ffffffffffffffffffffffffffffffffffffffff1614610397576040517f08c379a000000000000000000000000000000000000000000000000000000000815260040161038e90612843565b60405180910390fd5b600160149054906101000a900460ff166103e6576040517f08c379a00000000000000000000000000000000000000000000000000000000081526004016103dd906128af565b60405180910390fd5b6000600360009054906101000a900473ffffffffffffffffffffffffffffffffffffffff1673ffffffffffffffffffffffffffffffffffffffff16634bb5ec326005546040518263ffffffff1660e01b8152600401610445919061242d565b6040805180830381865afa158015610461573d6000803e3d6000fd5b505050506040513d601f19601f8201168201806040525081019061048591906129d8565b905060008160006002811061049d5761049c612a05565b5b60200201518560801b6040516020016104b7929190612a55565b6040516020818303038152906040526104cf90612ab3565b90506000846040516020016104e49190612b3b565b6040516020818303038152906040529050600260009054906101000a900473ffffffffffffffffffffffffffffffffffffffff1673ffffffffffffffffffffffffffffffffffffffff16637f23690c83836040518363ffffffff1660e01b8152600401610552929190612b56565b600060405180830381600087803b15801561056c57600080fd5b505af1158015610580573d6000803e3d6000fd5b50505050505050505050565b600160149054906101000a900460ff16156105dc576040517f08c379a00000000000000000000000000000000000000000000000000000000081526004016105d390612bd2565b60405180910390fd5b600160149054906101000a900460ff161561062c576040517f08c379a000000000000000000000000000000000000000000000000000000000815260040161062390612c64565b60405180910390fd5b82600260006101000a81548173ffffffffffffffffffffffffffffffffffffffff021916908373ffffffffffffffffffffffffffffffffffffffff16021790555081600360006101000a81548173ffffffffffffffffffffffffffffffffffffffff021916908373ffffffffffffffffffffffffffffffffffffffff1602179055506106b88282611ac5565b80600460006101000a81548173ffffffffffffffffffffffffffffffffffffffff021916908373ffffffffffffffffffffffffffffffffffffffff16021790555060018060146101000a81548160ff021916908315150217905550505050565b600060068260ff166009811061073157610730612a05565b5b0160009054906101000a900460601b9050919050565b33600160009054906101000a900473ffffffffffffffffffffffffffffffffffffffff1673ffffffffffffffffffffffffffffffffffffffff168173ffffffffffffffffffffffffffffffffffffffff16146107d8576040517f08c379a00000000000000000000000000000000000000000000000000000000081526004016107cf90612843565b60405180910390fd5b600160149054906101000a900460ff16610827576040517f08c379a000000000000000000000000000000000000000000000000000000000815260040161081e906128af565b60405180910390fd5b600061085685600660056009811061084257610841612a05565b5b0160009054906101000a900460601b610d82565b90506000610886866006806009811061087257610871612a05565b5b0160009054906101000a900460601b610d82565b905060008551905060005b81816fffffffffffffffffffffffffffffffff161015610c1457600260009054906101000a900473ffffffffffffffffffffffffffffffffffffffff1673ffffffffffffffffffffffffffffffffffffffff16637f23690c600360009054906101000a900473ffffffffffffffffffffffffffffffffffffffff1673ffffffffffffffffffffffffffffffffffffffff16634bb5ec32876040518263ffffffff1660e01b8152600401610944919061242d565b6040805180830381865afa158015610960573d6000803e3d6000fd5b505050506040513d601f19601f8201168201806040525081019061098491906129d8565b60006002811061099757610996612a05565b5b60200201518360801b6040516020016109b1929190612a55565b6040516020818303038152906040526109c990612ab3565b89846fffffffffffffffffffffffffffffffff16815181106109ee576109ed612a05565b5b602002602001015160601b604051602001610a099190612ca5565b6040516020818303038152906040526040518363ffffffff1660e01b8152600401610a35929190612b56565b600060405180830381600087803b158015610a4f57600080fd5b505af1158015610a63573d6000803e3d6000fd5b50505050600260009054906101000a900473ffffffffffffffffffffffffffffffffffffffff1673ffffffffffffffffffffffffffffffffffffffff16637f23690c600360009054906101000a900473ffffffffffffffffffffffffffffffffffffffff1673ffffffffffffffffffffffffffffffffffffffff16634bb5ec32866040518263ffffffff1660e01b8152600401610b00919061242d565b6040805180830381865afa158015610b1c573d6000803e3d6000fd5b505050506040513d601f19601f82011682018060405250810190610b4091906129d8565b600060028110610b5357610b52612a05565b5b60200201518360801b604051602001610b6d929190612a55565b604051602081830303815290604052610b8590612ab3565b88846fffffffffffffffffffffffffffffffff1681518110610baa57610ba9612a05565b5b60200260200101516040518363ffffffff1660e01b8152600401610bcf929190612b56565b600060405180830381600087803b158015610be957600080fd5b505af1158015610bfd573d6000803e3d6000fd5b505050508080610c0c90612d0b565b915050610891565b5050505050505050565b600082604051602001610c31919061259d565b604051602081830303815290604052805190602001208280519060200120604051602001610c60929190612ddd565b604051602081830303815290604052610c7890612e1e565b905092915050565b60008082600060f01b8560601b604051602001610c9f93929190612ed2565b604051602081830303815290604052610cb790612ab3565b90506001600260009054906101000a900473ffffffffffffffffffffffffffffffffffffffff1673ffffffffffffffffffffffffffffffffffffffff166354f6127f836040518263ffffffff1660e01b8152600401610d16919061242d565b600060405180830381865afa158015610d33573d6000803e3d6000fd5b505050506040513d6000823e3d601f19601f82011682018060405250810190610d5c9190612f7f565b610d6590612ab3565b60001c03610d765760019150610d7b565b600091505b5092915050565b600082600060f01b83604051602001610d9d93929190612ed2565b604051602081830303815290604052610db590612ab3565b905092915050565b33600160009054906101000a900473ffffffffffffffffffffffffffffffffffffffff1673ffffffffffffffffffffffffffffffffffffffff168173ffffffffffffffffffffffffffffffffffffffff1614610e4e576040517f08c379a0000000000000000000000000000000000000000000000000000000008152600401610e4590612843565b60405180910390fd5b600160149054906101000a900460ff16610e9d576040517f08c379a0000000000000000000000000000000000000000000000000000000008152600401610e94906128af565b60405180910390fd5b6000610ea98585610d82565b9050600260009054906101000a900473ffffffffffffffffffffffffffffffffffffffff1673ffffffffffffffffffffffffffffffffffffffff16637f23690c82856040518363ffffffff1660e01b8152600401610f08929190612b56565b600060405180830381600087803b158015610f2257600080fd5b505af1158015610f36573d6000803e3d6000fd5b505050505050505050565b60606000600360009054906101000a900473ffffffffffffffffffffffffffffffffffffffff1673ffffffffffffffffffffffffffffffffffffffff16634bb5ec326005546040518263ffffffff1660e01b8152600401610fa2919061242d565b6040805180830381865afa158015610fbe573d6000803e3d6000fd5b505050506040513d601f19601f82011682018060405250810190610fe291906129d8565b9050600081600060028110610ffa57610ff9612a05565b5b60200201518460801b604051602001611014929190612a55565b60405160208183030381529060405261102c90612ab3565b9050600260009054906101000a900473ffffffffffffffffffffffffffffffffffffffff1673ffffffffffffffffffffffffffffffffffffffff166354f6127f826040518263ffffffff1660e01b8152600401611089919061242d565b600060405180830381865afa1580156110a6573d6000803e3d6000fd5b505050506040513d6000823e3d601f19601f820116820180604052508101906110cf9190612f7f565b92505050919050565b33600160009054906101000a900473ffffffffffffffffffffffffffffffffffffffff1673ffffffffffffffffffffffffffffffffffffffff168173ffffffffffffffffffffffffffffffffffffffff1614611169576040517f08c379a000000000000000000000000000000000000000000000000000000000815260040161116090612843565b60405180910390fd5b600160149054906101000a900460ff166111b8576040517f08c379a00000000000000000000000000000000000000000000000000000000081526004016111af906128af565b60405180910390fd5b600082600060f01b8560601b6040516020016111d693929190612ed2565b6040516020818303038152906040526111ee90612ab3565b9050600260009054906101000a900473ffffffffffffffffffffffffffffffffffffffff1673ffffffffffffffffffffffffffffffffffffffff16637f23690c82600160001b6040516020016112449190612fe9565b6040516020818303038152906040526040518363ffffffff1660e01b8152600401611270929190612b56565b600060405180830381600087803b15801561128a57600080fd5b505af115801561129e573d6000803e3d6000fd5b5050505050505050565b606060006112b68484610d82565b9050600260009054906101000a900473ffffffffffffffffffffffffffffffffffffffff1673ffffffffffffffffffffffffffffffffffffffff166354f6127f826040518263ffffffff1660e01b8152600401611313919061242d565b600060405180830381865afa158015611330573d6000803e3d6000fd5b505050506040513d6000823e3d601f19601f820116820180604052508101906113599190612f7f565b91505092915050565b33600160009054906101000a900473ffffffffffffffffffffffffffffffffffffffff1673ffffffffffffffffffffffffffffffffffffffff168173ffffffffffffffffffffffffffffffffffffffff16146113f3576040517f08c379a00000000000000000000000000000000000000000000000000000000081526004016113ea90612843565b60405180910390fd5b600160149054906101000a900460ff16611442576040517f08c379a0000000000000000000000000000000000000000000000000000000008152600401611439906128af565b60405180910390fd5b60008260001b6040516020016114589190612fe9565b6040516020818303038152906040529050600260009054906101000a900473ffffffffffffffffffffffffffffffffffffffff1673ffffffffffffffffffffffffffffffffffffffff16637f23690c600554836040518363ffffffff1660e01b81526004016114c8929190612b56565b600060405180830381600087803b1580156114e257600080fd5b505af11580156114f6573d6000803e3d6000fd5b50505050505050565b6000600260009054906101000a900473ffffffffffffffffffffffffffffffffffffffff1673ffffffffffffffffffffffffffffffffffffffff166354f6127f6005546040518263ffffffff1660e01b815260040161155e919061242d565b600060405180830381865afa15801561157b573d6000803e3d6000fd5b505050506040513d6000823e3d601f19601f820116820180604052508101906115a49190612f7f565b6115ad90612ab3565b60001c905090565b60608060006115e78460066005600981106115d3576115d2612a05565b5b0160009054906101000a900460601b610d82565b90506000611617856006806009811061160357611602612a05565b5b0160009054906101000a900460601b610d82565b9050600061164886600660056009811061163457611633612a05565b5b0160009054906101000a900460601b6112a8565b61165190612ab3565b60001c90508067ffffffffffffffff8111156116705761166f611ea7565b5b60405190808252806020026020018201604052801561169e5781602001602082028036833780820191505090505b5094508067ffffffffffffffff8111156116bb576116ba611ea7565b5b6040519080825280602002602001820160405280156116ee57816020015b60608152602001906001900390816116d95790505b50935060005b81816fffffffffffffffffffffffffffffffff161015611abc57600260009054906101000a900473ffffffffffffffffffffffffffffffffffffffff1673ffffffffffffffffffffffffffffffffffffffff166354f6127f600360009054906101000a900473ffffffffffffffffffffffffffffffffffffffff1673ffffffffffffffffffffffffffffffffffffffff16634bb5ec32876040518263ffffffff1660e01b81526004016117a7919061242d565b6040805180830381865afa1580156117c3573d6000803e3d6000fd5b505050506040513d601f19601f820116820180604052508101906117e791906129d8565b6000600281106117fa576117f9612a05565b5b60200201518360801b604051602001611814929190612a55565b60405160208183030381529060405261182c90612ab3565b6040518263ffffffff1660e01b8152600401611848919061242d565b600060405180830381865afa158015611865573d6000803e3d6000fd5b505050506040513d6000823e3d601f19601f8201168201806040525081019061188e9190612f7f565b61189790613019565b60601c86826fffffffffffffffffffffffffffffffff16815181106118bf576118be612a05565b5b602002602001019073ffffffffffffffffffffffffffffffffffffffff16908173ffffffffffffffffffffffffffffffffffffffff1681525050600260009054906101000a900473ffffffffffffffffffffffffffffffffffffffff1673ffffffffffffffffffffffffffffffffffffffff166354f6127f600360009054906101000a900473ffffffffffffffffffffffffffffffffffffffff1673ffffffffffffffffffffffffffffffffffffffff16634bb5ec32866040518263ffffffff1660e01b8152600401611992919061242d565b6040805180830381865afa1580156119ae573d6000803e3d6000fd5b505050506040513d601f19601f820116820180604052508101906119d291906129d8565b6000600281106119e5576119e4612a05565b5b60200201518360801b6040516020016119ff929190612a55565b604051602081830303815290604052611a1790612ab3565b6040518263ffffffff1660e01b8152600401611a33919061242d565b600060405180830381865afa158015611a50573d6000803e3d6000fd5b505050506040513d6000823e3d601f19601f82011682018060405250810190611a799190612f7f565b85826fffffffffffffffffffffffffffffffff1681518110611a9e57611a9d612a05565b5b60200260200101819052508080611ab490612d0b565b9150506116f4565b50505050915091565b600160149054906101000a900460ff1615611b15576040517f08c379a0000000000000000000000000000000000000000000000000000000008152600401611b0c90612c64565b60405180910390fd5b816000806101000a81548173ffffffffffffffffffffffffffffffffffffffff021916908373ffffffffffffffffffffffffffffffffffffffff16021790555080600160006101000a81548173ffffffffffffffffffffffffffffffffffffffff021916908373ffffffffffffffffffffffffffffffffffffffff16021790555060018060146101000a81548160ff0219169083151502179055505050565b6000604051905090565b600080fd5b600080fd5b6000819050919050565b611bdb81611bc8565b8114611be657600080fd5b50565b600081359050611bf881611bd2565b92915050565b60007fffffffffffffffffffff0000000000000000000000000000000000000000000082169050919050565b611c3381611bfe565b8114611c3e57600080fd5b50565b600081359050611c5081611c2a565b92915050565b60008060408385031215611c6d57611c6c611bbe565b5b6000611c7b85828601611be9565b9250506020611c8c85828601611c41565b9150509250929050565b600073ffffffffffffffffffffffffffffffffffffffff82169050919050565b6000611cc182611c96565b9050919050565b6000611cd382611cb6565b9050919050565b611ce381611cc8565b8114611cee57600080fd5b50565b600081359050611d0081611cda565b92915050565b6000611d1182611c96565b9050919050565b6000611d2382611d06565b9050919050565b611d3381611d18565b8114611d3e57600080fd5b50565b600081359050611d5081611d2a565b92915050565b611d5f81611d06565b8114611d6a57600080fd5b50565b600081359050611d7c81611d56565b92915050565b600080600060608486031215611d9b57611d9a611bbe565b5b6000611da986828701611cf1565b9350506020611dba86828701611d41565b9250506040611dcb86828701611d6d565b9150509250925092565b600060ff82169050919050565b611deb81611dd5565b8114611df657600080fd5b50565b600081359050611e0881611de2565b92915050565b600060208284031215611e2457611e23611bbe565b5b6000611e3284828501611df9565b91505092915050565b60007fffffffffffffffffffffffffffffffffffffffff00000000000000000000000082169050919050565b611e7081611e3b565b82525050565b6000602082019050611e8b6000830184611e67565b92915050565b600080fd5b6000601f19601f8301169050919050565b7f4e487b7100000000000000000000000000000000000000000000000000000000600052604160045260246000fd5b611edf82611e96565b810181811067ffffffffffffffff82111715611efe57611efd611ea7565b5b80604052505050565b6000611f11611bb4565b9050611f1d8282611ed6565b919050565b600067ffffffffffffffff821115611f3d57611f3c611ea7565b5b602082029050602081019050919050565b600080fd5b6000611f66611f6184611f22565b611f07565b90508083825260208201905060208402830185811115611f8957611f88611f4e565b5b835b81811015611fb25780611f9e8882611d6d565b845260208401935050602081019050611f8b565b5050509392505050565b600082601f830112611fd157611fd0611e91565b5b8135611fe1848260208601611f53565b91505092915050565b600067ffffffffffffffff82111561200557612004611ea7565b5b602082029050602081019050919050565b600080fd5b600067ffffffffffffffff82111561203657612035611ea7565b5b61203f82611e96565b9050602081019050919050565b82818337600083830152505050565b600061206e6120698461201b565b611f07565b90508281526020810184848401111561208a57612089612016565b5b61209584828561204c565b509392505050565b600082601f8301126120b2576120b1611e91565b5b81356120c284826020860161205b565b91505092915050565b60006120de6120d984611fea565b611f07565b9050808382526020820190506020840283018581111561210157612100611f4e565b5b835b8181101561214857803567ffffffffffffffff81111561212657612125611e91565b5b808601612133898261209d565b85526020850194505050602081019050612103565b5050509392505050565b600082601f83011261216757612166611e91565b5b81356121778482602086016120cb565b91505092915050565b60008060006060848603121561219957612198611bbe565b5b60006121a786828701611c41565b935050602084013567ffffffffffffffff8111156121c8576121c7611bc3565b5b6121d486828701611fbc565b925050604084013567ffffffffffffffff8111156121f5576121f4611bc3565b5b61220186828701612152565b9150509250925092565b600067ffffffffffffffff82111561222657612225611ea7565b5b61222f82611e96565b9050602081019050919050565b600061224f61224a8461220b565b611f07565b90508281526020810184848401111561226b5761226a612016565b5b61227684828561204c565b509392505050565b600082601f83011261229357612292611e91565b5b81356122a384826020860161223c565b91505092915050565b600080604083850312156122c3576122c2611bbe565b5b60006122d185828601611be9565b925050602083013567ffffffffffffffff8111156122f2576122f1611bc3565b5b6122fe8582860161227e565b9150509250929050565b61231181611bfe565b82525050565b600060208201905061232c6000830184612308565b92915050565b6000806040838503121561234957612348611bbe565b5b600061235785828601611d6d565b925050602061236885828601611c41565b9150509250929050565b60008115159050919050565b61238781612372565b82525050565b60006020820190506123a2600083018461237e565b92915050565b6123b181611e3b565b81146123bc57600080fd5b50565b6000813590506123ce816123a8565b92915050565b600080604083850312156123eb576123ea611bbe565b5b60006123f985828601611c41565b925050602061240a858286016123bf565b9150509250929050565b6000819050919050565b61242781612414565b82525050565b6000602082019050612442600083018461241e565b92915050565b60008060006060848603121561246157612460611bbe565b5b600061246f86828701611c41565b9350506020612480868287016123bf565b925050604084013567ffffffffffffffff8111156124a1576124a0611bc3565b5b6124ad8682870161209d565b9150509250925092565b6000602082840312156124cd576124cc611bbe565b5b60006124db84828501611be9565b91505092915050565b600081519050919050565b600082825260208201905092915050565b60005b8381101561251e578082015181840152602081019050612503565b8381111561252d576000848401525b50505050565b600061253e826124e4565b61254881856124ef565b9350612558818560208601612500565b61256181611e96565b840191505092915050565b600060208201905081810360008301526125868184612533565b905092915050565b61259781611bc8565b82525050565b60006020820190506125b2600083018461258e565b92915050565b6000602082840312156125ce576125cd611bbe565b5b60006125dc84828501611c41565b91505092915050565b600081519050919050565b600082825260208201905092915050565b6000819050602082019050919050565b61261a81611d06565b82525050565b600061262c8383612611565b60208301905092915050565b6000602082019050919050565b6000612650826125e5565b61265a81856125f0565b935061266583612601565b8060005b8381101561269657815161267d8882612620565b975061268883612638565b925050600181019050612669565b5085935050505092915050565b600081519050919050565b600082825260208201905092915050565b6000819050602082019050919050565b600082825260208201905092915050565b60006126eb826124e4565b6126f581856126cf565b9350612705818560208601612500565b61270e81611e96565b840191505092915050565b600061272583836126e0565b905092915050565b6000602082019050919050565b6000612745826126a3565b61274f81856126ae565b935083602082028501612761856126bf565b8060005b8581101561279d578484038952815161277e8582612719565b94506127898361272d565b925060208a01995050600181019050612765565b50829750879550505050505092915050565b600060408201905081810360008301526127c98185612645565b905081810360208301526127dd818461273a565b90509392505050565b600082825260208201905092915050565b7f43616c6c6572206973206e6f74207468652044414f2e00000000000000000000600082015250565b600061282d6016836127e6565b9150612838826127f7565b602082019050919050565b6000602082019050818103600083015261285c81612820565b9050919050565b7f436f6e74726163747320617265206e6f7420696e697469616c697a65642e0000600082015250565b6000612899601e836127e6565b91506128a482612863565b602082019050919050565b600060208201905081810360008301526128c88161288c565b9050919050565b600067ffffffffffffffff8211156128ea576128e9611ea7565b5b602082029050919050565b60007fffffffffffffffffffffffffffffffff0000000000000000000000000000000082169050919050565b61292a816128f5565b811461293557600080fd5b50565b60008151905061294781612921565b92915050565b600061296061295b846128cf565b611f07565b9050806020840283018581111561297a57612979611f4e565b5b835b818110156129a3578061298f8882612938565b84526020840193505060208101905061297c565b5050509392505050565b600082601f8301126129c2576129c1611e91565b5b60026129cf84828561294d565b91505092915050565b6000604082840312156129ee576129ed611bbe565b5b60006129fc848285016129ad565b91505092915050565b7f4e487b7100000000000000000000000000000000000000000000000000000000600052603260045260246000fd5b6000819050919050565b612a4f612a4a826128f5565b612a34565b82525050565b6000612a618285612a3e565b601082019150612a718284612a3e565b6010820191508190509392505050565b6000819050602082019050919050565b6000612a9d8251612414565b80915050919050565b600082821b905092915050565b6000612abe826124e4565b82612ac884612a81565b9050612ad381612a91565b92506020821015612b1357612b0e7fffffffffffffffffffffffffffffffffffffffffffffffffffffffffffffffff83602003600802612aa6565b831692505b5050919050565b6000819050919050565b612b35612b3082611bfe565b612b1a565b82525050565b6000612b478284612b24565b600a8201915081905092915050565b6000604082019050612b6b600083018561241e565b8181036020830152612b7d8184612533565b90509392505050565b7f436f6e7472616374732061726520696e697469616c697a65642e000000000000600082015250565b6000612bbc601a836127e6565b9150612bc782612b86565b602082019050919050565b60006020820190508181036000830152612beb81612baf565b9050919050565b7f54686520636f6e747261637420697320616c726561647920696e697469616c6960008201527f7a65642e00000000000000000000000000000000000000000000000000000000602082015250565b6000612c4e6024836127e6565b9150612c5982612bf2565b604082019050919050565b60006020820190508181036000830152612c7d81612c41565b9050919050565b6000819050919050565b612c9f612c9a82611e3b565b612c84565b82525050565b6000612cb18284612c8e565b60148201915081905092915050565b7f4e487b7100000000000000000000000000000000000000000000000000000000600052601160045260246000fd5b60006fffffffffffffffffffffffffffffffff82169050919050565b6000612d1682612cef565b91506fffffffffffffffffffffffffffffffff8203612d3857612d37612cc0565b5b600182019050919050565b60007fffffffffffff000000000000000000000000000000000000000000000000000082169050919050565b6000819050919050565b612d8a612d8582612d43565b612d6f565b82525050565b60007fffffffff0000000000000000000000000000000000000000000000000000000082169050919050565b6000819050919050565b612dd7612dd282612d90565b612dbc565b82525050565b6000612de98285612d79565b600682019150612df98284612dc6565b6004820191508190509392505050565b6000612e158251611bfe565b80915050919050565b6000612e29826124e4565b82612e3384612a81565b9050612e3e81612e09565b9250600a821015612e7e57612e797fffffffffffffffffffff0000000000000000000000000000000000000000000083600a03600802612aa6565b831692505b5050919050565b60007fffff00000000000000000000000000000000000000000000000000000000000082169050919050565b6000819050919050565b612ecc612ec782612e85565b612eb1565b82525050565b6000612ede8286612b24565b600a82019150612eee8285612ebb565b600282019150612efe8284612c8e565b601482019150819050949350505050565b6000612f22612f1d8461201b565b611f07565b905082815260208101848484011115612f3e57612f3d612016565b5b612f49848285612500565b509392505050565b600082601f830112612f6657612f65611e91565b5b8151612f76848260208601612f0f565b91505092915050565b600060208284031215612f9557612f94611bbe565b5b600082015167ffffffffffffffff811115612fb357612fb2611bc3565b5b612fbf84828501612f51565b91505092915050565b6000819050919050565b612fe3612fde82612414565b612fc8565b82525050565b6000612ff58284612fd2565b60208201915081905092915050565b60006130108251611e3b565b80915050919050565b6000613024826124e4565b8261302e84612a81565b905061303981613004565b92506014821015613079576130747fffffffffffffffffffffffffffffffffffffffff00000000000000000000000083601403600802612aa6565b831692505b505091905056fea26469706673582212208e9ece41abdbb26705bd119aaede2a9cc4fe4dfc82483abd80a68249bd9d364a64736f6c634300080f003360806040526000600160146101000a81548160ff02191690831515021790555034801561002b57600080fd5b50611c1e8061003b6000396000f3fe608060405234801561001057600080fd5b506004361061007d5760003560e01c806398f351741161005b57806398f35174146100ea578063bae744a51461011a578063bece603a1461014a578063fd3ee5f4146101665761007d565b8063184b9559146100825780631b311a4b1461009e57806361f49787146100ce575b600080fd5b61009c60048036038101906100979190611049565b610182565b005b6100b860048036038101906100b3919061109c565b61030e565b6040516100c591906110d8565b60405180910390f35b6100e860048036038101906100e39190611129565b61041c565b005b61010460048036038101906100ff919061109c565b610633565b6040516101119190611178565b60405180910390f35b610134600480360381019061012f9190611193565b61075e565b60405161014191906110d8565b60405180910390f35b610164600480360381019061015f91906111d3565b61096e565b005b610180600480360381019061017b9190611213565b610b63565b005b600160149054906101000a900460ff16156101d2576040517f08c379a00000000000000000000000000000000000000000000000000000000081526004016101c9906112c3565b60405180910390fd5b600160149054906101000a900460ff1615610222576040517f08c379a000000000000000000000000000000000000000000000000000000000815260040161021990611355565b60405180910390fd5b82600260006101000a81548173ffffffffffffffffffffffffffffffffffffffff021916908373ffffffffffffffffffffffffffffffffffffffff16021790555081600360006101000a81548173ffffffffffffffffffffffffffffffffffffffff021916908373ffffffffffffffffffffffffffffffffffffffff1602179055506102ae8282610e5a565b80600460006101000a81548173ffffffffffffffffffffffffffffffffffffffff021916908373ffffffffffffffffffffffffffffffffffffffff16021790555060018060146101000a81548160ff021916908315150217905550505050565b6000807fe9506e3d2587fc04e328470c13bf1130def14def5c14cb5b71970ff8144e4299600060f01b8460601b60405160200161034d9392919061145c565b604051602081830303815290604052610365906114e0565b9050600260009054906101000a900473ffffffffffffffffffffffffffffffffffffffff1673ffffffffffffffffffffffffffffffffffffffff166354f6127f826040518263ffffffff1660e01b81526004016103c29190611556565b600060405180830381865afa1580156103df573d6000803e3d6000fd5b505050506040513d6000823e3d601f19601f8201168201806040525081019061040891906116db565b61041190611739565b60601c915050919050565b33600160009054906101000a900473ffffffffffffffffffffffffffffffffffffffff1673ffffffffffffffffffffffffffffffffffffffff168173ffffffffffffffffffffffffffffffffffffffff16146104ad576040517f08c379a00000000000000000000000000000000000000000000000000000000081526004016104a4906117ec565b60405180910390fd5b600160149054906101000a900460ff166104fc576040517f08c379a00000000000000000000000000000000000000000000000000000000081526004016104f390611858565b60405180910390fd5b60007f321d588394b2b1ae9eb09d447e72908c29c47484b007463fbbc62f1f467e32ab7fe9506e3d2587fc04e328470c13bf1130def14def5c14cb5b71970ff8144e4299600060f01b8560601b60405160200161055c9493929190611912565b604051602081830303815290604052610574906114e0565b905060008460001b60405160200161058c9190611981565b6040516020818303038152906040529050600260009054906101000a900473ffffffffffffffffffffffffffffffffffffffff1673ffffffffffffffffffffffffffffffffffffffff16637f23690c83836040518363ffffffff1660e01b81526004016105fa9291906119e6565b600060405180830381600087803b15801561061457600080fd5b505af1158015610628573d6000803e3d6000fd5b505050505050505050565b6000600260009054906101000a900473ffffffffffffffffffffffffffffffffffffffff1673ffffffffffffffffffffffffffffffffffffffff166354f6127f7f321d588394b2b1ae9eb09d447e72908c29c47484b007463fbbc62f1f467e32ab7fe9506e3d2587fc04e328470c13bf1130def14def5c14cb5b71970ff8144e4299600060f01b8660601b6040516020016106d19493929190611912565b6040516020818303038152906040526106e9906114e0565b6040518263ffffffff1660e01b81526004016107059190611556565b600060405180830381865afa158015610722573d6000803e3d6000fd5b505050506040513d6000823e3d601f19601f8201168201806040525081019061074b91906116db565b610754906114e0565b60001c9050919050565b600080600360009054906101000a900473ffffffffffffffffffffffffffffffffffffffff1673ffffffffffffffffffffffffffffffffffffffff16634bb5ec327f321d588394b2b1ae9eb09d447e72908c29c47484b007463fbbc62f1f467e32ab7fe9506e3d2587fc04e328470c13bf1130def14def5c14cb5b71970ff8144e4299600060f01b8860601b6040516020016107fd9493929190611912565b604051602081830303815290604052610815906114e0565b6040518263ffffffff1660e01b81526004016108319190611556565b6040805180830381865afa15801561084d573d6000803e3d6000fd5b505050506040513d601f19601f820116820180604052508101906108719190611b24565b60006002811061088457610883611b51565b5b60200201518360801b60405160200161089e929190611ba1565b6040516020818303038152906040526108b6906114e0565b9050600260009054906101000a900473ffffffffffffffffffffffffffffffffffffffff1673ffffffffffffffffffffffffffffffffffffffff166354f6127f826040518263ffffffff1660e01b81526004016109139190611556565b600060405180830381865afa158015610930573d6000803e3d6000fd5b505050506040513d6000823e3d601f19601f8201168201806040525081019061095991906116db565b61096290611739565b60601c91505092915050565b33600160009054906101000a900473ffffffffffffffffffffffffffffffffffffffff1673ffffffffffffffffffffffffffffffffffffffff168173ffffffffffffffffffffffffffffffffffffffff16146109ff576040517f08c379a00000000000000000000000000000000000000000000000000000000081526004016109f6906117ec565b60405180910390fd5b600160149054906101000a900460ff16610a4e576040517f08c379a0000000000000000000000000000000000000000000000000000000008152600401610a4590611858565b60405180910390fd5b60007fe9506e3d2587fc04e328470c13bf1130def14def5c14cb5b71970ff8144e4299600060f01b8560601b604051602001610a8c9392919061145c565b604051602081830303815290604052610aa4906114e0565b905060008360601b604051602001610abc9190611bcd565b6040516020818303038152906040529050600260009054906101000a900473ffffffffffffffffffffffffffffffffffffffff1673ffffffffffffffffffffffffffffffffffffffff16637f23690c83836040518363ffffffff1660e01b8152600401610b2a9291906119e6565b600060405180830381600087803b158015610b4457600080fd5b505af1158015610b58573d6000803e3d6000fd5b505050505050505050565b33600160009054906101000a900473ffffffffffffffffffffffffffffffffffffffff1673ffffffffffffffffffffffffffffffffffffffff168173ffffffffffffffffffffffffffffffffffffffff1614610bf4576040517f08c379a0000000000000000000000000000000000000000000000000000000008152600401610beb906117ec565b60405180910390fd5b600160149054906101000a900460ff16610c43576040517f08c379a0000000000000000000000000000000000000000000000000000000008152600401610c3a90611858565b60405180910390fd5b6000600360009054906101000a900473ffffffffffffffffffffffffffffffffffffffff1673ffffffffffffffffffffffffffffffffffffffff16634bb5ec327f321d588394b2b1ae9eb09d447e72908c29c47484b007463fbbc62f1f467e32ab7fe9506e3d2587fc04e328470c13bf1130def14def5c14cb5b71970ff8144e4299600060f01b8860601b604051602001610ce19493929190611912565b604051602081830303815290604052610cf9906114e0565b6040518263ffffffff1660e01b8152600401610d159190611556565b6040805180830381865afa158015610d31573d6000803e3d6000fd5b505050506040513d601f19601f82011682018060405250810190610d559190611b24565b600060028110610d6857610d67611b51565b5b60200201518360801b604051602001610d82929190611ba1565b604051602081830303815290604052610d9a906114e0565b905060008560601b604051602001610db29190611bcd565b6040516020818303038152906040529050600260009054906101000a900473ffffffffffffffffffffffffffffffffffffffff1673ffffffffffffffffffffffffffffffffffffffff16637f23690c83836040518363ffffffff1660e01b8152600401610e209291906119e6565b600060405180830381600087803b158015610e3a57600080fd5b505af1158015610e4e573d6000803e3d6000fd5b50505050505050505050565b600160149054906101000a900460ff1615610eaa576040517f08c379a0000000000000000000000000000000000000000000000000000000008152600401610ea190611355565b60405180910390fd5b816000806101000a81548173ffffffffffffffffffffffffffffffffffffffff021916908373ffffffffffffffffffffffffffffffffffffffff16021790555080600160006101000a81548173ffffffffffffffffffffffffffffffffffffffff021916908373ffffffffffffffffffffffffffffffffffffffff16021790555060018060146101000a81548160ff0219169083151502179055505050565b6000604051905090565b600080fd5b600080fd5b600073ffffffffffffffffffffffffffffffffffffffff82169050919050565b6000610f8882610f5d565b9050919050565b6000610f9a82610f7d565b9050919050565b610faa81610f8f565b8114610fb557600080fd5b50565b600081359050610fc781610fa1565b92915050565b6000610fd882610f5d565b9050919050565b6000610fea82610fcd565b9050919050565b610ffa81610fdf565b811461100557600080fd5b50565b60008135905061101781610ff1565b92915050565b61102681610fcd565b811461103157600080fd5b50565b6000813590506110438161101d565b92915050565b60008060006060848603121561106257611061610f53565b5b600061107086828701610fb8565b935050602061108186828701611008565b925050604061109286828701611034565b9150509250925092565b6000602082840312156110b2576110b1610f53565b5b60006110c084828501611034565b91505092915050565b6110d281610fcd565b82525050565b60006020820190506110ed60008301846110c9565b92915050565b6000819050919050565b611106816110f3565b811461111157600080fd5b50565b600081359050611123816110fd565b92915050565b600080604083850312156111405761113f610f53565b5b600061114e85828601611114565b925050602061115f85828601611034565b9150509250929050565b611172816110f3565b82525050565b600060208201905061118d6000830184611169565b92915050565b600080604083850312156111aa576111a9610f53565b5b60006111b885828601611034565b92505060206111c985828601611114565b9150509250929050565b600080604083850312156111ea576111e9610f53565b5b60006111f885828601611034565b925050602061120985828601611034565b9150509250929050565b60008060006060848603121561122c5761122b610f53565b5b600061123a86828701611034565b935050602061124b86828701611034565b925050604061125c86828701611114565b9150509250925092565b600082825260208201905092915050565b7f436f6e7472616374732061726520696e697469616c697a65642e000000000000600082015250565b60006112ad601a83611266565b91506112b882611277565b602082019050919050565b600060208201905081810360008301526112dc816112a0565b9050919050565b7f54686520636f6e747261637420697320616c726561647920696e697469616c6960008201527f7a65642e00000000000000000000000000000000000000000000000000000000602082015250565b600061133f602483611266565b915061134a826112e3565b604082019050919050565b6000602082019050818103600083015261136e81611332565b9050919050565b60007fffffffffffffffffffff0000000000000000000000000000000000000000000082169050919050565b6000819050919050565b6113bc6113b782611375565b6113a1565b82525050565b60007fffff00000000000000000000000000000000000000000000000000000000000082169050919050565b6000819050919050565b611409611404826113c2565b6113ee565b82525050565b60007fffffffffffffffffffffffffffffffffffffffff00000000000000000000000082169050919050565b6000819050919050565b6114566114518261140f565b61143b565b82525050565b600061146882866113ab565b600a8201915061147882856113f8565b6002820191506114888284611445565b601482019150819050949350505050565b600081519050919050565b6000819050602082019050919050565b6000819050919050565b60006114ca82516114b4565b80915050919050565b600082821b905092915050565b60006114eb82611499565b826114f5846114a4565b9050611500816114be565b925060208210156115405761153b7fffffffffffffffffffffffffffffffffffffffffffffffffffffffffffffffff836020036008026114d3565b831692505b5050919050565b611550816114b4565b82525050565b600060208201905061156b6000830184611547565b92915050565b600080fd5b600080fd5b6000601f19601f8301169050919050565b7f4e487b7100000000000000000000000000000000000000000000000000000000600052604160045260246000fd5b6115c48261157b565b810181811067ffffffffffffffff821117156115e3576115e261158c565b5b80604052505050565b60006115f6610f49565b905061160282826115bb565b919050565b600067ffffffffffffffff8211156116225761162161158c565b5b61162b8261157b565b9050602081019050919050565b60005b8381101561165657808201518184015260208101905061163b565b83811115611665576000848401525b50505050565b600061167e61167984611607565b6115ec565b90508281526020810184848401111561169a57611699611576565b5b6116a5848285611638565b509392505050565b600082601f8301126116c2576116c1611571565b5b81516116d284826020860161166b565b91505092915050565b6000602082840312156116f1576116f0610f53565b5b600082015167ffffffffffffffff81111561170f5761170e610f58565b5b61171b848285016116ad565b91505092915050565b6000611730825161140f565b80915050919050565b600061174482611499565b8261174e846114a4565b905061175981611724565b92506014821015611799576117947fffffffffffffffffffffffffffffffffffffffff000000000000000000000000836014036008026114d3565b831692505b5050919050565b7f43616c6c6572206973206e6f74207468652044414f2e00000000000000000000600082015250565b60006117d6601683611266565b91506117e1826117a0565b602082019050919050565b60006020820190508181036000830152611805816117c9565b9050919050565b7f436f6e74726163747320617265206e6f7420696e697469616c697a65642e0000600082015250565b6000611842601e83611266565b915061184d8261180c565b602082019050919050565b6000602082019050818103600083015261187181611835565b9050919050565b60007fffffffffffff000000000000000000000000000000000000000000000000000082169050919050565b6000819050919050565b6118bf6118ba82611878565b6118a4565b82525050565b60007fffffffff0000000000000000000000000000000000000000000000000000000082169050919050565b6000819050919050565b61190c611907826118c5565b6118f1565b82525050565b600061191e82876118ae565b60068201915061192e82866118fb565b60048201915061193e82856113f8565b60028201915061194e8284611445565b60148201915081905095945050505050565b6000819050919050565b61197b611976826114b4565b611960565b82525050565b600061198d828461196a565b60208201915081905092915050565b600082825260208201905092915050565b60006119b882611499565b6119c2818561199c565b93506119d2818560208601611638565b6119db8161157b565b840191505092915050565b60006040820190506119fb6000830185611547565b8181036020830152611a0d81846119ad565b90509392505050565b600067ffffffffffffffff821115611a3157611a3061158c565b5b602082029050919050565b600080fd5b60007fffffffffffffffffffffffffffffffff0000000000000000000000000000000082169050919050565b611a7681611a41565b8114611a8157600080fd5b50565b600081519050611a9381611a6d565b92915050565b6000611aac611aa784611a16565b6115ec565b90508060208402830185811115611ac657611ac5611a3c565b5b835b81811015611aef5780611adb8882611a84565b845260208401935050602081019050611ac8565b5050509392505050565b600082601f830112611b0e57611b0d611571565b5b6002611b1b848285611a99565b91505092915050565b600060408284031215611b3a57611b39610f53565b5b6000611b4884828501611af9565b91505092915050565b7f4e487b7100000000000000000000000000000000000000000000000000000000600052603260045260246000fd5b6000819050919050565b611b9b611b9682611a41565b611b80565b82525050565b6000611bad8285611b8a565b601082019150611bbd8284611b8a565b6010820191508190509392505050565b6000611bd98284611445565b6014820191508190509291505056fea2646970667358221220724b2d4a8c0da5b3d48ab27fe58fdce3428b1840552ed7aadba54e1985eb7dda64736f6c634300080f003360806040526000600160146101000a81548160ff0219169083151502179055507fbd0fc089e4959fa394a5a3527ee3a872ddae5e9a689008758a5af13d8c4b54fb60035534801561004f57600080fd5b50611e708061005f6000396000f3fe608060405234801561001057600080fd5b50600436106100b45760003560e01c8063b795487a11610071578063b795487a1461019d578063c8b39ce6146101b9578063cb42ba1c146101e9578063f09a401614610219578063f870194a14610235578063fad7fc3614610265576100b4565b806313c79650146100b95780632670e039146100d55780633805496f146101055780633afeff90146101215780634632b877146101515780635f10ab8e14610181575b600080fd5b6100d360048036038101906100ce9190611245565b610281565b005b6100ef60048036038101906100ea91906112e0565b61045f565b6040516100fc919061132f565b60405180910390f35b61011f600480360381019061011a9190611380565b6105e0565b005b61013b600480360381019061013691906113c0565b6106ca565b60405161014891906113fc565b60405180910390f35b61016b60048036038101906101669190611417565b610765565b604051610178919061132f565b60405180910390f35b61019b6004803603810190610196919061146a565b6108ed565b005b6101b760048036038101906101b29190611417565b6109de565b005b6101d360048036038101906101ce91906114bd565b610bae565b6040516101e091906113fc565b60405180910390f35b61020360048036038101906101fe91906114bd565b610c50565b604051610210919061150c565b60405180910390f35b610233600480360381019061022e9190611565565b610d6f565b005b61024f600480360381019061024a91906113c0565b610e78565b60405161025c91906115be565b60405180910390f35b61027f600480360381019061027a91906115d9565b610ed5565b005b600160149054906101000a900460ff166102d0576040517f08c379a00000000000000000000000000000000000000000000000000000000081526004016102c79061169d565b60405180910390fd5b600083905060007ff6c2e977714cb0cf78c4ae117569d9685ce0dd08df05cc6806d8250129f48731600060f01b8560601b604051602001610313939291906117a4565b60405160208183030381529060405261032b9061181e565b905082156103c7578173ffffffffffffffffffffffffffffffffffffffff16637f23690c826000801b60405160200161036491906118a6565b6040516020818303038152906040526040518363ffffffff1660e01b815260040161039092919061194f565b600060405180830381600087803b1580156103aa57600080fd5b505af11580156103be573d6000803e3d6000fd5b50505050610458565b8173ffffffffffffffffffffffffffffffffffffffff16637f23690c82600160001b6040516020016103f991906118a6565b6040516020818303038152906040526040518363ffffffff1660e01b815260040161042592919061194f565b600060405180830381600087803b15801561043f57600080fd5b505af1158015610453573d6000803e3d6000fd5b505050505b5050505050565b6000808390506000600260009054906101000a900473ffffffffffffffffffffffffffffffffffffffff1673ffffffffffffffffffffffffffffffffffffffff16634bb5ec326003546040518263ffffffff1660e01b81526004016104c491906115be565b6040805180830381865afa1580156104e0573d6000803e3d6000fd5b505050506040513d601f19601f820116820180604052508101906105049190611b0d565b60006002811061051757610516611b3a565b5b60200201518460801b604051602001610531929190611b8a565b6040516020818303038152906040526105499061181e565b90508173ffffffffffffffffffffffffffffffffffffffff166354f6127f826040518263ffffffff1660e01b815260040161058491906115be565b600060405180830381865afa1580156105a1573d6000803e3d6000fd5b505050506040513d6000823e3d601f19601f820116820180604052508101906105ca9190611c5c565b6105d390611cba565b60601c9250505092915050565b600160149054906101000a900460ff1661062f576040517f08c379a00000000000000000000000000000000000000000000000000000000081526004016106269061169d565b60405180910390fd5b60008290508073ffffffffffffffffffffffffffffffffffffffff16637f23690c6003548460001b60405160200161066791906118a6565b6040516020818303038152906040526040518363ffffffff1660e01b815260040161069392919061194f565b600060405180830381600087803b1580156106ad57600080fd5b505af11580156106c1573d6000803e3d6000fd5b50505050505050565b6000808290508073ffffffffffffffffffffffffffffffffffffffff166354f6127f6003546040518263ffffffff1660e01b815260040161070b91906115be565b600060405180830381865afa158015610728573d6000803e3d6000fd5b505050506040513d6000823e3d601f19601f820116820180604052508101906107519190611c5c565b61075a9061181e565b60001c915050919050565b6000808490506000600260009054906101000a900473ffffffffffffffffffffffffffffffffffffffff1673ffffffffffffffffffffffffffffffffffffffff16634bb5ec326107b487610e78565b6040518263ffffffff1660e01b81526004016107d091906115be565b6040805180830381865afa1580156107ec573d6000803e3d6000fd5b505050506040513d601f19601f820116820180604052508101906108109190611b0d565b60006002811061082357610822611b3a565b5b60200201518460801b60405160200161083d929190611b8a565b6040516020818303038152906040526108559061181e565b90508173ffffffffffffffffffffffffffffffffffffffff166354f6127f826040518263ffffffff1660e01b815260040161089091906115be565b600060405180830381865afa1580156108ad573d6000803e3d6000fd5b505050506040513d6000823e3d601f19601f820116820180604052508101906108d69190611c5c565b6108df90611cba565b60601c925050509392505050565b600160149054906101000a900460ff1661093c576040517f08c379a00000000000000000000000000000000000000000000000000000000081526004016109339061169d565b60405180910390fd5b60008390508073ffffffffffffffffffffffffffffffffffffffff16637f23690c61096685610e78565b8460001b60405160200161097a91906118a6565b6040516020818303038152906040526040518363ffffffff1660e01b81526004016109a692919061194f565b600060405180830381600087803b1580156109c057600080fd5b505af11580156109d4573d6000803e3d6000fd5b5050505050505050565b600160149054906101000a900460ff16610a2d576040517f08c379a0000000000000000000000000000000000000000000000000000000008152600401610a249061169d565b60405180910390fd5b60008390506000600260009054906101000a900473ffffffffffffffffffffffffffffffffffffffff1673ffffffffffffffffffffffffffffffffffffffff16634bb5ec326003546040518263ffffffff1660e01b8152600401610a9191906115be565b6040805180830381865afa158015610aad573d6000803e3d6000fd5b505050506040513d601f19601f82011682018060405250810190610ad19190611b0d565b600060028110610ae457610ae3611b3a565b5b60200201518360801b604051602001610afe929190611b8a565b604051602081830303815290604052610b169061181e565b90508173ffffffffffffffffffffffffffffffffffffffff16637f23690c828660601b604051602001610b499190611d21565b6040516020818303038152906040526040518363ffffffff1660e01b8152600401610b7592919061194f565b600060405180830381600087803b158015610b8f57600080fd5b505af1158015610ba3573d6000803e3d6000fd5b505050505050505050565b6000808390508073ffffffffffffffffffffffffffffffffffffffff166354f6127f610bd985610e78565b6040518263ffffffff1660e01b8152600401610bf591906115be565b600060405180830381865afa158015610c12573d6000803e3d6000fd5b505050506040513d6000823e3d601f19601f82011682018060405250810190610c3b9190611c5c565b610c449061181e565b60001c91505092915050565b60008083905060007ff6c2e977714cb0cf78c4ae117569d9685ce0dd08df05cc6806d8250129f48731600060f01b8560601b604051602001610c94939291906117a4565b604051602081830303815290604052610cac9061181e565b905060008273ffffffffffffffffffffffffffffffffffffffff166354f6127f836040518263ffffffff1660e01b8152600401610ce991906115be565b600060405180830381865afa158015610d06573d6000803e3d6000fd5b505050506040513d6000823e3d601f19601f82011682018060405250810190610d2f9190611c5c565b610d389061181e565b60001c905060018103610d515760019350505050610d69565b60008103610d655760009350505050610d69565b5050505b92915050565b600160149054906101000a900460ff1615610dbf576040517f08c379a0000000000000000000000000000000000000000000000000000000008152600401610db690611d88565b60405180910390fd5b600160149054906101000a900460ff1615610e0f576040517f08c379a0000000000000000000000000000000000000000000000000000000008152600401610e0690611e1a565b60405180910390fd5b81600260006101000a81548173ffffffffffffffffffffffffffffffffffffffff021916908373ffffffffffffffffffffffffffffffffffffffff160217905550610e5a82826110ac565b60018060146101000a81548160ff0219169083151502179055505050565b60007f40caeb577645b0a6a0971f65980797dc0e4ab346be8af29e76af68e6c83ee900600060f01b8360601b604051602001610eb6939291906117a4565b604051602081830303815290604052610ece9061181e565b9050919050565b600160149054906101000a900460ff16610f24576040517f08c379a0000000000000000000000000000000000000000000000000000000008152600401610f1b9061169d565b60405180910390fd5b60008490506000600260009054906101000a900473ffffffffffffffffffffffffffffffffffffffff1673ffffffffffffffffffffffffffffffffffffffff16634bb5ec32610f7287610e78565b6040518263ffffffff1660e01b8152600401610f8e91906115be565b6040805180830381865afa158015610faa573d6000803e3d6000fd5b505050506040513d601f19601f82011682018060405250810190610fce9190611b0d565b600060028110610fe157610fe0611b3a565b5b60200201518360801b604051602001610ffb929190611b8a565b6040516020818303038152906040526110139061181e565b90508173ffffffffffffffffffffffffffffffffffffffff16637f23690c828660601b6040516020016110469190611d21565b6040516020818303038152906040526040518363ffffffff1660e01b815260040161107292919061194f565b600060405180830381600087803b15801561108c57600080fd5b505af11580156110a0573d6000803e3d6000fd5b50505050505050505050565b600160149054906101000a900460ff16156110fc576040517f08c379a00000000000000000000000000000000000000000000000000000000081526004016110f390611e1a565b60405180910390fd5b816000806101000a81548173ffffffffffffffffffffffffffffffffffffffff021916908373ffffffffffffffffffffffffffffffffffffffff16021790555080600160006101000a81548173ffffffffffffffffffffffffffffffffffffffff021916908373ffffffffffffffffffffffffffffffffffffffff16021790555060018060146101000a81548160ff0219169083151502179055505050565b6000604051905090565b600080fd5b600080fd5b600073ffffffffffffffffffffffffffffffffffffffff82169050919050565b60006111da826111af565b9050919050565b6111ea816111cf565b81146111f557600080fd5b50565b600081359050611207816111e1565b92915050565b60008115159050919050565b6112228161120d565b811461122d57600080fd5b50565b60008135905061123f81611219565b92915050565b60008060006060848603121561125e5761125d6111a5565b5b600061126c868287016111f8565b935050602061127d868287016111f8565b925050604061128e86828701611230565b9150509250925092565b60006fffffffffffffffffffffffffffffffff82169050919050565b6112bd81611298565b81146112c857600080fd5b50565b6000813590506112da816112b4565b92915050565b600080604083850312156112f7576112f66111a5565b5b6000611305858286016111f8565b9250506020611316858286016112cb565b9150509250929050565b611329816111cf565b82525050565b60006020820190506113446000830184611320565b92915050565b6000819050919050565b61135d8161134a565b811461136857600080fd5b50565b60008135905061137a81611354565b92915050565b60008060408385031215611397576113966111a5565b5b60006113a5858286016111f8565b92505060206113b68582860161136b565b9150509250929050565b6000602082840312156113d6576113d56111a5565b5b60006113e4848285016111f8565b91505092915050565b6113f68161134a565b82525050565b600060208201905061141160008301846113ed565b92915050565b6000806000606084860312156114305761142f6111a5565b5b600061143e868287016111f8565b935050602061144f868287016111f8565b9250506040611460868287016112cb565b9150509250925092565b600080600060608486031215611483576114826111a5565b5b6000611491868287016111f8565b93505060206114a2868287016111f8565b92505060406114b38682870161136b565b9150509250925092565b600080604083850312156114d4576114d36111a5565b5b60006114e2858286016111f8565b92505060206114f3858286016111f8565b9150509250929050565b6115068161120d565b82525050565b600060208201905061152160008301846114fd565b92915050565b6000611532826111cf565b9050919050565b61154281611527565b811461154d57600080fd5b50565b60008135905061155f81611539565b92915050565b6000806040838503121561157c5761157b6111a5565b5b600061158a85828601611550565b925050602061159b858286016111f8565b9150509250929050565b6000819050919050565b6115b8816115a5565b82525050565b60006020820190506115d360008301846115af565b92915050565b600080600080608085870312156115f3576115f26111a5565b5b6000611601878288016111f8565b9450506020611612878288016111f8565b9350506040611623878288016111f8565b9250506060611634878288016112cb565b91505092959194509250565b600082825260208201905092915050565b7f436f6e74726163747320617265206e6f7420696e697469616c697a65642e0000600082015250565b6000611687601e83611640565b915061169282611651565b602082019050919050565b600060208201905081810360008301526116b68161167a565b9050919050565b60007fffffffffffffffffffff0000000000000000000000000000000000000000000082169050919050565b6000819050919050565b6117046116ff826116bd565b6116e9565b82525050565b60007fffff00000000000000000000000000000000000000000000000000000000000082169050919050565b6000819050919050565b61175161174c8261170a565b611736565b82525050565b60007fffffffffffffffffffffffffffffffffffffffff00000000000000000000000082169050919050565b6000819050919050565b61179e61179982611757565b611783565b82525050565b60006117b082866116f3565b600a820191506117c08285611740565b6002820191506117d0828461178d565b601482019150819050949350505050565b600081519050919050565b6000819050602082019050919050565b600061180882516115a5565b80915050919050565b600082821b905092915050565b6000611829826117e1565b82611833846117ec565b905061183e816117fc565b9250602082101561187e576118797fffffffffffffffffffffffffffffffffffffffffffffffffffffffffffffffff83602003600802611811565b831692505b5050919050565b6000819050919050565b6118a061189b826115a5565b611885565b82525050565b60006118b2828461188f565b60208201915081905092915050565b600082825260208201905092915050565b60005b838110156118f05780820151818401526020810190506118d5565b838111156118ff576000848401525b50505050565b6000601f19601f8301169050919050565b6000611921826117e1565b61192b81856118c1565b935061193b8185602086016118d2565b61194481611905565b840191505092915050565b600060408201905061196460008301856115af565b81810360208301526119768184611916565b90509392505050565b600080fd5b7f4e487b7100000000000000000000000000000000000000000000000000000000600052604160045260246000fd5b6119bc82611905565b810181811067ffffffffffffffff821117156119db576119da611984565b5b80604052505050565b60006119ee61119b565b90506119fa82826119b3565b919050565b600067ffffffffffffffff821115611a1a57611a19611984565b5b602082029050919050565b600080fd5b60007fffffffffffffffffffffffffffffffff0000000000000000000000000000000082169050919050565b611a5f81611a2a565b8114611a6a57600080fd5b50565b600081519050611a7c81611a56565b92915050565b6000611a95611a90846119ff565b6119e4565b90508060208402830185811115611aaf57611aae611a25565b5b835b81811015611ad85780611ac48882611a6d565b845260208401935050602081019050611ab1565b5050509392505050565b600082601f830112611af757611af661197f565b5b6002611b04848285611a82565b91505092915050565b600060408284031215611b2357611b226111a5565b5b6000611b3184828501611ae2565b91505092915050565b7f4e487b7100000000000000000000000000000000000000000000000000000000600052603260045260246000fd5b6000819050919050565b611b84611b7f82611a2a565b611b69565b82525050565b6000611b968285611b73565b601082019150611ba68284611b73565b6010820191508190509392505050565b600080fd5b600067ffffffffffffffff821115611bd657611bd5611984565b5b611bdf82611905565b9050602081019050919050565b6000611bff611bfa84611bbb565b6119e4565b905082815260208101848484011115611c1b57611c1a611bb6565b5b611c268482856118d2565b509392505050565b600082601f830112611c4357611c4261197f565b5b8151611c53848260208601611bec565b91505092915050565b600060208284031215611c7257611c716111a5565b5b600082015167ffffffffffffffff811115611c9057611c8f6111aa565b5b611c9c84828501611c2e565b91505092915050565b6000611cb18251611757565b80915050919050565b6000611cc5826117e1565b82611ccf846117ec565b9050611cda81611ca5565b92506014821015611d1a57611d157fffffffffffffffffffffffffffffffffffffffff00000000000000000000000083601403600802611811565b831692505b5050919050565b6000611d2d828461178d565b60148201915081905092915050565b7f436f6e7472616374732061726520696e697469616c697a65642e000000000000600082015250565b6000611d72601a83611640565b9150611d7d82611d3c565b602082019050919050565b60006020820190508181036000830152611da181611d65565b9050919050565b7f54686520636f6e747261637420697320616c726561647920696e697469616c6960008201527f7a65642e00000000000000000000000000000000000000000000000000000000602082015250565b6000611e04602483611640565b9150611e0f82611da8565b604082019050919050565b60006020820190508181036000830152611e3381611df7565b905091905056fea2646970667358221220ff29584166d08ecc2110b00c1b4b46cb3eebc03266c9f6c03445da2cd8dde94064736f6c634300080f003360806040526000600260146101000a81548160ff02191690831515021790555034801561002b57600080fd5b50610da38061003b6000396000f3fe608060405234801561001057600080fd5b50600436106100415760003560e01c8063123e469d146100465780633ceb2b5d14610078578063f09a4016146100a8575b600080fd5b610060600480360381019061005b91906106ac565b6100c4565b60405161006f939291906106f2565b60405180910390f35b610092600480360381019061008d91906106ac565b61033f565b60405161009f9190610744565b60405180910390f35b6100c260048036038101906100bd919061080d565b61050f565b005b6000806000600160009054906101000a900473ffffffffffffffffffffffffffffffffffffffff1673ffffffffffffffffffffffffffffffffffffffff1663a56c89b1857f214afa26c5f6a535e82ca315d5ffc739048132e744c73f66d711468ed63faac96040518363ffffffff1660e01b8152600401610146929190610897565b600060405180830381865afa158015610163573d6000803e3d6000fd5b505050506040513d6000823e3d601f19601f8201168201806040525081019061018c9190610a2a565b61019590610aba565b60001c9250600160009054906101000a900473ffffffffffffffffffffffffffffffffffffffff1673ffffffffffffffffffffffffffffffffffffffff1663a56c89b1857feaeb11cb7786797587689f7f6303acfee9b7b7570354137133562456569337596040518363ffffffff1660e01b8152600401610217929190610897565b600060405180830381865afa158015610234573d6000803e3d6000fd5b505050506040513d6000823e3d601f19601f8201168201806040525081019061025d9190610a2a565b61026690610aba565b60001c915060008054906101000a900473ffffffffffffffffffffffffffffffffffffffff1673ffffffffffffffffffffffffffffffffffffffff166354f6127f7f72ba3778f5d93e8643176651d8174361d2ba28345f5eaa8b6a10f65dbfcf7c916040518263ffffffff1660e01b81526004016102e49190610b30565b600060405180830381865afa158015610301573d6000803e3d6000fd5b505050506040513d6000823e3d601f19601f8201168201806040525081019061032a9190610a2a565b61033390610aba565b60001c90509193909250565b60008060008061034e856100c4565b92509250925081836103609190610b7a565b8161036b9190610bd0565b90506000828461037b9190610b7a565b90506000828261038b9190610b7a565b905081600260009054906101000a900473ffffffffffffffffffffffffffffffffffffffff1673ffffffffffffffffffffffffffffffffffffffff1663a218a2056040518163ffffffff1660e01b8152600401602060405180830381865afa1580156103fb573d6000803e3d6000fd5b505050506040513d601f19601f8201168201806040525081019061041f9190610c3d565b60ff1661042c9190610c99565b82856104389190610c99565b1180156104ed575080600260009054906101000a900473ffffffffffffffffffffffffffffffffffffffff1673ffffffffffffffffffffffffffffffffffffffff1663754b15286040518163ffffffff1660e01b8152600401602060405180830381865afa1580156104ae573d6000803e3d6000fd5b505050506040513d601f19601f820116820180604052508101906104d29190610c3d565b60ff166104df9190610c99565b81836104eb9190610c99565b115b156105005760019550505050505061050a565b6000955050505050505b919050565b600260149054906101000a900460ff161561055f576040517f08c379a000000000000000000000000000000000000000000000000000000000815260040161055690610d4d565b60405180910390fd5b816000806101000a81548173ffffffffffffffffffffffffffffffffffffffff021916908373ffffffffffffffffffffffffffffffffffffffff16021790555080600160006101000a81548173ffffffffffffffffffffffffffffffffffffffff021916908373ffffffffffffffffffffffffffffffffffffffff16021790555080600260006101000a81548173ffffffffffffffffffffffffffffffffffffffff021916908373ffffffffffffffffffffffffffffffffffffffff1602179055506001600260146101000a81548160ff0219169083151502179055505050565b6000604051905090565b600080fd5b600080fd5b60007fffffffffffffffffffff0000000000000000000000000000000000000000000082169050919050565b61068981610654565b811461069457600080fd5b50565b6000813590506106a681610680565b92915050565b6000602082840312156106c2576106c161064a565b5b60006106d084828501610697565b91505092915050565b6000819050919050565b6106ec816106d9565b82525050565b600060608201905061070760008301866106e3565b61071460208301856106e3565b61072160408301846106e3565b949350505050565b60008115159050919050565b61073e81610729565b82525050565b60006020820190506107596000830184610735565b92915050565b600073ffffffffffffffffffffffffffffffffffffffff82169050919050565b600061078a8261075f565b9050919050565b600061079c8261077f565b9050919050565b6107ac81610791565b81146107b757600080fd5b50565b6000813590506107c9816107a3565b92915050565b60006107da8261075f565b9050919050565b6107ea816107cf565b81146107f557600080fd5b50565b600081359050610807816107e1565b92915050565b600080604083850312156108245761082361064a565b5b6000610832858286016107ba565b9250506020610843858286016107f8565b9150509250929050565b61085681610654565b82525050565b60007fffffffffffffffffffffffffffffffffffffffff00000000000000000000000082169050919050565b6108918161085c565b82525050565b60006040820190506108ac600083018561084d565b6108b96020830184610888565b9392505050565b600080fd5b600080fd5b6000601f19601f8301169050919050565b7f4e487b7100000000000000000000000000000000000000000000000000000000600052604160045260246000fd5b610913826108ca565b810181811067ffffffffffffffff82111715610932576109316108db565b5b80604052505050565b6000610945610640565b9050610951828261090a565b919050565b600067ffffffffffffffff821115610971576109706108db565b5b61097a826108ca565b9050602081019050919050565b60005b838110156109a557808201518184015260208101905061098a565b838111156109b4576000848401525b50505050565b60006109cd6109c884610956565b61093b565b9050828152602081018484840111156109e9576109e86108c5565b5b6109f4848285610987565b509392505050565b600082601f830112610a1157610a106108c0565b5b8151610a218482602086016109ba565b91505092915050565b600060208284031215610a4057610a3f61064a565b5b600082015167ffffffffffffffff811115610a5e57610a5d61064f565b5b610a6a848285016109fc565b91505092915050565b600081519050919050565b6000819050602082019050919050565b6000819050919050565b6000610aa48251610a8e565b80915050919050565b600082821b905092915050565b6000610ac582610a73565b82610acf84610a7e565b9050610ada81610a98565b92506020821015610b1a57610b157fffffffffffffffffffffffffffffffffffffffffffffffffffffffffffffffff83602003600802610aad565b831692505b5050919050565b610b2a81610a8e565b82525050565b6000602082019050610b456000830184610b21565b92915050565b7f4e487b7100000000000000000000000000000000000000000000000000000000600052601160045260246000fd5b6000610b85826106d9565b9150610b90836106d9565b9250827fffffffffffffffffffffffffffffffffffffffffffffffffffffffffffffffff03821115610bc557610bc4610b4b565b5b828201905092915050565b6000610bdb826106d9565b9150610be6836106d9565b925082821015610bf957610bf8610b4b565b5b828203905092915050565b600060ff82169050919050565b610c1a81610c04565b8114610c2557600080fd5b50565b600081519050610c3781610c11565b92915050565b600060208284031215610c5357610c5261064a565b5b6000610c6184828501610c28565b91505092915050565b7f4e487b7100000000000000000000000000000000000000000000000000000000600052601260045260246000fd5b6000610ca4826106d9565b9150610caf836106d9565b925082610cbf57610cbe610c6a565b5b828204905092915050565b600082825260208201905092915050565b7f54686520636f6e747261637420697320616c726561647920696e697469616c6960008201527f7a65642e00000000000000000000000000000000000000000000000000000000602082015250565b6000610d37602483610cca565b9150610d4282610cdb565b604082019050919050565b60006020820190508181036000830152610d6681610d2a565b905091905056fea2646970667358221220e13013232448958edbffa34608f62a108c0b263cdf77d609235a16b1f7211fd564736f6c634300080f003360806040526040516200001290620007ec565b604051809103906000f0801580156200002f573d6000803e3d6000fd5b50600560006101000a81548173ffffffffffffffffffffffffffffffffffffffff021916908373ffffffffffffffffffffffffffffffffffffffff1602179055503480156200007d57600080fd5b5060405162005b7238038062005b728339818101604052810190620000a3919062000a6f565b8585858585846000806101000a81548173ffffffffffffffffffffffffffffffffffffffff021916908373ffffffffffffffffffffffffffffffffffffffff16021790555083600160006101000a81548173ffffffffffffffffffffffffffffffffffffffff021916908373ffffffffffffffffffffffffffffffffffffffff16021790555082600260006101000a81548173ffffffffffffffffffffffffffffffffffffffff021916908373ffffffffffffffffffffffffffffffffffffffff16021790555081600360006101000a81548173ffffffffffffffffffffffffffffffffffffffff021916908373ffffffffffffffffffffffffffffffffffffffff16021790555080600460006101000a81548173ffffffffffffffffffffffffffffffffffffffff021916908373ffffffffffffffffffffffffffffffffffffffff160217905550505050505087600660006101000a81548173ffffffffffffffffffffffffffffffffffffffff021916908373ffffffffffffffffffffffffffffffffffffffff16021790555085600760006101000a81548173ffffffffffffffffffffffffffffffffffffffff021916908373ffffffffffffffffffffffffffffffffffffffff160217905550600760009054906101000a900473ffffffffffffffffffffffffffffffffffffffff1673ffffffffffffffffffffffffffffffffffffffff166306552ff38989600560009054906101000a900473ffffffffffffffffffffffffffffffffffffffff16306040518563ffffffff1660e01b8152600401620002f8949392919062000c12565b600060405180830381600087803b1580156200031357600080fd5b505af115801562000328573d6000803e3d6000fd5b5050505084600860006101000a81548173ffffffffffffffffffffffffffffffffffffffff021916908373ffffffffffffffffffffffffffffffffffffffff160217905550600860009054906101000a900473ffffffffffffffffffffffffffffffffffffffff1673ffffffffffffffffffffffffffffffffffffffff1663184b955989600560009054906101000a900473ffffffffffffffffffffffffffffffffffffffff16306040518463ffffffff1660e01b8152600401620003f09392919062000c5f565b600060405180830381600087803b1580156200040b57600080fd5b505af115801562000420573d6000803e3d6000fd5b5050505083600960006101000a81548173ffffffffffffffffffffffffffffffffffffffff021916908373ffffffffffffffffffffffffffffffffffffffff160217905550600960009054906101000a900473ffffffffffffffffffffffffffffffffffffffff1673ffffffffffffffffffffffffffffffffffffffff1663184b955989600560009054906101000a900473ffffffffffffffffffffffffffffffffffffffff16306040518463ffffffff1660e01b8152600401620004e89392919062000c5f565b600060405180830381600087803b1580156200050357600080fd5b505af115801562000518573d6000803e3d6000fd5b5050505082600a60006101000a81548173ffffffffffffffffffffffffffffffffffffffff021916908373ffffffffffffffffffffffffffffffffffffffff160217905550600a60009054906101000a900473ffffffffffffffffffffffffffffffffffffffff1673ffffffffffffffffffffffffffffffffffffffff1663184b955989600560009054906101000a900473ffffffffffffffffffffffffffffffffffffffff16306040518463ffffffff1660e01b8152600401620005e09392919062000c5f565b600060405180830381600087803b158015620005fb57600080fd5b505af115801562000610573d6000803e3d6000fd5b5050505081600b60006101000a81548173ffffffffffffffffffffffffffffffffffffffff021916908373ffffffffffffffffffffffffffffffffffffffff160217905550600b60009054906101000a900473ffffffffffffffffffffffffffffffffffffffff1673ffffffffffffffffffffffffffffffffffffffff1663f09a4016600560009054906101000a900473ffffffffffffffffffffffffffffffffffffffff16306040518363ffffffff1660e01b8152600401620006d692919062000c9c565b600060405180830381600087803b158015620006f157600080fd5b505af115801562000706573d6000803e3d6000fd5b5050505080600c60006101000a81548173ffffffffffffffffffffffffffffffffffffffff021916908373ffffffffffffffffffffffffffffffffffffffff160217905550600c60009054906101000a900473ffffffffffffffffffffffffffffffffffffffff1673ffffffffffffffffffffffffffffffffffffffff1663f09a401689306040518363ffffffff1660e01b8152600401620007aa92919062000cc9565b600060405180830381600087803b158015620007c557600080fd5b505af1158015620007da573d6000803e3d6000fd5b50505050505050505050505062000cf6565b6102a080620058d283390190565b600080fd5b600073ffffffffffffffffffffffffffffffffffffffff82169050919050565b60006200082c82620007ff565b9050919050565b600062000840826200081f565b9050919050565b620008528162000833565b81146200085e57600080fd5b50565b600081519050620008728162000847565b92915050565b60006200088582620007ff565b9050919050565b6000620008998262000878565b9050919050565b620008ab816200088c565b8114620008b757600080fd5b50565b600081519050620008cb81620008a0565b92915050565b6000620008de8262000878565b9050919050565b620008f081620008d1565b8114620008fc57600080fd5b50565b6000815190506200091081620008e5565b92915050565b6000620009238262000878565b9050919050565b620009358162000916565b81146200094157600080fd5b50565b60008151905062000955816200092a565b92915050565b6000620009688262000878565b9050919050565b6200097a816200095b565b81146200098657600080fd5b50565b6000815190506200099a816200096f565b92915050565b6000620009ad8262000878565b9050919050565b620009bf81620009a0565b8114620009cb57600080fd5b50565b600081519050620009df81620009b4565b92915050565b6000620009f28262000878565b9050919050565b62000a0481620009e5565b811462000a1057600080fd5b50565b60008151905062000a2481620009f9565b92915050565b600062000a378262000878565b9050919050565b62000a498162000a2a565b811462000a5557600080fd5b50565b60008151905062000a698162000a3e565b92915050565b600080600080600080600080610100898b03121562000a935762000a92620007fa565b5b600062000aa38b828c0162000861565b985050602062000ab68b828c01620008ba565b975050604062000ac98b828c01620008ff565b965050606062000adc8b828c0162000944565b955050608062000aef8b828c0162000989565b94505060a062000b028b828c01620009ce565b93505060c062000b158b828c0162000a13565b92505060e062000b288b828c0162000a58565b9150509295985092959890939650565b6000819050919050565b600062000b6362000b5d62000b5784620007ff565b62000b38565b620007ff565b9050919050565b600062000b778262000b42565b9050919050565b600062000b8b8262000b6a565b9050919050565b62000b9d8162000b7e565b82525050565b600062000bb08262000b42565b9050919050565b600062000bc48262000ba3565b9050919050565b62000bd68162000bb7565b82525050565b600062000be98262000ba3565b9050919050565b62000bfb8162000bdc565b82525050565b62000c0c8162000878565b82525050565b600060808201905062000c29600083018762000b92565b62000c38602083018662000bcb565b62000c47604083018562000bf0565b62000c56606083018462000c01565b95945050505050565b600060608201905062000c76600083018662000b92565b62000c85602083018562000bf0565b62000c94604083018462000c01565b949350505050565b600060408201905062000cb3600083018562000bf0565b62000cc2602083018462000c01565b9392505050565b600060408201905062000ce0600083018562000b92565b62000cef602083018462000c01565b9392505050565b614bcc8062000d066000396000f3fe608060405234801561001057600080fd5b50600436106100625760003560e01c806314fb4d461461006757806346b5a724146100975780634ada739a146100b35780635c19a95c146100cf578063bc0e0925146100eb578063fdcf8b0e14610107575b600080fd5b610081600480360381019061007c9190613635565b610123565b60405161008e9190613747565b60405180910390f35b6100b160048036038101906100ac919061379b565b610bbb565b005b6100cd60048036038101906100c8919061379b565b610f88565b005b6100e960048036038101906100e491906137db565b6113ff565b005b61010560048036038101906101009190613834565b611a1f565b005b610121600480360381019061011c9190613861565b6120c5565b005b600033600860009054906101000a900473ffffffffffffffffffffffffffffffffffffffff1673ffffffffffffffffffffffffffffffffffffffff1663d6d09cfb60016040518263ffffffff1660e01b815260040161018291906138e6565b602060405180830381865afa15801561019f573d6000803e3d6000fd5b505050506040513d601f19601f820116820180604052508101906101c39190613937565b6000600260009054906101000a900473ffffffffffffffffffffffffffffffffffffffff1673ffffffffffffffffffffffffffffffffffffffff16631da0d49f846040518263ffffffff1660e01b81526004016102209190613973565b600060405180830381865afa15801561023d573d6000803e3d6000fd5b505050506040513d6000823e3d601f19601f820116820180604052508101906102669190613a31565b90508160001c8260001c8261027a90613ab7565b60001c16146102be576040517f08c379a00000000000000000000000000000000000000000000000000000000081526004016102b590613ba1565b60405180910390fd5b8451865114610302576040517f08c379a00000000000000000000000000000000000000000000000000000000081526004016102f990613c33565b60405180910390fd5b600960009054906101000a900473ffffffffffffffffffffffffffffffffffffffff1673ffffffffffffffffffffffffffffffffffffffff166346ccaefa428a6040518363ffffffff1660e01b815260040161035f929190613cb0565b602060405180830381865afa15801561037c573d6000803e3d6000fd5b505050506040513d601f19601f820116820180604052508101906103a09190613cf5565b9350600960009054906101000a900473ffffffffffffffffffffffffffffffffffffffff1673ffffffffffffffffffffffffffffffffffffffff166391021ae885600960009054906101000a900473ffffffffffffffffffffffffffffffffffffffff1673ffffffffffffffffffffffffffffffffffffffff166338671fd260006040518263ffffffff1660e01b815260040161043d9190613d5d565b602060405180830381865afa15801561045a573d6000803e3d6000fd5b505050506040513d601f19601f8201168201806040525081019061047e9190613dd0565b8b6040518463ffffffff1660e01b815260040161049d93929190613e56565b600060405180830381600087803b1580156104b757600080fd5b505af11580156104cb573d6000803e3d6000fd5b50505050600960009054906101000a900473ffffffffffffffffffffffffffffffffffffffff1673ffffffffffffffffffffffffffffffffffffffff166391021ae885600960009054906101000a900473ffffffffffffffffffffffffffffffffffffffff1673ffffffffffffffffffffffffffffffffffffffff166338671fd260016040518263ffffffff1660e01b815260040161056a91906138e6565b602060405180830381865afa158015610587573d6000803e3d6000fd5b505050506040513d601f19601f820116820180604052508101906105ab9190613dd0565b8a6040518463ffffffff1660e01b81526004016105ca93929190613e56565b600060405180830381600087803b1580156105e457600080fd5b505af11580156105f8573d6000803e3d6000fd5b50505050600960009054906101000a900473ffffffffffffffffffffffffffffffffffffffff1673ffffffffffffffffffffffffffffffffffffffff166391021ae885600960009054906101000a900473ffffffffffffffffffffffffffffffffffffffff1673ffffffffffffffffffffffffffffffffffffffff166338671fd260026040518263ffffffff1660e01b81526004016106979190613ecf565b602060405180830381865afa1580156106b4573d6000803e3d6000fd5b505050506040513d601f19601f820116820180604052508101906106d89190613dd0565b4260001b6040516020016106ec9190613f0b565b6040516020818303038152906040526040518463ffffffff1660e01b815260040161071993929190613e56565b600060405180830381600087803b15801561073357600080fd5b505af1158015610747573d6000803e3d6000fd5b50505050600960009054906101000a900473ffffffffffffffffffffffffffffffffffffffff1673ffffffffffffffffffffffffffffffffffffffff166391021ae885600960009054906101000a900473ffffffffffffffffffffffffffffffffffffffff1673ffffffffffffffffffffffffffffffffffffffff166338671fd260036040518263ffffffff1660e01b81526004016107e69190613f61565b602060405180830381865afa158015610803573d6000803e3d6000fd5b505050506040513d601f19601f820116820180604052508101906108279190613dd0565b600760009054906101000a900473ffffffffffffffffffffffffffffffffffffffff1673ffffffffffffffffffffffffffffffffffffffff1663f0deb28d6040518163ffffffff1660e01b8152600401602060405180830381865afa158015610894573d6000803e3d6000fd5b505050506040513d601f19601f820116820180604052508101906108b89190613fa8565b426108c39190614004565b60001b6040516020016108d69190613f0b565b6040516020818303038152906040526040518463ffffffff1660e01b815260040161090393929190613e56565b600060405180830381600087803b15801561091d57600080fd5b505af1158015610931573d6000803e3d6000fd5b50505050600960009054906101000a900473ffffffffffffffffffffffffffffffffffffffff1673ffffffffffffffffffffffffffffffffffffffff166391021ae885600960009054906101000a900473ffffffffffffffffffffffffffffffffffffffff1673ffffffffffffffffffffffffffffffffffffffff166338671fd260046040518263ffffffff1660e01b81526004016109d09190614095565b602060405180830381865afa1580156109ed573d6000803e3d6000fd5b505050506040513d601f19601f82011682018060405250810190610a119190613dd0565b600760009054906101000a900473ffffffffffffffffffffffffffffffffffffffff1673ffffffffffffffffffffffffffffffffffffffff1663ef64d3176040518163ffffffff1660e01b8152600401602060405180830381865afa158015610a7e573d6000803e3d6000fd5b505050506040513d601f19601f82011682018060405250810190610aa29190613fa8565b42610aad9190614004565b60001b604051602001610ac09190613f0b565b6040516020818303038152906040526040518463ffffffff1660e01b8152600401610aed93929190613e56565b600060405180830381600087803b158015610b0757600080fd5b505af1158015610b1b573d6000803e3d6000fd5b50505050600960009054906101000a900473ffffffffffffffffffffffffffffffffffffffff1673ffffffffffffffffffffffffffffffffffffffff16633fb7718e8588886040518463ffffffff1660e01b8152600401610b7e9392919061427a565b600060405180830381600087803b158015610b9857600080fd5b505af1158015610bac573d6000803e3d6000fd5b50505050505050949350505050565b81600860009054906101000a900473ffffffffffffffffffffffffffffffffffffffff1673ffffffffffffffffffffffffffffffffffffffff1663d6d09cfb60046040518263ffffffff1660e01b8152600401610c189190614095565b602060405180830381865afa158015610c35573d6000803e3d6000fd5b505050506040513d601f19601f82011682018060405250810190610c599190613937565b6000600260009054906101000a900473ffffffffffffffffffffffffffffffffffffffff1673ffffffffffffffffffffffffffffffffffffffff16631da0d49f846040518263ffffffff1660e01b8152600401610cb69190613973565b600060405180830381865afa158015610cd3573d6000803e3d6000fd5b505050506040513d6000823e3d601f19601f82011682018060405250810190610cfc9190613a31565b90508160001c8260001c82610d1090613ab7565b60001c1614610d54576040517f08c379a0000000000000000000000000000000000000000000000000000000008152600401610d4b90613ba1565b60405180910390fd5b84600860009054906101000a900473ffffffffffffffffffffffffffffffffffffffff1673ffffffffffffffffffffffffffffffffffffffff1663d6d09cfb866040518263ffffffff1660e01b8152600401610db091906142ce565b602060405180830381865afa158015610dcd573d6000803e3d6000fd5b505050506040513d601f19601f82011682018060405250810190610df19190613937565b6000600260009054906101000a900473ffffffffffffffffffffffffffffffffffffffff1673ffffffffffffffffffffffffffffffffffffffff16631da0d49f846040518263ffffffff1660e01b8152600401610e4e9190613973565b600060405180830381865afa158015610e6b573d6000803e3d6000fd5b505050506040513d6000823e3d601f19601f82011682018060405250810190610e949190613a31565b90508160001c8260001c82610ea890613ab7565b60001c1614610eec576040517f08c379a0000000000000000000000000000000000000000000000000000000008152600401610ee390613ba1565b60405180910390fd5b600860009054906101000a900473ffffffffffffffffffffffffffffffffffffffff1673ffffffffffffffffffffffffffffffffffffffff166321298b42898960006040518463ffffffff1660e01b8152600401610f4c93929190614304565b600060405180830381600087803b158015610f6657600080fd5b505af1158015610f7a573d6000803e3d6000fd5b505050505050505050505050565b33600860009054906101000a900473ffffffffffffffffffffffffffffffffffffffff1673ffffffffffffffffffffffffffffffffffffffff1663d6d09cfb60046040518263ffffffff1660e01b8152600401610fe59190614095565b602060405180830381865afa158015611002573d6000803e3d6000fd5b505050506040513d601f19601f820116820180604052508101906110269190613937565b6000600260009054906101000a900473ffffffffffffffffffffffffffffffffffffffff1673ffffffffffffffffffffffffffffffffffffffff16631da0d49f846040518263ffffffff1660e01b81526004016110839190613973565b600060405180830381865afa1580156110a0573d6000803e3d6000fd5b505050506040513d6000823e3d601f19601f820116820180604052508101906110c99190613a31565b90508160001c8260001c826110dd90613ab7565b60001c1614611121576040517f08c379a000000000000000000000000000000000000000000000000000000000815260040161111890613ba1565b60405180910390fd5b84600860009054906101000a900473ffffffffffffffffffffffffffffffffffffffff1673ffffffffffffffffffffffffffffffffffffffff1663d6d09cfb866040518263ffffffff1660e01b815260040161117d91906142ce565b602060405180830381865afa15801561119a573d6000803e3d6000fd5b505050506040513d601f19601f820116820180604052508101906111be9190613937565b6000600260009054906101000a900473ffffffffffffffffffffffffffffffffffffffff1673ffffffffffffffffffffffffffffffffffffffff16631da0d49f846040518263ffffffff1660e01b815260040161121b9190613973565b600060405180830381865afa158015611238573d6000803e3d6000fd5b505050506040513d6000823e3d601f19601f820116820180604052508101906112619190613a31565b905060008260001c8261127390613ab7565b60001c16146112b7576040517f08c379a00000000000000000000000000000000000000000000000000000000081526004016112ae90614387565b60405180910390fd5b600b60009054906101000a900473ffffffffffffffffffffffffffffffffffffffff1673ffffffffffffffffffffffffffffffffffffffff1663cb42ba1c89306040518363ffffffff1660e01b81526004016113149291906143a7565b602060405180830381865afa158015611331573d6000803e3d6000fd5b505050506040513d601f19601f8201168201806040525081019061135591906143fc565b6113635761136288612ae0565b5b600860009054906101000a900473ffffffffffffffffffffffffffffffffffffffff1673ffffffffffffffffffffffffffffffffffffffff166321298b42898960016040518463ffffffff1660e01b81526004016113c393929190614304565b600060405180830381600087803b1580156113dd57600080fd5b505af11580156113f1573d6000803e3d6000fd5b505050505050505050505050565b33600860009054906101000a900473ffffffffffffffffffffffffffffffffffffffff1673ffffffffffffffffffffffffffffffffffffffff1663d6d09cfb60026040518263ffffffff1660e01b815260040161145c9190613ecf565b602060405180830381865afa158015611479573d6000803e3d6000fd5b505050506040513d601f19601f8201168201806040525081019061149d9190613937565b6000600260009054906101000a900473ffffffffffffffffffffffffffffffffffffffff1673ffffffffffffffffffffffffffffffffffffffff16631da0d49f846040518263ffffffff1660e01b81526004016114fa9190613973565b600060405180830381865afa158015611517573d6000803e3d6000fd5b505050506040513d6000823e3d601f19601f820116820180604052508101906115409190613a31565b90508160001c8260001c8261155490613ab7565b60001c1614611598576040517f08c379a000000000000000000000000000000000000000000000000000000000815260040161158f90613ba1565b60405180910390fd5b83600860009054906101000a900473ffffffffffffffffffffffffffffffffffffffff1673ffffffffffffffffffffffffffffffffffffffff1663d6d09cfb60036040518263ffffffff1660e01b81526004016115f59190613f61565b602060405180830381865afa158015611612573d6000803e3d6000fd5b505050506040513d601f19601f820116820180604052508101906116369190613937565b6000600260009054906101000a900473ffffffffffffffffffffffffffffffffffffffff1673ffffffffffffffffffffffffffffffffffffffff16631da0d49f846040518263ffffffff1660e01b81526004016116939190613973565b600060405180830381865afa1580156116b0573d6000803e3d6000fd5b505050506040513d6000823e3d601f19601f820116820180604052508101906116d99190613a31565b90508160001c8260001c826116ed90613ab7565b60001c1614611731576040517f08c379a000000000000000000000000000000000000000000000000000000000815260040161172890613ba1565b60405180910390fd5b600a60009054906101000a900473ffffffffffffffffffffffffffffffffffffffff1673ffffffffffffffffffffffffffffffffffffffff1663bece603a33896040518363ffffffff1660e01b815260040161178e9291906143a7565b600060405180830381600087803b1580156117a857600080fd5b505af11580156117bc573d6000803e3d6000fd5b50505050600a60009054906101000a900473ffffffffffffffffffffffffffffffffffffffff1673ffffffffffffffffffffffffffffffffffffffff1663fd3ee5f43389600a60009054906101000a900473ffffffffffffffffffffffffffffffffffffffff1673ffffffffffffffffffffffffffffffffffffffff166398f351748c6040518263ffffffff1660e01b815260040161185b9190613973565b602060405180830381865afa158015611878573d6000803e3d6000fd5b505050506040513d601f19601f8201168201806040525081019061189c9190613fa8565b6040518463ffffffff1660e01b81526004016118ba93929190614429565b600060405180830381600087803b1580156118d457600080fd5b505af11580156118e8573d6000803e3d6000fd5b50505050600a60009054906101000a900473ffffffffffffffffffffffffffffffffffffffff1673ffffffffffffffffffffffffffffffffffffffff166361f49787600a60009054906101000a900473ffffffffffffffffffffffffffffffffffffffff1673ffffffffffffffffffffffffffffffffffffffff166398f351748a6040518263ffffffff1660e01b81526004016119859190613973565b602060405180830381865afa1580156119a2573d6000803e3d6000fd5b505050506040513d601f19601f820116820180604052508101906119c69190613fa8565b896040518363ffffffff1660e01b81526004016119e4929190614460565b600060405180830381600087803b1580156119fe57600080fd5b505af1158015611a12573d6000803e3d6000fd5b5050505050505050505050565b8042600360009054906101000a900473ffffffffffffffffffffffffffffffffffffffff1673ffffffffffffffffffffffffffffffffffffffff1663a56c89b183600360009054906101000a900473ffffffffffffffffffffffffffffffffffffffff1673ffffffffffffffffffffffffffffffffffffffff166338671fd260036040518263ffffffff1660e01b8152600401611abc9190613f61565b602060405180830381865afa158015611ad9573d6000803e3d6000fd5b505050506040513d601f19601f82011682018060405250810190611afd9190613dd0565b6040518363ffffffff1660e01b8152600401611b1a929190614489565b600060405180830381865afa158015611b37573d6000803e3d6000fd5b505050506040513d6000823e3d601f19601f82011682018060405250810190611b609190613a31565b611b6990613ab7565b60001c60008054906101000a900473ffffffffffffffffffffffffffffffffffffffff1673ffffffffffffffffffffffffffffffffffffffff1663ef64d3176040518163ffffffff1660e01b8152600401602060405180830381865afa158015611bd7573d6000803e3d6000fd5b505050506040513d601f19601f82011682018060405250810190611bfb9190613fa8565b611c059190614004565b10611c45576040517f08c379a0000000000000000000000000000000000000000000000000000000008152600401611c3c90614524565b60405180910390fd5b3330600460009054906101000a900473ffffffffffffffffffffffffffffffffffffffff1673ffffffffffffffffffffffffffffffffffffffff1663cb42ba1c83836040518363ffffffff1660e01b8152600401611ca49291906143a7565b602060405180830381865afa158015611cc1573d6000803e3d6000fd5b505050506040513d601f19601f82011682018060405250810190611ce591906143fc565b611d24576040517f08c379a0000000000000000000000000000000000000000000000000000000008152600401611d1b906145b6565b60405180910390fd5b600960009054906101000a900473ffffffffffffffffffffffffffffffffffffffff1673ffffffffffffffffffffffffffffffffffffffff166391021ae885600960009054906101000a900473ffffffffffffffffffffffffffffffffffffffff1673ffffffffffffffffffffffffffffffffffffffff166338671fd260046040518263ffffffff1660e01b8152600401611dbf9190614095565b602060405180830381865afa158015611ddc573d6000803e3d6000fd5b505050506040513d601f19601f82011682018060405250810190611e009190613dd0565b4260001b604051602001611e149190613f0b565b6040516020818303038152906040526040518463ffffffff1660e01b8152600401611e4193929190613e56565b600060405180830381600087803b158015611e5b57600080fd5b505af1158015611e6f573d6000803e3d6000fd5b50505050600080600960009054906101000a900473ffffffffffffffffffffffffffffffffffffffff1673ffffffffffffffffffffffffffffffffffffffff1663dd596655876040518263ffffffff1660e01b8152600401611ed19190613747565b600060405180830381865afa158015611eee573d6000803e3d6000fd5b505050506040513d6000823e3d601f19601f82011682018060405250810190611f179190614737565b91509150600c60009054906101000a900473ffffffffffffffffffffffffffffffffffffffff1673ffffffffffffffffffffffffffffffffffffffff16633ceb2b5d876040518263ffffffff1660e01b8152600401611f769190613747565b602060405180830381865afa158015611f93573d6000803e3d6000fd5b505050506040513d601f19601f82011682018060405250810190611fb791906143fc565b156120bd5760005b82518110156120bb57600660009054906101000a900473ffffffffffffffffffffffffffffffffffffffff1673ffffffffffffffffffffffffffffffffffffffff166344c028fe600085848151811061201b5761201a6147af565b5b60200260200101516000868681518110612038576120376147af565b5b60200260200101516040518563ffffffff1660e01b815260040161205f949392919061480f565b6000604051808303816000875af115801561207e573d6000803e3d6000fd5b505050506040513d6000823e3d601f19601f820116820180604052508101906120a79190613a31565b5080806120b39061485b565b915050611fbf565b505b505050505050565b33600860009054906101000a900473ffffffffffffffffffffffffffffffffffffffff1673ffffffffffffffffffffffffffffffffffffffff1663d6d09cfb60006040518263ffffffff1660e01b81526004016121229190613d5d565b602060405180830381865afa15801561213f573d6000803e3d6000fd5b505050506040513d601f19601f820116820180604052508101906121639190613937565b6000600260009054906101000a900473ffffffffffffffffffffffffffffffffffffffff1673ffffffffffffffffffffffffffffffffffffffff16631da0d49f846040518263ffffffff1660e01b81526004016121c09190613973565b600060405180830381865afa1580156121dd573d6000803e3d6000fd5b505050506040513d6000823e3d601f19601f820116820180604052508101906122069190613a31565b90508160001c8260001c8261221a90613ab7565b60001c161461225e576040517f08c379a000000000000000000000000000000000000000000000000000000000815260040161225590613ba1565b60405180910390fd5b336000600160009054906101000a900473ffffffffffffffffffffffffffffffffffffffff1673ffffffffffffffffffffffffffffffffffffffff16631b311a4b836040518263ffffffff1660e01b81526004016122bc9190613973565b602060405180830381865afa1580156122d9573d6000803e3d6000fd5b505050506040513d601f19601f820116820180604052508101906122fd91906148a3565b90508073ffffffffffffffffffffffffffffffffffffffff168273ffffffffffffffffffffffffffffffffffffffff16148061235d5750600060601b6bffffffffffffffffffffffff19168260601b6bffffffffffffffffffffffff1916145b61239c576040517f08c379a00000000000000000000000000000000000000000000000000000000081526004016123939061491c565b60405180910390fd5b3387600360009054906101000a900473ffffffffffffffffffffffffffffffffffffffff1673ffffffffffffffffffffffffffffffffffffffff1663525ae7f183836040518363ffffffff1660e01b81526004016123fb92919061493c565b602060405180830381865afa158015612418573d6000803e3d6000fd5b505050506040513d601f19601f8201168201806040525081019061243c91906143fc565b1561247c576040517f08c379a0000000000000000000000000000000000000000000000000000000008152600401612473906149b1565b60405180910390fd5b8842600360009054906101000a900473ffffffffffffffffffffffffffffffffffffffff1673ffffffffffffffffffffffffffffffffffffffff1663a56c89b183600360009054906101000a900473ffffffffffffffffffffffffffffffffffffffff1673ffffffffffffffffffffffffffffffffffffffff166338671fd260036040518263ffffffff1660e01b81526004016125199190613f61565b602060405180830381865afa158015612536573d6000803e3d6000fd5b505050506040513d601f19601f8201168201806040525081019061255a9190613dd0565b6040518363ffffffff1660e01b8152600401612577929190614489565b600060405180830381865afa158015612594573d6000803e3d6000fd5b505050506040513d6000823e3d601f19601f820116820180604052508101906125bd9190613a31565b6125c690613ab7565b60001c60008054906101000a900473ffffffffffffffffffffffffffffffffffffffff1673ffffffffffffffffffffffffffffffffffffffff1663ef64d3176040518163ffffffff1660e01b8152600401602060405180830381865afa158015612634573d6000803e3d6000fd5b505050506040513d601f19601f820116820180604052508101906126589190613fa8565b6126629190614004565b116126a2576040517f08c379a000000000000000000000000000000000000000000000000000000000815260040161269990614a1d565b60405180910390fd5b6000600960009054906101000a900473ffffffffffffffffffffffffffffffffffffffff1673ffffffffffffffffffffffffffffffffffffffff166338671fd28b60076126ef9190614a3d565b6040518263ffffffff1660e01b815260040161270b91906142ce565b602060405180830381865afa158015612728573d6000803e3d6000fd5b505050506040513d601f19601f8201168201806040525081019061274c9190613dd0565b905060008060088060009054906101000a900473ffffffffffffffffffffffffffffffffffffffff1673ffffffffffffffffffffffffffffffffffffffff16631da0d49f336040518263ffffffff1660e01b81526004016127ad9190613973565b600060405180830381865afa1580156127ca573d6000803e3d6000fd5b505050506040513d6000823e3d601f19601f820116820180604052508101906127f39190613a31565b6127fc90613ab7565b60001c161461296157600a60009054906101000a900473ffffffffffffffffffffffffffffffffffffffff1673ffffffffffffffffffffffffffffffffffffffff166398f35174336040518263ffffffff1660e01b81526004016128609190613973565b602060405180830381865afa15801561287d573d6000803e3d6000fd5b505050506040513d601f19601f820116820180604052508101906128a19190613fa8565b600960009054906101000a900473ffffffffffffffffffffffffffffffffffffffff1673ffffffffffffffffffffffffffffffffffffffff1663a56c89b18e856040518363ffffffff1660e01b81526004016128fe929190614489565b600060405180830381865afa15801561291b573d6000803e3d6000fd5b505050506040513d6000823e3d601f19601f820116820180604052508101906129449190613a31565b61294d90613ab7565b60001c61295a9190614004565b9050612a1f565b6001600960009054906101000a900473ffffffffffffffffffffffffffffffffffffffff1673ffffffffffffffffffffffffffffffffffffffff1663a56c89b18e856040518363ffffffff1660e01b81526004016129c0929190614489565b600060405180830381865afa1580156129dd573d6000803e3d6000fd5b505050506040513d6000823e3d601f19601f82011682018060405250810190612a069190613a31565b612a0f90613ab7565b60001c612a1c9190614004565b90505b600960009054906101000a900473ffffffffffffffffffffffffffffffffffffffff1673ffffffffffffffffffffffffffffffffffffffff166391021ae88d848460001b604051602001612a739190613f0b565b6040516020818303038152906040526040518463ffffffff1660e01b8152600401612aa093929190613e56565b600060405180830381600087803b158015612aba57600080fd5b505af1158015612ace573d6000803e3d6000fd5b50505050505050505050505050505050565b6000600860009054906101000a900473ffffffffffffffffffffffffffffffffffffffff1673ffffffffffffffffffffffffffffffffffffffff16636405184e6040518163ffffffff1660e01b8152600401602060405180830381865afa158015612b4f573d6000803e3d6000fd5b505050506040513d601f19601f82011682018060405250810190612b739190613fa8565b9050600860009054906101000a900473ffffffffffffffffffffffffffffffffffffffff1673ffffffffffffffffffffffffffffffffffffffff166377a14c3582846040518363ffffffff1660e01b8152600401612bd2929190614460565b600060405180830381600087803b158015612bec57600080fd5b505af1158015612c00573d6000803e3d6000fd5b50505050600860009054906101000a900473ffffffffffffffffffffffffffffffffffffffff1673ffffffffffffffffffffffffffffffffffffffff1663348289c6600183612c4f9190614004565b6040518263ffffffff1660e01b8152600401612c6b9190614a74565b600060405180830381600087803b158015612c8557600080fd5b505af1158015612c99573d6000803e3d6000fd5b50505050600b60009054906101000a900473ffffffffffffffffffffffffffffffffffffffff1673ffffffffffffffffffffffffffffffffffffffff1663b795487a8330600b60009054906101000a900473ffffffffffffffffffffffffffffffffffffffff1673ffffffffffffffffffffffffffffffffffffffff16633afeff90876040518263ffffffff1660e01b8152600401612d389190613973565b602060405180830381865afa158015612d55573d6000803e3d6000fd5b505050506040513d601f19601f82011682018060405250810190612d799190613fa8565b6040518463ffffffff1660e01b8152600401612d9793929190614aba565b600060405180830381600087803b158015612db157600080fd5b505af1158015612dc5573d6000803e3d6000fd5b50505050600b60009054906101000a900473ffffffffffffffffffffffffffffffffffffffff1673ffffffffffffffffffffffffffffffffffffffff16633805496f836001600b60009054906101000a900473ffffffffffffffffffffffffffffffffffffffff1673ffffffffffffffffffffffffffffffffffffffff16633afeff90876040518263ffffffff1660e01b8152600401612e659190613973565b602060405180830381865afa158015612e82573d6000803e3d6000fd5b505050506040513d601f19601f82011682018060405250810190612ea69190613fa8565b612eb09190614004565b6040518363ffffffff1660e01b8152600401612ecd929190614af1565b600060405180830381600087803b158015612ee757600080fd5b505af1158015612efb573d6000803e3d6000fd5b50505050600b60009054906101000a900473ffffffffffffffffffffffffffffffffffffffff1673ffffffffffffffffffffffffffffffffffffffff166313c79650833060006040518463ffffffff1660e01b8152600401612f5f93929190614b1a565b600060405180830381600087803b158015612f7957600080fd5b505af1158015612f8d573d6000803e3d6000fd5b505050508173ffffffffffffffffffffffffffffffffffffffff163373ffffffffffffffffffffffffffffffffffffffff161461322f57600b60009054906101000a900473ffffffffffffffffffffffffffffffffffffffff1673ffffffffffffffffffffffffffffffffffffffff1663fad7fc36833033600b60009054906101000a900473ffffffffffffffffffffffffffffffffffffffff1673ffffffffffffffffffffffffffffffffffffffff1663c8b39ce688306040518363ffffffff1660e01b81526004016130629291906143a7565b602060405180830381865afa15801561307f573d6000803e3d6000fd5b505050506040513d601f19601f820116820180604052508101906130a39190613fa8565b6040518563ffffffff1660e01b81526004016130c29493929190614b51565b600060405180830381600087803b1580156130dc57600080fd5b505af11580156130f0573d6000803e3d6000fd5b50505050600b60009054906101000a900473ffffffffffffffffffffffffffffffffffffffff1673ffffffffffffffffffffffffffffffffffffffff16635f10ab8e83306001600b60009054906101000a900473ffffffffffffffffffffffffffffffffffffffff1673ffffffffffffffffffffffffffffffffffffffff1663c8b39ce688306040518363ffffffff1660e01b81526004016131939291906143a7565b602060405180830381865afa1580156131b0573d6000803e3d6000fd5b505050506040513d601f19601f820116820180604052508101906131d49190613fa8565b6131de9190614004565b6040518463ffffffff1660e01b81526004016131fc93929190614429565b600060405180830381600087803b15801561321657600080fd5b505af115801561322a573d6000803e3d6000fd5b505050505b5050565b6000604051905090565b600080fd5b600080fd5b600080fd5b600080fd5b6000601f19601f8301169050919050565b7f4e487b7100000000000000000000000000000000000000000000000000000000600052604160045260246000fd5b61329a82613251565b810181811067ffffffffffffffff821117156132b9576132b8613262565b5b80604052505050565b60006132cc613233565b90506132d88282613291565b919050565b600067ffffffffffffffff8211156132f8576132f7613262565b5b61330182613251565b9050602081019050919050565b82818337600083830152505050565b600061333061332b846132dd565b6132c2565b90508281526020810184848401111561334c5761334b61324c565b5b61335784828561330e565b509392505050565b600082601f83011261337457613373613247565b5b813561338484826020860161331d565b91505092915050565b600067ffffffffffffffff8211156133a8576133a7613262565b5b602082029050602081019050919050565b600080fd5b600073ffffffffffffffffffffffffffffffffffffffff82169050919050565b60006133e9826133be565b9050919050565b6133f9816133de565b811461340457600080fd5b50565b600081359050613416816133f0565b92915050565b600061342f61342a8461338d565b6132c2565b90508083825260208201905060208402830185811115613452576134516133b9565b5b835b8181101561347b57806134678882613407565b845260208401935050602081019050613454565b5050509392505050565b600082601f83011261349a57613499613247565b5b81356134aa84826020860161341c565b91505092915050565b600067ffffffffffffffff8211156134ce576134cd613262565b5b602082029050602081019050919050565b600067ffffffffffffffff8211156134fa576134f9613262565b5b61350382613251565b9050602081019050919050565b600061352361351e846134df565b6132c2565b90508281526020810184848401111561353f5761353e61324c565b5b61354a84828561330e565b509392505050565b600082601f83011261356757613566613247565b5b8135613577848260208601613510565b91505092915050565b600061359361358e846134b3565b6132c2565b905080838252602082019050602084028301858111156135b6576135b56133b9565b5b835b818110156135fd57803567ffffffffffffffff8111156135db576135da613247565b5b8086016135e88982613552565b855260208501945050506020810190506135b8565b5050509392505050565b600082601f83011261361c5761361b613247565b5b813561362c848260208601613580565b91505092915050565b6000806000806080858703121561364f5761364e61323d565b5b600085013567ffffffffffffffff81111561366d5761366c613242565b5b6136798782880161335f565b945050602085013567ffffffffffffffff81111561369a57613699613242565b5b6136a68782880161335f565b935050604085013567ffffffffffffffff8111156136c7576136c6613242565b5b6136d387828801613485565b925050606085013567ffffffffffffffff8111156136f4576136f3613242565b5b61370087828801613607565b91505092959194509250565b60007fffffffffffffffffffff0000000000000000000000000000000000000000000082169050919050565b6137418161370c565b82525050565b600060208201905061375c6000830184613738565b92915050565b600060ff82169050919050565b61377881613762565b811461378357600080fd5b50565b6000813590506137958161376f565b92915050565b600080604083850312156137b2576137b161323d565b5b60006137c085828601613407565b92505060206137d185828601613786565b9150509250929050565b6000602082840312156137f1576137f061323d565b5b60006137ff84828501613407565b91505092915050565b6138118161370c565b811461381c57600080fd5b50565b60008135905061382e81613808565b92915050565b60006020828403121561384a5761384961323d565b5b60006138588482850161381f565b91505092915050565b600080604083850312156138785761387761323d565b5b60006138868582860161381f565b925050602061389785828601613786565b9150509250929050565b6000819050919050565b6000819050919050565b60006138d06138cb6138c6846138a1565b6138ab565b613762565b9050919050565b6138e0816138b5565b82525050565b60006020820190506138fb60008301846138d7565b92915050565b6000819050919050565b61391481613901565b811461391f57600080fd5b50565b6000815190506139318161390b565b92915050565b60006020828403121561394d5761394c61323d565b5b600061395b84828501613922565b91505092915050565b61396d816133de565b82525050565b60006020820190506139886000830184613964565b92915050565b60005b838110156139ac578082015181840152602081019050613991565b838111156139bb576000848401525b50505050565b60006139d46139cf846134df565b6132c2565b9050828152602081018484840111156139f0576139ef61324c565b5b6139fb84828561398e565b509392505050565b600082601f830112613a1857613a17613247565b5b8151613a288482602086016139c1565b91505092915050565b600060208284031215613a4757613a4661323d565b5b600082015167ffffffffffffffff811115613a6557613a64613242565b5b613a7184828501613a03565b91505092915050565b600081519050919050565b6000819050602082019050919050565b6000613aa18251613901565b80915050919050565b600082821b905092915050565b6000613ac282613a7a565b82613acc84613a85565b9050613ad781613a95565b92506020821015613b1757613b127fffffffffffffffffffffffffffffffffffffffffffffffffffffffffffffffff83602003600802613aaa565b831692505b5050919050565b600082825260208201905092915050565b7f5573657220646f6573656e2774206861766520746865207065726d697373696f60008201527f6e2e000000000000000000000000000000000000000000000000000000000000602082015250565b6000613b8b602283613b1e565b9150613b9682613b2f565b604082019050919050565b60006020820190508181036000830152613bba81613b7e565b9050919050565b7f50726f7669646564207461726765747320616e6420646174617320686176652060008201527f646966666572656e74206c656e677468732e0000000000000000000000000000602082015250565b6000613c1d603283613b1e565b9150613c2882613bc1565b604082019050919050565b60006020820190508181036000830152613c4c81613c10565b9050919050565b6000819050919050565b613c6681613c53565b82525050565b600081519050919050565b6000613c8282613c6c565b613c8c8185613b1e565b9350613c9c81856020860161398e565b613ca581613251565b840191505092915050565b6000604082019050613cc56000830185613c5d565b8181036020830152613cd78184613c77565b90509392505050565b600081519050613cef81613808565b92915050565b600060208284031215613d0b57613d0a61323d565b5b6000613d1984828501613ce0565b91505092915050565b6000819050919050565b6000613d47613d42613d3d84613d22565b6138ab565b613762565b9050919050565b613d5781613d2c565b82525050565b6000602082019050613d726000830184613d4e565b92915050565b60007fffffffffffffffffffffffffffffffffffffffff00000000000000000000000082169050919050565b613dad81613d78565b8114613db857600080fd5b50565b600081519050613dca81613da4565b92915050565b600060208284031215613de657613de561323d565b5b6000613df484828501613dbb565b91505092915050565b613e0681613d78565b82525050565b600082825260208201905092915050565b6000613e2882613a7a565b613e328185613e0c565b9350613e4281856020860161398e565b613e4b81613251565b840191505092915050565b6000606082019050613e6b6000830186613738565b613e786020830185613dfd565b8181036040830152613e8a8184613e1d565b9050949350505050565b6000819050919050565b6000613eb9613eb4613eaf84613e94565b6138ab565b613762565b9050919050565b613ec981613e9e565b82525050565b6000602082019050613ee46000830184613ec0565b92915050565b6000819050919050565b613f05613f0082613901565b613eea565b82525050565b6000613f178284613ef4565b60208201915081905092915050565b6000819050919050565b6000613f4b613f46613f4184613f26565b6138ab565b613762565b9050919050565b613f5b81613f30565b82525050565b6000602082019050613f766000830184613f52565b92915050565b613f8581613c53565b8114613f9057600080fd5b50565b600081519050613fa281613f7c565b92915050565b600060208284031215613fbe57613fbd61323d565b5b6000613fcc84828501613f93565b91505092915050565b7f4e487b7100000000000000000000000000000000000000000000000000000000600052601160045260246000fd5b600061400f82613c53565b915061401a83613c53565b9250827fffffffffffffffffffffffffffffffffffffffffffffffffffffffffffffffff0382111561404f5761404e613fd5565b5b828201905092915050565b6000819050919050565b600061407f61407a6140758461405a565b6138ab565b613762565b9050919050565b61408f81614064565b82525050565b60006020820190506140aa6000830184614086565b92915050565b600081519050919050565b600082825260208201905092915050565b6000819050602082019050919050565b6140e5816133de565b82525050565b60006140f783836140dc565b60208301905092915050565b6000602082019050919050565b600061411b826140b0565b61412581856140bb565b9350614130836140cc565b8060005b8381101561416157815161414888826140eb565b975061415383614103565b925050600181019050614134565b5085935050505092915050565b600081519050919050565b600082825260208201905092915050565b6000819050602082019050919050565b600082825260208201905092915050565b60006141b682613a7a565b6141c0818561419a565b93506141d081856020860161398e565b6141d981613251565b840191505092915050565b60006141f083836141ab565b905092915050565b6000602082019050919050565b60006142108261416e565b61421a8185614179565b93508360208202850161422c8561418a565b8060005b85811015614268578484038952815161424985826141e4565b9450614254836141f8565b925060208a01995050600181019050614230565b50829750879550505050505092915050565b600060608201905061428f6000830186613738565b81810360208301526142a18185614110565b905081810360408301526142b58184614205565b9050949350505050565b6142c881613762565b82525050565b60006020820190506142e360008301846142bf565b92915050565b60008115159050919050565b6142fe816142e9565b82525050565b60006060820190506143196000830186613964565b61432660208301856142bf565b61433360408301846142f5565b949350505050565b7f5573657220616c72656164792068617320746865207065726d697373696f6e2e600082015250565b6000614371602083613b1e565b915061437c8261433b565b602082019050919050565b600060208201905081810360008301526143a081614364565b9050919050565b60006040820190506143bc6000830185613964565b6143c96020830184613964565b9392505050565b6143d9816142e9565b81146143e457600080fd5b50565b6000815190506143f6816143d0565b92915050565b6000602082840312156144125761441161323d565b5b6000614420848285016143e7565b91505092915050565b600060608201905061443e6000830186613964565b61444b6020830185613964565b6144586040830184613c5d565b949350505050565b60006040820190506144756000830185613c5d565b6144826020830184613964565b9392505050565b600060408201905061449e6000830185613738565b6144ab6020830184613dfd565b9392505050565b7f54686520766f74696e672064656c6179206973206e6f7420796574206f76657260008201527f2e00000000000000000000000000000000000000000000000000000000000000602082015250565b600061450e602183613b1e565b9150614519826144b2565b604082019050919050565b6000602082019050818103600083015261453d81614501565b9050919050565b7f556e6976657273616c2050726f66696c65206973206e6f74206120706172746960008201527f636970616e74206f66207468652044414f2e0000000000000000000000000000602082015250565b60006145a0603283613b1e565b91506145ab82614544565b604082019050919050565b600060208201905081810360008301526145cf81614593565b9050919050565b6000815190506145e5816133f0565b92915050565b60006145fe6145f98461338d565b6132c2565b90508083825260208201905060208402830185811115614621576146206133b9565b5b835b8181101561464a578061463688826145d6565b845260208401935050602081019050614623565b5050509392505050565b600082601f83011261466957614668613247565b5b81516146798482602086016145eb565b91505092915050565b6000614695614690846134b3565b6132c2565b905080838252602082019050602084028301858111156146b8576146b76133b9565b5b835b818110156146ff57805167ffffffffffffffff8111156146dd576146dc613247565b5b8086016146ea8982613a03565b855260208501945050506020810190506146ba565b5050509392505050565b600082601f83011261471e5761471d613247565b5b815161472e848260208601614682565b91505092915050565b6000806040838503121561474e5761474d61323d565b5b600083015167ffffffffffffffff81111561476c5761476b613242565b5b61477885828601614654565b925050602083015167ffffffffffffffff81111561479957614798613242565b5b6147a585828601614709565b9150509250929050565b7f4e487b7100000000000000000000000000000000000000000000000000000000600052603260045260246000fd5b60006147f96147f46147ef84613d22565b6138ab565b613c53565b9050919050565b614809816147de565b82525050565b60006080820190506148246000830187614800565b6148316020830186613964565b61483e6040830185614800565b81810360608301526148508184613e1d565b905095945050505050565b600061486682613c53565b91507fffffffffffffffffffffffffffffffffffffffffffffffffffffffffffffffff820361489857614897613fd5565b5b600182019050919050565b6000602082840312156148b9576148b861323d565b5b60006148c7848285016145d6565b91505092915050565b7f557365722064656c6567617465642068697320766f7465732e00000000000000600082015250565b6000614906601983613b1e565b9150614911826148d0565b602082019050919050565b60006020820190508181036000830152614935816148f9565b9050919050565b60006040820190506149516000830185613964565b61495e6020830184613738565b9392505050565b7f557365722064696420616c726561647920766f74652e00000000000000000000600082015250565b600061499b601683613b1e565b91506149a682614965565b602082019050919050565b600060208201905081810360008301526149ca8161498e565b9050919050565b7f566f74696e6720706572696f6420697320616c7265616479206f7665722e0000600082015250565b6000614a07601e83613b1e565b9150614a12826149d1565b602082019050919050565b60006020820190508181036000830152614a36816149fa565b9050919050565b6000614a4882613762565b9150614a5383613762565b92508260ff03821115614a6957614a68613fd5565b5b828201905092915050565b6000602082019050614a896000830184613c5d565b92915050565b60006fffffffffffffffffffffffffffffffff82169050919050565b614ab481614a8f565b82525050565b6000606082019050614acf6000830186613964565b614adc6020830185613964565b614ae96040830184614aab565b949350505050565b6000604082019050614b066000830185613964565b614b136020830184613c5d565b9392505050565b6000606082019050614b2f6000830186613964565b614b3c6020830185613964565b614b4960408301846142f5565b949350505050565b6000608082019050614b666000830187613964565b614b736020830186613964565b614b806040830185613964565b614b8d6060830184614aab565b9594505050505056fea264697066735822122063e1e27f70a494e2f7339961152debd50959f1a3fdb8d5ad55bbe158562b219b64736f6c634300080f0033608060405234801561001057600080fd5b50610280806100206000396000f3fe608060405234801561001057600080fd5b506004361061002b5760003560e01c80634bb5ec3214610030575b600080fd5b61004a6004803603810190610045919061012b565b610060565b604051610057919061022f565b60405180910390f35b6100686100ce565b6040518060400160405280600060801b6fffffffffffffffffffffffffffffffff19166fffffffffffffffffffffffffffffffff19168152602001600060801b6fffffffffffffffffffffffffffffffff19168152509050818152816010820152919050565b6040518060400160405280600290602082028036833780820191505090505090565b600080fd5b6000819050919050565b610108816100f5565b811461011357600080fd5b50565b600081359050610125816100ff565b92915050565b600060208284031215610141576101406100f0565b5b600061014f84828501610116565b91505092915050565b600060029050919050565b600081905092915050565b6000819050919050565b60007fffffffffffffffffffffffffffffffff0000000000000000000000000000000082169050919050565b6101ad81610178565b82525050565b60006101bf83836101a4565b60208301905092915050565b6000602082019050919050565b6101e181610158565b6101eb8184610163565b92506101f68261016e565b8060005b8381101561022757815161020e87826101b3565b9650610219836101cb565b9250506001810190506101fa565b505050505050565b600060408201905061024460008301846101d8565b9291505056fea2646970667358221220ae2f886daf4a2083bdd56bd15be279e9f5d48539319da44aa45e3c90b146207c64736f6c634300080f0033a2646970667358221220ab6ac9a04e38df43d60b78f8bc2400ee9838c27ef05f82b33c794035e4fb722764736f6c634300080f0033",
  "immutableReferences": {},
  "source": "// SPDX-License-Identifier: CC0-1.0\n\npragma solidity ^0.8.0;\n\nimport {LSP0ERC725Account} from \"./LSP0ERC725Account.sol\";\nimport {LSP6KeyManager} from \"./LSP6KeyManager.sol\";\nimport {DaoAccount} from \"./DaoAccount.sol\";\nimport {DaoAccountMetadata} from \"./DaoAccountMetadata.sol\";\nimport {DaoPermissions} from \"./DaoPermissions.sol\";\nimport {DaoProposals} from \"./DaoProposals.sol\";\nimport {DaoDelegates} from \"./DaoDelegates.sol\";\nimport {DaoParticipation} from \"./DaoParticipation.sol\";\nimport {DaoVotingStrategies} from \"./DaoVotingStrategies.sol\";\nimport {\n  _LSP6KEY_ADDRESSPERMISSIONS_ARRAY,\n  _LSP6KEY_ADDRESSPERMISSIONS_ARRAY_PREFIX,\n  _LSP6KEY_ADDRESSPERMISSIONS_PERMISSIONS_PREFIX,\n  _PERMISSION_SETDATA\n} from \"./Utils/DaoConstants.sol\";\n\n/**\n *\n* @notice This smart contract is responsible for deploying and connecting all\n* the necessary components for a Universal Profile DAO to work.\n *\n * @author B00ste\n * @title DeployerContract\n * @custom:version 0.92\n */\ncontract DeployerContract {\n\n  /**\n   * @notice Structure for saving all the data a user is creating using this contract.\n   */\n  struct UserProgress {\n    LSP0ERC725Account UNIVERSAL_PROFILE;\n    LSP6KeyManager KEY_MANAGER;\n    DaoAccountMetadata DAO_METADATA;\n    DaoPermissions DAO_PERMISSIONS;\n    DaoProposals DAO_PROPOSALS;\n    DaoDelegates DAO_DELEGATES;\n    DaoParticipation DAO_PARTICIPATION;\n    DaoVotingStrategies DAO_VOTING_STRATEGIES;\n    DaoAccount DAO_ACCOUNT;\n    bytes2 phases;\n  }\n\n  /**\n   * @notice Mapping for saving the DAO creations of users and storing progress.\n   */\n  mapping (address => UserProgress) userProgress;\n  \n  /**\n   * @notice Create the Universal Profile for the DAO.\n   */\n  function createUniversalProfile() external {\n    require(\n      (uint16(userProgress[msg.sender].phases)) & (1 << 0) == 0,\n      \"Universal Profile is already initialized.\"\n    );\n    userProgress[msg.sender].UNIVERSAL_PROFILE = new LSP0ERC725Account(address(this));\n    userProgress[msg.sender].phases = bytes2(0x0001);\n  }\n\n  /**\n   * @notice Create the Key Manager for the DAO.\n   */\n  function createKeyManager() external {\n    require(\n      (uint16(userProgress[msg.sender].phases)) & (1 << 0) != 0 &&\n      (uint16(userProgress[msg.sender].phases)) & (1 << 1) == 0,\n      \"Universal Profile not initialized or Key Manager already initialized.\"\n    );\n    userProgress[msg.sender].KEY_MANAGER = new LSP6KeyManager(address(userProgress[msg.sender].UNIVERSAL_PROFILE));\n    userProgress[msg.sender].phases = bytes2(0x0003);\n  }\n\n  /**\n   * @notice Create the tools for a DAO Account.\n   */\n  function createDaoAccountTools() external {\n    require(\n      (uint16(userProgress[msg.sender].phases)) & (1 << 1) != 0 &&\n      (uint16(userProgress[msg.sender].phases)) & (1 << 2) == 0,\n      \"Key Manager is not initialized or Dao Account Tools already initialized.\"\n    );\n    userProgress[msg.sender].DAO_METADATA = new DaoAccountMetadata();\n    userProgress[msg.sender].DAO_PERMISSIONS = new DaoPermissions();\n    userProgress[msg.sender].DAO_PROPOSALS = new DaoProposals();\n    userProgress[msg.sender].DAO_DELEGATES = new DaoDelegates();\n    userProgress[msg.sender].DAO_PARTICIPATION = new DaoParticipation();\n    userProgress[msg.sender].DAO_VOTING_STRATEGIES = new DaoVotingStrategies();\n    userProgress[msg.sender].phases = bytes2(0x0007);\n  }\n\n  /**\n   * @notice Create the DAO Account.\n   */\n  function createDaoAccount() external {\n    require(\n      (uint16(userProgress[msg.sender].phases)) & (1 << 2) != 0 &&\n      (uint16(userProgress[msg.sender].phases)) & (1 << 3) == 0,\n      \"Dao Account Tools not initialized or Dao Account already initialized.\"\n    );\n    userProgress[msg.sender].DAO_ACCOUNT = new DaoAccount(\n      userProgress[msg.sender].UNIVERSAL_PROFILE,\n      userProgress[msg.sender].KEY_MANAGER,\n      userProgress[msg.sender].DAO_METADATA,\n      userProgress[msg.sender].DAO_PERMISSIONS,\n      userProgress[msg.sender].DAO_PROPOSALS,\n      userProgress[msg.sender].DAO_DELEGATES,\n      userProgress[msg.sender].DAO_PARTICIPATION,\n      userProgress[msg.sender].DAO_VOTING_STRATEGIES\n    );\n    userProgress[msg.sender].phases = bytes2(0x000F);\n  }\n\n  /**\n   * @notice Set the necessary permissions for the Dao Tools and Dao Account.\n   */\n  function setPermissions() external {\n    require(\n      (uint16(userProgress[msg.sender].phases)) & (1 << 3) != 0 &&\n      (uint16(userProgress[msg.sender].phases)) & (1 << 4) == 0,\n      \"Dao Account not initialized or permissions alerady set.\"\n    );\n    bytes32[] memory keysArray = new bytes32[](11);\n    keysArray[0] = bytes32(_LSP6KEY_ADDRESSPERMISSIONS_ARRAY);\n    keysArray[1] = bytes32(bytes.concat(_LSP6KEY_ADDRESSPERMISSIONS_ARRAY_PREFIX, bytes16(0)));\n    keysArray[2] = bytes32(bytes.concat(_LSP6KEY_ADDRESSPERMISSIONS_ARRAY_PREFIX, bytes16(uint128(1))));\n    keysArray[3] = bytes32(bytes.concat(_LSP6KEY_ADDRESSPERMISSIONS_ARRAY_PREFIX, bytes16(uint128(2))));\n    keysArray[4] = bytes32(bytes.concat(_LSP6KEY_ADDRESSPERMISSIONS_ARRAY_PREFIX, bytes16(uint128(3))));\n    keysArray[5] = bytes32(bytes.concat(_LSP6KEY_ADDRESSPERMISSIONS_ARRAY_PREFIX, bytes16(uint128(4))));\n    keysArray[6] = bytes32(bytes.concat(_LSP6KEY_ADDRESSPERMISSIONS_PERMISSIONS_PREFIX, bytes20(address(userProgress[msg.sender].DAO_ACCOUNT))));\n    keysArray[7] = bytes32(bytes.concat(_LSP6KEY_ADDRESSPERMISSIONS_PERMISSIONS_PREFIX, bytes20(address(userProgress[msg.sender].DAO_METADATA))));\n    keysArray[8] = bytes32(bytes.concat(_LSP6KEY_ADDRESSPERMISSIONS_PERMISSIONS_PREFIX, bytes20(address(userProgress[msg.sender].DAO_PERMISSIONS))));\n    keysArray[9] = bytes32(bytes.concat(_LSP6KEY_ADDRESSPERMISSIONS_PERMISSIONS_PREFIX, bytes20(address(userProgress[msg.sender].DAO_PROPOSALS))));\n    keysArray[10] = bytes32(bytes.concat(_LSP6KEY_ADDRESSPERMISSIONS_PERMISSIONS_PREFIX, bytes20(address(userProgress[msg.sender].DAO_DELEGATES))));\n\n\n    bytes[] memory valuesArray = new bytes[](11);\n    valuesArray[0] = bytes.concat(bytes32(uint256(5)));\n    valuesArray[1] = bytes.concat(bytes20(address(userProgress[msg.sender].DAO_ACCOUNT)));\n    valuesArray[2] = bytes.concat(bytes20(address(userProgress[msg.sender].DAO_METADATA)));\n    valuesArray[3] = bytes.concat(bytes20(address(userProgress[msg.sender].DAO_PERMISSIONS)));\n    valuesArray[4] = bytes.concat(bytes20(address(userProgress[msg.sender].DAO_PROPOSALS)));\n    valuesArray[5] = bytes.concat(bytes20(address(userProgress[msg.sender].DAO_DELEGATES)));\n    valuesArray[6] = bytes.concat(bytes32(0x0000000000000000000000000000000000000000000000000000000000007FFF));\n    valuesArray[7] = bytes.concat(bytes32(_PERMISSION_SETDATA));\n    valuesArray[8] = bytes.concat(bytes32(_PERMISSION_SETDATA));\n    valuesArray[9] = bytes.concat(bytes32(_PERMISSION_SETDATA));\n    valuesArray[10] = bytes.concat(bytes32(_PERMISSION_SETDATA));\n\n    userProgress[msg.sender].UNIVERSAL_PROFILE.setData(keysArray, valuesArray);\n    userProgress[msg.sender].phases = bytes2(0x001F);\n  }\n\n  /**\n   * @notice Transfer Universal Profile ownership to Key Manager.\n   */\n  /*function transferOwnersipToKeyManager() external {\n    require(\n      (uint16(userProgress[msg.sender].phases)) & (1 << 4) != 0 &&\n      (uint16(userProgress[msg.sender].phases)) & (1 << 5) == 0,\n      \"The permissions are not set yet or Ownership is already transfered.\"\n    );\n    userProgress[msg.sender].UNIVERSAL_PROFILE.transferOwnership(\n      address(userProgress[msg.sender].KEY_MANAGER)\n    );\n    userProgress[msg.sender].KEY_MANAGER.getOwnership();\n    userProgress[msg.sender].phases = bytes2(0x003F);\n  }*/\n  \n  /**\n   * @notice Initialize the metadata of the DAO. Important data.\n   *\n   * @param name Name of the DAO.\n   * @param description Description of the DAO.\n   * @param majority The percentage of pro votes from the sum of pro and against votes needed for a proposal to pass.\n   * @param participationRate The percentage of pro and against votes compared to abstain votes needed for a proposal to pass.\n   * @param votingDelay Time required to pass before a proposal goes to the voting phase.\n   * @param votingPeriod Time allowed for voting on a proposal.\n   */\n  /*function initializeDaoAccount(\n    string memory name,\n    string memory description,\n    uint8 majority,\n    uint8 participationRate,\n    uint256 votingDelay,\n    uint256 votingPeriod\n  ) public {\n    require(\n      (uint16(userProgress[msg.sender].phases)) & (1 << 5) != 0 &&\n      (uint16(userProgress[msg.sender].phases)) & (1 << 6) == 0,\n      \"Ownership not trasfered yet or Dao Account already initialized.\"\n    );\n    require(majority >= 0 && majority <= 100);\n    require(participationRate >= 0 && participationRate <= 100);\n    userProgress[msg.sender].DAO_METADATA._setDaoName(name);\n    userProgress[msg.sender].DAO_METADATA._setDaoDescription(description);\n    userProgress[msg.sender].DAO_METADATA._setDaoMajority(majority);\n    userProgress[msg.sender].DAO_METADATA._setDaoParticipationRate(participationRate);\n    userProgress[msg.sender].DAO_METADATA._setDaoVotingDelay(votingDelay);\n    userProgress[msg.sender].DAO_METADATA._setDaoVotingPeriod(votingPeriod);\n    userProgress[msg.sender].phases = bytes2(0x007F);\n  }*/\n\n}",
  "sourcePath": "/home/b00ste/Projects/universal-profile-governance/contracts/UPDao/DeployerContract.sol",
  "compiler": {
    "name": "solc",
    "version": "0.8.15+commit.e14f2714.Emscripten.clang"
  },
  "schemaVersion": "3.4.8",
  "updatedAt": "2022-07-22T23:40:34.253Z",
  "devdoc": {
    "author": "B00ste",
    "custom:version": "0.92",
    "kind": "dev",
    "methods": {},
    "title": "DeployerContract",
    "version": 1
  },
  "userdoc": {
    "kind": "user",
    "methods": {
      "createDaoAccount()": {
        "notice": "Create the DAO Account."
      },
      "createDaoAccountTools()": {
        "notice": "Create the tools for a DAO Account."
      },
      "createKeyManager()": {
        "notice": "Create the Key Manager for the DAO."
      },
      "createUniversalProfile()": {
        "notice": "Create the Universal Profile for the DAO."
      },
      "setPermissions()": {
        "notice": "Set the necessary permissions for the Dao Tools and Dao Account."
      }
    },
    "notice": "This smart contract is responsible for deploying and connecting all the necessary components for a Universal Profile DAO to work.",
    "version": 1
  }
}