{
  "contractName": "ERC725Y",
  "abi": [
    {
      "inputs": [
        {
          "internalType": "address",
          "name": "newOwner",
          "type": "address"
        }
      ],
      "stateMutability": "nonpayable",
      "type": "constructor"
    },
    {
      "anonymous": false,
      "inputs": [
        {
          "indexed": true,
          "internalType": "bytes32",
          "name": "dataKey",
          "type": "bytes32"
        }
      ],
      "name": "DataChanged",
      "type": "event"
    },
    {
      "anonymous": false,
      "inputs": [
        {
          "indexed": true,
          "internalType": "address",
          "name": "previousOwner",
          "type": "address"
        },
        {
          "indexed": true,
          "internalType": "address",
          "name": "newOwner",
          "type": "address"
        }
      ],
      "name": "OwnershipTransferred",
      "type": "event"
    },
    {
      "inputs": [
        {
          "internalType": "bytes32[]",
          "name": "dataKeys",
          "type": "bytes32[]"
        }
      ],
      "name": "getData",
      "outputs": [
        {
          "internalType": "bytes[]",
          "name": "dataValues",
          "type": "bytes[]"
        }
      ],
      "stateMutability": "view",
      "type": "function"
    },
    {
      "inputs": [
        {
          "internalType": "bytes32",
          "name": "dataKey",
          "type": "bytes32"
        }
      ],
      "name": "getData",
      "outputs": [
        {
          "internalType": "bytes",
          "name": "dataValue",
          "type": "bytes"
        }
      ],
      "stateMutability": "view",
      "type": "function"
    },
    {
      "inputs": [],
      "name": "owner",
      "outputs": [
        {
          "internalType": "address",
          "name": "",
          "type": "address"
        }
      ],
      "stateMutability": "view",
      "type": "function"
    },
    {
      "inputs": [],
      "name": "renounceOwnership",
      "outputs": [],
      "stateMutability": "nonpayable",
      "type": "function"
    },
    {
      "inputs": [
        {
          "internalType": "bytes32[]",
          "name": "dataKeys",
          "type": "bytes32[]"
        },
        {
          "internalType": "bytes[]",
          "name": "dataValues",
          "type": "bytes[]"
        }
      ],
      "name": "setData",
      "outputs": [],
      "stateMutability": "nonpayable",
      "type": "function"
    },
    {
      "inputs": [
        {
          "internalType": "bytes32",
          "name": "dataKey",
          "type": "bytes32"
        },
        {
          "internalType": "bytes",
          "name": "dataValue",
          "type": "bytes"
        }
      ],
      "name": "setData",
      "outputs": [],
      "stateMutability": "nonpayable",
      "type": "function"
    },
    {
      "inputs": [
        {
          "internalType": "bytes4",
          "name": "interfaceId",
          "type": "bytes4"
        }
      ],
      "name": "supportsInterface",
      "outputs": [
        {
          "internalType": "bool",
          "name": "",
          "type": "bool"
        }
      ],
      "stateMutability": "view",
      "type": "function"
    },
    {
      "inputs": [
        {
          "internalType": "address",
          "name": "newOwner",
          "type": "address"
        }
      ],
      "name": "transferOwnership",
      "outputs": [],
      "stateMutability": "nonpayable",
      "type": "function"
    }
  ],
  "bytecode": "0x60806040523480156200001157600080fd5b506040516200174e3803806200174e8339818101604052810190620000379190620001ef565b6200004d816200005460201b620005f71760201c565b5062000221565b620000646200015c60201b60201c565b73ffffffffffffffffffffffffffffffffffffffff168173ffffffffffffffffffffffffffffffffffffffff1614620001595760008060009054906101000a900473ffffffffffffffffffffffffffffffffffffffff169050816000806101000a81548173ffffffffffffffffffffffffffffffffffffffff021916908373ffffffffffffffffffffffffffffffffffffffff1602179055508173ffffffffffffffffffffffffffffffffffffffff168173ffffffffffffffffffffffffffffffffffffffff167f8be0079c531659141344cd1fd0a4f28419497f9722a3daafe3b4186f6b6457e060405160405180910390a3505b50565b60008060009054906101000a900473ffffffffffffffffffffffffffffffffffffffff16905090565b600080fd5b600073ffffffffffffffffffffffffffffffffffffffff82169050919050565b6000620001b7826200018a565b9050919050565b620001c981620001aa565b8114620001d557600080fd5b50565b600081519050620001e981620001be565b92915050565b60006020828403121562000208576200020762000185565b5b60006200021884828501620001d8565b91505092915050565b61151d80620002316000396000f3fe608060405234801561001057600080fd5b50600436106100885760003560e01c8063715018a61161005b578063715018a6146101395780637f23690c146101435780638da5cb5b1461015f578063f2fde38b1461017d57610088565b806301ffc9a71461008d57806314a6e293146100bd5780634e3e6e9c146100d957806354f6127f14610109575b600080fd5b6100a760048036038101906100a291906108d0565b610199565b6040516100b49190610918565b60405180910390f35b6100d760048036038101906100d29190610c58565b6101fa565b005b6100f360048036038101906100ee9190610cd0565b610312565b6040516101009190610e63565b60405180910390f35b610123600480360381019061011e9190610e85565b6103c8565b6040516101309190610efc565b60405180910390f35b6101416103da565b005b61015d60048036038101906101589190610f1e565b61045b565b005b6101676104de565b6040516101749190610fbb565b60405180910390f35b61019760048036038101906101929190611002565b610507565b005b600063714df77c60e01b7bffffffffffffffffffffffffffffffffffffffffffffffffffffffff1916827bffffffffffffffffffffffffffffffffffffffffffffffffffffffff191614806101f357506101f2826106f6565b5b9050919050565b3373ffffffffffffffffffffffffffffffffffffffff166102196104de565b73ffffffffffffffffffffffffffffffffffffffff161461026f576040517f08c379a00000000000000000000000000000000000000000000000000000000081526004016102669061108c565b60405180910390fd5b80518251146102b3576040517f08c379a00000000000000000000000000000000000000000000000000000000081526004016102aa9061111e565b60405180910390fd5b60005b825181101561030d576102fd8382815181106102d5576102d461113e565b5b60200260200101518383815181106102f0576102ef61113e565b5b6020026020010151610760565b610306816107b2565b90506102b6565b505050565b6060815167ffffffffffffffff81111561032f5761032e610949565b5b60405190808252806020026020018201604052801561036257816020015b606081526020019060019003908161034d5790505b50905060005b82518110156103c2576103948382815181106103875761038661113e565b5b60200260200101516107bf565b8282815181106103a7576103a661113e565b5b60200260200101819052506103bb816107b2565b9050610368565b50919050565b60606103d3826107bf565b9050919050565b3373ffffffffffffffffffffffffffffffffffffffff166103f96104de565b73ffffffffffffffffffffffffffffffffffffffff161461044f576040517f08c379a00000000000000000000000000000000000000000000000000000000081526004016104469061108c565b60405180910390fd5b61045960006105f7565b565b3373ffffffffffffffffffffffffffffffffffffffff1661047a6104de565b73ffffffffffffffffffffffffffffffffffffffff16146104d0576040517f08c379a00000000000000000000000000000000000000000000000000000000081526004016104c79061108c565b60405180910390fd5b6104da8282610760565b5050565b60008060009054906101000a900473ffffffffffffffffffffffffffffffffffffffff16905090565b3373ffffffffffffffffffffffffffffffffffffffff166105266104de565b73ffffffffffffffffffffffffffffffffffffffff161461057c576040517f08c379a00000000000000000000000000000000000000000000000000000000081526004016105739061108c565b60405180910390fd5b600073ffffffffffffffffffffffffffffffffffffffff168173ffffffffffffffffffffffffffffffffffffffff16036105eb576040517f08c379a00000000000000000000000000000000000000000000000000000000081526004016105e2906111df565b60405180910390fd5b6105f4816105f7565b50565b6105ff6104de565b73ffffffffffffffffffffffffffffffffffffffff168173ffffffffffffffffffffffffffffffffffffffff16146106f35760008060009054906101000a900473ffffffffffffffffffffffffffffffffffffffff169050816000806101000a81548173ffffffffffffffffffffffffffffffffffffffff021916908373ffffffffffffffffffffffffffffffffffffffff1602179055508173ffffffffffffffffffffffffffffffffffffffff168173ffffffffffffffffffffffffffffffffffffffff167f8be0079c531659141344cd1fd0a4f28419497f9722a3daafe3b4186f6b6457e060405160405180910390a3505b50565b60007f01ffc9a7000000000000000000000000000000000000000000000000000000007bffffffffffffffffffffffffffffffffffffffffffffffffffffffff1916827bffffffffffffffffffffffffffffffffffffffffffffffffffffffff1916149050919050565b806001600084815260200190815260200160002090816107809190611415565b50817fcdf4e344c0d23d4cdd0474039d176c55b19d531070dbe17856bfb993a5b5720b60405160405180910390a25050565b6000600182019050919050565b60606001600083815260200190815260200160002080546107df9061122e565b80601f016020809104026020016040519081016040528092919081815260200182805461080b9061122e565b80156108585780601f1061082d57610100808354040283529160200191610858565b820191906000526020600020905b81548152906001019060200180831161083b57829003601f168201915b50505050509050919050565b6000604051905090565b600080fd5b600080fd5b60007fffffffff0000000000000000000000000000000000000000000000000000000082169050919050565b6108ad81610878565b81146108b857600080fd5b50565b6000813590506108ca816108a4565b92915050565b6000602082840312156108e6576108e561086e565b5b60006108f4848285016108bb565b91505092915050565b60008115159050919050565b610912816108fd565b82525050565b600060208201905061092d6000830184610909565b92915050565b600080fd5b6000601f19601f8301169050919050565b7f4e487b7100000000000000000000000000000000000000000000000000000000600052604160045260246000fd5b61098182610938565b810181811067ffffffffffffffff821117156109a05761099f610949565b5b80604052505050565b60006109b3610864565b90506109bf8282610978565b919050565b600067ffffffffffffffff8211156109df576109de610949565b5b602082029050602081019050919050565b600080fd5b6000819050919050565b610a08816109f5565b8114610a1357600080fd5b50565b600081359050610a25816109ff565b92915050565b6000610a3e610a39846109c4565b6109a9565b90508083825260208201905060208402830185811115610a6157610a606109f0565b5b835b81811015610a8a5780610a768882610a16565b845260208401935050602081019050610a63565b5050509392505050565b600082601f830112610aa957610aa8610933565b5b8135610ab9848260208601610a2b565b91505092915050565b600067ffffffffffffffff821115610add57610adc610949565b5b602082029050602081019050919050565b600080fd5b600067ffffffffffffffff821115610b0e57610b0d610949565b5b610b1782610938565b9050602081019050919050565b82818337600083830152505050565b6000610b46610b4184610af3565b6109a9565b905082815260208101848484011115610b6257610b61610aee565b5b610b6d848285610b24565b509392505050565b600082601f830112610b8a57610b89610933565b5b8135610b9a848260208601610b33565b91505092915050565b6000610bb6610bb184610ac2565b6109a9565b90508083825260208201905060208402830185811115610bd957610bd86109f0565b5b835b81811015610c2057803567ffffffffffffffff811115610bfe57610bfd610933565b5b808601610c0b8982610b75565b85526020850194505050602081019050610bdb565b5050509392505050565b600082601f830112610c3f57610c3e610933565b5b8135610c4f848260208601610ba3565b91505092915050565b60008060408385031215610c6f57610c6e61086e565b5b600083013567ffffffffffffffff811115610c8d57610c8c610873565b5b610c9985828601610a94565b925050602083013567ffffffffffffffff811115610cba57610cb9610873565b5b610cc685828601610c2a565b9150509250929050565b600060208284031215610ce657610ce561086e565b5b600082013567ffffffffffffffff811115610d0457610d03610873565b5b610d1084828501610a94565b91505092915050565b600081519050919050565b600082825260208201905092915050565b6000819050602082019050919050565b600081519050919050565b600082825260208201905092915050565b60005b83811015610d7f578082015181840152602081019050610d64565b83811115610d8e576000848401525b50505050565b6000610d9f82610d45565b610da98185610d50565b9350610db9818560208601610d61565b610dc281610938565b840191505092915050565b6000610dd98383610d94565b905092915050565b6000602082019050919050565b6000610df982610d19565b610e038185610d24565b935083602082028501610e1585610d35565b8060005b85811015610e515784840389528151610e328582610dcd565b9450610e3d83610de1565b925060208a01995050600181019050610e19565b50829750879550505050505092915050565b60006020820190508181036000830152610e7d8184610dee565b905092915050565b600060208284031215610e9b57610e9a61086e565b5b6000610ea984828501610a16565b91505092915050565b600082825260208201905092915050565b6000610ece82610d45565b610ed88185610eb2565b9350610ee8818560208601610d61565b610ef181610938565b840191505092915050565b60006020820190508181036000830152610f168184610ec3565b905092915050565b60008060408385031215610f3557610f3461086e565b5b6000610f4385828601610a16565b925050602083013567ffffffffffffffff811115610f6457610f63610873565b5b610f7085828601610b75565b9150509250929050565b600073ffffffffffffffffffffffffffffffffffffffff82169050919050565b6000610fa582610f7a565b9050919050565b610fb581610f9a565b82525050565b6000602082019050610fd06000830184610fac565b92915050565b610fdf81610f9a565b8114610fea57600080fd5b50565b600081359050610ffc81610fd6565b92915050565b6000602082840312156110185761101761086e565b5b600061102684828501610fed565b91505092915050565b600082825260208201905092915050565b7f4f776e61626c653a2063616c6c6572206973206e6f7420746865206f776e6572600082015250565b600061107660208361102f565b915061108182611040565b602082019050919050565b600060208201905081810360008301526110a581611069565b9050919050565b7f4b657973206c656e677468206e6f7420657175616c20746f2076616c7565732060008201527f6c656e6774680000000000000000000000000000000000000000000000000000602082015250565b600061110860268361102f565b9150611113826110ac565b604082019050919050565b60006020820190508181036000830152611137816110fb565b9050919050565b7f4e487b7100000000000000000000000000000000000000000000000000000000600052603260045260246000fd5b7f4f776e61626c653a206e6577206f776e657220697320746865207a65726f206160008201527f6464726573730000000000000000000000000000000000000000000000000000602082015250565b60006111c960268361102f565b91506111d48261116d565b604082019050919050565b600060208201905081810360008301526111f8816111bc565b9050919050565b7f4e487b7100000000000000000000000000000000000000000000000000000000600052602260045260246000fd5b6000600282049050600182168061124657607f821691505b602082108103611259576112586111ff565b5b50919050565b60008190508160005260206000209050919050565b60006020601f8301049050919050565b600082821b905092915050565b6000600883026112c17fffffffffffffffffffffffffffffffffffffffffffffffffffffffffffffffff82611284565b6112cb8683611284565b95508019841693508086168417925050509392505050565b6000819050919050565b6000819050919050565b600061131261130d611308846112e3565b6112ed565b6112e3565b9050919050565b6000819050919050565b61132c836112f7565b61134061133882611319565b848454611291565b825550505050565b600090565b611355611348565b611360818484611323565b505050565b5b818110156113845761137960008261134d565b600181019050611366565b5050565b601f8211156113c95761139a8161125f565b6113a384611274565b810160208510156113b2578190505b6113c66113be85611274565b830182611365565b50505b505050565b600082821c905092915050565b60006113ec600019846008026113ce565b1980831691505092915050565b600061140583836113db565b9150826002028217905092915050565b61141e82610d45565b67ffffffffffffffff81111561143757611436610949565b5b611441825461122e565b61144c828285611388565b600060209050601f83116001811461147f576000841561146d578287015190505b61147785826113f9565b8655506114df565b601f19841661148d8661125f565b60005b828110156114b557848901518255600182019150602085019450602081019050611490565b868310156114d257848901516114ce601f8916826113db565b8355505b6001600288020188555050505b50505050505056fea2646970667358221220213b60b37d1bdd70a68ab913ab69afbbded5db0c0da8e5b19c3050d40e4fcc2764736f6c634300080f0033",
  "immutableReferences": {},
  "source": "// SPDX-License-Identifier: Apache-2.0\npragma solidity ^0.8.0;\n\n// modules\nimport {ERC165} from \"@openzeppelin/contracts/utils/introspection/ERC165.sol\";\nimport {OwnableUnset} from \"./custom/OwnableUnset.sol\";\nimport {ERC725YCore} from \"./ERC725YCore.sol\";\n\n/**\n * @title ERC725Y General data key/value store\n * @author Fabian Vogelsteller <fabian@lukso.network>\n * @dev Contract module which provides the ability to set arbitrary data key/value pairs that can be changed over time\n * It is intended to standardise certain data key/value pairs to allow automated read and writes\n * from/to the contract storage\n */\ncontract ERC725Y is ERC725YCore {\n    /**\n     * @notice Sets the owner of the contract\n     * @param newOwner the owner of the contract\n     */\n    constructor(address newOwner) {\n        OwnableUnset._setOwner(newOwner);\n    }\n}\n",
  "sourcePath": "@erc725/smart-contracts/contracts/ERC725Y.sol",
  "compiler": {
    "name": "solc",
    "version": "0.8.15+commit.e14f2714.Emscripten.clang"
  },
  "schemaVersion": "3.4.8",
  "updatedAt": "2022-07-27T13:31:58.502Z",
  "devdoc": {
    "author": "Fabian Vogelsteller <fabian@lukso.network>",
    "details": "Contract module which provides the ability to set arbitrary data key/value pairs that can be changed over time It is intended to standardise certain data key/value pairs to allow automated read and writes from/to the contract storage",
    "kind": "dev",
    "methods": {
      "constructor": {
        "params": {
          "newOwner": "the owner of the contract"
        }
      },
      "getData(bytes32)": {
        "params": {
          "dataKey": "The key which value to retrieve"
        },
        "returns": {
          "dataValue": "The data stored at the key"
        }
      },
      "getData(bytes32[])": {
        "params": {
          "dataKeys": "The array of keys which values to retrieve"
        },
        "returns": {
          "dataValues": "The array of data stored at multiple keys"
        }
      },
      "owner()": {
        "details": "Returns the address of the current owner."
      },
      "renounceOwnership()": {
        "details": "Leaves the contract without owner. It will not be possible to call `onlyOwner` functions anymore. Can only be called by the current owner. NOTE: Renouncing ownership will leave the contract without an owner, thereby removing any functionality that is only available to the owner."
      },
      "setData(bytes32,bytes)": {
        "params": {
          "dataKey": "The key which value to retrieve",
          "dataValue": "The value to set SHOULD only be callable by the owner of the contract set via ERC173 Emits a {DataChanged} event."
        }
      },
      "setData(bytes32[],bytes[])": {
        "details": "Sets array of data at multiple given `dataKeys` SHOULD only be callable by the owner of the contract set via ERC173 Emits a {DataChanged} event.",
        "params": {
          "dataKeys": "The array of keys which values to set",
          "dataValues": "The array of values to set"
        }
      },
      "supportsInterface(bytes4)": {
        "details": "See {IERC165-supportsInterface}."
      },
      "transferOwnership(address)": {
        "details": "Transfers ownership of the contract to a new account (`newOwner`). Can only be called by the current owner."
      }
    },
    "title": "ERC725Y General data key/value store",
    "version": 1
  },
  "userdoc": {
    "events": {
      "DataChanged(bytes32)": {
        "notice": "Emitted when data at a key is changed"
      }
    },
    "kind": "user",
    "methods": {
      "constructor": {
        "notice": "Sets the owner of the contract"
      },
      "getData(bytes32)": {
        "notice": "Gets singular data at a given `dataKey`"
      },
      "getData(bytes32[])": {
        "notice": "Gets array of data at multiple given keys"
      },
      "setData(bytes32,bytes)": {
        "notice": "Sets singular data at a given `dataKey`"
      }
    },
    "version": 1
  }
}