{
  "contractName": "LSP0ERC725Account",
  "abi": [
    {
      "inputs": [
        {
          "internalType": "address",
          "name": "_newOwner",
          "type": "address"
        }
      ],
      "stateMutability": "nonpayable",
      "type": "constructor"
    },
    {
      "anonymous": false,
      "inputs": [
        {
          "indexed": true,
          "internalType": "uint256",
          "name": "operation",
          "type": "uint256"
        },
        {
          "indexed": true,
          "internalType": "address",
          "name": "contractAddress",
          "type": "address"
        },
        {
          "indexed": true,
          "internalType": "uint256",
          "name": "value",
          "type": "uint256"
        }
      ],
      "name": "ContractCreated",
      "type": "event"
    },
    {
      "anonymous": false,
      "inputs": [
        {
          "indexed": true,
          "internalType": "bytes32",
          "name": "dataKey",
          "type": "bytes32"
        }
      ],
      "name": "DataChanged",
      "type": "event"
    },
    {
      "anonymous": false,
      "inputs": [
        {
          "indexed": true,
          "internalType": "uint256",
          "name": "operation",
          "type": "uint256"
        },
        {
          "indexed": true,
          "internalType": "address",
          "name": "to",
          "type": "address"
        },
        {
          "indexed": true,
          "internalType": "uint256",
          "name": "value",
          "type": "uint256"
        },
        {
          "indexed": false,
          "internalType": "bytes4",
          "name": "selector",
          "type": "bytes4"
        }
      ],
      "name": "Executed",
      "type": "event"
    },
    {
      "anonymous": false,
      "inputs": [
        {
          "indexed": true,
          "internalType": "address",
          "name": "previousOwner",
          "type": "address"
        },
        {
          "indexed": true,
          "internalType": "address",
          "name": "newOwner",
          "type": "address"
        }
      ],
      "name": "OwnershipTransferred",
      "type": "event"
    },
    {
      "anonymous": false,
      "inputs": [
        {
          "indexed": true,
          "internalType": "address",
          "name": "from",
          "type": "address"
        },
        {
          "indexed": false,
          "internalType": "uint256",
          "name": "value",
          "type": "uint256"
        },
        {
          "indexed": true,
          "internalType": "bytes32",
          "name": "typeId",
          "type": "bytes32"
        },
        {
          "indexed": true,
          "internalType": "bytes",
          "name": "returnedValue",
          "type": "bytes"
        },
        {
          "indexed": false,
          "internalType": "bytes",
          "name": "receivedData",
          "type": "bytes"
        }
      ],
      "name": "UniversalReceiver",
      "type": "event"
    },
    {
      "anonymous": false,
      "inputs": [
        {
          "indexed": true,
          "internalType": "address",
          "name": "sender",
          "type": "address"
        },
        {
          "indexed": true,
          "internalType": "uint256",
          "name": "value",
          "type": "uint256"
        }
      ],
      "name": "ValueReceived",
      "type": "event"
    },
    {
      "stateMutability": "payable",
      "type": "fallback",
      "payable": true
    },
    {
      "inputs": [],
      "name": "claimOwnership",
      "outputs": [],
      "stateMutability": "nonpayable",
      "type": "function"
    },
    {
      "inputs": [
        {
          "internalType": "uint256",
          "name": "operation",
          "type": "uint256"
        },
        {
          "internalType": "address",
          "name": "to",
          "type": "address"
        },
        {
          "internalType": "uint256",
          "name": "value",
          "type": "uint256"
        },
        {
          "internalType": "bytes",
          "name": "data",
          "type": "bytes"
        }
      ],
      "name": "execute",
      "outputs": [
        {
          "internalType": "bytes",
          "name": "result",
          "type": "bytes"
        }
      ],
      "stateMutability": "payable",
      "type": "function",
      "payable": true
    },
    {
      "inputs": [
        {
          "internalType": "bytes32[]",
          "name": "dataKeys",
          "type": "bytes32[]"
        }
      ],
      "name": "getData",
      "outputs": [
        {
          "internalType": "bytes[]",
          "name": "dataValues",
          "type": "bytes[]"
        }
      ],
      "stateMutability": "view",
      "type": "function",
      "constant": true
    },
    {
      "inputs": [
        {
          "internalType": "bytes32",
          "name": "dataKey",
          "type": "bytes32"
        }
      ],
      "name": "getData",
      "outputs": [
        {
          "internalType": "bytes",
          "name": "dataValue",
          "type": "bytes"
        }
      ],
      "stateMutability": "view",
      "type": "function",
      "constant": true
    },
    {
      "inputs": [
        {
          "internalType": "bytes32",
          "name": "_hash",
          "type": "bytes32"
        },
        {
          "internalType": "bytes",
          "name": "_signature",
          "type": "bytes"
        }
      ],
      "name": "isValidSignature",
      "outputs": [
        {
          "internalType": "bytes4",
          "name": "magicValue",
          "type": "bytes4"
        }
      ],
      "stateMutability": "view",
      "type": "function",
      "constant": true
    },
    {
      "inputs": [],
      "name": "owner",
      "outputs": [
        {
          "internalType": "address",
          "name": "",
          "type": "address"
        }
      ],
      "stateMutability": "view",
      "type": "function",
      "constant": true
    },
    {
      "inputs": [],
      "name": "pendingOwner",
      "outputs": [
        {
          "internalType": "address",
          "name": "",
          "type": "address"
        }
      ],
      "stateMutability": "view",
      "type": "function",
      "constant": true
    },
    {
      "inputs": [],
      "name": "renounceOwnership",
      "outputs": [],
      "stateMutability": "nonpayable",
      "type": "function"
    },
    {
      "inputs": [
        {
          "internalType": "bytes32[]",
          "name": "dataKeys",
          "type": "bytes32[]"
        },
        {
          "internalType": "bytes[]",
          "name": "dataValues",
          "type": "bytes[]"
        }
      ],
      "name": "setData",
      "outputs": [],
      "stateMutability": "nonpayable",
      "type": "function"
    },
    {
      "inputs": [
        {
          "internalType": "bytes32",
          "name": "dataKey",
          "type": "bytes32"
        },
        {
          "internalType": "bytes",
          "name": "dataValue",
          "type": "bytes"
        }
      ],
      "name": "setData",
      "outputs": [],
      "stateMutability": "nonpayable",
      "type": "function"
    },
    {
      "inputs": [
        {
          "internalType": "bytes4",
          "name": "interfaceId",
          "type": "bytes4"
        }
      ],
      "name": "supportsInterface",
      "outputs": [
        {
          "internalType": "bool",
          "name": "",
          "type": "bool"
        }
      ],
      "stateMutability": "view",
      "type": "function",
      "constant": true
    },
    {
      "inputs": [
        {
          "internalType": "address",
          "name": "_newOwner",
          "type": "address"
        }
      ],
      "name": "transferOwnership",
      "outputs": [],
      "stateMutability": "nonpayable",
      "type": "function"
    },
    {
      "inputs": [
        {
          "internalType": "bytes32",
          "name": "_typeId",
          "type": "bytes32"
        },
        {
          "internalType": "bytes",
          "name": "_data",
          "type": "bytes"
        }
      ],
      "name": "universalReceiver",
      "outputs": [
        {
          "internalType": "bytes",
          "name": "returnValue",
          "type": "bytes"
        }
      ],
      "stateMutability": "payable",
      "type": "function",
      "payable": true
    }
  ],
  "bytecode": "0x60806040523480156200001157600080fd5b5060405162003ef038038062003ef08339818101604052810190620000379190620001ef565b6200004d816200005460201b6200132d1760201c565b5062000221565b620000646200015c60201b60201c565b73ffffffffffffffffffffffffffffffffffffffff168173ffffffffffffffffffffffffffffffffffffffff1614620001595760008060009054906101000a900473ffffffffffffffffffffffffffffffffffffffff169050816000806101000a81548173ffffffffffffffffffffffffffffffffffffffff021916908373ffffffffffffffffffffffffffffffffffffffff1602179055508173ffffffffffffffffffffffffffffffffffffffff168173ffffffffffffffffffffffffffffffffffffffff167f8be0079c531659141344cd1fd0a4f28419497f9722a3daafe3b4186f6b6457e060405160405180910390a3505b50565b60008060009054906101000a900473ffffffffffffffffffffffffffffffffffffffff16905090565b600080fd5b600073ffffffffffffffffffffffffffffffffffffffff82169050919050565b6000620001b7826200018a565b9050919050565b620001c981620001aa565b8114620001d557600080fd5b50565b600081519050620001e981620001be565b92915050565b60006020828403121562000208576200020762000185565b5b60006200021884828501620001d8565b91505092915050565b613cbf80620002316000396000f3fe6080604052600436106100c65760003560e01c806354f6127f1161007f5780637f23690c116100595780637f23690c146102c25780638da5cb5b146102eb578063e30c397814610316578063f2fde38b14610341576100c7565b806354f6127f1461023e5780636bb56a141461027b578063715018a6146102ab576100c7565b806301ffc9a71461011757806314a6e293146101545780631626ba7e1461017d57806344c028fe146101ba5780634e3e6e9c146101ea5780634e71e0c814610227576100c7565b5b600034111561011557343373ffffffffffffffffffffffffffffffffffffffff167f7e71433ddf847725166244795048ecf3e3f9f35628254ecbf73605666423349360405160405180910390a35b005b34801561012357600080fd5b5061013e60048036038101906101399190612133565b61036a565b60405161014b919061217b565b60405180910390f35b34801561016057600080fd5b5061017b600480360381019061017691906124bb565b6104b8565b005b34801561018957600080fd5b506101a4600480360381019061019f9190612533565b6105d0565b6040516101b1919061259e565b60405180910390f35b6101d460048036038101906101cf91906126a8565b6106ff565b6040516101e191906127b8565b60405180910390f35b3480156101f657600080fd5b50610211600480360381019061020c91906127da565b610e31565b60405161021e919061292f565b60405180910390f35b34801561023357600080fd5b5061023c610ee7565b005b34801561024a57600080fd5b5061026560048036038101906102609190612951565b610fe6565b60405161027291906127b8565b60405180910390f35b6102956004803603810190610290919061297e565b610ff8565b6040516102a291906127b8565b60405180910390f35b3480156102b757600080fd5b506102c0611159565b005b3480156102ce57600080fd5b506102e960048036038101906102e49190612533565b6111da565b005b3480156102f757600080fd5b5061030061125d565b60405161030d91906129ed565b60405180910390f35b34801561032257600080fd5b5061032b611286565b60405161033891906129ed565b60405180910390f35b34801561034d57600080fd5b5061036860048036038101906103639190612a08565b6112ac565b005b6000631626ba7e60e01b7bffffffffffffffffffffffffffffffffffffffffffffffffffffffff1916827bffffffffffffffffffffffffffffffffffffffffffffffffffffffff191614806104035750639a3bfe8860e01b7bffffffffffffffffffffffffffffffffffffffffffffffffffffffff1916827bffffffffffffffffffffffffffffffffffffffffffffffffffffffff1916145b806104525750636bb56a1460e01b7bffffffffffffffffffffffffffffffffffffffffffffffffffffffff1916827bffffffffffffffffffffffffffffffffffffffffffffffffffffffff1916145b806104a1575063ad7dd9b060e01b7bffffffffffffffffffffffffffffffffffffffffffffffffffffffff1916827bffffffffffffffffffffffffffffffffffffffffffffffffffffffff1916145b806104b157506104b08261142c565b5b9050919050565b3373ffffffffffffffffffffffffffffffffffffffff166104d761125d565b73ffffffffffffffffffffffffffffffffffffffff161461052d576040517f08c379a000000000000000000000000000000000000000000000000000000000815260040161052490612a92565b60405180910390fd5b8051825114610571576040517f08c379a000000000000000000000000000000000000000000000000000000000815260040161056890612b24565b60405180910390fd5b60005b82518110156105cb576105bb83828151811061059357610592612b44565b5b60200260200101518383815181106105ae576105ad612b44565b5b602002602001015161148d565b6105c4816114df565b9050610574565b505050565b6000806105db61125d565b905060008173ffffffffffffffffffffffffffffffffffffffff163b146106a35761060d81631626ba7e60e01b6114ec565b61061e5763ffffffff60e01b61069b565b8073ffffffffffffffffffffffffffffffffffffffff16631626ba7e85856040518363ffffffff1660e01b8152600401610659929190612b82565b602060405180830381865afa158015610676573d6000803e3d6000fd5b505050506040513d601f19601f8201168201806040525081019061069a9190612bc7565b5b9150506106f9565b6106ad8484611617565b73ffffffffffffffffffffffffffffffffffffffff168173ffffffffffffffffffffffffffffffffffffffff16146106ec5763ffffffff60e01b6106f5565b631626ba7e60e01b5b9150505b92915050565b60603373ffffffffffffffffffffffffffffffffffffffff1661072061125d565b73ffffffffffffffffffffffffffffffffffffffff1614610776576040517f08c379a000000000000000000000000000000000000000000000000000000000815260040161076d90612a92565b60405180910390fd5b60005a90506000870361087957844710156107c6576040517f08c379a00000000000000000000000000000000000000000000000000000000081526004016107bd90612c66565b60405180910390fd5b610816868686868080601f016020809104026020016040519081016040528093929190818152602001838380828437600081840152601f19601f820116905080830192505050505050508461163e565b9150848673ffffffffffffffffffffffffffffffffffffffff16887f4810874456b8e6487bd861375cf6abd8e1c8bb5858c8ce36a86a04dabfac199e87879061085f9190612c9e565b60405161086c919061259e565b60405180910390a4610e27565b6003870361097657600085146108c4576040517f08c379a00000000000000000000000000000000000000000000000000000000081526004016108bb90612d6f565b60405180910390fd5b6109138685858080601f016020809104026020016040519081016040528093929190818152602001838380828437600081840152601f19601f82011690508083019250505050505050836116cf565b9150848673ffffffffffffffffffffffffffffffffffffffff16887f4810874456b8e6487bd861375cf6abd8e1c8bb5858c8ce36a86a04dabfac199e87879061095c9190612c9e565b604051610969919061259e565b60405180910390a4610e26565b60048703610a7357600085146109c1576040517f08c379a00000000000000000000000000000000000000000000000000000000081526004016109b890612e01565b60405180910390fd5b610a108685858080601f016020809104026020016040519081016040528093929190818152602001838380828437600081840152601f19601f820116905080830192505050505050508361175c565b9150848673ffffffffffffffffffffffffffffffffffffffff16887f4810874456b8e6487bd861375cf6abd8e1c8bb5858c8ce36a86a04dabfac199e878790610a599190612c9e565b604051610a66919061259e565b60405180910390a4610e25565b60018703610bec57600073ffffffffffffffffffffffffffffffffffffffff168673ffffffffffffffffffffffffffffffffffffffff1614610aea576040517f08c379a0000000000000000000000000000000000000000000000000000000008152600401610ae190612eb9565b60405180910390fd5b84471015610b2d576040517f08c379a0000000000000000000000000000000000000000000000000000000008152600401610b2490612c66565b60405180910390fd5b6000610b7d8686868080601f016020809104026020016040519081016040528093929190818152602001838380828437600081840152601f19601f820116905080830192505050505050506117e9565b905080604051602001610b909190612f21565b6040516020818303038152906040529250858173ffffffffffffffffffffffffffffffffffffffff16897f01c42bd7e97a66166063b02fce6924e6656b6c2c61966630165095c4fb0b7b2f60405160405180910390a450610e24565b60028703610de857600073ffffffffffffffffffffffffffffffffffffffff168673ffffffffffffffffffffffffffffffffffffffff1614610c63576040517f08c379a0000000000000000000000000000000000000000000000000000000008152600401610c5a90612eb9565b60405180910390fd5b84471015610ca6576040517f08c379a0000000000000000000000000000000000000000000000000000000008152600401610c9d90612c66565b60405180910390fd5b6000610d0585858080601f016020809104026020016040519081016040528093929190818152602001838380828437600081840152601f19601f82011690508083019250505050505050602087879050610d009190612f6b565b6118ad565b90506000610d6886868080601f016020809104026020016040519081016040528093929190818152602001838380828437600081840152601f19601f820116905080830192505050505050506000602089899050610d639190612f6b565b611914565b90506000610d77888484611a32565b905080604051602001610d8a9190612f21565b6040516020818303038152906040529450878173ffffffffffffffffffffffffffffffffffffffff168b7f01c42bd7e97a66166063b02fce6924e6656b6c2c61966630165095c4fb0b7b2f60405160405180910390a4505050610e23565b6040517f08c379a0000000000000000000000000000000000000000000000000000000008152600401610e1a90612feb565b60405180910390fd5b5b5b5b5b5095945050505050565b6060815167ffffffffffffffff811115610e4e57610e4d6121ac565b5b604051908082528060200260200182016040528015610e8157816020015b6060815260200190600190039081610e6c5790505b50905060005b8251811015610ee157610eb3838281518110610ea657610ea5612b44565b5b6020026020010151611b41565b828281518110610ec657610ec5612b44565b5b6020026020010181905250610eda816114df565b9050610e87565b50919050565b600260009054906101000a900473ffffffffffffffffffffffffffffffffffffffff1673ffffffffffffffffffffffffffffffffffffffff163373ffffffffffffffffffffffffffffffffffffffff1614610f77576040517f08c379a0000000000000000000000000000000000000000000000000000000008152600401610f6e9061307d565b60405180910390fd5b610fa2600260009054906101000a900473ffffffffffffffffffffffffffffffffffffffff1661132d565b6000600260006101000a81548173ffffffffffffffffffffffffffffffffffffffff021916908373ffffffffffffffffffffffffffffffffffffffff160217905550565b6060610ff182611b41565b9050919050565b606060006110287f0cfc51aec37c55a4d0b1a65c6255c4bf2fbdf6277f3cc0730c45b828b6db8b4760001b611b41565b905060148151106110e85760008161103f906130ee565b60601c90506110558163a245bbda60e01b6114ec565b156110e6578073ffffffffffffffffffffffffffffffffffffffff1663a245bbda33348989896040518663ffffffff1660e01b815260040161109b959493929190613191565b6000604051808303816000875af11580156110ba573d6000803e3d6000fd5b505050506040513d6000823e3d601f19601f820116820180604052508101906110e3919061324f565b92505b505b816040516110f691906132d4565b6040518091039020853373ffffffffffffffffffffffffffffffffffffffff167f9c3ba68eb5742b8e3961aea0afc7371a71bf433c8a67a831803b64c064a178c2348888604051611149939291906132eb565b60405180910390a4509392505050565b3373ffffffffffffffffffffffffffffffffffffffff1661117861125d565b73ffffffffffffffffffffffffffffffffffffffff16146111ce576040517f08c379a00000000000000000000000000000000000000000000000000000000081526004016111c590612a92565b60405180910390fd5b6111d8600061132d565b565b3373ffffffffffffffffffffffffffffffffffffffff166111f961125d565b73ffffffffffffffffffffffffffffffffffffffff161461124f576040517f08c379a000000000000000000000000000000000000000000000000000000000815260040161124690612a92565b60405180910390fd5b611259828261148d565b5050565b60008060009054906101000a900473ffffffffffffffffffffffffffffffffffffffff16905090565b600260009054906101000a900473ffffffffffffffffffffffffffffffffffffffff1681565b3373ffffffffffffffffffffffffffffffffffffffff166112cb61125d565b73ffffffffffffffffffffffffffffffffffffffff1614611321576040517f08c379a000000000000000000000000000000000000000000000000000000000815260040161131890612a92565b60405180910390fd5b61132a81611be6565b50565b61133561125d565b73ffffffffffffffffffffffffffffffffffffffff168173ffffffffffffffffffffffffffffffffffffffff16146114295760008060009054906101000a900473ffffffffffffffffffffffffffffffffffffffff169050816000806101000a81548173ffffffffffffffffffffffffffffffffffffffff021916908373ffffffffffffffffffffffffffffffffffffffff1602179055508173ffffffffffffffffffffffffffffffffffffffff168173ffffffffffffffffffffffffffffffffffffffff167f8be0079c531659141344cd1fd0a4f28419497f9722a3daafe3b4186f6b6457e060405160405180910390a3505b50565b600063714df77c60e01b7bffffffffffffffffffffffffffffffffffffffffffffffffffffffff1916827bffffffffffffffffffffffffffffffffffffffffffffffffffffffff19161480611486575061148582611c2a565b5b9050919050565b806001600084815260200190815260200160002090816114ad919061351c565b50817fcdf4e344c0d23d4cdd0474039d176c55b19d531070dbe17856bfb993a5b5720b60405160405180910390a25050565b6000600182019050919050565b6000806301ffc9a760e01b83604051602401611508919061259e565b604051602081830303815290604052907bffffffffffffffffffffffffffffffffffffffffffffffffffffffff19166020820180517bffffffffffffffffffffffffffffffffffffffffffffffffffffffff838183161783525050505090506000808573ffffffffffffffffffffffffffffffffffffffff166175308460405161159291906132d4565b6000604051808303818686fa925050503d80600081146115ce576040519150601f19603f3d011682016040523d82523d6000602084013e6115d3565b606091505b50915091506020815110156115ee5760009350505050611611565b81801561160b57508080602001905181019061160a919061361a565b5b93505050505b92915050565b60008060006116268585611c8b565b9150915061163381611d0c565b819250505092915050565b60606000808673ffffffffffffffffffffffffffffffffffffffff1684878760405161166a91906132d4565b600060405180830381858888f193505050503d80600081146116a8576040519150601f19603f3d011682016040523d82523d6000602084013e6116ad565b606091505b5091509150816116c2576116c081611ed8565b505b8092505050949350505050565b60606000808573ffffffffffffffffffffffffffffffffffffffff1684866040516116fa91906132d4565b6000604051808303818686fa925050503d8060008114611736576040519150601f19603f3d011682016040523d82523d6000602084013e61173b565b606091505b5091509150816117505761174e81611ed8565b505b80925050509392505050565b60606000808573ffffffffffffffffffffffffffffffffffffffff16848660405161178791906132d4565b6000604051808303818686f4925050503d80600081146117c3576040519150601f19603f3d011682016040523d82523d6000602084013e6117c8565b606091505b5091509150816117dd576117db81611ed8565b505b80925050509392505050565b60008082510361182e576040517f08c379a000000000000000000000000000000000000000000000000000000000815260040161182590613693565b60405180910390fd5b81516020830184f09050600073ffffffffffffffffffffffffffffffffffffffff168173ffffffffffffffffffffffffffffffffffffffff16036118a7576040517f08c379a000000000000000000000000000000000000000000000000000000000815260040161189e906136ff565b60405180910390fd5b92915050565b60006020826118bc919061371f565b835110156118ff576040517f08c379a00000000000000000000000000000000000000000000000000000000081526004016118f6906137c1565b60405180910390fd5b60008260208501015190508091505092915050565b606081601f83611924919061371f565b1015611965576040517f08c379a000000000000000000000000000000000000000000000000000000000815260040161195c9061382d565b60405180910390fd5b8183611971919061371f565b845110156119b4576040517f08c379a00000000000000000000000000000000000000000000000000000000081526004016119ab90613899565b60405180910390fd5b60608215600081146119d55760405191506000825260208201604052611a26565b6040519150601f8416801560200281840101858101878315602002848b0101015b81831015611a1357805183526020830192506020810190506119f6565b50868552601f19601f8301166040525050505b50809150509392505050565b60008084471015611a78576040517f08c379a0000000000000000000000000000000000000000000000000000000008152600401611a6f90613905565b60405180910390fd5b6000835103611abc576040517f08c379a0000000000000000000000000000000000000000000000000000000008152600401611ab390613971565b60405180910390fd5b8383516020850187f59050600073ffffffffffffffffffffffffffffffffffffffff168173ffffffffffffffffffffffffffffffffffffffff1603611b36576040517f08c379a0000000000000000000000000000000000000000000000000000000008152600401611b2d906139dd565b60405180910390fd5b809150509392505050565b6060600160008381526020019081526020016000208054611b619061334c565b80601f0160208091040260200160405190810160405280929190818152602001828054611b8d9061334c565b8015611bda5780601f10611baf57610100808354040283529160200191611bda565b820191906000526020600020905b815481529060010190602001808311611bbd57829003601f168201915b50505050509050919050565b80600260006101000a81548173ffffffffffffffffffffffffffffffffffffffff021916908373ffffffffffffffffffffffffffffffffffffffff16021790555050565b60006344c028fe60e01b7bffffffffffffffffffffffffffffffffffffffffffffffffffffffff1916827bffffffffffffffffffffffffffffffffffffffffffffffffffffffff19161480611c845750611c8382611ef2565b5b9050919050565b6000806041835103611ccc5760008060006020860151925060408601519150606086015160001a9050611cc087828585611f5c565b94509450505050611d05565b6040835103611cfc576000806020850151915060408501519050611cf1868383612068565b935093505050611d05565b60006002915091505b9250929050565b60006004811115611d2057611d1f6139fd565b5b816004811115611d3357611d326139fd565b5b0315611ed55760016004811115611d4d57611d4c6139fd565b5b816004811115611d6057611d5f6139fd565b5b03611da0576040517f08c379a0000000000000000000000000000000000000000000000000000000008152600401611d9790613a78565b60405180910390fd5b60026004811115611db457611db36139fd565b5b816004811115611dc757611dc66139fd565b5b03611e07576040517f08c379a0000000000000000000000000000000000000000000000000000000008152600401611dfe90613ae4565b60405180910390fd5b60036004811115611e1b57611e1a6139fd565b5b816004811115611e2e57611e2d6139fd565b5b03611e6e576040517f08c379a0000000000000000000000000000000000000000000000000000000008152600401611e6590613b76565b60405180910390fd5b600480811115611e8157611e806139fd565b5b816004811115611e9457611e936139fd565b5b03611ed4576040517f08c379a0000000000000000000000000000000000000000000000000000000008152600401611ecb90613c08565b60405180910390fd5b5b50565b6060600082511115611eed5781518083602001fd5b600080fd5b60007f01ffc9a7000000000000000000000000000000000000000000000000000000007bffffffffffffffffffffffffffffffffffffffffffffffffffffffff1916827bffffffffffffffffffffffffffffffffffffffffffffffffffffffff1916149050919050565b6000807f7fffffffffffffffffffffffffffffff5d576e7357a4501ddfe92f46681b20a08360001c1115611f9757600060039150915061205f565b601b8560ff1614158015611faf5750601c8560ff1614155b15611fc157600060049150915061205f565b600060018787878760405160008152602001604052604051611fe69493929190613c44565b6020604051602081039080840390855afa158015612008573d6000803e3d6000fd5b505050602060405103519050600073ffffffffffffffffffffffffffffffffffffffff168173ffffffffffffffffffffffffffffffffffffffff16036120565760006001925092505061205f565b80600092509250505b94509492505050565b60008060007f7fffffffffffffffffffffffffffffffffffffffffffffffffffffffffffffff60001b841690506000601b60ff8660001c901c6120ab919061371f565b90506120b987828885611f5c565b935093505050935093915050565b6000604051905090565b600080fd5b600080fd5b60007fffffffff0000000000000000000000000000000000000000000000000000000082169050919050565b612110816120db565b811461211b57600080fd5b50565b60008135905061212d81612107565b92915050565b600060208284031215612149576121486120d1565b5b60006121578482850161211e565b91505092915050565b60008115159050919050565b61217581612160565b82525050565b6000602082019050612190600083018461216c565b92915050565b600080fd5b6000601f19601f8301169050919050565b7f4e487b7100000000000000000000000000000000000000000000000000000000600052604160045260246000fd5b6121e48261219b565b810181811067ffffffffffffffff82111715612203576122026121ac565b5b80604052505050565b60006122166120c7565b905061222282826121db565b919050565b600067ffffffffffffffff821115612242576122416121ac565b5b602082029050602081019050919050565b600080fd5b6000819050919050565b61226b81612258565b811461227657600080fd5b50565b60008135905061228881612262565b92915050565b60006122a161229c84612227565b61220c565b905080838252602082019050602084028301858111156122c4576122c3612253565b5b835b818110156122ed57806122d98882612279565b8452602084019350506020810190506122c6565b5050509392505050565b600082601f83011261230c5761230b612196565b5b813561231c84826020860161228e565b91505092915050565b600067ffffffffffffffff8211156123405761233f6121ac565b5b602082029050602081019050919050565b600080fd5b600067ffffffffffffffff821115612371576123706121ac565b5b61237a8261219b565b9050602081019050919050565b82818337600083830152505050565b60006123a96123a484612356565b61220c565b9050828152602081018484840111156123c5576123c4612351565b5b6123d0848285612387565b509392505050565b600082601f8301126123ed576123ec612196565b5b81356123fd848260208601612396565b91505092915050565b600061241961241484612325565b61220c565b9050808382526020820190506020840283018581111561243c5761243b612253565b5b835b8181101561248357803567ffffffffffffffff81111561246157612460612196565b5b80860161246e89826123d8565b8552602085019450505060208101905061243e565b5050509392505050565b600082601f8301126124a2576124a1612196565b5b81356124b2848260208601612406565b91505092915050565b600080604083850312156124d2576124d16120d1565b5b600083013567ffffffffffffffff8111156124f0576124ef6120d6565b5b6124fc858286016122f7565b925050602083013567ffffffffffffffff81111561251d5761251c6120d6565b5b6125298582860161248d565b9150509250929050565b6000806040838503121561254a576125496120d1565b5b600061255885828601612279565b925050602083013567ffffffffffffffff811115612579576125786120d6565b5b612585858286016123d8565b9150509250929050565b612598816120db565b82525050565b60006020820190506125b3600083018461258f565b92915050565b6000819050919050565b6125cc816125b9565b81146125d757600080fd5b50565b6000813590506125e9816125c3565b92915050565b600073ffffffffffffffffffffffffffffffffffffffff82169050919050565b600061261a826125ef565b9050919050565b61262a8161260f565b811461263557600080fd5b50565b60008135905061264781612621565b92915050565b600080fd5b60008083601f84011261266857612667612196565b5b8235905067ffffffffffffffff8111156126855761268461264d565b5b6020830191508360018202830111156126a1576126a0612253565b5b9250929050565b6000806000806000608086880312156126c4576126c36120d1565b5b60006126d2888289016125da565b95505060206126e388828901612638565b94505060406126f4888289016125da565b935050606086013567ffffffffffffffff811115612715576127146120d6565b5b61272188828901612652565b92509250509295509295909350565b600081519050919050565b600082825260208201905092915050565b60005b8381101561276a57808201518184015260208101905061274f565b83811115612779576000848401525b50505050565b600061278a82612730565b612794818561273b565b93506127a481856020860161274c565b6127ad8161219b565b840191505092915050565b600060208201905081810360008301526127d2818461277f565b905092915050565b6000602082840312156127f0576127ef6120d1565b5b600082013567ffffffffffffffff81111561280e5761280d6120d6565b5b61281a848285016122f7565b91505092915050565b600081519050919050565b600082825260208201905092915050565b6000819050602082019050919050565b600082825260208201905092915050565b600061286b82612730565b612875818561284f565b935061288581856020860161274c565b61288e8161219b565b840191505092915050565b60006128a58383612860565b905092915050565b6000602082019050919050565b60006128c582612823565b6128cf818561282e565b9350836020820285016128e18561283f565b8060005b8581101561291d57848403895281516128fe8582612899565b9450612909836128ad565b925060208a019950506001810190506128e5565b50829750879550505050505092915050565b6000602082019050818103600083015261294981846128ba565b905092915050565b600060208284031215612967576129666120d1565b5b600061297584828501612279565b91505092915050565b600080600060408486031215612997576129966120d1565b5b60006129a586828701612279565b935050602084013567ffffffffffffffff8111156129c6576129c56120d6565b5b6129d286828701612652565b92509250509250925092565b6129e78161260f565b82525050565b6000602082019050612a0260008301846129de565b92915050565b600060208284031215612a1e57612a1d6120d1565b5b6000612a2c84828501612638565b91505092915050565b600082825260208201905092915050565b7f4f776e61626c653a2063616c6c6572206973206e6f7420746865206f776e6572600082015250565b6000612a7c602083612a35565b9150612a8782612a46565b602082019050919050565b60006020820190508181036000830152612aab81612a6f565b9050919050565b7f4b657973206c656e677468206e6f7420657175616c20746f2076616c7565732060008201527f6c656e6774680000000000000000000000000000000000000000000000000000602082015250565b6000612b0e602683612a35565b9150612b1982612ab2565b604082019050919050565b60006020820190508181036000830152612b3d81612b01565b9050919050565b7f4e487b7100000000000000000000000000000000000000000000000000000000600052603260045260246000fd5b612b7c81612258565b82525050565b6000604082019050612b976000830185612b73565b8181036020830152612ba9818461277f565b90509392505050565b600081519050612bc181612107565b92915050565b600060208284031215612bdd57612bdc6120d1565b5b6000612beb84828501612bb2565b91505092915050565b7f455243373235583a20696e73756666696369656e742062616c616e636520666f60008201527f722063616c6c0000000000000000000000000000000000000000000000000000602082015250565b6000612c50602683612a35565b9150612c5b82612bf4565b604082019050919050565b60006020820190508181036000830152612c7f81612c43565b9050919050565b600082905092915050565b600082821b905092915050565b6000612caa8383612c86565b82612cb581356120db565b92506004821015612cf557612cf07fffffffff0000000000000000000000000000000000000000000000000000000083600403600802612c91565b831692505b505092915050565b7f455243373235583a2063616e6e6f74207472616e736665722076616c7565207760008201527f697468206f7065726174696f6e2053544154494343414c4c0000000000000000602082015250565b6000612d59603883612a35565b9150612d6482612cfd565b604082019050919050565b60006020820190508181036000830152612d8881612d4c565b9050919050565b7f455243373235583a2063616e6e6f74207472616e736665722076616c7565207760008201527f697468206f7065726174696f6e2044454c454741544543414c4c000000000000602082015250565b6000612deb603a83612a35565b9150612df682612d8f565b604082019050919050565b60006020820190508181036000830152612e1a81612dde565b9050919050565b7f455243373235583a20435245415445206f7065726174696f6e7320726571756960008201527f726520746865207265636569766572206164647265737320746f20626520656d60208201527f7074790000000000000000000000000000000000000000000000000000000000604082015250565b6000612ea3604383612a35565b9150612eae82612e21565b606082019050919050565b60006020820190508181036000830152612ed281612e96565b9050919050565b60008160601b9050919050565b6000612ef182612ed9565b9050919050565b6000612f0382612ee6565b9050919050565b612f1b612f168261260f565b612ef8565b82525050565b6000612f2d8284612f0a565b60148201915081905092915050565b7f4e487b7100000000000000000000000000000000000000000000000000000000600052601160045260246000fd5b6000612f76826125b9565b9150612f81836125b9565b925082821015612f9457612f93612f3c565b5b828203905092915050565b7f57726f6e67206f7065726174696f6e2074797065000000000000000000000000600082015250565b6000612fd5601483612a35565b9150612fe082612f9f565b602082019050919050565b6000602082019050818103600083015261300481612fc8565b9050919050565b7f4f776e61626c65436c61696d3a2063616c6c6572206973206e6f74207468652060008201527f70656e64696e674f776e65720000000000000000000000000000000000000000602082015250565b6000613067602c83612a35565b91506130728261300b565b604082019050919050565b600060208201905081810360008301526130968161305a565b9050919050565b6000819050602082019050919050565b60007fffffffffffffffffffffffffffffffffffffffff00000000000000000000000082169050919050565b60006130e582516130ad565b80915050919050565b60006130f982612730565b826131038461309d565b905061310e816130d9565b9250601482101561314e576131497fffffffffffffffffffffffffffffffffffffffff00000000000000000000000083601403600802612c91565b831692505b5050919050565b61315e816125b9565b82525050565b6000613170838561273b565b935061317d838584612387565b6131868361219b565b840190509392505050565b60006080820190506131a660008301886129de565b6131b36020830187613155565b6131c06040830186612b73565b81810360608301526131d3818486613164565b90509695505050505050565b60006131f26131ed84612356565b61220c565b90508281526020810184848401111561320e5761320d612351565b5b61321984828561274c565b509392505050565b600082601f83011261323657613235612196565b5b81516132468482602086016131df565b91505092915050565b600060208284031215613265576132646120d1565b5b600082015167ffffffffffffffff811115613283576132826120d6565b5b61328f84828501613221565b91505092915050565b600081905092915050565b60006132ae82612730565b6132b88185613298565b93506132c881856020860161274c565b80840191505092915050565b60006132e082846132a3565b915081905092915050565b60006040820190506133006000830186613155565b8181036020830152613313818486613164565b9050949350505050565b7f4e487b7100000000000000000000000000000000000000000000000000000000600052602260045260246000fd5b6000600282049050600182168061336457607f821691505b6020821081036133775761337661331d565b5b50919050565b60008190508160005260206000209050919050565b60006020601f8301049050919050565b6000600883026133d27fffffffffffffffffffffffffffffffffffffffffffffffffffffffffffffffff82612c91565b6133dc8683612c91565b95508019841693508086168417925050509392505050565b6000819050919050565b600061341961341461340f846125b9565b6133f4565b6125b9565b9050919050565b6000819050919050565b613433836133fe565b61344761343f82613420565b8484546133a2565b825550505050565b600090565b61345c61344f565b61346781848461342a565b505050565b5b8181101561348b57613480600082613454565b60018101905061346d565b5050565b601f8211156134d0576134a18161337d565b6134aa84613392565b810160208510156134b9578190505b6134cd6134c585613392565b83018261346c565b50505b505050565b600082821c905092915050565b60006134f3600019846008026134d5565b1980831691505092915050565b600061350c83836134e2565b9150826002028217905092915050565b61352582612730565b67ffffffffffffffff81111561353e5761353d6121ac565b5b613548825461334c565b61355382828561348f565b600060209050601f8311600181146135865760008415613574578287015190505b61357e8582613500565b8655506135e6565b601f1984166135948661337d565b60005b828110156135bc57848901518255600182019150602085019450602081019050613597565b868310156135d957848901516135d5601f8916826134e2565b8355505b6001600288020188555050505b505050505050565b6135f781612160565b811461360257600080fd5b50565b600081519050613614816135ee565b92915050565b6000602082840312156136305761362f6120d1565b5b600061363e84828501613605565b91505092915050565b7f6e6f20636f6e74726163742062797465636f64652070726f7669646564000000600082015250565b600061367d601d83612a35565b915061368882613647565b602082019050919050565b600060208201905081810360008301526136ac81613670565b9050919050565b7f436f756c64206e6f74206465706c6f7920636f6e747261637400000000000000600082015250565b60006136e9601983612a35565b91506136f4826136b3565b602082019050919050565b60006020820190508181036000830152613718816136dc565b9050919050565b600061372a826125b9565b9150613735836125b9565b9250827fffffffffffffffffffffffffffffffffffffffffffffffffffffffffffffffff0382111561376a57613769612f3c565b5b828201905092915050565b7f746f427974657333325f6f75744f66426f756e64730000000000000000000000600082015250565b60006137ab601583612a35565b91506137b682613775565b602082019050919050565b600060208201905081810360008301526137da8161379e565b9050919050565b7f736c6963655f6f766572666c6f77000000000000000000000000000000000000600082015250565b6000613817600e83612a35565b9150613822826137e1565b602082019050919050565b600060208201905081810360008301526138468161380a565b9050919050565b7f736c6963655f6f75744f66426f756e6473000000000000000000000000000000600082015250565b6000613883601183612a35565b915061388e8261384d565b602082019050919050565b600060208201905081810360008301526138b281613876565b9050919050565b7f437265617465323a20696e73756666696369656e742062616c616e6365000000600082015250565b60006138ef601d83612a35565b91506138fa826138b9565b602082019050919050565b6000602082019050818103600083015261391e816138e2565b9050919050565b7f437265617465323a2062797465636f6465206c656e677468206973207a65726f600082015250565b600061395b602083612a35565b915061396682613925565b602082019050919050565b6000602082019050818103600083015261398a8161394e565b9050919050565b7f437265617465323a204661696c6564206f6e206465706c6f7900000000000000600082015250565b60006139c7601983612a35565b91506139d282613991565b602082019050919050565b600060208201905081810360008301526139f6816139ba565b9050919050565b7f4e487b7100000000000000000000000000000000000000000000000000000000600052602160045260246000fd5b7f45434453413a20696e76616c6964207369676e61747572650000000000000000600082015250565b6000613a62601883612a35565b9150613a6d82613a2c565b602082019050919050565b60006020820190508181036000830152613a9181613a55565b9050919050565b7f45434453413a20696e76616c6964207369676e6174757265206c656e67746800600082015250565b6000613ace601f83612a35565b9150613ad982613a98565b602082019050919050565b60006020820190508181036000830152613afd81613ac1565b9050919050565b7f45434453413a20696e76616c6964207369676e6174757265202773272076616c60008201527f7565000000000000000000000000000000000000000000000000000000000000602082015250565b6000613b60602283612a35565b9150613b6b82613b04565b604082019050919050565b60006020820190508181036000830152613b8f81613b53565b9050919050565b7f45434453413a20696e76616c6964207369676e6174757265202776272076616c60008201527f7565000000000000000000000000000000000000000000000000000000000000602082015250565b6000613bf2602283612a35565b9150613bfd82613b96565b604082019050919050565b60006020820190508181036000830152613c2181613be5565b9050919050565b600060ff82169050919050565b613c3e81613c28565b82525050565b6000608082019050613c596000830187612b73565b613c666020830186613c35565b613c736040830185612b73565b613c806060830184612b73565b9594505050505056fea2646970667358221220d915471e367d23acd167f6ce8f6067728964d78e88531dd15669e0546f3c582864736f6c634300080f0033",
  "immutableReferences": {},
  "source": "// SPDX-License-Identifier: Apache-2.0\npragma solidity ^0.8.0;\n\n// modules\nimport {LSP0ERC725AccountCore} from \"./LSP0ERC725AccountCore.sol\";\nimport {OwnableUnset} from \"@erc725/smart-contracts/contracts/custom/OwnableUnset.sol\";\n\n/**\n * @title Implementation of ERC725Account\n * @author Fabian Vogelsteller <fabian@lukso.network>, Jean Cavallera (CJ42), Yamen Merhi (YamenMerhi)\n * @dev Bundles ERC725X and ERC725Y, ERC1271 and LSP1UniversalReceiver and allows receiving native tokens\n */\ncontract LSP0ERC725Account is LSP0ERC725AccountCore {\n    /**\n     * @notice Sets the owner of the contract\n     * @param _newOwner the owner of the contract\n     */\n    constructor(address _newOwner) {\n        OwnableUnset._setOwner(_newOwner);\n    }\n}\n",
  "sourcePath": "@lukso/lsp-smart-contracts/contracts/LSP0ERC725Account/LSP0ERC725Account.sol",
  "compiler": {
    "name": "solc",
    "version": "0.8.15+commit.e14f2714.Emscripten.clang"
  },
  "schemaVersion": "3.4.8",
  "updatedAt": "2022-07-27T15:35:25.111Z",
  "networkType": "ethereum",
  "devdoc": {
    "author": "Fabian Vogelsteller <fabian@lukso.network>, Jean Cavallera (CJ42), Yamen Merhi (YamenMerhi)",
    "details": "Bundles ERC725X and ERC725Y, ERC1271 and LSP1UniversalReceiver and allows receiving native tokens",
    "kind": "dev",
    "methods": {
      "constructor": {
        "params": {
          "_newOwner": "the owner of the contract"
        }
      },
      "execute(uint256,address,uint256,bytes)": {
        "details": "Executes any other smart contract. SHOULD only be callable by the owner of the contract set via ERC173 Emits a {Executed} event, when a call is executed under `operationType` 0, 3 and 4 Emits a {ContractCreated} event, when a contract is created under `operationType` 1 and 2",
        "params": {
          "data": "The call data, or the bytecode of the contract to deploy",
          "operationType": "The operation to execute: CALL = 0 CREATE = 1 CREATE2 = 2 STATICCALL = 3 DELEGATECALL = 4",
          "to": "The smart contract or address to interact with, `to` will be unused if a contract is created (operation 1 and 2)",
          "value": "The amount of native tokens to transfer (in Wei)."
        }
      },
      "getData(bytes32)": {
        "params": {
          "dataKey": "The key which value to retrieve"
        },
        "returns": {
          "dataValue": "The data stored at the key"
        }
      },
      "getData(bytes32[])": {
        "params": {
          "dataKeys": "The array of keys which values to retrieve"
        },
        "returns": {
          "dataValues": "The array of data stored at multiple keys"
        }
      },
      "isValidSignature(bytes32,bytes)": {
        "params": {
          "_hash": "hash of the data signed//Arbitrary length data signed on the behalf of address(this)",
          "_signature": "owner's signature(s) of the data"
        }
      },
      "owner()": {
        "details": "Returns the address of the current owner."
      },
      "renounceOwnership()": {
        "details": "Leaves the contract without owner. It will not be possible to call `onlyOwner` functions anymore. Can only be called by the current owner. NOTE: Renouncing ownership will leave the contract without an owner, thereby removing any functionality that is only available to the owner."
      },
      "setData(bytes32,bytes)": {
        "params": {
          "dataKey": "The key which value to retrieve",
          "dataValue": "The value to set SHOULD only be callable by the owner of the contract set via ERC173 Emits a {DataChanged} event."
        }
      },
      "setData(bytes32[],bytes[])": {
        "details": "Sets array of data at multiple given `dataKeys` SHOULD only be callable by the owner of the contract set via ERC173 Emits a {DataChanged} event.",
        "params": {
          "dataKeys": "The array of keys which values to set",
          "dataValues": "The array of values to set"
        }
      },
      "supportsInterface(bytes4)": {
        "details": "See {IERC165-supportsInterface}."
      },
      "transferOwnership(address)": {
        "details": "Sets the pending owner"
      },
      "universalReceiver(bytes32,bytes)": {
        "details": "Forwards the call to the UniversalReceiverDelegate if set.",
        "params": {
          "_data": "The data received.",
          "_typeId": "The type of call received."
        }
      }
    },
    "title": "Implementation of ERC725Account",
    "version": 1
  },
  "userdoc": {
    "events": {
      "ContractCreated(uint256,address,uint256)": {
        "notice": "Emitted when a contract is created"
      },
      "DataChanged(bytes32)": {
        "notice": "Emitted when data at a key is changed"
      },
      "Executed(uint256,address,uint256,bytes4)": {
        "notice": "Emitted when a contract executed."
      },
      "UniversalReceiver(address,uint256,bytes32,bytes,bytes)": {
        "notice": "Emitted when the universalReceiver function is succesfully executed"
      },
      "ValueReceived(address,uint256)": {
        "notice": "Emitted when receiving native tokens"
      }
    },
    "kind": "user",
    "methods": {
      "constructor": {
        "notice": "Sets the owner of the contract"
      },
      "getData(bytes32)": {
        "notice": "Gets singular data at a given `dataKey`"
      },
      "getData(bytes32[])": {
        "notice": "Gets array of data at multiple given keys"
      },
      "isValidSignature(bytes32,bytes)": {
        "notice": "Checks if an owner signed `_data`. ERC1271 interface."
      },
      "setData(bytes32,bytes)": {
        "notice": "Sets singular data at a given `dataKey`"
      },
      "universalReceiver(bytes32,bytes)": {
        "notice": "Triggers the UniversalReceiver event when this function gets executed successfully."
      }
    },
    "version": 1
  }
}