{
  "contractName": "LSP6KeyManager",
  "abi": [
    {
      "inputs": [
        {
          "internalType": "address",
          "name": "_account",
          "type": "address"
        }
      ],
      "stateMutability": "nonpayable",
      "type": "constructor"
    },
    {
      "inputs": [
        {
          "internalType": "address",
          "name": "from",
          "type": "address"
        }
      ],
      "name": "NoPermissionsSet",
      "type": "error"
    },
    {
      "inputs": [
        {
          "internalType": "address",
          "name": "from",
          "type": "address"
        },
        {
          "internalType": "address",
          "name": "disallowedAddress",
          "type": "address"
        }
      ],
      "name": "NotAllowedAddress",
      "type": "error"
    },
    {
      "inputs": [
        {
          "internalType": "address",
          "name": "from",
          "type": "address"
        },
        {
          "internalType": "bytes32",
          "name": "disallowedKey",
          "type": "bytes32"
        }
      ],
      "name": "NotAllowedERC725YKey",
      "type": "error"
    },
    {
      "inputs": [
        {
          "internalType": "address",
          "name": "from",
          "type": "address"
        },
        {
          "internalType": "bytes4",
          "name": "disallowedFunction",
          "type": "bytes4"
        }
      ],
      "name": "NotAllowedFunction",
      "type": "error"
    },
    {
      "inputs": [
        {
          "internalType": "address",
          "name": "from",
          "type": "address"
        },
        {
          "internalType": "string",
          "name": "permission",
          "type": "string"
        }
      ],
      "name": "NotAuthorised",
      "type": "error"
    },
    {
      "anonymous": false,
      "inputs": [
        {
          "indexed": true,
          "internalType": "uint256",
          "name": "_value",
          "type": "uint256"
        },
        {
          "indexed": false,
          "internalType": "bytes4",
          "name": "_selector",
          "type": "bytes4"
        }
      ],
      "name": "Executed",
      "type": "event"
    },
    {
      "inputs": [
        {
          "internalType": "bytes",
          "name": "_calldata",
          "type": "bytes"
        }
      ],
      "name": "execute",
      "outputs": [
        {
          "internalType": "bytes",
          "name": "",
          "type": "bytes"
        }
      ],
      "stateMutability": "payable",
      "type": "function",
      "payable": true
    },
    {
      "inputs": [
        {
          "internalType": "bytes",
          "name": "_signature",
          "type": "bytes"
        },
        {
          "internalType": "uint256",
          "name": "_nonce",
          "type": "uint256"
        },
        {
          "internalType": "bytes",
          "name": "_calldata",
          "type": "bytes"
        }
      ],
      "name": "executeRelayCall",
      "outputs": [
        {
          "internalType": "bytes",
          "name": "",
          "type": "bytes"
        }
      ],
      "stateMutability": "payable",
      "type": "function",
      "payable": true
    },
    {
      "inputs": [
        {
          "internalType": "address",
          "name": "_from",
          "type": "address"
        },
        {
          "internalType": "uint256",
          "name": "_channel",
          "type": "uint256"
        }
      ],
      "name": "getNonce",
      "outputs": [
        {
          "internalType": "uint256",
          "name": "",
          "type": "uint256"
        }
      ],
      "stateMutability": "view",
      "type": "function",
      "constant": true
    },
    {
      "inputs": [
        {
          "internalType": "bytes32",
          "name": "_hash",
          "type": "bytes32"
        },
        {
          "internalType": "bytes",
          "name": "_signature",
          "type": "bytes"
        }
      ],
      "name": "isValidSignature",
      "outputs": [
        {
          "internalType": "bytes4",
          "name": "magicValue",
          "type": "bytes4"
        }
      ],
      "stateMutability": "view",
      "type": "function",
      "constant": true
    },
    {
      "inputs": [
        {
          "internalType": "bytes4",
          "name": "interfaceId",
          "type": "bytes4"
        }
      ],
      "name": "supportsInterface",
      "outputs": [
        {
          "internalType": "bool",
          "name": "",
          "type": "bool"
        }
      ],
      "stateMutability": "view",
      "type": "function",
      "constant": true
    },
    {
      "inputs": [],
      "name": "target",
      "outputs": [
        {
          "internalType": "address",
          "name": "",
          "type": "address"
        }
      ],
      "stateMutability": "view",
      "type": "function",
      "constant": true
    }
  ],
  "bytecode": "0x60806040523480156200001157600080fd5b5060405162004b1438038062004b148339818101604052810190620000379190620000e8565b806000806101000a81548173ffffffffffffffffffffffffffffffffffffffff021916908373ffffffffffffffffffffffffffffffffffffffff160217905550506200011a565b600080fd5b600073ffffffffffffffffffffffffffffffffffffffff82169050919050565b6000620000b08262000083565b9050919050565b620000c281620000a3565b8114620000ce57600080fd5b50565b600081519050620000e281620000b7565b92915050565b6000602082840312156200010157620001006200007e565b5b60006200011184828501620000d1565b91505092915050565b6149ea806200012a6000396000f3fe6080604052600436106100555760003560e01c806301ffc9a71461005a57806309c5eabe146100975780631626ba7e146100c75780638953580314610104578063902d5fa014610141578063d4b8399214610171575b600080fd5b34801561006657600080fd5b50610081600480360381019061007c9190612e46565b61019c565b60405161008e9190612e8e565b60405180910390f35b6100b160048036038101906100ac9190612f0e565b61024c565b6040516100be9190612ff4565b60405180910390f35b3480156100d357600080fd5b506100ee60048036038101906100e9919061317c565b610370565b6040516100fb91906131e7565b60405180910390f35b34801561011057600080fd5b5061012b60048036038101906101269190613296565b61040b565b60405161013891906132e5565b60405180910390f35b61015b60048036038101906101569190613300565b610483565b6040516101689190612ff4565b60405180910390f35b34801561017d57600080fd5b506101866106b0565b604051610193919061339f565b60405180910390f35b600063c403d48f60e01b7bffffffffffffffffffffffffffffffffffffffffffffffffffffffff1916827bffffffffffffffffffffffffffffffffffffffffffffffffffffffff191614806102355750631626ba7e60e01b7bffffffffffffffffffffffffffffffffffffffffffffffffffffffff1916827bffffffffffffffffffffffffffffffffffffffffffffffffffffffff1916145b806102455750610244826106d4565b5b9050919050565b606061025933848461073e565b60008060008054906101000a900473ffffffffffffffffffffffffffffffffffffffff1673ffffffffffffffffffffffffffffffffffffffff16345a9087876040516102a69291906133ea565b600060405180830381858888f193505050503d80600081146102e4576040519150601f19603f3d011682016040523d82523d6000602084013e6102e9565b606091505b5091509150816102fe576102fc81610cc4565b505b347f6b9340454526f665e369d7ac17353d0b73774a4a80f746b959ece8130e0f1d7286869061032d919061341b565b60405161033a91906131e7565b60405180910390a260008151036103515780610366565b8080602001905181019061036591906134ea565b5b9250505092915050565b6000806103868385610cde90919063ffffffff16565b90506103e861020060001b6103da8360008054906101000a900473ffffffffffffffffffffffffffffffffffffffff1673ffffffffffffffffffffffffffffffffffffffff16610d0590919063ffffffff16565b610db790919063ffffffff16565b6103f95763ffffffff60e01b610402565b631626ba7e60e01b5b91505092915050565b600080600160008573ffffffffffffffffffffffffffffffffffffffff1673ffffffffffffffffffffffffffffffffffffffff1681526020019081526020016000206000848152602001908152602001600020549050806fffffffffffffffffffffffffffffffff16608084901b1791505092915050565b6060600046308686866040516020016104a095949392919061359c565b604051602081830303815290604052905060006104d5876104c78480519060200120610dc6565b610cde90919063ffffffff16565b90506104e18187610df6565b610520576040517f08c379a000000000000000000000000000000000000000000000000000000000815260040161051790613645565b60405180910390fd5b600160008273ffffffffffffffffffffffffffffffffffffffff1673ffffffffffffffffffffffffffffffffffffffff1681526020019081526020016000206000608088901c8152602001908152602001600020600081548092919061058590613694565b919050555061059581868661073e565b60008060008054906101000a900473ffffffffffffffffffffffffffffffffffffffff1673ffffffffffffffffffffffffffffffffffffffff16345a9089896040516105e29291906133ea565b600060405180830381858888f193505050503d8060008114610620576040519150601f19603f3d011682016040523d82523d6000602084013e610625565b606091505b50915091508161063a5761063881610cc4565b505b347f6b9340454526f665e369d7ac17353d0b73774a4a80f746b959ece8130e0f1d72888890610669919061341b565b60405161067691906131e7565b60405180910390a2600081510361068d57806106a2565b808060200190518101906106a191906134ea565b5b945050505050949350505050565b60008054906101000a900473ffffffffffffffffffffffffffffffffffffffff1681565b60007f01ffc9a7000000000000000000000000000000000000000000000000000000007bffffffffffffffffffffffffffffffffffffffffffffffffffffffff1916827bffffffffffffffffffffffffffffffffffffffffffffffffffffffff1916149050919050565b60008282600090600492610754939291906136e6565b9061075f919061341b565b905060006107ac8560008054906101000a900473ffffffffffffffffffffffffffffffffffffffff1673ffffffffffffffffffffffffffffffffffffffff16610d0590919063ffffffff16565b90506000801b81036107f557846040517ff292052a0000000000000000000000000000000000000000000000000000000081526004016107ec919061339f565b60405180910390fd5b7f7f23690cc80a596acdae0a51503f8066ffd79ab76fd5c929578309d2e2883b777bffffffffffffffffffffffffffffffffffffffffffffffffffffffff1916827bffffffffffffffffffffffffffffffffffffffffffffffffffffffff1916036109a35760008085856004908092610870939291906136e6565b81019061087d919061317c565b91509150654b80742de2bf60d01b79ffffffffffffffffffffffffffffffffffffffffffffffffffff19168279ffffffffffffffffffffffffffffffffffffffffffffffffffff1916148061090a57506fdf30dba06db6a30e65354d9a64c6098660801b6fffffffffffffffffffffffffffffffff1916826fffffffffffffffffffffffffffffffff1916145b156109205761091b82828986610e73565b61099c565b6000600167ffffffffffffffff81111561093d5761093c613051565b5b60405190808252806020026020018201604052801561096b5781602001602082028036833780820191505090505b509050828160008151811061098357610982613721565b5b60200260200101818152505061099a8885836113d5565b505b5050610cbd565b7f14a6e2931875c22579e483160c8d2832a3fb3acbd575a49f6a0f7fc5e135f7897bffffffffffffffffffffffffffffffffffffffffffffffffffffffff1916827bffffffffffffffffffffffffffffffffffffffffffffffffffffffff191603610b715760008085856004908092610a1e939291906136e6565b810190610a2b91906138f4565b915091506000805b8351811015610b56576000848281518110610a5157610a50613721565b5b602002602001015190506000848381518110610a7057610a6f613721565b5b60200260200101519050654b80742de2bf60d01b79ffffffffffffffffffffffffffffffffffffffffffffffffffff19168279ffffffffffffffffffffffffffffffffffffffffffffffffffff19161480610b0357506fdf30dba06db6a30e65354d9a64c6098660801b6fffffffffffffffffffffffffffffffff1916826fffffffffffffffffffffffffffffffff1916145b15610b3c57610b1482828d8a610e73565b6000801b868481518110610b2b57610b2a613721565b5b602002602001018181525050610b41565b600193505b50508080610b4e90613694565b915050610a33565b508015610b6957610b688885856113d5565b5b505050610cbc565b6344c028fe60e01b7bffffffffffffffffffffffffffffffffffffffffffffffffffffffff1916827bffffffffffffffffffffffffffffffffffffffffffffffffffffffff191603610bce57610bc985828686611411565b610cbb565b63f2fde38b60e01b7bffffffffffffffffffffffffffffffffffffffffffffffffffffffff1916827bffffffffffffffffffffffffffffffffffffffffffffffffffffffff19161480610c655750634e71e0c860e01b7bffffffffffffffffffffffffffffffffffffffffffffffffffffffff1916827bffffffffffffffffffffffffffffffffffffffffffffffffffffffff1916145b15610c7f57610c798582600160001b6116a4565b50610cba565b6040517f08c379a0000000000000000000000000000000000000000000000000000000008152600401610cb1906139de565b60405180910390fd5b5b5b5b5050505050565b6060600082511115610cd95781518083602001fd5b600080fd5b6000806000610ced8585611710565b91509150610cfa81611791565b819250505092915050565b6000808373ffffffffffffffffffffffffffffffffffffffff166354f6127f610d406b4b80742de2bf82acb363000060a01b8660601b61195d565b6040518263ffffffff1660e01b8152600401610d5c9190613a0d565b600060405180830381865afa158015610d79573d6000803e3d6000fd5b505050506040513d6000823e3d601f19601f82011682018060405250810190610da291906134ea565b905080610dae90613a4d565b91505092915050565b60008182841614905092915050565b600081604051602001610dd99190613b2c565b604051602081830303815290604052805190602001209050919050565b6000600160008473ffffffffffffffffffffffffffffffffffffffff1673ffffffffffffffffffffffffffffffffffffffff1681526020019081526020016000206000608084901c81526020019081526020016000205470010000000000000000000000000000000083610e6a9190613b81565b14905092915050565b6b4b80742de2bf82acb363000060a01b73ffffffffffffffffffffffffffffffffffffffff19168473ffffffffffffffffffffffffffffffffffffffff191603610ec757610ec2848383611996565b6113cf565b7fdf30dba06db6a30e65354d9a64c609861f089545ca58c6b4dbe31a5f338cb0e360001b8403610f0257610efd84848484611a72565b6113ce565b6fdf30dba06db6a30e65354d9a64c6098660801b6fffffffffffffffffffffffffffffffff1916846fffffffffffffffffffffffffffffffff191603610f5757610f518282600260001b6116a4565b506113cd565b6b4b80742de2bfc6dd6b3c000060a01b73ffffffffffffffffffffffffffffffffffffffff19168473ffffffffffffffffffffffffffffffffffffffff1916036110bc57610fa483611b69565b610fe3576040517f08c379a0000000000000000000000000000000000000000000000000000000008152600401610fda90613c24565b60405180910390fd5b60008060009054906101000a900473ffffffffffffffffffffffffffffffffffffffff1673ffffffffffffffffffffffffffffffffffffffff166354f6127f866040518263ffffffff1660e01b815260040161103f9190613a0d565b600060405180830381865afa15801561105c573d6000803e3d6000fd5b505050506040513d6000823e3d601f19601f8201168201806040525081019061108591906134ea565b905060008151036110a55761109f8383600460001b6116a4565b506110b6565b6110b48383600260001b6116a4565b505b506113cc565b6b4b80742de2bf8efea1e8000060a01b73ffffffffffffffffffffffffffffffffffffffff19168473ffffffffffffffffffffffffffffffffffffffff1916148061114357506b4b80742de2bf3efa94a3000060a01b73ffffffffffffffffffffffffffffffffffffffff19168473ffffffffffffffffffffffffffffffffffffffff1916145b156112695761115183611c54565b611190576040517f08c379a000000000000000000000000000000000000000000000000000000000815260040161118790613cb6565b60405180910390fd5b60008060009054906101000a900473ffffffffffffffffffffffffffffffffffffffff1673ffffffffffffffffffffffffffffffffffffffff166354f6127f866040518263ffffffff1660e01b81526004016111ec9190613a0d565b600060405180830381865afa158015611209573d6000803e3d6000fd5b505050506040513d6000823e3d601f19601f8201168201806040525081019061123291906134ea565b905060008151036112525761124c8383600460001b6116a4565b50611263565b6112618383600260001b6116a4565b505b506113cb565b6b4b80742de2bf90b8b485000060a01b73ffffffffffffffffffffffffffffffffffffffff19168473ffffffffffffffffffffffffffffffffffffffff1916036113ca576112b683611d2f565b6112f5576040517f08c379a00000000000000000000000000000000000000000000000000000000081526004016112ec90613d48565b60405180910390fd5b60008060009054906101000a900473ffffffffffffffffffffffffffffffffffffffff1673ffffffffffffffffffffffffffffffffffffffff166354f6127f866040518263ffffffff1660e01b81526004016113519190613a0d565b600060405180830381865afa15801561136e573d6000803e3d6000fd5b505050506040513d6000823e3d601f19601f8201168201806040525081019061139791906134ea565b905060008151036113b7576113b18383600460001b6116a4565b506113c8565b6113c68383600260001b6116a4565b505b505b5b5b5b5b5b50505050565b6113ed61040060001b83610db790919063ffffffff16565b61140c576114008383600860001b6116a4565b5061140b8382611dc8565b5b505050565b60008282600490602492611427939291906136e6565b906114329190613d68565b60001c90506005811061147a576040517f08c379a000000000000000000000000000000000000000000000000000000000815260040161147190613e39565b60405180910390fd5b600481036114bd576040517f08c379a00000000000000000000000000000000000000000000000000000000081526004016114b490613ecb565b60405180910390fd5b600083836044906064926114d3939291906136e6565b906114de9190613d68565b60001c9050600060018314806114f45750600283145b9050600060a486869050119050600082611528576115236115148661200b565b89610db790919063ffffffff16565b61152b565b60005b9050811561155057808061154e575061154d898961154888612051565b6116a4565b5b505b600061156a61080060001b8a610db790919063ffffffff16565b9050600085111561158f57808061158d575061158c8a8a61010060001b6116a4565b5b505b83156115a05750505050505061169e565b8180156115aa5750825b80156115b65750600085145b156115c65750505050505061169e565b8080156115d1575082155b80156115dd5750600085115b156115ed5750505050505061169e565b8180156115f75750805b156116075750505050505061169e565b6000888860309060449261161d939291906136e6565b906116289190613f17565b60601c90506116378b826120bc565b60008173ffffffffffffffffffffffffffffffffffffffff163b1115611696576116618b826121fa565b60a88989905010611695576116948b8a8a60a49060a892611684939291906136e6565b9061168f919061341b565b61232f565b5b5b505050505050505b50505050565b60006116b98284610db790919063ffffffff16565b6117095760006116c88361247f565b905084816040517f3bdad6e6000000000000000000000000000000000000000000000000000000008152600401611700929190613fba565b60405180910390fd5b9392505050565b60008060418351036117515760008060006020860151925060408601519150606086015160001a905061174587828585612759565b9450945050505061178a565b6040835103611781576000806020850151915060408501519050611776868383612865565b93509350505061178a565b60006002915091505b9250929050565b600060048111156117a5576117a4613fea565b5b8160048111156117b8576117b7613fea565b5b031561195a57600160048111156117d2576117d1613fea565b5b8160048111156117e5576117e4613fea565b5b03611825576040517f08c379a000000000000000000000000000000000000000000000000000000000815260040161181c90614065565b60405180910390fd5b6002600481111561183957611838613fea565b5b81600481111561184c5761184b613fea565b5b0361188c576040517f08c379a0000000000000000000000000000000000000000000000000000000008152600401611883906140d1565b60405180910390fd5b600360048111156118a05761189f613fea565b5b8160048111156118b3576118b2613fea565b5b036118f3576040517f08c379a00000000000000000000000000000000000000000000000000000000081526004016118ea90614163565b60405180910390fd5b60048081111561190657611905613fea565b5b81600481111561191957611918613fea565b5b03611959576040517f08c379a0000000000000000000000000000000000000000000000000000000008152600401611950906141f5565b60405180910390fd5b5b50565b6000808383604051602001611973929190614283565b604051602081830303815290604052905061198d816128c4565b91505092915050565b6000801b60008054906101000a900473ffffffffffffffffffffffffffffffffffffffff1673ffffffffffffffffffffffffffffffffffffffff166354f6127f856040518263ffffffff1660e01b81526004016119f39190613a0d565b600060405180830381865afa158015611a10573d6000803e3d6000fd5b505050506040513d6000823e3d601f19601f82011682018060405250810190611a3991906134ea565b611a4290613a4d565b03611a5c57611a568282600460001b6116a4565b50611a6d565b611a6b8282600260001b6116a4565b505b505050565b60008060009054906101000a900473ffffffffffffffffffffffffffffffffffffffff1673ffffffffffffffffffffffffffffffffffffffff166354f6127f866040518263ffffffff1660e01b8152600401611ace9190613a0d565b600060405180830381865afa158015611aeb573d6000803e3d6000fd5b505050506040513d6000823e3d601f19601f82011682018060405250810190611b1491906134ea565b611b1d90613a4d565b60001c9050600084611b2e90613a4d565b60001c905081811115611b5057611b4a8484600460001b6116a4565b50611b61565b611b5f8484600260001b6116a4565b505b505050505050565b6000611b7482611d2f565b611b815760009050611c4f565b600082611b8d90613a4d565b60001c90506000611ba782856128d290919063ffffffff16565b90506000602083611bb891906142af565b905060005b82811015611c46576000611bda838861293990919063ffffffff16565b9050600060a01b73ffffffffffffffffffffffffffffffffffffffff19168173ffffffffffffffffffffffffffffffffffffffff191614611c2357600095505050505050611c4f565b602083611c3091906142af565b9250508080611c3e90613694565b915050611bbd565b50600193505050505b919050565b6000611c5f82611d2f565b611c6c5760009050611d2a565b600082611c7890613a4d565b60001c90506000611c9282856128d290919063ffffffff16565b90506000602083611ca391906142af565b905060005b82811015611d21576000611cc5838861293990919063ffffffff16565b905060008160001c7bffffffffffffffffffffffffffffffffffffffffffffffffffffffff1614611cfe57600095505050505050611d2a565b602083611d0b91906142af565b9250508080611d1990613694565b915050611ca8565b50600193505050505b919050565b600080825190506020811015611d49576000915050611dc3565b600083611d5590613a4d565b60001c905080821015611d6d57600092505050611dc3565b6000611d8282866128d290919063ffffffff16565b9050602081611d919190614305565b602083611d9e91906142af565b611da891906142af565b831015611dbb5760009350505050611dc3565b600193505050505b919050565b6000611e138360008054906101000a900473ffffffffffffffffffffffffffffffffffffffff1673ffffffffffffffffffffffffffffffffffffffff166129a090919063ffffffff16565b9050600081511480611e2b5750611e2981611d2f565b155b15611e365750612007565b600081806020019051810190611e4c919061440b565b905060008060005b8351811015611f6457611e80848281518110611e7357611e72613721565b5b6020026020010151612a44565b925060005b8651811015611f50576000801b878281518110611ea557611ea4613721565b5b60200260200101510315611f3d577fffffffffffffffffffffffffffffffffffffffffffffffffffffffffffffffff846008021b925082878281518110611eef57611eee613721565b5b602002602001015116858381518110611f0b57611f0a613721565b5b602002602001015103611f3c576000801b878281518110611f2f57611f2e613721565b5b6020026020010181815250505b5b8080611f4890613694565b915050611e85565b508080611f5c90613694565b915050611e54565b5060005b8551811015612001576000801b868281518110611f8857611f87613721565b5b602002602001015114611fee5786868281518110611fa957611fa8613721565b5b60200260200101516040517f3003e7ae000000000000000000000000000000000000000000000000000000008152600401611fe5929190614454565b60405180910390fd5b8080611ff990613694565b915050611f68565b50505050505b5050565b60008082036120215761100060001b905061204c565b600382036120365761200060001b905061204c565b6004820361204b5761400060001b905061204c565b5b919050565b600080820361206657601060001b90506120b7565b6001820361207a57608060001b90506120b7565b6002820361208e57608060001b90506120b7565b600382036120a257602060001b90506120b7565b600482036120b657604060001b90506120b7565b5b919050565b60006121078360008054906101000a900473ffffffffffffffffffffffffffffffffffffffff1673ffffffffffffffffffffffffffffffffffffffff16612ac390919063ffffffff16565b905060008151148061211f575061211d81611b69565b155b1561212a57506121f6565b6000818060200190518101906121409190614555565b905060005b81518110156121b65781818151811061216157612160613721565b5b602002602001015173ffffffffffffffffffffffffffffffffffffffff168473ffffffffffffffffffffffffffffffffffffffff16036121a3575050506121f6565b80806121ae90613694565b915050612145565b5083836040517f2879b1280000000000000000000000000000000000000000000000000000000081526004016121ed92919061459e565b60405180910390fd5b5050565b60006122458360008054906101000a900473ffffffffffffffffffffffffffffffffffffffff1673ffffffffffffffffffffffffffffffffffffffff16612b6790919063ffffffff16565b905060008151148061225d575061225b81611c54565b155b15612268575061232b565b60008180602001905181019061227e919061469f565b905060005b81518110156122ef576122cf8282815181106122a2576122a1613721565b5b60200260200101518573ffffffffffffffffffffffffffffffffffffffff16612c0b90919063ffffffff16565b156122dc5750505061232b565b80806122e790613694565b915050612283565b506040517f08c379a000000000000000000000000000000000000000000000000000000000815260040161232290614734565b60405180910390fd5b5050565b600061237a8360008054906101000a900473ffffffffffffffffffffffffffffffffffffffff1673ffffffffffffffffffffffffffffffffffffffff16612d3690919063ffffffff16565b9050600081511480612392575061239081611c54565b155b1561239d575061247b565b6000818060200190518101906123b3919061469f565b905060005b815181101561243b578181815181106123d4576123d3613721565b5b60200260200101517bffffffffffffffffffffffffffffffffffffffffffffffffffffffff1916847bffffffffffffffffffffffffffffffffffffffffffffffffffffffff1916036124285750505061247b565b808061243390613694565b9150506123b8565b5083836040517f84135110000000000000000000000000000000000000000000000000000000008152600401612472929190614754565b60405180910390fd5b5050565b6060600160001b82036124c9576040518060400160405280601181526020017f5452414e534645524f574e4552534849500000000000000000000000000000008152509050612754565b600260001b8203612511576040518060400160405280601181526020017f4348414e47455045524d495353494f4e530000000000000000000000000000008152509050612754565b600460001b8203612559576040518060400160405280600e81526020017f4144445045524d495353494f4e530000000000000000000000000000000000008152509050612754565b600860001b82036125a1576040518060400160405280600781526020017f53455444415441000000000000000000000000000000000000000000000000008152509050612754565b601060001b82036125e9576040518060400160405280600481526020017f43414c4c000000000000000000000000000000000000000000000000000000008152509050612754565b602060001b8203612631576040518060400160405280600a81526020017f53544154494343414c4c000000000000000000000000000000000000000000008152509050612754565b604060001b8203612679576040518060400160405280600c81526020017f44454c454741544543414c4c00000000000000000000000000000000000000008152509050612754565b608060001b82036126c1576040518060400160405280600681526020017f4445504c4f5900000000000000000000000000000000000000000000000000008152509050612754565b61010060001b820361270a576040518060400160405280600d81526020017f5452414e5346455256414c5545000000000000000000000000000000000000008152509050612754565b61020060001b8203612753576040518060400160405280600481526020017f5349474e000000000000000000000000000000000000000000000000000000008152509050612754565b5b919050565b6000807f7fffffffffffffffffffffffffffffff5d576e7357a4501ddfe92f46681b20a08360001c111561279457600060039150915061285c565b601b8560ff16141580156127ac5750601c8560ff1614155b156127be57600060049150915061285c565b6000600187878787604051600081526020016040526040516127e39493929190614799565b6020604051602081039080840390855afa158015612805573d6000803e3d6000fd5b505050602060405103519050600073ffffffffffffffffffffffffffffffffffffffff168173ffffffffffffffffffffffffffffffffffffffff16036128535760006001925092505061285c565b80600092509250505b94509492505050565b60008060007f7fffffffffffffffffffffffffffffffffffffffffffffffffffffffffffffff60001b841690506000601b60ff8660001c901c6128a891906142af565b90506128b687828885612759565b935093505050935093915050565b600060208201519050919050565b60006020826128e191906142af565b83511015612924576040517f08c379a000000000000000000000000000000000000000000000000000000000815260040161291b9061482a565b60405180910390fd5b60008260208501015190508091505092915050565b600060208261294891906142af565b8351101561298b576040517f08c379a000000000000000000000000000000000000000000000000000000000815260040161298290614896565b60405180910390fd5b60008260208501015190508091505092915050565b60608273ffffffffffffffffffffffffffffffffffffffff166354f6127f6129da6b4b80742de2bf90b8b485000060a01b8560601b61195d565b6040518263ffffffff1660e01b81526004016129f69190613a0d565b600060405180830381865afa158015612a13573d6000803e3d6000fd5b505050506040513d6000823e3d601f19601f82011682018060405250810190612a3c91906134ea565b905092915050565b600080601f90505b600060f81b838260208110612a6457612a63613721565b5b1a60f81b7effffffffffffffffffffffffffffffffffffffffffffffffffffffffffffff191603612aa2578080612a9a906148b6565b915050612a4c565b600181612aaf91906142af565b6020612abb91906148df565b915050919050565b60608273ffffffffffffffffffffffffffffffffffffffff166354f6127f612afd6b4b80742de2bfc6dd6b3c000060a01b8560601b61195d565b6040518263ffffffff1660e01b8152600401612b199190613a0d565b600060405180830381865afa158015612b36573d6000803e3d6000fd5b505050506040513d6000823e3d601f19601f82011682018060405250810190612b5f91906134ea565b905092915050565b60608273ffffffffffffffffffffffffffffffffffffffff166354f6127f612ba16b4b80742de2bf3efa94a3000060a01b8560601b61195d565b6040518263ffffffff1660e01b8152600401612bbd9190613a0d565b600060405180830381865afa158015612bda573d6000803e3d6000fd5b505050506040513d6000823e3d601f19601f82011682018060405250810190612c0391906134ea565b905092915050565b6000806301ffc9a760e01b83604051602401612c2791906131e7565b604051602081830303815290604052907bffffffffffffffffffffffffffffffffffffffffffffffffffffffff19166020820180517bffffffffffffffffffffffffffffffffffffffffffffffffffffffff838183161783525050505090506000808573ffffffffffffffffffffffffffffffffffffffff1661753084604051612cb19190614944565b6000604051808303818686fa925050503d8060008114612ced576040519150601f19603f3d011682016040523d82523d6000602084013e612cf2565b606091505b5091509150602081511015612d0d5760009350505050612d30565b818015612d2a575080806020019051810190612d299190614987565b5b93505050505b92915050565b60608273ffffffffffffffffffffffffffffffffffffffff166354f6127f612d706b4b80742de2bf8efea1e8000060a01b8560601b61195d565b6040518263ffffffff1660e01b8152600401612d8c9190613a0d565b600060405180830381865afa158015612da9573d6000803e3d6000fd5b505050506040513d6000823e3d601f19601f82011682018060405250810190612dd291906134ea565b905092915050565b6000604051905090565b600080fd5b600080fd5b60007fffffffff0000000000000000000000000000000000000000000000000000000082169050919050565b612e2381612dee565b8114612e2e57600080fd5b50565b600081359050612e4081612e1a565b92915050565b600060208284031215612e5c57612e5b612de4565b5b6000612e6a84828501612e31565b91505092915050565b60008115159050919050565b612e8881612e73565b82525050565b6000602082019050612ea36000830184612e7f565b92915050565b600080fd5b600080fd5b600080fd5b60008083601f840112612ece57612ecd612ea9565b5b8235905067ffffffffffffffff811115612eeb57612eea612eae565b5b602083019150836001820283011115612f0757612f06612eb3565b5b9250929050565b60008060208385031215612f2557612f24612de4565b5b600083013567ffffffffffffffff811115612f4357612f42612de9565b5b612f4f85828601612eb8565b92509250509250929050565b600081519050919050565b600082825260208201905092915050565b60005b83811015612f95578082015181840152602081019050612f7a565b83811115612fa4576000848401525b50505050565b6000601f19601f8301169050919050565b6000612fc682612f5b565b612fd08185612f66565b9350612fe0818560208601612f77565b612fe981612faa565b840191505092915050565b6000602082019050818103600083015261300e8184612fbb565b905092915050565b6000819050919050565b61302981613016565b811461303457600080fd5b50565b60008135905061304681613020565b92915050565b600080fd5b7f4e487b7100000000000000000000000000000000000000000000000000000000600052604160045260246000fd5b61308982612faa565b810181811067ffffffffffffffff821117156130a8576130a7613051565b5b80604052505050565b60006130bb612dda565b90506130c78282613080565b919050565b600067ffffffffffffffff8211156130e7576130e6613051565b5b6130f082612faa565b9050602081019050919050565b82818337600083830152505050565b600061311f61311a846130cc565b6130b1565b90508281526020810184848401111561313b5761313a61304c565b5b6131468482856130fd565b509392505050565b600082601f83011261316357613162612ea9565b5b813561317384826020860161310c565b91505092915050565b6000806040838503121561319357613192612de4565b5b60006131a185828601613037565b925050602083013567ffffffffffffffff8111156131c2576131c1612de9565b5b6131ce8582860161314e565b9150509250929050565b6131e181612dee565b82525050565b60006020820190506131fc60008301846131d8565b92915050565b600073ffffffffffffffffffffffffffffffffffffffff82169050919050565b600061322d82613202565b9050919050565b61323d81613222565b811461324857600080fd5b50565b60008135905061325a81613234565b92915050565b6000819050919050565b61327381613260565b811461327e57600080fd5b50565b6000813590506132908161326a565b92915050565b600080604083850312156132ad576132ac612de4565b5b60006132bb8582860161324b565b92505060206132cc85828601613281565b9150509250929050565b6132df81613260565b82525050565b60006020820190506132fa60008301846132d6565b92915050565b6000806000806060858703121561331a57613319612de4565b5b600085013567ffffffffffffffff81111561333857613337612de9565b5b6133448782880161314e565b945050602061335587828801613281565b935050604085013567ffffffffffffffff81111561337657613375612de9565b5b61338287828801612eb8565b925092505092959194509250565b61339981613222565b82525050565b60006020820190506133b46000830184613390565b92915050565b600081905092915050565b60006133d183856133ba565b93506133de8385846130fd565b82840190509392505050565b60006133f78284866133c5565b91508190509392505050565b600082905092915050565b600082821b905092915050565b60006134278383613403565b826134328135612dee565b925060048210156134725761346d7fffffffff000000000000000000000000000000000000000000000000000000008360040360080261340e565b831692505b505092915050565b600061348d613488846130cc565b6130b1565b9050828152602081018484840111156134a9576134a861304c565b5b6134b4848285612f77565b509392505050565b600082601f8301126134d1576134d0612ea9565b5b81516134e184826020860161347a565b91505092915050565b600060208284031215613500576134ff612de4565b5b600082015167ffffffffffffffff81111561351e5761351d612de9565b5b61352a848285016134bc565b91505092915050565b6000819050919050565b61354e61354982613260565b613533565b82525050565b60008160601b9050919050565b600061356c82613554565b9050919050565b600061357e82613561565b9050919050565b61359661359182613222565b613573565b82525050565b60006135a8828861353d565b6020820191506135b88287613585565b6014820191506135c8828661353d565b6020820191506135d98284866133c5565b91508190509695505050505050565b600082825260208201905092915050565b7f6578656375746552656c617943616c6c3a20496e76616c6964206e6f6e636500600082015250565b600061362f601f836135e8565b915061363a826135f9565b602082019050919050565b6000602082019050818103600083015261365e81613622565b9050919050565b7f4e487b7100000000000000000000000000000000000000000000000000000000600052601160045260246000fd5b600061369f82613260565b91507fffffffffffffffffffffffffffffffffffffffffffffffffffffffffffffffff82036136d1576136d0613665565b5b600182019050919050565b600080fd5b600080fd5b600080858511156136fa576136f96136dc565b5b8386111561370b5761370a6136e1565b5b6001850283019150848603905094509492505050565b7f4e487b7100000000000000000000000000000000000000000000000000000000600052603260045260246000fd5b600067ffffffffffffffff82111561376b5761376a613051565b5b602082029050602081019050919050565b600061378f61378a84613750565b6130b1565b905080838252602082019050602084028301858111156137b2576137b1612eb3565b5b835b818110156137db57806137c78882613037565b8452602084019350506020810190506137b4565b5050509392505050565b600082601f8301126137fa576137f9612ea9565b5b813561380a84826020860161377c565b91505092915050565b600067ffffffffffffffff82111561382e5761382d613051565b5b602082029050602081019050919050565b600061385261384d84613813565b6130b1565b9050808382526020820190506020840283018581111561387557613874612eb3565b5b835b818110156138bc57803567ffffffffffffffff81111561389a57613899612ea9565b5b8086016138a7898261314e565b85526020850194505050602081019050613877565b5050509392505050565b600082601f8301126138db576138da612ea9565b5b81356138eb84826020860161383f565b91505092915050565b6000806040838503121561390b5761390a612de4565b5b600083013567ffffffffffffffff81111561392957613928612de9565b5b613935858286016137e5565b925050602083013567ffffffffffffffff81111561395657613955612de9565b5b613962858286016138c6565b9150509250929050565b7f5f7665726966795065726d697373696f6e733a20696e76616c6964204552433760008201527f32352073656c6563746f72000000000000000000000000000000000000000000602082015250565b60006139c8602b836135e8565b91506139d38261396c565b604082019050919050565b600060208201905081810360008301526139f7816139bb565b9050919050565b613a0781613016565b82525050565b6000602082019050613a2260008301846139fe565b92915050565b6000819050602082019050919050565b6000613a448251613016565b80915050919050565b6000613a5882612f5b565b82613a6284613a28565b9050613a6d81613a38565b92506020821015613aad57613aa87fffffffffffffffffffffffffffffffffffffffffffffffffffffffffffffffff8360200360080261340e565b831692505b5050919050565b600081905092915050565b7f19457468657265756d205369676e6564204d6573736167653a0a333200000000600082015250565b6000613af5601c83613ab4565b9150613b0082613abf565b601c82019050919050565b6000819050919050565b613b26613b2182613016565b613b0b565b82525050565b6000613b3782613ae8565b9150613b438284613b15565b60208201915081905092915050565b7f4e487b7100000000000000000000000000000000000000000000000000000000600052601260045260246000fd5b6000613b8c82613260565b9150613b9783613260565b925082613ba757613ba6613b52565b5b828206905092915050565b7f4c5350364b65794d616e616765723a20696e76616c69642041424920656e636f60008201527f646564206172726179206f662061646472657373657300000000000000000000602082015250565b6000613c0e6036836135e8565b9150613c1982613bb2565b604082019050919050565b60006020820190508181036000830152613c3d81613c01565b9050919050565b7f4c5350364b65794d616e616765723a20696e76616c69642041424920656e636f60008201527f646564206172726179206f662062797465733400000000000000000000000000602082015250565b6000613ca06033836135e8565b9150613cab82613c44565b604082019050919050565b60006020820190508181036000830152613ccf81613c93565b9050919050565b7f4c5350364b65794d616e616765723a20696e76616c69642041424920656e636f60008201527f646564206172726179206f662062797465733332000000000000000000000000602082015250565b6000613d326034836135e8565b9150613d3d82613cd6565b604082019050919050565b60006020820190508181036000830152613d6181613d25565b9050919050565b6000613d748383613403565b82613d7f8135613016565b92506020821015613dbf57613dba7fffffffffffffffffffffffffffffffffffffffffffffffffffffffffffffffff8360200360080261340e565b831692505b505092915050565b7f4c5350364b65794d616e616765723a20696e76616c6964206f7065726174696f60008201527f6e20747970650000000000000000000000000000000000000000000000000000602082015250565b6000613e236026836135e8565b9150613e2e82613dc7565b604082019050919050565b60006020820190508181036000830152613e5281613e16565b9050919050565b7f4c5350364b65794d616e616765723a206f7065726174696f6e2044454c45474160008201527f544543414c4c2069732063757272656e746c7920646973616c6c6f7765640000602082015250565b6000613eb5603e836135e8565b9150613ec082613e59565b604082019050919050565b60006020820190508181036000830152613ee481613ea8565b9050919050565b60007fffffffffffffffffffffffffffffffffffffffff00000000000000000000000082169050919050565b6000613f238383613403565b82613f2e8135613eeb565b92506014821015613f6e57613f697fffffffffffffffffffffffffffffffffffffffff0000000000000000000000008360140360080261340e565b831692505b505092915050565b600081519050919050565b6000613f8c82613f76565b613f9681856135e8565b9350613fa6818560208601612f77565b613faf81612faa565b840191505092915050565b6000604082019050613fcf6000830185613390565b8181036020830152613fe18184613f81565b90509392505050565b7f4e487b7100000000000000000000000000000000000000000000000000000000600052602160045260246000fd5b7f45434453413a20696e76616c6964207369676e61747572650000000000000000600082015250565b600061404f6018836135e8565b915061405a82614019565b602082019050919050565b6000602082019050818103600083015261407e81614042565b9050919050565b7f45434453413a20696e76616c6964207369676e6174757265206c656e67746800600082015250565b60006140bb601f836135e8565b91506140c682614085565b602082019050919050565b600060208201905081810360008301526140ea816140ae565b9050919050565b7f45434453413a20696e76616c6964207369676e6174757265202773272076616c60008201527f7565000000000000000000000000000000000000000000000000000000000000602082015250565b600061414d6022836135e8565b9150614158826140f1565b604082019050919050565b6000602082019050818103600083015261417c81614140565b9050919050565b7f45434453413a20696e76616c6964207369676e6174757265202776272076616c60008201527f7565000000000000000000000000000000000000000000000000000000000000602082015250565b60006141df6022836135e8565b91506141ea82614183565b604082019050919050565b6000602082019050818103600083015261420e816141d2565b9050919050565b60007fffffffffffffffffffffffff000000000000000000000000000000000000000082169050919050565b6000819050919050565b61425c61425782614215565b614241565b82525050565b6000819050919050565b61427d61427882613eeb565b614262565b82525050565b600061428f828561424b565b600c8201915061429f828461426c565b6014820191508190509392505050565b60006142ba82613260565b91506142c583613260565b9250827fffffffffffffffffffffffffffffffffffffffffffffffffffffffffffffffff038211156142fa576142f9613665565b5b828201905092915050565b600061431082613260565b915061431b83613260565b9250817fffffffffffffffffffffffffffffffffffffffffffffffffffffffffffffffff048311821515161561435457614353613665565b5b828202905092915050565b60008151905061436e81613020565b92915050565b600061438761438284613750565b6130b1565b905080838252602082019050602084028301858111156143aa576143a9612eb3565b5b835b818110156143d357806143bf888261435f565b8452602084019350506020810190506143ac565b5050509392505050565b600082601f8301126143f2576143f1612ea9565b5b8151614402848260208601614374565b91505092915050565b60006020828403121561442157614420612de4565b5b600082015167ffffffffffffffff81111561443f5761443e612de9565b5b61444b848285016143dd565b91505092915050565b60006040820190506144696000830185613390565b61447660208301846139fe565b9392505050565b600067ffffffffffffffff82111561449857614497613051565b5b602082029050602081019050919050565b6000815190506144b881613234565b92915050565b60006144d16144cc8461447d565b6130b1565b905080838252602082019050602084028301858111156144f4576144f3612eb3565b5b835b8181101561451d578061450988826144a9565b8452602084019350506020810190506144f6565b5050509392505050565b600082601f83011261453c5761453b612ea9565b5b815161454c8482602086016144be565b91505092915050565b60006020828403121561456b5761456a612de4565b5b600082015167ffffffffffffffff81111561458957614588612de9565b5b61459584828501614527565b91505092915050565b60006040820190506145b36000830185613390565b6145c06020830184613390565b9392505050565b600067ffffffffffffffff8211156145e2576145e1613051565b5b602082029050602081019050919050565b60008151905061460281612e1a565b92915050565b600061461b614616846145c7565b6130b1565b9050808382526020820190506020840283018581111561463e5761463d612eb3565b5b835b81811015614667578061465388826145f3565b845260208401935050602081019050614640565b5050509392505050565b600082601f83011261468657614685612ea9565b5b8151614696848260208601614608565b91505092915050565b6000602082840312156146b5576146b4612de4565b5b600082015167ffffffffffffffff8111156146d3576146d2612de9565b5b6146df84828501614671565b91505092915050565b7f4e6f7420416c6c6f776564205374616e64617264730000000000000000000000600082015250565b600061471e6015836135e8565b9150614729826146e8565b602082019050919050565b6000602082019050818103600083015261474d81614711565b9050919050565b60006040820190506147696000830185613390565b61477660208301846131d8565b9392505050565b600060ff82169050919050565b6147938161477d565b82525050565b60006080820190506147ae60008301876139fe565b6147bb602083018661478a565b6147c860408301856139fe565b6147d560608301846139fe565b95945050505050565b7f746f55696e743235365f6f75744f66426f756e64730000000000000000000000600082015250565b60006148146015836135e8565b915061481f826147de565b602082019050919050565b6000602082019050818103600083015261484381614807565b9050919050565b7f746f427974657333325f6f75744f66426f756e64730000000000000000000000600082015250565b60006148806015836135e8565b915061488b8261484a565b602082019050919050565b600060208201905081810360008301526148af81614873565b9050919050565b60006148c182613260565b9150600082036148d4576148d3613665565b5b600182039050919050565b60006148ea82613260565b91506148f583613260565b92508282101561490857614907613665565b5b828203905092915050565b600061491e82612f5b565b61492881856133ba565b9350614938818560208601612f77565b80840191505092915050565b60006149508284614913565b915081905092915050565b61496481612e73565b811461496f57600080fd5b50565b6000815190506149818161495b565b92915050565b60006020828403121561499d5761499c612de4565b5b60006149ab84828501614972565b9150509291505056fea26469706673582212209c9666b73ab8801ddabb8811e00478b3dce69e36e7101f2554c17fe30394469e64736f6c634300080f0033",
  "immutableReferences": {},
  "source": "// SPDX-License-Identifier: Apache-2.0\npragma solidity ^0.8.6;\n\n// modules\nimport {LSP6KeyManagerCore} from \"./LSP6KeyManagerCore.sol\";\n\n/**\n * @title Implementation of a contract acting as a controller of an ERC725 Account, using permissions stored in the ERC725Y storage\n * @author Fabian Vogelsteller <frozeman>, Jean Cavallera (CJ42), Yamen Merhi (YamenMerhi)\n * @dev all the permissions can be set on the ERC725 Account using `setData(...)` with the keys constants below\n */\ncontract LSP6KeyManager is LSP6KeyManagerCore {\n    /**\n     * @notice Initiate the account with the address of the ERC725Account contract and sets LSP6KeyManager InterfaceId\n     * @param _account The address of the ER725Account to control\n     */\n    constructor(address _account) {\n        target = _account;\n    }\n}\n",
  "sourcePath": "@lukso/lsp-smart-contracts/contracts/LSP6KeyManager/LSP6KeyManager.sol",
  "compiler": {
    "name": "solc",
    "version": "0.8.15+commit.e14f2714.Emscripten.clang"
  },
  "schemaVersion": "3.4.8",
  "updatedAt": "2022-07-27T15:35:25.163Z",
  "networkType": "ethereum",
  "devdoc": {
    "author": "Fabian Vogelsteller <frozeman>, Jean Cavallera (CJ42), Yamen Merhi (YamenMerhi)",
    "details": "all the permissions can be set on the ERC725 Account using `setData(...)` with the keys constants below",
    "errors": {
      "NoPermissionsSet(address)": [
        {
          "details": "revert when address `from` does not have any permissions set on the account linked to this Key Manager",
          "params": {
            "from": "the address that does not have permissions"
          }
        }
      ],
      "NotAllowedAddress(address,address)": [
        {
          "details": "address `from` is not authorised to interact with `disallowedAddress` via account",
          "params": {
            "disallowedAddress": "address that `from` is not authorised to call",
            "from": "address making the request"
          }
        }
      ],
      "NotAllowedERC725YKey(address,bytes32)": [
        {
          "details": "address `from` is not authorised to set the key `disallowedKey` on the account",
          "params": {
            "disallowedKey": "a bytes32 key that `from` is not authorised to set on the ERC725Y storage",
            "from": "address making the request"
          }
        }
      ],
      "NotAllowedFunction(address,bytes4)": [
        {
          "details": "address `from` is not authorised to run `disallowedFunction` via account",
          "params": {
            "disallowedFunction": "bytes4 function selector that `from` is not authorised to run",
            "from": "address making the request"
          }
        }
      ],
      "NotAuthorised(address,string)": [
        {
          "details": "address `from` is not authorised to `permission`",
          "params": {
            "from": "address not-authorised",
            "permission": "permission required"
          }
        }
      ]
    },
    "kind": "dev",
    "methods": {
      "constructor": {
        "params": {
          "_account": "The address of the ER725Account to control"
        }
      },
      "execute(bytes)": {
        "details": "the ERC725Account will return some data on successful call, or revert on failure",
        "params": {
          "_calldata": "the payload to execute. Obtained in web3 via encodeABI()"
        },
        "returns": {
          "_0": "result_ the data being returned by the ERC725 Account"
        }
      },
      "executeRelayCall(bytes,uint256,bytes)": {
        "details": "allows anybody to execute given they have a signed message from an executor",
        "params": {
          "_calldata": "obtained via encodeABI() in web3",
          "_nonce": "the address' nonce (in a specific `_channel`), obtained via `getNonce(...)`. Used to prevent replay attack",
          "_signature": "bytes32 ethereum signature"
        },
        "returns": {
          "_0": "result_ the data being returned by the ERC725 Account"
        }
      },
      "getNonce(address,uint256)": {
        "details": "use channel ID = 0 for sequential nonces, any other number for out-of-order execution (= execution in parallel)",
        "params": {
          "_address": "caller address",
          "_channel": "channel id"
        }
      },
      "isValidSignature(bytes32,bytes)": {
        "details": "Should return whether the signature provided is valid for the provided data",
        "params": {
          "hash": "Hash of the data to be signed",
          "signature": "Signature byte array associated with _data"
        }
      },
      "supportsInterface(bytes4)": {
        "details": "See {IERC165-supportsInterface}."
      }
    },
    "title": "Implementation of a contract acting as a controller of an ERC725 Account, using permissions stored in the ERC725Y storage",
    "version": 1
  },
  "userdoc": {
    "kind": "user",
    "methods": {
      "constructor": {
        "notice": "Initiate the account with the address of the ERC725Account contract and sets LSP6KeyManager InterfaceId"
      },
      "execute(bytes)": {
        "notice": "execute the following payload on the ERC725Account: `_calldata`"
      },
      "getNonce(address,uint256)": {
        "notice": "get latest nonce for `_from` for channel ID: `_channel`"
      },
      "target()": {
        "notice": "returns the address of the account linked to this KeyManager"
      }
    },
    "version": 1
  }
}