{
  "contractName": "LSP6KeyManager",
  "abi": [
    {
      "inputs": [
        {
          "internalType": "address",
          "name": "target_",
          "type": "address"
        }
      ],
      "stateMutability": "nonpayable",
      "type": "constructor"
    },
    {
      "inputs": [
        {
          "internalType": "address",
          "name": "from",
          "type": "address"
        }
      ],
      "name": "NoPermissionsSet",
      "type": "error"
    },
    {
      "inputs": [
        {
          "internalType": "address",
          "name": "from",
          "type": "address"
        },
        {
          "internalType": "address",
          "name": "disallowedAddress",
          "type": "address"
        }
      ],
      "name": "NotAllowedAddress",
      "type": "error"
    },
    {
      "inputs": [
        {
          "internalType": "address",
          "name": "from",
          "type": "address"
        },
        {
          "internalType": "bytes32",
          "name": "disallowedKey",
          "type": "bytes32"
        }
      ],
      "name": "NotAllowedERC725YKey",
      "type": "error"
    },
    {
      "inputs": [
        {
          "internalType": "address",
          "name": "from",
          "type": "address"
        },
        {
          "internalType": "bytes4",
          "name": "disallowedFunction",
          "type": "bytes4"
        }
      ],
      "name": "NotAllowedFunction",
      "type": "error"
    },
    {
      "inputs": [
        {
          "internalType": "address",
          "name": "from",
          "type": "address"
        },
        {
          "internalType": "string",
          "name": "permission",
          "type": "string"
        }
      ],
      "name": "NotAuthorised",
      "type": "error"
    },
    {
      "anonymous": false,
      "inputs": [
        {
          "indexed": true,
          "internalType": "uint256",
          "name": "_value",
          "type": "uint256"
        },
        {
          "indexed": false,
          "internalType": "bytes4",
          "name": "_selector",
          "type": "bytes4"
        }
      ],
      "name": "Executed",
      "type": "event"
    },
    {
      "inputs": [
        {
          "internalType": "bytes",
          "name": "_calldata",
          "type": "bytes"
        }
      ],
      "name": "execute",
      "outputs": [
        {
          "internalType": "bytes",
          "name": "",
          "type": "bytes"
        }
      ],
      "stateMutability": "payable",
      "type": "function"
    },
    {
      "inputs": [
        {
          "internalType": "bytes",
          "name": "_signature",
          "type": "bytes"
        },
        {
          "internalType": "uint256",
          "name": "_nonce",
          "type": "uint256"
        },
        {
          "internalType": "bytes",
          "name": "_calldata",
          "type": "bytes"
        }
      ],
      "name": "executeRelayCall",
      "outputs": [
        {
          "internalType": "bytes",
          "name": "",
          "type": "bytes"
        }
      ],
      "stateMutability": "payable",
      "type": "function"
    },
    {
      "inputs": [
        {
          "internalType": "address",
          "name": "_from",
          "type": "address"
        },
        {
          "internalType": "uint256",
          "name": "_channel",
          "type": "uint256"
        }
      ],
      "name": "getNonce",
      "outputs": [
        {
          "internalType": "uint256",
          "name": "",
          "type": "uint256"
        }
      ],
      "stateMutability": "view",
      "type": "function"
    },
    {
      "inputs": [
        {
          "internalType": "bytes32",
          "name": "_hash",
          "type": "bytes32"
        },
        {
          "internalType": "bytes",
          "name": "_signature",
          "type": "bytes"
        }
      ],
      "name": "isValidSignature",
      "outputs": [
        {
          "internalType": "bytes4",
          "name": "magicValue",
          "type": "bytes4"
        }
      ],
      "stateMutability": "view",
      "type": "function"
    },
    {
      "inputs": [
        {
          "internalType": "bytes4",
          "name": "interfaceId",
          "type": "bytes4"
        }
      ],
      "name": "supportsInterface",
      "outputs": [
        {
          "internalType": "bool",
          "name": "",
          "type": "bool"
        }
      ],
      "stateMutability": "view",
      "type": "function"
    },
    {
      "inputs": [],
      "name": "target",
      "outputs": [
        {
          "internalType": "address",
          "name": "",
          "type": "address"
        }
      ],
      "stateMutability": "view",
      "type": "function"
    },
    {
      "inputs": [],
      "name": "getOwnership",
      "outputs": [],
      "stateMutability": "nonpayable",
      "type": "function"
    }
  ],
  "bytecode": "0x60806040523480156200001157600080fd5b5060405162004cc438038062004cc48339818101604052810190620000379190620000e8565b806000806101000a81548173ffffffffffffffffffffffffffffffffffffffff021916908373ffffffffffffffffffffffffffffffffffffffff160217905550506200011a565b600080fd5b600073ffffffffffffffffffffffffffffffffffffffff82169050919050565b6000620000b08262000083565b9050919050565b620000c281620000a3565b8114620000ce57600080fd5b50565b600081519050620000e281620000b7565b92915050565b6000602082840312156200010157620001006200007e565b5b60006200011184828501620000d1565b91505092915050565b614b9a806200012a6000396000f3fe6080604052600436106100705760003560e01c8063895358031161004e578063895358031461011f578063902d5fa01461015c578063aacd73211461018c578063d4b83992146101a357610070565b806301ffc9a71461007557806309c5eabe146100b25780631626ba7e146100e2575b600080fd5b34801561008157600080fd5b5061009c60048036038101906100979190612f8a565b6101ce565b6040516100a99190612fd2565b60405180910390f35b6100cc60048036038101906100c79190613052565b61027e565b6040516100d99190613138565b60405180910390f35b3480156100ee57600080fd5b50610109600480360381019061010491906132c0565b6103a2565b604051610116919061332b565b60405180910390f35b34801561012b57600080fd5b50610146600480360381019061014191906133da565b61043d565b6040516101539190613429565b60405180910390f35b61017660048036038101906101719190613444565b6104b5565b6040516101839190613138565b60405180910390f35b34801561019857600080fd5b506101a16106e2565b005b3480156101af57600080fd5b506101b86107f4565b6040516101c591906134e3565b60405180910390f35b600063c403d48f60e01b7bffffffffffffffffffffffffffffffffffffffffffffffffffffffff1916827bffffffffffffffffffffffffffffffffffffffffffffffffffffffff191614806102675750631626ba7e60e01b7bffffffffffffffffffffffffffffffffffffffffffffffffffffffff1916827bffffffffffffffffffffffffffffffffffffffffffffffffffffffff1916145b80610277575061027682610818565b5b9050919050565b606061028b338484610882565b60008060008054906101000a900473ffffffffffffffffffffffffffffffffffffffff1673ffffffffffffffffffffffffffffffffffffffff16345a9087876040516102d892919061352e565b600060405180830381858888f193505050503d8060008114610316576040519150601f19603f3d011682016040523d82523d6000602084013e61031b565b606091505b5091509150816103305761032e81610e08565b505b347f6b9340454526f665e369d7ac17353d0b73774a4a80f746b959ece8130e0f1d7286869061035f919061355f565b60405161036c919061332b565b60405180910390a260008151036103835780610398565b80806020019051810190610397919061362e565b5b9250505092915050565b6000806103b88385610e2290919063ffffffff16565b905061041a61020060001b61040c8360008054906101000a900473ffffffffffffffffffffffffffffffffffffffff1673ffffffffffffffffffffffffffffffffffffffff16610e4990919063ffffffff16565b610efb90919063ffffffff16565b61042b5763ffffffff60e01b610434565b631626ba7e60e01b5b91505092915050565b600080600160008573ffffffffffffffffffffffffffffffffffffffff1673ffffffffffffffffffffffffffffffffffffffff1681526020019081526020016000206000848152602001908152602001600020549050806fffffffffffffffffffffffffffffffff16608084901b1791505092915050565b6060600046308686866040516020016104d29594939291906136e0565b60405160208183030381529060405290506000610507876104f98480519060200120610f0a565b610e2290919063ffffffff16565b90506105138187610f3a565b610552576040517f08c379a000000000000000000000000000000000000000000000000000000000815260040161054990613789565b60405180910390fd5b600160008273ffffffffffffffffffffffffffffffffffffffff1673ffffffffffffffffffffffffffffffffffffffff1681526020019081526020016000206000608088901c815260200190815260200160002060008154809291906105b7906137d8565b91905055506105c7818686610882565b60008060008054906101000a900473ffffffffffffffffffffffffffffffffffffffff1673ffffffffffffffffffffffffffffffffffffffff16345a90898960405161061492919061352e565b600060405180830381858888f193505050503d8060008114610652576040519150601f19603f3d011682016040523d82523d6000602084013e610657565b606091505b50915091508161066c5761066a81610e08565b505b347f6b9340454526f665e369d7ac17353d0b73774a4a80f746b959ece8130e0f1d7288889061069b919061355f565b6040516106a8919061332b565b60405180910390a260008151036106bf57806106d4565b808060200190518101906106d3919061362e565b5b945050505050949350505050565b600260009054906101000a900473ffffffffffffffffffffffffffffffffffffffff1673ffffffffffffffffffffffffffffffffffffffff163373ffffffffffffffffffffffffffffffffffffffff1614610772576040517f08c379a00000000000000000000000000000000000000000000000000000000081526004016107699061386c565b60405180910390fd5b60008054906101000a900473ffffffffffffffffffffffffffffffffffffffff1673ffffffffffffffffffffffffffffffffffffffff16634e71e0c86040518163ffffffff1660e01b8152600401600060405180830381600087803b1580156107da57600080fd5b505af11580156107ee573d6000803e3d6000fd5b50505050565b60008054906101000a900473ffffffffffffffffffffffffffffffffffffffff1681565b60007f01ffc9a7000000000000000000000000000000000000000000000000000000007bffffffffffffffffffffffffffffffffffffffffffffffffffffffff1916827bffffffffffffffffffffffffffffffffffffffffffffffffffffffff1916149050919050565b6000828260009060049261089893929190613896565b906108a3919061355f565b905060006108f08560008054906101000a900473ffffffffffffffffffffffffffffffffffffffff1673ffffffffffffffffffffffffffffffffffffffff16610e4990919063ffffffff16565b90506000801b810361093957846040517ff292052a00000000000000000000000000000000000000000000000000000000815260040161093091906134e3565b60405180910390fd5b7f7f23690cc80a596acdae0a51503f8066ffd79ab76fd5c929578309d2e2883b777bffffffffffffffffffffffffffffffffffffffffffffffffffffffff1916827bffffffffffffffffffffffffffffffffffffffffffffffffffffffff191603610ae757600080858560049080926109b493929190613896565b8101906109c191906132c0565b91509150654b80742de2bf60d01b79ffffffffffffffffffffffffffffffffffffffffffffffffffff19168279ffffffffffffffffffffffffffffffffffffffffffffffffffff19161480610a4e57506fdf30dba06db6a30e65354d9a64c6098660801b6fffffffffffffffffffffffffffffffff1916826fffffffffffffffffffffffffffffffff1916145b15610a6457610a5f82828986610fb7565b610ae0565b6000600167ffffffffffffffff811115610a8157610a80613195565b5b604051908082528060200260200182016040528015610aaf5781602001602082028036833780820191505090505b5090508281600081518110610ac757610ac66138d1565b5b602002602001018181525050610ade888583611519565b505b5050610e01565b7f14a6e2931875c22579e483160c8d2832a3fb3acbd575a49f6a0f7fc5e135f7897bffffffffffffffffffffffffffffffffffffffffffffffffffffffff1916827bffffffffffffffffffffffffffffffffffffffffffffffffffffffff191603610cb55760008085856004908092610b6293929190613896565b810190610b6f9190613aa4565b915091506000805b8351811015610c9a576000848281518110610b9557610b946138d1565b5b602002602001015190506000848381518110610bb457610bb36138d1565b5b60200260200101519050654b80742de2bf60d01b79ffffffffffffffffffffffffffffffffffffffffffffffffffff19168279ffffffffffffffffffffffffffffffffffffffffffffffffffff19161480610c4757506fdf30dba06db6a30e65354d9a64c6098660801b6fffffffffffffffffffffffffffffffff1916826fffffffffffffffffffffffffffffffff1916145b15610c8057610c5882828d8a610fb7565b6000801b868481518110610c6f57610c6e6138d1565b5b602002602001018181525050610c85565b600193505b50508080610c92906137d8565b915050610b77565b508015610cad57610cac888585611519565b5b505050610e00565b6344c028fe60e01b7bffffffffffffffffffffffffffffffffffffffffffffffffffffffff1916827bffffffffffffffffffffffffffffffffffffffffffffffffffffffff191603610d1257610d0d85828686611555565b610dff565b63f2fde38b60e01b7bffffffffffffffffffffffffffffffffffffffffffffffffffffffff1916827bffffffffffffffffffffffffffffffffffffffffffffffffffffffff19161480610da95750634e71e0c860e01b7bffffffffffffffffffffffffffffffffffffffffffffffffffffffff1916827bffffffffffffffffffffffffffffffffffffffffffffffffffffffff1916145b15610dc357610dbd8582600160001b6117e8565b50610dfe565b6040517f08c379a0000000000000000000000000000000000000000000000000000000008152600401610df590613b8e565b60405180910390fd5b5b5b5b5050505050565b6060600082511115610e1d5781518083602001fd5b600080fd5b6000806000610e318585611854565b91509150610e3e816118d5565b819250505092915050565b6000808373ffffffffffffffffffffffffffffffffffffffff166354f6127f610e846b4b80742de2bf82acb363000060a01b8660601b611aa1565b6040518263ffffffff1660e01b8152600401610ea09190613bbd565b600060405180830381865afa158015610ebd573d6000803e3d6000fd5b505050506040513d6000823e3d601f19601f82011682018060405250810190610ee6919061362e565b905080610ef290613bfd565b91505092915050565b60008182841614905092915050565b600081604051602001610f1d9190613cdc565b604051602081830303815290604052805190602001209050919050565b6000600160008473ffffffffffffffffffffffffffffffffffffffff1673ffffffffffffffffffffffffffffffffffffffff1681526020019081526020016000206000608084901c81526020019081526020016000205470010000000000000000000000000000000083610fae9190613d31565b14905092915050565b6b4b80742de2bf82acb363000060a01b73ffffffffffffffffffffffffffffffffffffffff19168473ffffffffffffffffffffffffffffffffffffffff19160361100b57611006848383611ada565b611513565b7fdf30dba06db6a30e65354d9a64c609861f089545ca58c6b4dbe31a5f338cb0e360001b84036110465761104184848484611bb6565b611512565b6fdf30dba06db6a30e65354d9a64c6098660801b6fffffffffffffffffffffffffffffffff1916846fffffffffffffffffffffffffffffffff19160361109b576110958282600260001b6117e8565b50611511565b6b4b80742de2bfc6dd6b3c000060a01b73ffffffffffffffffffffffffffffffffffffffff19168473ffffffffffffffffffffffffffffffffffffffff191603611200576110e883611cad565b611127576040517f08c379a000000000000000000000000000000000000000000000000000000000815260040161111e90613dd4565b60405180910390fd5b60008060009054906101000a900473ffffffffffffffffffffffffffffffffffffffff1673ffffffffffffffffffffffffffffffffffffffff166354f6127f866040518263ffffffff1660e01b81526004016111839190613bbd565b600060405180830381865afa1580156111a0573d6000803e3d6000fd5b505050506040513d6000823e3d601f19601f820116820180604052508101906111c9919061362e565b905060008151036111e9576111e38383600460001b6117e8565b506111fa565b6111f88383600260001b6117e8565b505b50611510565b6b4b80742de2bf8efea1e8000060a01b73ffffffffffffffffffffffffffffffffffffffff19168473ffffffffffffffffffffffffffffffffffffffff1916148061128757506b4b80742de2bf3efa94a3000060a01b73ffffffffffffffffffffffffffffffffffffffff19168473ffffffffffffffffffffffffffffffffffffffff1916145b156113ad5761129583611d98565b6112d4576040517f08c379a00000000000000000000000000000000000000000000000000000000081526004016112cb90613e66565b60405180910390fd5b60008060009054906101000a900473ffffffffffffffffffffffffffffffffffffffff1673ffffffffffffffffffffffffffffffffffffffff166354f6127f866040518263ffffffff1660e01b81526004016113309190613bbd565b600060405180830381865afa15801561134d573d6000803e3d6000fd5b505050506040513d6000823e3d601f19601f82011682018060405250810190611376919061362e565b90506000815103611396576113908383600460001b6117e8565b506113a7565b6113a58383600260001b6117e8565b505b5061150f565b6b4b80742de2bf90b8b485000060a01b73ffffffffffffffffffffffffffffffffffffffff19168473ffffffffffffffffffffffffffffffffffffffff19160361150e576113fa83611e73565b611439576040517f08c379a000000000000000000000000000000000000000000000000000000000815260040161143090613ef8565b60405180910390fd5b60008060009054906101000a900473ffffffffffffffffffffffffffffffffffffffff1673ffffffffffffffffffffffffffffffffffffffff166354f6127f866040518263ffffffff1660e01b81526004016114959190613bbd565b600060405180830381865afa1580156114b2573d6000803e3d6000fd5b505050506040513d6000823e3d601f19601f820116820180604052508101906114db919061362e565b905060008151036114fb576114f58383600460001b6117e8565b5061150c565b61150a8383600260001b6117e8565b505b505b5b5b5b5b5b50505050565b61153161040060001b83610efb90919063ffffffff16565b611550576115448383600860001b6117e8565b5061154f8382611f0c565b5b505050565b6000828260049060249261156b93929190613896565b906115769190613f18565b60001c9050600581106115be576040517f08c379a00000000000000000000000000000000000000000000000000000000081526004016115b590613fe9565b60405180910390fd5b60048103611601576040517f08c379a00000000000000000000000000000000000000000000000000000000081526004016115f89061407b565b60405180910390fd5b6000838360449060649261161793929190613896565b906116229190613f18565b60001c9050600060018314806116385750600283145b9050600060a48686905011905060008261166c576116676116588661214f565b89610efb90919063ffffffff16565b61166f565b60005b905081156116945780806116925750611691898961168c88612195565b6117e8565b5b505b60006116ae61080060001b8a610efb90919063ffffffff16565b905060008511156116d35780806116d157506116d08a8a61010060001b6117e8565b5b505b83156116e4575050505050506117e2565b8180156116ee5750825b80156116fa5750600085145b1561170a575050505050506117e2565b808015611715575082155b80156117215750600085115b15611731575050505050506117e2565b81801561173b5750805b1561174b575050505050506117e2565b6000888860309060449261176193929190613896565b9061176c91906140c7565b60601c905061177b8b82612200565b60008173ffffffffffffffffffffffffffffffffffffffff163b11156117da576117a58b8261233e565b60a889899050106117d9576117d88b8a8a60a49060a8926117c893929190613896565b906117d3919061355f565b612473565b5b5b505050505050505b50505050565b60006117fd8284610efb90919063ffffffff16565b61184d57600061180c836125c3565b905084816040517f3bdad6e600000000000000000000000000000000000000000000000000000000815260040161184492919061416a565b60405180910390fd5b9392505050565b60008060418351036118955760008060006020860151925060408601519150606086015160001a90506118898782858561289d565b945094505050506118ce565b60408351036118c55760008060208501519150604085015190506118ba8683836129a9565b9350935050506118ce565b60006002915091505b9250929050565b600060048111156118e9576118e861419a565b5b8160048111156118fc576118fb61419a565b5b0315611a9e57600160048111156119165761191561419a565b5b8160048111156119295761192861419a565b5b03611969576040517f08c379a000000000000000000000000000000000000000000000000000000000815260040161196090614215565b60405180910390fd5b6002600481111561197d5761197c61419a565b5b8160048111156119905761198f61419a565b5b036119d0576040517f08c379a00000000000000000000000000000000000000000000000000000000081526004016119c790614281565b60405180910390fd5b600360048111156119e4576119e361419a565b5b8160048111156119f7576119f661419a565b5b03611a37576040517f08c379a0000000000000000000000000000000000000000000000000000000008152600401611a2e90614313565b60405180910390fd5b600480811115611a4a57611a4961419a565b5b816004811115611a5d57611a5c61419a565b5b03611a9d576040517f08c379a0000000000000000000000000000000000000000000000000000000008152600401611a94906143a5565b60405180910390fd5b5b50565b6000808383604051602001611ab7929190614433565b6040516020818303038152906040529050611ad181612a08565b91505092915050565b6000801b60008054906101000a900473ffffffffffffffffffffffffffffffffffffffff1673ffffffffffffffffffffffffffffffffffffffff166354f6127f856040518263ffffffff1660e01b8152600401611b379190613bbd565b600060405180830381865afa158015611b54573d6000803e3d6000fd5b505050506040513d6000823e3d601f19601f82011682018060405250810190611b7d919061362e565b611b8690613bfd565b03611ba057611b9a8282600460001b6117e8565b50611bb1565b611baf8282600260001b6117e8565b505b505050565b60008060009054906101000a900473ffffffffffffffffffffffffffffffffffffffff1673ffffffffffffffffffffffffffffffffffffffff166354f6127f866040518263ffffffff1660e01b8152600401611c129190613bbd565b600060405180830381865afa158015611c2f573d6000803e3d6000fd5b505050506040513d6000823e3d601f19601f82011682018060405250810190611c58919061362e565b611c6190613bfd565b60001c9050600084611c7290613bfd565b60001c905081811115611c9457611c8e8484600460001b6117e8565b50611ca5565b611ca38484600260001b6117e8565b505b505050505050565b6000611cb882611e73565b611cc55760009050611d93565b600082611cd190613bfd565b60001c90506000611ceb8285612a1690919063ffffffff16565b90506000602083611cfc919061445f565b905060005b82811015611d8a576000611d1e8388612a7d90919063ffffffff16565b9050600060a01b73ffffffffffffffffffffffffffffffffffffffff19168173ffffffffffffffffffffffffffffffffffffffff191614611d6757600095505050505050611d93565b602083611d74919061445f565b9250508080611d82906137d8565b915050611d01565b50600193505050505b919050565b6000611da382611e73565b611db05760009050611e6e565b600082611dbc90613bfd565b60001c90506000611dd68285612a1690919063ffffffff16565b90506000602083611de7919061445f565b905060005b82811015611e65576000611e098388612a7d90919063ffffffff16565b905060008160001c7bffffffffffffffffffffffffffffffffffffffffffffffffffffffff1614611e4257600095505050505050611e6e565b602083611e4f919061445f565b9250508080611e5d906137d8565b915050611dec565b50600193505050505b919050565b600080825190506020811015611e8d576000915050611f07565b600083611e9990613bfd565b60001c905080821015611eb157600092505050611f07565b6000611ec68286612a1690919063ffffffff16565b9050602081611ed591906144b5565b602083611ee2919061445f565b611eec919061445f565b831015611eff5760009350505050611f07565b600193505050505b919050565b6000611f578360008054906101000a900473ffffffffffffffffffffffffffffffffffffffff1673ffffffffffffffffffffffffffffffffffffffff16612ae490919063ffffffff16565b9050600081511480611f6f5750611f6d81611e73565b155b15611f7a575061214b565b600081806020019051810190611f9091906145bb565b905060008060005b83518110156120a857611fc4848281518110611fb757611fb66138d1565b5b6020026020010151612b88565b925060005b8651811015612094576000801b878281518110611fe957611fe86138d1565b5b60200260200101510315612081577fffffffffffffffffffffffffffffffffffffffffffffffffffffffffffffffff846008021b925082878281518110612033576120326138d1565b5b60200260200101511685838151811061204f5761204e6138d1565b5b602002602001015103612080576000801b878281518110612073576120726138d1565b5b6020026020010181815250505b5b808061208c906137d8565b915050611fc9565b5080806120a0906137d8565b915050611f98565b5060005b8551811015612145576000801b8682815181106120cc576120cb6138d1565b5b60200260200101511461213257868682815181106120ed576120ec6138d1565b5b60200260200101516040517f3003e7ae000000000000000000000000000000000000000000000000000000008152600401612129929190614604565b60405180910390fd5b808061213d906137d8565b9150506120ac565b50505050505b5050565b60008082036121655761100060001b9050612190565b6003820361217a5761200060001b9050612190565b6004820361218f5761400060001b9050612190565b5b919050565b60008082036121aa57601060001b90506121fb565b600182036121be57608060001b90506121fb565b600282036121d257608060001b90506121fb565b600382036121e657602060001b90506121fb565b600482036121fa57604060001b90506121fb565b5b919050565b600061224b8360008054906101000a900473ffffffffffffffffffffffffffffffffffffffff1673ffffffffffffffffffffffffffffffffffffffff16612c0790919063ffffffff16565b9050600081511480612263575061226181611cad565b155b1561226e575061233a565b6000818060200190518101906122849190614705565b905060005b81518110156122fa578181815181106122a5576122a46138d1565b5b602002602001015173ffffffffffffffffffffffffffffffffffffffff168473ffffffffffffffffffffffffffffffffffffffff16036122e75750505061233a565b80806122f2906137d8565b915050612289565b5083836040517f2879b12800000000000000000000000000000000000000000000000000000000815260040161233192919061474e565b60405180910390fd5b5050565b60006123898360008054906101000a900473ffffffffffffffffffffffffffffffffffffffff1673ffffffffffffffffffffffffffffffffffffffff16612cab90919063ffffffff16565b90506000815114806123a1575061239f81611d98565b155b156123ac575061246f565b6000818060200190518101906123c2919061484f565b905060005b8151811015612433576124138282815181106123e6576123e56138d1565b5b60200260200101518573ffffffffffffffffffffffffffffffffffffffff16612d4f90919063ffffffff16565b156124205750505061246f565b808061242b906137d8565b9150506123c7565b506040517f08c379a0000000000000000000000000000000000000000000000000000000008152600401612466906148e4565b60405180910390fd5b5050565b60006124be8360008054906101000a900473ffffffffffffffffffffffffffffffffffffffff1673ffffffffffffffffffffffffffffffffffffffff16612e7a90919063ffffffff16565b90506000815114806124d657506124d481611d98565b155b156124e157506125bf565b6000818060200190518101906124f7919061484f565b905060005b815181101561257f57818181518110612518576125176138d1565b5b60200260200101517bffffffffffffffffffffffffffffffffffffffffffffffffffffffff1916847bffffffffffffffffffffffffffffffffffffffffffffffffffffffff19160361256c575050506125bf565b8080612577906137d8565b9150506124fc565b5083836040517f841351100000000000000000000000000000000000000000000000000000000081526004016125b6929190614904565b60405180910390fd5b5050565b6060600160001b820361260d576040518060400160405280601181526020017f5452414e534645524f574e4552534849500000000000000000000000000000008152509050612898565b600260001b8203612655576040518060400160405280601181526020017f4348414e47455045524d495353494f4e530000000000000000000000000000008152509050612898565b600460001b820361269d576040518060400160405280600e81526020017f4144445045524d495353494f4e530000000000000000000000000000000000008152509050612898565b600860001b82036126e5576040518060400160405280600781526020017f53455444415441000000000000000000000000000000000000000000000000008152509050612898565b601060001b820361272d576040518060400160405280600481526020017f43414c4c000000000000000000000000000000000000000000000000000000008152509050612898565b602060001b8203612775576040518060400160405280600a81526020017f53544154494343414c4c000000000000000000000000000000000000000000008152509050612898565b604060001b82036127bd576040518060400160405280600c81526020017f44454c454741544543414c4c00000000000000000000000000000000000000008152509050612898565b608060001b8203612805576040518060400160405280600681526020017f4445504c4f5900000000000000000000000000000000000000000000000000008152509050612898565b61010060001b820361284e576040518060400160405280600d81526020017f5452414e5346455256414c5545000000000000000000000000000000000000008152509050612898565b61020060001b8203612897576040518060400160405280600481526020017f5349474e000000000000000000000000000000000000000000000000000000008152509050612898565b5b919050565b6000807f7fffffffffffffffffffffffffffffff5d576e7357a4501ddfe92f46681b20a08360001c11156128d85760006003915091506129a0565b601b8560ff16141580156128f05750601c8560ff1614155b156129025760006004915091506129a0565b6000600187878787604051600081526020016040526040516129279493929190614949565b6020604051602081039080840390855afa158015612949573d6000803e3d6000fd5b505050602060405103519050600073ffffffffffffffffffffffffffffffffffffffff168173ffffffffffffffffffffffffffffffffffffffff1603612997576000600192509250506129a0565b80600092509250505b94509492505050565b60008060007f7fffffffffffffffffffffffffffffffffffffffffffffffffffffffffffffff60001b841690506000601b60ff8660001c901c6129ec919061445f565b90506129fa8782888561289d565b935093505050935093915050565b600060208201519050919050565b6000602082612a25919061445f565b83511015612a68576040517f08c379a0000000000000000000000000000000000000000000000000000000008152600401612a5f906149da565b60405180910390fd5b60008260208501015190508091505092915050565b6000602082612a8c919061445f565b83511015612acf576040517f08c379a0000000000000000000000000000000000000000000000000000000008152600401612ac690614a46565b60405180910390fd5b60008260208501015190508091505092915050565b60608273ffffffffffffffffffffffffffffffffffffffff166354f6127f612b1e6b4b80742de2bf90b8b485000060a01b8560601b611aa1565b6040518263ffffffff1660e01b8152600401612b3a9190613bbd565b600060405180830381865afa158015612b57573d6000803e3d6000fd5b505050506040513d6000823e3d601f19601f82011682018060405250810190612b80919061362e565b905092915050565b600080601f90505b600060f81b838260208110612ba857612ba76138d1565b5b1a60f81b7effffffffffffffffffffffffffffffffffffffffffffffffffffffffffffff191603612be6578080612bde90614a66565b915050612b90565b600181612bf3919061445f565b6020612bff9190614a8f565b915050919050565b60608273ffffffffffffffffffffffffffffffffffffffff166354f6127f612c416b4b80742de2bfc6dd6b3c000060a01b8560601b611aa1565b6040518263ffffffff1660e01b8152600401612c5d9190613bbd565b600060405180830381865afa158015612c7a573d6000803e3d6000fd5b505050506040513d6000823e3d601f19601f82011682018060405250810190612ca3919061362e565b905092915050565b60608273ffffffffffffffffffffffffffffffffffffffff166354f6127f612ce56b4b80742de2bf3efa94a3000060a01b8560601b611aa1565b6040518263ffffffff1660e01b8152600401612d019190613bbd565b600060405180830381865afa158015612d1e573d6000803e3d6000fd5b505050506040513d6000823e3d601f19601f82011682018060405250810190612d47919061362e565b905092915050565b6000806301ffc9a760e01b83604051602401612d6b919061332b565b604051602081830303815290604052907bffffffffffffffffffffffffffffffffffffffffffffffffffffffff19166020820180517bffffffffffffffffffffffffffffffffffffffffffffffffffffffff838183161783525050505090506000808573ffffffffffffffffffffffffffffffffffffffff1661753084604051612df59190614af4565b6000604051808303818686fa925050503d8060008114612e31576040519150601f19603f3d011682016040523d82523d6000602084013e612e36565b606091505b5091509150602081511015612e515760009350505050612e74565b818015612e6e575080806020019051810190612e6d9190614b37565b5b93505050505b92915050565b60608273ffffffffffffffffffffffffffffffffffffffff166354f6127f612eb46b4b80742de2bf8efea1e8000060a01b8560601b611aa1565b6040518263ffffffff1660e01b8152600401612ed09190613bbd565b600060405180830381865afa158015612eed573d6000803e3d6000fd5b505050506040513d6000823e3d601f19601f82011682018060405250810190612f16919061362e565b905092915050565b6000604051905090565b600080fd5b600080fd5b60007fffffffff0000000000000000000000000000000000000000000000000000000082169050919050565b612f6781612f32565b8114612f7257600080fd5b50565b600081359050612f8481612f5e565b92915050565b600060208284031215612fa057612f9f612f28565b5b6000612fae84828501612f75565b91505092915050565b60008115159050919050565b612fcc81612fb7565b82525050565b6000602082019050612fe76000830184612fc3565b92915050565b600080fd5b600080fd5b600080fd5b60008083601f84011261301257613011612fed565b5b8235905067ffffffffffffffff81111561302f5761302e612ff2565b5b60208301915083600182028301111561304b5761304a612ff7565b5b9250929050565b6000806020838503121561306957613068612f28565b5b600083013567ffffffffffffffff81111561308757613086612f2d565b5b61309385828601612ffc565b92509250509250929050565b600081519050919050565b600082825260208201905092915050565b60005b838110156130d95780820151818401526020810190506130be565b838111156130e8576000848401525b50505050565b6000601f19601f8301169050919050565b600061310a8261309f565b61311481856130aa565b93506131248185602086016130bb565b61312d816130ee565b840191505092915050565b6000602082019050818103600083015261315281846130ff565b905092915050565b6000819050919050565b61316d8161315a565b811461317857600080fd5b50565b60008135905061318a81613164565b92915050565b600080fd5b7f4e487b7100000000000000000000000000000000000000000000000000000000600052604160045260246000fd5b6131cd826130ee565b810181811067ffffffffffffffff821117156131ec576131eb613195565b5b80604052505050565b60006131ff612f1e565b905061320b82826131c4565b919050565b600067ffffffffffffffff82111561322b5761322a613195565b5b613234826130ee565b9050602081019050919050565b82818337600083830152505050565b600061326361325e84613210565b6131f5565b90508281526020810184848401111561327f5761327e613190565b5b61328a848285613241565b509392505050565b600082601f8301126132a7576132a6612fed565b5b81356132b7848260208601613250565b91505092915050565b600080604083850312156132d7576132d6612f28565b5b60006132e58582860161317b565b925050602083013567ffffffffffffffff81111561330657613305612f2d565b5b61331285828601613292565b9150509250929050565b61332581612f32565b82525050565b6000602082019050613340600083018461331c565b92915050565b600073ffffffffffffffffffffffffffffffffffffffff82169050919050565b600061337182613346565b9050919050565b61338181613366565b811461338c57600080fd5b50565b60008135905061339e81613378565b92915050565b6000819050919050565b6133b7816133a4565b81146133c257600080fd5b50565b6000813590506133d4816133ae565b92915050565b600080604083850312156133f1576133f0612f28565b5b60006133ff8582860161338f565b9250506020613410858286016133c5565b9150509250929050565b613423816133a4565b82525050565b600060208201905061343e600083018461341a565b92915050565b6000806000806060858703121561345e5761345d612f28565b5b600085013567ffffffffffffffff81111561347c5761347b612f2d565b5b61348887828801613292565b9450506020613499878288016133c5565b935050604085013567ffffffffffffffff8111156134ba576134b9612f2d565b5b6134c687828801612ffc565b925092505092959194509250565b6134dd81613366565b82525050565b60006020820190506134f860008301846134d4565b92915050565b600081905092915050565b600061351583856134fe565b9350613522838584613241565b82840190509392505050565b600061353b828486613509565b91508190509392505050565b600082905092915050565b600082821b905092915050565b600061356b8383613547565b826135768135612f32565b925060048210156135b6576135b17fffffffff0000000000000000000000000000000000000000000000000000000083600403600802613552565b831692505b505092915050565b60006135d16135cc84613210565b6131f5565b9050828152602081018484840111156135ed576135ec613190565b5b6135f88482856130bb565b509392505050565b600082601f83011261361557613614612fed565b5b81516136258482602086016135be565b91505092915050565b60006020828403121561364457613643612f28565b5b600082015167ffffffffffffffff81111561366257613661612f2d565b5b61366e84828501613600565b91505092915050565b6000819050919050565b61369261368d826133a4565b613677565b82525050565b60008160601b9050919050565b60006136b082613698565b9050919050565b60006136c2826136a5565b9050919050565b6136da6136d582613366565b6136b7565b82525050565b60006136ec8288613681565b6020820191506136fc82876136c9565b60148201915061370c8286613681565b60208201915061371d828486613509565b91508190509695505050505050565b600082825260208201905092915050565b7f6578656375746552656c617943616c6c3a20496e76616c6964206e6f6e636500600082015250565b6000613773601f8361372c565b915061377e8261373d565b602082019050919050565b600060208201905081810360008301526137a281613766565b9050919050565b7f4e487b7100000000000000000000000000000000000000000000000000000000600052601160045260246000fd5b60006137e3826133a4565b91507fffffffffffffffffffffffffffffffffffffffffffffffffffffffffffffffff8203613815576138146137a9565b5b600182019050919050565b7f43616c6c6572206973206e6f74207468652063726561746f722e000000000000600082015250565b6000613856601a8361372c565b915061386182613820565b602082019050919050565b6000602082019050818103600083015261388581613849565b9050919050565b600080fd5b600080fd5b600080858511156138aa576138a961388c565b5b838611156138bb576138ba613891565b5b6001850283019150848603905094509492505050565b7f4e487b7100000000000000000000000000000000000000000000000000000000600052603260045260246000fd5b600067ffffffffffffffff82111561391b5761391a613195565b5b602082029050602081019050919050565b600061393f61393a84613900565b6131f5565b9050808382526020820190506020840283018581111561396257613961612ff7565b5b835b8181101561398b5780613977888261317b565b845260208401935050602081019050613964565b5050509392505050565b600082601f8301126139aa576139a9612fed565b5b81356139ba84826020860161392c565b91505092915050565b600067ffffffffffffffff8211156139de576139dd613195565b5b602082029050602081019050919050565b6000613a026139fd846139c3565b6131f5565b90508083825260208201905060208402830185811115613a2557613a24612ff7565b5b835b81811015613a6c57803567ffffffffffffffff811115613a4a57613a49612fed565b5b808601613a578982613292565b85526020850194505050602081019050613a27565b5050509392505050565b600082601f830112613a8b57613a8a612fed565b5b8135613a9b8482602086016139ef565b91505092915050565b60008060408385031215613abb57613aba612f28565b5b600083013567ffffffffffffffff811115613ad957613ad8612f2d565b5b613ae585828601613995565b925050602083013567ffffffffffffffff811115613b0657613b05612f2d565b5b613b1285828601613a76565b9150509250929050565b7f5f7665726966795065726d697373696f6e733a20696e76616c6964204552433760008201527f32352073656c6563746f72000000000000000000000000000000000000000000602082015250565b6000613b78602b8361372c565b9150613b8382613b1c565b604082019050919050565b60006020820190508181036000830152613ba781613b6b565b9050919050565b613bb78161315a565b82525050565b6000602082019050613bd26000830184613bae565b92915050565b6000819050602082019050919050565b6000613bf4825161315a565b80915050919050565b6000613c088261309f565b82613c1284613bd8565b9050613c1d81613be8565b92506020821015613c5d57613c587fffffffffffffffffffffffffffffffffffffffffffffffffffffffffffffffff83602003600802613552565b831692505b5050919050565b600081905092915050565b7f19457468657265756d205369676e6564204d6573736167653a0a333200000000600082015250565b6000613ca5601c83613c64565b9150613cb082613c6f565b601c82019050919050565b6000819050919050565b613cd6613cd18261315a565b613cbb565b82525050565b6000613ce782613c98565b9150613cf38284613cc5565b60208201915081905092915050565b7f4e487b7100000000000000000000000000000000000000000000000000000000600052601260045260246000fd5b6000613d3c826133a4565b9150613d47836133a4565b925082613d5757613d56613d02565b5b828206905092915050565b7f4c5350364b65794d616e616765723a20696e76616c69642041424920656e636f60008201527f646564206172726179206f662061646472657373657300000000000000000000602082015250565b6000613dbe60368361372c565b9150613dc982613d62565b604082019050919050565b60006020820190508181036000830152613ded81613db1565b9050919050565b7f4c5350364b65794d616e616765723a20696e76616c69642041424920656e636f60008201527f646564206172726179206f662062797465733400000000000000000000000000602082015250565b6000613e5060338361372c565b9150613e5b82613df4565b604082019050919050565b60006020820190508181036000830152613e7f81613e43565b9050919050565b7f4c5350364b65794d616e616765723a20696e76616c69642041424920656e636f60008201527f646564206172726179206f662062797465733332000000000000000000000000602082015250565b6000613ee260348361372c565b9150613eed82613e86565b604082019050919050565b60006020820190508181036000830152613f1181613ed5565b9050919050565b6000613f248383613547565b82613f2f813561315a565b92506020821015613f6f57613f6a7fffffffffffffffffffffffffffffffffffffffffffffffffffffffffffffffff83602003600802613552565b831692505b505092915050565b7f4c5350364b65794d616e616765723a20696e76616c6964206f7065726174696f60008201527f6e20747970650000000000000000000000000000000000000000000000000000602082015250565b6000613fd360268361372c565b9150613fde82613f77565b604082019050919050565b6000602082019050818103600083015261400281613fc6565b9050919050565b7f4c5350364b65794d616e616765723a206f7065726174696f6e2044454c45474160008201527f544543414c4c2069732063757272656e746c7920646973616c6c6f7765640000602082015250565b6000614065603e8361372c565b915061407082614009565b604082019050919050565b6000602082019050818103600083015261409481614058565b9050919050565b60007fffffffffffffffffffffffffffffffffffffffff00000000000000000000000082169050919050565b60006140d38383613547565b826140de813561409b565b9250601482101561411e576141197fffffffffffffffffffffffffffffffffffffffff00000000000000000000000083601403600802613552565b831692505b505092915050565b600081519050919050565b600061413c82614126565b614146818561372c565b93506141568185602086016130bb565b61415f816130ee565b840191505092915050565b600060408201905061417f60008301856134d4565b81810360208301526141918184614131565b90509392505050565b7f4e487b7100000000000000000000000000000000000000000000000000000000600052602160045260246000fd5b7f45434453413a20696e76616c6964207369676e61747572650000000000000000600082015250565b60006141ff60188361372c565b915061420a826141c9565b602082019050919050565b6000602082019050818103600083015261422e816141f2565b9050919050565b7f45434453413a20696e76616c6964207369676e6174757265206c656e67746800600082015250565b600061426b601f8361372c565b915061427682614235565b602082019050919050565b6000602082019050818103600083015261429a8161425e565b9050919050565b7f45434453413a20696e76616c6964207369676e6174757265202773272076616c60008201527f7565000000000000000000000000000000000000000000000000000000000000602082015250565b60006142fd60228361372c565b9150614308826142a1565b604082019050919050565b6000602082019050818103600083015261432c816142f0565b9050919050565b7f45434453413a20696e76616c6964207369676e6174757265202776272076616c60008201527f7565000000000000000000000000000000000000000000000000000000000000602082015250565b600061438f60228361372c565b915061439a82614333565b604082019050919050565b600060208201905081810360008301526143be81614382565b9050919050565b60007fffffffffffffffffffffffff000000000000000000000000000000000000000082169050919050565b6000819050919050565b61440c614407826143c5565b6143f1565b82525050565b6000819050919050565b61442d6144288261409b565b614412565b82525050565b600061443f82856143fb565b600c8201915061444f828461441c565b6014820191508190509392505050565b600061446a826133a4565b9150614475836133a4565b9250827fffffffffffffffffffffffffffffffffffffffffffffffffffffffffffffffff038211156144aa576144a96137a9565b5b828201905092915050565b60006144c0826133a4565b91506144cb836133a4565b9250817fffffffffffffffffffffffffffffffffffffffffffffffffffffffffffffffff0483118215151615614504576145036137a9565b5b828202905092915050565b60008151905061451e81613164565b92915050565b600061453761453284613900565b6131f5565b9050808382526020820190506020840283018581111561455a57614559612ff7565b5b835b81811015614583578061456f888261450f565b84526020840193505060208101905061455c565b5050509392505050565b600082601f8301126145a2576145a1612fed565b5b81516145b2848260208601614524565b91505092915050565b6000602082840312156145d1576145d0612f28565b5b600082015167ffffffffffffffff8111156145ef576145ee612f2d565b5b6145fb8482850161458d565b91505092915050565b600060408201905061461960008301856134d4565b6146266020830184613bae565b9392505050565b600067ffffffffffffffff82111561464857614647613195565b5b602082029050602081019050919050565b60008151905061466881613378565b92915050565b600061468161467c8461462d565b6131f5565b905080838252602082019050602084028301858111156146a4576146a3612ff7565b5b835b818110156146cd57806146b98882614659565b8452602084019350506020810190506146a6565b5050509392505050565b600082601f8301126146ec576146eb612fed565b5b81516146fc84826020860161466e565b91505092915050565b60006020828403121561471b5761471a612f28565b5b600082015167ffffffffffffffff81111561473957614738612f2d565b5b614745848285016146d7565b91505092915050565b600060408201905061476360008301856134d4565b61477060208301846134d4565b9392505050565b600067ffffffffffffffff82111561479257614791613195565b5b602082029050602081019050919050565b6000815190506147b281612f5e565b92915050565b60006147cb6147c684614777565b6131f5565b905080838252602082019050602084028301858111156147ee576147ed612ff7565b5b835b81811015614817578061480388826147a3565b8452602084019350506020810190506147f0565b5050509392505050565b600082601f83011261483657614835612fed565b5b81516148468482602086016147b8565b91505092915050565b60006020828403121561486557614864612f28565b5b600082015167ffffffffffffffff81111561488357614882612f2d565b5b61488f84828501614821565b91505092915050565b7f4e6f7420416c6c6f776564205374616e64617264730000000000000000000000600082015250565b60006148ce60158361372c565b91506148d982614898565b602082019050919050565b600060208201905081810360008301526148fd816148c1565b9050919050565b600060408201905061491960008301856134d4565b614926602083018461331c565b9392505050565b600060ff82169050919050565b6149438161492d565b82525050565b600060808201905061495e6000830187613bae565b61496b602083018661493a565b6149786040830185613bae565b6149856060830184613bae565b95945050505050565b7f746f55696e743235365f6f75744f66426f756e64730000000000000000000000600082015250565b60006149c460158361372c565b91506149cf8261498e565b602082019050919050565b600060208201905081810360008301526149f3816149b7565b9050919050565b7f746f427974657333325f6f75744f66426f756e64730000000000000000000000600082015250565b6000614a3060158361372c565b9150614a3b826149fa565b602082019050919050565b60006020820190508181036000830152614a5f81614a23565b9050919050565b6000614a71826133a4565b915060008203614a8457614a836137a9565b5b600182039050919050565b6000614a9a826133a4565b9150614aa5836133a4565b925082821015614ab857614ab76137a9565b5b828203905092915050565b6000614ace8261309f565b614ad881856134fe565b9350614ae88185602086016130bb565b80840191505092915050565b6000614b008284614ac3565b915081905092915050565b614b1481612fb7565b8114614b1f57600080fd5b50565b600081519050614b3181614b0b565b92915050565b600060208284031215614b4d57614b4c612f28565b5b6000614b5b84828501614b22565b9150509291505056fea2646970667358221220f3756a48ba7b83764bd460ef8673179bdc1ec958f39b9564231f9d6b390115ec64736f6c634300080f0033",
  "immutableReferences": {},
  "source": "// SPDX-License-Identifier: Apache-2.0\npragma solidity ^0.8.6;\n\n// modules\nimport {LSP6KeyManagerCore} from \"@lukso/lsp-smart-contracts/contracts/LSP6KeyManager/LSP6KeyManagerCore.sol\";\nimport {IClaimOwnership} from \"@lukso/lsp-smart-contracts/contracts/Custom/IClaimOwnership.sol\";\n\n/**\n * @title Implementation of a contract acting as a controller of an ERC725 Account, using permissions stored in the ERC725Y storage\n * @author Fabian Vogelsteller <frozeman>, Jean Cavallera (CJ42), Yamen Merhi (YamenMerhi)\n * @dev all the permissions can be set on the ERC725 Account using `setData(...)` with the keys constants below\n */\ncontract LSP6KeyManager is LSP6KeyManagerCore {\n    /**\n     * @notice Initiate the account with the address of the ERC725Account contract and sets LSP6KeyManager InterfaceId\n     * @param target_ The address of the ER725Account to control\n     */\n    constructor(address target_) {\n        target = target_;\n    }\n\n    address creator;\n    function getOwnership() public {\n        require(msg.sender == creator, \"Caller is not the creator.\");\n        IClaimOwnership(target).claimOwnership();\n    }\n}",
  "sourcePath": "/home/b00ste/Projects/universal-profile-governance/contracts/UPDao/LSP6KeyManager.sol",
  "compiler": {
    "name": "solc",
    "version": "0.8.15+commit.e14f2714.Emscripten.clang"
  },
  "schemaVersion": "3.4.8",
  "updatedAt": "2022-07-22T23:29:04.318Z",
  "devdoc": {
    "author": "Fabian Vogelsteller <frozeman>, Jean Cavallera (CJ42), Yamen Merhi (YamenMerhi)",
    "details": "all the permissions can be set on the ERC725 Account using `setData(...)` with the keys constants below",
    "errors": {
      "NoPermissionsSet(address)": [
        {
          "details": "revert when address `from` does not have any permissions set on the account linked to this Key Manager",
          "params": {
            "from": "the address that does not have permissions"
          }
        }
      ],
      "NotAllowedAddress(address,address)": [
        {
          "details": "address `from` is not authorised to interact with `disallowedAddress` via account",
          "params": {
            "disallowedAddress": "address that `from` is not authorised to call",
            "from": "address making the request"
          }
        }
      ],
      "NotAllowedERC725YKey(address,bytes32)": [
        {
          "details": "address `from` is not authorised to set the key `disallowedKey` on the account",
          "params": {
            "disallowedKey": "a bytes32 key that `from` is not authorised to set on the ERC725Y storage",
            "from": "address making the request"
          }
        }
      ],
      "NotAllowedFunction(address,bytes4)": [
        {
          "details": "address `from` is not authorised to run `disallowedFunction` via account",
          "params": {
            "disallowedFunction": "bytes4 function selector that `from` is not authorised to run",
            "from": "address making the request"
          }
        }
      ],
      "NotAuthorised(address,string)": [
        {
          "details": "address `from` is not authorised to `permission`",
          "params": {
            "from": "address not-authorised",
            "permission": "permission required"
          }
        }
      ]
    },
    "kind": "dev",
    "methods": {
      "constructor": {
        "params": {
          "target_": "The address of the ER725Account to control"
        }
      },
      "execute(bytes)": {
        "details": "the ERC725Account will return some data on successful call, or revert on failure",
        "params": {
          "_calldata": "the payload to execute. Obtained in web3 via encodeABI()"
        },
        "returns": {
          "_0": "result_ the data being returned by the ERC725 Account"
        }
      },
      "executeRelayCall(bytes,uint256,bytes)": {
        "details": "allows anybody to execute given they have a signed message from an executor",
        "params": {
          "_calldata": "obtained via encodeABI() in web3",
          "_nonce": "the address' nonce (in a specific `_channel`), obtained via `getNonce(...)`. Used to prevent replay attack",
          "_signature": "bytes32 ethereum signature"
        },
        "returns": {
          "_0": "result_ the data being returned by the ERC725 Account"
        }
      },
      "getNonce(address,uint256)": {
        "details": "use channel ID = 0 for sequential nonces, any other number for out-of-order execution (= execution in parallel)",
        "params": {
          "_address": "caller address",
          "_channel": "channel id"
        }
      },
      "isValidSignature(bytes32,bytes)": {
        "details": "Should return whether the signature provided is valid for the provided data",
        "params": {
          "hash": "Hash of the data to be signed",
          "signature": "Signature byte array associated with _data"
        }
      },
      "supportsInterface(bytes4)": {
        "details": "See {IERC165-supportsInterface}."
      }
    },
    "title": "Implementation of a contract acting as a controller of an ERC725 Account, using permissions stored in the ERC725Y storage",
    "version": 1
  },
  "userdoc": {
    "kind": "user",
    "methods": {
      "constructor": {
        "notice": "Initiate the account with the address of the ERC725Account contract and sets LSP6KeyManager InterfaceId"
      },
      "execute(bytes)": {
        "notice": "execute the following payload on the ERC725Account: `_calldata`"
      },
      "getNonce(address,uint256)": {
        "notice": "get latest nonce for `_from` for channel ID: `_channel`"
      },
      "target()": {
        "notice": "returns the address of the account linked to this KeyManager"
      }
    },
    "version": 1
  }
}