{
  "contractName": "LSP8IdentifiableDigitalAsset",
  "abi": [
    {
      "inputs": [
        {
          "internalType": "string",
          "name": "name_",
          "type": "string"
        },
        {
          "internalType": "string",
          "name": "symbol_",
          "type": "string"
        },
        {
          "internalType": "address",
          "name": "newOwner_",
          "type": "address"
        }
      ],
      "stateMutability": "nonpayable",
      "type": "constructor"
    },
    {
      "inputs": [],
      "name": "LSP8CannotSendToAddressZero",
      "type": "error"
    },
    {
      "inputs": [],
      "name": "LSP8CannotUseAddressZeroAsOperator",
      "type": "error"
    },
    {
      "inputs": [],
      "name": "LSP8InvalidTransferBatch",
      "type": "error"
    },
    {
      "inputs": [
        {
          "internalType": "bytes32",
          "name": "tokenId",
          "type": "bytes32"
        }
      ],
      "name": "LSP8NonExistentTokenId",
      "type": "error"
    },
    {
      "inputs": [
        {
          "internalType": "bytes32",
          "name": "tokenId",
          "type": "bytes32"
        },
        {
          "internalType": "address",
          "name": "caller",
          "type": "address"
        }
      ],
      "name": "LSP8NotTokenOperator",
      "type": "error"
    },
    {
      "inputs": [
        {
          "internalType": "address",
          "name": "tokenOwner",
          "type": "address"
        },
        {
          "internalType": "bytes32",
          "name": "tokenId",
          "type": "bytes32"
        },
        {
          "internalType": "address",
          "name": "caller",
          "type": "address"
        }
      ],
      "name": "LSP8NotTokenOwner",
      "type": "error"
    },
    {
      "inputs": [
        {
          "internalType": "address",
          "name": "tokenReceiver",
          "type": "address"
        }
      ],
      "name": "LSP8NotifyTokenReceiverContractMissingLSP1Interface",
      "type": "error"
    },
    {
      "inputs": [
        {
          "internalType": "address",
          "name": "tokenReceiver",
          "type": "address"
        }
      ],
      "name": "LSP8NotifyTokenReceiverIsEOA",
      "type": "error"
    },
    {
      "anonymous": false,
      "inputs": [
        {
          "indexed": true,
          "internalType": "address",
          "name": "operator",
          "type": "address"
        },
        {
          "indexed": true,
          "internalType": "address",
          "name": "tokenOwner",
          "type": "address"
        },
        {
          "indexed": true,
          "internalType": "bytes32",
          "name": "tokenId",
          "type": "bytes32"
        }
      ],
      "name": "AuthorizedOperator",
      "type": "event"
    },
    {
      "anonymous": false,
      "inputs": [
        {
          "indexed": true,
          "internalType": "bytes32",
          "name": "dataKey",
          "type": "bytes32"
        }
      ],
      "name": "DataChanged",
      "type": "event"
    },
    {
      "anonymous": false,
      "inputs": [
        {
          "indexed": true,
          "internalType": "address",
          "name": "previousOwner",
          "type": "address"
        },
        {
          "indexed": true,
          "internalType": "address",
          "name": "newOwner",
          "type": "address"
        }
      ],
      "name": "OwnershipTransferred",
      "type": "event"
    },
    {
      "anonymous": false,
      "inputs": [
        {
          "indexed": true,
          "internalType": "address",
          "name": "operator",
          "type": "address"
        },
        {
          "indexed": true,
          "internalType": "address",
          "name": "tokenOwner",
          "type": "address"
        },
        {
          "indexed": true,
          "internalType": "bytes32",
          "name": "tokenId",
          "type": "bytes32"
        }
      ],
      "name": "RevokedOperator",
      "type": "event"
    },
    {
      "anonymous": false,
      "inputs": [
        {
          "indexed": false,
          "internalType": "address",
          "name": "operator",
          "type": "address"
        },
        {
          "indexed": true,
          "internalType": "address",
          "name": "from",
          "type": "address"
        },
        {
          "indexed": true,
          "internalType": "address",
          "name": "to",
          "type": "address"
        },
        {
          "indexed": true,
          "internalType": "bytes32",
          "name": "tokenId",
          "type": "bytes32"
        },
        {
          "indexed": false,
          "internalType": "bool",
          "name": "force",
          "type": "bool"
        },
        {
          "indexed": false,
          "internalType": "bytes",
          "name": "data",
          "type": "bytes"
        }
      ],
      "name": "Transfer",
      "type": "event"
    },
    {
      "inputs": [
        {
          "internalType": "address",
          "name": "operator",
          "type": "address"
        },
        {
          "internalType": "bytes32",
          "name": "tokenId",
          "type": "bytes32"
        }
      ],
      "name": "authorizeOperator",
      "outputs": [],
      "stateMutability": "nonpayable",
      "type": "function"
    },
    {
      "inputs": [
        {
          "internalType": "address",
          "name": "tokenOwner",
          "type": "address"
        }
      ],
      "name": "balanceOf",
      "outputs": [
        {
          "internalType": "uint256",
          "name": "",
          "type": "uint256"
        }
      ],
      "stateMutability": "view",
      "type": "function"
    },
    {
      "inputs": [
        {
          "internalType": "bytes32[]",
          "name": "dataKeys",
          "type": "bytes32[]"
        }
      ],
      "name": "getData",
      "outputs": [
        {
          "internalType": "bytes[]",
          "name": "dataValues",
          "type": "bytes[]"
        }
      ],
      "stateMutability": "view",
      "type": "function"
    },
    {
      "inputs": [
        {
          "internalType": "bytes32",
          "name": "dataKey",
          "type": "bytes32"
        }
      ],
      "name": "getData",
      "outputs": [
        {
          "internalType": "bytes",
          "name": "dataValue",
          "type": "bytes"
        }
      ],
      "stateMutability": "view",
      "type": "function"
    },
    {
      "inputs": [
        {
          "internalType": "bytes32",
          "name": "tokenId",
          "type": "bytes32"
        }
      ],
      "name": "getOperatorsOf",
      "outputs": [
        {
          "internalType": "address[]",
          "name": "",
          "type": "address[]"
        }
      ],
      "stateMutability": "view",
      "type": "function"
    },
    {
      "inputs": [
        {
          "internalType": "address",
          "name": "operator",
          "type": "address"
        },
        {
          "internalType": "bytes32",
          "name": "tokenId",
          "type": "bytes32"
        }
      ],
      "name": "isOperatorFor",
      "outputs": [
        {
          "internalType": "bool",
          "name": "",
          "type": "bool"
        }
      ],
      "stateMutability": "view",
      "type": "function"
    },
    {
      "inputs": [],
      "name": "owner",
      "outputs": [
        {
          "internalType": "address",
          "name": "",
          "type": "address"
        }
      ],
      "stateMutability": "view",
      "type": "function"
    },
    {
      "inputs": [],
      "name": "renounceOwnership",
      "outputs": [],
      "stateMutability": "nonpayable",
      "type": "function"
    },
    {
      "inputs": [
        {
          "internalType": "address",
          "name": "operator",
          "type": "address"
        },
        {
          "internalType": "bytes32",
          "name": "tokenId",
          "type": "bytes32"
        }
      ],
      "name": "revokeOperator",
      "outputs": [],
      "stateMutability": "nonpayable",
      "type": "function"
    },
    {
      "inputs": [
        {
          "internalType": "bytes32[]",
          "name": "dataKeys",
          "type": "bytes32[]"
        },
        {
          "internalType": "bytes[]",
          "name": "dataValues",
          "type": "bytes[]"
        }
      ],
      "name": "setData",
      "outputs": [],
      "stateMutability": "nonpayable",
      "type": "function"
    },
    {
      "inputs": [
        {
          "internalType": "bytes32",
          "name": "dataKey",
          "type": "bytes32"
        },
        {
          "internalType": "bytes",
          "name": "dataValue",
          "type": "bytes"
        }
      ],
      "name": "setData",
      "outputs": [],
      "stateMutability": "nonpayable",
      "type": "function"
    },
    {
      "inputs": [
        {
          "internalType": "address",
          "name": "tokenOwner",
          "type": "address"
        }
      ],
      "name": "tokenIdsOf",
      "outputs": [
        {
          "internalType": "bytes32[]",
          "name": "",
          "type": "bytes32[]"
        }
      ],
      "stateMutability": "view",
      "type": "function"
    },
    {
      "inputs": [
        {
          "internalType": "bytes32",
          "name": "tokenId",
          "type": "bytes32"
        }
      ],
      "name": "tokenOwnerOf",
      "outputs": [
        {
          "internalType": "address",
          "name": "",
          "type": "address"
        }
      ],
      "stateMutability": "view",
      "type": "function"
    },
    {
      "inputs": [],
      "name": "totalSupply",
      "outputs": [
        {
          "internalType": "uint256",
          "name": "",
          "type": "uint256"
        }
      ],
      "stateMutability": "view",
      "type": "function"
    },
    {
      "inputs": [
        {
          "internalType": "address",
          "name": "from",
          "type": "address"
        },
        {
          "internalType": "address",
          "name": "to",
          "type": "address"
        },
        {
          "internalType": "bytes32",
          "name": "tokenId",
          "type": "bytes32"
        },
        {
          "internalType": "bool",
          "name": "force",
          "type": "bool"
        },
        {
          "internalType": "bytes",
          "name": "data",
          "type": "bytes"
        }
      ],
      "name": "transfer",
      "outputs": [],
      "stateMutability": "nonpayable",
      "type": "function"
    },
    {
      "inputs": [
        {
          "internalType": "address[]",
          "name": "from",
          "type": "address[]"
        },
        {
          "internalType": "address[]",
          "name": "to",
          "type": "address[]"
        },
        {
          "internalType": "bytes32[]",
          "name": "tokenId",
          "type": "bytes32[]"
        },
        {
          "internalType": "bool",
          "name": "force",
          "type": "bool"
        },
        {
          "internalType": "bytes[]",
          "name": "data",
          "type": "bytes[]"
        }
      ],
      "name": "transferBatch",
      "outputs": [],
      "stateMutability": "nonpayable",
      "type": "function"
    },
    {
      "inputs": [
        {
          "internalType": "address",
          "name": "newOwner",
          "type": "address"
        }
      ],
      "name": "transferOwnership",
      "outputs": [],
      "stateMutability": "nonpayable",
      "type": "function"
    },
    {
      "inputs": [
        {
          "internalType": "bytes4",
          "name": "interfaceId",
          "type": "bytes4"
        }
      ],
      "name": "supportsInterface",
      "outputs": [
        {
          "internalType": "bool",
          "name": "",
          "type": "bool"
        }
      ],
      "stateMutability": "view",
      "type": "function"
    }
  ],
  "bytecode": "0x60806040523480156200001157600080fd5b5060405162003d8b38038062003d8b8339818101604052810190620000379190620004c8565b8282828062000051816200014160201b62000dff1760201c565b50620000c17feafec4d89fa9619884b60000a4d96624a38f7ac2d8d9a604ecf07c12c77e480c60001b6040518060400160405280600481526020017fa4d96624000000000000000000000000000000000000000000000000000000008152506200024960201b62000efe1760201c565b620000fb7fdeba1e292f8ba88238e10ab3c7f88bd4be4fac56cad5194b6ecceaf653468af160001b846200024960201b62000efe1760201c565b620001357f2f0a68ab07768e01943a599e73362a0e17a63a72e94dd2e384d2c1d4db93275660001b836200024960201b62000efe1760201c565b50505050505062000894565b620001516200029d60201b60201c565b73ffffffffffffffffffffffffffffffffffffffff168173ffffffffffffffffffffffffffffffffffffffff1614620002465760008060009054906101000a900473ffffffffffffffffffffffffffffffffffffffff169050816000806101000a81548173ffffffffffffffffffffffffffffffffffffffff021916908373ffffffffffffffffffffffffffffffffffffffff1602179055508173ffffffffffffffffffffffffffffffffffffffff168173ffffffffffffffffffffffffffffffffffffffff167f8be0079c531659141344cd1fd0a4f28419497f9722a3daafe3b4186f6b6457e060405160405180910390a3505b50565b806001600084815260200190815260200160002090816200026b9190620007ad565b50817fcdf4e344c0d23d4cdd0474039d176c55b19d531070dbe17856bfb993a5b5720b60405160405180910390a25050565b60008060009054906101000a900473ffffffffffffffffffffffffffffffffffffffff16905090565b6000604051905090565b600080fd5b600080fd5b600080fd5b600080fd5b6000601f19601f8301169050919050565b7f4e487b7100000000000000000000000000000000000000000000000000000000600052604160045260246000fd5b6200032f82620002e4565b810181811067ffffffffffffffff82111715620003515762000350620002f5565b5b80604052505050565b600062000366620002c6565b905062000374828262000324565b919050565b600067ffffffffffffffff821115620003975762000396620002f5565b5b620003a282620002e4565b9050602081019050919050565b60005b83811015620003cf578082015181840152602081019050620003b2565b83811115620003df576000848401525b50505050565b6000620003fc620003f68462000379565b6200035a565b9050828152602081018484840111156200041b576200041a620002df565b5b62000428848285620003af565b509392505050565b600082601f830112620004485762000447620002da565b5b81516200045a848260208601620003e5565b91505092915050565b600073ffffffffffffffffffffffffffffffffffffffff82169050919050565b6000620004908262000463565b9050919050565b620004a28162000483565b8114620004ae57600080fd5b50565b600081519050620004c28162000497565b92915050565b600080600060608486031215620004e457620004e3620002d0565b5b600084015167ffffffffffffffff811115620005055762000504620002d5565b5b620005138682870162000430565b935050602084015167ffffffffffffffff811115620005375762000536620002d5565b5b620005458682870162000430565b92505060406200055886828701620004b1565b9150509250925092565b600081519050919050565b7f4e487b7100000000000000000000000000000000000000000000000000000000600052602260045260246000fd5b60006002820490506001821680620005b557607f821691505b602082108103620005cb57620005ca6200056d565b5b50919050565b60008190508160005260206000209050919050565b60006020601f8301049050919050565b600082821b905092915050565b600060088302620006357fffffffffffffffffffffffffffffffffffffffffffffffffffffffffffffffff82620005f6565b620006418683620005f6565b95508019841693508086168417925050509392505050565b6000819050919050565b6000819050919050565b60006200068e62000688620006828462000659565b62000663565b62000659565b9050919050565b6000819050919050565b620006aa836200066d565b620006c2620006b98262000695565b84845462000603565b825550505050565b600090565b620006d9620006ca565b620006e68184846200069f565b505050565b5b818110156200070e5762000702600082620006cf565b600181019050620006ec565b5050565b601f8211156200075d576200072781620005d1565b6200073284620005e6565b8101602085101562000742578190505b6200075a6200075185620005e6565b830182620006eb565b50505b505050565b600082821c905092915050565b6000620007826000198460080262000762565b1980831691505092915050565b60006200079d83836200076f565b9150826002028217905092915050565b620007b88262000562565b67ffffffffffffffff811115620007d457620007d3620002f5565b5b620007e082546200059c565b620007ed82828562000712565b600060209050601f83116001811462000825576000841562000810578287015190505b6200081c85826200078f565b8655506200088c565b601f1984166200083586620005d1565b60005b828110156200085f5784890151825560018201915060208501945060208101905062000838565b868310156200087f57848901516200087b601f8916826200076f565b8355505b6001600288020188555050505b505050505050565b6134e780620008a46000396000f3fe608060405234801561001057600080fd5b50600436106101165760003560e01c806354f6127f116100a25780637f23690c116100715780637f23690c146103035780638da5cb5b1461031f578063a3b261f21461033d578063cf5182ba1461036d578063f2fde38b1461038957610116565b806354f6127f1461027d57806355908868146102ad57806370a08231146102c9578063715018a6146102f957610116565b8063217b2270116100e9578063217b2270146101a15780632a3654a4146101d157806349a6078d146102015780634e3e6e9c14610231578063511b69521461026157610116565b806301ffc9a71461011b5780630b0c6d821461014b57806314a6e2931461016757806318160ddd14610183575b600080fd5b61013560048036038101906101309190611e88565b6103a5565b6040516101429190611ed0565b60405180910390f35b61016560048036038101906101609190611f7f565b610406565b005b610181600480360381019061017c91906122ae565b610545565b005b61018b61065d565b604051610198919061233f565b60405180910390f35b6101bb60048036038101906101b6919061235a565b610667565b6040516101c89190612396565b60405180910390f35b6101eb60048036038101906101e69190611f7f565b61071a565b6040516101f89190611ed0565b60405180910390f35b61021b6004803603810190610216919061235a565b610737565b604051610228919061246f565b60405180910390f35b61024b60048036038101906102469190612491565b610764565b6040516102589190612624565b60405180910390f35b61027b60048036038101906102769190612672565b61081a565b005b6102976004803603810190610292919061235a565b610888565b6040516102a49190612753565b60405180910390f35b6102c760048036038101906102c29190612838565b61089a565b005b6102e360048036038101906102de9190612923565b61098d565b6040516102f0919061233f565b60405180910390f35b6103016109dd565b005b61031d60048036038101906103189190612950565b610a5e565b005b610327610ae1565b6040516103349190612396565b60405180910390f35b61035760048036038101906103529190612923565b610b0a565b6040516103649190612a6a565b60405180910390f35b61038760048036038101906103829190611f7f565b610b5a565b005b6103a3600480360381019061039e9190612923565b610d0f565b005b6000634939914560e01b7bffffffffffffffffffffffffffffffffffffffffffffffffffffffff1916827bffffffffffffffffffffffffffffffffffffffffffffffffffffffff191614806103ff57506103fe82610f50565b5b9050919050565b600061041182610667565b9050600061041d610fb1565b90508073ffffffffffffffffffffffffffffffffffffffff168273ffffffffffffffffffffffffffffffffffffffff1614610493578183826040517f5b271ea200000000000000000000000000000000000000000000000000000000815260040161048a93929190612a9b565b60405180910390fd5b600073ffffffffffffffffffffffffffffffffffffffff168473ffffffffffffffffffffffffffffffffffffffff16036104f9576040517f9577b8b300000000000000000000000000000000000000000000000000000000815260040160405180910390fd5b8373ffffffffffffffffffffffffffffffffffffffff168273ffffffffffffffffffffffffffffffffffffffff1603610533575050610541565b61053e848385610fb9565b50505b5050565b3373ffffffffffffffffffffffffffffffffffffffff16610564610ae1565b73ffffffffffffffffffffffffffffffffffffffff16146105ba576040517f08c379a00000000000000000000000000000000000000000000000000000000081526004016105b190612b2f565b60405180910390fd5b80518251146105fe576040517f08c379a00000000000000000000000000000000000000000000000000000000081526004016105f590612bc1565b60405180910390fd5b60005b8251811015610658576106488382815181106106205761061f612be1565b5b602002602001015183838151811061063b5761063a612be1565b5b602002602001015161103f565b61065181611117565b9050610601565b505050565b6000600254905090565b6000806003600084815260200190815260200160002060009054906101000a900473ffffffffffffffffffffffffffffffffffffffff169050600073ffffffffffffffffffffffffffffffffffffffff168173ffffffffffffffffffffffffffffffffffffffff160361071157826040517fae8f9a360000000000000000000000000000000000000000000000000000000081526004016107089190612c10565b60405180910390fd5b80915050919050565b600061072582611124565b61072f8383611171565b905092915050565b606061074282611124565b61075d600560008481526020019081526020016000206111e3565b9050919050565b6060815167ffffffffffffffff81111561078157610780611fd5565b5b6040519080825280602002602001820160405280156107b457816020015b606081526020019060019003908161079f5790505b50905060005b8251811015610814576107e68382815181106107d9576107d8612be1565b5b6020026020010151611204565b8282815181106107f9576107f8612be1565b5b602002602001018190525061080d81611117565b90506107ba565b50919050565b6000610824610fb1565b90506108308185611171565b6108735783816040517f1294d2a900000000000000000000000000000000000000000000000000000000815260040161086a929190612c2b565b60405180910390fd5b61088086868686866112a9565b505050505050565b606061089382611204565b9050919050565b835185511415806108ad57508251855114155b806108ba57508051855114155b156108f1576040517f93a8311900000000000000000000000000000000000000000000000000000000815260040160405180910390fd5b60005b85518110156109855761097286828151811061091357610912612be1565b5b602002602001015186838151811061092e5761092d612be1565b5b602002602001015186848151811061094957610948612be1565b5b60200260200101518686868151811061096557610964612be1565b5b602002602001015161081a565b808061097d90612c83565b9150506108f4565b505050505050565b60006109d6600460008473ffffffffffffffffffffffffffffffffffffffff1673ffffffffffffffffffffffffffffffffffffffff168152602001908152602001600020611533565b9050919050565b3373ffffffffffffffffffffffffffffffffffffffff166109fc610ae1565b73ffffffffffffffffffffffffffffffffffffffff1614610a52576040517f08c379a0000000000000000000000000000000000000000000000000000000008152600401610a4990612b2f565b60405180910390fd5b610a5c6000610dff565b565b3373ffffffffffffffffffffffffffffffffffffffff16610a7d610ae1565b73ffffffffffffffffffffffffffffffffffffffff1614610ad3576040517f08c379a0000000000000000000000000000000000000000000000000000000008152600401610aca90612b2f565b60405180910390fd5b610add828261103f565b5050565b60008060009054906101000a900473ffffffffffffffffffffffffffffffffffffffff16905090565b6060610b53600460008473ffffffffffffffffffffffffffffffffffffffff1673ffffffffffffffffffffffffffffffffffffffff168152602001908152602001600020611548565b9050919050565b6000610b6582610667565b90506000610b71610fb1565b90508073ffffffffffffffffffffffffffffffffffffffff168273ffffffffffffffffffffffffffffffffffffffff1614610be7578183826040517f5b271ea2000000000000000000000000000000000000000000000000000000008152600401610bde93929190612a9b565b60405180910390fd5b600073ffffffffffffffffffffffffffffffffffffffff168473ffffffffffffffffffffffffffffffffffffffff1603610c4d576040517f9577b8b300000000000000000000000000000000000000000000000000000000815260040160405180910390fd5b8373ffffffffffffffffffffffffffffffffffffffff168273ffffffffffffffffffffffffffffffffffffffff1603610c87575050610d0b565b610cac846005600086815260200190815260200160002061155d90919063ffffffff16565b50828273ffffffffffffffffffffffffffffffffffffffff168573ffffffffffffffffffffffffffffffffffffffff167f34b797fc5a526f7bf1d2b5de25f6564fd85ae364e3ee939aee7c1ac27871a98860405160405180910390a450505b5050565b3373ffffffffffffffffffffffffffffffffffffffff16610d2e610ae1565b73ffffffffffffffffffffffffffffffffffffffff1614610d84576040517f08c379a0000000000000000000000000000000000000000000000000000000008152600401610d7b90612b2f565b60405180910390fd5b600073ffffffffffffffffffffffffffffffffffffffff168173ffffffffffffffffffffffffffffffffffffffff1603610df3576040517f08c379a0000000000000000000000000000000000000000000000000000000008152600401610dea90612d3d565b60405180910390fd5b610dfc81610dff565b50565b610e07610ae1565b73ffffffffffffffffffffffffffffffffffffffff168173ffffffffffffffffffffffffffffffffffffffff1614610efb5760008060009054906101000a900473ffffffffffffffffffffffffffffffffffffffff169050816000806101000a81548173ffffffffffffffffffffffffffffffffffffffff021916908373ffffffffffffffffffffffffffffffffffffffff1602179055508173ffffffffffffffffffffffffffffffffffffffff168173ffffffffffffffffffffffffffffffffffffffff167f8be0079c531659141344cd1fd0a4f28419497f9722a3daafe3b4186f6b6457e060405160405180910390a3505b50565b80600160008481526020019081526020016000209081610f1e9190612f69565b50817fcdf4e344c0d23d4cdd0474039d176c55b19d531070dbe17856bfb993a5b5720b60405160405180910390a25050565b600063714df77c60e01b7bffffffffffffffffffffffffffffffffffffffffffffffffffffffff1916827bffffffffffffffffffffffffffffffffffffffffffffffffffffffff19161480610faa5750610fa98261158d565b5b9050919050565b600033905090565b610fde83600560008481526020019081526020016000206115f790919063ffffffff16565b50808273ffffffffffffffffffffffffffffffffffffffff168473ffffffffffffffffffffffffffffffffffffffff167f17d5389f6ab6adb2647dfa0aa365c323d37adacc30b33a65310b6158ce1373d560405160405180910390a4505050565b7fdeba1e292f8ba88238e10ab3c7f88bd4be4fac56cad5194b6ecceaf653468af160001b82036110a4576040517f08c379a000000000000000000000000000000000000000000000000000000000815260040161109b906130ad565b60405180910390fd5b7f2f0a68ab07768e01943a599e73362a0e17a63a72e94dd2e384d2c1d4db93275660001b8203611109576040517f08c379a00000000000000000000000000000000000000000000000000000000081526004016111009061313f565b60405180910390fd5b6111138282610efe565b5050565b6000600182019050919050565b61112d81611627565b61116e57806040517fae8f9a360000000000000000000000000000000000000000000000000000000081526004016111659190612c10565b60405180910390fd5b50565b60008061117d83610667565b90508073ffffffffffffffffffffffffffffffffffffffff168473ffffffffffffffffffffffffffffffffffffffff1614806111da57506111d9846005600086815260200190815260200160002061169390919063ffffffff16565b5b91505092915050565b606060006111f3836000016116c3565b905060608190508092505050919050565b606060016000838152602001908152602001600020805461122490612d8c565b80601f016020809104026020016040519081016040528092919081815260200182805461125090612d8c565b801561129d5780601f106112725761010080835404028352916020019161129d565b820191906000526020600020905b81548152906001019060200180831161128057829003601f168201915b50505050509050919050565b60006112b484610667565b90508573ffffffffffffffffffffffffffffffffffffffff168173ffffffffffffffffffffffffffffffffffffffff161461132a578084876040517f5b271ea200000000000000000000000000000000000000000000000000000000815260040161132193929190612a9b565b60405180910390fd5b600073ffffffffffffffffffffffffffffffffffffffff168573ffffffffffffffffffffffffffffffffffffffff1603611390576040517f24ecef4d00000000000000000000000000000000000000000000000000000000815260040160405180910390fd5b600061139a610fb1565b90506113a787878761171f565b6113b187866117c2565b61140285600460008a73ffffffffffffffffffffffffffffffffffffffff1673ffffffffffffffffffffffffffffffffffffffff16815260200190815260200160002061182f90919063ffffffff16565b5061145485600460008973ffffffffffffffffffffffffffffffffffffffff1673ffffffffffffffffffffffffffffffffffffffff16815260200190815260200160002061184690919063ffffffff16565b50856003600087815260200190815260200160002060006101000a81548173ffffffffffffffffffffffffffffffffffffffff021916908373ffffffffffffffffffffffffffffffffffffffff160217905550848673ffffffffffffffffffffffffffffffffffffffff168873ffffffffffffffffffffffffffffffffffffffff167fb333c813a7426a7a11e2b190cad52c44119421594b47f6f32ace6d8c7207b2bf8488886040516115099392919061315f565b60405180910390a461151d8787878661185d565b61152a878787878761194c565b50505050505050565b600061154182600001611adf565b9050919050565b6060611556826000016116c3565b9050919050565b6000611585836000018373ffffffffffffffffffffffffffffffffffffffff1660001b611af0565b905092915050565b60007f01ffc9a7000000000000000000000000000000000000000000000000000000007bffffffffffffffffffffffffffffffffffffffffffffffffffffffff1916827bffffffffffffffffffffffffffffffffffffffffffffffffffffffff1916149050919050565b600061161f836000018373ffffffffffffffffffffffffffffffffffffffff1660001b611b60565b905092915050565b60008073ffffffffffffffffffffffffffffffffffffffff166003600084815260200190815260200160002060009054906101000a900473ffffffffffffffffffffffffffffffffffffffff1673ffffffffffffffffffffffffffffffffffffffff1614159050919050565b60006116bb836000018373ffffffffffffffffffffffffffffffffffffffff1660001b611c74565b905092915050565b60608160000180548060200260200160405190810160405280929190818152602001828054801561171357602002820191906000526020600020905b8154815260200190600101908083116116ff575b50505050509050919050565b600073ffffffffffffffffffffffffffffffffffffffff168373ffffffffffffffffffffffffffffffffffffffff160361176e57600160026000828254611766919061319d565b925050819055505b600073ffffffffffffffffffffffffffffffffffffffff168273ffffffffffffffffffffffffffffffffffffffff16036117bd576001600260008282546117b591906131f3565b925050819055505b505050565b600060056000838152602001908152602001600020905060006117e482611c97565b905060005b81811015611828576000611807600085611cac90919063ffffffff16565b9050611814818787610fb9565b50808061182090612c83565b9150506117e9565b5050505050565b600061183e8360000183611b60565b905092915050565b60006118558360000183611af0565b905092915050565b61186e84636bb56a1460e01b611cc6565b156119465760008484848460405160200161188c94939291906132cc565b60405160208183030381529060405290508473ffffffffffffffffffffffffffffffffffffffff16636bb56a147f3724c94f0815e936299cca424da4140752198e0beb7931a6e0925d11bc97544c60001b836040518363ffffffff1660e01b81526004016118fb929190613316565b6000604051808303816000875af115801561191a573d6000803e3d6000fd5b505050506040513d6000823e3d601f19601f8201168201806040525081019061194391906133b6565b50505b50505050565b61195d84636bb56a1460e01b611cc6565b15611a395760008585858460405160200161197b94939291906132cc565b60405160208183030381529060405290508473ffffffffffffffffffffffffffffffffffffffff16636bb56a147fc7a120a42b6057a0cbed111fbbfbd52fcd96748c04394f77fc2c3adbe0391e0160001b836040518363ffffffff1660e01b81526004016119ea929190613316565b6000604051808303816000875af1158015611a09573d6000803e3d6000fd5b505050506040513d6000823e3d601f19601f82011682018060405250810190611a3291906133b6565b5050611ad8565b81611ad75760008473ffffffffffffffffffffffffffffffffffffffff163b14611a9a57836040517f4349776d000000000000000000000000000000000000000000000000000000008152600401611a919190612396565b60405180910390fd5b836040517f03173137000000000000000000000000000000000000000000000000000000008152600401611ace9190612396565b60405180910390fd5b5b5050505050565b600081600001805490509050919050565b6000611afc8383611c74565b611b55578260000182908060018154018082558091505060019003906000526020600020016000909190919091505582600001805490508360010160008481526020019081526020016000208190555060019050611b5a565b600090505b92915050565b60008083600101600084815260200190815260200160002054905060008114611c68576000600182611b9291906131f3565b9050600060018660000180549050611baa91906131f3565b9050818114611c19576000866000018281548110611bcb57611bca612be1565b5b9060005260206000200154905080876000018481548110611bef57611bee612be1565b5b90600052602060002001819055508387600101600083815260200190815260200160002081905550505b85600001805480611c2d57611c2c6133ff565b5b600190038181906000526020600020016000905590558560010160008681526020019081526020016000206000905560019350505050611c6e565b60009150505b92915050565b600080836001016000848152602001908152602001600020541415905092915050565b6000611ca582600001611adf565b9050919050565b6000611cbb8360000183611df1565b60001c905092915050565b6000806301ffc9a760e01b83604051602401611ce2919061343d565b604051602081830303815290604052907bffffffffffffffffffffffffffffffffffffffffffffffffffffffff19166020820180517bffffffffffffffffffffffffffffffffffffffffffffffffffffffff838183161783525050505090506000808573ffffffffffffffffffffffffffffffffffffffff1661753084604051611d6c9190613458565b6000604051808303818686fa925050503d8060008114611da8576040519150601f19603f3d011682016040523d82523d6000602084013e611dad565b606091505b5091509150602081511015611dc85760009350505050611deb565b818015611de5575080806020019051810190611de49190613484565b5b93505050505b92915050565b6000826000018281548110611e0957611e08612be1565b5b9060005260206000200154905092915050565b6000604051905090565b600080fd5b600080fd5b60007fffffffff0000000000000000000000000000000000000000000000000000000082169050919050565b611e6581611e30565b8114611e7057600080fd5b50565b600081359050611e8281611e5c565b92915050565b600060208284031215611e9e57611e9d611e26565b5b6000611eac84828501611e73565b91505092915050565b60008115159050919050565b611eca81611eb5565b82525050565b6000602082019050611ee56000830184611ec1565b92915050565b600073ffffffffffffffffffffffffffffffffffffffff82169050919050565b6000611f1682611eeb565b9050919050565b611f2681611f0b565b8114611f3157600080fd5b50565b600081359050611f4381611f1d565b92915050565b6000819050919050565b611f5c81611f49565b8114611f6757600080fd5b50565b600081359050611f7981611f53565b92915050565b60008060408385031215611f9657611f95611e26565b5b6000611fa485828601611f34565b9250506020611fb585828601611f6a565b9150509250929050565b600080fd5b6000601f19601f8301169050919050565b7f4e487b7100000000000000000000000000000000000000000000000000000000600052604160045260246000fd5b61200d82611fc4565b810181811067ffffffffffffffff8211171561202c5761202b611fd5565b5b80604052505050565b600061203f611e1c565b905061204b8282612004565b919050565b600067ffffffffffffffff82111561206b5761206a611fd5565b5b602082029050602081019050919050565b600080fd5b600061209461208f84612050565b612035565b905080838252602082019050602084028301858111156120b7576120b661207c565b5b835b818110156120e057806120cc8882611f6a565b8452602084019350506020810190506120b9565b5050509392505050565b600082601f8301126120ff576120fe611fbf565b5b813561210f848260208601612081565b91505092915050565b600067ffffffffffffffff82111561213357612132611fd5565b5b602082029050602081019050919050565b600080fd5b600067ffffffffffffffff82111561216457612163611fd5565b5b61216d82611fc4565b9050602081019050919050565b82818337600083830152505050565b600061219c61219784612149565b612035565b9050828152602081018484840111156121b8576121b7612144565b5b6121c384828561217a565b509392505050565b600082601f8301126121e0576121df611fbf565b5b81356121f0848260208601612189565b91505092915050565b600061220c61220784612118565b612035565b9050808382526020820190506020840283018581111561222f5761222e61207c565b5b835b8181101561227657803567ffffffffffffffff81111561225457612253611fbf565b5b80860161226189826121cb565b85526020850194505050602081019050612231565b5050509392505050565b600082601f83011261229557612294611fbf565b5b81356122a58482602086016121f9565b91505092915050565b600080604083850312156122c5576122c4611e26565b5b600083013567ffffffffffffffff8111156122e3576122e2611e2b565b5b6122ef858286016120ea565b925050602083013567ffffffffffffffff8111156123105761230f611e2b565b5b61231c85828601612280565b9150509250929050565b6000819050919050565b61233981612326565b82525050565b60006020820190506123546000830184612330565b92915050565b6000602082840312156123705761236f611e26565b5b600061237e84828501611f6a565b91505092915050565b61239081611f0b565b82525050565b60006020820190506123ab6000830184612387565b92915050565b600081519050919050565b600082825260208201905092915050565b6000819050602082019050919050565b6123e681611f0b565b82525050565b60006123f883836123dd565b60208301905092915050565b6000602082019050919050565b600061241c826123b1565b61242681856123bc565b9350612431836123cd565b8060005b8381101561246257815161244988826123ec565b975061245483612404565b925050600181019050612435565b5085935050505092915050565b600060208201905081810360008301526124898184612411565b905092915050565b6000602082840312156124a7576124a6611e26565b5b600082013567ffffffffffffffff8111156124c5576124c4611e2b565b5b6124d1848285016120ea565b91505092915050565b600081519050919050565b600082825260208201905092915050565b6000819050602082019050919050565b600081519050919050565b600082825260208201905092915050565b60005b83811015612540578082015181840152602081019050612525565b8381111561254f576000848401525b50505050565b600061256082612506565b61256a8185612511565b935061257a818560208601612522565b61258381611fc4565b840191505092915050565b600061259a8383612555565b905092915050565b6000602082019050919050565b60006125ba826124da565b6125c481856124e5565b9350836020820285016125d6856124f6565b8060005b8581101561261257848403895281516125f3858261258e565b94506125fe836125a2565b925060208a019950506001810190506125da565b50829750879550505050505092915050565b6000602082019050818103600083015261263e81846125af565b905092915050565b61264f81611eb5565b811461265a57600080fd5b50565b60008135905061266c81612646565b92915050565b600080600080600060a0868803121561268e5761268d611e26565b5b600061269c88828901611f34565b95505060206126ad88828901611f34565b94505060406126be88828901611f6a565b93505060606126cf8882890161265d565b925050608086013567ffffffffffffffff8111156126f0576126ef611e2b565b5b6126fc888289016121cb565b9150509295509295909350565b600082825260208201905092915050565b600061272582612506565b61272f8185612709565b935061273f818560208601612522565b61274881611fc4565b840191505092915050565b6000602082019050818103600083015261276d818461271a565b905092915050565b600067ffffffffffffffff8211156127905761278f611fd5565b5b602082029050602081019050919050565b60006127b46127af84612775565b612035565b905080838252602082019050602084028301858111156127d7576127d661207c565b5b835b8181101561280057806127ec8882611f34565b8452602084019350506020810190506127d9565b5050509392505050565b600082601f83011261281f5761281e611fbf565b5b813561282f8482602086016127a1565b91505092915050565b600080600080600060a0868803121561285457612853611e26565b5b600086013567ffffffffffffffff81111561287257612871611e2b565b5b61287e8882890161280a565b955050602086013567ffffffffffffffff81111561289f5761289e611e2b565b5b6128ab8882890161280a565b945050604086013567ffffffffffffffff8111156128cc576128cb611e2b565b5b6128d8888289016120ea565b93505060606128e98882890161265d565b925050608086013567ffffffffffffffff81111561290a57612909611e2b565b5b61291688828901612280565b9150509295509295909350565b60006020828403121561293957612938611e26565b5b600061294784828501611f34565b91505092915050565b6000806040838503121561296757612966611e26565b5b600061297585828601611f6a565b925050602083013567ffffffffffffffff81111561299657612995611e2b565b5b6129a2858286016121cb565b9150509250929050565b600081519050919050565b600082825260208201905092915050565b6000819050602082019050919050565b6129e181611f49565b82525050565b60006129f383836129d8565b60208301905092915050565b6000602082019050919050565b6000612a17826129ac565b612a2181856129b7565b9350612a2c836129c8565b8060005b83811015612a5d578151612a4488826129e7565b9750612a4f836129ff565b925050600181019050612a30565b5085935050505092915050565b60006020820190508181036000830152612a848184612a0c565b905092915050565b612a9581611f49565b82525050565b6000606082019050612ab06000830186612387565b612abd6020830185612a8c565b612aca6040830184612387565b949350505050565b600082825260208201905092915050565b7f4f776e61626c653a2063616c6c6572206973206e6f7420746865206f776e6572600082015250565b6000612b19602083612ad2565b9150612b2482612ae3565b602082019050919050565b60006020820190508181036000830152612b4881612b0c565b9050919050565b7f4b657973206c656e677468206e6f7420657175616c20746f2076616c7565732060008201527f6c656e6774680000000000000000000000000000000000000000000000000000602082015250565b6000612bab602683612ad2565b9150612bb682612b4f565b604082019050919050565b60006020820190508181036000830152612bda81612b9e565b9050919050565b7f4e487b7100000000000000000000000000000000000000000000000000000000600052603260045260246000fd5b6000602082019050612c256000830184612a8c565b92915050565b6000604082019050612c406000830185612a8c565b612c4d6020830184612387565b9392505050565b7f4e487b7100000000000000000000000000000000000000000000000000000000600052601160045260246000fd5b6000612c8e82612326565b91507fffffffffffffffffffffffffffffffffffffffffffffffffffffffffffffffff8203612cc057612cbf612c54565b5b600182019050919050565b7f4f776e61626c653a206e6577206f776e657220697320746865207a65726f206160008201527f6464726573730000000000000000000000000000000000000000000000000000602082015250565b6000612d27602683612ad2565b9150612d3282612ccb565b604082019050919050565b60006020820190508181036000830152612d5681612d1a565b9050919050565b7f4e487b7100000000000000000000000000000000000000000000000000000000600052602260045260246000fd5b60006002820490506001821680612da457607f821691505b602082108103612db757612db6612d5d565b5b50919050565b60008190508160005260206000209050919050565b60006020601f8301049050919050565b600082821b905092915050565b600060088302612e1f7fffffffffffffffffffffffffffffffffffffffffffffffffffffffffffffffff82612de2565b612e298683612de2565b95508019841693508086168417925050509392505050565b6000819050919050565b6000612e66612e61612e5c84612326565b612e41565b612326565b9050919050565b6000819050919050565b612e8083612e4b565b612e94612e8c82612e6d565b848454612def565b825550505050565b600090565b612ea9612e9c565b612eb4818484612e77565b505050565b5b81811015612ed857612ecd600082612ea1565b600181019050612eba565b5050565b601f821115612f1d57612eee81612dbd565b612ef784612dd2565b81016020851015612f06578190505b612f1a612f1285612dd2565b830182612eb9565b50505b505050565b600082821c905092915050565b6000612f4060001984600802612f22565b1980831691505092915050565b6000612f598383612f2f565b9150826002028217905092915050565b612f7282612506565b67ffffffffffffffff811115612f8b57612f8a611fd5565b5b612f958254612d8c565b612fa0828285612edc565b600060209050601f831160018114612fd35760008415612fc1578287015190505b612fcb8582612f4d565b865550613033565b601f198416612fe186612dbd565b60005b8281101561300957848901518255600182019150602085019450602081019050612fe4565b868310156130265784890151613022601f891682612f2f565b8355505b6001600288020188555050505b505050505050565b7f4c5350343a2063616e6e6f74206564697420546f6b656e204e616d652061667460008201527f6572206465706c6f796d656e7400000000000000000000000000000000000000602082015250565b6000613097602d83612ad2565b91506130a28261303b565b604082019050919050565b600060208201905081810360008301526130c68161308a565b9050919050565b7f4c5350343a2063616e6e6f74206564697420546f6b656e2053796d626f6c206160008201527f66746572206465706c6f796d656e740000000000000000000000000000000000602082015250565b6000613129602f83612ad2565b9150613134826130cd565b604082019050919050565b600060208201905081810360008301526131588161311c565b9050919050565b60006060820190506131746000830186612387565b6131816020830185611ec1565b8181036040830152613193818461271a565b9050949350505050565b60006131a882612326565b91506131b383612326565b9250827fffffffffffffffffffffffffffffffffffffffffffffffffffffffffffffffff038211156131e8576131e7612c54565b5b828201905092915050565b60006131fe82612326565b915061320983612326565b92508282101561321c5761321b612c54565b5b828203905092915050565b60008160601b9050919050565b600061323f82613227565b9050919050565b600061325182613234565b9050919050565b61326961326482611f0b565b613246565b82525050565b6000819050919050565b61328a61328582611f49565b61326f565b82525050565b600081905092915050565b60006132a682612506565b6132b08185613290565b93506132c0818560208601612522565b80840191505092915050565b60006132d88287613258565b6014820191506132e88286613258565b6014820191506132f88285613279565b602082019150613308828461329b565b915081905095945050505050565b600060408201905061332b6000830185612a8c565b818103602083015261333d818461271a565b90509392505050565b600061335961335484612149565b612035565b90508281526020810184848401111561337557613374612144565b5b613380848285612522565b509392505050565b600082601f83011261339d5761339c611fbf565b5b81516133ad848260208601613346565b91505092915050565b6000602082840312156133cc576133cb611e26565b5b600082015167ffffffffffffffff8111156133ea576133e9611e2b565b5b6133f684828501613388565b91505092915050565b7f4e487b7100000000000000000000000000000000000000000000000000000000600052603160045260246000fd5b61343781611e30565b82525050565b6000602082019050613452600083018461342e565b92915050565b6000613464828461329b565b915081905092915050565b60008151905061347e81612646565b92915050565b60006020828403121561349a57613499611e26565b5b60006134a88482850161346f565b9150509291505056fea264697066735822122095778f8ea13f8154cb0d91468e5c2ed745bdd829c5e9a81b365bfc8b7ef78b0664736f6c634300080f0033",
  "immutableReferences": {},
  "source": "// SPDX-License-Identifier: CC0-1.0\npragma solidity ^0.8.0;\n\n// interfaces\nimport {IERC165} from \"@openzeppelin/contracts/utils/introspection/IERC165.sol\";\n\n// modules\nimport {ERC725YCore} from \"@erc725/smart-contracts/contracts/ERC725YCore.sol\";\nimport {LSP8IdentifiableDigitalAssetCore} from \"./LSP8IdentifiableDigitalAssetCore.sol\";\nimport {LSP4DigitalAssetMetadata} from \"../LSP4DigitalAssetMetadata/LSP4DigitalAssetMetadata.sol\";\n\n// constants\nimport {_INTERFACEID_LSP8} from \"./LSP8Constants.sol\";\n\n/**\n * @title LSP8IdentifiableDigitalAsset contract\n * @author Matthew Stevens\n * @dev Implementation of a LSP8 compliant contract.\n */\ncontract LSP8IdentifiableDigitalAsset is\n    LSP4DigitalAssetMetadata,\n    LSP8IdentifiableDigitalAssetCore\n{\n    /**\n     * @notice Sets the token-Metadata\n     * @param name_ The name of the token\n     * @param symbol_ The symbol of the token\n     * @param newOwner_ The owner of the the token-Metadata\n     */\n    constructor(\n        string memory name_,\n        string memory symbol_,\n        address newOwner_\n    ) LSP4DigitalAssetMetadata(name_, symbol_, newOwner_) {} // solhint-disable no-empty-blocks\n\n    /**\n     * @dev See {IERC165-supportsInterface}.\n     */\n    function supportsInterface(bytes4 interfaceId)\n        public\n        view\n        virtual\n        override(IERC165, ERC725YCore)\n        returns (bool)\n    {\n        return interfaceId == _INTERFACEID_LSP8 || super.supportsInterface(interfaceId);\n    }\n}\n",
  "sourcePath": "@lukso/lsp-smart-contracts/contracts/LSP8IdentifiableDigitalAsset/LSP8IdentifiableDigitalAsset.sol",
  "compiler": {
    "name": "solc",
    "version": "0.8.15+commit.e14f2714.Emscripten.clang"
  },
  "schemaVersion": "3.4.8",
  "updatedAt": "2022-07-21T08:10:14.664Z",
  "devdoc": {
    "author": "Matthew Stevens",
    "details": "Implementation of a LSP8 compliant contract.",
    "kind": "dev",
    "methods": {
      "authorizeOperator(address,bytes32)": {
        "details": "Makes `operator` address an operator of `tokenId`. See {isOperatorFor}. Requirements - `tokenId` must exist. - caller must be current `tokenOwner` of `tokenId`. - `operator` cannot be the zero address. Emits an {AuthorizedOperator} event.",
        "params": {
          "operator": "The address to authorize as an operator.",
          "tokenId": "The tokenId operator has access to."
        }
      },
      "balanceOf(address)": {
        "details": "Returns the number of tokens owned by `tokenOwner`.",
        "params": {
          "tokenOwner": "The address to query"
        },
        "returns": {
          "_0": "The number of tokens owned by this address"
        }
      },
      "constructor": {
        "params": {
          "name_": "The name of the token",
          "newOwner_": "The owner of the the token-Metadata",
          "symbol_": "The symbol of the token"
        }
      },
      "getData(bytes32)": {
        "params": {
          "dataKey": "The key which value to retrieve"
        },
        "returns": {
          "dataValue": "The data stored at the key"
        }
      },
      "getData(bytes32[])": {
        "params": {
          "dataKeys": "The array of keys which values to retrieve"
        },
        "returns": {
          "dataValues": "The array of data stored at multiple keys"
        }
      },
      "getOperatorsOf(bytes32)": {
        "details": "Returns all `operator` addresses of `tokenId`. Requirements - `tokenId` must exist.",
        "params": {
          "tokenId": "The tokenId to query"
        },
        "returns": {
          "_0": "The list of operators for the `tokenId`"
        }
      },
      "isOperatorFor(address,bytes32)": {
        "details": "Returns whether `operator` address is an operator of `tokenId`. Operators can send and burn tokens on behalf of their owners. The tokenOwner is their own operator. Requirements - `tokenId` must exist.",
        "params": {
          "operator": "The address to query",
          "tokenId": "The tokenId to query"
        },
        "returns": {
          "_0": "True if the owner of `tokenId` is `operator` address, false otherwise"
        }
      },
      "owner()": {
        "details": "Returns the address of the current owner."
      },
      "renounceOwnership()": {
        "details": "Leaves the contract without owner. It will not be possible to call `onlyOwner` functions anymore. Can only be called by the current owner. NOTE: Renouncing ownership will leave the contract without an owner, thereby removing any functionality that is only available to the owner."
      },
      "revokeOperator(address,bytes32)": {
        "details": "Removes `operator` address as an operator of `tokenId`. See {isOperatorFor}. Requirements - `tokenId` must exist. - caller must be current `tokenOwner` of `tokenId`. - `operator` cannot be the zero address. Emits a {RevokedOperator} event.",
        "params": {
          "operator": "The address to revoke as an operator.",
          "tokenId": "The tokenId `operator` is revoked from operating"
        }
      },
      "setData(bytes32,bytes)": {
        "params": {
          "dataKey": "The key which value to retrieve",
          "dataValue": "The value to set SHOULD only be callable by the owner of the contract set via ERC173 Emits a {DataChanged} event."
        }
      },
      "setData(bytes32[],bytes[])": {
        "details": "Sets array of data at multiple given `dataKeys` SHOULD only be callable by the owner of the contract set via ERC173 Emits a {DataChanged} event.",
        "params": {
          "dataKeys": "The array of keys which values to set",
          "dataValues": "The array of values to set"
        }
      },
      "supportsInterface(bytes4)": {
        "details": "See {IERC165-supportsInterface}."
      },
      "tokenIdsOf(address)": {
        "details": "Returns the list of `tokenIds` for the `tokenOwner` address.",
        "params": {
          "tokenOwner": "The address to query owned tokens"
        },
        "returns": {
          "_0": "List of owned tokens by `tokenOwner` address"
        }
      },
      "tokenOwnerOf(bytes32)": {
        "details": "Returns the `tokenOwner` address of the `tokenId` token. Requirements: - `tokenId` must exist.",
        "params": {
          "tokenId": "The tokenId to query"
        },
        "returns": {
          "_0": "The address owning the `tokenId`"
        }
      },
      "totalSupply()": {
        "details": "Returns the number of existing tokens.",
        "returns": {
          "_0": "The number of existing tokens"
        }
      },
      "transfer(address,address,bytes32,bool,bytes)": {
        "details": "Transfers `tokenId` token from `from` to `to`. Requirements: - `from` cannot be the zero address. - `to` cannot be the zero address. - `tokenId` token must be owned by `from`. - If the caller is not `from`, it must be an operator of `tokenId`. Emits a {Transfer} event.",
        "params": {
          "data": "Additional data the caller wants included in the emitted event, and sent in the hooks to `from` and `to` addresses.",
          "force": "When set to TRUE, to may be any address but when set to FALSE to must be a contract that supports LSP1 UniversalReceiver",
          "from": "The sending address.",
          "to": "The receiving address.",
          "tokenId": "The tokenId to transfer."
        }
      },
      "transferBatch(address[],address[],bytes32[],bool,bytes[])": {
        "details": "Transfers many tokens based on the list `from`, `to`, `tokenId`. If any transfer fails the call will revert. Requirements: - `from`, `to`, `tokenId` lists are the same length. - no values in `from` can be the zero address. - no values in `to` can be the zero address. - each `tokenId` token must be owned by `from`. - If the caller is not `from`, it must be an operator of each `tokenId`. Emits {Transfer} events.",
        "params": {
          "data": "Additional data the caller wants included in the emitted event, and sent in the hooks to `from` and `to` addresses.",
          "force": "When set to TRUE, to may be any address but when set to FALSE to must be a contract that supports LSP1 UniversalReceiver",
          "from": "The list of sending addresses.",
          "to": "The list of receiving addresses.",
          "tokenId": "The list of tokenId to transfer."
        }
      },
      "transferOwnership(address)": {
        "details": "Transfers ownership of the contract to a new account (`newOwner`). Can only be called by the current owner."
      }
    },
    "title": "LSP8IdentifiableDigitalAsset contract",
    "version": 1
  },
  "userdoc": {
    "events": {
      "DataChanged(bytes32)": {
        "notice": "Emitted when data at a key is changed"
      }
    },
    "kind": "user",
    "methods": {
      "constructor": {
        "notice": "Sets the token-Metadata"
      },
      "getData(bytes32)": {
        "notice": "Gets singular data at a given `dataKey`"
      },
      "getData(bytes32[])": {
        "notice": "Gets array of data at multiple given keys"
      },
      "setData(bytes32,bytes)": {
        "notice": "Sets singular data at a given `dataKey`"
      }
    },
    "version": 1
  }
}