{
  "contractName": "MultisigKeyManager",
  "abi": [
    {
      "inputs": [
        {
          "internalType": "address payable",
          "name": "_UNIVERSAL_PROFILE",
          "type": "address"
        },
        {
          "internalType": "address",
          "name": "_KEY_MANAGER",
          "type": "address"
        }
      ],
      "stateMutability": "nonpayable",
      "type": "constructor"
    },
    {
      "inputs": [
        {
          "internalType": "address",
          "name": "from",
          "type": "address"
        },
        {
          "internalType": "string",
          "name": "permission",
          "type": "string"
        }
      ],
      "name": "NotAuthorised",
      "type": "error"
    },
    {
      "inputs": [
        {
          "internalType": "address[]",
          "name": "_targets",
          "type": "address[]"
        },
        {
          "internalType": "bytes[]",
          "name": "_datas",
          "type": "bytes[]"
        }
      ],
      "name": "proposeExecution",
      "outputs": [],
      "stateMutability": "nonpayable",
      "type": "function"
    },
    {
      "inputs": [
        {
          "internalType": "bytes32",
          "name": "_hash",
          "type": "bytes32"
        },
        {
          "internalType": "bytes",
          "name": "_signature",
          "type": "bytes"
        },
        {
          "internalType": "bool",
          "name": "response",
          "type": "bool"
        }
      ],
      "name": "signProposal",
      "outputs": [],
      "stateMutability": "nonpayable",
      "type": "function"
    },
    {
      "inputs": [
        {
          "internalType": "bytes[]",
          "name": "membersSignatures",
          "type": "bytes[]"
        },
        {
          "internalType": "string[]",
          "name": "signedMessages",
          "type": "string[]"
        }
      ],
      "name": "execute",
      "outputs": [],
      "stateMutability": "nonpayable",
      "type": "function"
    }
  ],
  "bytecode": "0x60806040523480156200001157600080fd5b5060405162000f9938038062000f9983398181016040528101906200003791906200016f565b816000806101000a81548173ffffffffffffffffffffffffffffffffffffffff021916908373ffffffffffffffffffffffffffffffffffffffff16021790555080600160006101000a81548173ffffffffffffffffffffffffffffffffffffffff021916908373ffffffffffffffffffffffffffffffffffffffff1602179055505050620001b6565b600080fd5b600073ffffffffffffffffffffffffffffffffffffffff82169050919050565b6000620000f282620000c5565b9050919050565b6200010481620000e5565b81146200011057600080fd5b50565b6000815190506200012481620000f9565b92915050565b60006200013782620000c5565b9050919050565b62000149816200012a565b81146200015557600080fd5b50565b60008151905062000169816200013e565b92915050565b60008060408385031215620001895762000188620000c0565b5b6000620001998582860162000113565b9250506020620001ac8582860162000158565b9150509250929050565b610dd380620001c66000396000f3fe608060405234801561001057600080fd5b50600436106100415760003560e01c80632975814d14610046578063881c5ece146100625780638bc1d14e1461007e575b600080fd5b610060600480360381019061005b91906104a2565b61009a565b005b61007c60048036038101906100779190610718565b610142565b005b61009860048036038101906100939190610912565b61018a565b005b6000600160009054906101000a900473ffffffffffffffffffffffffffffffffffffffff1673ffffffffffffffffffffffffffffffffffffffff16631626ba7e85856040518363ffffffff1660e01b81526004016100f9929190610a21565b602060405180830381865afa158015610116573d6000803e3d6000fd5b505050506040513d601f19601f8201168201806040525081019061013a9190610aa9565b905050505050565b61018633600260001b6040518060400160405280600781526020017f50524f504f53450000000000000000000000000000000000000000000000000081525061018e565b5050565b5050565b6000610199846101ec565b90506000801b838216036101e65783826040517f3bdad6e60000000000000000000000000000000000000000000000000000000081526004016101dd929190610b3a565b60405180910390fd5b50505050565b60008060009054906101000a900473ffffffffffffffffffffffffffffffffffffffff1673ffffffffffffffffffffffffffffffffffffffff166354f6127f6b4b80742de2bfb3cc0e49000060a01b8460601b604051602001610250929190610c04565b60405160208183030381529060405261026890610c62565b6040518263ffffffff1660e01b81526004016102849190610cc9565b600060405180830381865afa1580156102a1573d6000803e3d6000fd5b505050506040513d6000823e3d601f19601f820116820180604052508101906102ca9190610d54565b6102d390610c62565b9050919050565b6000604051905090565b600080fd5b600080fd5b6000819050919050565b610301816102ee565b811461030c57600080fd5b50565b60008135905061031e816102f8565b92915050565b600080fd5b600080fd5b6000601f19601f8301169050919050565b7f4e487b7100000000000000000000000000000000000000000000000000000000600052604160045260246000fd5b6103778261032e565b810181811067ffffffffffffffff821117156103965761039561033f565b5b80604052505050565b60006103a96102da565b90506103b5828261036e565b919050565b600067ffffffffffffffff8211156103d5576103d461033f565b5b6103de8261032e565b9050602081019050919050565b82818337600083830152505050565b600061040d610408846103ba565b61039f565b90508281526020810184848401111561042957610428610329565b5b6104348482856103eb565b509392505050565b600082601f83011261045157610450610324565b5b81356104618482602086016103fa565b91505092915050565b60008115159050919050565b61047f8161046a565b811461048a57600080fd5b50565b60008135905061049c81610476565b92915050565b6000806000606084860312156104bb576104ba6102e4565b5b60006104c98682870161030f565b935050602084013567ffffffffffffffff8111156104ea576104e96102e9565b5b6104f68682870161043c565b92505060406105078682870161048d565b9150509250925092565b600067ffffffffffffffff82111561052c5761052b61033f565b5b602082029050602081019050919050565b600080fd5b600073ffffffffffffffffffffffffffffffffffffffff82169050919050565b600061056d82610542565b9050919050565b61057d81610562565b811461058857600080fd5b50565b60008135905061059a81610574565b92915050565b60006105b36105ae84610511565b61039f565b905080838252602082019050602084028301858111156105d6576105d561053d565b5b835b818110156105ff57806105eb888261058b565b8452602084019350506020810190506105d8565b5050509392505050565b600082601f83011261061e5761061d610324565b5b813561062e8482602086016105a0565b91505092915050565b600067ffffffffffffffff8211156106525761065161033f565b5b602082029050602081019050919050565b600061067661067184610637565b61039f565b905080838252602082019050602084028301858111156106995761069861053d565b5b835b818110156106e057803567ffffffffffffffff8111156106be576106bd610324565b5b8086016106cb898261043c565b8552602085019450505060208101905061069b565b5050509392505050565b600082601f8301126106ff576106fe610324565b5b813561070f848260208601610663565b91505092915050565b6000806040838503121561072f5761072e6102e4565b5b600083013567ffffffffffffffff81111561074d5761074c6102e9565b5b61075985828601610609565b925050602083013567ffffffffffffffff81111561077a576107796102e9565b5b610786858286016106ea565b9150509250929050565b600067ffffffffffffffff8211156107ab576107aa61033f565b5b602082029050602081019050919050565b600067ffffffffffffffff8211156107d7576107d661033f565b5b6107e08261032e565b9050602081019050919050565b60006108006107fb846107bc565b61039f565b90508281526020810184848401111561081c5761081b610329565b5b6108278482856103eb565b509392505050565b600082601f83011261084457610843610324565b5b81356108548482602086016107ed565b91505092915050565b600061087061086b84610790565b61039f565b905080838252602082019050602084028301858111156108935761089261053d565b5b835b818110156108da57803567ffffffffffffffff8111156108b8576108b7610324565b5b8086016108c5898261082f565b85526020850194505050602081019050610895565b5050509392505050565b600082601f8301126108f9576108f8610324565b5b813561090984826020860161085d565b91505092915050565b60008060408385031215610929576109286102e4565b5b600083013567ffffffffffffffff811115610947576109466102e9565b5b610953858286016106ea565b925050602083013567ffffffffffffffff811115610974576109736102e9565b5b610980858286016108e4565b9150509250929050565b610993816102ee565b82525050565b600081519050919050565b600082825260208201905092915050565b60005b838110156109d35780820151818401526020810190506109b8565b838111156109e2576000848401525b50505050565b60006109f382610999565b6109fd81856109a4565b9350610a0d8185602086016109b5565b610a168161032e565b840191505092915050565b6000604082019050610a36600083018561098a565b8181036020830152610a4881846109e8565b90509392505050565b60007fffffffff0000000000000000000000000000000000000000000000000000000082169050919050565b610a8681610a51565b8114610a9157600080fd5b50565b600081519050610aa381610a7d565b92915050565b600060208284031215610abf57610abe6102e4565b5b6000610acd84828501610a94565b91505092915050565b610adf81610562565b82525050565b600081519050919050565b600082825260208201905092915050565b6000610b0c82610ae5565b610b168185610af0565b9350610b268185602086016109b5565b610b2f8161032e565b840191505092915050565b6000604082019050610b4f6000830185610ad6565b8181036020830152610b618184610b01565b90509392505050565b60007fffffffffffffffffffffffff000000000000000000000000000000000000000082169050919050565b6000819050919050565b610bb1610bac82610b6a565b610b96565b82525050565b60007fffffffffffffffffffffffffffffffffffffffff00000000000000000000000082169050919050565b6000819050919050565b610bfe610bf982610bb7565b610be3565b82525050565b6000610c108285610ba0565b600c82019150610c208284610bed565b6014820191508190509392505050565b6000819050602082019050919050565b6000610c4c82516102ee565b80915050919050565b600082821b905092915050565b6000610c6d82610999565b82610c7784610c30565b9050610c8281610c40565b92506020821015610cc257610cbd7fffffffffffffffffffffffffffffffffffffffffffffffffffffffffffffffff83602003600802610c55565b831692505b5050919050565b6000602082019050610cde600083018461098a565b92915050565b6000610cf7610cf2846103ba565b61039f565b905082815260208101848484011115610d1357610d12610329565b5b610d1e8482856109b5565b509392505050565b600082601f830112610d3b57610d3a610324565b5b8151610d4b848260208601610ce4565b91505092915050565b600060208284031215610d6a57610d696102e4565b5b600082015167ffffffffffffffff811115610d8857610d876102e9565b5b610d9484828501610d26565b9150509291505056fea2646970667358221220edbee4d164d38e0402c5ae6fb44346464b3b7f60333711501a0feff0cc42e22d64736f6c634300080f0033",
  "immutableReferences": {},
  "source": "// SPDX-License-Identifier: CC0-1.0\n\npragma solidity ^0.8.0;\n\nimport {IERC725Y} from \"@erc725/smart-contracts/contracts/interfaces/IERC725Y.sol\";\nimport {LSP6KeyManager} from \"@lukso/lsp-smart-contracts/contracts/LSP6KeyManager/LSP6KeyManager.sol\";\nimport {\n  NoPermissionsSet,\n  NotAuthorised\n} from \"@lukso/lsp-smart-contracts/contracts/LSP6KeyManager/LSP6Errors.sol\";\nimport {\n  _ERC1271_MAGICVALUE,\n  _ERC1271_FAILVALUE\n} from \"@lukso/lsp-smart-contracts/contracts/LSP0ERC725Account/LSP0Constants.sol\";\nimport {\n  _LSP6KEY_ADDRESSPERMISSIONS_MULTISIGPERMISSIONS_PREFIX,\n\n  _PERMISSION_VOTE,\n  _PERMISSION_PROPOSE\n} from \"./MultisigConstants.sol\";\n\n/**\n *\n* @notice This smart contract is responsible for managing the Multisig Keys.\n *\n * @author B00ste\n * @title MultisigKeyManager\n * @custom:version 0.92\n */\ncontract MultisigKeyManager {\n\n  /**\n   * @notice Address of the DAO_ACCOUNT.\n   */\n  address payable private UNIVERSAL_PROFILE;\n\n  /**\n   * @notice Address of the KEY_MANAGER.\n   */\n  address private KEY_MANAGER;\n\n  /**\n   * @notice Address of the creator.\n   */\n  address private CREATOR;\n\n  constructor(\n    address payable _UNIVERSAL_PROFILE,\n    address _KEY_MANAGER\n  ) {\n    UNIVERSAL_PROFILE = _UNIVERSAL_PROFILE;\n    KEY_MANAGER = _KEY_MANAGER;\n  }\n\n\n  /**\n   * @notice Propose to execute methods on behalf of the multisig.\n   */\n  function proposeExecution(\n    address[] memory _targets,\n    bytes[] memory _datas\n  ) external {\n    _verifyPermission(msg.sender, _PERMISSION_PROPOSE, \"PROPOSE\");\n\n\n  }\n\n  /**\n   * @notice Sign a proposal.\n   */\n  function signProposal(\n    bytes32 _hash,\n    bytes memory _signature,\n    bool response\n  ) external {\n    bytes4 res = LSP6KeyManager(KEY_MANAGER).isValidSignature(_hash, _signature);\n    \n  }\n\n  /**\n   * @notice Execute a proposal if you have all the necessary signatures.\n   */\n  function execute(\n    bytes[] memory membersSignatures,\n    string[] memory signedMessages\n  ) external {\n    // ToDo verify if there are enought signatures on-chain and off-chain \n\n  }\n\n\n  // --- Internal Methods.\n\n\n  function _getPermissions(\n    address _from\n  )\n    internal\n    view\n    returns(bytes32 permissions)\n  {\n    permissions = bytes32(IERC725Y(UNIVERSAL_PROFILE).getData(bytes32(bytes.concat(\n      _LSP6KEY_ADDRESSPERMISSIONS_MULTISIGPERMISSIONS_PREFIX,\n      bytes20(_from)\n    ))));\n  }\n\n  function _verifyPermission(\n    address _from,\n    bytes32 _permission,\n    string memory _permissionName\n  )\n    internal\n    view\n  {\n    bytes32 permissions = _getPermissions(_from);\n    if(permissions & _permission == 0) revert NotAuthorised(_from, _permissionName);\n  }\n\n}",
  "sourcePath": "/home/b00ste/Projects/universal-profile-governance/contracts/Multisig/MultisigKeyManager.sol",
  "compiler": {
    "name": "solc",
    "version": "0.8.15+commit.e14f2714.Emscripten.clang"
  },
  "schemaVersion": "3.4.8",
  "updatedAt": "2022-07-27T15:35:25.324Z",
  "networkType": "ethereum",
  "devdoc": {
    "author": "B00ste",
    "custom:version": "0.92",
    "errors": {
      "NotAuthorised(address,string)": [
        {
          "details": "address `from` is not authorised to `permission`",
          "params": {
            "from": "address not-authorised",
            "permission": "permission required"
          }
        }
      ]
    },
    "kind": "dev",
    "methods": {},
    "title": "MultisigKeyManager",
    "version": 1
  },
  "userdoc": {
    "kind": "user",
    "methods": {
      "execute(bytes[],string[])": {
        "notice": "Execute a proposal if you have all the necessary signatures."
      },
      "proposeExecution(address[],bytes[])": {
        "notice": "Propose to execute methods on behalf of the multisig."
      },
      "signProposal(bytes32,bytes,bool)": {
        "notice": "Sign a proposal."
      }
    },
    "notice": "This smart contract is responsible for managing the Multisig Keys.",
    "version": 1
  }
}