{
  "contractName": "TransferableDaoToken",
  "abi": [
    {
      "inputs": [
        {
          "internalType": "string",
          "name": "name",
          "type": "string"
        },
        {
          "internalType": "string",
          "name": "symbol",
          "type": "string"
        },
        {
          "internalType": "address",
          "name": "_protocolAddress",
          "type": "address"
        }
      ],
      "stateMutability": "nonpayable",
      "type": "constructor"
    },
    {
      "inputs": [],
      "name": "LSP8CannotSendToAddressZero",
      "type": "error"
    },
    {
      "inputs": [],
      "name": "LSP8CannotUseAddressZeroAsOperator",
      "type": "error"
    },
    {
      "inputs": [],
      "name": "LSP8InvalidTransferBatch",
      "type": "error"
    },
    {
      "inputs": [
        {
          "internalType": "bytes32",
          "name": "tokenId",
          "type": "bytes32"
        }
      ],
      "name": "LSP8NonExistentTokenId",
      "type": "error"
    },
    {
      "inputs": [
        {
          "internalType": "bytes32",
          "name": "tokenId",
          "type": "bytes32"
        },
        {
          "internalType": "address",
          "name": "caller",
          "type": "address"
        }
      ],
      "name": "LSP8NotTokenOperator",
      "type": "error"
    },
    {
      "inputs": [
        {
          "internalType": "address",
          "name": "tokenOwner",
          "type": "address"
        },
        {
          "internalType": "bytes32",
          "name": "tokenId",
          "type": "bytes32"
        },
        {
          "internalType": "address",
          "name": "caller",
          "type": "address"
        }
      ],
      "name": "LSP8NotTokenOwner",
      "type": "error"
    },
    {
      "inputs": [
        {
          "internalType": "address",
          "name": "tokenReceiver",
          "type": "address"
        }
      ],
      "name": "LSP8NotifyTokenReceiverContractMissingLSP1Interface",
      "type": "error"
    },
    {
      "inputs": [
        {
          "internalType": "address",
          "name": "tokenReceiver",
          "type": "address"
        }
      ],
      "name": "LSP8NotifyTokenReceiverIsEOA",
      "type": "error"
    },
    {
      "inputs": [
        {
          "internalType": "bytes32",
          "name": "tokenId",
          "type": "bytes32"
        }
      ],
      "name": "LSP8TokenIdAlreadyMinted",
      "type": "error"
    },
    {
      "anonymous": false,
      "inputs": [
        {
          "indexed": true,
          "internalType": "address",
          "name": "operator",
          "type": "address"
        },
        {
          "indexed": true,
          "internalType": "address",
          "name": "tokenOwner",
          "type": "address"
        },
        {
          "indexed": true,
          "internalType": "bytes32",
          "name": "tokenId",
          "type": "bytes32"
        }
      ],
      "name": "AuthorizedOperator",
      "type": "event"
    },
    {
      "anonymous": false,
      "inputs": [
        {
          "indexed": true,
          "internalType": "bytes32",
          "name": "dataKey",
          "type": "bytes32"
        }
      ],
      "name": "DataChanged",
      "type": "event"
    },
    {
      "anonymous": false,
      "inputs": [
        {
          "indexed": true,
          "internalType": "address",
          "name": "previousOwner",
          "type": "address"
        },
        {
          "indexed": true,
          "internalType": "address",
          "name": "newOwner",
          "type": "address"
        }
      ],
      "name": "OwnershipTransferred",
      "type": "event"
    },
    {
      "anonymous": false,
      "inputs": [
        {
          "indexed": true,
          "internalType": "address",
          "name": "operator",
          "type": "address"
        },
        {
          "indexed": true,
          "internalType": "address",
          "name": "tokenOwner",
          "type": "address"
        },
        {
          "indexed": true,
          "internalType": "bytes32",
          "name": "tokenId",
          "type": "bytes32"
        }
      ],
      "name": "RevokedOperator",
      "type": "event"
    },
    {
      "anonymous": false,
      "inputs": [
        {
          "indexed": false,
          "internalType": "address",
          "name": "operator",
          "type": "address"
        },
        {
          "indexed": true,
          "internalType": "address",
          "name": "from",
          "type": "address"
        },
        {
          "indexed": true,
          "internalType": "address",
          "name": "to",
          "type": "address"
        },
        {
          "indexed": true,
          "internalType": "bytes32",
          "name": "tokenId",
          "type": "bytes32"
        },
        {
          "indexed": false,
          "internalType": "bool",
          "name": "force",
          "type": "bool"
        },
        {
          "indexed": false,
          "internalType": "bytes",
          "name": "data",
          "type": "bytes"
        }
      ],
      "name": "Transfer",
      "type": "event"
    },
    {
      "inputs": [
        {
          "internalType": "address",
          "name": "operator",
          "type": "address"
        },
        {
          "internalType": "bytes32",
          "name": "tokenId",
          "type": "bytes32"
        }
      ],
      "name": "authorizeOperator",
      "outputs": [],
      "stateMutability": "nonpayable",
      "type": "function"
    },
    {
      "inputs": [
        {
          "internalType": "address",
          "name": "tokenOwner",
          "type": "address"
        }
      ],
      "name": "balanceOf",
      "outputs": [
        {
          "internalType": "uint256",
          "name": "",
          "type": "uint256"
        }
      ],
      "stateMutability": "view",
      "type": "function"
    },
    {
      "inputs": [
        {
          "internalType": "bytes32[]",
          "name": "dataKeys",
          "type": "bytes32[]"
        }
      ],
      "name": "getData",
      "outputs": [
        {
          "internalType": "bytes[]",
          "name": "dataValues",
          "type": "bytes[]"
        }
      ],
      "stateMutability": "view",
      "type": "function"
    },
    {
      "inputs": [
        {
          "internalType": "bytes32",
          "name": "dataKey",
          "type": "bytes32"
        }
      ],
      "name": "getData",
      "outputs": [
        {
          "internalType": "bytes",
          "name": "dataValue",
          "type": "bytes"
        }
      ],
      "stateMutability": "view",
      "type": "function"
    },
    {
      "inputs": [
        {
          "internalType": "bytes32",
          "name": "tokenId",
          "type": "bytes32"
        }
      ],
      "name": "getOperatorsOf",
      "outputs": [
        {
          "internalType": "address[]",
          "name": "",
          "type": "address[]"
        }
      ],
      "stateMutability": "view",
      "type": "function"
    },
    {
      "inputs": [
        {
          "internalType": "address",
          "name": "operator",
          "type": "address"
        },
        {
          "internalType": "bytes32",
          "name": "tokenId",
          "type": "bytes32"
        }
      ],
      "name": "isOperatorFor",
      "outputs": [
        {
          "internalType": "bool",
          "name": "",
          "type": "bool"
        }
      ],
      "stateMutability": "view",
      "type": "function"
    },
    {
      "inputs": [],
      "name": "owner",
      "outputs": [
        {
          "internalType": "address",
          "name": "",
          "type": "address"
        }
      ],
      "stateMutability": "view",
      "type": "function"
    },
    {
      "inputs": [],
      "name": "renounceOwnership",
      "outputs": [],
      "stateMutability": "nonpayable",
      "type": "function"
    },
    {
      "inputs": [
        {
          "internalType": "address",
          "name": "operator",
          "type": "address"
        },
        {
          "internalType": "bytes32",
          "name": "tokenId",
          "type": "bytes32"
        }
      ],
      "name": "revokeOperator",
      "outputs": [],
      "stateMutability": "nonpayable",
      "type": "function"
    },
    {
      "inputs": [
        {
          "internalType": "bytes32[]",
          "name": "dataKeys",
          "type": "bytes32[]"
        },
        {
          "internalType": "bytes[]",
          "name": "dataValues",
          "type": "bytes[]"
        }
      ],
      "name": "setData",
      "outputs": [],
      "stateMutability": "nonpayable",
      "type": "function"
    },
    {
      "inputs": [
        {
          "internalType": "bytes32",
          "name": "dataKey",
          "type": "bytes32"
        },
        {
          "internalType": "bytes",
          "name": "dataValue",
          "type": "bytes"
        }
      ],
      "name": "setData",
      "outputs": [],
      "stateMutability": "nonpayable",
      "type": "function"
    },
    {
      "inputs": [
        {
          "internalType": "bytes4",
          "name": "interfaceId",
          "type": "bytes4"
        }
      ],
      "name": "supportsInterface",
      "outputs": [
        {
          "internalType": "bool",
          "name": "",
          "type": "bool"
        }
      ],
      "stateMutability": "view",
      "type": "function"
    },
    {
      "inputs": [
        {
          "internalType": "address",
          "name": "tokenOwner",
          "type": "address"
        }
      ],
      "name": "tokenIdsOf",
      "outputs": [
        {
          "internalType": "bytes32[]",
          "name": "",
          "type": "bytes32[]"
        }
      ],
      "stateMutability": "view",
      "type": "function"
    },
    {
      "inputs": [
        {
          "internalType": "bytes32",
          "name": "tokenId",
          "type": "bytes32"
        }
      ],
      "name": "tokenOwnerOf",
      "outputs": [
        {
          "internalType": "address",
          "name": "",
          "type": "address"
        }
      ],
      "stateMutability": "view",
      "type": "function"
    },
    {
      "inputs": [],
      "name": "totalSupply",
      "outputs": [
        {
          "internalType": "uint256",
          "name": "",
          "type": "uint256"
        }
      ],
      "stateMutability": "view",
      "type": "function"
    },
    {
      "inputs": [
        {
          "internalType": "address",
          "name": "from",
          "type": "address"
        },
        {
          "internalType": "address",
          "name": "to",
          "type": "address"
        },
        {
          "internalType": "bytes32",
          "name": "tokenId",
          "type": "bytes32"
        },
        {
          "internalType": "bool",
          "name": "force",
          "type": "bool"
        },
        {
          "internalType": "bytes",
          "name": "data",
          "type": "bytes"
        }
      ],
      "name": "transfer",
      "outputs": [],
      "stateMutability": "nonpayable",
      "type": "function"
    },
    {
      "inputs": [
        {
          "internalType": "address[]",
          "name": "from",
          "type": "address[]"
        },
        {
          "internalType": "address[]",
          "name": "to",
          "type": "address[]"
        },
        {
          "internalType": "bytes32[]",
          "name": "tokenId",
          "type": "bytes32[]"
        },
        {
          "internalType": "bool",
          "name": "force",
          "type": "bool"
        },
        {
          "internalType": "bytes[]",
          "name": "data",
          "type": "bytes[]"
        }
      ],
      "name": "transferBatch",
      "outputs": [],
      "stateMutability": "nonpayable",
      "type": "function"
    },
    {
      "inputs": [
        {
          "internalType": "address",
          "name": "newOwner",
          "type": "address"
        }
      ],
      "name": "transferOwnership",
      "outputs": [],
      "stateMutability": "nonpayable",
      "type": "function"
    },
    {
      "inputs": [
        {
          "internalType": "string",
          "name": "data",
          "type": "string"
        }
      ],
      "name": "mint",
      "outputs": [],
      "stateMutability": "nonpayable",
      "type": "function"
    }
  ],
  "bytecode": "0x608060405260006007553480156200001657600080fd5b50604051620043563803806200435683398181016040528101906200003c919062000514565b8282338282828062000059816200018d60201b62000eb31760201c565b50620000c97feafec4d89fa9619884b60000a4d96624a38f7ac2d8d9a604ecf07c12c77e480c60001b6040518060400160405280600481526020017fa4d96624000000000000000000000000000000000000000000000000000000008152506200029560201b62000fb21760201c565b620001037fdeba1e292f8ba88238e10ab3c7f88bd4be4fac56cad5194b6ecceaf653468af160001b846200029560201b62000fb21760201c565b6200013d7f2f0a68ab07768e01943a599e73362a0e17a63a72e94dd2e384d2c1d4db93275660001b836200029560201b62000fb21760201c565b50505050505080600660006101000a81548173ffffffffffffffffffffffffffffffffffffffff021916908373ffffffffffffffffffffffffffffffffffffffff160217905550505050620008e0565b6200019d620002e960201b60201c565b73ffffffffffffffffffffffffffffffffffffffff168173ffffffffffffffffffffffffffffffffffffffff1614620002925760008060009054906101000a900473ffffffffffffffffffffffffffffffffffffffff169050816000806101000a81548173ffffffffffffffffffffffffffffffffffffffff021916908373ffffffffffffffffffffffffffffffffffffffff1602179055508173ffffffffffffffffffffffffffffffffffffffff168173ffffffffffffffffffffffffffffffffffffffff167f8be0079c531659141344cd1fd0a4f28419497f9722a3daafe3b4186f6b6457e060405160405180910390a3505b50565b80600160008481526020019081526020016000209081620002b79190620007f9565b50817fcdf4e344c0d23d4cdd0474039d176c55b19d531070dbe17856bfb993a5b5720b60405160405180910390a25050565b60008060009054906101000a900473ffffffffffffffffffffffffffffffffffffffff16905090565b6000604051905090565b600080fd5b600080fd5b600080fd5b600080fd5b6000601f19601f8301169050919050565b7f4e487b7100000000000000000000000000000000000000000000000000000000600052604160045260246000fd5b6200037b8262000330565b810181811067ffffffffffffffff821117156200039d576200039c62000341565b5b80604052505050565b6000620003b262000312565b9050620003c0828262000370565b919050565b600067ffffffffffffffff821115620003e357620003e262000341565b5b620003ee8262000330565b9050602081019050919050565b60005b838110156200041b578082015181840152602081019050620003fe565b838111156200042b576000848401525b50505050565b6000620004486200044284620003c5565b620003a6565b9050828152602081018484840111156200046757620004666200032b565b5b62000474848285620003fb565b509392505050565b600082601f83011262000494576200049362000326565b5b8151620004a684826020860162000431565b91505092915050565b600073ffffffffffffffffffffffffffffffffffffffff82169050919050565b6000620004dc82620004af565b9050919050565b620004ee81620004cf565b8114620004fa57600080fd5b50565b6000815190506200050e81620004e3565b92915050565b60008060006060848603121562000530576200052f6200031c565b5b600084015167ffffffffffffffff81111562000551576200055062000321565b5b6200055f868287016200047c565b935050602084015167ffffffffffffffff81111562000583576200058262000321565b5b62000591868287016200047c565b9250506040620005a486828701620004fd565b9150509250925092565b600081519050919050565b7f4e487b7100000000000000000000000000000000000000000000000000000000600052602260045260246000fd5b600060028204905060018216806200060157607f821691505b602082108103620006175762000616620005b9565b5b50919050565b60008190508160005260206000209050919050565b60006020601f8301049050919050565b600082821b905092915050565b600060088302620006817fffffffffffffffffffffffffffffffffffffffffffffffffffffffffffffffff8262000642565b6200068d868362000642565b95508019841693508086168417925050509392505050565b6000819050919050565b6000819050919050565b6000620006da620006d4620006ce84620006a5565b620006af565b620006a5565b9050919050565b6000819050919050565b620006f683620006b9565b6200070e6200070582620006e1565b8484546200064f565b825550505050565b600090565b6200072562000716565b62000732818484620006eb565b505050565b5b818110156200075a576200074e6000826200071b565b60018101905062000738565b5050565b601f821115620007a95762000773816200061d565b6200077e8462000632565b810160208510156200078e578190505b620007a66200079d8562000632565b83018262000737565b50505b505050565b600082821c905092915050565b6000620007ce60001984600802620007ae565b1980831691505092915050565b6000620007e98383620007bb565b9150826002028217905092915050565b6200080482620005ae565b67ffffffffffffffff81111562000820576200081f62000341565b5b6200082c8254620005e8565b620008398282856200075e565b600060209050601f8311600181146200087157600084156200085c578287015190505b620008688582620007db565b865550620008d8565b601f19841662000881866200061d565b60005b82811015620008ab5784890151825560018201915060208501945060208101905062000884565b86831015620008cb5784890151620008c7601f891682620007bb565b8355505b6001600288020188555050505b505050505050565b613a6680620008f06000396000f3fe608060405234801561001057600080fd5b50600436106101215760003560e01c806354f6127f116100ad5780638da5cb5b116100715780638da5cb5b1461032a578063a3b261f214610348578063cf5182ba14610378578063d85d3d2714610394578063f2fde38b146103b057610121565b806354f6127f1461028857806355908868146102b857806370a08231146102d4578063715018a6146103045780637f23690c1461030e57610121565b8063217b2270116100f4578063217b2270146101ac5780632a3654a4146101dc57806349a6078d1461020c5780634e3e6e9c1461023c578063511b69521461026c57610121565b806301ffc9a7146101265780630b0c6d821461015657806314a6e2931461017257806318160ddd1461018e575b600080fd5b610140600480360381019061013b9190612225565b6103cc565b60405161014d919061226d565b60405180910390f35b610170600480360381019061016b919061231c565b61042d565b005b61018c6004803603810190610187919061264b565b61056c565b005b610196610684565b6040516101a391906126dc565b60405180910390f35b6101c660048036038101906101c191906126f7565b61068e565b6040516101d39190612733565b60405180910390f35b6101f660048036038101906101f1919061231c565b610741565b604051610203919061226d565b60405180910390f35b610226600480360381019061022191906126f7565b61075e565b604051610233919061280c565b60405180910390f35b6102566004803603810190610251919061282e565b61078b565b60405161026391906129c1565b60405180910390f35b61028660048036038101906102819190612a0f565b610841565b005b6102a2600480360381019061029d91906126f7565b6108af565b6040516102af9190612af0565b60405180910390f35b6102d260048036038101906102cd9190612bd5565b6108c1565b005b6102ee60048036038101906102e99190612cc0565b6109b4565b6040516102fb91906126dc565b60405180910390f35b61030c610a04565b005b61032860048036038101906103239190612ced565b610a85565b005b610332610b08565b60405161033f9190612733565b60405180910390f35b610362600480360381019061035d9190612cc0565b610b31565b60405161036f9190612e07565b60405180910390f35b610392600480360381019061038d919061231c565b610b81565b005b6103ae60048036038101906103a99190612eca565b610d36565b005b6103ca60048036038101906103c59190612cc0565b610dc3565b005b6000634939914560e01b7bffffffffffffffffffffffffffffffffffffffffffffffffffffffff1916827bffffffffffffffffffffffffffffffffffffffffffffffffffffffff19161480610426575061042582611004565b5b9050919050565b60006104388261068e565b90506000610444611065565b90508073ffffffffffffffffffffffffffffffffffffffff168273ffffffffffffffffffffffffffffffffffffffff16146104ba578183826040517f5b271ea20000000000000000000000000000000000000000000000000000000081526004016104b193929190612f22565b60405180910390fd5b600073ffffffffffffffffffffffffffffffffffffffff168473ffffffffffffffffffffffffffffffffffffffff1603610520576040517f9577b8b300000000000000000000000000000000000000000000000000000000815260040160405180910390fd5b8373ffffffffffffffffffffffffffffffffffffffff168273ffffffffffffffffffffffffffffffffffffffff160361055a575050610568565b61056584838561106d565b50505b5050565b3373ffffffffffffffffffffffffffffffffffffffff1661058b610b08565b73ffffffffffffffffffffffffffffffffffffffff16146105e1576040517f08c379a00000000000000000000000000000000000000000000000000000000081526004016105d890612fb6565b60405180910390fd5b8051825114610625576040517f08c379a000000000000000000000000000000000000000000000000000000000815260040161061c90613048565b60405180910390fd5b60005b825181101561067f5761066f83828151811061064757610646613068565b5b602002602001015183838151811061066257610661613068565b5b60200260200101516110f3565b610678816111cb565b9050610628565b505050565b6000600254905090565b6000806003600084815260200190815260200160002060009054906101000a900473ffffffffffffffffffffffffffffffffffffffff169050600073ffffffffffffffffffffffffffffffffffffffff168173ffffffffffffffffffffffffffffffffffffffff160361073857826040517fae8f9a3600000000000000000000000000000000000000000000000000000000815260040161072f9190613097565b60405180910390fd5b80915050919050565b600061074c826111d8565b6107568383611225565b905092915050565b6060610769826111d8565b61078460056000848152602001908152602001600020611297565b9050919050565b6060815167ffffffffffffffff8111156107a8576107a7612372565b5b6040519080825280602002602001820160405280156107db57816020015b60608152602001906001900390816107c65790505b50905060005b825181101561083b5761080d838281518110610800576107ff613068565b5b60200260200101516112b8565b8282815181106108205761081f613068565b5b6020026020010181905250610834816111cb565b90506107e1565b50919050565b600061084b611065565b90506108578185611225565b61089a5783816040517f1294d2a90000000000000000000000000000000000000000000000000000000081526004016108919291906130b2565b60405180910390fd5b6108a7868686868661135d565b505050505050565b60606108ba826112b8565b9050919050565b835185511415806108d457508251855114155b806108e157508051855114155b15610918576040517f93a8311900000000000000000000000000000000000000000000000000000000815260040160405180910390fd5b60005b85518110156109ac5761099986828151811061093a57610939613068565b5b602002602001015186838151811061095557610954613068565b5b60200260200101518684815181106109705761096f613068565b5b60200260200101518686868151811061098c5761098b613068565b5b6020026020010151610841565b80806109a49061310a565b91505061091b565b505050505050565b60006109fd600460008473ffffffffffffffffffffffffffffffffffffffff1673ffffffffffffffffffffffffffffffffffffffff168152602001908152602001600020611459565b9050919050565b3373ffffffffffffffffffffffffffffffffffffffff16610a23610b08565b73ffffffffffffffffffffffffffffffffffffffff1614610a79576040517f08c379a0000000000000000000000000000000000000000000000000000000008152600401610a7090612fb6565b60405180910390fd5b610a836000610eb3565b565b3373ffffffffffffffffffffffffffffffffffffffff16610aa4610b08565b73ffffffffffffffffffffffffffffffffffffffff1614610afa576040517f08c379a0000000000000000000000000000000000000000000000000000000008152600401610af190612fb6565b60405180910390fd5b610b0482826110f3565b5050565b60008060009054906101000a900473ffffffffffffffffffffffffffffffffffffffff16905090565b6060610b7a600460008473ffffffffffffffffffffffffffffffffffffffff1673ffffffffffffffffffffffffffffffffffffffff16815260200190815260200160002061146e565b9050919050565b6000610b8c8261068e565b90506000610b98611065565b90508073ffffffffffffffffffffffffffffffffffffffff168273ffffffffffffffffffffffffffffffffffffffff1614610c0e578183826040517f5b271ea2000000000000000000000000000000000000000000000000000000008152600401610c0593929190612f22565b60405180910390fd5b600073ffffffffffffffffffffffffffffffffffffffff168473ffffffffffffffffffffffffffffffffffffffff1603610c74576040517f9577b8b300000000000000000000000000000000000000000000000000000000815260040160405180910390fd5b8373ffffffffffffffffffffffffffffffffffffffff168273ffffffffffffffffffffffffffffffffffffffff1603610cae575050610d32565b610cd3846005600086815260200190815260200160002061148390919063ffffffff16565b50828273ffffffffffffffffffffffffffffffffffffffff168573ffffffffffffffffffffffffffffffffffffffff167f34b797fc5a526f7bf1d2b5de25f6564fd85ae364e3ee939aee7c1ac27871a98860405160405180910390a450505b5050565b60076000815480929190610d499061310a565b9190505550610dc0600660009054906101000a900473ffffffffffffffffffffffffffffffffffffffff1660075460001b600184604051602001610d8d9190613196565b604051602081830303815290604052604051602001610dac91906131f4565b6040516020818303038152906040526114b3565b50565b3373ffffffffffffffffffffffffffffffffffffffff16610de2610b08565b73ffffffffffffffffffffffffffffffffffffffff1614610e38576040517f08c379a0000000000000000000000000000000000000000000000000000000008152600401610e2f90612fb6565b60405180910390fd5b600073ffffffffffffffffffffffffffffffffffffffff168173ffffffffffffffffffffffffffffffffffffffff1603610ea7576040517f08c379a0000000000000000000000000000000000000000000000000000000008152600401610e9e9061327d565b60405180910390fd5b610eb081610eb3565b50565b610ebb610b08565b73ffffffffffffffffffffffffffffffffffffffff168173ffffffffffffffffffffffffffffffffffffffff1614610faf5760008060009054906101000a900473ffffffffffffffffffffffffffffffffffffffff169050816000806101000a81548173ffffffffffffffffffffffffffffffffffffffff021916908373ffffffffffffffffffffffffffffffffffffffff1602179055508173ffffffffffffffffffffffffffffffffffffffff168173ffffffffffffffffffffffffffffffffffffffff167f8be0079c531659141344cd1fd0a4f28419497f9722a3daafe3b4186f6b6457e060405160405180910390a3505b50565b80600160008481526020019081526020016000209081610fd291906134a9565b50817fcdf4e344c0d23d4cdd0474039d176c55b19d531070dbe17856bfb993a5b5720b60405160405180910390a25050565b600063714df77c60e01b7bffffffffffffffffffffffffffffffffffffffffffffffffffffffff1916827bffffffffffffffffffffffffffffffffffffffffffffffffffffffff1916148061105e575061105d826116a0565b5b9050919050565b600033905090565b611092836005600084815260200190815260200160002061170a90919063ffffffff16565b50808273ffffffffffffffffffffffffffffffffffffffff168473ffffffffffffffffffffffffffffffffffffffff167f17d5389f6ab6adb2647dfa0aa365c323d37adacc30b33a65310b6158ce1373d560405160405180910390a4505050565b7fdeba1e292f8ba88238e10ab3c7f88bd4be4fac56cad5194b6ecceaf653468af160001b8203611158576040517f08c379a000000000000000000000000000000000000000000000000000000000815260040161114f906135ed565b60405180910390fd5b7f2f0a68ab07768e01943a599e73362a0e17a63a72e94dd2e384d2c1d4db93275660001b82036111bd576040517f08c379a00000000000000000000000000000000000000000000000000000000081526004016111b49061367f565b60405180910390fd5b6111c78282610fb2565b5050565b6000600182019050919050565b6111e18161173a565b61122257806040517fae8f9a360000000000000000000000000000000000000000000000000000000081526004016112199190613097565b60405180910390fd5b50565b6000806112318361068e565b90508073ffffffffffffffffffffffffffffffffffffffff168473ffffffffffffffffffffffffffffffffffffffff16148061128e575061128d84600560008681526020019081526020016000206117a690919063ffffffff16565b5b91505092915050565b606060006112a7836000016117d6565b905060608190508092505050919050565b60606001600083815260200190815260200160002080546112d8906132cc565b80601f0160208091040260200160405190810160405280929190818152602001828054611304906132cc565b80156113515780601f1061132657610100808354040283529160200191611351565b820191906000526020600020905b81548152906001019060200180831161133457829003601f168201915b50505050509050919050565b600660009054906101000a900473ffffffffffffffffffffffffffffffffffffffff1673ffffffffffffffffffffffffffffffffffffffff168473ffffffffffffffffffffffffffffffffffffffff1614806114065750600660009054906101000a900473ffffffffffffffffffffffffffffffffffffffff1673ffffffffffffffffffffffffffffffffffffffff168573ffffffffffffffffffffffffffffffffffffffff16145b611445576040517f08c379a000000000000000000000000000000000000000000000000000000000815260040161143c90613711565b60405180910390fd5b6114528585858585611832565b5050505050565b600061146782600001611abc565b9050919050565b606061147c826000016117d6565b9050919050565b60006114ab836000018373ffffffffffffffffffffffffffffffffffffffff1660001b611acd565b905092915050565b600073ffffffffffffffffffffffffffffffffffffffff168473ffffffffffffffffffffffffffffffffffffffff1603611519576040517f24ecef4d00000000000000000000000000000000000000000000000000000000815260040160405180910390fd5b6115228361173a565b1561156457826040517f34c7b51100000000000000000000000000000000000000000000000000000000815260040161155b9190613097565b60405180910390fd5b600061156e611065565b905061157c60008686611b3d565b6115cd84600460008873ffffffffffffffffffffffffffffffffffffffff1673ffffffffffffffffffffffffffffffffffffffff168152602001908152602001600020611be090919063ffffffff16565b50846003600086815260200190815260200160002060006101000a81548173ffffffffffffffffffffffffffffffffffffffff021916908373ffffffffffffffffffffffffffffffffffffffff160217905550838573ffffffffffffffffffffffffffffffffffffffff16600073ffffffffffffffffffffffffffffffffffffffff167fb333c813a7426a7a11e2b190cad52c44119421594b47f6f32ace6d8c7207b2bf84878760405161168393929190613731565b60405180910390a4611699600086868686611bf7565b5050505050565b60007f01ffc9a7000000000000000000000000000000000000000000000000000000007bffffffffffffffffffffffffffffffffffffffffffffffffffffffff1916827bffffffffffffffffffffffffffffffffffffffffffffffffffffffff1916149050919050565b6000611732836000018373ffffffffffffffffffffffffffffffffffffffff1660001b611d8a565b905092915050565b60008073ffffffffffffffffffffffffffffffffffffffff166003600084815260200190815260200160002060009054906101000a900473ffffffffffffffffffffffffffffffffffffffff1673ffffffffffffffffffffffffffffffffffffffff1614159050919050565b60006117ce836000018373ffffffffffffffffffffffffffffffffffffffff1660001b611e9e565b905092915050565b60608160000180548060200260200160405190810160405280929190818152602001828054801561182657602002820191906000526020600020905b815481526020019060010190808311611812575b50505050509050919050565b600061183d8461068e565b90508573ffffffffffffffffffffffffffffffffffffffff168173ffffffffffffffffffffffffffffffffffffffff16146118b3578084876040517f5b271ea20000000000000000000000000000000000000000000000000000000081526004016118aa93929190612f22565b60405180910390fd5b600073ffffffffffffffffffffffffffffffffffffffff168573ffffffffffffffffffffffffffffffffffffffff1603611919576040517f24ecef4d00000000000000000000000000000000000000000000000000000000815260040160405180910390fd5b6000611923611065565b9050611930878787611b3d565b61193a8786611ec1565b61198b85600460008a73ffffffffffffffffffffffffffffffffffffffff1673ffffffffffffffffffffffffffffffffffffffff168152602001908152602001600020611f2e90919063ffffffff16565b506119dd85600460008973ffffffffffffffffffffffffffffffffffffffff1673ffffffffffffffffffffffffffffffffffffffff168152602001908152602001600020611be090919063ffffffff16565b50856003600087815260200190815260200160002060006101000a81548173ffffffffffffffffffffffffffffffffffffffff021916908373ffffffffffffffffffffffffffffffffffffffff160217905550848673ffffffffffffffffffffffffffffffffffffffff168873ffffffffffffffffffffffffffffffffffffffff167fb333c813a7426a7a11e2b190cad52c44119421594b47f6f32ace6d8c7207b2bf848888604051611a9293929190613731565b60405180910390a4611aa687878786611f45565b611ab38787878787611bf7565b50505050505050565b600081600001805490509050919050565b6000611ad98383611e9e565b611b32578260000182908060018154018082558091505060019003906000526020600020016000909190919091505582600001805490508360010160008481526020019081526020016000208190555060019050611b37565b600090505b92915050565b600073ffffffffffffffffffffffffffffffffffffffff168373ffffffffffffffffffffffffffffffffffffffff1603611b8c57600160026000828254611b84919061376f565b925050819055505b600073ffffffffffffffffffffffffffffffffffffffff168273ffffffffffffffffffffffffffffffffffffffff1603611bdb57600160026000828254611bd391906137c5565b925050819055505b505050565b6000611bef8360000183611acd565b905092915050565b611c0884636bb56a1460e01b612034565b15611ce457600085858584604051602001611c269493929190613862565b60405160208183030381529060405290508473ffffffffffffffffffffffffffffffffffffffff16636bb56a147fc7a120a42b6057a0cbed111fbbfbd52fcd96748c04394f77fc2c3adbe0391e0160001b836040518363ffffffff1660e01b8152600401611c959291906138ac565b6000604051808303816000875af1158015611cb4573d6000803e3d6000fd5b505050506040513d6000823e3d601f19601f82011682018060405250810190611cdd919061394c565b5050611d83565b81611d825760008473ffffffffffffffffffffffffffffffffffffffff163b14611d4557836040517f4349776d000000000000000000000000000000000000000000000000000000008152600401611d3c9190612733565b60405180910390fd5b836040517f03173137000000000000000000000000000000000000000000000000000000008152600401611d799190612733565b60405180910390fd5b5b5050505050565b60008083600101600084815260200190815260200160002054905060008114611e92576000600182611dbc91906137c5565b9050600060018660000180549050611dd491906137c5565b9050818114611e43576000866000018281548110611df557611df4613068565b5b9060005260206000200154905080876000018481548110611e1957611e18613068565b5b90600052602060002001819055508387600101600083815260200190815260200160002081905550505b85600001805480611e5757611e56613995565b5b600190038181906000526020600020016000905590558560010160008681526020019081526020016000206000905560019350505050611e98565b60009150505b92915050565b600080836001016000848152602001908152602001600020541415905092915050565b60006005600083815260200190815260200160002090506000611ee38261215f565b905060005b81811015611f27576000611f0660008561217490919063ffffffff16565b9050611f1381878761106d565b508080611f1f9061310a565b915050611ee8565b5050505050565b6000611f3d8360000183611d8a565b905092915050565b611f5684636bb56a1460e01b612034565b1561202e57600084848484604051602001611f749493929190613862565b60405160208183030381529060405290508473ffffffffffffffffffffffffffffffffffffffff16636bb56a147f3724c94f0815e936299cca424da4140752198e0beb7931a6e0925d11bc97544c60001b836040518363ffffffff1660e01b8152600401611fe39291906138ac565b6000604051808303816000875af1158015612002573d6000803e3d6000fd5b505050506040513d6000823e3d601f19601f8201168201806040525081019061202b919061394c565b50505b50505050565b6000806301ffc9a760e01b8360405160240161205091906139d3565b604051602081830303815290604052907bffffffffffffffffffffffffffffffffffffffffffffffffffffffff19166020820180517bffffffffffffffffffffffffffffffffffffffffffffffffffffffff838183161783525050505090506000808573ffffffffffffffffffffffffffffffffffffffff16617530846040516120da91906131f4565b6000604051808303818686fa925050503d8060008114612116576040519150601f19603f3d011682016040523d82523d6000602084013e61211b565b606091505b50915091506020815110156121365760009350505050612159565b8180156121535750808060200190518101906121529190613a03565b5b93505050505b92915050565b600061216d82600001611abc565b9050919050565b6000612183836000018361218e565b60001c905092915050565b60008260000182815481106121a6576121a5613068565b5b9060005260206000200154905092915050565b6000604051905090565b600080fd5b600080fd5b60007fffffffff0000000000000000000000000000000000000000000000000000000082169050919050565b612202816121cd565b811461220d57600080fd5b50565b60008135905061221f816121f9565b92915050565b60006020828403121561223b5761223a6121c3565b5b600061224984828501612210565b91505092915050565b60008115159050919050565b61226781612252565b82525050565b6000602082019050612282600083018461225e565b92915050565b600073ffffffffffffffffffffffffffffffffffffffff82169050919050565b60006122b382612288565b9050919050565b6122c3816122a8565b81146122ce57600080fd5b50565b6000813590506122e0816122ba565b92915050565b6000819050919050565b6122f9816122e6565b811461230457600080fd5b50565b600081359050612316816122f0565b92915050565b60008060408385031215612333576123326121c3565b5b6000612341858286016122d1565b925050602061235285828601612307565b9150509250929050565b600080fd5b6000601f19601f8301169050919050565b7f4e487b7100000000000000000000000000000000000000000000000000000000600052604160045260246000fd5b6123aa82612361565b810181811067ffffffffffffffff821117156123c9576123c8612372565b5b80604052505050565b60006123dc6121b9565b90506123e882826123a1565b919050565b600067ffffffffffffffff82111561240857612407612372565b5b602082029050602081019050919050565b600080fd5b600061243161242c846123ed565b6123d2565b9050808382526020820190506020840283018581111561245457612453612419565b5b835b8181101561247d57806124698882612307565b845260208401935050602081019050612456565b5050509392505050565b600082601f83011261249c5761249b61235c565b5b81356124ac84826020860161241e565b91505092915050565b600067ffffffffffffffff8211156124d0576124cf612372565b5b602082029050602081019050919050565b600080fd5b600067ffffffffffffffff82111561250157612500612372565b5b61250a82612361565b9050602081019050919050565b82818337600083830152505050565b6000612539612534846124e6565b6123d2565b905082815260208101848484011115612555576125546124e1565b5b612560848285612517565b509392505050565b600082601f83011261257d5761257c61235c565b5b813561258d848260208601612526565b91505092915050565b60006125a96125a4846124b5565b6123d2565b905080838252602082019050602084028301858111156125cc576125cb612419565b5b835b8181101561261357803567ffffffffffffffff8111156125f1576125f061235c565b5b8086016125fe8982612568565b855260208501945050506020810190506125ce565b5050509392505050565b600082601f8301126126325761263161235c565b5b8135612642848260208601612596565b91505092915050565b60008060408385031215612662576126616121c3565b5b600083013567ffffffffffffffff8111156126805761267f6121c8565b5b61268c85828601612487565b925050602083013567ffffffffffffffff8111156126ad576126ac6121c8565b5b6126b98582860161261d565b9150509250929050565b6000819050919050565b6126d6816126c3565b82525050565b60006020820190506126f160008301846126cd565b92915050565b60006020828403121561270d5761270c6121c3565b5b600061271b84828501612307565b91505092915050565b61272d816122a8565b82525050565b60006020820190506127486000830184612724565b92915050565b600081519050919050565b600082825260208201905092915050565b6000819050602082019050919050565b612783816122a8565b82525050565b6000612795838361277a565b60208301905092915050565b6000602082019050919050565b60006127b98261274e565b6127c38185612759565b93506127ce8361276a565b8060005b838110156127ff5781516127e68882612789565b97506127f1836127a1565b9250506001810190506127d2565b5085935050505092915050565b6000602082019050818103600083015261282681846127ae565b905092915050565b600060208284031215612844576128436121c3565b5b600082013567ffffffffffffffff811115612862576128616121c8565b5b61286e84828501612487565b91505092915050565b600081519050919050565b600082825260208201905092915050565b6000819050602082019050919050565b600081519050919050565b600082825260208201905092915050565b60005b838110156128dd5780820151818401526020810190506128c2565b838111156128ec576000848401525b50505050565b60006128fd826128a3565b61290781856128ae565b93506129178185602086016128bf565b61292081612361565b840191505092915050565b600061293783836128f2565b905092915050565b6000602082019050919050565b600061295782612877565b6129618185612882565b93508360208202850161297385612893565b8060005b858110156129af5784840389528151612990858261292b565b945061299b8361293f565b925060208a01995050600181019050612977565b50829750879550505050505092915050565b600060208201905081810360008301526129db818461294c565b905092915050565b6129ec81612252565b81146129f757600080fd5b50565b600081359050612a09816129e3565b92915050565b600080600080600060a08688031215612a2b57612a2a6121c3565b5b6000612a39888289016122d1565b9550506020612a4a888289016122d1565b9450506040612a5b88828901612307565b9350506060612a6c888289016129fa565b925050608086013567ffffffffffffffff811115612a8d57612a8c6121c8565b5b612a9988828901612568565b9150509295509295909350565b600082825260208201905092915050565b6000612ac2826128a3565b612acc8185612aa6565b9350612adc8185602086016128bf565b612ae581612361565b840191505092915050565b60006020820190508181036000830152612b0a8184612ab7565b905092915050565b600067ffffffffffffffff821115612b2d57612b2c612372565b5b602082029050602081019050919050565b6000612b51612b4c84612b12565b6123d2565b90508083825260208201905060208402830185811115612b7457612b73612419565b5b835b81811015612b9d5780612b8988826122d1565b845260208401935050602081019050612b76565b5050509392505050565b600082601f830112612bbc57612bbb61235c565b5b8135612bcc848260208601612b3e565b91505092915050565b600080600080600060a08688031215612bf157612bf06121c3565b5b600086013567ffffffffffffffff811115612c0f57612c0e6121c8565b5b612c1b88828901612ba7565b955050602086013567ffffffffffffffff811115612c3c57612c3b6121c8565b5b612c4888828901612ba7565b945050604086013567ffffffffffffffff811115612c6957612c686121c8565b5b612c7588828901612487565b9350506060612c86888289016129fa565b925050608086013567ffffffffffffffff811115612ca757612ca66121c8565b5b612cb38882890161261d565b9150509295509295909350565b600060208284031215612cd657612cd56121c3565b5b6000612ce4848285016122d1565b91505092915050565b60008060408385031215612d0457612d036121c3565b5b6000612d1285828601612307565b925050602083013567ffffffffffffffff811115612d3357612d326121c8565b5b612d3f85828601612568565b9150509250929050565b600081519050919050565b600082825260208201905092915050565b6000819050602082019050919050565b612d7e816122e6565b82525050565b6000612d908383612d75565b60208301905092915050565b6000602082019050919050565b6000612db482612d49565b612dbe8185612d54565b9350612dc983612d65565b8060005b83811015612dfa578151612de18882612d84565b9750612dec83612d9c565b925050600181019050612dcd565b5085935050505092915050565b60006020820190508181036000830152612e218184612da9565b905092915050565b600067ffffffffffffffff821115612e4457612e43612372565b5b612e4d82612361565b9050602081019050919050565b6000612e6d612e6884612e29565b6123d2565b905082815260208101848484011115612e8957612e886124e1565b5b612e94848285612517565b509392505050565b600082601f830112612eb157612eb061235c565b5b8135612ec1848260208601612e5a565b91505092915050565b600060208284031215612ee057612edf6121c3565b5b600082013567ffffffffffffffff811115612efe57612efd6121c8565b5b612f0a84828501612e9c565b91505092915050565b612f1c816122e6565b82525050565b6000606082019050612f376000830186612724565b612f446020830185612f13565b612f516040830184612724565b949350505050565b600082825260208201905092915050565b7f4f776e61626c653a2063616c6c6572206973206e6f7420746865206f776e6572600082015250565b6000612fa0602083612f59565b9150612fab82612f6a565b602082019050919050565b60006020820190508181036000830152612fcf81612f93565b9050919050565b7f4b657973206c656e677468206e6f7420657175616c20746f2076616c7565732060008201527f6c656e6774680000000000000000000000000000000000000000000000000000602082015250565b6000613032602683612f59565b915061303d82612fd6565b604082019050919050565b6000602082019050818103600083015261306181613025565b9050919050565b7f4e487b7100000000000000000000000000000000000000000000000000000000600052603260045260246000fd5b60006020820190506130ac6000830184612f13565b92915050565b60006040820190506130c76000830185612f13565b6130d46020830184612724565b9392505050565b7f4e487b7100000000000000000000000000000000000000000000000000000000600052601160045260246000fd5b6000613115826126c3565b91507fffffffffffffffffffffffffffffffffffffffffffffffffffffffffffffffff8203613147576131466130db565b5b600182019050919050565b600081519050919050565b600061316882613152565b6131728185612f59565b93506131828185602086016128bf565b61318b81612361565b840191505092915050565b600060208201905081810360008301526131b0818461315d565b905092915050565b600081905092915050565b60006131ce826128a3565b6131d881856131b8565b93506131e88185602086016128bf565b80840191505092915050565b600061320082846131c3565b915081905092915050565b7f4f776e61626c653a206e6577206f776e657220697320746865207a65726f206160008201527f6464726573730000000000000000000000000000000000000000000000000000602082015250565b6000613267602683612f59565b91506132728261320b565b604082019050919050565b600060208201905081810360008301526132968161325a565b9050919050565b7f4e487b7100000000000000000000000000000000000000000000000000000000600052602260045260246000fd5b600060028204905060018216806132e457607f821691505b6020821081036132f7576132f661329d565b5b50919050565b60008190508160005260206000209050919050565b60006020601f8301049050919050565b600082821b905092915050565b60006008830261335f7fffffffffffffffffffffffffffffffffffffffffffffffffffffffffffffffff82613322565b6133698683613322565b95508019841693508086168417925050509392505050565b6000819050919050565b60006133a66133a161339c846126c3565b613381565b6126c3565b9050919050565b6000819050919050565b6133c08361338b565b6133d46133cc826133ad565b84845461332f565b825550505050565b600090565b6133e96133dc565b6133f48184846133b7565b505050565b5b818110156134185761340d6000826133e1565b6001810190506133fa565b5050565b601f82111561345d5761342e816132fd565b61343784613312565b81016020851015613446578190505b61345a61345285613312565b8301826133f9565b50505b505050565b600082821c905092915050565b600061348060001984600802613462565b1980831691505092915050565b6000613499838361346f565b9150826002028217905092915050565b6134b2826128a3565b67ffffffffffffffff8111156134cb576134ca612372565b5b6134d582546132cc565b6134e082828561341c565b600060209050601f8311600181146135135760008415613501578287015190505b61350b858261348d565b865550613573565b601f198416613521866132fd565b60005b8281101561354957848901518255600182019150602085019450602081019050613524565b868310156135665784890151613562601f89168261346f565b8355505b6001600288020188555050505b505050505050565b7f4c5350343a2063616e6e6f74206564697420546f6b656e204e616d652061667460008201527f6572206465706c6f796d656e7400000000000000000000000000000000000000602082015250565b60006135d7602d83612f59565b91506135e28261357b565b604082019050919050565b60006020820190508181036000830152613606816135ca565b9050919050565b7f4c5350343a2063616e6e6f74206564697420546f6b656e2053796d626f6c206160008201527f66746572206465706c6f796d656e740000000000000000000000000000000000602082015250565b6000613669602f83612f59565b91506136748261360d565b604082019050919050565b600060208201905081810360008301526136988161365c565b9050919050565b7f4e6f722073656e6465722c206e6f72207265636965766572206973207468652060008201527f70726f746f636f6c2e0000000000000000000000000000000000000000000000602082015250565b60006136fb602983612f59565b91506137068261369f565b604082019050919050565b6000602082019050818103600083015261372a816136ee565b9050919050565b60006060820190506137466000830186612724565b613753602083018561225e565b81810360408301526137658184612ab7565b9050949350505050565b600061377a826126c3565b9150613785836126c3565b9250827fffffffffffffffffffffffffffffffffffffffffffffffffffffffffffffffff038211156137ba576137b96130db565b5b828201905092915050565b60006137d0826126c3565b91506137db836126c3565b9250828210156137ee576137ed6130db565b5b828203905092915050565b60008160601b9050919050565b6000613811826137f9565b9050919050565b600061382382613806565b9050919050565b61383b613836826122a8565b613818565b82525050565b6000819050919050565b61385c613857826122e6565b613841565b82525050565b600061386e828761382a565b60148201915061387e828661382a565b60148201915061388e828561384b565b60208201915061389e82846131c3565b915081905095945050505050565b60006040820190506138c16000830185612f13565b81810360208301526138d38184612ab7565b90509392505050565b60006138ef6138ea846124e6565b6123d2565b90508281526020810184848401111561390b5761390a6124e1565b5b6139168482856128bf565b509392505050565b600082601f8301126139335761393261235c565b5b81516139438482602086016138dc565b91505092915050565b600060208284031215613962576139616121c3565b5b600082015167ffffffffffffffff8111156139805761397f6121c8565b5b61398c8482850161391e565b91505092915050565b7f4e487b7100000000000000000000000000000000000000000000000000000000600052603160045260246000fd5b6139cd816121cd565b82525050565b60006020820190506139e860008301846139c4565b92915050565b6000815190506139fd816129e3565b92915050565b600060208284031215613a1957613a186121c3565b5b6000613a27848285016139ee565b9150509291505056fea264697066735822122025f82f5328704cc9dbf40110ea3010bb965d10224ffef2d281aaaa9847c39c3064736f6c634300080f0033",
  "immutableReferences": {},
  "source": "// SPDX-License-Identifier: CC0-1.0\n\npragma solidity ^0.8.0;\n\nimport \"@lukso/lsp-smart-contracts/contracts/LSP8IdentifiableDigitalAsset/LSP8IdentifiableDigitalAsset.sol\";\n\n/**\n * @author B00ste\n * @title TransferableDaoToken\n * @custom:version 0.1\n */\ncontract TransferableDaoToken is LSP8IdentifiableDigitalAsset {\n\n  /**\n   * @notice The address of the protocol that is allowed to recieve and send tokens.\n   */\n  address protocolAddress;\n\n  /**\n   * @notice Latest tokenId minted.\n   */\n  uint256 latestTokenId = 0;\n\n  /**\n   * @notice Initializing LSP8IdentifiableDigitalAsset \n   */\n  constructor(\n    string memory name,\n    string memory symbol,\n    address _protocolAddress\n  )\n    LSP8IdentifiableDigitalAsset(name, symbol, msg.sender)\n  {\n    protocolAddress = _protocolAddress;\n  }\n\n  /**\n   * @notice Mint a new NFT.\n   *\n   * @param data Information stored in a string that will be encoded using abi.encode().\n   */\n  function mint(\n    string memory data\n  ) external {\n\n    latestTokenId++;\n    _mint(\n      protocolAddress,\n      bytes32(latestTokenId),\n      true,\n      bytes.concat(abi.encode(data))\n    );\n\n  }\n\n  /**\n   * @notice Override transfers to allow only transfers to or from the `protocolAddress`\n   */\n  function _transfer(\n    address from,\n    address to,\n    bytes32 tokenId,\n    bool force,\n    bytes memory data\n  ) internal override {\n\n    require(\n      to == protocolAddress || from == protocolAddress,\n      \"Nor sender, nor reciever is the protocol.\"\n    );\n\n    super._transfer(\n      from,\n      to,\n      tokenId,\n      force,\n      data\n    );\n\n  }\n\n}",
  "sourcePath": "/home/b00ste/Projects/universal-profile-governance/contracts/TransferableDaoToken/TransferableDaoToken.sol",
  "compiler": {
    "name": "solc",
    "version": "0.8.15+commit.e14f2714.Emscripten.clang"
  },
  "schemaVersion": "3.4.8",
  "updatedAt": "2022-07-21T08:10:14.982Z",
  "devdoc": {
    "author": "B00ste",
    "custom:version": "0.1",
    "kind": "dev",
    "methods": {
      "authorizeOperator(address,bytes32)": {
        "details": "Makes `operator` address an operator of `tokenId`. See {isOperatorFor}. Requirements - `tokenId` must exist. - caller must be current `tokenOwner` of `tokenId`. - `operator` cannot be the zero address. Emits an {AuthorizedOperator} event.",
        "params": {
          "operator": "The address to authorize as an operator.",
          "tokenId": "The tokenId operator has access to."
        }
      },
      "balanceOf(address)": {
        "details": "Returns the number of tokens owned by `tokenOwner`.",
        "params": {
          "tokenOwner": "The address to query"
        },
        "returns": {
          "_0": "The number of tokens owned by this address"
        }
      },
      "getData(bytes32)": {
        "params": {
          "dataKey": "The key which value to retrieve"
        },
        "returns": {
          "dataValue": "The data stored at the key"
        }
      },
      "getData(bytes32[])": {
        "params": {
          "dataKeys": "The array of keys which values to retrieve"
        },
        "returns": {
          "dataValues": "The array of data stored at multiple keys"
        }
      },
      "getOperatorsOf(bytes32)": {
        "details": "Returns all `operator` addresses of `tokenId`. Requirements - `tokenId` must exist.",
        "params": {
          "tokenId": "The tokenId to query"
        },
        "returns": {
          "_0": "The list of operators for the `tokenId`"
        }
      },
      "isOperatorFor(address,bytes32)": {
        "details": "Returns whether `operator` address is an operator of `tokenId`. Operators can send and burn tokens on behalf of their owners. The tokenOwner is their own operator. Requirements - `tokenId` must exist.",
        "params": {
          "operator": "The address to query",
          "tokenId": "The tokenId to query"
        },
        "returns": {
          "_0": "True if the owner of `tokenId` is `operator` address, false otherwise"
        }
      },
      "mint(string)": {
        "params": {
          "data": "Information stored in a string that will be encoded using abi.encode()."
        }
      },
      "owner()": {
        "details": "Returns the address of the current owner."
      },
      "renounceOwnership()": {
        "details": "Leaves the contract without owner. It will not be possible to call `onlyOwner` functions anymore. Can only be called by the current owner. NOTE: Renouncing ownership will leave the contract without an owner, thereby removing any functionality that is only available to the owner."
      },
      "revokeOperator(address,bytes32)": {
        "details": "Removes `operator` address as an operator of `tokenId`. See {isOperatorFor}. Requirements - `tokenId` must exist. - caller must be current `tokenOwner` of `tokenId`. - `operator` cannot be the zero address. Emits a {RevokedOperator} event.",
        "params": {
          "operator": "The address to revoke as an operator.",
          "tokenId": "The tokenId `operator` is revoked from operating"
        }
      },
      "setData(bytes32,bytes)": {
        "params": {
          "dataKey": "The key which value to retrieve",
          "dataValue": "The value to set SHOULD only be callable by the owner of the contract set via ERC173 Emits a {DataChanged} event."
        }
      },
      "setData(bytes32[],bytes[])": {
        "details": "Sets array of data at multiple given `dataKeys` SHOULD only be callable by the owner of the contract set via ERC173 Emits a {DataChanged} event.",
        "params": {
          "dataKeys": "The array of keys which values to set",
          "dataValues": "The array of values to set"
        }
      },
      "supportsInterface(bytes4)": {
        "details": "See {IERC165-supportsInterface}."
      },
      "tokenIdsOf(address)": {
        "details": "Returns the list of `tokenIds` for the `tokenOwner` address.",
        "params": {
          "tokenOwner": "The address to query owned tokens"
        },
        "returns": {
          "_0": "List of owned tokens by `tokenOwner` address"
        }
      },
      "tokenOwnerOf(bytes32)": {
        "details": "Returns the `tokenOwner` address of the `tokenId` token. Requirements: - `tokenId` must exist.",
        "params": {
          "tokenId": "The tokenId to query"
        },
        "returns": {
          "_0": "The address owning the `tokenId`"
        }
      },
      "totalSupply()": {
        "details": "Returns the number of existing tokens.",
        "returns": {
          "_0": "The number of existing tokens"
        }
      },
      "transfer(address,address,bytes32,bool,bytes)": {
        "details": "Transfers `tokenId` token from `from` to `to`. Requirements: - `from` cannot be the zero address. - `to` cannot be the zero address. - `tokenId` token must be owned by `from`. - If the caller is not `from`, it must be an operator of `tokenId`. Emits a {Transfer} event.",
        "params": {
          "data": "Additional data the caller wants included in the emitted event, and sent in the hooks to `from` and `to` addresses.",
          "force": "When set to TRUE, to may be any address but when set to FALSE to must be a contract that supports LSP1 UniversalReceiver",
          "from": "The sending address.",
          "to": "The receiving address.",
          "tokenId": "The tokenId to transfer."
        }
      },
      "transferBatch(address[],address[],bytes32[],bool,bytes[])": {
        "details": "Transfers many tokens based on the list `from`, `to`, `tokenId`. If any transfer fails the call will revert. Requirements: - `from`, `to`, `tokenId` lists are the same length. - no values in `from` can be the zero address. - no values in `to` can be the zero address. - each `tokenId` token must be owned by `from`. - If the caller is not `from`, it must be an operator of each `tokenId`. Emits {Transfer} events.",
        "params": {
          "data": "Additional data the caller wants included in the emitted event, and sent in the hooks to `from` and `to` addresses.",
          "force": "When set to TRUE, to may be any address but when set to FALSE to must be a contract that supports LSP1 UniversalReceiver",
          "from": "The list of sending addresses.",
          "to": "The list of receiving addresses.",
          "tokenId": "The list of tokenId to transfer."
        }
      },
      "transferOwnership(address)": {
        "details": "Transfers ownership of the contract to a new account (`newOwner`). Can only be called by the current owner."
      }
    },
    "title": "TransferableDaoToken",
    "version": 1
  },
  "userdoc": {
    "events": {
      "DataChanged(bytes32)": {
        "notice": "Emitted when data at a key is changed"
      }
    },
    "kind": "user",
    "methods": {
      "constructor": {
        "notice": "Initializing LSP8IdentifiableDigitalAsset "
      },
      "getData(bytes32)": {
        "notice": "Gets singular data at a given `dataKey`"
      },
      "getData(bytes32[])": {
        "notice": "Gets array of data at multiple given keys"
      },
      "mint(string)": {
        "notice": "Mint a new NFT."
      },
      "setData(bytes32,bytes)": {
        "notice": "Sets singular data at a given `dataKey`"
      }
    },
    "version": 1
  }
}